{
  "_format": "hh-sol-artifact-1",
  "contractName": "MonanimalNFT",
  "sourceName": "contracts/MonanimalNFT_Updated.sol",
  "abi": [
    {
      "inputs": [],
      "stateMutability": "nonpayable",
      "type": "constructor"
    },
    {
      "anonymous": false,
      "inputs": [
        {
          "indexed": true,
          "internalType": "address",
          "name": "owner",
          "type": "address"
        },
        {
          "indexed": true,
          "internalType": "address",
          "name": "approved",
          "type": "address"
        },
        {
          "indexed": true,
          "internalType": "uint256",
          "name": "tokenId",
          "type": "uint256"
        }
      ],
      "name": "Approval",
      "type": "event"
    },
    {
      "anonymous": false,
      "inputs": [
        {
          "indexed": true,
          "internalType": "address",
          "name": "owner",
          "type": "address"
        },
        {
          "indexed": true,
          "internalType": "address",
          "name": "operator",
          "type": "address"
        },
        {
          "indexed": false,
          "internalType": "bool",
          "name": "approved",
          "type": "bool"
        }
      ],
      "name": "ApprovalForAll",
      "type": "event"
    },
    {
      "anonymous": false,
      "inputs": [
        {
          "indexed": true,
          "internalType": "uint256",
          "name": "tokenId",
          "type": "uint256"
        },
        {
          "indexed": false,
          "internalType": "uint256",
          "name": "weaponId",
          "type": "uint256"
        },
        {
          "indexed": false,
          "internalType": "uint256",
          "name": "artifactId",
          "type": "uint256"
        }
      ],
      "name": "MonanimalEquipped",
      "type": "event"
    },
    {
      "anonymous": false,
      "inputs": [
        {
          "indexed": true,
          "internalType": "uint256",
          "name": "tokenId",
          "type": "uint256"
        }
      ],
      "name": "MonanimalHealed",
      "type": "event"
    },
    {
      "anonymous": false,
      "inputs": [
        {
          "indexed": true,
          "internalType": "uint256",
          "name": "tokenId",
          "type": "uint256"
        },
        {
          "indexed": false,
          "internalType": "uint256",
          "name": "newLevel",
          "type": "uint256"
        }
      ],
      "name": "MonanimalLevelUp",
      "type": "event"
    },
    {
      "anonymous": false,
      "inputs": [
        {
          "indexed": true,
          "internalType": "uint256",
          "name": "tokenId",
          "type": "uint256"
        },
        {
          "indexed": true,
          "internalType": "address",
          "name": "owner",
          "type": "address"
        },
        {
          "indexed": false,
          "internalType": "enum MonanimalNFT.MonanimalClass",
          "name": "class",
          "type": "uint8"
        },
        {
          "indexed": false,
          "internalType": "enum MonanimalNFT.Rarity",
          "name": "rarity",
          "type": "uint8"
        }
      ],
      "name": "MonanimalMinted",
      "type": "event"
    },
    {
      "anonymous": false,
      "inputs": [
        {
          "indexed": true,
          "internalType": "address",
          "name": "previousOwner",
          "type": "address"
        },
        {
          "indexed": true,
          "internalType": "address",
          "name": "newOwner",
          "type": "address"
        }
      ],
      "name": "OwnershipTransferred",
      "type": "event"
    },
    {
      "anonymous": false,
      "inputs": [
        {
          "indexed": true,
          "internalType": "address",
          "name": "from",
          "type": "address"
        },
        {
          "indexed": true,
          "internalType": "address",
          "name": "to",
          "type": "address"
        },
        {
          "indexed": true,
          "internalType": "uint256",
          "name": "tokenId",
          "type": "uint256"
        }
      ],
      "name": "Transfer",
      "type": "event"
    },
    {
      "inputs": [
        {
          "internalType": "uint256",
          "name": "tokenId",
          "type": "uint256"
        },
        {
          "internalType": "uint256",
          "name": "exp",
          "type": "uint256"
        }
      ],
      "name": "addExperience",
      "outputs": [],
      "stateMutability": "nonpayable",
      "type": "function"
    },
    {
      "inputs": [
        {
          "internalType": "address",
          "name": "to",
          "type": "address"
        },
        {
          "internalType": "uint256",
          "name": "tokenId",
          "type": "uint256"
        }
      ],
      "name": "approve",
      "outputs": [],
      "stateMutability": "nonpayable",
      "type": "function"
    },
    {
      "inputs": [
        {
          "internalType": "address",
          "name": "owner",
          "type": "address"
        }
      ],
      "name": "balanceOf",
      "outputs": [
        {
          "internalType": "uint256",
          "name": "",
          "type": "uint256"
        }
      ],
      "stateMutability": "view",
      "type": "function"
    },
    {
      "inputs": [
        {
          "internalType": "uint256",
          "name": "tokenId",
          "type": "uint256"
        },
        {
          "internalType": "uint256",
          "name": "weaponId",
          "type": "uint256"
        },
        {
          "internalType": "uint256",
          "name": "artifactId",
          "type": "uint256"
        }
      ],
      "name": "equipItems",
      "outputs": [],
      "stateMutability": "nonpayable",
      "type": "function"
    },
    {
      "inputs": [
        {
          "internalType": "uint256",
          "name": "tokenId",
          "type": "uint256"
        }
      ],
      "name": "getApproved",
      "outputs": [
        {
          "internalType": "address",
          "name": "",
          "type": "address"
        }
      ],
      "stateMutability": "view",
      "type": "function"
    },
    {
      "inputs": [
        {
          "internalType": "uint256",
          "name": "tokenId",
          "type": "uint256"
        }
      ],
      "name": "getMonanimal",
      "outputs": [
        {
          "components": [
            {
              "internalType": "string",
              "name": "name",
              "type": "string"
            },
            {
              "internalType": "enum MonanimalNFT.MonanimalClass",
              "name": "class",
              "type": "uint8"
            },
            {
              "internalType": "enum MonanimalNFT.Rarity",
              "name": "rarity",
              "type": "uint8"
            },
            {
              "components": [
                {
                  "internalType": "uint256",
                  "name": "health",
                  "type": "uint256"
                },
                {
                  "internalType": "uint256",
                  "name": "attack",
                  "type": "uint256"
                },
                {
                  "internalType": "uint256",
                  "name": "defense",
                  "type": "uint256"
                },
                {
                  "internalType": "uint256",
                  "name": "speed",
                  "type": "uint256"
                },
                {
                  "internalType": "uint256",
                  "name": "magic",
                  "type": "uint256"
                },
                {
                  "internalType": "uint256",
                  "name": "luck",
                  "type": "uint256"
                }
              ],
              "internalType": "struct MonanimalNFT.MonanimalStats",
              "name": "stats",
              "type": "tuple"
            },
            {
              "internalType": "uint256",
              "name": "level",
              "type": "uint256"
            },
            {
              "internalType": "uint256",
              "name": "experience",
              "type": "uint256"
            },
            {
              "internalType": "uint256",
              "name": "wins",
              "type": "uint256"
            },
            {
              "internalType": "uint256",
              "name": "losses",
              "type": "uint256"
            },
            {
              "internalType": "bool",
              "name": "isKO",
              "type": "bool"
            },
            {
              "internalType": "uint256",
              "name": "lastBattleTime",
              "type": "uint256"
            },
            {
              "internalType": "string",
              "name": "colorScheme",
              "type": "string"
            },
            {
              "internalType": "uint256",
              "name": "weaponId",
              "type": "uint256"
            },
            {
              "internalType": "uint256",
              "name": "artifactId",
              "type": "uint256"
            }
          ],
          "internalType": "struct MonanimalNFT.Monanimal",
          "name": "",
          "type": "tuple"
        }
      ],
      "stateMutability": "view",
      "type": "function"
    },
    {
      "inputs": [
        {
          "internalType": "address",
          "name": "owner",
          "type": "address"
        }
      ],
      "name": "getOwnerMonanimals",
      "outputs": [
        {
          "internalType": "uint256[]",
          "name": "",
          "type": "uint256[]"
        }
      ],
      "stateMutability": "view",
      "type": "function"
    },
    {
      "inputs": [
        {
          "internalType": "uint256",
          "name": "tokenId",
          "type": "uint256"
        }
      ],
      "name": "healMonanimal",
      "outputs": [],
      "stateMutability": "payable",
      "type": "function"
    },
    {
      "inputs": [],
      "name": "healingPrice",
      "outputs": [
        {
          "internalType": "uint256",
          "name": "",
          "type": "uint256"
        }
      ],
      "stateMutability": "view",
      "type": "function"
    },
    {
      "inputs": [
        {
          "internalType": "address",
          "name": "owner",
          "type": "address"
        },
        {
          "internalType": "address",
          "name": "operator",
          "type": "address"
        }
      ],
      "name": "isApprovedForAll",
      "outputs": [
        {
          "internalType": "bool",
          "name": "",
          "type": "bool"
        }
      ],
      "stateMutability": "view",
      "type": "function"
    },
    {
      "inputs": [],
      "name": "mint",
      "outputs": [],
      "stateMutability": "payable",
      "type": "function"
    },
    {
      "inputs": [],
      "name": "mintPrice",
      "outputs": [
        {
          "internalType": "uint256",
          "name": "",
          "type": "uint256"
        }
      ],
      "stateMutability": "view",
      "type": "function"
    },
    {
      "inputs": [
        {
          "internalType": "uint256",
          "name": "",
          "type": "uint256"
        }
      ],
      "name": "monanimals",
      "outputs": [
        {
          "internalType": "string",
          "name": "name",
          "type": "string"
        },
        {
          "internalType": "enum MonanimalNFT.MonanimalClass",
          "name": "class",
          "type": "uint8"
        },
        {
          "internalType": "enum MonanimalNFT.Rarity",
          "name": "rarity",
          "type": "uint8"
        },
        {
          "components": [
            {
              "internalType": "uint256",
              "name": "health",
              "type": "uint256"
            },
            {
              "internalType": "uint256",
              "name": "attack",
              "type": "uint256"
            },
            {
              "internalType": "uint256",
              "name": "defense",
              "type": "uint256"
            },
            {
              "internalType": "uint256",
              "name": "speed",
              "type": "uint256"
            },
            {
              "internalType": "uint256",
              "name": "magic",
              "type": "uint256"
            },
            {
              "internalType": "uint256",
              "name": "luck",
              "type": "uint256"
            }
          ],
          "internalType": "struct MonanimalNFT.MonanimalStats",
          "name": "stats",
          "type": "tuple"
        },
        {
          "internalType": "uint256",
          "name": "level",
          "type": "uint256"
        },
        {
          "internalType": "uint256",
          "name": "experience",
          "type": "uint256"
        },
        {
          "internalType": "uint256",
          "name": "wins",
          "type": "uint256"
        },
        {
          "internalType": "uint256",
          "name": "losses",
          "type": "uint256"
        },
        {
          "internalType": "bool",
          "name": "isKO",
          "type": "bool"
        },
        {
          "internalType": "uint256",
          "name": "lastBattleTime",
          "type": "uint256"
        },
        {
          "internalType": "string",
          "name": "colorScheme",
          "type": "string"
        },
        {
          "internalType": "uint256",
          "name": "weaponId",
          "type": "uint256"
        },
        {
          "internalType": "uint256",
          "name": "artifactId",
          "type": "uint256"
        }
      ],
      "stateMutability": "view",
      "type": "function"
    },
    {
      "inputs": [],
      "name": "name",
      "outputs": [
        {
          "internalType": "string",
          "name": "",
          "type": "string"
        }
      ],
      "stateMutability": "view",
      "type": "function"
    },
    {
      "inputs": [],
      "name": "owner",
      "outputs": [
        {
          "internalType": "address",
          "name": "",
          "type": "address"
        }
      ],
      "stateMutability": "view",
      "type": "function"
    },
    {
      "inputs": [
        {
          "internalType": "address",
          "name": "",
          "type": "address"
        },
        {
          "internalType": "uint256",
          "name": "",
          "type": "uint256"
        }
      ],
      "name": "ownerMonanimals",
      "outputs": [
        {
          "internalType": "uint256",
          "name": "",
          "type": "uint256"
        }
      ],
      "stateMutability": "view",
      "type": "function"
    },
    {
      "inputs": [
        {
          "internalType": "uint256",
          "name": "tokenId",
          "type": "uint256"
        }
      ],
      "name": "ownerOf",
      "outputs": [
        {
          "internalType": "address",
          "name": "",
          "type": "address"
        }
      ],
      "stateMutability": "view",
      "type": "function"
    },
    {
      "inputs": [],
      "name": "renounceOwnership",
      "outputs": [],
      "stateMutability": "nonpayable",
      "type": "function"
    },
    {
      "inputs": [
        {
          "internalType": "address",
          "name": "from",
          "type": "address"
        },
        {
          "internalType": "address",
          "name": "to",
          "type": "address"
        },
        {
          "internalType": "uint256",
          "name": "tokenId",
          "type": "uint256"
        }
      ],
      "name": "safeTransferFrom",
      "outputs": [],
      "stateMutability": "nonpayable",
      "type": "function"
    },
    {
      "inputs": [
        {
          "internalType": "address",
          "name": "from",
          "type": "address"
        },
        {
          "internalType": "address",
          "name": "to",
          "type": "address"
        },
        {
          "internalType": "uint256",
          "name": "tokenId",
          "type": "uint256"
        },
        {
          "internalType": "bytes",
          "name": "data",
          "type": "bytes"
        }
      ],
      "name": "safeTransferFrom",
      "outputs": [],
      "stateMutability": "nonpayable",
      "type": "function"
    },
    {
      "inputs": [
        {
          "internalType": "address",
          "name": "operator",
          "type": "address"
        },
        {
          "internalType": "bool",
          "name": "approved",
          "type": "bool"
        }
      ],
      "name": "setApprovalForAll",
      "outputs": [],
      "stateMutability": "nonpayable",
      "type": "function"
    },
    {
      "inputs": [
        {
          "internalType": "uint256",
          "name": "_price",
          "type": "uint256"
        }
      ],
      "name": "setHealingPrice",
      "outputs": [],
      "stateMutability": "nonpayable",
      "type": "function"
    },
    {
      "inputs": [
        {
          "internalType": "uint256",
          "name": "_price",
          "type": "uint256"
        }
      ],
      "name": "setMintPrice",
      "outputs": [],
      "stateMutability": "nonpayable",
      "type": "function"
    },
    {
      "inputs": [
        {
          "internalType": "bytes4",
          "name": "interfaceId",
          "type": "bytes4"
        }
      ],
      "name": "supportsInterface",
      "outputs": [
        {
          "internalType": "bool",
          "name": "",
          "type": "bool"
        }
      ],
      "stateMutability": "view",
      "type": "function"
    },
    {
      "inputs": [],
      "name": "symbol",
      "outputs": [
        {
          "internalType": "string",
          "name": "",
          "type": "string"
        }
      ],
      "stateMutability": "view",
      "type": "function"
    },
    {
      "inputs": [
        {
          "internalType": "uint256",
          "name": "index",
          "type": "uint256"
        }
      ],
      "name": "tokenByIndex",
      "outputs": [
        {
          "internalType": "uint256",
          "name": "",
          "type": "uint256"
        }
      ],
      "stateMutability": "view",
      "type": "function"
    },
    {
      "inputs": [
        {
          "internalType": "address",
          "name": "owner",
          "type": "address"
        },
        {
          "internalType": "uint256",
          "name": "index",
          "type": "uint256"
        }
      ],
      "name": "tokenOfOwnerByIndex",
      "outputs": [
        {
          "internalType": "uint256",
          "name": "",
          "type": "uint256"
        }
      ],
      "stateMutability": "view",
      "type": "function"
    },
    {
      "inputs": [
        {
          "internalType": "uint256",
          "name": "tokenId",
          "type": "uint256"
        }
      ],
      "name": "tokenURI",
      "outputs": [
        {
          "internalType": "string",
          "name": "",
          "type": "string"
        }
      ],
      "stateMutability": "view",
      "type": "function"
    },
    {
      "inputs": [],
      "name": "totalSupply",
      "outputs": [
        {
          "internalType": "uint256",
          "name": "",
          "type": "uint256"
        }
      ],
      "stateMutability": "view",
      "type": "function"
    },
    {
      "inputs": [
        {
          "internalType": "address",
          "name": "from",
          "type": "address"
        },
        {
          "internalType": "address",
          "name": "to",
          "type": "address"
        },
        {
          "internalType": "uint256",
          "name": "tokenId",
          "type": "uint256"
        }
      ],
      "name": "transferFrom",
      "outputs": [],
      "stateMutability": "nonpayable",
      "type": "function"
    },
    {
      "inputs": [
        {
          "internalType": "address",
          "name": "newOwner",
          "type": "address"
        }
      ],
      "name": "transferOwnership",
      "outputs": [],
      "stateMutability": "nonpayable",
      "type": "function"
    },
    {
      "inputs": [
        {
          "internalType": "uint256",
          "name": "tokenId",
          "type": "uint256"
        },
        {
          "internalType": "bool",
          "name": "won",
          "type": "bool"
        }
      ],
      "name": "updateBattleResult",
      "outputs": [],
      "stateMutability": "nonpayable",
      "type": "function"
    },
    {
      "inputs": [],
      "name": "withdraw",
      "outputs": [],
      "stateMutability": "nonpayable",
      "type": "function"
    }
  ],
  "bytecode": "0x60803462000382576001600160401b03906040818101838111838210176200036c578152601482526020917f427261776c4e616473204d6f6e616e696d616c7300000000000000000000000083820152815193828501858110828211176200036c578352600585526410949055d360da1b8486015281518181116200036c576000948554916001948584811c9416801562000361575b838510146200034d578190601f94858111620002fa575b508390858311600114620002965789926200028a575b5050600019600383901b1c191690851b1786555b8651928311620002765783548481811c911680156200026b575b8282101462000257578281116200020f575b5080918311600114620001a85750849582939495926200019c575b5050600019600383901b1c191690821b1790555b600a8054336001600160a01b03198216811790925591519290916001600160a01b0316907f8be0079c531659141344cd1fd0a4f28419497f9722a3daafe3b4186f6b6457e09080a3662386f26fc10000600e556611c37937e08000600f5561585d9081620003888239f35b0151905038806200011d565b90601f198316968487528287209287905b898210620001f7575050838596979810620001dd575b505050811b01905562000131565b015160001960f88460031b161c19169055388080620001cf565b808785968294968601518155019501930190620001b9565b8487528187208380860160051c8201928487106200024d575b0160051c019085905b8281106200024157505062000102565b88815501859062000231565b9250819262000228565b634e487b7160e01b87526022600452602487fd5b90607f1690620000f0565b634e487b7160e01b86526041600452602486fd5b015190503880620000c2565b898052848a208894509190601f1984168b5b87828210620002e35750508411620002c9575b505050811b018655620000d6565b015160001960f88460031b161c19169055388080620002bb565b8385015186558b97909501949384019301620002a8565b9091508880528389208580850160051c82019286861062000343575b918991869594930160051c01915b82811062000334575050620000ac565b8b815585945089910162000324565b9250819262000316565b634e487b7160e01b88526022600452602488fd5b93607f169362000095565b634e487b7160e01b600052604160045260246000fd5b600080fdfe61010080604052600436101561001457600080fd5b60003560e01c90816301ffc9a7146136525750806306fdde03146135af578063081812fc14613591578063095ea7b3146134175780631249c58b1461292d57806318160ddd1461290f5780631a01da3f146126d957806323b872dd146126b55780632f745c59146126035780633ccfd60b146125b357806342842e0e146125805780634f0fab16146124c25780634f6ccce7146124175780635a6de6c6146123995780635d240c58146121795780635f89525c1461208257806361f9f71f14611f415780636352211e14611f115780636817c76c14611ef357806370a0823114611ec8578063715018a614611e6b578063894994c314611e4a5780638da5cb5b14611e2157806395d89b4114611d565780639942f46714611d38578063a22cb46514611c60578063aa66b47e14611c08578063b88d4fde14611b59578063c87b56dd1461037f578063e985e9c514610329578063f2afec2f14610275578063f2fde38b146101b15763f4a0a5281461018b57600080fd5b346101ac5760203660031901126101ac576101a4613a13565b600435600e55005b600080fd5b346101ac5760203660031901126101ac576101ca61371f565b6101d2613a13565b6001600160a01b0390811690811561022157600a54826001600160601b0360a01b821617600a55167f8be0079c531659141344cd1fd0a4f28419497f9722a3daafe3b4186f6b6457e0600080a3005b60405162461bcd60e51b815260206004820152602660248201527f4f776e61626c653a206e6577206f776e657220697320746865207a65726f206160448201526564647265737360d01b6064820152608490fd5b346101ac576020806003193601126101ac576001600160a01b0361029761371f565b16600052600d8152604060002060405190818382549182815201908192600052846000209060005b868282106103155786866102d5828803836138bd565b604051928392818401908285525180915260408401929160005b8281106102fe57505050500390f35b8351855286955093810193928101926001016102ef565b8354855290930192600192830192016102bf565b346101ac5760403660031901126101ac5761034261371f565b61034a613735565b9060018060a01b03809116600052600560205260406000209116600052602052602060ff604060002054166040519015158152f35b346101ac5760203660031901126101ac576004356000908152600260205260409020546001600160a01b031615611b1d57600435600052600c60205260406000206010604051916103cf83613819565b6103d8816138de565b835261040060ff60018301546103f38282166020880161412b565b60081c1660408501614137565b61040c60028201613984565b606084015260088101546080840152600981015460a0840152600a81015460c0840152600b81015460e084015260ff600c820154161515610100840152600d810154610120840152610460600e82016138de565b610140840152600f8101546101608401520154610180820152805160208201516005811015611ab5576040830151906006821015611ab55761052d9184608081015160608201518051906020810151604082015160608301519160a06080850151940151946101408801519660e060c08a015199015199604080519e8f906104e782613819565b81528d6020820152015260608d015260808c015260a08b015260c08a015260e0890152610100880152610120870152610140860152610160850152610180840152614739565b6105c0602d61053f6040850151614a79565b9261054d6040860151614cf9565b604051948592651e3232b3399f60d11b60208501526105768151809260206026880191016136d7565b830161058c8251809360206026850191016136d7565b016105a18251809360206026850191016136d7565b01661e17b232b3399f60c91b602682015203600d8101845201826138bd565b6040820151600211611ae1576040516105d88161386b565b602681527f2066696c7465723d2275726c2823636c61737346696c746572292075726c282360208201526533b637bb949160d11b6040820152905b604080517f3c7061746820643d224d3020302043342e333235393335363620332e3536383860208201527f3936393220362e3235303037363420372e313839333730373220372e38373520918101919091527f31322e343337352043382e32343131373433322031332e35383038353831352060608201527f382e32343131373433322031332e353830383538313520382e3631343734363060808201527f392031342e3734373331343435204331342e37343339353637332033342e363460a08201527f31323132342031392e30343539303533332035352e343036383134353820323260c08201527f203736204332322e32323432393638372037372e35303739363134332032322e60e08201527f32323432393638372037372e35303739363134332032322e34353331323520376101008201527f392e3034363338363732204332372e3835373230383635203131362e383334326101208201527f303836392032352e3539313430373031203135352e32363433373336322032316101408201527f20313933222066696c6c3d222330313030303222207472616e73666f726d3d22610160820152733a3930b739b630ba32941b989c16199b9491179f60611b6101808201527f3c7061746820643d224d302030204331322e373730363939353520372e3736316101948201527f333137342031322e373730363939353520372e373631333137342031342e33326101b48201527f30333132352031322e3431303135363235204331332e313937353339303620316101d48201527f332e30353038323033312031322e30373437363536322031332e3639313438346101f48201527f33382031302e39313739363837352031342e33353135363235222066696c6c3d6102148201527f222336453441443822207472616e73666f726d3d227472616e736c617465283761023482015268181c161a9c9491179f60b91b6102548201527f3c7061746820643d224d3020302043302e393136313230363120302e3430333761025d8201527f3938383320312e383332323431323120302e383037353937363620322e37373661027d8201527f313233303520312e3232333633323831204331312e353831383633303320352e61029d8201527f32343730393731372031392e33303238313732392031302e32373134383839326102bd8201527f2032362e393337352031362e31383735222066696c6c3d2223364334394438226102dd8201527f207472616e73666f726d3d227472616e736c617465283639302e303632352c356102fd8201526a181b971c18991a9491179f60a91b61031d8201527f3c7061746820643d224d3020302043302e363231333238313220302e343931316103288201527f3332383120312e323432363536323520302e393832323635363220312e3838326103488201527f3831323520312e34383832383132352043382e393637383536353520362e35306103688201527f3538343635382031372e353838313538363920392e31303437383338382032356103888201527f2e38313634303632352031312e36373936383735222066696c6c3d22234346336103a88201527f33433022207472616e73666f726d3d227472616e736c617465283430372e39396103c88201527519189c1b9a961b9a9997189c9c99189c1b9a9491179f60511b6103e88201526103de8152916001600160401b03610400840190811190841117611acb57829061040082016040526104208201613c6760f01b9052805161042291818385019160200191610b30926136d7565b601f60f91b90830191820152815161042391610b5282848301602087016136d7565b01908101631e17b39f60e11b90520360078101610400840152602701610400830190610b7d916138bd565b610b8683614edd565b92610b90816153b9565b81516060830151610ba0906143a1565b926020810151610baf90615724565b906040810151610bbe9061577d565b6080820151610bcc906143a1565b60a0830151610bda906143a1565b60c0840151610be8906143a1565b60e0850151610bf6906143a1565b91610100860151610c06906143a1565b93610120870151610c16906143a1565b95610160880151610c26906143a1565b976101800151610c35906143a1565b986040519c8d809c602082017f3c7265637420783d2232302220793d22383530222077696474683d22393834229052604082017f206865696768743d22313530222066696c6c3d2223304531303046222066696c9052606082017f6c2d6f7061636974793d22302e39222072783d223130222f3e000000000000009052607982017f3c7465787420783d2234302220793d22383930222066696c6c3d2223464646469052609982017f46462220666f6e742d66616d696c793d22417269616c2c2073616e732d736572905260b982017f69662220666f6e742d73697a653d2232382220666f6e742d7765696768743d229052653137b632111f60d11b60d9830152805160df8193019160200191610d4b926136d7565b8c0160df8101661e17ba32bc3a1f60c91b905260e681017f3c7465787420783d2234302220793d22393230222066696c6c3d222338333645905261010681017f46392220666f6e742d66616d696c793d22417269616c2c2073616e732d736572905261012681017f69662220666f6e742d73697a653d223230223e4c6576656c2000000000000000905281519061013f92828483019160200191610dee926136d7565b01620103e160ed1b809282015282519061014293828583019160200191610e14926136d7565b019182015281519061014592828483019160200191610e32926136d7565b661e17ba32bc3a1f60c91b9101918201527f3c7465787420783d2234302220793d22393530222066696c6c3d22234646464661014c8201527f46462220666f6e742d66616d696c793d22417269616c2c2073616e732d73657261016c8201527534b311103337b73a16b9b4bd329e91189c111f24281d60511b61018c8201528151916101a290610eca908490838501906020016136d7565b82820101641020aa259d60d91b9052825192838383016101a7019160200191610ef2926136d7565b82828201016101a70164102222a31d60d91b90528351938484848401016101ac019160200191610f21926136d7565b661e17ba32bc3a1f60c91b828201840185016101ac8101919091527f3c7465787420783d2234302220793d22393830222066696c6c3d2223464646466101b38201527f46462220666f6e742d66616d696c793d22417269616c2c2073616e732d7365726101d38201527f69662220666f6e742d73697a653d223138223e5350443a0000000000000000006101f3820152855195610fc991879161020a909101906020016136d7565b641026a0a39d60d91b82820184018501860161020a810191909152865196610ffc91889161020f909101906020016136d7565b010101010161020f810164102621a59d60d91b90528151918261021483019160200191611028926136d7565b016102148101661e17ba32bc3a1f60c91b905261021b81017f3c7465787420783d223730302220793d22393530222066696c6c3d222341303090527f3535442220666f6e742d66616d696c793d22417269616c2c2073616e732d7365908161023b82015261025b81017f7269662220666f6e742d73697a653d223138223e57696e733a200000000000009052825190610275938285830191602001916110cd926136d7565b01918201661e17ba32bc3a1f60c91b905261027c82017f3c7465787420783d223730302220793d22393830222066696c6c3d2223413030905261029c8201526102bc81017f7269662220666f6e742d73697a653d223138223e4c6f737365733a200000000090528151906102d89282848301916020019161114d926136d7565b01908101661e17ba32bc3a1f60c91b90528181036102bf018252036102df0161117690836138bd565b604051948594602086017f3c7376672077696474683d223130323422206865696768743d223130323422209052604086017f786d6c6e733d22687474703a2f2f7777772e77332e6f72672f323030302f737690526233911f60e91b606087015284516063958187890191602001916111ed926136d7565b86016104008201519182878301916104200191611209926136d7565b0181519182868301916020019161121f926136d7565b01815191828583019160200191611235926136d7565b0181519182848301916020019161124b926136d7565b01908101651e17b9bb339f60d11b90520360498101825260690161126f90826138bd565b815160c05261127d9061452f565b60e05261128b6004356143a1565b9060208101516005811015611ab5576112ed906040516112aa816137fe565b6112b2614227565b81526112bc61424a565b60208201526112c961426e565b60408201526112d661428e565b60608201526112e36142b3565b608082015261435e565b51916040820151916006831015611ab557611a189361136561030394604051611315816137e3565b61131d6146f3565b8152611327614715565b60208201526113346142d7565b60408201526113416142f7565b606082015261134e614317565b608082015261135b61433c565b60a0820152614216565b519061137460808401516143a1565b6113826060850151516143a1565b6113936020606087015101516143a1565b6080526113a76040606087015101516143a1565b926113b860608088015101516143a1565b906113ca6080606089015101516143a1565b916113dc60a060608a015101516143a1565b90610140890151936113f160c08b01516143a1565b966113ff60e08c01516143a1565b996101006114178d60e060c082015191015190614683565b9c015115611a915760405161142b81613835565b60028152614b4f60f01b60208201529c5b6040518060a0526020683d913730b6b2911d1160b91b91015260c05161146e815180926020602960a0510191016136d7565b60a0510161088b60f21b908160298201527f226465736372697074696f6e223a224120756e69717565204d6f6e616e696d61602b8201527f6c206669676874657220696e2074686520427261776c4e61647320626174746c604b8201527f6520726f79616c652e20496e73706972656420627920746865204d6f6e616420606b8201527f626c6f636b636861696e2065636f73797374656d20776974682066756c6c7920608b820152711bdb98da185a5b8814d591c8185c9d0b888b60721b60ab8201527f22696d616765223a22646174613a696d6167652f7376672b786d6c3b6261736560bd820152620d8d0b60ea1b60dd82015260e0519061157c82518093602060e0850191016136d7565b018160e08201527f2265787465726e616c5f75726c223a2268747470733a2f2f627261776c6e616460e282015275732e6d6f6e61642e78797a2f6d6f6e616e696d616c2f60501b6101028201528251906115e08261011895602087850191016136d7565b01918201526d2261747472696275746573223a5b60901b61011a8201527f7b2274726169745f74797065223a22436c617373222c2276616c7565223a220061012882015286519061163b826101479960208b850191016136d7565b019562089f4b60ea1b968780928201527f7b2274726169745f74797065223a22526172697479222c2276616c7565223a2261014a8201528251906116898261016a95602087850191016136d7565b01918201527f7b2274726169745f74797065223a224c6576656c222c2276616c7565223a000061016d8201528151906116cc8261018b94602086850191016136d7565b0192611f4b60f21b998a80998682809896819701527f7b2274726169745f74797065223a224865616c7468222c2276616c7565223a0061018d82015261171d8251809360206101ac850191016136d7565b01816101ac8201527f7b2274726169745f74797065223a2241747461636b222c2276616c7565223a006101ae8201528160805191825190611768826101cd95602087850191016136d7565b01918201527f7b2274726169745f74797065223a22446566656e7365222c2276616c7565223a6101cf8201528251906117ab826101ef95602087850191016136d7565b01918201527f7b2274726169745f74797065223a225370656564222c2276616c7565223a00006101f18201526117ec82518093602061020f850191016136d7565b018161020f8201527f7b2274726169745f74797065223a224d61676963222c2276616c7565223a00006102118201528251906118328261022f95602087850191016136d7565b01918201527f7b2274726169745f74797065223a224c75636b222c2276616c7565223a0000006102318201528251906118758261024e95602087850191016136d7565b01918201527f7b2274726169745f74797065223a22436f6c6f7220536368656d65222c22766161025082015265363ab2911d1160d11b6102708201528251906118c88261027695602087850191016136d7565b01918201527f7b2274726169745f74797065223a2257696e73222c2276616c7565223a00000061027982015282519061190b8261029695602087850191016136d7565b01918201527f7b2274726169745f74797065223a224c6f73736573222c2276616c7565223a0061029882015282519061194e826102b795602087850191016136d7565b01918201527f7b2274726169745f74797065223a2257696e2052617465222c2276616c7565226102b9820152611d1160f11b6102d982015281519061199d826102db94602086850191016136d7565b01906309489f4b60e21b908201527f7b2274726169745f74797065223a22537461747573222c2276616c7565223a226102df8201528151906119e9826102ff94602086850191016136d7565b019061227d60f01b90820152615d7d60f01b61030182015260a051809103906102e3820190520160a0516138bd565b611a8d611a2660a05161452f565b611a79603d60405180937f646174613a6170706c69636174696f6e2f6a736f6e3b6261736536342c0000006020830152611a6981518092602086860191016136d7565b810103601d8101845201826138bd565b6040519182916020835260208301906136fa565b0390f35b604051611a9d81613835565b6005815264526561647960d81b60208201529c61143c565b634e487b7160e01b600052602160045260246000fd5b634e487b7160e01b600052604160045260246000fd5b604051611aed81613835565b601b81527f2066696c7465723d2275726c2823636c61737346696c74657229220000000000602082015290610613565b60405162461bcd60e51b8152602060048201526014602482015273151bdad95b88191bd95cc81b9bdd08195e1a5cdd60621b6044820152606490fd5b346101ac5760803660031901126101ac57611b7261371f565b611b7a613735565b90606435906044356001600160401b0383116101ac57366023840112156101ac57826004013593611baa856139f8565b92611bb860405194856138bd565b85845236602487870101116101ac576000602087611c06986024611c0199018389013786010152611bf1611bec8433613c6b565b613b92565b611bfc838383613d33565b614061565b613c47565b005b346101ac5760403660031901126101ac57611c2161371f565b6001600160a01b03166000908152600d60205260409020805460243591908210156101ac57602091611c52916139ca565b90546040519160031b1c8152f35b346101ac5760403660031901126101ac57611c7961371f565b611c8161379a565b6001600160a01b0390911690338214611cf357336000526005602052604060002082600052602052611cc38160406000209060ff801983541691151516179055565b60405190151581527f17307eab39ab6107e8899845ad3d59bd9653f200f220920489ca2b5937696c3160203392a3005b60405162461bcd60e51b815260206004820152601960248201527f4552433732313a20617070726f766520746f2063616c6c6572000000000000006044820152606490fd5b346101ac5760003660031901126101ac576020600f54604051908152f35b346101ac5760003660031901126101ac5760405160006001805490611d7a826137a9565b80855291818116908115611dfa5750600114611da1575b611a8d84611a79818603826138bd565b600081815292507fb10e2d527612073b26eecdfd717e6a320cf44b4afac2b0732d9fcbe2b7fa0cf65b828410611de2575050508101602001611a7982611d91565b80546020858701810191909152909301928101611dca565b60ff191660208087019190915292151560051b85019092019250611a799150839050611d91565b346101ac5760003660031901126101ac57600a546040516001600160a01b039091168152602090f35b346101ac5760203660031901126101ac57611e63613a13565b600435600f55005b346101ac5760003660031901126101ac57611e84613a13565b600a80546001600160a01b031981169091556000906001600160a01b03167f8be0079c531659141344cd1fd0a4f28419497f9722a3daafe3b4186f6b6457e08280a3005b346101ac5760203660031901126101ac576020611eeb611ee661371f565b613a6b565b604051908152f35b346101ac5760003660031901126101ac576020600e54604051908152f35b346101ac5760203660031901126101ac576020611f2f600435613b2e565b6040516001600160a01b039091168152f35b346101ac5760203660031901126101ac57600435600052600c6020526040600020611f6b816138de565b600182015491611f7d60028201613984565b92600882015490600983015490600a840154600b850154600c86015460ff1690600d87015492600e8801611fb0906138de565b95600f8901549860100154976040519b8c9b8c6102408091528d01611fd4916136fa565b97611fe560208e0160ff831661374b565b60408d019060081c60ff1690611ffa91613758565b60608c016120399160a0809180518452602081015160208501526040810151604085015260608101516060850152608081015160808501520151910152565b6101208b01526101408a015261016089015261018088015215156101a08701526101c08601528481036101e0860152612071916136fa565b916102008401526102208301520390f35b346101ac5760403660031901126101ac5760043561209e61379a565b600a546001600160a01b0316330361212857156120ea5780600052600c602052600a6040600020016120d08154614520565b90555b600052600c60205242600d60406000200155600080f35b80600052600c602052600b6040600020016121058154614520565b905580600052600c602052600c604060002001600160ff198254161790556120d3565b60405162461bcd60e51b8152602060048201526024808201527f4f6e6c7920626174746c65206172656e612063616e2075706461746520726573604482015263756c747360e01b6064820152608490fd5b346101ac5760403660031901126101ac57600a54600435906001600160a01b031633036123485780600052600c9060208281526009604060002001926024936121c485358254614209565b90558260005280825260086040600020015460648102908082046064149015171561233357836000528183526040600020816009820154101561220357005b6008016122108154614520565b9055836000528183526009604060002001805491820391821161231e57558260005280825260026040600020018054906005820180921161231e57558260005280825260036040600020018054906003820180921161231e57558260005280825260046040600020018054906003820180921161231e57558260005280825260056040600020018054906002820180921161231e57558260005280825260066040600020018054906002820180921161231e57558260005280825260076040600020018054906001820180921161231e577ff04f007b8dfb9f8caf57a3b9e166b72a4e2f1ea8ead97bafc0f12bd08da6c96994955055836000528152600860406000200154604051908152a2005b85634e487b7160e01b60005260116004526000fd5b84634e487b7160e01b60005260116004526000fd5b60405162461bcd60e51b8152602060048201526024808201527f4f6e6c7920626174746c65206172656e612063616e2061646420657870657269604482015263656e636560e01b6064820152608490fd5b346101ac5760603660031901126101ac576004357fef62795ac449f982db6b821e8bbb6efe0e725055fba3222233db3fda1e1dfbf460406024356044356123f26123e286613b2e565b6001600160a01b031633146144e4565b84600052600c6020528060108460002084600f820155015582519182526020820152a2005b346101ac5760203660031901126101ac576004356008548110156124685760209060086000527ff3f7a9fe364faab93b216da50a3214154f22a0a2b415b23a84c8169e8b636ee30154604051908152f35b60405162461bcd60e51b815260206004820152602c60248201527f455243373231456e756d657261626c653a20676c6f62616c20696e646578206f60448201526b7574206f6620626f756e647360a01b6064820152608490fd5b60203660031901126101ac576004356124dd6123e282613b2e565b80600052600c60205260ff600c60406000200154161561254557612505600f543410156140e8565b80600052600c602052600c60406000200160ff1981541690557f47153a98d8b36230c96ba070e7e481cb1c752aef3f85849b30836b74f6f77c48600080a2005b60405162461bcd60e51b81526020600482015260136024820152724d6f6e616e696d616c206973206e6f74204b4f60681b6044820152606490fd5b346101ac57611c06611c0161259436613765565b90604051926125a284613850565b60008452611bf1611bec8433613c6b565b346101ac5760003660031901126101ac576125cc613a13565b600080808060018060a01b03600a541647908282156125fa575bf1156125ee57005b6040513d6000823e3d90fd5b506108fc6125e6565b346101ac5760403660031901126101ac5761261c61371f565b6024359061262981613a6b565b82101561265c5760018060a01b031660005260066020526040600020906000526020526020604060002054604051908152f35b60405162461bcd60e51b815260206004820152602b60248201527f455243373231456e756d657261626c653a206f776e657220696e646578206f7560448201526a74206f6620626f756e647360a81b6064820152608490fd5b346101ac57611c066126c636613765565b916126d4611bec8433613c6b565b613d33565b346101ac5760203660031901126101ac5760006101806040516126fb81613819565b606081528260208201528260408201526127136141d7565b60608201528260808201528260a08201528260c08201528260e082015282610100820152826101208201526060610140820152826101608201520152600435600052600c602052604060002060106040519161276e83613819565b612777816138de565b835261279260ff60018301546103f38282166020880161412b565b61279e60028201613984565b606084015260088101546080840152600981015460a0840152600a81015460c0840152600b81015460e084015260ff600c820154161515610100840152600d8101546101208401526127f2600e82016138de565b610140840152600f81015461016084015201546101808201526040518091602082526101806128f6612832835161024060208701526102608601906136fa565b6128446020850151604087019061374b565b61285660408501516060870190613758565b61289a6060850151608087019060a0809180518452602081015160208501526040810151604085015260608101516060850152608081015160808501520151910152565b608084015161014086015260a084015161016086015260c08401518386015260e08401516101a086015261010084015115156101c08601526101208401516101e0860152610140840151601f19868303016102008701526136fa565b9161016081015161022085015201516102408301520390f35b346101ac5760003660031901126101ac576020600854604051908152f35b60003660031901126101ac57612947600e543410156140e8565b600b5460018101600b556129596141d7565b5060405160208101904282524460408201528260608201523360601b608082015260748152612987816137fe565b5190209060058083061015611ab5576103e88260081c066101f481106000146133c557506000915b6129b76141d7565b506006831015611ab55760148302838104601414841517156132d457603201806032116132d4576129ee60148360101c0682614209565b6129fe60148460181c0683614209565b91612a0f60148560201c0682614209565b90612a2060148660281c0682614209565b612a41612a3360148860301c0684614209565b9260148860381c0690614209565b9260009560058806156000146132ea57601e81018091116132d457906014810181116132d457601401905b60405195612a79876137e3565b8652602086015260408501526060840152608083015260a0820152612ba8604051612aa3816137e3565b604051612aaf81613835565b600b81526a707572706c652d626c756560a81b60208201528152604051612ad581613835565b600c81526b707572706c652d626572727960a01b60208201526020820152604051612aff81613835565b600b81526a626c75652d707572706c6560a81b60208201526040820152604051612b2881613835565b600c81526b62657272792d707572706c6560a01b60208201526060820152604051612b5281613835565b600f81526e1c1d5c9c1b194b59dc98591a595b9d608a1b60208201526080820152604051612b7f81613835565b600d81526c636f736d69632d707572706c6560981b602082015260a08201526006850690614216565b5190604051612bb6816137fe565b612bbe614227565b8152612bc861424a565b6020820152612bd561426e565b6040820152612be261428e565b6060820152612bef6142b3565b608082015260405190612c01826137e3565b604051612c0d81613850565b600081528252604051612c1f81613835565b60058152645368696e7960d81b60208201526020830152612c3e6142d7565b6040830152612c4b6142f7565b6060830152612c58614317565b6080830152612c6561433c565b60a0830152612c7f88612c788185614216565b5193614216565b5151156132be57604051612c9281613835565b60018152600160fd1b6020820152945b611ab557612d3591612cba602292600589069061435e565b51612cc4896143a1565b906040519783612cde8a95518092602080890191016136d7565b8401612cf382518093602080850191016136d7565b01612d0782518093602080850191016136d7565b0161202360f01b6020820152612d2682518093602087850191016136d7565b010360028101865201846138bd565b60405192612d4284613819565b8352612d54600585066020850161412b565b612d618660408501614137565b606083015260016080830152600060a0830152600060c0830152600060e0830152600061010083015260006101208301526101408201526000610160820152600061018082015282600052600c60205260406000209080518051906001600160401b038211611acb578190612dd685546137a9565b601f811161326e575b50602090601f8311600114613202576000926131f7575b50508160011b916000199060031b1c19161782555b60208101516005811015611ab557600183015460408301516006811015611ab55761ff0060ff9160081b1692169061ffff19161717600183015560a060608201518051600285015560208101516003850155604081015160048501556060810151600585015560808101516006850155015160078301556080810151600883015560a0810151600983015560c0810151600a83015560e0810151600b830155612eca6101008201511515600c84019060ff801983541691151516179055565b610120810151600d8301556101408101518051906001600160401b038211611acb57612ef9600e8501546137a9565b601f81116131b0575b50602090601f831160011461313c5791806010949261018094600092613131575b50508160011b916000199060031b1c191617600e8501555b610160810151600f850155015191015533600052600d60205260406000208054600160401b811015611acb57612f76916001820181556139ca565b81549060031b9084821b91600019901b191617905560405192612f9884613850565b6000845233156130ed576130bb6130c5926130af611c01600597612fda612fd489600052600260205260018060a01b0360406000205416151590565b1561418b565b600854886000526009602052604060002055612ff588614143565b612ffe33613a6b565b3360005260066020526040600020816000526020528860406000205588600052600760205260406000205561304b612fd489600052600260205260018060a01b0360406000205416151590565b3360005260036020526040600020600181540190558760005260026020526040600020336001600160601b0360a01b825416179055873360007fddf252ad1be2c89b69c2b068fc378daa952ba7f163c4a11628f55a4df523b3ef8180a48733613f43565b6040519586910661374b565b6020840190613758565b7f7bf904f9ef1d99303c3745b88f501e03d4fa0fa1ef2532e4709e5b24e76d2f6f60403393a3005b606460405162461bcd60e51b815260206004820152602060248201527f4552433732313a206d696e7420746f20746865207a65726f20616464726573736044820152fd5b015190508980612f23565b90601f19831691600e860160005260206000209260005b818110613198575092600192859261018096601098961061317f575b505050811b01600e850155612f3b565b015160001960f88460031b161c1916905589808061316f565b92936020600181928786015181550195019301613153565b600e85016000526020600020601f840160051c8101602085106131f0575b601f830160051c820181106131e4575050612f02565b600081556001016131ce565b50806131ce565b015190508780612df6565b9250846000526020600020906000935b601f1984168510613253576001945083601f1981161061323a575b505050811b018255612e0b565b015160001960f88460031b161c1916905587808061322d565b81810151835560209485019460019093019290910190613212565b909150846000526020600020601f840160051c8101602085106132b7575b90849392915b601f830160051c820181106132a8575050612ddf565b60008155859450600101613292565b508061328c565b6040516132ca81613850565b6000815294612ca2565b634e487b7160e01b600052601160045260246000fd5b6000965093916005880660010361331b57602881018091116132d457916014810181116132d457601401935b612a6c565b9193949295506000956002600589061460001461335357603281018091116132d45792806009198101116132d4576009190194612a6c565b6000965092946005880660030361338557602881018091116132d45790806013198101116132d4576013190190612a6c565b60009650600319600589060161331657919490602881018091116132d45790601e81018091116132d45794806013198101116132d4576013190191612a6c565b6102ee8110156133d857506001916129af565b6103848110156133eb57506002916129af565b6103ca8110156133fe57506003916129af565b6103e3111561340f576004916129af565b6005916129af565b346101ac5760403660031901126101ac5761343061371f565b602435906001600160a01b03808061344785613b2e565b169216918083146135425780331490811561351d575b50156134b257600083815260046020526040902080546001600160a01b0319168317905561348a83613b2e565b167f8c5be1e5ebec7d5bd14f71427d1e84f3dd0314c0f7b2291e5b200ac8c7c3b925600080a4005b60405162461bcd60e51b815260206004820152603d60248201527f4552433732313a20617070726f76652063616c6c6572206973206e6f7420746f60448201527f6b656e206f776e6572206f7220617070726f76656420666f7220616c6c0000006064820152608490fd5b9050600052600560205260406000203360005260205260ff604060002054168461345d565b60405162461bcd60e51b815260206004820152602160248201527f4552433732313a20617070726f76616c20746f2063757272656e74206f776e656044820152603960f91b6064820152608490fd5b346101ac5760203660031901126101ac576020611f2f600435613b54565b346101ac5760003660031901126101ac57604051600080546135d0816137a9565b80845290600190818116908115611dfa57506001146135f957611a8d84611a79818603826138bd565b600080805292507f290decd9548b62a8d60345a988386fc84ba6bc95484008f6362f93160ef3e5635b82841061363a575050508101602001611a7982611d91565b80546020858701810191909152909301928101613622565b346101ac5760203660031901126101ac576004359063ffffffff60e01b82168092036101ac5760209163780e9d6360e01b8114908115613694575b5015158152f35b6380ac58cd60e01b8114915081156136c6575b81156136b5575b508361368d565b6301ffc9a760e01b149050836136ae565b635b5e139f60e01b811491506136a7565b60005b8381106136ea5750506000910152565b81810151838201526020016136da565b90602091613713815180928185528580860191016136d7565b601f01601f1916010190565b600435906001600160a01b03821682036101ac57565b602435906001600160a01b03821682036101ac57565b906005821015611ab55752565b906006821015611ab55752565b60609060031901126101ac576001600160a01b039060043582811681036101ac579160243590811681036101ac579060443590565b6024359081151582036101ac57565b90600182811c921680156137d9575b60208310146137c357565b634e487b7160e01b600052602260045260246000fd5b91607f16916137b8565b60c081019081106001600160401b03821117611acb57604052565b60a081019081106001600160401b03821117611acb57604052565b6101a081019081106001600160401b03821117611acb57604052565b604081019081106001600160401b03821117611acb57604052565b602081019081106001600160401b03821117611acb57604052565b606081019081106001600160401b03821117611acb57604052565b60e081019081106001600160401b03821117611acb57604052565b61012081019081106001600160401b03821117611acb57604052565b90601f801991011681019081106001600160401b03821117611acb57604052565b90604051918260008254926138f2846137a9565b908184526001948581169081600014613961575060011461391e575b505061391c925003836138bd565b565b9093915060005260209081600020936000915b81831061394957505061391c9350820101388061390e565b85548884018501529485019487945091830191613931565b91505061391c94506020925060ff191682840152151560051b820101388061390e565b90604051613991816137e3565b60a06005829480548452600181015460208501526002810154604085015260038101546060850152600481015460808501520154910152565b80548210156139e25760005260206000200190600090565b634e487b7160e01b600052603260045260246000fd5b6001600160401b038111611acb57601f01601f191660200190565b600a546001600160a01b03163303613a2757565b606460405162461bcd60e51b815260206004820152602060248201527f4f776e61626c653a2063616c6c6572206973206e6f7420746865206f776e65726044820152fd5b6001600160a01b03168015613a8b57600052600360205260406000205490565b60405162461bcd60e51b815260206004820152602960248201527f4552433732313a2061646472657373207a65726f206973206e6f7420612076616044820152683634b21037bbb732b960b91b6064820152608490fd5b15613ae957565b60405162461bcd60e51b815260206004820152601860248201527f4552433732313a20696e76616c696420746f6b656e20494400000000000000006044820152606490fd5b6000908152600260205260409020546001600160a01b0316613b51811515613ae2565b90565b600081815260026020526040902054613b77906001600160a01b03161515613ae2565b6000908152600460205260409020546001600160a01b031690565b15613b9957565b60405162461bcd60e51b815260206004820152602d60248201527f4552433732313a2063616c6c6572206973206e6f7420746f6b656e206f776e6560448201526c1c881bdc88185c1c1c9bdd9959609a1b6064820152608490fd5b60809060208152603260208201527f4552433732313a207472616e7366657220746f206e6f6e20455243373231526560408201527131b2b4bb32b91034b6b83632b6b2b73a32b960711b60608201520190565b15613c4e57565b60405162461bcd60e51b815280613c6760048201613bf4565b0390fd5b906001600160a01b038080613c7f84613b2e565b16931691838314938415613cb2575b508315613c9c575b50505090565b613ca891929350613b54565b1614388080613c96565b909350600052600560205260406000208260005260205260ff604060002054169238613c8e565b15613ce057565b60405162461bcd60e51b815260206004820152602560248201527f4552433732313a207472616e736665722066726f6d20696e636f72726563742060448201526437bbb732b960d91b6064820152608490fd5b613d5791613d4084613b2e565b6001600160a01b0393848416939185168414613cd9565b838216938415613ef257839182613e4f5750613da192600854876000526009602052604060002055613d8887614143565b828603613e1c575b50613d9a86613b2e565b1614613cd9565b7fddf252ad1be2c89b69c2b068fc378daa952ba7f163c4a11628f55a4df523b3ef60008481526004602052604081206001600160601b0360a01b9081815416905583825260036020526040822060001981540190558482526040822060018154019055858252600260205284604083209182541617905580a4565b613e2590613a6b565b60406000878152600660205281812083825260205288828220558881526007602052205538613d90565b858303613e61575b50613da192613d88565b613e6c919250613a6b565b6000198101919082116132d457613da19284926000908882526020906007825260409182842054828103613ebb575b508a84528383812055868452600681528284209184525281205592613e57565b8785526006825283852083865282528385205488865260068352848620828752835280858720558552600782528385205538613e9b565b60405162461bcd60e51b8152602060048201526024808201527f4552433732313a207472616e7366657220746f20746865207a65726f206164646044820152637265737360e01b6064820152608490fd5b91929091803b1561405857613f90936040519081630a85bd0160e11b9384825233600483015260009687602484015260448301526080606483015281878160209a8b9660848301906136fa565b03926001600160a01b03165af1849181614014575b50614003575050503d600014613ffb573d613fbf816139f8565b90613fcd60405192836138bd565b81528091833d92013e5b80519182613ff85760405162461bcd60e51b815280613c6760048201613bf4565b01fd5b506060613fd7565b6001600160e01b0319161492509050565b9091508581813d8311614051575b61402c81836138bd565b8101031261404d57516001600160e01b03198116810361404d579038613fa5565b8480fd5b503d614022565b50915050600190565b92939190803b156140de576140b3946040518092630a85bd0160e11b9485835233600484015260018060a01b03809816602484015260448301526080606483015281806020998a9560848301906136fa565b03916000988991165af18491816140145750614003575050503d600014613ffb573d613fbf816139f8565b5050915050600190565b156140ef57565b60405162461bcd60e51b8152602060048201526014602482015273125b9cdd59999a58da595b9d081c185e5b595b9d60621b6044820152606490fd5b6005821015611ab55752565b6006821015611ab55752565b600854600160401b811015611acb5760018101806008558110156139e25760086000527ff3f7a9fe364faab93b216da50a3214154f22a0a2b415b23a84c8169e8b636ee30155565b1561419257565b60405162461bcd60e51b815260206004820152601c60248201527f4552433732313a20746f6b656e20616c7265616479206d696e746564000000006044820152606490fd5b604051906141e4826137e3565b8160a06000918281528260208201528260408201528260608201528260808201520152565b919082018092116132d457565b9060068110156139e25760051b0190565b6040519061423482613835565b60078252662bb0b93934b7b960c91b6020830152565b6040519061425782613835565b600882526720b9b9b0b9b9b4b760c11b6020830152565b6040519061427b82613835565b60048252634d61676560e01b6020830152565b6040519061429b82613835565b60098252682132b939b2b935b2b960b91b6020830152565b604051906142c082613835565b600882526723bab0b93234b0b760c11b6020830152565b604051906142e482613835565b60048252635261726560e01b6020830152565b6040519061430482613835565b60048252634570696360e01b6020830152565b6040519061432482613835565b60098252684c6567656e6461727960b81b6020830152565b6040519061434982613835565b60068252654d797468696360d01b6020830152565b9060058110156139e25760051b0190565b90614379826139f8565b61438660405191826138bd565b8281528092614397601f19916139f8565b0190602036910137565b806000917a184f03e93ff9f4daa797ed6e38ed64bf6a1f010000000000000000808210156144d6575b506d04ee2d6d415b85acef8100000000808310156144c7575b50662386f26fc10000808310156144b8575b506305f5e100808310156144a9575b506127108083101561449a575b50606482101561448a575b600a80921015614480575b60019081602161443882870161436f565b95860101905b61444a575b5050505090565b600019019083906f181899199a1a9b1b9c1cb0b131b232b360811b8282061a83530491821561447b5791908261443e565b614443565b9160010191614427565b919060646002910491019161441c565b60049193920491019138614411565b60089193920491019138614404565b601091939204910191386143f5565b602091939204910191386143e3565b6040935081049150386143ca565b156144eb57565b60405162461bcd60e51b815260206004820152600d60248201526c2737ba103a34329037bbb732b960991b6044820152606490fd5b60001981146132d45760010190565b80511561466f57604051906145438261386b565b604082527f4142434445464748494a4b4c4d4e4f505152535455565758595a61626364656660208301527f6768696a6b6c6d6e6f707172737475767778797a303132333435363738392b2f604083015280516002918282018092116132d4576003918290046001600160fe1b03811681036132d4576145c5908495941b61436f565b936020850193829183518401906020820192835194600085525b83811061461e57505050505251068060011461460b57600214614600575090565b603d90600019015390565b50603d9081600019820153600119015390565b87600491999293949901918251600190603f9082828260121c16880101518453828282600c1c16880101518385015382828260061c16880101518885015316850101518982015301979291906145df565b5060405161467c81613850565b6000815290565b61468d8282614209565b156146d4576064810291818304606414821517156132d4576146ae91614209565b80156146be57613b5191046143a1565b634e487b7160e01b600052601260045260246000fd5b50506040516146e281613835565b60018152600360fc1b602082015290565b6040519061470082613835565b600682526521b7b6b6b7b760d11b6020830152565b6040519061472282613835565b60088252672ab731b7b6b6b7b760c11b6020830152565b806147d557506040516000805160206157e8833981519152602082015260008051602061580883398151915260398201527f7565733d22312e3220302030203020302e3120203020302e382030203020302060598201527f2030203020302e38203020302020302030203020312030222f3e0000000000006079820152681e17b334b63a32b91f60b91b6093820152607c8152613b51816137fe565b6001810361487457506040516000805160206157e8833981519152602082015260008051602061580883398151915260398201527f7565733d22302e39203020302e322030203020203020302e3720302e3320302060598201527f302020302e31203020312e31203020302020302030203020312030222f3e00006079820152681e17b334b63a32b91f60b91b609782015260808152613b51816137fe565b6002810361491357506040516000805160206157e8833981519152602082015260008051602061580883398151915260398201527f7565733d22302e38203020302030203020203020302e3920302e31203020302060598201527f20302e3220302e3120312e32203020302020302030203020312030222f3e00006079820152681e17b334b63a32b91f60b91b609782015260808152613b51816137fe565b6003036149b0576040516000805160206157e8833981519152602082015260008051602061580883398151915260398201527f7565733d22312e3320302e312030203020302e312020302e3120312e3020302060598201527f302030202030203020302e37203020302020302030203020312030222f3e00006079820152681e17b334b63a32b91f60b91b609782015260808152613b51816137fe565b6040516000805160206157e8833981519152602082015260008051602061580883398151915260398201527f7565733d22302e3820302030203020302020302e3120312e3220302e3120302060598201527f3020203020302e3120302e39203020302020302030203020312030222f3e00006079820152681e17b334b63a32b91f60b91b609782015260808152613b51816137fe565b7f3c66654d657267654e6f646520696e3d22536f7572636547726170686963222f8152601f60f91b602082015260210190565b60048110614c0657506040517f3c66696c7465722069643d22676c6f772220783d222d3530252220793d222d3560208201527f3025222077696474683d223230302522206865696768743d2232303025223e0060408201527f3c6665476175737369616e426c757220737464446576696174696f6e3d223822605f820152613b516013827f20726573756c743d22636f6c6f726564426c7572222f3e00000000000000000080607f830152681e3332a6b2b933b29f60b91b90816096840152614bef60877f3c66654d657267654e6f646520696e3d22636f6c6f726564426c7572222f3e0080609f870152614b7060be8701614a46565b90691e17b332a6b2b933b29f60b11b95868352681e17b334b63a32b91f60b91b9586600a850152741e3334b63a32b91034b21e9139b830b935b632911f60591b8a8501527f3c6665476175737369616e426c757220737464446576696174696f6e3d22342260288501526048840152605f830152606882015201614a46565b918252600a82015203600c198101845201826138bd565b60021115614c1a5760405161467c81613850565b604051614c2681613886565b60a581527f3c66696c7465722069643d22676c6f77223e3c6665476175737369616e426c7560208201527f7220737464446576696174696f6e3d22342220726573756c743d22636f6c6f7260408201527f6564426c7572222f3e3c66654d657267653e3c66654d657267654e6f6465206960608201527f6e3d22636f6c6f726564426c7572222f3e3c66654d657267654e6f646520696e60808201527f3d22536f7572636547726170686963222f3e3c2f66654d657267653e3c2f666960a082015264363a32b91f60d91b60c082015290565b60058103614e3a57506040517f3c616e696d6174655472616e73666f726d2069643d22726f746174652220617460208201527f747269627574654e616d653d227472616e73666f726d2220747970653d22726f60408201527f74617465222076616c7565733d223020353132203531323b333630203531322060608201527f35313222206475723d223230732220726570656174436f756e743d22696e64656080820152683334b734ba3291179f60b91b60a08201527f3c616e696d6174652069643d2270756c736522206174747269627574654e616d60a98201527f653d226f706163697479222076616c7565733d22302e383b313b302e3822206460c98201527f75723d2233732220726570656174436f756e743d22696e646566696e6974652260e982015261179f60f11b61010982015260eb8152613b51816138a1565b600414614e4d5760405161467c81613850565b604051614e59816137fe565b606281527f3c616e696d6174652069643d2270756c736522206174747269627574654e616d60208201527f653d226f706163697479222076616c7565733d22302e393b313b302e3922206460408201527f75723d2234732220726570656174436f756e743d22696e646566696e69746522606082015261179f60f11b608082015290565b6020908101518061502857507f3c7265637420783d223438302220793d22323030222077696474683d22343022604051918201527f206865696768743d22323030222066696c6c3d2223433043304330222073747260408201527f6f6b653d222330303022207374726f6b652d77696474683d223422207472616e60608201527f73666f726d3d22726f74617465283135203530302033303029222f3e0000000060808201527f3c7265637420783d223437302220793d22313830222077696474683d22363022609c8201527f206865696768743d223430222066696c6c3d222338423435313322207374726f60bc8201527f6b653d222330303022207374726f6b652d77696474683d223222207472616e7360dc8201527f666f726d3d22726f74617465283135203530302032303029222f3e000000000060fc82015260f78152613b51816138a1565b600181036150d857507f3c7061746820643d224d20343030203130302051203531322035302036323420604051918201527f313030204c20363234203330302051203531322032353020343030203330302060408201527f5a222066696c6c3d222332303030353222207374726f6b653d2223303030222060608201527f7374726f6b652d77696474683d223422206f7061636974793d22302e38222f3e608082015260808152613b51816137fe565b600281036151f957507f3c706f6c79676f6e20706f696e74733d223531322c313530203435302c323530604051918201527f203537342c323530222066696c6c3d222338333645463922207374726f6b653d60408201527f222330303022207374726f6b652d77696474683d2234222f3e0000000000000060608201527f3c636972636c652063783d22343830222063793d223233302220723d2238222060798201526f3334b6361e9111a323221b981811179f60811b8060998301527f3c636972636c652063783d22353434222063793d223233302220723d2238222060a98301528060c98301527f3c636972636c652063783d22353132222063793d223230302220723d2238222060d983015260f982015260e98152613b51816138a1565b6003036152d3577f3c7061746820643d224d2034353020323030204c2034373020313530204c2034604051918201527f39302032303022207374726f6b653d222341303035354422207374726f6b652d60408201527f77696474683d2238222066696c6c3d226e6f6e65222f3e0000000000000000008060608301527f3c7061746820643d224d2035333420323030204c2035353420313530204c203560778301527f37342032303022207374726f6b653d222341303035354422207374726f6b652d609783015260b782015260ae8152613b5181613886565b7f3c7265637420783d223430302220793d22323530222077696474683d22313230604051918201527f22206865696768743d223830222066696c6c3d2223433043304330222073747260408201527f6f6b653d222330303022207374726f6b652d77696474683d2234222f3e00000060608201527f3c636972636c652063783d22343630222063793d223239302220723d22323022607d8201527f2066696c6c3d222338333645463922207374726f6b653d222330303022207374609d8201526f3937b5b296bbb4b23a341e911911179f60811b60bd82015260ad8152613b5181613886565b604090810151600581036155f65750805190621e339f60e91b60208301527f3c636972636c652063783d22333030222063793d223330302220723d2234222060238301527f66696c6c3d222346464437303022206f7061636974793d22302e38223e00000060438301527f3c616e696d617465206174747269627574654e616d653d226f706163697479228060608401527f2076616c7565733d22303b313b3022206475723d22317322207265706561744360808401527237bab73a1e9134b73232b334b734ba3291179f60691b908160a0850152681e17b1b4b931b6329f60b91b908160b38601527f3c636972636c652063783d22373030222063793d223430302220723d2233222060bc8601527f66696c6c3d222346464437303022206f7061636974793d22302e36223e00000060dc8601528060f98601527f2076616c7565733d22303b313b3022206475723d22312e357322207265706561610119860152743a21b7bab73a1e9134b73232b334b734ba3291179f60591b6101398601528161014e8601527f3c636972636c652063783d22343030222063793d223630302220723d223522206101578601527f66696c6c3d222346464437303022206f7061636974793d22302e37223e0000006101778601526101948501527f2076616c7565733d22303b313b3022206475723d2232732220726570656174436101b48501526101d491828501526101e7840152631e17b39f60e11b6101f084015282526102008201908282106001600160401b03831117611acb575290565b600414615607575161467c81613850565b7f222066696c6c3d226e6f6e6522207374726f6b653d22234646443730302220738151917f3c636972636c652063783d22353132222063793d223531322220723d2232303060208401528201527f74726f6b652d77696474683d223222206f7061636974793d22302e33223e000060608201527f3c616e696d617465206174747269627574654e616d653d2272222076616c7565607e8201527f733d223139303b3231303b31393022206475723d223473222072657065617443609e8201527237bab73a1e9134b73232b334b734ba3291179f60691b60be820152681e17b1b4b931b6329f60b91b60d182015260ba8152613b5181613886565b6040519061570e82613835565b60078252662ab735b737bbb760c91b6020830152565b8015615774576001811461576b576002811461576257600381146157595760041461575157613b51615701565b613b516142b3565b50613b5161428e565b50613b5161426e565b50613b5161424a565b50613b51614227565b80156157de57600181146157d557600281146157cc57600381146157c357600481146157ba576005146157b257613b51615701565b613b5161433c565b50613b51614317565b50613b516142f7565b50613b516142d7565b50613b51614715565b50613b516146f356fe3c66696c7465722069643d22636c61737346696c746572223e000000000000003c6665436f6c6f724d617472697820747970653d226d6174726978222076616ca264697066735822122011a4677db8a949a2677c38784656071788d7fec4f8a392c95264959649c228e864736f6c63430008140033",
  "linkReferences": {},
  "deployedLinkReferences": {}
}