{
  "_format": "hh-sol-artifact-1",
  "contractName": "TestSVGGenerator",
  "sourceName": "contracts/TestSVGGenerator.sol",
  "abi": [
    {
      "inputs": [],
      "name": "generateMageSVG",
      "outputs": [
        {
          "internalType": "string",
          "name": "",
          "type": "string"
        }
      ],
      "stateMutability": "pure",
      "type": "function"
    },
    {
      "inputs": [],
      "name": "generateTestSVG",
      "outputs": [
        {
          "internalType": "string",
          "name": "",
          "type": "string"
        }
      ],
      "stateMutability": "pure",
      "type": "function"
    },
    {
      "inputs": [],
      "name": "generateWarriorSVG",
      "outputs": [
        {
          "internalType": "string",
          "name": "",
          "type": "string"
        }
      ],
      "stateMutability": "pure",
      "type": "function"
    }
  ],
  "bytecode": "0x60808060405234610016576124bb908161001c8239f35b600080fdfe60806040818152600436101561001457600080fd5b600091823560e01c9081636f5495ef146101e35750806392be23991461011c5763b041c99b1461004357600080fd5b3461011857816003193601126101185780610109610114925161006581610301565b825161007081610334565b600b81526a417263616e65204d61676560a81b6020820152815260026020820152600383820152600c606082015260786080820152605560a0820152604660c0820152605a60e082015260a0610100820152606e61012082015282516100d581610334565b600c81526b707572706c652d626572727960a01b6020820152610140820152600861016082015260026101808201526103ff565b9051918291826102d5565b0390f35b5080fd5b50346101185781600319360112610118576101096101149282519061014082610301565b835161014b81610334565b600d81526c57617272696f7220416c70686160981b602082015282526020820152600483820152600f606082015260b46080820152607860a0820152606e60c0820152605560e0820152603c610100820152604b61012082015282516101b081610334565b600b81526a707572706c652d626c756560a81b6020820152610140820152600c61016082015260036101808201526103ff565b8284346102af57806003193601126102af57506101098261020661011494610301565b825161021181610334565b600f81526e29b430b237bb9020b9b9b0b9b9b4b760891b602082015281526001602082015260058382015260146060820152608c6080820152609660a0820152605060c0820152608c60e0820152605a610100820152605f610120820152825161027a81610334565b600d81526c636f736d69632d707572706c6560981b6020820152610140820152601961016082015260016101808201526103ff565b80fd5b60005b8381106102c55750506000910152565b81810151838201526020016102b5565b604091602082526102f581518092816020860152602086860191016102b2565b601f01601f1916010190565b6101a0810190811067ffffffffffffffff82111761031e57604052565b634e487b7160e01b600052604160045260246000fd5b6040810190811067ffffffffffffffff82111761031e57604052565b60a0810190811067ffffffffffffffff82111761031e57604052565b60e0810190811067ffffffffffffffff82111761031e57604052565b6020810190811067ffffffffffffffff82111761031e57604052565b610120810190811067ffffffffffffffff82111761031e57604052565b90601f8019910116810190811067ffffffffffffffff82111761031e57604052565b67ffffffffffffffff811161031e57601f01601f191660200190565b6020810161040d8151611102565b604083019161041c8351611442565b926104a2602d61042c83516116c9565b956040519687916020830197651e3232b3399f60d11b89526104588151809260206026880191016102b2565b830161046e8251809360206026850191016102b2565b016104838251809360206026850191016102b2565b01661e17b232b3399f60c91b602682015203600d8101875201856103c1565b80516002116110c6576040516060810181811067ffffffffffffffff82111761031e57604052602681527f2066696c7465723d2275726c2823636c61737346696c746572292075726c282360208201526533b637bb949160d11b6040820152945b604080517f3c7061746820643d224d3020302043342e333235393335363620332e35363838602082019081527f3936393220362e3235303037363420372e313839333730373220372e38373520928201929092527f31322e343337352043382e32343131373433322031332e35383038353831352060608201527f382e32343131373433322031332e353830383538313520382e3631343734363060808201527f392031342e3734373331343435204331342e37343339353637332033342e363460a08201527f31323132342031392e30343539303533332035352e343036383134353820323260c08201527f203736204332322e32323432393638372037372e35303739363134332032322e60e08201527f32323432393638372037372e35303739363134332032322e34353331323520376101008201527f392e3034363338363732204332372e3835373230383635203131362e383334326101208201527f303836392032352e3539313430373031203135352e32363433373336322032316101408201527f20313933222066696c6c3d222330313030303222207472616e73666f726d3d22610160820152733a3930b739b630ba32941b989c16199b9491179f60611b6101808201527f3c7061746820643d224d302030204331322e373730363939353520372e3736316101948201527f333137342031322e373730363939353520372e373631333137342031342e33326101b48201527f30333132352031322e3431303135363235204331332e313937353339303620316101d48201527f332e30353038323033312031322e30373437363536322031332e3639313438346101f48201527f33382031302e39313739363837352031342e33353135363235222066696c6c3d6102148201527f222336453441443822207472616e73666f726d3d227472616e736c617465283761023482015268181c161a9c9491179f60b91b6102548201527f3c7061746820643d224d3020302043302e393136313230363120302e3430333761025d8201527f3938383320312e383332323431323120302e383037353937363620322e37373661027d8201527f313233303520312e3232333633323831204331312e353831383633303320352e61029d8201527f32343730393731372031392e33303238313732392031302e32373134383839326102bd8201527f2032362e393337352031362e31383735222066696c6c3d2223364334394438226102dd8201527f207472616e73666f726d3d227472616e736c617465283639302e303632352c356102fd8201526a181b971c18991a9491179f60a91b61031d8201527f3c7061746820643d224d3020302043302e363231333238313220302e343931316103288201527f3332383120312e323432363536323520302e393832323635363220312e3838326103488201527f3831323520312e34383832383132352043382e393637383536353520362e35306103688201527f3538343635382031372e353838313538363920392e31303437383338382032356103888201527f2e38313634303632352031312e36373936383735222066696c6c3d22234346336103a88201527f33433022207472616e73666f726d3d227472616e736c617465283430372e39396103c88201527519189c1b9a961b9a9997189c9c99189c1b9a9491179f60511b6103e88201526103de8152969067ffffffffffffffff61040089019081119089111761031e57879161040083016040526104208301613c6760f01b9052805161042291818386019160200191610a24926102b2565b8301908101601f60f91b90528251906104239282848301610a44926102b2565b01908101631e17b39f60e11b90520360078101610400880152602701610400870190610a6f916103c1565b610a78816118ad565b90610a8281611d89565b928151906060830151610a94906120d2565b9551610a9f9061225d565b9051610aaa9061233e565b926080810151610ab9906120d2565b9660a0820151610ac8906120d2565b9360c0830151610ad7906120d2565b60e0840151610ae5906120d2565b90610100850151610af5906120d2565b92610120860151610b05906120d2565b94610160870151610b15906120d2565b966101800151610b24906120d2565b986040519d8e9b60208d017f3c7265637420783d2232302220793d22383530222077696474683d2239383422905260408d017f206865696768743d22313530222066696c6c3d2223304531303046222066696c905260608d017f6c2d6f7061636974793d22302e39222072783d223130222f3e00000000000000905260798d017f3c7465787420783d2234302220793d22383930222066696c6c3d22234646464690528c7f46462220666f6e742d66616d696c793d22417269616c2c2073616e732d7365729586609983015260b982017f69662220666f6e742d73697a653d2232382220666f6e742d7765696768743d229052653137b632111f60d11b60d9830152805160df8193019160200191610c3b926102b2565b8d01661e17ba32bc3a1f60c91b9b8c95828760df8195015260e681017f3c7465787420783d2234302220793d22393230222066696c6c3d222338333645905261010681017f46392220666f6e742d66616d696c793d22417269616c2c2073616e732d736572905261012681017f69662220666f6e742d73697a653d223230223e4c6576656c2000000000000000905281519061013f92828483019160200191610ce3926102b2565b01620103e160ed1b809282015282519061014293828583019160200191610d09926102b2565b019182015282519061014593828583019160200191610d27926102b2565b019182015261014c81017f3c7465787420783d2234302220793d22393530222066696c6c3d22234646464690528461016c8201527534b311103337b73a16b9b4bd329e91189c111f24281d60511b61018c8201528151906101a292828483019160200191610d94926102b2565b01908101641020aa259d60d91b90528151906101a792828483019160200191610dbc926102b2565b0190810164102222a31d60d91b90528351906101ac94828683019160200191610de4926102b2565b01928301526101b382017f3c7465787420783d2234302220793d22393830222066696c6c3d22234646464690526101d38201526101f381017f69662220666f6e742d73697a653d223138223e5350443a000000000000000000905281519061020a92828483019160200191610e58926102b2565b01908101641026a0a39d60d91b905281519061020f92828483019160200191610e80926102b2565b0190810164102621a59d60d91b90528151918261021483019160200191610ea6926102b2565b018261021482015261021b81017f3c7465787420783d223730302220793d22393530222066696c6c3d22234130309052827f3535442220666f6e742d66616d696c793d22417269616c2c2073616e732d7365918261023b82015261025b81017f7269662220666f6e742d73697a653d223138223e57696e733a20000000000000905283519061027594828683019160200191610f41926102b2565b019283015261027c82017f3c7465787420783d223730302220793d22393830222066696c6c3d2223413030905261029c8201526102bc81017f7269662220666f6e742d73697a653d223138223e4c6f737365733a200000000090528251906102d893828583019160200191610fb5926102b2565b0191820152036102bf810184526102df01610fd090846103c1565b604051958695602087017f3c7376672077696474683d223130323422206865696768743d223130323422209052604087017f786d6c6e733d22687474703a2f2f7777772e77332e6f72672f323030302f737690526233911f60e91b60608801525160639581878901611041926102b2565b8601610400820151918287830191610420019161105d926102b2565b01815191828683019160200191611073926102b2565b01815191828583019160200191611089926102b2565b0181519182848301916020019161109f926102b2565b01908101651e17b9bb339f60d11b9052036049810182526069016110c390826103c1565b90565b6040516110d281610334565b601b81527f2066696c7465723d2275726c2823636c61737346696c74657229220000000000602082015294610503565b8061119e5750604051600080516020612446833981519152602082015260008051602061246683398151915260398201527f7565733d22312e3220302030203020302e3120203020302e382030203020302060598201527f2030203020302e38203020302020302030203020312030222f3e0000000000006079820152681e17b334b63a32b91f60b91b6093820152607c81526110c381610350565b6001810361123d5750604051600080516020612446833981519152602082015260008051602061246683398151915260398201527f7565733d22302e39203020302e322030203020203020302e3720302e3320302060598201527f302020302e31203020312e31203020302020302030203020312030222f3e00006079820152681e17b334b63a32b91f60b91b6097820152608081526110c381610350565b600281036112dc5750604051600080516020612446833981519152602082015260008051602061246683398151915260398201527f7565733d22302e38203020302030203020203020302e3920302e31203020302060598201527f20302e3220302e3120312e32203020302020302030203020312030222f3e00006079820152681e17b334b63a32b91f60b91b6097820152608081526110c381610350565b60030361137957604051600080516020612446833981519152602082015260008051602061246683398151915260398201527f7565733d22312e3320302e312030203020302e312020302e3120312e3020302060598201527f302030202030203020302e37203020302020302030203020312030222f3e00006079820152681e17b334b63a32b91f60b91b6097820152608081526110c381610350565b604051600080516020612446833981519152602082015260008051602061246683398151915260398201527f7565733d22302e3820302030203020302020302e3120312e3220302e3120302060598201527f3020203020302e3120302e39203020302020302030203020312030222f3e00006079820152681e17b334b63a32b91f60b91b6097820152608081526110c381610350565b7f3c66654d657267654e6f646520696e3d22536f7572636547726170686963222f8152601f60f91b602082015260210190565b600481106115cf57506040517f3c66696c7465722069643d22676c6f772220783d222d3530252220793d222d3560208201527f3025222077696474683d223230302522206865696768743d2232303025223e0060408201527f3c6665476175737369616e426c757220737464446576696174696f6e3d223822605f8201526110c36013827f20726573756c743d22636f6c6f726564426c7572222f3e00000000000000000080607f830152681e3332a6b2b933b29f60b91b908160968401526115b860877f3c66654d657267654e6f646520696e3d22636f6c6f726564426c7572222f3e0080609f87015261153960be870161140f565b90691e17b332a6b2b933b29f60b11b95868352681e17b334b63a32b91f60b91b9586600a850152741e3334b63a32b91034b21e9139b830b935b632911f60591b8a8501527f3c6665476175737369616e426c757220737464446576696174696f6e3d22342260288501526048840152605f83015260688201520161140f565b918252600a82015203600c198101845201826103c1565b600211156115ea576040516115e381610388565b6000815290565b6040516115f68161036c565b60a581527f3c66696c7465722069643d22676c6f77223e3c6665476175737369616e426c7560208201527f7220737464446576696174696f6e3d22342220726573756c743d22636f6c6f7260408201527f6564426c7572222f3e3c66654d657267653e3c66654d657267654e6f6465206960608201527f6e3d22636f6c6f726564426c7572222f3e3c66654d657267654e6f646520696e60808201527f3d22536f7572636547726170686963222f3e3c2f66654d657267653e3c2f666960a082015264363a32b91f60d91b60c082015290565b6005810361180a57506040517f3c616e696d6174655472616e73666f726d2069643d22726f746174652220617460208201527f747269627574654e616d653d227472616e73666f726d2220747970653d22726f60408201527f74617465222076616c7565733d223020353132203531323b333630203531322060608201527f35313222206475723d223230732220726570656174436f756e743d22696e64656080820152683334b734ba3291179f60b91b60a08201527f3c616e696d6174652069643d2270756c736522206174747269627574654e616d60a98201527f653d226f706163697479222076616c7565733d22302e383b313b302e3822206460c98201527f75723d2233732220726570656174436f756e743d22696e646566696e6974652260e982015261179f60f11b61010982015260eb81526110c3816103a4565b60041461181d576040516115e381610388565b60405161182981610350565b606281527f3c616e696d6174652069643d2270756c736522206174747269627574654e616d60208201527f653d226f706163697479222076616c7565733d22302e393b313b302e3922206460408201527f75723d2234732220726570656174436f756e743d22696e646566696e69746522606082015261179f60f11b608082015290565b602090810151806119f857507f3c7265637420783d223438302220793d22323030222077696474683d22343022604051918201527f206865696768743d22323030222066696c6c3d2223433043304330222073747260408201527f6f6b653d222330303022207374726f6b652d77696474683d223422207472616e60608201527f73666f726d3d22726f74617465283135203530302033303029222f3e0000000060808201527f3c7265637420783d223437302220793d22313830222077696474683d22363022609c8201527f206865696768743d223430222066696c6c3d222338423435313322207374726f60bc8201527f6b653d222330303022207374726f6b652d77696474683d223222207472616e7360dc8201527f666f726d3d22726f74617465283135203530302032303029222f3e000000000060fc82015260f781526110c3816103a4565b60018103611aa857507f3c7061746820643d224d20343030203130302051203531322035302036323420604051918201527f313030204c20363234203330302051203531322032353020343030203330302060408201527f5a222066696c6c3d222332303030353222207374726f6b653d2223303030222060608201527f7374726f6b652d77696474683d223422206f7061636974793d22302e38222f3e6080820152608081526110c381610350565b60028103611bc957507f3c706f6c79676f6e20706f696e74733d223531322c313530203435302c323530604051918201527f203537342c323530222066696c6c3d222338333645463922207374726f6b653d60408201527f222330303022207374726f6b652d77696474683d2234222f3e0000000000000060608201527f3c636972636c652063783d22343830222063793d223233302220723d2238222060798201526f3334b6361e9111a323221b981811179f60811b8060998301527f3c636972636c652063783d22353434222063793d223233302220723d2238222060a98301528060c98301527f3c636972636c652063783d22353132222063793d223230302220723d2238222060d983015260f982015260e981526110c3816103a4565b600303611ca3577f3c7061746820643d224d2034353020323030204c2034373020313530204c2034604051918201527f39302032303022207374726f6b653d222341303035354422207374726f6b652d60408201527f77696474683d2238222066696c6c3d226e6f6e65222f3e0000000000000000008060608301527f3c7061746820643d224d2035333420323030204c2035353420313530204c203560778301527f37342032303022207374726f6b653d222341303035354422207374726f6b652d609783015260b782015260ae81526110c38161036c565b7f3c7265637420783d223430302220793d22323530222077696474683d22313230604051918201527f22206865696768743d223830222066696c6c3d2223433043304330222073747260408201527f6f6b653d222330303022207374726f6b652d77696474683d2234222f3e00000060608201527f3c636972636c652063783d22343630222063793d223239302220723d22323022607d8201527f2066696c6c3d222338333645463922207374726f6b653d222330303022207374609d8201526f3937b5b296bbb4b23a341e911911179f60811b60bd82015260ad81526110c38161036c565b60409081015160058103611fc75750805190621e339f60e91b60208301527f3c636972636c652063783d22333030222063793d223330302220723d2234222060238301527f66696c6c3d222346464437303022206f7061636974793d22302e38223e00000060438301527f3c616e696d617465206174747269627574654e616d653d226f706163697479228060608401527f2076616c7565733d22303b313b3022206475723d22317322207265706561744360808401527237bab73a1e9134b73232b334b734ba3291179f60691b908160a0850152681e17b1b4b931b6329f60b91b908160b38601527f3c636972636c652063783d22373030222063793d223430302220723d2233222060bc8601527f66696c6c3d222346464437303022206f7061636974793d22302e36223e00000060dc8601528060f98601527f2076616c7565733d22303b313b3022206475723d22312e357322207265706561610119860152743a21b7bab73a1e9134b73232b334b734ba3291179f60591b6101398601528161014e8601527f3c636972636c652063783d22343030222063793d223630302220723d223522206101578601527f66696c6c3d222346464437303022206f7061636974793d22302e37223e0000006101778601526101948501527f2076616c7565733d22303b313b3022206475723d2232732220726570656174436101b48501526101d491828501526101e7840152631e17b39f60e11b6101f0840152825261020082019082821067ffffffffffffffff83111761031e575290565b600414611fd857516115e381610388565b7f222066696c6c3d226e6f6e6522207374726f6b653d22234646443730302220738151917f3c636972636c652063783d22353132222063793d223531322220723d2232303060208401528201527f74726f6b652d77696474683d223222206f7061636974793d22302e33223e000060608201527f3c616e696d617465206174747269627574654e616d653d2272222076616c7565607e8201527f733d223139303b3231303b31393022206475723d223473222072657065617443609e8201527237bab73a1e9134b73232b334b734ba3291179f60691b60be820152681e17b1b4b931b6329f60b91b60d182015260ba81526110c38161036c565b806000917a184f03e93ff9f4daa797ed6e38ed64bf6a1f0100000000000000008082101561222c575b506d04ee2d6d415b85acef81000000008083101561221d575b50662386f26fc100008083101561220e575b506305f5e100808310156121ff575b50612710808310156121f0575b5060648210156121e0575b600a809210156121d6575b6001908160218186019561216b876103e3565b9661217960405198896103c1565b808852612188601f19916103e3565b01366020890137860101905b6121a0575b5050505090565b600019019083906f181899199a1a9b1b9c1cb0b131b232b360811b8282061a8353049182156121d157919082612194565b612199565b9160010191612158565b919060646002910491019161214d565b60049193920491019138612142565b60089193920491019138612135565b60109193920491019138612126565b60209193920491019138612114565b6040935081049150386120fb565b6040519061224782610334565b60078252662ab735b737bbb760c91b6020830152565b801561231a57600181146122f557600281146122d457600381146122ae5760041461228a576110c361223a565b60405161229681610334565b600881526723bab0b93234b0b760c11b602082015290565b506040516122bb81610334565b60098152682132b939b2b935b2b960b91b602082015290565b506040516122e181610334565b60048152634d61676560e01b602082015290565b5060405161230281610334565b600881526720b9b9b0b9b9b4b760c11b602082015290565b5060405161232781610334565b60078152662bb0b93934b7b960c91b602082015290565b801561242257600181146123fd57600281146123dc57600381146123bb576004811461239557600514612373576110c361223a565b60405161237f81610334565b60068152654d797468696360d01b602082015290565b506040516123a281610334565b60098152684c6567656e6461727960b81b602082015290565b506040516123c881610334565b60048152634570696360e01b602082015290565b506040516123e981610334565b60048152635261726560e01b602082015290565b5060405161240a81610334565b60088152672ab731b7b6b6b7b760c11b602082015290565b5060405161242f81610334565b600681526521b7b6b6b7b760d11b60208201529056fe3c66696c7465722069643d22636c61737346696c746572223e000000000000003c6665436f6c6f724d617472697820747970653d226d6174726978222076616ca264697066735822122054f7d82c7e2dd83d8fc57faece5603b8d1544506fb7e5722f628b31a858f613364736f6c63430008140033",
  "linkReferences": {},
  "deployedLinkReferences": {}
}