{"contracts/TestSVGGenerator.sol":{"TestSVGGenerator":{"abi":[{"inputs":[],"name":"generateMageSVG","outputs":[{"internalType":"string","name":"","type":"string"}],"stateMutability":"pure","type":"function"},{"inputs":[],"name":"generateTestSVG","outputs":[{"internalType":"string","name":"","type":"string"}],"stateMutability":"pure","type":"function"},{"inputs":[],"name":"generateWarriorSVG","outputs":[{"internalType":"string","name":"","type":"string"}],"stateMutability":"pure","type":"function"}],"evm":{"bytecode":{"linkReferences":{},"object":"60808060405234610016576124bb908161001c8239f35b600080fdfe60806040818152600436101561001457600080fd5b600091823560e01c9081636f5495ef146101e35750806392be23991461011c5763b041c99b1461004357600080fd5b3461011857816003193601126101185780610109610114925161006581610301565b825161007081610334565b600b81526a417263616e65204d61676560a81b6020820152815260026020820152600383820152600c606082015260786080820152605560a0820152604660c0820152605a60e082015260a0610100820152606e61012082015282516100d581610334565b600c81526b707572706c652d626572727960a01b6020820152610140820152600861016082015260026101808201526103ff565b9051918291826102d5565b0390f35b5080fd5b50346101185781600319360112610118576101096101149282519061014082610301565b835161014b81610334565b600d81526c57617272696f7220416c70686160981b602082015282526020820152600483820152600f606082015260b46080820152607860a0820152606e60c0820152605560e0820152603c610100820152604b61012082015282516101b081610334565b600b81526a707572706c652d626c756560a81b6020820152610140820152600c61016082015260036101808201526103ff565b8284346102af57806003193601126102af57506101098261020661011494610301565b825161021181610334565b600f81526e29b430b237bb9020b9b9b0b9b9b4b760891b602082015281526001602082015260058382015260146060820152608c6080820152609660a0820152605060c0820152608c60e0820152605a610100820152605f610120820152825161027a81610334565b600d81526c636f736d69632d707572706c6560981b6020820152610140820152601961016082015260016101808201526103ff565b80fd5b60005b8381106102c55750506000910152565b81810151838201526020016102b5565b604091602082526102f581518092816020860152602086860191016102b2565b601f01601f1916010190565b6101a0810190811067ffffffffffffffff82111761031e57604052565b634e487b7160e01b600052604160045260246000fd5b6040810190811067ffffffffffffffff82111761031e57604052565b60a0810190811067ffffffffffffffff82111761031e57604052565b60e0810190811067ffffffffffffffff82111761031e57604052565b6020810190811067ffffffffffffffff82111761031e57604052565b610120810190811067ffffffffffffffff82111761031e57604052565b90601f8019910116810190811067ffffffffffffffff82111761031e57604052565b67ffffffffffffffff811161031e57601f01601f191660200190565b6020810161040d8151611102565b604083019161041c8351611442565b926104a2602d61042c83516116c9565b956040519687916020830197651e3232b3399f60d11b89526104588151809260206026880191016102b2565b830161046e8251809360206026850191016102b2565b016104838251809360206026850191016102b2565b01661e17b232b3399f60c91b602682015203600d8101875201856103c1565b80516002116110c6576040516060810181811067ffffffffffffffff82111761031e57604052602681527f2066696c7465723d2275726c2823636c61737346696c746572292075726c282360208201526533b637bb949160d11b6040820152945b604080517f3c7061746820643d224d3020302043342e333235393335363620332e35363838602082019081527f3936393220362e3235303037363420372e313839333730373220372e38373520928201929092527f31322e343337352043382e32343131373433322031332e35383038353831352060608201527f382e32343131373433322031332e353830383538313520382e3631343734363060808201527f392031342e3734373331343435204331342e37343339353637332033342e363460a08201527f31323132342031392e30343539303533332035352e343036383134353820323260c08201527f203736204332322e32323432393638372037372e35303739363134332032322e60e08201527f32323432393638372037372e35303739363134332032322e34353331323520376101008201527f392e3034363338363732204332372e3835373230383635203131362e383334326101208201527f303836392032352e3539313430373031203135352e32363433373336322032316101408201527f20313933222066696c6c3d222330313030303222207472616e73666f726d3d22610160820152733a3930b739b630ba32941b989c16199b9491179f60611b6101808201527f3c7061746820643d224d302030204331322e373730363939353520372e3736316101948201527f333137342031322e373730363939353520372e373631333137342031342e33326101b48201527f30333132352031322e3431303135363235204331332e313937353339303620316101d48201527f332e30353038323033312031322e30373437363536322031332e3639313438346101f48201527f33382031302e39313739363837352031342e33353135363235222066696c6c3d6102148201527f222336453441443822207472616e73666f726d3d227472616e736c617465283761023482015268181c161a9c9491179f60b91b6102548201527f3c7061746820643d224d3020302043302e393136313230363120302e3430333761025d8201527f3938383320312e383332323431323120302e383037353937363620322e37373661027d8201527f313233303520312e3232333633323831204331312e353831383633303320352e61029d8201527f32343730393731372031392e33303238313732392031302e32373134383839326102bd8201527f2032362e393337352031362e31383735222066696c6c3d2223364334394438226102dd8201527f207472616e73666f726d3d227472616e736c617465283639302e303632352c356102fd8201526a181b971c18991a9491179f60a91b61031d8201527f3c7061746820643d224d3020302043302e363231333238313220302e343931316103288201527f3332383120312e323432363536323520302e393832323635363220312e3838326103488201527f3831323520312e34383832383132352043382e393637383536353520362e35306103688201527f3538343635382031372e353838313538363920392e31303437383338382032356103888201527f2e38313634303632352031312e36373936383735222066696c6c3d22234346336103a88201527f33433022207472616e73666f726d3d227472616e736c617465283430372e39396103c88201527519189c1b9a961b9a9997189c9c99189c1b9a9491179f60511b6103e88201526103de8152969067ffffffffffffffff61040089019081119089111761031e57879161040083016040526104208301613c6760f01b9052805161042291818386019160200191610a24926102b2565b8301908101601f60f91b90528251906104239282848301610a44926102b2565b01908101631e17b39f60e11b90520360078101610400880152602701610400870190610a6f916103c1565b610a78816118ad565b90610a8281611d89565b928151906060830151610a94906120d2565b9551610a9f9061225d565b9051610aaa9061233e565b926080810151610ab9906120d2565b9660a0820151610ac8906120d2565b9360c0830151610ad7906120d2565b60e0840151610ae5906120d2565b90610100850151610af5906120d2565b92610120860151610b05906120d2565b94610160870151610b15906120d2565b966101800151610b24906120d2565b986040519d8e9b60208d017f3c7265637420783d2232302220793d22383530222077696474683d2239383422905260408d017f206865696768743d22313530222066696c6c3d2223304531303046222066696c905260608d017f6c2d6f7061636974793d22302e39222072783d223130222f3e00000000000000905260798d017f3c7465787420783d2234302220793d22383930222066696c6c3d22234646464690528c7f46462220666f6e742d66616d696c793d22417269616c2c2073616e732d7365729586609983015260b982017f69662220666f6e742d73697a653d2232382220666f6e742d7765696768743d229052653137b632111f60d11b60d9830152805160df8193019160200191610c3b926102b2565b8d01661e17ba32bc3a1f60c91b9b8c95828760df8195015260e681017f3c7465787420783d2234302220793d22393230222066696c6c3d222338333645905261010681017f46392220666f6e742d66616d696c793d22417269616c2c2073616e732d736572905261012681017f69662220666f6e742d73697a653d223230223e4c6576656c2000000000000000905281519061013f92828483019160200191610ce3926102b2565b01620103e160ed1b809282015282519061014293828583019160200191610d09926102b2565b019182015282519061014593828583019160200191610d27926102b2565b019182015261014c81017f3c7465787420783d2234302220793d22393530222066696c6c3d22234646464690528461016c8201527534b311103337b73a16b9b4bd329e91189c111f24281d60511b61018c8201528151906101a292828483019160200191610d94926102b2565b01908101641020aa259d60d91b90528151906101a792828483019160200191610dbc926102b2565b0190810164102222a31d60d91b90528351906101ac94828683019160200191610de4926102b2565b01928301526101b382017f3c7465787420783d2234302220793d22393830222066696c6c3d22234646464690526101d38201526101f381017f69662220666f6e742d73697a653d223138223e5350443a000000000000000000905281519061020a92828483019160200191610e58926102b2565b01908101641026a0a39d60d91b905281519061020f92828483019160200191610e80926102b2565b0190810164102621a59d60d91b90528151918261021483019160200191610ea6926102b2565b018261021482015261021b81017f3c7465787420783d223730302220793d22393530222066696c6c3d22234130309052827f3535442220666f6e742d66616d696c793d22417269616c2c2073616e732d7365918261023b82015261025b81017f7269662220666f6e742d73697a653d223138223e57696e733a20000000000000905283519061027594828683019160200191610f41926102b2565b019283015261027c82017f3c7465787420783d223730302220793d22393830222066696c6c3d2223413030905261029c8201526102bc81017f7269662220666f6e742d73697a653d223138223e4c6f737365733a200000000090528251906102d893828583019160200191610fb5926102b2565b0191820152036102bf810184526102df01610fd090846103c1565b604051958695602087017f3c7376672077696474683d223130323422206865696768743d223130323422209052604087017f786d6c6e733d22687474703a2f2f7777772e77332e6f72672f323030302f737690526233911f60e91b60608801525160639581878901611041926102b2565b8601610400820151918287830191610420019161105d926102b2565b01815191828683019160200191611073926102b2565b01815191828583019160200191611089926102b2565b0181519182848301916020019161109f926102b2565b01908101651e17b9bb339f60d11b9052036049810182526069016110c390826103c1565b90565b6040516110d281610334565b601b81527f2066696c7465723d2275726c2823636c61737346696c74657229220000000000602082015294610503565b8061119e5750604051600080516020612446833981519152602082015260008051602061246683398151915260398201527f7565733d22312e3220302030203020302e3120203020302e382030203020302060598201527f2030203020302e38203020302020302030203020312030222f3e0000000000006079820152681e17b334b63a32b91f60b91b6093820152607c81526110c381610350565b6001810361123d5750604051600080516020612446833981519152602082015260008051602061246683398151915260398201527f7565733d22302e39203020302e322030203020203020302e3720302e3320302060598201527f302020302e31203020312e31203020302020302030203020312030222f3e00006079820152681e17b334b63a32b91f60b91b6097820152608081526110c381610350565b600281036112dc5750604051600080516020612446833981519152602082015260008051602061246683398151915260398201527f7565733d22302e38203020302030203020203020302e3920302e31203020302060598201527f20302e3220302e3120312e32203020302020302030203020312030222f3e00006079820152681e17b334b63a32b91f60b91b6097820152608081526110c381610350565b60030361137957604051600080516020612446833981519152602082015260008051602061246683398151915260398201527f7565733d22312e3320302e312030203020302e312020302e3120312e3020302060598201527f302030202030203020302e37203020302020302030203020312030222f3e00006079820152681e17b334b63a32b91f60b91b6097820152608081526110c381610350565b604051600080516020612446833981519152602082015260008051602061246683398151915260398201527f7565733d22302e3820302030203020302020302e3120312e3220302e3120302060598201527f3020203020302e3120302e39203020302020302030203020312030222f3e00006079820152681e17b334b63a32b91f60b91b6097820152608081526110c381610350565b7f3c66654d657267654e6f646520696e3d22536f7572636547726170686963222f8152601f60f91b602082015260210190565b600481106115cf57506040517f3c66696c7465722069643d22676c6f772220783d222d3530252220793d222d3560208201527f3025222077696474683d223230302522206865696768743d2232303025223e0060408201527f3c6665476175737369616e426c757220737464446576696174696f6e3d223822605f8201526110c36013827f20726573756c743d22636f6c6f726564426c7572222f3e00000000000000000080607f830152681e3332a6b2b933b29f60b91b908160968401526115b860877f3c66654d657267654e6f646520696e3d22636f6c6f726564426c7572222f3e0080609f87015261153960be870161140f565b90691e17b332a6b2b933b29f60b11b95868352681e17b334b63a32b91f60b91b9586600a850152741e3334b63a32b91034b21e9139b830b935b632911f60591b8a8501527f3c6665476175737369616e426c757220737464446576696174696f6e3d22342260288501526048840152605f83015260688201520161140f565b918252600a82015203600c198101845201826103c1565b600211156115ea576040516115e381610388565b6000815290565b6040516115f68161036c565b60a581527f3c66696c7465722069643d22676c6f77223e3c6665476175737369616e426c7560208201527f7220737464446576696174696f6e3d22342220726573756c743d22636f6c6f7260408201527f6564426c7572222f3e3c66654d657267653e3c66654d657267654e6f6465206960608201527f6e3d22636f6c6f726564426c7572222f3e3c66654d657267654e6f646520696e60808201527f3d22536f7572636547726170686963222f3e3c2f66654d657267653e3c2f666960a082015264363a32b91f60d91b60c082015290565b6005810361180a57506040517f3c616e696d6174655472616e73666f726d2069643d22726f746174652220617460208201527f747269627574654e616d653d227472616e73666f726d2220747970653d22726f60408201527f74617465222076616c7565733d223020353132203531323b333630203531322060608201527f35313222206475723d223230732220726570656174436f756e743d22696e64656080820152683334b734ba3291179f60b91b60a08201527f3c616e696d6174652069643d2270756c736522206174747269627574654e616d60a98201527f653d226f706163697479222076616c7565733d22302e383b313b302e3822206460c98201527f75723d2233732220726570656174436f756e743d22696e646566696e6974652260e982015261179f60f11b61010982015260eb81526110c3816103a4565b60041461181d576040516115e381610388565b60405161182981610350565b606281527f3c616e696d6174652069643d2270756c736522206174747269627574654e616d60208201527f653d226f706163697479222076616c7565733d22302e393b313b302e3922206460408201527f75723d2234732220726570656174436f756e743d22696e646566696e69746522606082015261179f60f11b608082015290565b602090810151806119f857507f3c7265637420783d223438302220793d22323030222077696474683d22343022604051918201527f206865696768743d22323030222066696c6c3d2223433043304330222073747260408201527f6f6b653d222330303022207374726f6b652d77696474683d223422207472616e60608201527f73666f726d3d22726f74617465283135203530302033303029222f3e0000000060808201527f3c7265637420783d223437302220793d22313830222077696474683d22363022609c8201527f206865696768743d223430222066696c6c3d222338423435313322207374726f60bc8201527f6b653d222330303022207374726f6b652d77696474683d223222207472616e7360dc8201527f666f726d3d22726f74617465283135203530302032303029222f3e000000000060fc82015260f781526110c3816103a4565b60018103611aa857507f3c7061746820643d224d20343030203130302051203531322035302036323420604051918201527f313030204c20363234203330302051203531322032353020343030203330302060408201527f5a222066696c6c3d222332303030353222207374726f6b653d2223303030222060608201527f7374726f6b652d77696474683d223422206f7061636974793d22302e38222f3e6080820152608081526110c381610350565b60028103611bc957507f3c706f6c79676f6e20706f696e74733d223531322c313530203435302c323530604051918201527f203537342c323530222066696c6c3d222338333645463922207374726f6b653d60408201527f222330303022207374726f6b652d77696474683d2234222f3e0000000000000060608201527f3c636972636c652063783d22343830222063793d223233302220723d2238222060798201526f3334b6361e9111a323221b981811179f60811b8060998301527f3c636972636c652063783d22353434222063793d223233302220723d2238222060a98301528060c98301527f3c636972636c652063783d22353132222063793d223230302220723d2238222060d983015260f982015260e981526110c3816103a4565b600303611ca3577f3c7061746820643d224d2034353020323030204c2034373020313530204c2034604051918201527f39302032303022207374726f6b653d222341303035354422207374726f6b652d60408201527f77696474683d2238222066696c6c3d226e6f6e65222f3e0000000000000000008060608301527f3c7061746820643d224d2035333420323030204c2035353420313530204c203560778301527f37342032303022207374726f6b653d222341303035354422207374726f6b652d609783015260b782015260ae81526110c38161036c565b7f3c7265637420783d223430302220793d22323530222077696474683d22313230604051918201527f22206865696768743d223830222066696c6c3d2223433043304330222073747260408201527f6f6b653d222330303022207374726f6b652d77696474683d2234222f3e00000060608201527f3c636972636c652063783d22343630222063793d223239302220723d22323022607d8201527f2066696c6c3d222338333645463922207374726f6b653d222330303022207374609d8201526f3937b5b296bbb4b23a341e911911179f60811b60bd82015260ad81526110c38161036c565b60409081015160058103611fc75750805190621e339f60e91b60208301527f3c636972636c652063783d22333030222063793d223330302220723d2234222060238301527f66696c6c3d222346464437303022206f7061636974793d22302e38223e00000060438301527f3c616e696d617465206174747269627574654e616d653d226f706163697479228060608401527f2076616c7565733d22303b313b3022206475723d22317322207265706561744360808401527237bab73a1e9134b73232b334b734ba3291179f60691b908160a0850152681e17b1b4b931b6329f60b91b908160b38601527f3c636972636c652063783d22373030222063793d223430302220723d2233222060bc8601527f66696c6c3d222346464437303022206f7061636974793d22302e36223e00000060dc8601528060f98601527f2076616c7565733d22303b313b3022206475723d22312e357322207265706561610119860152743a21b7bab73a1e9134b73232b334b734ba3291179f60591b6101398601528161014e8601527f3c636972636c652063783d22343030222063793d223630302220723d223522206101578601527f66696c6c3d222346464437303022206f7061636974793d22302e37223e0000006101778601526101948501527f2076616c7565733d22303b313b3022206475723d2232732220726570656174436101b48501526101d491828501526101e7840152631e17b39f60e11b6101f0840152825261020082019082821067ffffffffffffffff83111761031e575290565b600414611fd857516115e381610388565b7f222066696c6c3d226e6f6e6522207374726f6b653d22234646443730302220738151917f3c636972636c652063783d22353132222063793d223531322220723d2232303060208401528201527f74726f6b652d77696474683d223222206f7061636974793d22302e33223e000060608201527f3c616e696d617465206174747269627574654e616d653d2272222076616c7565607e8201527f733d223139303b3231303b31393022206475723d223473222072657065617443609e8201527237bab73a1e9134b73232b334b734ba3291179f60691b60be820152681e17b1b4b931b6329f60b91b60d182015260ba81526110c38161036c565b806000917a184f03e93ff9f4daa797ed6e38ed64bf6a1f0100000000000000008082101561222c575b506d04ee2d6d415b85acef81000000008083101561221d575b50662386f26fc100008083101561220e575b506305f5e100808310156121ff575b50612710808310156121f0575b5060648210156121e0575b600a809210156121d6575b6001908160218186019561216b876103e3565b9661217960405198896103c1565b808852612188601f19916103e3565b01366020890137860101905b6121a0575b5050505090565b600019019083906f181899199a1a9b1b9c1cb0b131b232b360811b8282061a8353049182156121d157919082612194565b612199565b9160010191612158565b919060646002910491019161214d565b60049193920491019138612142565b60089193920491019138612135565b60109193920491019138612126565b60209193920491019138612114565b6040935081049150386120fb565b6040519061224782610334565b60078252662ab735b737bbb760c91b6020830152565b801561231a57600181146122f557600281146122d457600381146122ae5760041461228a576110c361223a565b60405161229681610334565b600881526723bab0b93234b0b760c11b602082015290565b506040516122bb81610334565b60098152682132b939b2b935b2b960b91b602082015290565b506040516122e181610334565b60048152634d61676560e01b602082015290565b5060405161230281610334565b600881526720b9b9b0b9b9b4b760c11b602082015290565b5060405161232781610334565b60078152662bb0b93934b7b960c91b602082015290565b801561242257600181146123fd57600281146123dc57600381146123bb576004811461239557600514612373576110c361223a565b60405161237f81610334565b60068152654d797468696360d01b602082015290565b506040516123a281610334565b60098152684c6567656e6461727960b81b602082015290565b506040516123c881610334565b60048152634570696360e01b602082015290565b506040516123e981610334565b60048152635261726560e01b602082015290565b5060405161240a81610334565b60088152672ab731b7b6b6b7b760c11b602082015290565b5060405161242f81610334565b600681526521b7b6b6b7b760d11b60208201529056fe3c66696c7465722069643d22636c61737346696c746572223e000000000000003c6665436f6c6f724d617472697820747970653d226d6174726978222076616ca264697066735822122054f7d82c7e2dd83d8fc57faece5603b8d1544506fb7e5722f628b31a858f613364736f6c63430008140033","opcodes":"PUSH1 0x80 DUP1 PUSH1 0x40 MSTORE CALLVALUE PUSH2 0x16 JUMPI PUSH2 0x24BB SWAP1 DUP2 PUSH2 0x1C DUP3 CODECOPY RETURN JUMPDEST PUSH1 0x0 DUP1 REVERT INVALID PUSH1 0x80 PUSH1 0x40 DUP2 DUP2 MSTORE PUSH1 0x4 CALLDATASIZE LT ISZERO PUSH2 0x14 JUMPI PUSH1 0x0 DUP1 REVERT JUMPDEST PUSH1 0x0 SWAP2 DUP3 CALLDATALOAD PUSH1 0xE0 SHR SWAP1 DUP2 PUSH4 0x6F5495EF EQ PUSH2 0x1E3 JUMPI POP DUP1 PUSH4 0x92BE2399 EQ PUSH2 0x11C JUMPI PUSH4 0xB041C99B EQ PUSH2 0x43 JUMPI PUSH1 0x0 DUP1 REVERT JUMPDEST CALLVALUE PUSH2 0x118 JUMPI DUP2 PUSH1 0x3 NOT CALLDATASIZE ADD SLT PUSH2 0x118 JUMPI DUP1 PUSH2 0x109 PUSH2 0x114 SWAP3 MLOAD PUSH2 0x65 DUP2 PUSH2 0x301 JUMP JUMPDEST DUP3 MLOAD PUSH2 0x70 DUP2 PUSH2 0x334 JUMP JUMPDEST PUSH1 0xB DUP2 MSTORE PUSH11 0x417263616E65204D616765 PUSH1 0xA8 SHL PUSH1 0x20 DUP3 ADD MSTORE DUP2 MSTORE PUSH1 0x2 PUSH1 0x20 DUP3 ADD MSTORE PUSH1 0x3 DUP4 DUP3 ADD MSTORE PUSH1 0xC PUSH1 0x60 DUP3 ADD MSTORE PUSH1 0x78 PUSH1 0x80 DUP3 ADD MSTORE PUSH1 0x55 PUSH1 0xA0 DUP3 ADD MSTORE PUSH1 0x46 PUSH1 0xC0 DUP3 ADD MSTORE PUSH1 0x5A PUSH1 0xE0 DUP3 ADD MSTORE PUSH1 0xA0 PUSH2 0x100 DUP3 ADD MSTORE PUSH1 0x6E PUSH2 0x120 DUP3 ADD MSTORE DUP3 MLOAD PUSH2 0xD5 DUP2 PUSH2 0x334 JUMP JUMPDEST PUSH1 0xC DUP2 MSTORE PUSH12 0x707572706C652D6265727279 PUSH1 0xA0 SHL PUSH1 0x20 DUP3 ADD MSTORE PUSH2 0x140 DUP3 ADD MSTORE PUSH1 0x8 PUSH2 0x160 DUP3 ADD MSTORE PUSH1 0x2 PUSH2 0x180 DUP3 ADD MSTORE PUSH2 0x3FF JUMP JUMPDEST SWAP1 MLOAD SWAP2 DUP3 SWAP2 DUP3 PUSH2 0x2D5 JUMP JUMPDEST SUB SWAP1 RETURN JUMPDEST POP DUP1 REVERT JUMPDEST POP CALLVALUE PUSH2 0x118 JUMPI DUP2 PUSH1 0x3 NOT CALLDATASIZE ADD SLT PUSH2 0x118 JUMPI PUSH2 0x109 PUSH2 0x114 SWAP3 DUP3 MLOAD SWAP1 PUSH2 0x140 DUP3 PUSH2 0x301 JUMP JUMPDEST DUP4 MLOAD PUSH2 0x14B DUP2 PUSH2 0x334 JUMP JUMPDEST PUSH1 0xD DUP2 MSTORE PUSH13 0x57617272696F7220416C706861 PUSH1 0x98 SHL PUSH1 0x20 DUP3 ADD MSTORE DUP3 MSTORE PUSH1 0x20 DUP3 ADD MSTORE PUSH1 0x4 DUP4 DUP3 ADD MSTORE PUSH1 0xF PUSH1 0x60 DUP3 ADD MSTORE PUSH1 0xB4 PUSH1 0x80 DUP3 ADD MSTORE PUSH1 0x78 PUSH1 0xA0 DUP3 ADD MSTORE PUSH1 0x6E PUSH1 0xC0 DUP3 ADD MSTORE PUSH1 0x55 PUSH1 0xE0 DUP3 ADD MSTORE PUSH1 0x3C PUSH2 0x100 DUP3 ADD MSTORE PUSH1 0x4B PUSH2 0x120 DUP3 ADD MSTORE DUP3 MLOAD PUSH2 0x1B0 DUP2 PUSH2 0x334 JUMP JUMPDEST PUSH1 0xB DUP2 MSTORE PUSH11 0x707572706C652D626C7565 PUSH1 0xA8 SHL PUSH1 0x20 DUP3 ADD MSTORE PUSH2 0x140 DUP3 ADD MSTORE PUSH1 0xC PUSH2 0x160 DUP3 ADD MSTORE PUSH1 0x3 PUSH2 0x180 DUP3 ADD MSTORE PUSH2 0x3FF JUMP JUMPDEST DUP3 DUP5 CALLVALUE PUSH2 0x2AF JUMPI DUP1 PUSH1 0x3 NOT CALLDATASIZE ADD SLT PUSH2 0x2AF JUMPI POP PUSH2 0x109 DUP3 PUSH2 0x206 PUSH2 0x114 SWAP5 PUSH2 0x301 JUMP JUMPDEST DUP3 MLOAD PUSH2 0x211 DUP2 PUSH2 0x334 JUMP JUMPDEST PUSH1 0xF DUP2 MSTORE PUSH15 0x29B430B237BB9020B9B9B0B9B9B4B7 PUSH1 0x89 SHL PUSH1 0x20 DUP3 ADD MSTORE DUP2 MSTORE PUSH1 0x1 PUSH1 0x20 DUP3 ADD MSTORE PUSH1 0x5 DUP4 DUP3 ADD MSTORE PUSH1 0x14 PUSH1 0x60 DUP3 ADD MSTORE PUSH1 0x8C PUSH1 0x80 DUP3 ADD MSTORE PUSH1 0x96 PUSH1 0xA0 DUP3 ADD MSTORE PUSH1 0x50 PUSH1 0xC0 DUP3 ADD MSTORE PUSH1 0x8C PUSH1 0xE0 DUP3 ADD MSTORE PUSH1 0x5A PUSH2 0x100 DUP3 ADD MSTORE PUSH1 0x5F PUSH2 0x120 DUP3 ADD MSTORE DUP3 MLOAD PUSH2 0x27A DUP2 PUSH2 0x334 JUMP JUMPDEST PUSH1 0xD DUP2 MSTORE PUSH13 0x636F736D69632D707572706C65 PUSH1 0x98 SHL PUSH1 0x20 DUP3 ADD MSTORE PUSH2 0x140 DUP3 ADD MSTORE PUSH1 0x19 PUSH2 0x160 DUP3 ADD MSTORE PUSH1 0x1 PUSH2 0x180 DUP3 ADD MSTORE PUSH2 0x3FF JUMP JUMPDEST DUP1 REVERT JUMPDEST PUSH1 0x0 JUMPDEST DUP4 DUP2 LT PUSH2 0x2C5 JUMPI POP POP PUSH1 0x0 SWAP2 ADD MSTORE JUMP JUMPDEST DUP2 DUP2 ADD MLOAD DUP4 DUP3 ADD MSTORE PUSH1 0x20 ADD PUSH2 0x2B5 JUMP JUMPDEST PUSH1 0x40 SWAP2 PUSH1 0x20 DUP3 MSTORE PUSH2 0x2F5 DUP2 MLOAD DUP1 SWAP3 DUP2 PUSH1 0x20 DUP7 ADD MSTORE PUSH1 0x20 DUP7 DUP7 ADD SWAP2 ADD PUSH2 0x2B2 JUMP JUMPDEST PUSH1 0x1F ADD PUSH1 0x1F NOT AND ADD ADD SWAP1 JUMP JUMPDEST PUSH2 0x1A0 DUP2 ADD SWAP1 DUP2 LT PUSH8 0xFFFFFFFFFFFFFFFF DUP3 GT OR PUSH2 0x31E JUMPI PUSH1 0x40 MSTORE JUMP JUMPDEST PUSH4 0x4E487B71 PUSH1 0xE0 SHL PUSH1 0x0 MSTORE PUSH1 0x41 PUSH1 0x4 MSTORE PUSH1 0x24 PUSH1 0x0 REVERT JUMPDEST PUSH1 0x40 DUP2 ADD SWAP1 DUP2 LT PUSH8 0xFFFFFFFFFFFFFFFF DUP3 GT OR PUSH2 0x31E JUMPI PUSH1 0x40 MSTORE JUMP JUMPDEST PUSH1 0xA0 DUP2 ADD SWAP1 DUP2 LT PUSH8 0xFFFFFFFFFFFFFFFF DUP3 GT OR PUSH2 0x31E JUMPI PUSH1 0x40 MSTORE JUMP JUMPDEST PUSH1 0xE0 DUP2 ADD SWAP1 DUP2 LT PUSH8 0xFFFFFFFFFFFFFFFF DUP3 GT OR PUSH2 0x31E JUMPI PUSH1 0x40 MSTORE JUMP JUMPDEST PUSH1 0x20 DUP2 ADD SWAP1 DUP2 LT PUSH8 0xFFFFFFFFFFFFFFFF DUP3 GT OR PUSH2 0x31E JUMPI PUSH1 0x40 MSTORE JUMP JUMPDEST PUSH2 0x120 DUP2 ADD SWAP1 DUP2 LT PUSH8 0xFFFFFFFFFFFFFFFF DUP3 GT OR PUSH2 0x31E JUMPI PUSH1 0x40 MSTORE JUMP JUMPDEST SWAP1 PUSH1 0x1F DUP1 NOT SWAP2 ADD AND DUP2 ADD SWAP1 DUP2 LT PUSH8 0xFFFFFFFFFFFFFFFF DUP3 GT OR PUSH2 0x31E JUMPI PUSH1 0x40 MSTORE JUMP JUMPDEST PUSH8 0xFFFFFFFFFFFFFFFF DUP2 GT PUSH2 0x31E JUMPI PUSH1 0x1F ADD PUSH1 0x1F NOT AND PUSH1 0x20 ADD SWAP1 JUMP JUMPDEST PUSH1 0x20 DUP2 ADD PUSH2 0x40D DUP2 MLOAD PUSH2 0x1102 JUMP JUMPDEST PUSH1 0x40 DUP4 ADD SWAP2 PUSH2 0x41C DUP4 MLOAD PUSH2 0x1442 JUMP JUMPDEST SWAP3 PUSH2 0x4A2 PUSH1 0x2D PUSH2 0x42C DUP4 MLOAD PUSH2 0x16C9 JUMP JUMPDEST SWAP6 PUSH1 0x40 MLOAD SWAP7 DUP8 SWAP2 PUSH1 0x20 DUP4 ADD SWAP8 PUSH6 0x1E3232B3399F PUSH1 0xD1 SHL DUP10 MSTORE PUSH2 0x458 DUP2 MLOAD DUP1 SWAP3 PUSH1 0x20 PUSH1 0x26 DUP9 ADD SWAP2 ADD PUSH2 0x2B2 JUMP JUMPDEST DUP4 ADD PUSH2 0x46E DUP3 MLOAD DUP1 SWAP4 PUSH1 0x20 PUSH1 0x26 DUP6 ADD SWAP2 ADD PUSH2 0x2B2 JUMP JUMPDEST ADD PUSH2 0x483 DUP3 MLOAD DUP1 SWAP4 PUSH1 0x20 PUSH1 0x26 DUP6 ADD SWAP2 ADD PUSH2 0x2B2 JUMP JUMPDEST ADD PUSH7 0x1E17B232B3399F PUSH1 0xC9 SHL PUSH1 0x26 DUP3 ADD MSTORE SUB PUSH1 0xD DUP2 ADD DUP8 MSTORE ADD DUP6 PUSH2 0x3C1 JUMP JUMPDEST DUP1 MLOAD PUSH1 0x2 GT PUSH2 0x10C6 JUMPI PUSH1 0x40 MLOAD PUSH1 0x60 DUP2 ADD DUP2 DUP2 LT PUSH8 0xFFFFFFFFFFFFFFFF DUP3 GT OR PUSH2 0x31E JUMPI PUSH1 0x40 MSTORE PUSH1 0x26 DUP2 MSTORE PUSH32 0x2066696C7465723D2275726C2823636C61737346696C746572292075726C2823 PUSH1 0x20 DUP3 ADD MSTORE PUSH6 0x33B637BB9491 PUSH1 0xD1 SHL PUSH1 0x40 DUP3 ADD MSTORE SWAP5 JUMPDEST PUSH1 0x40 DUP1 MLOAD PUSH32 0x3C7061746820643D224D3020302043342E333235393335363620332E35363838 PUSH1 0x20 DUP3 ADD SWAP1 DUP2 MSTORE PUSH32 0x3936393220362E3235303037363420372E313839333730373220372E38373520 SWAP3 DUP3 ADD SWAP3 SWAP1 SWAP3 MSTORE PUSH32 0x31322E343337352043382E32343131373433322031332E353830383538313520 PUSH1 0x60 DUP3 ADD MSTORE PUSH32 0x382E32343131373433322031332E353830383538313520382E36313437343630 PUSH1 0x80 DUP3 ADD MSTORE PUSH32 0x392031342E3734373331343435204331342E37343339353637332033342E3634 PUSH1 0xA0 DUP3 ADD MSTORE PUSH32 0x31323132342031392E30343539303533332035352E3430363831343538203232 PUSH1 0xC0 DUP3 ADD MSTORE PUSH32 0x203736204332322E32323432393638372037372E35303739363134332032322E PUSH1 0xE0 DUP3 ADD MSTORE PUSH32 0x32323432393638372037372E35303739363134332032322E3435333132352037 PUSH2 0x100 DUP3 ADD MSTORE PUSH32 0x392E3034363338363732204332372E3835373230383635203131362E38333432 PUSH2 0x120 DUP3 ADD MSTORE PUSH32 0x303836392032352E3539313430373031203135352E3236343337333632203231 PUSH2 0x140 DUP3 ADD MSTORE PUSH32 0x20313933222066696C6C3D222330313030303222207472616E73666F726D3D22 PUSH2 0x160 DUP3 ADD MSTORE PUSH20 0x3A3930B739B630BA32941B989C16199B9491179F PUSH1 0x61 SHL PUSH2 0x180 DUP3 ADD MSTORE PUSH32 0x3C7061746820643D224D302030204331322E373730363939353520372E373631 PUSH2 0x194 DUP3 ADD MSTORE PUSH32 0x333137342031322E373730363939353520372E373631333137342031342E3332 PUSH2 0x1B4 DUP3 ADD MSTORE PUSH32 0x30333132352031322E3431303135363235204331332E31393735333930362031 PUSH2 0x1D4 DUP3 ADD MSTORE PUSH32 0x332E30353038323033312031322E30373437363536322031332E363931343834 PUSH2 0x1F4 DUP3 ADD MSTORE PUSH32 0x33382031302E39313739363837352031342E33353135363235222066696C6C3D PUSH2 0x214 DUP3 ADD MSTORE PUSH32 0x222336453441443822207472616E73666F726D3D227472616E736C6174652837 PUSH2 0x234 DUP3 ADD MSTORE PUSH9 0x181C161A9C9491179F PUSH1 0xB9 SHL PUSH2 0x254 DUP3 ADD MSTORE PUSH32 0x3C7061746820643D224D3020302043302E393136313230363120302E34303337 PUSH2 0x25D DUP3 ADD MSTORE PUSH32 0x3938383320312E383332323431323120302E383037353937363620322E373736 PUSH2 0x27D DUP3 ADD MSTORE PUSH32 0x313233303520312E3232333633323831204331312E353831383633303320352E PUSH2 0x29D DUP3 ADD MSTORE PUSH32 0x32343730393731372031392E33303238313732392031302E3237313438383932 PUSH2 0x2BD DUP3 ADD MSTORE PUSH32 0x2032362E393337352031362E31383735222066696C6C3D222336433439443822 PUSH2 0x2DD DUP3 ADD MSTORE PUSH32 0x207472616E73666F726D3D227472616E736C617465283639302E303632352C35 PUSH2 0x2FD DUP3 ADD MSTORE PUSH11 0x181B971C18991A9491179F PUSH1 0xA9 SHL PUSH2 0x31D DUP3 ADD MSTORE PUSH32 0x3C7061746820643D224D3020302043302E363231333238313220302E34393131 PUSH2 0x328 DUP3 ADD MSTORE PUSH32 0x3332383120312E323432363536323520302E393832323635363220312E383832 PUSH2 0x348 DUP3 ADD MSTORE PUSH32 0x3831323520312E34383832383132352043382E393637383536353520362E3530 PUSH2 0x368 DUP3 ADD MSTORE PUSH32 0x3538343635382031372E353838313538363920392E3130343738333838203235 PUSH2 0x388 DUP3 ADD MSTORE PUSH32 0x2E38313634303632352031312E36373936383735222066696C6C3D2223434633 PUSH2 0x3A8 DUP3 ADD MSTORE PUSH32 0x33433022207472616E73666F726D3D227472616E736C617465283430372E3939 PUSH2 0x3C8 DUP3 ADD MSTORE PUSH22 0x19189C1B9A961B9A9997189C9C99189C1B9A9491179F PUSH1 0x51 SHL PUSH2 0x3E8 DUP3 ADD MSTORE PUSH2 0x3DE DUP2 MSTORE SWAP7 SWAP1 PUSH8 0xFFFFFFFFFFFFFFFF PUSH2 0x400 DUP10 ADD SWAP1 DUP2 GT SWAP1 DUP10 GT OR PUSH2 0x31E JUMPI DUP8 SWAP2 PUSH2 0x400 DUP4 ADD PUSH1 0x40 MSTORE PUSH2 0x420 DUP4 ADD PUSH2 0x3C67 PUSH1 0xF0 SHL SWAP1 MSTORE DUP1 MLOAD PUSH2 0x422 SWAP2 DUP2 DUP4 DUP7 ADD SWAP2 PUSH1 0x20 ADD SWAP2 PUSH2 0xA24 SWAP3 PUSH2 0x2B2 JUMP JUMPDEST DUP4 ADD SWAP1 DUP2 ADD PUSH1 0x1F PUSH1 0xF9 SHL SWAP1 MSTORE DUP3 MLOAD SWAP1 PUSH2 0x423 SWAP3 DUP3 DUP5 DUP4 ADD PUSH2 0xA44 SWAP3 PUSH2 0x2B2 JUMP JUMPDEST ADD SWAP1 DUP2 ADD PUSH4 0x1E17B39F PUSH1 0xE1 SHL SWAP1 MSTORE SUB PUSH1 0x7 DUP2 ADD PUSH2 0x400 DUP9 ADD MSTORE PUSH1 0x27 ADD PUSH2 0x400 DUP8 ADD SWAP1 PUSH2 0xA6F SWAP2 PUSH2 0x3C1 JUMP JUMPDEST PUSH2 0xA78 DUP2 PUSH2 0x18AD JUMP JUMPDEST SWAP1 PUSH2 0xA82 DUP2 PUSH2 0x1D89 JUMP JUMPDEST SWAP3 DUP2 MLOAD SWAP1 PUSH1 0x60 DUP4 ADD MLOAD PUSH2 0xA94 SWAP1 PUSH2 0x20D2 JUMP JUMPDEST SWAP6 MLOAD PUSH2 0xA9F SWAP1 PUSH2 0x225D JUMP JUMPDEST SWAP1 MLOAD PUSH2 0xAAA SWAP1 PUSH2 0x233E JUMP JUMPDEST SWAP3 PUSH1 0x80 DUP2 ADD MLOAD PUSH2 0xAB9 SWAP1 PUSH2 0x20D2 JUMP JUMPDEST SWAP7 PUSH1 0xA0 DUP3 ADD MLOAD PUSH2 0xAC8 SWAP1 PUSH2 0x20D2 JUMP JUMPDEST SWAP4 PUSH1 0xC0 DUP4 ADD MLOAD PUSH2 0xAD7 SWAP1 PUSH2 0x20D2 JUMP JUMPDEST PUSH1 0xE0 DUP5 ADD MLOAD PUSH2 0xAE5 SWAP1 PUSH2 0x20D2 JUMP JUMPDEST SWAP1 PUSH2 0x100 DUP6 ADD MLOAD PUSH2 0xAF5 SWAP1 PUSH2 0x20D2 JUMP JUMPDEST SWAP3 PUSH2 0x120 DUP7 ADD MLOAD PUSH2 0xB05 SWAP1 PUSH2 0x20D2 JUMP JUMPDEST SWAP5 PUSH2 0x160 DUP8 ADD MLOAD PUSH2 0xB15 SWAP1 PUSH2 0x20D2 JUMP JUMPDEST SWAP7 PUSH2 0x180 ADD MLOAD PUSH2 0xB24 SWAP1 PUSH2 0x20D2 JUMP JUMPDEST SWAP9 PUSH1 0x40 MLOAD SWAP14 DUP15 SWAP12 PUSH1 0x20 DUP14 ADD PUSH32 0x3C7265637420783D2232302220793D22383530222077696474683D2239383422 SWAP1 MSTORE PUSH1 0x40 DUP14 ADD PUSH32 0x206865696768743D22313530222066696C6C3D2223304531303046222066696C SWAP1 MSTORE PUSH1 0x60 DUP14 ADD PUSH32 0x6C2D6F7061636974793D22302E39222072783D223130222F3E00000000000000 SWAP1 MSTORE PUSH1 0x79 DUP14 ADD PUSH32 0x3C7465787420783D2234302220793D22383930222066696C6C3D222346464646 SWAP1 MSTORE DUP13 PUSH32 0x46462220666F6E742D66616D696C793D22417269616C2C2073616E732D736572 SWAP6 DUP7 PUSH1 0x99 DUP4 ADD MSTORE PUSH1 0xB9 DUP3 ADD PUSH32 0x69662220666F6E742D73697A653D2232382220666F6E742D7765696768743D22 SWAP1 MSTORE PUSH6 0x3137B632111F PUSH1 0xD1 SHL PUSH1 0xD9 DUP4 ADD MSTORE DUP1 MLOAD PUSH1 0xDF DUP2 SWAP4 ADD SWAP2 PUSH1 0x20 ADD SWAP2 PUSH2 0xC3B SWAP3 PUSH2 0x2B2 JUMP JUMPDEST DUP14 ADD PUSH7 0x1E17BA32BC3A1F PUSH1 0xC9 SHL SWAP12 DUP13 SWAP6 DUP3 DUP8 PUSH1 0xDF DUP2 SWAP6 ADD MSTORE PUSH1 0xE6 DUP2 ADD PUSH32 0x3C7465787420783D2234302220793D22393230222066696C6C3D222338333645 SWAP1 MSTORE PUSH2 0x106 DUP2 ADD PUSH32 0x46392220666F6E742D66616D696C793D22417269616C2C2073616E732D736572 SWAP1 MSTORE PUSH2 0x126 DUP2 ADD PUSH32 0x69662220666F6E742D73697A653D223230223E4C6576656C2000000000000000 SWAP1 MSTORE DUP2 MLOAD SWAP1 PUSH2 0x13F SWAP3 DUP3 DUP5 DUP4 ADD SWAP2 PUSH1 0x20 ADD SWAP2 PUSH2 0xCE3 SWAP3 PUSH2 0x2B2 JUMP JUMPDEST ADD PUSH3 0x103E1 PUSH1 0xED SHL DUP1 SWAP3 DUP3 ADD MSTORE DUP3 MLOAD SWAP1 PUSH2 0x142 SWAP4 DUP3 DUP6 DUP4 ADD SWAP2 PUSH1 0x20 ADD SWAP2 PUSH2 0xD09 SWAP3 PUSH2 0x2B2 JUMP JUMPDEST ADD SWAP2 DUP3 ADD MSTORE DUP3 MLOAD SWAP1 PUSH2 0x145 SWAP4 DUP3 DUP6 DUP4 ADD SWAP2 PUSH1 0x20 ADD SWAP2 PUSH2 0xD27 SWAP3 PUSH2 0x2B2 JUMP JUMPDEST ADD SWAP2 DUP3 ADD MSTORE PUSH2 0x14C DUP2 ADD PUSH32 0x3C7465787420783D2234302220793D22393530222066696C6C3D222346464646 SWAP1 MSTORE DUP5 PUSH2 0x16C DUP3 ADD MSTORE PUSH22 0x34B311103337B73A16B9B4BD329E91189C111F24281D PUSH1 0x51 SHL PUSH2 0x18C DUP3 ADD MSTORE DUP2 MLOAD SWAP1 PUSH2 0x1A2 SWAP3 DUP3 DUP5 DUP4 ADD SWAP2 PUSH1 0x20 ADD SWAP2 PUSH2 0xD94 SWAP3 PUSH2 0x2B2 JUMP JUMPDEST ADD SWAP1 DUP2 ADD PUSH5 0x1020AA259D PUSH1 0xD9 SHL SWAP1 MSTORE DUP2 MLOAD SWAP1 PUSH2 0x1A7 SWAP3 DUP3 DUP5 DUP4 ADD SWAP2 PUSH1 0x20 ADD SWAP2 PUSH2 0xDBC SWAP3 PUSH2 0x2B2 JUMP JUMPDEST ADD SWAP1 DUP2 ADD PUSH5 0x102222A31D PUSH1 0xD9 SHL SWAP1 MSTORE DUP4 MLOAD SWAP1 PUSH2 0x1AC SWAP5 DUP3 DUP7 DUP4 ADD SWAP2 PUSH1 0x20 ADD SWAP2 PUSH2 0xDE4 SWAP3 PUSH2 0x2B2 JUMP JUMPDEST ADD SWAP3 DUP4 ADD MSTORE PUSH2 0x1B3 DUP3 ADD PUSH32 0x3C7465787420783D2234302220793D22393830222066696C6C3D222346464646 SWAP1 MSTORE PUSH2 0x1D3 DUP3 ADD MSTORE PUSH2 0x1F3 DUP2 ADD PUSH32 0x69662220666F6E742D73697A653D223138223E5350443A000000000000000000 SWAP1 MSTORE DUP2 MLOAD SWAP1 PUSH2 0x20A SWAP3 DUP3 DUP5 DUP4 ADD SWAP2 PUSH1 0x20 ADD SWAP2 PUSH2 0xE58 SWAP3 PUSH2 0x2B2 JUMP JUMPDEST ADD SWAP1 DUP2 ADD PUSH5 0x1026A0A39D PUSH1 0xD9 SHL SWAP1 MSTORE DUP2 MLOAD SWAP1 PUSH2 0x20F SWAP3 DUP3 DUP5 DUP4 ADD SWAP2 PUSH1 0x20 ADD SWAP2 PUSH2 0xE80 SWAP3 PUSH2 0x2B2 JUMP JUMPDEST ADD SWAP1 DUP2 ADD PUSH5 0x102621A59D PUSH1 0xD9 SHL SWAP1 MSTORE DUP2 MLOAD SWAP2 DUP3 PUSH2 0x214 DUP4 ADD SWAP2 PUSH1 0x20 ADD SWAP2 PUSH2 0xEA6 SWAP3 PUSH2 0x2B2 JUMP JUMPDEST ADD DUP3 PUSH2 0x214 DUP3 ADD MSTORE PUSH2 0x21B DUP2 ADD PUSH32 0x3C7465787420783D223730302220793D22393530222066696C6C3D2223413030 SWAP1 MSTORE DUP3 PUSH32 0x3535442220666F6E742D66616D696C793D22417269616C2C2073616E732D7365 SWAP2 DUP3 PUSH2 0x23B DUP3 ADD MSTORE PUSH2 0x25B DUP2 ADD PUSH32 0x7269662220666F6E742D73697A653D223138223E57696E733A20000000000000 SWAP1 MSTORE DUP4 MLOAD SWAP1 PUSH2 0x275 SWAP5 DUP3 DUP7 DUP4 ADD SWAP2 PUSH1 0x20 ADD SWAP2 PUSH2 0xF41 SWAP3 PUSH2 0x2B2 JUMP JUMPDEST ADD SWAP3 DUP4 ADD MSTORE PUSH2 0x27C DUP3 ADD PUSH32 0x3C7465787420783D223730302220793D22393830222066696C6C3D2223413030 SWAP1 MSTORE PUSH2 0x29C DUP3 ADD MSTORE PUSH2 0x2BC DUP2 ADD PUSH32 0x7269662220666F6E742D73697A653D223138223E4C6F737365733A2000000000 SWAP1 MSTORE DUP3 MLOAD SWAP1 PUSH2 0x2D8 SWAP4 DUP3 DUP6 DUP4 ADD SWAP2 PUSH1 0x20 ADD SWAP2 PUSH2 0xFB5 SWAP3 PUSH2 0x2B2 JUMP JUMPDEST ADD SWAP2 DUP3 ADD MSTORE SUB PUSH2 0x2BF DUP2 ADD DUP5 MSTORE PUSH2 0x2DF ADD PUSH2 0xFD0 SWAP1 DUP5 PUSH2 0x3C1 JUMP JUMPDEST PUSH1 0x40 MLOAD SWAP6 DUP7 SWAP6 PUSH1 0x20 DUP8 ADD PUSH32 0x3C7376672077696474683D223130323422206865696768743D22313032342220 SWAP1 MSTORE PUSH1 0x40 DUP8 ADD PUSH32 0x786D6C6E733D22687474703A2F2F7777772E77332E6F72672F323030302F7376 SWAP1 MSTORE PUSH3 0x33911F PUSH1 0xE9 SHL PUSH1 0x60 DUP9 ADD MSTORE MLOAD PUSH1 0x63 SWAP6 DUP2 DUP8 DUP10 ADD PUSH2 0x1041 SWAP3 PUSH2 0x2B2 JUMP JUMPDEST DUP7 ADD PUSH2 0x400 DUP3 ADD MLOAD SWAP2 DUP3 DUP8 DUP4 ADD SWAP2 PUSH2 0x420 ADD SWAP2 PUSH2 0x105D SWAP3 PUSH2 0x2B2 JUMP JUMPDEST ADD DUP2 MLOAD SWAP2 DUP3 DUP7 DUP4 ADD SWAP2 PUSH1 0x20 ADD SWAP2 PUSH2 0x1073 SWAP3 PUSH2 0x2B2 JUMP JUMPDEST ADD DUP2 MLOAD SWAP2 DUP3 DUP6 DUP4 ADD SWAP2 PUSH1 0x20 ADD SWAP2 PUSH2 0x1089 SWAP3 PUSH2 0x2B2 JUMP JUMPDEST ADD DUP2 MLOAD SWAP2 DUP3 DUP5 DUP4 ADD SWAP2 PUSH1 0x20 ADD SWAP2 PUSH2 0x109F SWAP3 PUSH2 0x2B2 JUMP JUMPDEST ADD SWAP1 DUP2 ADD PUSH6 0x1E17B9BB339F PUSH1 0xD1 SHL SWAP1 MSTORE SUB PUSH1 0x49 DUP2 ADD DUP3 MSTORE PUSH1 0x69 ADD PUSH2 0x10C3 SWAP1 DUP3 PUSH2 0x3C1 JUMP JUMPDEST SWAP1 JUMP JUMPDEST PUSH1 0x40 MLOAD PUSH2 0x10D2 DUP2 PUSH2 0x334 JUMP JUMPDEST PUSH1 0x1B DUP2 MSTORE PUSH32 0x2066696C7465723D2275726C2823636C61737346696C74657229220000000000 PUSH1 0x20 DUP3 ADD MSTORE SWAP5 PUSH2 0x503 JUMP JUMPDEST DUP1 PUSH2 0x119E JUMPI POP PUSH1 0x40 MLOAD PUSH1 0x0 DUP1 MLOAD PUSH1 0x20 PUSH2 0x2446 DUP4 CODECOPY DUP2 MLOAD SWAP2 MSTORE PUSH1 0x20 DUP3 ADD MSTORE PUSH1 0x0 DUP1 MLOAD PUSH1 0x20 PUSH2 0x2466 DUP4 CODECOPY DUP2 MLOAD SWAP2 MSTORE PUSH1 0x39 DUP3 ADD MSTORE PUSH32 0x7565733D22312E3220302030203020302E3120203020302E3820302030203020 PUSH1 0x59 DUP3 ADD MSTORE PUSH32 0x2030203020302E38203020302020302030203020312030222F3E000000000000 PUSH1 0x79 DUP3 ADD MSTORE PUSH9 0x1E17B334B63A32B91F PUSH1 0xB9 SHL PUSH1 0x93 DUP3 ADD MSTORE PUSH1 0x7C DUP2 MSTORE PUSH2 0x10C3 DUP2 PUSH2 0x350 JUMP JUMPDEST PUSH1 0x1 DUP2 SUB PUSH2 0x123D JUMPI POP PUSH1 0x40 MLOAD PUSH1 0x0 DUP1 MLOAD PUSH1 0x20 PUSH2 0x2446 DUP4 CODECOPY DUP2 MLOAD SWAP2 MSTORE PUSH1 0x20 DUP3 ADD MSTORE PUSH1 0x0 DUP1 MLOAD PUSH1 0x20 PUSH2 0x2466 DUP4 CODECOPY DUP2 MLOAD SWAP2 MSTORE PUSH1 0x39 DUP3 ADD MSTORE PUSH32 0x7565733D22302E39203020302E322030203020203020302E3720302E33203020 PUSH1 0x59 DUP3 ADD MSTORE PUSH32 0x302020302E31203020312E31203020302020302030203020312030222F3E0000 PUSH1 0x79 DUP3 ADD MSTORE PUSH9 0x1E17B334B63A32B91F PUSH1 0xB9 SHL PUSH1 0x97 DUP3 ADD MSTORE PUSH1 0x80 DUP2 MSTORE PUSH2 0x10C3 DUP2 PUSH2 0x350 JUMP JUMPDEST PUSH1 0x2 DUP2 SUB PUSH2 0x12DC JUMPI POP PUSH1 0x40 MLOAD PUSH1 0x0 DUP1 MLOAD PUSH1 0x20 PUSH2 0x2446 DUP4 CODECOPY DUP2 MLOAD SWAP2 MSTORE PUSH1 0x20 DUP3 ADD MSTORE PUSH1 0x0 DUP1 MLOAD PUSH1 0x20 PUSH2 0x2466 DUP4 CODECOPY DUP2 MLOAD SWAP2 MSTORE PUSH1 0x39 DUP3 ADD MSTORE PUSH32 0x7565733D22302E38203020302030203020203020302E3920302E312030203020 PUSH1 0x59 DUP3 ADD MSTORE PUSH32 0x20302E3220302E3120312E32203020302020302030203020312030222F3E0000 PUSH1 0x79 DUP3 ADD MSTORE PUSH9 0x1E17B334B63A32B91F PUSH1 0xB9 SHL PUSH1 0x97 DUP3 ADD MSTORE PUSH1 0x80 DUP2 MSTORE PUSH2 0x10C3 DUP2 PUSH2 0x350 JUMP JUMPDEST PUSH1 0x3 SUB PUSH2 0x1379 JUMPI PUSH1 0x40 MLOAD PUSH1 0x0 DUP1 MLOAD PUSH1 0x20 PUSH2 0x2446 DUP4 CODECOPY DUP2 MLOAD SWAP2 MSTORE PUSH1 0x20 DUP3 ADD MSTORE PUSH1 0x0 DUP1 MLOAD PUSH1 0x20 PUSH2 0x2466 DUP4 CODECOPY DUP2 MLOAD SWAP2 MSTORE PUSH1 0x39 DUP3 ADD MSTORE PUSH32 0x7565733D22312E3320302E312030203020302E312020302E3120312E30203020 PUSH1 0x59 DUP3 ADD MSTORE PUSH32 0x302030202030203020302E37203020302020302030203020312030222F3E0000 PUSH1 0x79 DUP3 ADD MSTORE PUSH9 0x1E17B334B63A32B91F PUSH1 0xB9 SHL PUSH1 0x97 DUP3 ADD MSTORE PUSH1 0x80 DUP2 MSTORE PUSH2 0x10C3 DUP2 PUSH2 0x350 JUMP JUMPDEST PUSH1 0x40 MLOAD PUSH1 0x0 DUP1 MLOAD PUSH1 0x20 PUSH2 0x2446 DUP4 CODECOPY DUP2 MLOAD SWAP2 MSTORE PUSH1 0x20 DUP3 ADD MSTORE PUSH1 0x0 DUP1 MLOAD PUSH1 0x20 PUSH2 0x2466 DUP4 CODECOPY DUP2 MLOAD SWAP2 MSTORE PUSH1 0x39 DUP3 ADD MSTORE PUSH32 0x7565733D22302E3820302030203020302020302E3120312E3220302E31203020 PUSH1 0x59 DUP3 ADD MSTORE PUSH32 0x3020203020302E3120302E39203020302020302030203020312030222F3E0000 PUSH1 0x79 DUP3 ADD MSTORE PUSH9 0x1E17B334B63A32B91F PUSH1 0xB9 SHL PUSH1 0x97 DUP3 ADD MSTORE PUSH1 0x80 DUP2 MSTORE PUSH2 0x10C3 DUP2 PUSH2 0x350 JUMP JUMPDEST PUSH32 0x3C66654D657267654E6F646520696E3D22536F7572636547726170686963222F DUP2 MSTORE PUSH1 0x1F PUSH1 0xF9 SHL PUSH1 0x20 DUP3 ADD MSTORE PUSH1 0x21 ADD SWAP1 JUMP JUMPDEST PUSH1 0x4 DUP2 LT PUSH2 0x15CF JUMPI POP PUSH1 0x40 MLOAD PUSH32 0x3C66696C7465722069643D22676C6F772220783D222D3530252220793D222D35 PUSH1 0x20 DUP3 ADD MSTORE PUSH32 0x3025222077696474683D223230302522206865696768743D2232303025223E00 PUSH1 0x40 DUP3 ADD MSTORE PUSH32 0x3C6665476175737369616E426C757220737464446576696174696F6E3D223822 PUSH1 0x5F DUP3 ADD MSTORE PUSH2 0x10C3 PUSH1 0x13 DUP3 PUSH32 0x20726573756C743D22636F6C6F726564426C7572222F3E000000000000000000 DUP1 PUSH1 0x7F DUP4 ADD MSTORE PUSH9 0x1E3332A6B2B933B29F PUSH1 0xB9 SHL SWAP1 DUP2 PUSH1 0x96 DUP5 ADD MSTORE PUSH2 0x15B8 PUSH1 0x87 PUSH32 0x3C66654D657267654E6F646520696E3D22636F6C6F726564426C7572222F3E00 DUP1 PUSH1 0x9F DUP8 ADD MSTORE PUSH2 0x1539 PUSH1 0xBE DUP8 ADD PUSH2 0x140F JUMP JUMPDEST SWAP1 PUSH10 0x1E17B332A6B2B933B29F PUSH1 0xB1 SHL SWAP6 DUP7 DUP4 MSTORE PUSH9 0x1E17B334B63A32B91F PUSH1 0xB9 SHL SWAP6 DUP7 PUSH1 0xA DUP6 ADD MSTORE PUSH21 0x1E3334B63A32B91034B21E9139B830B935B632911F PUSH1 0x59 SHL DUP11 DUP6 ADD MSTORE PUSH32 0x3C6665476175737369616E426C757220737464446576696174696F6E3D223422 PUSH1 0x28 DUP6 ADD MSTORE PUSH1 0x48 DUP5 ADD MSTORE PUSH1 0x5F DUP4 ADD MSTORE PUSH1 0x68 DUP3 ADD MSTORE ADD PUSH2 0x140F JUMP JUMPDEST SWAP2 DUP3 MSTORE PUSH1 0xA DUP3 ADD MSTORE SUB PUSH1 0xC NOT DUP2 ADD DUP5 MSTORE ADD DUP3 PUSH2 0x3C1 JUMP JUMPDEST PUSH1 0x2 GT ISZERO PUSH2 0x15EA JUMPI PUSH1 0x40 MLOAD PUSH2 0x15E3 DUP2 PUSH2 0x388 JUMP JUMPDEST PUSH1 0x0 DUP2 MSTORE SWAP1 JUMP JUMPDEST PUSH1 0x40 MLOAD PUSH2 0x15F6 DUP2 PUSH2 0x36C JUMP JUMPDEST PUSH1 0xA5 DUP2 MSTORE PUSH32 0x3C66696C7465722069643D22676C6F77223E3C6665476175737369616E426C75 PUSH1 0x20 DUP3 ADD MSTORE PUSH32 0x7220737464446576696174696F6E3D22342220726573756C743D22636F6C6F72 PUSH1 0x40 DUP3 ADD MSTORE PUSH32 0x6564426C7572222F3E3C66654D657267653E3C66654D657267654E6F64652069 PUSH1 0x60 DUP3 ADD MSTORE PUSH32 0x6E3D22636F6C6F726564426C7572222F3E3C66654D657267654E6F646520696E PUSH1 0x80 DUP3 ADD MSTORE PUSH32 0x3D22536F7572636547726170686963222F3E3C2F66654D657267653E3C2F6669 PUSH1 0xA0 DUP3 ADD MSTORE PUSH5 0x363A32B91F PUSH1 0xD9 SHL PUSH1 0xC0 DUP3 ADD MSTORE SWAP1 JUMP JUMPDEST PUSH1 0x5 DUP2 SUB PUSH2 0x180A JUMPI POP PUSH1 0x40 MLOAD PUSH32 0x3C616E696D6174655472616E73666F726D2069643D22726F7461746522206174 PUSH1 0x20 DUP3 ADD MSTORE PUSH32 0x747269627574654E616D653D227472616E73666F726D2220747970653D22726F PUSH1 0x40 DUP3 ADD MSTORE PUSH32 0x74617465222076616C7565733D223020353132203531323B3336302035313220 PUSH1 0x60 DUP3 ADD MSTORE PUSH32 0x35313222206475723D223230732220726570656174436F756E743D22696E6465 PUSH1 0x80 DUP3 ADD MSTORE PUSH9 0x3334B734BA3291179F PUSH1 0xB9 SHL PUSH1 0xA0 DUP3 ADD MSTORE PUSH32 0x3C616E696D6174652069643D2270756C736522206174747269627574654E616D PUSH1 0xA9 DUP3 ADD MSTORE PUSH32 0x653D226F706163697479222076616C7565733D22302E383B313B302E38222064 PUSH1 0xC9 DUP3 ADD MSTORE PUSH32 0x75723D2233732220726570656174436F756E743D22696E646566696E69746522 PUSH1 0xE9 DUP3 ADD MSTORE PUSH2 0x179F PUSH1 0xF1 SHL PUSH2 0x109 DUP3 ADD MSTORE PUSH1 0xEB DUP2 MSTORE PUSH2 0x10C3 DUP2 PUSH2 0x3A4 JUMP JUMPDEST PUSH1 0x4 EQ PUSH2 0x181D JUMPI PUSH1 0x40 MLOAD PUSH2 0x15E3 DUP2 PUSH2 0x388 JUMP JUMPDEST PUSH1 0x40 MLOAD PUSH2 0x1829 DUP2 PUSH2 0x350 JUMP JUMPDEST PUSH1 0x62 DUP2 MSTORE PUSH32 0x3C616E696D6174652069643D2270756C736522206174747269627574654E616D PUSH1 0x20 DUP3 ADD MSTORE PUSH32 0x653D226F706163697479222076616C7565733D22302E393B313B302E39222064 PUSH1 0x40 DUP3 ADD MSTORE PUSH32 0x75723D2234732220726570656174436F756E743D22696E646566696E69746522 PUSH1 0x60 DUP3 ADD MSTORE PUSH2 0x179F PUSH1 0xF1 SHL PUSH1 0x80 DUP3 ADD MSTORE SWAP1 JUMP JUMPDEST PUSH1 0x20 SWAP1 DUP2 ADD MLOAD DUP1 PUSH2 0x19F8 JUMPI POP PUSH32 0x3C7265637420783D223438302220793D22323030222077696474683D22343022 PUSH1 0x40 MLOAD SWAP2 DUP3 ADD MSTORE PUSH32 0x206865696768743D22323030222066696C6C3D22234330433043302220737472 PUSH1 0x40 DUP3 ADD MSTORE PUSH32 0x6F6B653D222330303022207374726F6B652D77696474683D223422207472616E PUSH1 0x60 DUP3 ADD MSTORE PUSH32 0x73666F726D3D22726F74617465283135203530302033303029222F3E00000000 PUSH1 0x80 DUP3 ADD MSTORE PUSH32 0x3C7265637420783D223437302220793D22313830222077696474683D22363022 PUSH1 0x9C DUP3 ADD MSTORE PUSH32 0x206865696768743D223430222066696C6C3D222338423435313322207374726F PUSH1 0xBC DUP3 ADD MSTORE PUSH32 0x6B653D222330303022207374726F6B652D77696474683D223222207472616E73 PUSH1 0xDC DUP3 ADD MSTORE PUSH32 0x666F726D3D22726F74617465283135203530302032303029222F3E0000000000 PUSH1 0xFC DUP3 ADD MSTORE PUSH1 0xF7 DUP2 MSTORE PUSH2 0x10C3 DUP2 PUSH2 0x3A4 JUMP JUMPDEST PUSH1 0x1 DUP2 SUB PUSH2 0x1AA8 JUMPI POP PUSH32 0x3C7061746820643D224D20343030203130302051203531322035302036323420 PUSH1 0x40 MLOAD SWAP2 DUP3 ADD MSTORE PUSH32 0x313030204C203632342033303020512035313220323530203430302033303020 PUSH1 0x40 DUP3 ADD MSTORE PUSH32 0x5A222066696C6C3D222332303030353222207374726F6B653D22233030302220 PUSH1 0x60 DUP3 ADD MSTORE PUSH32 0x7374726F6B652D77696474683D223422206F7061636974793D22302E38222F3E PUSH1 0x80 DUP3 ADD MSTORE PUSH1 0x80 DUP2 MSTORE PUSH2 0x10C3 DUP2 PUSH2 0x350 JUMP JUMPDEST PUSH1 0x2 DUP2 SUB PUSH2 0x1BC9 JUMPI POP PUSH32 0x3C706F6C79676F6E20706F696E74733D223531322C313530203435302C323530 PUSH1 0x40 MLOAD SWAP2 DUP3 ADD MSTORE PUSH32 0x203537342C323530222066696C6C3D222338333645463922207374726F6B653D PUSH1 0x40 DUP3 ADD MSTORE PUSH32 0x222330303022207374726F6B652D77696474683D2234222F3E00000000000000 PUSH1 0x60 DUP3 ADD MSTORE PUSH32 0x3C636972636C652063783D22343830222063793D223233302220723D22382220 PUSH1 0x79 DUP3 ADD MSTORE PUSH16 0x3334B6361E9111A323221B981811179F PUSH1 0x81 SHL DUP1 PUSH1 0x99 DUP4 ADD MSTORE PUSH32 0x3C636972636C652063783D22353434222063793D223233302220723D22382220 PUSH1 0xA9 DUP4 ADD MSTORE DUP1 PUSH1 0xC9 DUP4 ADD MSTORE PUSH32 0x3C636972636C652063783D22353132222063793D223230302220723D22382220 PUSH1 0xD9 DUP4 ADD MSTORE PUSH1 0xF9 DUP3 ADD MSTORE PUSH1 0xE9 DUP2 MSTORE PUSH2 0x10C3 DUP2 PUSH2 0x3A4 JUMP JUMPDEST PUSH1 0x3 SUB PUSH2 0x1CA3 JUMPI PUSH32 0x3C7061746820643D224D2034353020323030204C2034373020313530204C2034 PUSH1 0x40 MLOAD SWAP2 DUP3 ADD MSTORE PUSH32 0x39302032303022207374726F6B653D222341303035354422207374726F6B652D PUSH1 0x40 DUP3 ADD MSTORE PUSH32 0x77696474683D2238222066696C6C3D226E6F6E65222F3E000000000000000000 DUP1 PUSH1 0x60 DUP4 ADD MSTORE PUSH32 0x3C7061746820643D224D2035333420323030204C2035353420313530204C2035 PUSH1 0x77 DUP4 ADD MSTORE PUSH32 0x37342032303022207374726F6B653D222341303035354422207374726F6B652D PUSH1 0x97 DUP4 ADD MSTORE PUSH1 0xB7 DUP3 ADD MSTORE PUSH1 0xAE DUP2 MSTORE PUSH2 0x10C3 DUP2 PUSH2 0x36C JUMP JUMPDEST PUSH32 0x3C7265637420783D223430302220793D22323530222077696474683D22313230 PUSH1 0x40 MLOAD SWAP2 DUP3 ADD MSTORE PUSH32 0x22206865696768743D223830222066696C6C3D22234330433043302220737472 PUSH1 0x40 DUP3 ADD MSTORE PUSH32 0x6F6B653D222330303022207374726F6B652D77696474683D2234222F3E000000 PUSH1 0x60 DUP3 ADD MSTORE PUSH32 0x3C636972636C652063783D22343630222063793D223239302220723D22323022 PUSH1 0x7D DUP3 ADD MSTORE PUSH32 0x2066696C6C3D222338333645463922207374726F6B653D222330303022207374 PUSH1 0x9D DUP3 ADD MSTORE PUSH16 0x3937B5B296BBB4B23A341E911911179F PUSH1 0x81 SHL PUSH1 0xBD DUP3 ADD MSTORE PUSH1 0xAD DUP2 MSTORE PUSH2 0x10C3 DUP2 PUSH2 0x36C JUMP JUMPDEST PUSH1 0x40 SWAP1 DUP2 ADD MLOAD PUSH1 0x5 DUP2 SUB PUSH2 0x1FC7 JUMPI POP DUP1 MLOAD SWAP1 PUSH3 0x1E339F PUSH1 0xE9 SHL PUSH1 0x20 DUP4 ADD MSTORE PUSH32 0x3C636972636C652063783D22333030222063793D223330302220723D22342220 PUSH1 0x23 DUP4 ADD MSTORE PUSH32 0x66696C6C3D222346464437303022206F7061636974793D22302E38223E000000 PUSH1 0x43 DUP4 ADD MSTORE PUSH32 0x3C616E696D617465206174747269627574654E616D653D226F70616369747922 DUP1 PUSH1 0x60 DUP5 ADD MSTORE PUSH32 0x2076616C7565733D22303B313B3022206475723D223173222072657065617443 PUSH1 0x80 DUP5 ADD MSTORE PUSH19 0x37BAB73A1E9134B73232B334B734BA3291179F PUSH1 0x69 SHL SWAP1 DUP2 PUSH1 0xA0 DUP6 ADD MSTORE PUSH9 0x1E17B1B4B931B6329F PUSH1 0xB9 SHL SWAP1 DUP2 PUSH1 0xB3 DUP7 ADD MSTORE PUSH32 0x3C636972636C652063783D22373030222063793D223430302220723D22332220 PUSH1 0xBC DUP7 ADD MSTORE PUSH32 0x66696C6C3D222346464437303022206F7061636974793D22302E36223E000000 PUSH1 0xDC DUP7 ADD MSTORE DUP1 PUSH1 0xF9 DUP7 ADD MSTORE PUSH32 0x2076616C7565733D22303B313B3022206475723D22312E357322207265706561 PUSH2 0x119 DUP7 ADD MSTORE PUSH21 0x3A21B7BAB73A1E9134B73232B334B734BA3291179F PUSH1 0x59 SHL PUSH2 0x139 DUP7 ADD MSTORE DUP2 PUSH2 0x14E DUP7 ADD MSTORE PUSH32 0x3C636972636C652063783D22343030222063793D223630302220723D22352220 PUSH2 0x157 DUP7 ADD MSTORE PUSH32 0x66696C6C3D222346464437303022206F7061636974793D22302E37223E000000 PUSH2 0x177 DUP7 ADD MSTORE PUSH2 0x194 DUP6 ADD MSTORE PUSH32 0x2076616C7565733D22303B313B3022206475723D223273222072657065617443 PUSH2 0x1B4 DUP6 ADD MSTORE PUSH2 0x1D4 SWAP2 DUP3 DUP6 ADD MSTORE PUSH2 0x1E7 DUP5 ADD MSTORE PUSH4 0x1E17B39F PUSH1 0xE1 SHL PUSH2 0x1F0 DUP5 ADD MSTORE DUP3 MSTORE PUSH2 0x200 DUP3 ADD SWAP1 DUP3 DUP3 LT PUSH8 0xFFFFFFFFFFFFFFFF DUP4 GT OR PUSH2 0x31E JUMPI MSTORE SWAP1 JUMP JUMPDEST PUSH1 0x4 EQ PUSH2 0x1FD8 JUMPI MLOAD PUSH2 0x15E3 DUP2 PUSH2 0x388 JUMP JUMPDEST PUSH32 0x222066696C6C3D226E6F6E6522207374726F6B653D2223464644373030222073 DUP2 MLOAD SWAP2 PUSH32 0x3C636972636C652063783D22353132222063793D223531322220723D22323030 PUSH1 0x20 DUP5 ADD MSTORE DUP3 ADD MSTORE PUSH32 0x74726F6B652D77696474683D223222206F7061636974793D22302E33223E0000 PUSH1 0x60 DUP3 ADD MSTORE PUSH32 0x3C616E696D617465206174747269627574654E616D653D2272222076616C7565 PUSH1 0x7E DUP3 ADD MSTORE PUSH32 0x733D223139303B3231303B31393022206475723D223473222072657065617443 PUSH1 0x9E DUP3 ADD MSTORE PUSH19 0x37BAB73A1E9134B73232B334B734BA3291179F PUSH1 0x69 SHL PUSH1 0xBE DUP3 ADD MSTORE PUSH9 0x1E17B1B4B931B6329F PUSH1 0xB9 SHL PUSH1 0xD1 DUP3 ADD MSTORE PUSH1 0xBA DUP2 MSTORE PUSH2 0x10C3 DUP2 PUSH2 0x36C JUMP JUMPDEST DUP1 PUSH1 0x0 SWAP2 PUSH27 0x184F03E93FF9F4DAA797ED6E38ED64BF6A1F010000000000000000 DUP1 DUP3 LT ISZERO PUSH2 0x222C JUMPI JUMPDEST POP PUSH14 0x4EE2D6D415B85ACEF8100000000 DUP1 DUP4 LT ISZERO PUSH2 0x221D JUMPI JUMPDEST POP PUSH7 0x2386F26FC10000 DUP1 DUP4 LT ISZERO PUSH2 0x220E JUMPI JUMPDEST POP PUSH4 0x5F5E100 DUP1 DUP4 LT ISZERO PUSH2 0x21FF JUMPI JUMPDEST POP PUSH2 0x2710 DUP1 DUP4 LT ISZERO PUSH2 0x21F0 JUMPI JUMPDEST POP PUSH1 0x64 DUP3 LT ISZERO PUSH2 0x21E0 JUMPI JUMPDEST PUSH1 0xA DUP1 SWAP3 LT ISZERO PUSH2 0x21D6 JUMPI JUMPDEST PUSH1 0x1 SWAP1 DUP2 PUSH1 0x21 DUP2 DUP7 ADD SWAP6 PUSH2 0x216B DUP8 PUSH2 0x3E3 JUMP JUMPDEST SWAP7 PUSH2 0x2179 PUSH1 0x40 MLOAD SWAP9 DUP10 PUSH2 0x3C1 JUMP JUMPDEST DUP1 DUP9 MSTORE PUSH2 0x2188 PUSH1 0x1F NOT SWAP2 PUSH2 0x3E3 JUMP JUMPDEST ADD CALLDATASIZE PUSH1 0x20 DUP10 ADD CALLDATACOPY DUP7 ADD ADD SWAP1 JUMPDEST PUSH2 0x21A0 JUMPI JUMPDEST POP POP POP POP SWAP1 JUMP JUMPDEST PUSH1 0x0 NOT ADD SWAP1 DUP4 SWAP1 PUSH16 0x181899199A1A9B1B9C1CB0B131B232B3 PUSH1 0x81 SHL DUP3 DUP3 MOD BYTE DUP4 MSTORE8 DIV SWAP2 DUP3 ISZERO PUSH2 0x21D1 JUMPI SWAP2 SWAP1 DUP3 PUSH2 0x2194 JUMP JUMPDEST PUSH2 0x2199 JUMP JUMPDEST SWAP2 PUSH1 0x1 ADD SWAP2 PUSH2 0x2158 JUMP JUMPDEST SWAP2 SWAP1 PUSH1 0x64 PUSH1 0x2 SWAP2 DIV SWAP2 ADD SWAP2 PUSH2 0x214D JUMP JUMPDEST PUSH1 0x4 SWAP2 SWAP4 SWAP3 DIV SWAP2 ADD SWAP2 CODESIZE PUSH2 0x2142 JUMP JUMPDEST PUSH1 0x8 SWAP2 SWAP4 SWAP3 DIV SWAP2 ADD SWAP2 CODESIZE PUSH2 0x2135 JUMP JUMPDEST PUSH1 0x10 SWAP2 SWAP4 SWAP3 DIV SWAP2 ADD SWAP2 CODESIZE PUSH2 0x2126 JUMP JUMPDEST PUSH1 0x20 SWAP2 SWAP4 SWAP3 DIV SWAP2 ADD SWAP2 CODESIZE PUSH2 0x2114 JUMP JUMPDEST PUSH1 0x40 SWAP4 POP DUP2 DIV SWAP2 POP CODESIZE PUSH2 0x20FB JUMP JUMPDEST PUSH1 0x40 MLOAD SWAP1 PUSH2 0x2247 DUP3 PUSH2 0x334 JUMP JUMPDEST PUSH1 0x7 DUP3 MSTORE PUSH7 0x2AB735B737BBB7 PUSH1 0xC9 SHL PUSH1 0x20 DUP4 ADD MSTORE JUMP JUMPDEST DUP1 ISZERO PUSH2 0x231A JUMPI PUSH1 0x1 DUP2 EQ PUSH2 0x22F5 JUMPI PUSH1 0x2 DUP2 EQ PUSH2 0x22D4 JUMPI PUSH1 0x3 DUP2 EQ PUSH2 0x22AE JUMPI PUSH1 0x4 EQ PUSH2 0x228A JUMPI PUSH2 0x10C3 PUSH2 0x223A JUMP JUMPDEST PUSH1 0x40 MLOAD PUSH2 0x2296 DUP2 PUSH2 0x334 JUMP JUMPDEST PUSH1 0x8 DUP2 MSTORE PUSH8 0x23BAB0B93234B0B7 PUSH1 0xC1 SHL PUSH1 0x20 DUP3 ADD MSTORE SWAP1 JUMP JUMPDEST POP PUSH1 0x40 MLOAD PUSH2 0x22BB DUP2 PUSH2 0x334 JUMP JUMPDEST PUSH1 0x9 DUP2 MSTORE PUSH9 0x2132B939B2B935B2B9 PUSH1 0xB9 SHL PUSH1 0x20 DUP3 ADD MSTORE SWAP1 JUMP JUMPDEST POP PUSH1 0x40 MLOAD PUSH2 0x22E1 DUP2 PUSH2 0x334 JUMP JUMPDEST PUSH1 0x4 DUP2 MSTORE PUSH4 0x4D616765 PUSH1 0xE0 SHL PUSH1 0x20 DUP3 ADD MSTORE SWAP1 JUMP JUMPDEST POP PUSH1 0x40 MLOAD PUSH2 0x2302 DUP2 PUSH2 0x334 JUMP JUMPDEST PUSH1 0x8 DUP2 MSTORE PUSH8 0x20B9B9B0B9B9B4B7 PUSH1 0xC1 SHL PUSH1 0x20 DUP3 ADD MSTORE SWAP1 JUMP JUMPDEST POP PUSH1 0x40 MLOAD PUSH2 0x2327 DUP2 PUSH2 0x334 JUMP JUMPDEST PUSH1 0x7 DUP2 MSTORE PUSH7 0x2BB0B93934B7B9 PUSH1 0xC9 SHL PUSH1 0x20 DUP3 ADD MSTORE SWAP1 JUMP JUMPDEST DUP1 ISZERO PUSH2 0x2422 JUMPI PUSH1 0x1 DUP2 EQ PUSH2 0x23FD JUMPI PUSH1 0x2 DUP2 EQ PUSH2 0x23DC JUMPI PUSH1 0x3 DUP2 EQ PUSH2 0x23BB JUMPI PUSH1 0x4 DUP2 EQ PUSH2 0x2395 JUMPI PUSH1 0x5 EQ PUSH2 0x2373 JUMPI PUSH2 0x10C3 PUSH2 0x223A JUMP JUMPDEST PUSH1 0x40 MLOAD PUSH2 0x237F DUP2 PUSH2 0x334 JUMP JUMPDEST PUSH1 0x6 DUP2 MSTORE PUSH6 0x4D7974686963 PUSH1 0xD0 SHL PUSH1 0x20 DUP3 ADD MSTORE SWAP1 JUMP JUMPDEST POP PUSH1 0x40 MLOAD PUSH2 0x23A2 DUP2 PUSH2 0x334 JUMP JUMPDEST PUSH1 0x9 DUP2 MSTORE PUSH9 0x4C6567656E64617279 PUSH1 0xB8 SHL PUSH1 0x20 DUP3 ADD MSTORE SWAP1 JUMP JUMPDEST POP PUSH1 0x40 MLOAD PUSH2 0x23C8 DUP2 PUSH2 0x334 JUMP JUMPDEST PUSH1 0x4 DUP2 MSTORE PUSH4 0x45706963 PUSH1 0xE0 SHL PUSH1 0x20 DUP3 ADD MSTORE SWAP1 JUMP JUMPDEST POP PUSH1 0x40 MLOAD PUSH2 0x23E9 DUP2 PUSH2 0x334 JUMP JUMPDEST PUSH1 0x4 DUP2 MSTORE PUSH4 0x52617265 PUSH1 0xE0 SHL PUSH1 0x20 DUP3 ADD MSTORE SWAP1 JUMP JUMPDEST POP PUSH1 0x40 MLOAD PUSH2 0x240A DUP2 PUSH2 0x334 JUMP JUMPDEST PUSH1 0x8 DUP2 MSTORE PUSH8 0x2AB731B7B6B6B7B7 PUSH1 0xC1 SHL PUSH1 0x20 DUP3 ADD MSTORE SWAP1 JUMP JUMPDEST POP PUSH1 0x40 MLOAD PUSH2 0x242F DUP2 PUSH2 0x334 JUMP JUMPDEST PUSH1 0x6 DUP2 MSTORE PUSH6 0x21B7B6B6B7B7 PUSH1 0xD1 SHL PUSH1 0x20 DUP3 ADD MSTORE SWAP1 JUMP INVALID EXTCODECOPY PUSH7 0x696C7465722069 PUSH5 0x3D22636C61 PUSH20 0x7346696C746572223E000000000000003C666543 PUSH16 0x6C6F724D617472697820747970653D22 PUSH14 0x6174726978222076616CA2646970 PUSH7 0x735822122054F7 0xD8 0x2C PUSH31 0x2DD83D8FC57FAECE5603B8D1544506FB7E5722F628B31A858F613364736F6C PUSH4 0x43000814 STOP CALLER "},"methodIdentifiers":{"generateMageSVG()":"b041c99b","generateTestSVG()":"6f5495ef","generateWarriorSVG()":"92be2399"}}}}}