{"contracts/MonanimalNFT_Updated.sol":{"MonanimalNFT":{"abi":[{"inputs":[],"stateMutability":"nonpayable","type":"constructor"},{"anonymous":false,"inputs":[{"indexed":true,"internalType":"address","name":"owner","type":"address"},{"indexed":true,"internalType":"address","name":"approved","type":"address"},{"indexed":true,"internalType":"uint256","name":"tokenId","type":"uint256"}],"name":"Approval","type":"event"},{"anonymous":false,"inputs":[{"indexed":true,"internalType":"address","name":"owner","type":"address"},{"indexed":true,"internalType":"address","name":"operator","type":"address"},{"indexed":false,"internalType":"bool","name":"approved","type":"bool"}],"name":"ApprovalForAll","type":"event"},{"anonymous":false,"inputs":[{"indexed":true,"internalType":"uint256","name":"tokenId","type":"uint256"},{"indexed":false,"internalType":"uint256","name":"weaponId","type":"uint256"},{"indexed":false,"internalType":"uint256","name":"artifactId","type":"uint256"}],"name":"MonanimalEquipped","type":"event"},{"anonymous":false,"inputs":[{"indexed":true,"internalType":"uint256","name":"tokenId","type":"uint256"}],"name":"MonanimalHealed","type":"event"},{"anonymous":false,"inputs":[{"indexed":true,"internalType":"uint256","name":"tokenId","type":"uint256"},{"indexed":false,"internalType":"uint256","name":"newLevel","type":"uint256"}],"name":"MonanimalLevelUp","type":"event"},{"anonymous":false,"inputs":[{"indexed":true,"internalType":"uint256","name":"tokenId","type":"uint256"},{"indexed":true,"internalType":"address","name":"owner","type":"address"},{"indexed":false,"internalType":"enum MonanimalNFT.MonanimalClass","name":"class","type":"uint8"},{"indexed":false,"internalType":"enum MonanimalNFT.Rarity","name":"rarity","type":"uint8"}],"name":"MonanimalMinted","type":"event"},{"anonymous":false,"inputs":[{"indexed":true,"internalType":"address","name":"previousOwner","type":"address"},{"indexed":true,"internalType":"address","name":"newOwner","type":"address"}],"name":"OwnershipTransferred","type":"event"},{"anonymous":false,"inputs":[{"indexed":true,"internalType":"address","name":"from","type":"address"},{"indexed":true,"internalType":"address","name":"to","type":"address"},{"indexed":true,"internalType":"uint256","name":"tokenId","type":"uint256"}],"name":"Transfer","type":"event"},{"inputs":[{"internalType":"uint256","name":"tokenId","type":"uint256"},{"internalType":"uint256","name":"exp","type":"uint256"}],"name":"addExperience","outputs":[],"stateMutability":"nonpayable","type":"function"},{"inputs":[{"internalType":"address","name":"to","type":"address"},{"internalType":"uint256","name":"tokenId","type":"uint256"}],"name":"approve","outputs":[],"stateMutability":"nonpayable","type":"function"},{"inputs":[{"internalType":"address","name":"owner","type":"address"}],"name":"balanceOf","outputs":[{"internalType":"uint256","name":"","type":"uint256"}],"stateMutability":"view","type":"function"},{"inputs":[{"internalType":"uint256","name":"tokenId","type":"uint256"},{"internalType":"uint256","name":"weaponId","type":"uint256"},{"internalType":"uint256","name":"artifactId","type":"uint256"}],"name":"equipItems","outputs":[],"stateMutability":"nonpayable","type":"function"},{"inputs":[{"internalType":"uint256","name":"tokenId","type":"uint256"}],"name":"getApproved","outputs":[{"internalType":"address","name":"","type":"address"}],"stateMutability":"view","type":"function"},{"inputs":[{"internalType":"uint256","name":"tokenId","type":"uint256"}],"name":"getMonanimal","outputs":[{"components":[{"internalType":"string","name":"name","type":"string"},{"internalType":"enum MonanimalNFT.MonanimalClass","name":"class","type":"uint8"},{"internalType":"enum MonanimalNFT.Rarity","name":"rarity","type":"uint8"},{"components":[{"internalType":"uint256","name":"health","type":"uint256"},{"internalType":"uint256","name":"attack","type":"uint256"},{"internalType":"uint256","name":"defense","type":"uint256"},{"internalType":"uint256","name":"speed","type":"uint256"},{"internalType":"uint256","name":"magic","type":"uint256"},{"internalType":"uint256","name":"luck","type":"uint256"}],"internalType":"struct MonanimalNFT.MonanimalStats","name":"stats","type":"tuple"},{"internalType":"uint256","name":"level","type":"uint256"},{"internalType":"uint256","name":"experience","type":"uint256"},{"internalType":"uint256","name":"wins","type":"uint256"},{"internalType":"uint256","name":"losses","type":"uint256"},{"internalType":"bool","name":"isKO","type":"bool"},{"internalType":"uint256","name":"lastBattleTime","type":"uint256"},{"internalType":"string","name":"colorScheme","type":"string"},{"internalType":"uint256","name":"weaponId","type":"uint256"},{"internalType":"uint256","name":"artifactId","type":"uint256"}],"internalType":"struct MonanimalNFT.Monanimal","name":"","type":"tuple"}],"stateMutability":"view","type":"function"},{"inputs":[{"internalType":"address","name":"owner","type":"address"}],"name":"getOwnerMonanimals","outputs":[{"internalType":"uint256[]","name":"","type":"uint256[]"}],"stateMutability":"view","type":"function"},{"inputs":[{"internalType":"uint256","name":"tokenId","type":"uint256"}],"name":"healMonanimal","outputs":[],"stateMutability":"payable","type":"function"},{"inputs":[],"name":"healingPrice","outputs":[{"internalType":"uint256","name":"","type":"uint256"}],"stateMutability":"view","type":"function"},{"inputs":[{"internalType":"address","name":"owner","type":"address"},{"internalType":"address","name":"operator","type":"address"}],"name":"isApprovedForAll","outputs":[{"internalType":"bool","name":"","type":"bool"}],"stateMutability":"view","type":"function"},{"inputs":[],"name":"mint","outputs":[],"stateMutability":"payable","type":"function"},{"inputs":[],"name":"mintPrice","outputs":[{"internalType":"uint256","name":"","type":"uint256"}],"stateMutability":"view","type":"function"},{"inputs":[{"internalType":"uint256","name":"","type":"uint256"}],"name":"monanimals","outputs":[{"internalType":"string","name":"name","type":"string"},{"internalType":"enum MonanimalNFT.MonanimalClass","name":"class","type":"uint8"},{"internalType":"enum MonanimalNFT.Rarity","name":"rarity","type":"uint8"},{"components":[{"internalType":"uint256","name":"health","type":"uint256"},{"internalType":"uint256","name":"attack","type":"uint256"},{"internalType":"uint256","name":"defense","type":"uint256"},{"internalType":"uint256","name":"speed","type":"uint256"},{"internalType":"uint256","name":"magic","type":"uint256"},{"internalType":"uint256","name":"luck","type":"uint256"}],"internalType":"struct MonanimalNFT.MonanimalStats","name":"stats","type":"tuple"},{"internalType":"uint256","name":"level","type":"uint256"},{"internalType":"uint256","name":"experience","type":"uint256"},{"internalType":"uint256","name":"wins","type":"uint256"},{"internalType":"uint256","name":"losses","type":"uint256"},{"internalType":"bool","name":"isKO","type":"bool"},{"internalType":"uint256","name":"lastBattleTime","type":"uint256"},{"internalType":"string","name":"colorScheme","type":"string"},{"internalType":"uint256","name":"weaponId","type":"uint256"},{"internalType":"uint256","name":"artifactId","type":"uint256"}],"stateMutability":"view","type":"function"},{"inputs":[],"name":"name","outputs":[{"internalType":"string","name":"","type":"string"}],"stateMutability":"view","type":"function"},{"inputs":[],"name":"owner","outputs":[{"internalType":"address","name":"","type":"address"}],"stateMutability":"view","type":"function"},{"inputs":[{"internalType":"address","name":"","type":"address"},{"internalType":"uint256","name":"","type":"uint256"}],"name":"ownerMonanimals","outputs":[{"internalType":"uint256","name":"","type":"uint256"}],"stateMutability":"view","type":"function"},{"inputs":[{"internalType":"uint256","name":"tokenId","type":"uint256"}],"name":"ownerOf","outputs":[{"internalType":"address","name":"","type":"address"}],"stateMutability":"view","type":"function"},{"inputs":[],"name":"renounceOwnership","outputs":[],"stateMutability":"nonpayable","type":"function"},{"inputs":[{"internalType":"address","name":"from","type":"address"},{"internalType":"address","name":"to","type":"address"},{"internalType":"uint256","name":"tokenId","type":"uint256"}],"name":"safeTransferFrom","outputs":[],"stateMutability":"nonpayable","type":"function"},{"inputs":[{"internalType":"address","name":"from","type":"address"},{"internalType":"address","name":"to","type":"address"},{"internalType":"uint256","name":"tokenId","type":"uint256"},{"internalType":"bytes","name":"data","type":"bytes"}],"name":"safeTransferFrom","outputs":[],"stateMutability":"nonpayable","type":"function"},{"inputs":[{"internalType":"address","name":"operator","type":"address"},{"internalType":"bool","name":"approved","type":"bool"}],"name":"setApprovalForAll","outputs":[],"stateMutability":"nonpayable","type":"function"},{"inputs":[{"internalType":"uint256","name":"_price","type":"uint256"}],"name":"setHealingPrice","outputs":[],"stateMutability":"nonpayable","type":"function"},{"inputs":[{"internalType":"uint256","name":"_price","type":"uint256"}],"name":"setMintPrice","outputs":[],"stateMutability":"nonpayable","type":"function"},{"inputs":[{"internalType":"bytes4","name":"interfaceId","type":"bytes4"}],"name":"supportsInterface","outputs":[{"internalType":"bool","name":"","type":"bool"}],"stateMutability":"view","type":"function"},{"inputs":[],"name":"symbol","outputs":[{"internalType":"string","name":"","type":"string"}],"stateMutability":"view","type":"function"},{"inputs":[{"internalType":"uint256","name":"index","type":"uint256"}],"name":"tokenByIndex","outputs":[{"internalType":"uint256","name":"","type":"uint256"}],"stateMutability":"view","type":"function"},{"inputs":[{"internalType":"address","name":"owner","type":"address"},{"internalType":"uint256","name":"index","type":"uint256"}],"name":"tokenOfOwnerByIndex","outputs":[{"internalType":"uint256","name":"","type":"uint256"}],"stateMutability":"view","type":"function"},{"inputs":[{"internalType":"uint256","name":"tokenId","type":"uint256"}],"name":"tokenURI","outputs":[{"internalType":"string","name":"","type":"string"}],"stateMutability":"view","type":"function"},{"inputs":[],"name":"totalSupply","outputs":[{"internalType":"uint256","name":"","type":"uint256"}],"stateMutability":"view","type":"function"},{"inputs":[{"internalType":"address","name":"from","type":"address"},{"internalType":"address","name":"to","type":"address"},{"internalType":"uint256","name":"tokenId","type":"uint256"}],"name":"transferFrom","outputs":[],"stateMutability":"nonpayable","type":"function"},{"inputs":[{"internalType":"address","name":"newOwner","type":"address"}],"name":"transferOwnership","outputs":[],"stateMutability":"nonpayable","type":"function"},{"inputs":[{"internalType":"uint256","name":"tokenId","type":"uint256"},{"internalType":"bool","name":"won","type":"bool"}],"name":"updateBattleResult","outputs":[],"stateMutability":"nonpayable","type":"function"},{"inputs":[],"name":"withdraw","outputs":[],"stateMutability":"nonpayable","type":"function"}],"evm":{"bytecode":{"linkReferences":{},"object":"60803462000382576001600160401b03906040818101838111838210176200036c578152601482526020917f427261776c4e616473204d6f6e616e696d616c7300000000000000000000000083820152815193828501858110828211176200036c578352600585526410949055d360da1b8486015281518181116200036c576000948554916001948584811c9416801562000361575b838510146200034d578190601f94858111620002fa575b508390858311600114620002965789926200028a575b5050600019600383901b1c191690851b1786555b8651928311620002765783548481811c911680156200026b575b8282101462000257578281116200020f575b5080918311600114620001a85750849582939495926200019c575b5050600019600383901b1c191690821b1790555b600a8054336001600160a01b03198216811790925591519290916001600160a01b0316907f8be0079c531659141344cd1fd0a4f28419497f9722a3daafe3b4186f6b6457e09080a3662386f26fc10000600e556611c37937e08000600f5561585d9081620003888239f35b0151905038806200011d565b90601f198316968487528287209287905b898210620001f7575050838596979810620001dd575b505050811b01905562000131565b015160001960f88460031b161c19169055388080620001cf565b808785968294968601518155019501930190620001b9565b8487528187208380860160051c8201928487106200024d575b0160051c019085905b8281106200024157505062000102565b88815501859062000231565b9250819262000228565b634e487b7160e01b87526022600452602487fd5b90607f1690620000f0565b634e487b7160e01b86526041600452602486fd5b015190503880620000c2565b898052848a208894509190601f1984168b5b87828210620002e35750508411620002c9575b505050811b018655620000d6565b015160001960f88460031b161c19169055388080620002bb565b8385015186558b97909501949384019301620002a8565b9091508880528389208580850160051c82019286861062000343575b918991869594930160051c01915b82811062000334575050620000ac565b8b815585945089910162000324565b9250819262000316565b634e487b7160e01b88526022600452602488fd5b93607f169362000095565b634e487b7160e01b600052604160045260246000fd5b600080fdfe61010080604052600436101561001457600080fd5b60003560e01c90816301ffc9a7146136525750806306fdde03146135af578063081812fc14613591578063095ea7b3146134175780631249c58b1461292d57806318160ddd1461290f5780631a01da3f146126d957806323b872dd146126b55780632f745c59146126035780633ccfd60b146125b357806342842e0e146125805780634f0fab16146124c25780634f6ccce7146124175780635a6de6c6146123995780635d240c58146121795780635f89525c1461208257806361f9f71f14611f415780636352211e14611f115780636817c76c14611ef357806370a0823114611ec8578063715018a614611e6b578063894994c314611e4a5780638da5cb5b14611e2157806395d89b4114611d565780639942f46714611d38578063a22cb46514611c60578063aa66b47e14611c08578063b88d4fde14611b59578063c87b56dd1461037f578063e985e9c514610329578063f2afec2f14610275578063f2fde38b146101b15763f4a0a5281461018b57600080fd5b346101ac5760203660031901126101ac576101a4613a13565b600435600e55005b600080fd5b346101ac5760203660031901126101ac576101ca61371f565b6101d2613a13565b6001600160a01b0390811690811561022157600a54826001600160601b0360a01b821617600a55167f8be0079c531659141344cd1fd0a4f28419497f9722a3daafe3b4186f6b6457e0600080a3005b60405162461bcd60e51b815260206004820152602660248201527f4f776e61626c653a206e6577206f776e657220697320746865207a65726f206160448201526564647265737360d01b6064820152608490fd5b346101ac576020806003193601126101ac576001600160a01b0361029761371f565b16600052600d8152604060002060405190818382549182815201908192600052846000209060005b868282106103155786866102d5828803836138bd565b604051928392818401908285525180915260408401929160005b8281106102fe57505050500390f35b8351855286955093810193928101926001016102ef565b8354855290930192600192830192016102bf565b346101ac5760403660031901126101ac5761034261371f565b61034a613735565b9060018060a01b03809116600052600560205260406000209116600052602052602060ff604060002054166040519015158152f35b346101ac5760203660031901126101ac576004356000908152600260205260409020546001600160a01b031615611b1d57600435600052600c60205260406000206010604051916103cf83613819565b6103d8816138de565b835261040060ff60018301546103f38282166020880161412b565b60081c1660408501614137565b61040c60028201613984565b606084015260088101546080840152600981015460a0840152600a81015460c0840152600b81015460e084015260ff600c820154161515610100840152600d810154610120840152610460600e82016138de565b610140840152600f8101546101608401520154610180820152805160208201516005811015611ab5576040830151906006821015611ab55761052d9184608081015160608201518051906020810151604082015160608301519160a06080850151940151946101408801519660e060c08a015199015199604080519e8f906104e782613819565b81528d6020820152015260608d015260808c015260a08b015260c08a015260e0890152610100880152610120870152610140860152610160850152610180840152614739565b6105c0602d61053f6040850151614a79565b9261054d6040860151614cf9565b604051948592651e3232b3399f60d11b60208501526105768151809260206026880191016136d7565b830161058c8251809360206026850191016136d7565b016105a18251809360206026850191016136d7565b01661e17b232b3399f60c91b602682015203600d8101845201826138bd565b6040820151600211611ae1576040516105d88161386b565b602681527f2066696c7465723d2275726c2823636c61737346696c746572292075726c282360208201526533b637bb949160d11b6040820152905b604080517f3c7061746820643d224d3020302043342e333235393335363620332e3536383860208201527f3936393220362e3235303037363420372e313839333730373220372e38373520918101919091527f31322e343337352043382e32343131373433322031332e35383038353831352060608201527f382e32343131373433322031332e353830383538313520382e3631343734363060808201527f392031342e3734373331343435204331342e37343339353637332033342e363460a08201527f31323132342031392e30343539303533332035352e343036383134353820323260c08201527f203736204332322e32323432393638372037372e35303739363134332032322e60e08201527f32323432393638372037372e35303739363134332032322e34353331323520376101008201527f392e3034363338363732204332372e3835373230383635203131362e383334326101208201527f303836392032352e3539313430373031203135352e32363433373336322032316101408201527f20313933222066696c6c3d222330313030303222207472616e73666f726d3d22610160820152733a3930b739b630ba32941b989c16199b9491179f60611b6101808201527f3c7061746820643d224d302030204331322e373730363939353520372e3736316101948201527f333137342031322e373730363939353520372e373631333137342031342e33326101b48201527f30333132352031322e3431303135363235204331332e313937353339303620316101d48201527f332e30353038323033312031322e30373437363536322031332e3639313438346101f48201527f33382031302e39313739363837352031342e33353135363235222066696c6c3d6102148201527f222336453441443822207472616e73666f726d3d227472616e736c617465283761023482015268181c161a9c9491179f60b91b6102548201527f3c7061746820643d224d3020302043302e393136313230363120302e3430333761025d8201527f3938383320312e383332323431323120302e383037353937363620322e37373661027d8201527f313233303520312e3232333633323831204331312e353831383633303320352e61029d8201527f32343730393731372031392e33303238313732392031302e32373134383839326102bd8201527f2032362e393337352031362e31383735222066696c6c3d2223364334394438226102dd8201527f207472616e73666f726d3d227472616e736c617465283639302e303632352c356102fd8201526a181b971c18991a9491179f60a91b61031d8201527f3c7061746820643d224d3020302043302e363231333238313220302e343931316103288201527f3332383120312e323432363536323520302e393832323635363220312e3838326103488201527f3831323520312e34383832383132352043382e393637383536353520362e35306103688201527f3538343635382031372e353838313538363920392e31303437383338382032356103888201527f2e38313634303632352031312e36373936383735222066696c6c3d22234346336103a88201527f33433022207472616e73666f726d3d227472616e736c617465283430372e39396103c88201527519189c1b9a961b9a9997189c9c99189c1b9a9491179f60511b6103e88201526103de8152916001600160401b03610400840190811190841117611acb57829061040082016040526104208201613c6760f01b9052805161042291818385019160200191610b30926136d7565b601f60f91b90830191820152815161042391610b5282848301602087016136d7565b01908101631e17b39f60e11b90520360078101610400840152602701610400830190610b7d916138bd565b610b8683614edd565b92610b90816153b9565b81516060830151610ba0906143a1565b926020810151610baf90615724565b906040810151610bbe9061577d565b6080820151610bcc906143a1565b60a0830151610bda906143a1565b60c0840151610be8906143a1565b60e0850151610bf6906143a1565b91610100860151610c06906143a1565b93610120870151610c16906143a1565b95610160880151610c26906143a1565b976101800151610c35906143a1565b986040519c8d809c602082017f3c7265637420783d2232302220793d22383530222077696474683d22393834229052604082017f206865696768743d22313530222066696c6c3d2223304531303046222066696c9052606082017f6c2d6f7061636974793d22302e39222072783d223130222f3e000000000000009052607982017f3c7465787420783d2234302220793d22383930222066696c6c3d2223464646469052609982017f46462220666f6e742d66616d696c793d22417269616c2c2073616e732d736572905260b982017f69662220666f6e742d73697a653d2232382220666f6e742d7765696768743d229052653137b632111f60d11b60d9830152805160df8193019160200191610d4b926136d7565b8c0160df8101661e17ba32bc3a1f60c91b905260e681017f3c7465787420783d2234302220793d22393230222066696c6c3d222338333645905261010681017f46392220666f6e742d66616d696c793d22417269616c2c2073616e732d736572905261012681017f69662220666f6e742d73697a653d223230223e4c6576656c2000000000000000905281519061013f92828483019160200191610dee926136d7565b01620103e160ed1b809282015282519061014293828583019160200191610e14926136d7565b019182015281519061014592828483019160200191610e32926136d7565b661e17ba32bc3a1f60c91b9101918201527f3c7465787420783d2234302220793d22393530222066696c6c3d22234646464661014c8201527f46462220666f6e742d66616d696c793d22417269616c2c2073616e732d73657261016c8201527534b311103337b73a16b9b4bd329e91189c111f24281d60511b61018c8201528151916101a290610eca908490838501906020016136d7565b82820101641020aa259d60d91b9052825192838383016101a7019160200191610ef2926136d7565b82828201016101a70164102222a31d60d91b90528351938484848401016101ac019160200191610f21926136d7565b661e17ba32bc3a1f60c91b828201840185016101ac8101919091527f3c7465787420783d2234302220793d22393830222066696c6c3d2223464646466101b38201527f46462220666f6e742d66616d696c793d22417269616c2c2073616e732d7365726101d38201527f69662220666f6e742d73697a653d223138223e5350443a0000000000000000006101f3820152855195610fc991879161020a909101906020016136d7565b641026a0a39d60d91b82820184018501860161020a810191909152865196610ffc91889161020f909101906020016136d7565b010101010161020f810164102621a59d60d91b90528151918261021483019160200191611028926136d7565b016102148101661e17ba32bc3a1f60c91b905261021b81017f3c7465787420783d223730302220793d22393530222066696c6c3d222341303090527f3535442220666f6e742d66616d696c793d22417269616c2c2073616e732d7365908161023b82015261025b81017f7269662220666f6e742d73697a653d223138223e57696e733a200000000000009052825190610275938285830191602001916110cd926136d7565b01918201661e17ba32bc3a1f60c91b905261027c82017f3c7465787420783d223730302220793d22393830222066696c6c3d2223413030905261029c8201526102bc81017f7269662220666f6e742d73697a653d223138223e4c6f737365733a200000000090528151906102d89282848301916020019161114d926136d7565b01908101661e17ba32bc3a1f60c91b90528181036102bf018252036102df0161117690836138bd565b604051948594602086017f3c7376672077696474683d223130323422206865696768743d223130323422209052604086017f786d6c6e733d22687474703a2f2f7777772e77332e6f72672f323030302f737690526233911f60e91b606087015284516063958187890191602001916111ed926136d7565b86016104008201519182878301916104200191611209926136d7565b0181519182868301916020019161121f926136d7565b01815191828583019160200191611235926136d7565b0181519182848301916020019161124b926136d7565b01908101651e17b9bb339f60d11b90520360498101825260690161126f90826138bd565b815160c05261127d9061452f565b60e05261128b6004356143a1565b9060208101516005811015611ab5576112ed906040516112aa816137fe565b6112b2614227565b81526112bc61424a565b60208201526112c961426e565b60408201526112d661428e565b60608201526112e36142b3565b608082015261435e565b51916040820151916006831015611ab557611a189361136561030394604051611315816137e3565b61131d6146f3565b8152611327614715565b60208201526113346142d7565b60408201526113416142f7565b606082015261134e614317565b608082015261135b61433c565b60a0820152614216565b519061137460808401516143a1565b6113826060850151516143a1565b6113936020606087015101516143a1565b6080526113a76040606087015101516143a1565b926113b860608088015101516143a1565b906113ca6080606089015101516143a1565b916113dc60a060608a015101516143a1565b90610140890151936113f160c08b01516143a1565b966113ff60e08c01516143a1565b996101006114178d60e060c082015191015190614683565b9c015115611a915760405161142b81613835565b60028152614b4f60f01b60208201529c5b6040518060a0526020683d913730b6b2911d1160b91b91015260c05161146e815180926020602960a0510191016136d7565b60a0510161088b60f21b908160298201527f226465736372697074696f6e223a224120756e69717565204d6f6e616e696d61602b8201527f6c206669676874657220696e2074686520427261776c4e61647320626174746c604b8201527f6520726f79616c652e20496e73706972656420627920746865204d6f6e616420606b8201527f626c6f636b636861696e2065636f73797374656d20776974682066756c6c7920608b820152711bdb98da185a5b8814d591c8185c9d0b888b60721b60ab8201527f22696d616765223a22646174613a696d6167652f7376672b786d6c3b6261736560bd820152620d8d0b60ea1b60dd82015260e0519061157c82518093602060e0850191016136d7565b018160e08201527f2265787465726e616c5f75726c223a2268747470733a2f2f627261776c6e616460e282015275732e6d6f6e61642e78797a2f6d6f6e616e696d616c2f60501b6101028201528251906115e08261011895602087850191016136d7565b01918201526d2261747472696275746573223a5b60901b61011a8201527f7b2274726169745f74797065223a22436c617373222c2276616c7565223a220061012882015286519061163b826101479960208b850191016136d7565b019562089f4b60ea1b968780928201527f7b2274726169745f74797065223a22526172697479222c2276616c7565223a2261014a8201528251906116898261016a95602087850191016136d7565b01918201527f7b2274726169745f74797065223a224c6576656c222c2276616c7565223a000061016d8201528151906116cc8261018b94602086850191016136d7565b0192611f4b60f21b998a80998682809896819701527f7b2274726169745f74797065223a224865616c7468222c2276616c7565223a0061018d82015261171d8251809360206101ac850191016136d7565b01816101ac8201527f7b2274726169745f74797065223a2241747461636b222c2276616c7565223a006101ae8201528160805191825190611768826101cd95602087850191016136d7565b01918201527f7b2274726169745f74797065223a22446566656e7365222c2276616c7565223a6101cf8201528251906117ab826101ef95602087850191016136d7565b01918201527f7b2274726169745f74797065223a225370656564222c2276616c7565223a00006101f18201526117ec82518093602061020f850191016136d7565b018161020f8201527f7b2274726169745f74797065223a224d61676963222c2276616c7565223a00006102118201528251906118328261022f95602087850191016136d7565b01918201527f7b2274726169745f74797065223a224c75636b222c2276616c7565223a0000006102318201528251906118758261024e95602087850191016136d7565b01918201527f7b2274726169745f74797065223a22436f6c6f7220536368656d65222c22766161025082015265363ab2911d1160d11b6102708201528251906118c88261027695602087850191016136d7565b01918201527f7b2274726169745f74797065223a2257696e73222c2276616c7565223a00000061027982015282519061190b8261029695602087850191016136d7565b01918201527f7b2274726169745f74797065223a224c6f73736573222c2276616c7565223a0061029882015282519061194e826102b795602087850191016136d7565b01918201527f7b2274726169745f74797065223a2257696e2052617465222c2276616c7565226102b9820152611d1160f11b6102d982015281519061199d826102db94602086850191016136d7565b01906309489f4b60e21b908201527f7b2274726169745f74797065223a22537461747573222c2276616c7565223a226102df8201528151906119e9826102ff94602086850191016136d7565b019061227d60f01b90820152615d7d60f01b61030182015260a051809103906102e3820190520160a0516138bd565b611a8d611a2660a05161452f565b611a79603d60405180937f646174613a6170706c69636174696f6e2f6a736f6e3b6261736536342c0000006020830152611a6981518092602086860191016136d7565b810103601d8101845201826138bd565b6040519182916020835260208301906136fa565b0390f35b604051611a9d81613835565b6005815264526561647960d81b60208201529c61143c565b634e487b7160e01b600052602160045260246000fd5b634e487b7160e01b600052604160045260246000fd5b604051611aed81613835565b601b81527f2066696c7465723d2275726c2823636c61737346696c74657229220000000000602082015290610613565b60405162461bcd60e51b8152602060048201526014602482015273151bdad95b88191bd95cc81b9bdd08195e1a5cdd60621b6044820152606490fd5b346101ac5760803660031901126101ac57611b7261371f565b611b7a613735565b90606435906044356001600160401b0383116101ac57366023840112156101ac57826004013593611baa856139f8565b92611bb860405194856138bd565b85845236602487870101116101ac576000602087611c06986024611c0199018389013786010152611bf1611bec8433613c6b565b613b92565b611bfc838383613d33565b614061565b613c47565b005b346101ac5760403660031901126101ac57611c2161371f565b6001600160a01b03166000908152600d60205260409020805460243591908210156101ac57602091611c52916139ca565b90546040519160031b1c8152f35b346101ac5760403660031901126101ac57611c7961371f565b611c8161379a565b6001600160a01b0390911690338214611cf357336000526005602052604060002082600052602052611cc38160406000209060ff801983541691151516179055565b60405190151581527f17307eab39ab6107e8899845ad3d59bd9653f200f220920489ca2b5937696c3160203392a3005b60405162461bcd60e51b815260206004820152601960248201527f4552433732313a20617070726f766520746f2063616c6c6572000000000000006044820152606490fd5b346101ac5760003660031901126101ac576020600f54604051908152f35b346101ac5760003660031901126101ac5760405160006001805490611d7a826137a9565b80855291818116908115611dfa5750600114611da1575b611a8d84611a79818603826138bd565b600081815292507fb10e2d527612073b26eecdfd717e6a320cf44b4afac2b0732d9fcbe2b7fa0cf65b828410611de2575050508101602001611a7982611d91565b80546020858701810191909152909301928101611dca565b60ff191660208087019190915292151560051b85019092019250611a799150839050611d91565b346101ac5760003660031901126101ac57600a546040516001600160a01b039091168152602090f35b346101ac5760203660031901126101ac57611e63613a13565b600435600f55005b346101ac5760003660031901126101ac57611e84613a13565b600a80546001600160a01b031981169091556000906001600160a01b03167f8be0079c531659141344cd1fd0a4f28419497f9722a3daafe3b4186f6b6457e08280a3005b346101ac5760203660031901126101ac576020611eeb611ee661371f565b613a6b565b604051908152f35b346101ac5760003660031901126101ac576020600e54604051908152f35b346101ac5760203660031901126101ac576020611f2f600435613b2e565b6040516001600160a01b039091168152f35b346101ac5760203660031901126101ac57600435600052600c6020526040600020611f6b816138de565b600182015491611f7d60028201613984565b92600882015490600983015490600a840154600b850154600c86015460ff1690600d87015492600e8801611fb0906138de565b95600f8901549860100154976040519b8c9b8c6102408091528d01611fd4916136fa565b97611fe560208e0160ff831661374b565b60408d019060081c60ff1690611ffa91613758565b60608c016120399160a0809180518452602081015160208501526040810151604085015260608101516060850152608081015160808501520151910152565b6101208b01526101408a015261016089015261018088015215156101a08701526101c08601528481036101e0860152612071916136fa565b916102008401526102208301520390f35b346101ac5760403660031901126101ac5760043561209e61379a565b600a546001600160a01b0316330361212857156120ea5780600052600c602052600a6040600020016120d08154614520565b90555b600052600c60205242600d60406000200155600080f35b80600052600c602052600b6040600020016121058154614520565b905580600052600c602052600c604060002001600160ff198254161790556120d3565b60405162461bcd60e51b8152602060048201526024808201527f4f6e6c7920626174746c65206172656e612063616e2075706461746520726573604482015263756c747360e01b6064820152608490fd5b346101ac5760403660031901126101ac57600a54600435906001600160a01b031633036123485780600052600c9060208281526009604060002001926024936121c485358254614209565b90558260005280825260086040600020015460648102908082046064149015171561233357836000528183526040600020816009820154101561220357005b6008016122108154614520565b9055836000528183526009604060002001805491820391821161231e57558260005280825260026040600020018054906005820180921161231e57558260005280825260036040600020018054906003820180921161231e57558260005280825260046040600020018054906003820180921161231e57558260005280825260056040600020018054906002820180921161231e57558260005280825260066040600020018054906002820180921161231e57558260005280825260076040600020018054906001820180921161231e577ff04f007b8dfb9f8caf57a3b9e166b72a4e2f1ea8ead97bafc0f12bd08da6c96994955055836000528152600860406000200154604051908152a2005b85634e487b7160e01b60005260116004526000fd5b84634e487b7160e01b60005260116004526000fd5b60405162461bcd60e51b8152602060048201526024808201527f4f6e6c7920626174746c65206172656e612063616e2061646420657870657269604482015263656e636560e01b6064820152608490fd5b346101ac5760603660031901126101ac576004357fef62795ac449f982db6b821e8bbb6efe0e725055fba3222233db3fda1e1dfbf460406024356044356123f26123e286613b2e565b6001600160a01b031633146144e4565b84600052600c6020528060108460002084600f820155015582519182526020820152a2005b346101ac5760203660031901126101ac576004356008548110156124685760209060086000527ff3f7a9fe364faab93b216da50a3214154f22a0a2b415b23a84c8169e8b636ee30154604051908152f35b60405162461bcd60e51b815260206004820152602c60248201527f455243373231456e756d657261626c653a20676c6f62616c20696e646578206f60448201526b7574206f6620626f756e647360a01b6064820152608490fd5b60203660031901126101ac576004356124dd6123e282613b2e565b80600052600c60205260ff600c60406000200154161561254557612505600f543410156140e8565b80600052600c602052600c60406000200160ff1981541690557f47153a98d8b36230c96ba070e7e481cb1c752aef3f85849b30836b74f6f77c48600080a2005b60405162461bcd60e51b81526020600482015260136024820152724d6f6e616e696d616c206973206e6f74204b4f60681b6044820152606490fd5b346101ac57611c06611c0161259436613765565b90604051926125a284613850565b60008452611bf1611bec8433613c6b565b346101ac5760003660031901126101ac576125cc613a13565b600080808060018060a01b03600a541647908282156125fa575bf1156125ee57005b6040513d6000823e3d90fd5b506108fc6125e6565b346101ac5760403660031901126101ac5761261c61371f565b6024359061262981613a6b565b82101561265c5760018060a01b031660005260066020526040600020906000526020526020604060002054604051908152f35b60405162461bcd60e51b815260206004820152602b60248201527f455243373231456e756d657261626c653a206f776e657220696e646578206f7560448201526a74206f6620626f756e647360a81b6064820152608490fd5b346101ac57611c066126c636613765565b916126d4611bec8433613c6b565b613d33565b346101ac5760203660031901126101ac5760006101806040516126fb81613819565b606081528260208201528260408201526127136141d7565b60608201528260808201528260a08201528260c08201528260e082015282610100820152826101208201526060610140820152826101608201520152600435600052600c602052604060002060106040519161276e83613819565b612777816138de565b835261279260ff60018301546103f38282166020880161412b565b61279e60028201613984565b606084015260088101546080840152600981015460a0840152600a81015460c0840152600b81015460e084015260ff600c820154161515610100840152600d8101546101208401526127f2600e82016138de565b610140840152600f81015461016084015201546101808201526040518091602082526101806128f6612832835161024060208701526102608601906136fa565b6128446020850151604087019061374b565b61285660408501516060870190613758565b61289a6060850151608087019060a0809180518452602081015160208501526040810151604085015260608101516060850152608081015160808501520151910152565b608084015161014086015260a084015161016086015260c08401518386015260e08401516101a086015261010084015115156101c08601526101208401516101e0860152610140840151601f19868303016102008701526136fa565b9161016081015161022085015201516102408301520390f35b346101ac5760003660031901126101ac576020600854604051908152f35b60003660031901126101ac57612947600e543410156140e8565b600b5460018101600b556129596141d7565b5060405160208101904282524460408201528260608201523360601b608082015260748152612987816137fe565b5190209060058083061015611ab5576103e88260081c066101f481106000146133c557506000915b6129b76141d7565b506006831015611ab55760148302838104601414841517156132d457603201806032116132d4576129ee60148360101c0682614209565b6129fe60148460181c0683614209565b91612a0f60148560201c0682614209565b90612a2060148660281c0682614209565b612a41612a3360148860301c0684614209565b9260148860381c0690614209565b9260009560058806156000146132ea57601e81018091116132d457906014810181116132d457601401905b60405195612a79876137e3565b8652602086015260408501526060840152608083015260a0820152612ba8604051612aa3816137e3565b604051612aaf81613835565b600b81526a707572706c652d626c756560a81b60208201528152604051612ad581613835565b600c81526b707572706c652d626572727960a01b60208201526020820152604051612aff81613835565b600b81526a626c75652d707572706c6560a81b60208201526040820152604051612b2881613835565b600c81526b62657272792d707572706c6560a01b60208201526060820152604051612b5281613835565b600f81526e1c1d5c9c1b194b59dc98591a595b9d608a1b60208201526080820152604051612b7f81613835565b600d81526c636f736d69632d707572706c6560981b602082015260a08201526006850690614216565b5190604051612bb6816137fe565b612bbe614227565b8152612bc861424a565b6020820152612bd561426e565b6040820152612be261428e565b6060820152612bef6142b3565b608082015260405190612c01826137e3565b604051612c0d81613850565b600081528252604051612c1f81613835565b60058152645368696e7960d81b60208201526020830152612c3e6142d7565b6040830152612c4b6142f7565b6060830152612c58614317565b6080830152612c6561433c565b60a0830152612c7f88612c788185614216565b5193614216565b5151156132be57604051612c9281613835565b60018152600160fd1b6020820152945b611ab557612d3591612cba602292600589069061435e565b51612cc4896143a1565b906040519783612cde8a95518092602080890191016136d7565b8401612cf382518093602080850191016136d7565b01612d0782518093602080850191016136d7565b0161202360f01b6020820152612d2682518093602087850191016136d7565b010360028101865201846138bd565b60405192612d4284613819565b8352612d54600585066020850161412b565b612d618660408501614137565b606083015260016080830152600060a0830152600060c0830152600060e0830152600061010083015260006101208301526101408201526000610160820152600061018082015282600052600c60205260406000209080518051906001600160401b038211611acb578190612dd685546137a9565b601f811161326e575b50602090601f8311600114613202576000926131f7575b50508160011b916000199060031b1c19161782555b60208101516005811015611ab557600183015460408301516006811015611ab55761ff0060ff9160081b1692169061ffff19161717600183015560a060608201518051600285015560208101516003850155604081015160048501556060810151600585015560808101516006850155015160078301556080810151600883015560a0810151600983015560c0810151600a83015560e0810151600b830155612eca6101008201511515600c84019060ff801983541691151516179055565b610120810151600d8301556101408101518051906001600160401b038211611acb57612ef9600e8501546137a9565b601f81116131b0575b50602090601f831160011461313c5791806010949261018094600092613131575b50508160011b916000199060031b1c191617600e8501555b610160810151600f850155015191015533600052600d60205260406000208054600160401b811015611acb57612f76916001820181556139ca565b81549060031b9084821b91600019901b191617905560405192612f9884613850565b6000845233156130ed576130bb6130c5926130af611c01600597612fda612fd489600052600260205260018060a01b0360406000205416151590565b1561418b565b600854886000526009602052604060002055612ff588614143565b612ffe33613a6b565b3360005260066020526040600020816000526020528860406000205588600052600760205260406000205561304b612fd489600052600260205260018060a01b0360406000205416151590565b3360005260036020526040600020600181540190558760005260026020526040600020336001600160601b0360a01b825416179055873360007fddf252ad1be2c89b69c2b068fc378daa952ba7f163c4a11628f55a4df523b3ef8180a48733613f43565b6040519586910661374b565b6020840190613758565b7f7bf904f9ef1d99303c3745b88f501e03d4fa0fa1ef2532e4709e5b24e76d2f6f60403393a3005b606460405162461bcd60e51b815260206004820152602060248201527f4552433732313a206d696e7420746f20746865207a65726f20616464726573736044820152fd5b015190508980612f23565b90601f19831691600e860160005260206000209260005b818110613198575092600192859261018096601098961061317f575b505050811b01600e850155612f3b565b015160001960f88460031b161c1916905589808061316f565b92936020600181928786015181550195019301613153565b600e85016000526020600020601f840160051c8101602085106131f0575b601f830160051c820181106131e4575050612f02565b600081556001016131ce565b50806131ce565b015190508780612df6565b9250846000526020600020906000935b601f1984168510613253576001945083601f1981161061323a575b505050811b018255612e0b565b015160001960f88460031b161c1916905587808061322d565b81810151835560209485019460019093019290910190613212565b909150846000526020600020601f840160051c8101602085106132b7575b90849392915b601f830160051c820181106132a8575050612ddf565b60008155859450600101613292565b508061328c565b6040516132ca81613850565b6000815294612ca2565b634e487b7160e01b600052601160045260246000fd5b6000965093916005880660010361331b57602881018091116132d457916014810181116132d457601401935b612a6c565b9193949295506000956002600589061460001461335357603281018091116132d45792806009198101116132d4576009190194612a6c565b6000965092946005880660030361338557602881018091116132d45790806013198101116132d4576013190190612a6c565b60009650600319600589060161331657919490602881018091116132d45790601e81018091116132d45794806013198101116132d4576013190191612a6c565b6102ee8110156133d857506001916129af565b6103848110156133eb57506002916129af565b6103ca8110156133fe57506003916129af565b6103e3111561340f576004916129af565b6005916129af565b346101ac5760403660031901126101ac5761343061371f565b602435906001600160a01b03808061344785613b2e565b169216918083146135425780331490811561351d575b50156134b257600083815260046020526040902080546001600160a01b0319168317905561348a83613b2e565b167f8c5be1e5ebec7d5bd14f71427d1e84f3dd0314c0f7b2291e5b200ac8c7c3b925600080a4005b60405162461bcd60e51b815260206004820152603d60248201527f4552433732313a20617070726f76652063616c6c6572206973206e6f7420746f60448201527f6b656e206f776e6572206f7220617070726f76656420666f7220616c6c0000006064820152608490fd5b9050600052600560205260406000203360005260205260ff604060002054168461345d565b60405162461bcd60e51b815260206004820152602160248201527f4552433732313a20617070726f76616c20746f2063757272656e74206f776e656044820152603960f91b6064820152608490fd5b346101ac5760203660031901126101ac576020611f2f600435613b54565b346101ac5760003660031901126101ac57604051600080546135d0816137a9565b80845290600190818116908115611dfa57506001146135f957611a8d84611a79818603826138bd565b600080805292507f290decd9548b62a8d60345a988386fc84ba6bc95484008f6362f93160ef3e5635b82841061363a575050508101602001611a7982611d91565b80546020858701810191909152909301928101613622565b346101ac5760203660031901126101ac576004359063ffffffff60e01b82168092036101ac5760209163780e9d6360e01b8114908115613694575b5015158152f35b6380ac58cd60e01b8114915081156136c6575b81156136b5575b508361368d565b6301ffc9a760e01b149050836136ae565b635b5e139f60e01b811491506136a7565b60005b8381106136ea5750506000910152565b81810151838201526020016136da565b90602091613713815180928185528580860191016136d7565b601f01601f1916010190565b600435906001600160a01b03821682036101ac57565b602435906001600160a01b03821682036101ac57565b906005821015611ab55752565b906006821015611ab55752565b60609060031901126101ac576001600160a01b039060043582811681036101ac579160243590811681036101ac579060443590565b6024359081151582036101ac57565b90600182811c921680156137d9575b60208310146137c357565b634e487b7160e01b600052602260045260246000fd5b91607f16916137b8565b60c081019081106001600160401b03821117611acb57604052565b60a081019081106001600160401b03821117611acb57604052565b6101a081019081106001600160401b03821117611acb57604052565b604081019081106001600160401b03821117611acb57604052565b602081019081106001600160401b03821117611acb57604052565b606081019081106001600160401b03821117611acb57604052565b60e081019081106001600160401b03821117611acb57604052565b61012081019081106001600160401b03821117611acb57604052565b90601f801991011681019081106001600160401b03821117611acb57604052565b90604051918260008254926138f2846137a9565b908184526001948581169081600014613961575060011461391e575b505061391c925003836138bd565b565b9093915060005260209081600020936000915b81831061394957505061391c9350820101388061390e565b85548884018501529485019487945091830191613931565b91505061391c94506020925060ff191682840152151560051b820101388061390e565b90604051613991816137e3565b60a06005829480548452600181015460208501526002810154604085015260038101546060850152600481015460808501520154910152565b80548210156139e25760005260206000200190600090565b634e487b7160e01b600052603260045260246000fd5b6001600160401b038111611acb57601f01601f191660200190565b600a546001600160a01b03163303613a2757565b606460405162461bcd60e51b815260206004820152602060248201527f4f776e61626c653a2063616c6c6572206973206e6f7420746865206f776e65726044820152fd5b6001600160a01b03168015613a8b57600052600360205260406000205490565b60405162461bcd60e51b815260206004820152602960248201527f4552433732313a2061646472657373207a65726f206973206e6f7420612076616044820152683634b21037bbb732b960b91b6064820152608490fd5b15613ae957565b60405162461bcd60e51b815260206004820152601860248201527f4552433732313a20696e76616c696420746f6b656e20494400000000000000006044820152606490fd5b6000908152600260205260409020546001600160a01b0316613b51811515613ae2565b90565b600081815260026020526040902054613b77906001600160a01b03161515613ae2565b6000908152600460205260409020546001600160a01b031690565b15613b9957565b60405162461bcd60e51b815260206004820152602d60248201527f4552433732313a2063616c6c6572206973206e6f7420746f6b656e206f776e6560448201526c1c881bdc88185c1c1c9bdd9959609a1b6064820152608490fd5b60809060208152603260208201527f4552433732313a207472616e7366657220746f206e6f6e20455243373231526560408201527131b2b4bb32b91034b6b83632b6b2b73a32b960711b60608201520190565b15613c4e57565b60405162461bcd60e51b815280613c6760048201613bf4565b0390fd5b906001600160a01b038080613c7f84613b2e565b16931691838314938415613cb2575b508315613c9c575b50505090565b613ca891929350613b54565b1614388080613c96565b909350600052600560205260406000208260005260205260ff604060002054169238613c8e565b15613ce057565b60405162461bcd60e51b815260206004820152602560248201527f4552433732313a207472616e736665722066726f6d20696e636f72726563742060448201526437bbb732b960d91b6064820152608490fd5b613d5791613d4084613b2e565b6001600160a01b0393848416939185168414613cd9565b838216938415613ef257839182613e4f5750613da192600854876000526009602052604060002055613d8887614143565b828603613e1c575b50613d9a86613b2e565b1614613cd9565b7fddf252ad1be2c89b69c2b068fc378daa952ba7f163c4a11628f55a4df523b3ef60008481526004602052604081206001600160601b0360a01b9081815416905583825260036020526040822060001981540190558482526040822060018154019055858252600260205284604083209182541617905580a4565b613e2590613a6b565b60406000878152600660205281812083825260205288828220558881526007602052205538613d90565b858303613e61575b50613da192613d88565b613e6c919250613a6b565b6000198101919082116132d457613da19284926000908882526020906007825260409182842054828103613ebb575b508a84528383812055868452600681528284209184525281205592613e57565b8785526006825283852083865282528385205488865260068352848620828752835280858720558552600782528385205538613e9b565b60405162461bcd60e51b8152602060048201526024808201527f4552433732313a207472616e7366657220746f20746865207a65726f206164646044820152637265737360e01b6064820152608490fd5b91929091803b1561405857613f90936040519081630a85bd0160e11b9384825233600483015260009687602484015260448301526080606483015281878160209a8b9660848301906136fa565b03926001600160a01b03165af1849181614014575b50614003575050503d600014613ffb573d613fbf816139f8565b90613fcd60405192836138bd565b81528091833d92013e5b80519182613ff85760405162461bcd60e51b815280613c6760048201613bf4565b01fd5b506060613fd7565b6001600160e01b0319161492509050565b9091508581813d8311614051575b61402c81836138bd565b8101031261404d57516001600160e01b03198116810361404d579038613fa5565b8480fd5b503d614022565b50915050600190565b92939190803b156140de576140b3946040518092630a85bd0160e11b9485835233600484015260018060a01b03809816602484015260448301526080606483015281806020998a9560848301906136fa565b03916000988991165af18491816140145750614003575050503d600014613ffb573d613fbf816139f8565b5050915050600190565b156140ef57565b60405162461bcd60e51b8152602060048201526014602482015273125b9cdd59999a58da595b9d081c185e5b595b9d60621b6044820152606490fd5b6005821015611ab55752565b6006821015611ab55752565b600854600160401b811015611acb5760018101806008558110156139e25760086000527ff3f7a9fe364faab93b216da50a3214154f22a0a2b415b23a84c8169e8b636ee30155565b1561419257565b60405162461bcd60e51b815260206004820152601c60248201527f4552433732313a20746f6b656e20616c7265616479206d696e746564000000006044820152606490fd5b604051906141e4826137e3565b8160a06000918281528260208201528260408201528260608201528260808201520152565b919082018092116132d457565b9060068110156139e25760051b0190565b6040519061423482613835565b60078252662bb0b93934b7b960c91b6020830152565b6040519061425782613835565b600882526720b9b9b0b9b9b4b760c11b6020830152565b6040519061427b82613835565b60048252634d61676560e01b6020830152565b6040519061429b82613835565b60098252682132b939b2b935b2b960b91b6020830152565b604051906142c082613835565b600882526723bab0b93234b0b760c11b6020830152565b604051906142e482613835565b60048252635261726560e01b6020830152565b6040519061430482613835565b60048252634570696360e01b6020830152565b6040519061432482613835565b60098252684c6567656e6461727960b81b6020830152565b6040519061434982613835565b60068252654d797468696360d01b6020830152565b9060058110156139e25760051b0190565b90614379826139f8565b61438660405191826138bd565b8281528092614397601f19916139f8565b0190602036910137565b806000917a184f03e93ff9f4daa797ed6e38ed64bf6a1f010000000000000000808210156144d6575b506d04ee2d6d415b85acef8100000000808310156144c7575b50662386f26fc10000808310156144b8575b506305f5e100808310156144a9575b506127108083101561449a575b50606482101561448a575b600a80921015614480575b60019081602161443882870161436f565b95860101905b61444a575b5050505090565b600019019083906f181899199a1a9b1b9c1cb0b131b232b360811b8282061a83530491821561447b5791908261443e565b614443565b9160010191614427565b919060646002910491019161441c565b60049193920491019138614411565b60089193920491019138614404565b601091939204910191386143f5565b602091939204910191386143e3565b6040935081049150386143ca565b156144eb57565b60405162461bcd60e51b815260206004820152600d60248201526c2737ba103a34329037bbb732b960991b6044820152606490fd5b60001981146132d45760010190565b80511561466f57604051906145438261386b565b604082527f4142434445464748494a4b4c4d4e4f505152535455565758595a61626364656660208301527f6768696a6b6c6d6e6f707172737475767778797a303132333435363738392b2f604083015280516002918282018092116132d4576003918290046001600160fe1b03811681036132d4576145c5908495941b61436f565b936020850193829183518401906020820192835194600085525b83811061461e57505050505251068060011461460b57600214614600575090565b603d90600019015390565b50603d9081600019820153600119015390565b87600491999293949901918251600190603f9082828260121c16880101518453828282600c1c16880101518385015382828260061c16880101518885015316850101518982015301979291906145df565b5060405161467c81613850565b6000815290565b61468d8282614209565b156146d4576064810291818304606414821517156132d4576146ae91614209565b80156146be57613b5191046143a1565b634e487b7160e01b600052601260045260246000fd5b50506040516146e281613835565b60018152600360fc1b602082015290565b6040519061470082613835565b600682526521b7b6b6b7b760d11b6020830152565b6040519061472282613835565b60088252672ab731b7b6b6b7b760c11b6020830152565b806147d557506040516000805160206157e8833981519152602082015260008051602061580883398151915260398201527f7565733d22312e3220302030203020302e3120203020302e382030203020302060598201527f2030203020302e38203020302020302030203020312030222f3e0000000000006079820152681e17b334b63a32b91f60b91b6093820152607c8152613b51816137fe565b6001810361487457506040516000805160206157e8833981519152602082015260008051602061580883398151915260398201527f7565733d22302e39203020302e322030203020203020302e3720302e3320302060598201527f302020302e31203020312e31203020302020302030203020312030222f3e00006079820152681e17b334b63a32b91f60b91b609782015260808152613b51816137fe565b6002810361491357506040516000805160206157e8833981519152602082015260008051602061580883398151915260398201527f7565733d22302e38203020302030203020203020302e3920302e31203020302060598201527f20302e3220302e3120312e32203020302020302030203020312030222f3e00006079820152681e17b334b63a32b91f60b91b609782015260808152613b51816137fe565b6003036149b0576040516000805160206157e8833981519152602082015260008051602061580883398151915260398201527f7565733d22312e3320302e312030203020302e312020302e3120312e3020302060598201527f302030202030203020302e37203020302020302030203020312030222f3e00006079820152681e17b334b63a32b91f60b91b609782015260808152613b51816137fe565b6040516000805160206157e8833981519152602082015260008051602061580883398151915260398201527f7565733d22302e3820302030203020302020302e3120312e3220302e3120302060598201527f3020203020302e3120302e39203020302020302030203020312030222f3e00006079820152681e17b334b63a32b91f60b91b609782015260808152613b51816137fe565b7f3c66654d657267654e6f646520696e3d22536f7572636547726170686963222f8152601f60f91b602082015260210190565b60048110614c0657506040517f3c66696c7465722069643d22676c6f772220783d222d3530252220793d222d3560208201527f3025222077696474683d223230302522206865696768743d2232303025223e0060408201527f3c6665476175737369616e426c757220737464446576696174696f6e3d223822605f820152613b516013827f20726573756c743d22636f6c6f726564426c7572222f3e00000000000000000080607f830152681e3332a6b2b933b29f60b91b90816096840152614bef60877f3c66654d657267654e6f646520696e3d22636f6c6f726564426c7572222f3e0080609f870152614b7060be8701614a46565b90691e17b332a6b2b933b29f60b11b95868352681e17b334b63a32b91f60b91b9586600a850152741e3334b63a32b91034b21e9139b830b935b632911f60591b8a8501527f3c6665476175737369616e426c757220737464446576696174696f6e3d22342260288501526048840152605f830152606882015201614a46565b918252600a82015203600c198101845201826138bd565b60021115614c1a5760405161467c81613850565b604051614c2681613886565b60a581527f3c66696c7465722069643d22676c6f77223e3c6665476175737369616e426c7560208201527f7220737464446576696174696f6e3d22342220726573756c743d22636f6c6f7260408201527f6564426c7572222f3e3c66654d657267653e3c66654d657267654e6f6465206960608201527f6e3d22636f6c6f726564426c7572222f3e3c66654d657267654e6f646520696e60808201527f3d22536f7572636547726170686963222f3e3c2f66654d657267653e3c2f666960a082015264363a32b91f60d91b60c082015290565b60058103614e3a57506040517f3c616e696d6174655472616e73666f726d2069643d22726f746174652220617460208201527f747269627574654e616d653d227472616e73666f726d2220747970653d22726f60408201527f74617465222076616c7565733d223020353132203531323b333630203531322060608201527f35313222206475723d223230732220726570656174436f756e743d22696e64656080820152683334b734ba3291179f60b91b60a08201527f3c616e696d6174652069643d2270756c736522206174747269627574654e616d60a98201527f653d226f706163697479222076616c7565733d22302e383b313b302e3822206460c98201527f75723d2233732220726570656174436f756e743d22696e646566696e6974652260e982015261179f60f11b61010982015260eb8152613b51816138a1565b600414614e4d5760405161467c81613850565b604051614e59816137fe565b606281527f3c616e696d6174652069643d2270756c736522206174747269627574654e616d60208201527f653d226f706163697479222076616c7565733d22302e393b313b302e3922206460408201527f75723d2234732220726570656174436f756e743d22696e646566696e69746522606082015261179f60f11b608082015290565b6020908101518061502857507f3c7265637420783d223438302220793d22323030222077696474683d22343022604051918201527f206865696768743d22323030222066696c6c3d2223433043304330222073747260408201527f6f6b653d222330303022207374726f6b652d77696474683d223422207472616e60608201527f73666f726d3d22726f74617465283135203530302033303029222f3e0000000060808201527f3c7265637420783d223437302220793d22313830222077696474683d22363022609c8201527f206865696768743d223430222066696c6c3d222338423435313322207374726f60bc8201527f6b653d222330303022207374726f6b652d77696474683d223222207472616e7360dc8201527f666f726d3d22726f74617465283135203530302032303029222f3e000000000060fc82015260f78152613b51816138a1565b600181036150d857507f3c7061746820643d224d20343030203130302051203531322035302036323420604051918201527f313030204c20363234203330302051203531322032353020343030203330302060408201527f5a222066696c6c3d222332303030353222207374726f6b653d2223303030222060608201527f7374726f6b652d77696474683d223422206f7061636974793d22302e38222f3e608082015260808152613b51816137fe565b600281036151f957507f3c706f6c79676f6e20706f696e74733d223531322c313530203435302c323530604051918201527f203537342c323530222066696c6c3d222338333645463922207374726f6b653d60408201527f222330303022207374726f6b652d77696474683d2234222f3e0000000000000060608201527f3c636972636c652063783d22343830222063793d223233302220723d2238222060798201526f3334b6361e9111a323221b981811179f60811b8060998301527f3c636972636c652063783d22353434222063793d223233302220723d2238222060a98301528060c98301527f3c636972636c652063783d22353132222063793d223230302220723d2238222060d983015260f982015260e98152613b51816138a1565b6003036152d3577f3c7061746820643d224d2034353020323030204c2034373020313530204c2034604051918201527f39302032303022207374726f6b653d222341303035354422207374726f6b652d60408201527f77696474683d2238222066696c6c3d226e6f6e65222f3e0000000000000000008060608301527f3c7061746820643d224d2035333420323030204c2035353420313530204c203560778301527f37342032303022207374726f6b653d222341303035354422207374726f6b652d609783015260b782015260ae8152613b5181613886565b7f3c7265637420783d223430302220793d22323530222077696474683d22313230604051918201527f22206865696768743d223830222066696c6c3d2223433043304330222073747260408201527f6f6b653d222330303022207374726f6b652d77696474683d2234222f3e00000060608201527f3c636972636c652063783d22343630222063793d223239302220723d22323022607d8201527f2066696c6c3d222338333645463922207374726f6b653d222330303022207374609d8201526f3937b5b296bbb4b23a341e911911179f60811b60bd82015260ad8152613b5181613886565b604090810151600581036155f65750805190621e339f60e91b60208301527f3c636972636c652063783d22333030222063793d223330302220723d2234222060238301527f66696c6c3d222346464437303022206f7061636974793d22302e38223e00000060438301527f3c616e696d617465206174747269627574654e616d653d226f706163697479228060608401527f2076616c7565733d22303b313b3022206475723d22317322207265706561744360808401527237bab73a1e9134b73232b334b734ba3291179f60691b908160a0850152681e17b1b4b931b6329f60b91b908160b38601527f3c636972636c652063783d22373030222063793d223430302220723d2233222060bc8601527f66696c6c3d222346464437303022206f7061636974793d22302e36223e00000060dc8601528060f98601527f2076616c7565733d22303b313b3022206475723d22312e357322207265706561610119860152743a21b7bab73a1e9134b73232b334b734ba3291179f60591b6101398601528161014e8601527f3c636972636c652063783d22343030222063793d223630302220723d223522206101578601527f66696c6c3d222346464437303022206f7061636974793d22302e37223e0000006101778601526101948501527f2076616c7565733d22303b313b3022206475723d2232732220726570656174436101b48501526101d491828501526101e7840152631e17b39f60e11b6101f084015282526102008201908282106001600160401b03831117611acb575290565b600414615607575161467c81613850565b7f222066696c6c3d226e6f6e6522207374726f6b653d22234646443730302220738151917f3c636972636c652063783d22353132222063793d223531322220723d2232303060208401528201527f74726f6b652d77696474683d223222206f7061636974793d22302e33223e000060608201527f3c616e696d617465206174747269627574654e616d653d2272222076616c7565607e8201527f733d223139303b3231303b31393022206475723d223473222072657065617443609e8201527237bab73a1e9134b73232b334b734ba3291179f60691b60be820152681e17b1b4b931b6329f60b91b60d182015260ba8152613b5181613886565b6040519061570e82613835565b60078252662ab735b737bbb760c91b6020830152565b8015615774576001811461576b576002811461576257600381146157595760041461575157613b51615701565b613b516142b3565b50613b5161428e565b50613b5161426e565b50613b5161424a565b50613b51614227565b80156157de57600181146157d557600281146157cc57600381146157c357600481146157ba576005146157b257613b51615701565b613b5161433c565b50613b51614317565b50613b516142f7565b50613b516142d7565b50613b51614715565b50613b516146f356fe3c66696c7465722069643d22636c61737346696c746572223e000000000000003c6665436f6c6f724d617472697820747970653d226d6174726978222076616ca264697066735822122011a4677db8a949a2677c38784656071788d7fec4f8a392c95264959649c228e864736f6c63430008140033","opcodes":"PUSH1 0x80 CALLVALUE PUSH3 0x382 JUMPI PUSH1 0x1 PUSH1 0x1 PUSH1 0x40 SHL SUB SWAP1 PUSH1 0x40 DUP2 DUP2 ADD DUP4 DUP2 GT DUP4 DUP3 LT OR PUSH3 0x36C JUMPI DUP2 MSTORE PUSH1 0x14 DUP3 MSTORE PUSH1 0x20 SWAP2 PUSH32 0x427261776C4E616473204D6F6E616E696D616C73000000000000000000000000 DUP4 DUP3 ADD MSTORE DUP2 MLOAD SWAP4 DUP3 DUP6 ADD DUP6 DUP2 LT DUP3 DUP3 GT OR PUSH3 0x36C JUMPI DUP4 MSTORE PUSH1 0x5 DUP6 MSTORE PUSH5 0x10949055D3 PUSH1 0xDA SHL DUP5 DUP7 ADD MSTORE DUP2 MLOAD DUP2 DUP2 GT PUSH3 0x36C JUMPI PUSH1 0x0 SWAP5 DUP6 SLOAD SWAP2 PUSH1 0x1 SWAP5 DUP6 DUP5 DUP2 SHR SWAP5 AND DUP1 ISZERO PUSH3 0x361 JUMPI JUMPDEST DUP4 DUP6 LT EQ PUSH3 0x34D JUMPI DUP2 SWAP1 PUSH1 0x1F SWAP5 DUP6 DUP2 GT PUSH3 0x2FA JUMPI JUMPDEST POP DUP4 SWAP1 DUP6 DUP4 GT PUSH1 0x1 EQ PUSH3 0x296 JUMPI DUP10 SWAP3 PUSH3 0x28A JUMPI JUMPDEST POP POP PUSH1 0x0 NOT PUSH1 0x3 DUP4 SWAP1 SHL SHR NOT AND SWAP1 DUP6 SHL OR DUP7 SSTORE JUMPDEST DUP7 MLOAD SWAP3 DUP4 GT PUSH3 0x276 JUMPI DUP4 SLOAD DUP5 DUP2 DUP2 SHR SWAP2 AND DUP1 ISZERO PUSH3 0x26B JUMPI JUMPDEST DUP3 DUP3 LT EQ PUSH3 0x257 JUMPI DUP3 DUP2 GT PUSH3 0x20F JUMPI JUMPDEST POP DUP1 SWAP2 DUP4 GT PUSH1 0x1 EQ PUSH3 0x1A8 JUMPI POP DUP5 SWAP6 DUP3 SWAP4 SWAP5 SWAP6 SWAP3 PUSH3 0x19C JUMPI JUMPDEST POP POP PUSH1 0x0 NOT PUSH1 0x3 DUP4 SWAP1 SHL SHR NOT AND SWAP1 DUP3 SHL OR SWAP1 SSTORE JUMPDEST PUSH1 0xA DUP1 SLOAD CALLER PUSH1 0x1 PUSH1 0x1 PUSH1 0xA0 SHL SUB NOT DUP3 AND DUP2 OR SWAP1 SWAP3 SSTORE SWAP2 MLOAD SWAP3 SWAP1 SWAP2 PUSH1 0x1 PUSH1 0x1 PUSH1 0xA0 SHL SUB AND SWAP1 PUSH32 0x8BE0079C531659141344CD1FD0A4F28419497F9722A3DAAFE3B4186F6B6457E0 SWAP1 DUP1 LOG3 PUSH7 0x2386F26FC10000 PUSH1 0xE SSTORE PUSH7 0x11C37937E08000 PUSH1 0xF SSTORE PUSH2 0x585D SWAP1 DUP2 PUSH3 0x388 DUP3 CODECOPY RETURN JUMPDEST ADD MLOAD SWAP1 POP CODESIZE DUP1 PUSH3 0x11D JUMP JUMPDEST SWAP1 PUSH1 0x1F NOT DUP4 AND SWAP7 DUP5 DUP8 MSTORE DUP3 DUP8 KECCAK256 SWAP3 DUP8 SWAP1 JUMPDEST DUP10 DUP3 LT PUSH3 0x1F7 JUMPI POP POP DUP4 DUP6 SWAP7 SWAP8 SWAP9 LT PUSH3 0x1DD JUMPI JUMPDEST POP POP POP DUP2 SHL ADD SWAP1 SSTORE PUSH3 0x131 JUMP JUMPDEST ADD MLOAD PUSH1 0x0 NOT PUSH1 0xF8 DUP5 PUSH1 0x3 SHL AND SHR NOT AND SWAP1 SSTORE CODESIZE DUP1 DUP1 PUSH3 0x1CF JUMP JUMPDEST DUP1 DUP8 DUP6 SWAP7 DUP3 SWAP5 SWAP7 DUP7 ADD MLOAD DUP2 SSTORE ADD SWAP6 ADD SWAP4 ADD SWAP1 PUSH3 0x1B9 JUMP JUMPDEST DUP5 DUP8 MSTORE DUP2 DUP8 KECCAK256 DUP4 DUP1 DUP7 ADD PUSH1 0x5 SHR DUP3 ADD SWAP3 DUP5 DUP8 LT PUSH3 0x24D JUMPI JUMPDEST ADD PUSH1 0x5 SHR ADD SWAP1 DUP6 SWAP1 JUMPDEST DUP3 DUP2 LT PUSH3 0x241 JUMPI POP POP PUSH3 0x102 JUMP JUMPDEST DUP9 DUP2 SSTORE ADD DUP6 SWAP1 PUSH3 0x231 JUMP JUMPDEST SWAP3 POP DUP2 SWAP3 PUSH3 0x228 JUMP JUMPDEST PUSH4 0x4E487B71 PUSH1 0xE0 SHL DUP8 MSTORE PUSH1 0x22 PUSH1 0x4 MSTORE PUSH1 0x24 DUP8 REVERT JUMPDEST SWAP1 PUSH1 0x7F AND SWAP1 PUSH3 0xF0 JUMP JUMPDEST PUSH4 0x4E487B71 PUSH1 0xE0 SHL DUP7 MSTORE PUSH1 0x41 PUSH1 0x4 MSTORE PUSH1 0x24 DUP7 REVERT JUMPDEST ADD MLOAD SWAP1 POP CODESIZE DUP1 PUSH3 0xC2 JUMP JUMPDEST DUP10 DUP1 MSTORE DUP5 DUP11 KECCAK256 DUP9 SWAP5 POP SWAP2 SWAP1 PUSH1 0x1F NOT DUP5 AND DUP12 JUMPDEST DUP8 DUP3 DUP3 LT PUSH3 0x2E3 JUMPI POP POP DUP5 GT PUSH3 0x2C9 JUMPI JUMPDEST POP POP POP DUP2 SHL ADD DUP7 SSTORE PUSH3 0xD6 JUMP JUMPDEST ADD MLOAD PUSH1 0x0 NOT PUSH1 0xF8 DUP5 PUSH1 0x3 SHL AND SHR NOT AND SWAP1 SSTORE CODESIZE DUP1 DUP1 PUSH3 0x2BB JUMP JUMPDEST DUP4 DUP6 ADD MLOAD DUP7 SSTORE DUP12 SWAP8 SWAP1 SWAP6 ADD SWAP5 SWAP4 DUP5 ADD SWAP4 ADD PUSH3 0x2A8 JUMP JUMPDEST SWAP1 SWAP2 POP DUP9 DUP1 MSTORE DUP4 DUP10 KECCAK256 DUP6 DUP1 DUP6 ADD PUSH1 0x5 SHR DUP3 ADD SWAP3 DUP7 DUP7 LT PUSH3 0x343 JUMPI JUMPDEST SWAP2 DUP10 SWAP2 DUP7 SWAP6 SWAP5 SWAP4 ADD PUSH1 0x5 SHR ADD SWAP2 JUMPDEST DUP3 DUP2 LT PUSH3 0x334 JUMPI POP POP PUSH3 0xAC JUMP JUMPDEST DUP12 DUP2 SSTORE DUP6 SWAP5 POP DUP10 SWAP2 ADD PUSH3 0x324 JUMP JUMPDEST SWAP3 POP DUP2 SWAP3 PUSH3 0x316 JUMP JUMPDEST PUSH4 0x4E487B71 PUSH1 0xE0 SHL DUP9 MSTORE PUSH1 0x22 PUSH1 0x4 MSTORE PUSH1 0x24 DUP9 REVERT JUMPDEST SWAP4 PUSH1 0x7F AND SWAP4 PUSH3 0x95 JUMP JUMPDEST PUSH4 0x4E487B71 PUSH1 0xE0 SHL PUSH1 0x0 MSTORE PUSH1 0x41 PUSH1 0x4 MSTORE PUSH1 0x24 PUSH1 0x0 REVERT JUMPDEST PUSH1 0x0 DUP1 REVERT INVALID PUSH2 0x100 DUP1 PUSH1 0x40 MSTORE PUSH1 0x4 CALLDATASIZE LT ISZERO PUSH2 0x14 JUMPI PUSH1 0x0 DUP1 REVERT JUMPDEST PUSH1 0x0 CALLDATALOAD PUSH1 0xE0 SHR SWAP1 DUP2 PUSH4 0x1FFC9A7 EQ PUSH2 0x3652 JUMPI POP DUP1 PUSH4 0x6FDDE03 EQ PUSH2 0x35AF JUMPI DUP1 PUSH4 0x81812FC EQ PUSH2 0x3591 JUMPI DUP1 PUSH4 0x95EA7B3 EQ PUSH2 0x3417 JUMPI DUP1 PUSH4 0x1249C58B EQ PUSH2 0x292D JUMPI DUP1 PUSH4 0x18160DDD EQ PUSH2 0x290F JUMPI DUP1 PUSH4 0x1A01DA3F EQ PUSH2 0x26D9 JUMPI DUP1 PUSH4 0x23B872DD EQ PUSH2 0x26B5 JUMPI DUP1 PUSH4 0x2F745C59 EQ PUSH2 0x2603 JUMPI DUP1 PUSH4 0x3CCFD60B EQ PUSH2 0x25B3 JUMPI DUP1 PUSH4 0x42842E0E EQ PUSH2 0x2580 JUMPI DUP1 PUSH4 0x4F0FAB16 EQ PUSH2 0x24C2 JUMPI DUP1 PUSH4 0x4F6CCCE7 EQ PUSH2 0x2417 JUMPI DUP1 PUSH4 0x5A6DE6C6 EQ PUSH2 0x2399 JUMPI DUP1 PUSH4 0x5D240C58 EQ PUSH2 0x2179 JUMPI DUP1 PUSH4 0x5F89525C EQ PUSH2 0x2082 JUMPI DUP1 PUSH4 0x61F9F71F EQ PUSH2 0x1F41 JUMPI DUP1 PUSH4 0x6352211E EQ PUSH2 0x1F11 JUMPI DUP1 PUSH4 0x6817C76C EQ PUSH2 0x1EF3 JUMPI DUP1 PUSH4 0x70A08231 EQ PUSH2 0x1EC8 JUMPI DUP1 PUSH4 0x715018A6 EQ PUSH2 0x1E6B JUMPI DUP1 PUSH4 0x894994C3 EQ PUSH2 0x1E4A JUMPI DUP1 PUSH4 0x8DA5CB5B EQ PUSH2 0x1E21 JUMPI DUP1 PUSH4 0x95D89B41 EQ PUSH2 0x1D56 JUMPI DUP1 PUSH4 0x9942F467 EQ PUSH2 0x1D38 JUMPI DUP1 PUSH4 0xA22CB465 EQ PUSH2 0x1C60 JUMPI DUP1 PUSH4 0xAA66B47E EQ PUSH2 0x1C08 JUMPI DUP1 PUSH4 0xB88D4FDE EQ PUSH2 0x1B59 JUMPI DUP1 PUSH4 0xC87B56DD EQ PUSH2 0x37F JUMPI DUP1 PUSH4 0xE985E9C5 EQ PUSH2 0x329 JUMPI DUP1 PUSH4 0xF2AFEC2F EQ PUSH2 0x275 JUMPI DUP1 PUSH4 0xF2FDE38B EQ PUSH2 0x1B1 JUMPI PUSH4 0xF4A0A528 EQ PUSH2 0x18B JUMPI PUSH1 0x0 DUP1 REVERT JUMPDEST CALLVALUE PUSH2 0x1AC JUMPI PUSH1 0x20 CALLDATASIZE PUSH1 0x3 NOT ADD SLT PUSH2 0x1AC JUMPI PUSH2 0x1A4 PUSH2 0x3A13 JUMP JUMPDEST PUSH1 0x4 CALLDATALOAD PUSH1 0xE SSTORE STOP JUMPDEST PUSH1 0x0 DUP1 REVERT JUMPDEST CALLVALUE PUSH2 0x1AC JUMPI PUSH1 0x20 CALLDATASIZE PUSH1 0x3 NOT ADD SLT PUSH2 0x1AC JUMPI PUSH2 0x1CA PUSH2 0x371F JUMP JUMPDEST PUSH2 0x1D2 PUSH2 0x3A13 JUMP JUMPDEST PUSH1 0x1 PUSH1 0x1 PUSH1 0xA0 SHL SUB SWAP1 DUP2 AND SWAP1 DUP2 ISZERO PUSH2 0x221 JUMPI PUSH1 0xA SLOAD DUP3 PUSH1 0x1 PUSH1 0x1 PUSH1 0x60 SHL SUB PUSH1 0xA0 SHL DUP3 AND OR PUSH1 0xA SSTORE AND PUSH32 0x8BE0079C531659141344CD1FD0A4F28419497F9722A3DAAFE3B4186F6B6457E0 PUSH1 0x0 DUP1 LOG3 STOP JUMPDEST PUSH1 0x40 MLOAD PUSH3 0x461BCD PUSH1 0xE5 SHL DUP2 MSTORE PUSH1 0x20 PUSH1 0x4 DUP3 ADD MSTORE PUSH1 0x26 PUSH1 0x24 DUP3 ADD MSTORE PUSH32 0x4F776E61626C653A206E6577206F776E657220697320746865207A65726F2061 PUSH1 0x44 DUP3 ADD MSTORE PUSH6 0x646472657373 PUSH1 0xD0 SHL PUSH1 0x64 DUP3 ADD MSTORE PUSH1 0x84 SWAP1 REVERT JUMPDEST CALLVALUE PUSH2 0x1AC JUMPI PUSH1 0x20 DUP1 PUSH1 0x3 NOT CALLDATASIZE ADD SLT PUSH2 0x1AC JUMPI PUSH1 0x1 PUSH1 0x1 PUSH1 0xA0 SHL SUB PUSH2 0x297 PUSH2 0x371F JUMP JUMPDEST AND PUSH1 0x0 MSTORE PUSH1 0xD DUP2 MSTORE PUSH1 0x40 PUSH1 0x0 KECCAK256 PUSH1 0x40 MLOAD SWAP1 DUP2 DUP4 DUP3 SLOAD SWAP2 DUP3 DUP2 MSTORE ADD SWAP1 DUP2 SWAP3 PUSH1 0x0 MSTORE DUP5 PUSH1 0x0 KECCAK256 SWAP1 PUSH1 0x0 JUMPDEST DUP7 DUP3 DUP3 LT PUSH2 0x315 JUMPI DUP7 DUP7 PUSH2 0x2D5 DUP3 DUP9 SUB DUP4 PUSH2 0x38BD JUMP JUMPDEST PUSH1 0x40 MLOAD SWAP3 DUP4 SWAP3 DUP2 DUP5 ADD SWAP1 DUP3 DUP6 MSTORE MLOAD DUP1 SWAP2 MSTORE PUSH1 0x40 DUP5 ADD SWAP3 SWAP2 PUSH1 0x0 JUMPDEST DUP3 DUP2 LT PUSH2 0x2FE JUMPI POP POP POP POP SUB SWAP1 RETURN JUMPDEST DUP4 MLOAD DUP6 MSTORE DUP7 SWAP6 POP SWAP4 DUP2 ADD SWAP4 SWAP3 DUP2 ADD SWAP3 PUSH1 0x1 ADD PUSH2 0x2EF JUMP JUMPDEST DUP4 SLOAD DUP6 MSTORE SWAP1 SWAP4 ADD SWAP3 PUSH1 0x1 SWAP3 DUP4 ADD SWAP3 ADD PUSH2 0x2BF JUMP JUMPDEST CALLVALUE PUSH2 0x1AC JUMPI PUSH1 0x40 CALLDATASIZE PUSH1 0x3 NOT ADD SLT PUSH2 0x1AC JUMPI PUSH2 0x342 PUSH2 0x371F JUMP JUMPDEST PUSH2 0x34A PUSH2 0x3735 JUMP JUMPDEST SWAP1 PUSH1 0x1 DUP1 PUSH1 0xA0 SHL SUB DUP1 SWAP2 AND PUSH1 0x0 MSTORE PUSH1 0x5 PUSH1 0x20 MSTORE PUSH1 0x40 PUSH1 0x0 KECCAK256 SWAP2 AND PUSH1 0x0 MSTORE PUSH1 0x20 MSTORE PUSH1 0x20 PUSH1 0xFF PUSH1 0x40 PUSH1 0x0 KECCAK256 SLOAD AND PUSH1 0x40 MLOAD SWAP1 ISZERO ISZERO DUP2 MSTORE RETURN JUMPDEST CALLVALUE PUSH2 0x1AC JUMPI PUSH1 0x20 CALLDATASIZE PUSH1 0x3 NOT ADD SLT PUSH2 0x1AC JUMPI PUSH1 0x4 CALLDATALOAD PUSH1 0x0 SWAP1 DUP2 MSTORE PUSH1 0x2 PUSH1 0x20 MSTORE PUSH1 0x40 SWAP1 KECCAK256 SLOAD PUSH1 0x1 PUSH1 0x1 PUSH1 0xA0 SHL SUB AND ISZERO PUSH2 0x1B1D JUMPI PUSH1 0x4 CALLDATALOAD PUSH1 0x0 MSTORE PUSH1 0xC PUSH1 0x20 MSTORE PUSH1 0x40 PUSH1 0x0 KECCAK256 PUSH1 0x10 PUSH1 0x40 MLOAD SWAP2 PUSH2 0x3CF DUP4 PUSH2 0x3819 JUMP JUMPDEST PUSH2 0x3D8 DUP2 PUSH2 0x38DE JUMP JUMPDEST DUP4 MSTORE PUSH2 0x400 PUSH1 0xFF PUSH1 0x1 DUP4 ADD SLOAD PUSH2 0x3F3 DUP3 DUP3 AND PUSH1 0x20 DUP9 ADD PUSH2 0x412B JUMP JUMPDEST PUSH1 0x8 SHR AND PUSH1 0x40 DUP6 ADD PUSH2 0x4137 JUMP JUMPDEST PUSH2 0x40C PUSH1 0x2 DUP3 ADD PUSH2 0x3984 JUMP JUMPDEST PUSH1 0x60 DUP5 ADD MSTORE PUSH1 0x8 DUP2 ADD SLOAD PUSH1 0x80 DUP5 ADD MSTORE PUSH1 0x9 DUP2 ADD SLOAD PUSH1 0xA0 DUP5 ADD MSTORE PUSH1 0xA DUP2 ADD SLOAD PUSH1 0xC0 DUP5 ADD MSTORE PUSH1 0xB DUP2 ADD SLOAD PUSH1 0xE0 DUP5 ADD MSTORE PUSH1 0xFF PUSH1 0xC DUP3 ADD SLOAD AND ISZERO ISZERO PUSH2 0x100 DUP5 ADD MSTORE PUSH1 0xD DUP2 ADD SLOAD PUSH2 0x120 DUP5 ADD MSTORE PUSH2 0x460 PUSH1 0xE DUP3 ADD PUSH2 0x38DE JUMP JUMPDEST PUSH2 0x140 DUP5 ADD MSTORE PUSH1 0xF DUP2 ADD SLOAD PUSH2 0x160 DUP5 ADD MSTORE ADD SLOAD PUSH2 0x180 DUP3 ADD MSTORE DUP1 MLOAD PUSH1 0x20 DUP3 ADD MLOAD PUSH1 0x5 DUP2 LT ISZERO PUSH2 0x1AB5 JUMPI PUSH1 0x40 DUP4 ADD MLOAD SWAP1 PUSH1 0x6 DUP3 LT ISZERO PUSH2 0x1AB5 JUMPI PUSH2 0x52D SWAP2 DUP5 PUSH1 0x80 DUP2 ADD MLOAD PUSH1 0x60 DUP3 ADD MLOAD DUP1 MLOAD SWAP1 PUSH1 0x20 DUP2 ADD MLOAD PUSH1 0x40 DUP3 ADD MLOAD PUSH1 0x60 DUP4 ADD MLOAD SWAP2 PUSH1 0xA0 PUSH1 0x80 DUP6 ADD MLOAD SWAP5 ADD MLOAD SWAP5 PUSH2 0x140 DUP9 ADD MLOAD SWAP7 PUSH1 0xE0 PUSH1 0xC0 DUP11 ADD MLOAD SWAP10 ADD MLOAD SWAP10 PUSH1 0x40 DUP1 MLOAD SWAP15 DUP16 SWAP1 PUSH2 0x4E7 DUP3 PUSH2 0x3819 JUMP JUMPDEST DUP2 MSTORE DUP14 PUSH1 0x20 DUP3 ADD MSTORE ADD MSTORE PUSH1 0x60 DUP14 ADD MSTORE PUSH1 0x80 DUP13 ADD MSTORE PUSH1 0xA0 DUP12 ADD MSTORE PUSH1 0xC0 DUP11 ADD MSTORE PUSH1 0xE0 DUP10 ADD MSTORE PUSH2 0x100 DUP9 ADD MSTORE PUSH2 0x120 DUP8 ADD MSTORE PUSH2 0x140 DUP7 ADD MSTORE PUSH2 0x160 DUP6 ADD MSTORE PUSH2 0x180 DUP5 ADD MSTORE PUSH2 0x4739 JUMP JUMPDEST PUSH2 0x5C0 PUSH1 0x2D PUSH2 0x53F PUSH1 0x40 DUP6 ADD MLOAD PUSH2 0x4A79 JUMP JUMPDEST SWAP3 PUSH2 0x54D PUSH1 0x40 DUP7 ADD MLOAD PUSH2 0x4CF9 JUMP JUMPDEST PUSH1 0x40 MLOAD SWAP5 DUP6 SWAP3 PUSH6 0x1E3232B3399F PUSH1 0xD1 SHL PUSH1 0x20 DUP6 ADD MSTORE PUSH2 0x576 DUP2 MLOAD DUP1 SWAP3 PUSH1 0x20 PUSH1 0x26 DUP9 ADD SWAP2 ADD PUSH2 0x36D7 JUMP JUMPDEST DUP4 ADD PUSH2 0x58C DUP3 MLOAD DUP1 SWAP4 PUSH1 0x20 PUSH1 0x26 DUP6 ADD SWAP2 ADD PUSH2 0x36D7 JUMP JUMPDEST ADD PUSH2 0x5A1 DUP3 MLOAD DUP1 SWAP4 PUSH1 0x20 PUSH1 0x26 DUP6 ADD SWAP2 ADD PUSH2 0x36D7 JUMP JUMPDEST ADD PUSH7 0x1E17B232B3399F PUSH1 0xC9 SHL PUSH1 0x26 DUP3 ADD MSTORE SUB PUSH1 0xD DUP2 ADD DUP5 MSTORE ADD DUP3 PUSH2 0x38BD JUMP JUMPDEST PUSH1 0x40 DUP3 ADD MLOAD PUSH1 0x2 GT PUSH2 0x1AE1 JUMPI PUSH1 0x40 MLOAD PUSH2 0x5D8 DUP2 PUSH2 0x386B JUMP JUMPDEST PUSH1 0x26 DUP2 MSTORE PUSH32 0x2066696C7465723D2275726C2823636C61737346696C746572292075726C2823 PUSH1 0x20 DUP3 ADD MSTORE PUSH6 0x33B637BB9491 PUSH1 0xD1 SHL PUSH1 0x40 DUP3 ADD MSTORE SWAP1 JUMPDEST PUSH1 0x40 DUP1 MLOAD PUSH32 0x3C7061746820643D224D3020302043342E333235393335363620332E35363838 PUSH1 0x20 DUP3 ADD MSTORE PUSH32 0x3936393220362E3235303037363420372E313839333730373220372E38373520 SWAP2 DUP2 ADD SWAP2 SWAP1 SWAP2 MSTORE PUSH32 0x31322E343337352043382E32343131373433322031332E353830383538313520 PUSH1 0x60 DUP3 ADD MSTORE PUSH32 0x382E32343131373433322031332E353830383538313520382E36313437343630 PUSH1 0x80 DUP3 ADD MSTORE PUSH32 0x392031342E3734373331343435204331342E37343339353637332033342E3634 PUSH1 0xA0 DUP3 ADD MSTORE PUSH32 0x31323132342031392E30343539303533332035352E3430363831343538203232 PUSH1 0xC0 DUP3 ADD MSTORE PUSH32 0x203736204332322E32323432393638372037372E35303739363134332032322E PUSH1 0xE0 DUP3 ADD MSTORE PUSH32 0x32323432393638372037372E35303739363134332032322E3435333132352037 PUSH2 0x100 DUP3 ADD MSTORE PUSH32 0x392E3034363338363732204332372E3835373230383635203131362E38333432 PUSH2 0x120 DUP3 ADD MSTORE PUSH32 0x303836392032352E3539313430373031203135352E3236343337333632203231 PUSH2 0x140 DUP3 ADD MSTORE PUSH32 0x20313933222066696C6C3D222330313030303222207472616E73666F726D3D22 PUSH2 0x160 DUP3 ADD MSTORE PUSH20 0x3A3930B739B630BA32941B989C16199B9491179F PUSH1 0x61 SHL PUSH2 0x180 DUP3 ADD MSTORE PUSH32 0x3C7061746820643D224D302030204331322E373730363939353520372E373631 PUSH2 0x194 DUP3 ADD MSTORE PUSH32 0x333137342031322E373730363939353520372E373631333137342031342E3332 PUSH2 0x1B4 DUP3 ADD MSTORE PUSH32 0x30333132352031322E3431303135363235204331332E31393735333930362031 PUSH2 0x1D4 DUP3 ADD MSTORE PUSH32 0x332E30353038323033312031322E30373437363536322031332E363931343834 PUSH2 0x1F4 DUP3 ADD MSTORE PUSH32 0x33382031302E39313739363837352031342E33353135363235222066696C6C3D PUSH2 0x214 DUP3 ADD MSTORE PUSH32 0x222336453441443822207472616E73666F726D3D227472616E736C6174652837 PUSH2 0x234 DUP3 ADD MSTORE PUSH9 0x181C161A9C9491179F PUSH1 0xB9 SHL PUSH2 0x254 DUP3 ADD MSTORE PUSH32 0x3C7061746820643D224D3020302043302E393136313230363120302E34303337 PUSH2 0x25D DUP3 ADD MSTORE PUSH32 0x3938383320312E383332323431323120302E383037353937363620322E373736 PUSH2 0x27D DUP3 ADD MSTORE PUSH32 0x313233303520312E3232333633323831204331312E353831383633303320352E PUSH2 0x29D DUP3 ADD MSTORE PUSH32 0x32343730393731372031392E33303238313732392031302E3237313438383932 PUSH2 0x2BD DUP3 ADD MSTORE PUSH32 0x2032362E393337352031362E31383735222066696C6C3D222336433439443822 PUSH2 0x2DD DUP3 ADD MSTORE PUSH32 0x207472616E73666F726D3D227472616E736C617465283639302E303632352C35 PUSH2 0x2FD DUP3 ADD MSTORE PUSH11 0x181B971C18991A9491179F PUSH1 0xA9 SHL PUSH2 0x31D DUP3 ADD MSTORE PUSH32 0x3C7061746820643D224D3020302043302E363231333238313220302E34393131 PUSH2 0x328 DUP3 ADD MSTORE PUSH32 0x3332383120312E323432363536323520302E393832323635363220312E383832 PUSH2 0x348 DUP3 ADD MSTORE PUSH32 0x3831323520312E34383832383132352043382E393637383536353520362E3530 PUSH2 0x368 DUP3 ADD MSTORE PUSH32 0x3538343635382031372E353838313538363920392E3130343738333838203235 PUSH2 0x388 DUP3 ADD MSTORE PUSH32 0x2E38313634303632352031312E36373936383735222066696C6C3D2223434633 PUSH2 0x3A8 DUP3 ADD MSTORE PUSH32 0x33433022207472616E73666F726D3D227472616E736C617465283430372E3939 PUSH2 0x3C8 DUP3 ADD MSTORE PUSH22 0x19189C1B9A961B9A9997189C9C99189C1B9A9491179F PUSH1 0x51 SHL PUSH2 0x3E8 DUP3 ADD MSTORE PUSH2 0x3DE DUP2 MSTORE SWAP2 PUSH1 0x1 PUSH1 0x1 PUSH1 0x40 SHL SUB PUSH2 0x400 DUP5 ADD SWAP1 DUP2 GT SWAP1 DUP5 GT OR PUSH2 0x1ACB JUMPI DUP3 SWAP1 PUSH2 0x400 DUP3 ADD PUSH1 0x40 MSTORE PUSH2 0x420 DUP3 ADD PUSH2 0x3C67 PUSH1 0xF0 SHL SWAP1 MSTORE DUP1 MLOAD PUSH2 0x422 SWAP2 DUP2 DUP4 DUP6 ADD SWAP2 PUSH1 0x20 ADD SWAP2 PUSH2 0xB30 SWAP3 PUSH2 0x36D7 JUMP JUMPDEST PUSH1 0x1F PUSH1 0xF9 SHL SWAP1 DUP4 ADD SWAP2 DUP3 ADD MSTORE DUP2 MLOAD PUSH2 0x423 SWAP2 PUSH2 0xB52 DUP3 DUP5 DUP4 ADD PUSH1 0x20 DUP8 ADD PUSH2 0x36D7 JUMP JUMPDEST ADD SWAP1 DUP2 ADD PUSH4 0x1E17B39F PUSH1 0xE1 SHL SWAP1 MSTORE SUB PUSH1 0x7 DUP2 ADD PUSH2 0x400 DUP5 ADD MSTORE PUSH1 0x27 ADD PUSH2 0x400 DUP4 ADD SWAP1 PUSH2 0xB7D SWAP2 PUSH2 0x38BD JUMP JUMPDEST PUSH2 0xB86 DUP4 PUSH2 0x4EDD JUMP JUMPDEST SWAP3 PUSH2 0xB90 DUP2 PUSH2 0x53B9 JUMP JUMPDEST DUP2 MLOAD PUSH1 0x60 DUP4 ADD MLOAD PUSH2 0xBA0 SWAP1 PUSH2 0x43A1 JUMP JUMPDEST SWAP3 PUSH1 0x20 DUP2 ADD MLOAD PUSH2 0xBAF SWAP1 PUSH2 0x5724 JUMP JUMPDEST SWAP1 PUSH1 0x40 DUP2 ADD MLOAD PUSH2 0xBBE SWAP1 PUSH2 0x577D JUMP JUMPDEST PUSH1 0x80 DUP3 ADD MLOAD PUSH2 0xBCC SWAP1 PUSH2 0x43A1 JUMP JUMPDEST PUSH1 0xA0 DUP4 ADD MLOAD PUSH2 0xBDA SWAP1 PUSH2 0x43A1 JUMP JUMPDEST PUSH1 0xC0 DUP5 ADD MLOAD PUSH2 0xBE8 SWAP1 PUSH2 0x43A1 JUMP JUMPDEST PUSH1 0xE0 DUP6 ADD MLOAD PUSH2 0xBF6 SWAP1 PUSH2 0x43A1 JUMP JUMPDEST SWAP2 PUSH2 0x100 DUP7 ADD MLOAD PUSH2 0xC06 SWAP1 PUSH2 0x43A1 JUMP JUMPDEST SWAP4 PUSH2 0x120 DUP8 ADD MLOAD PUSH2 0xC16 SWAP1 PUSH2 0x43A1 JUMP JUMPDEST SWAP6 PUSH2 0x160 DUP9 ADD MLOAD PUSH2 0xC26 SWAP1 PUSH2 0x43A1 JUMP JUMPDEST SWAP8 PUSH2 0x180 ADD MLOAD PUSH2 0xC35 SWAP1 PUSH2 0x43A1 JUMP JUMPDEST SWAP9 PUSH1 0x40 MLOAD SWAP13 DUP14 DUP1 SWAP13 PUSH1 0x20 DUP3 ADD PUSH32 0x3C7265637420783D2232302220793D22383530222077696474683D2239383422 SWAP1 MSTORE PUSH1 0x40 DUP3 ADD PUSH32 0x206865696768743D22313530222066696C6C3D2223304531303046222066696C SWAP1 MSTORE PUSH1 0x60 DUP3 ADD PUSH32 0x6C2D6F7061636974793D22302E39222072783D223130222F3E00000000000000 SWAP1 MSTORE PUSH1 0x79 DUP3 ADD PUSH32 0x3C7465787420783D2234302220793D22383930222066696C6C3D222346464646 SWAP1 MSTORE PUSH1 0x99 DUP3 ADD PUSH32 0x46462220666F6E742D66616D696C793D22417269616C2C2073616E732D736572 SWAP1 MSTORE PUSH1 0xB9 DUP3 ADD PUSH32 0x69662220666F6E742D73697A653D2232382220666F6E742D7765696768743D22 SWAP1 MSTORE PUSH6 0x3137B632111F PUSH1 0xD1 SHL PUSH1 0xD9 DUP4 ADD MSTORE DUP1 MLOAD PUSH1 0xDF DUP2 SWAP4 ADD SWAP2 PUSH1 0x20 ADD SWAP2 PUSH2 0xD4B SWAP3 PUSH2 0x36D7 JUMP JUMPDEST DUP13 ADD PUSH1 0xDF DUP2 ADD PUSH7 0x1E17BA32BC3A1F PUSH1 0xC9 SHL SWAP1 MSTORE PUSH1 0xE6 DUP2 ADD PUSH32 0x3C7465787420783D2234302220793D22393230222066696C6C3D222338333645 SWAP1 MSTORE PUSH2 0x106 DUP2 ADD PUSH32 0x46392220666F6E742D66616D696C793D22417269616C2C2073616E732D736572 SWAP1 MSTORE PUSH2 0x126 DUP2 ADD PUSH32 0x69662220666F6E742D73697A653D223230223E4C6576656C2000000000000000 SWAP1 MSTORE DUP2 MLOAD SWAP1 PUSH2 0x13F SWAP3 DUP3 DUP5 DUP4 ADD SWAP2 PUSH1 0x20 ADD SWAP2 PUSH2 0xDEE SWAP3 PUSH2 0x36D7 JUMP JUMPDEST ADD PUSH3 0x103E1 PUSH1 0xED SHL DUP1 SWAP3 DUP3 ADD MSTORE DUP3 MLOAD SWAP1 PUSH2 0x142 SWAP4 DUP3 DUP6 DUP4 ADD SWAP2 PUSH1 0x20 ADD SWAP2 PUSH2 0xE14 SWAP3 PUSH2 0x36D7 JUMP JUMPDEST ADD SWAP2 DUP3 ADD MSTORE DUP2 MLOAD SWAP1 PUSH2 0x145 SWAP3 DUP3 DUP5 DUP4 ADD SWAP2 PUSH1 0x20 ADD SWAP2 PUSH2 0xE32 SWAP3 PUSH2 0x36D7 JUMP JUMPDEST PUSH7 0x1E17BA32BC3A1F PUSH1 0xC9 SHL SWAP2 ADD SWAP2 DUP3 ADD MSTORE PUSH32 0x3C7465787420783D2234302220793D22393530222066696C6C3D222346464646 PUSH2 0x14C DUP3 ADD MSTORE PUSH32 0x46462220666F6E742D66616D696C793D22417269616C2C2073616E732D736572 PUSH2 0x16C DUP3 ADD MSTORE PUSH22 0x34B311103337B73A16B9B4BD329E91189C111F24281D PUSH1 0x51 SHL PUSH2 0x18C DUP3 ADD MSTORE DUP2 MLOAD SWAP2 PUSH2 0x1A2 SWAP1 PUSH2 0xECA SWAP1 DUP5 SWAP1 DUP4 DUP6 ADD SWAP1 PUSH1 0x20 ADD PUSH2 0x36D7 JUMP JUMPDEST DUP3 DUP3 ADD ADD PUSH5 0x1020AA259D PUSH1 0xD9 SHL SWAP1 MSTORE DUP3 MLOAD SWAP3 DUP4 DUP4 DUP4 ADD PUSH2 0x1A7 ADD SWAP2 PUSH1 0x20 ADD SWAP2 PUSH2 0xEF2 SWAP3 PUSH2 0x36D7 JUMP JUMPDEST DUP3 DUP3 DUP3 ADD ADD PUSH2 0x1A7 ADD PUSH5 0x102222A31D PUSH1 0xD9 SHL SWAP1 MSTORE DUP4 MLOAD SWAP4 DUP5 DUP5 DUP5 DUP5 ADD ADD PUSH2 0x1AC ADD SWAP2 PUSH1 0x20 ADD SWAP2 PUSH2 0xF21 SWAP3 PUSH2 0x36D7 JUMP JUMPDEST PUSH7 0x1E17BA32BC3A1F PUSH1 0xC9 SHL DUP3 DUP3 ADD DUP5 ADD DUP6 ADD PUSH2 0x1AC DUP2 ADD SWAP2 SWAP1 SWAP2 MSTORE PUSH32 0x3C7465787420783D2234302220793D22393830222066696C6C3D222346464646 PUSH2 0x1B3 DUP3 ADD MSTORE PUSH32 0x46462220666F6E742D66616D696C793D22417269616C2C2073616E732D736572 PUSH2 0x1D3 DUP3 ADD MSTORE PUSH32 0x69662220666F6E742D73697A653D223138223E5350443A000000000000000000 PUSH2 0x1F3 DUP3 ADD MSTORE DUP6 MLOAD SWAP6 PUSH2 0xFC9 SWAP2 DUP8 SWAP2 PUSH2 0x20A SWAP1 SWAP2 ADD SWAP1 PUSH1 0x20 ADD PUSH2 0x36D7 JUMP JUMPDEST PUSH5 0x1026A0A39D PUSH1 0xD9 SHL DUP3 DUP3 ADD DUP5 ADD DUP6 ADD DUP7 ADD PUSH2 0x20A DUP2 ADD SWAP2 SWAP1 SWAP2 MSTORE DUP7 MLOAD SWAP7 PUSH2 0xFFC SWAP2 DUP9 SWAP2 PUSH2 0x20F SWAP1 SWAP2 ADD SWAP1 PUSH1 0x20 ADD PUSH2 0x36D7 JUMP JUMPDEST ADD ADD ADD ADD ADD PUSH2 0x20F DUP2 ADD PUSH5 0x102621A59D PUSH1 0xD9 SHL SWAP1 MSTORE DUP2 MLOAD SWAP2 DUP3 PUSH2 0x214 DUP4 ADD SWAP2 PUSH1 0x20 ADD SWAP2 PUSH2 0x1028 SWAP3 PUSH2 0x36D7 JUMP JUMPDEST ADD PUSH2 0x214 DUP2 ADD PUSH7 0x1E17BA32BC3A1F PUSH1 0xC9 SHL SWAP1 MSTORE PUSH2 0x21B DUP2 ADD PUSH32 0x3C7465787420783D223730302220793D22393530222066696C6C3D2223413030 SWAP1 MSTORE PUSH32 0x3535442220666F6E742D66616D696C793D22417269616C2C2073616E732D7365 SWAP1 DUP2 PUSH2 0x23B DUP3 ADD MSTORE PUSH2 0x25B DUP2 ADD PUSH32 0x7269662220666F6E742D73697A653D223138223E57696E733A20000000000000 SWAP1 MSTORE DUP3 MLOAD SWAP1 PUSH2 0x275 SWAP4 DUP3 DUP6 DUP4 ADD SWAP2 PUSH1 0x20 ADD SWAP2 PUSH2 0x10CD SWAP3 PUSH2 0x36D7 JUMP JUMPDEST ADD SWAP2 DUP3 ADD PUSH7 0x1E17BA32BC3A1F PUSH1 0xC9 SHL SWAP1 MSTORE PUSH2 0x27C DUP3 ADD PUSH32 0x3C7465787420783D223730302220793D22393830222066696C6C3D2223413030 SWAP1 MSTORE PUSH2 0x29C DUP3 ADD MSTORE PUSH2 0x2BC DUP2 ADD PUSH32 0x7269662220666F6E742D73697A653D223138223E4C6F737365733A2000000000 SWAP1 MSTORE DUP2 MLOAD SWAP1 PUSH2 0x2D8 SWAP3 DUP3 DUP5 DUP4 ADD SWAP2 PUSH1 0x20 ADD SWAP2 PUSH2 0x114D SWAP3 PUSH2 0x36D7 JUMP JUMPDEST ADD SWAP1 DUP2 ADD PUSH7 0x1E17BA32BC3A1F PUSH1 0xC9 SHL SWAP1 MSTORE DUP2 DUP2 SUB PUSH2 0x2BF ADD DUP3 MSTORE SUB PUSH2 0x2DF ADD PUSH2 0x1176 SWAP1 DUP4 PUSH2 0x38BD JUMP JUMPDEST PUSH1 0x40 MLOAD SWAP5 DUP6 SWAP5 PUSH1 0x20 DUP7 ADD PUSH32 0x3C7376672077696474683D223130323422206865696768743D22313032342220 SWAP1 MSTORE PUSH1 0x40 DUP7 ADD PUSH32 0x786D6C6E733D22687474703A2F2F7777772E77332E6F72672F323030302F7376 SWAP1 MSTORE PUSH3 0x33911F PUSH1 0xE9 SHL PUSH1 0x60 DUP8 ADD MSTORE DUP5 MLOAD PUSH1 0x63 SWAP6 DUP2 DUP8 DUP10 ADD SWAP2 PUSH1 0x20 ADD SWAP2 PUSH2 0x11ED SWAP3 PUSH2 0x36D7 JUMP JUMPDEST DUP7 ADD PUSH2 0x400 DUP3 ADD MLOAD SWAP2 DUP3 DUP8 DUP4 ADD SWAP2 PUSH2 0x420 ADD SWAP2 PUSH2 0x1209 SWAP3 PUSH2 0x36D7 JUMP JUMPDEST ADD DUP2 MLOAD SWAP2 DUP3 DUP7 DUP4 ADD SWAP2 PUSH1 0x20 ADD SWAP2 PUSH2 0x121F SWAP3 PUSH2 0x36D7 JUMP JUMPDEST ADD DUP2 MLOAD SWAP2 DUP3 DUP6 DUP4 ADD SWAP2 PUSH1 0x20 ADD SWAP2 PUSH2 0x1235 SWAP3 PUSH2 0x36D7 JUMP JUMPDEST ADD DUP2 MLOAD SWAP2 DUP3 DUP5 DUP4 ADD SWAP2 PUSH1 0x20 ADD SWAP2 PUSH2 0x124B SWAP3 PUSH2 0x36D7 JUMP JUMPDEST ADD SWAP1 DUP2 ADD PUSH6 0x1E17B9BB339F PUSH1 0xD1 SHL SWAP1 MSTORE SUB PUSH1 0x49 DUP2 ADD DUP3 MSTORE PUSH1 0x69 ADD PUSH2 0x126F SWAP1 DUP3 PUSH2 0x38BD JUMP JUMPDEST DUP2 MLOAD PUSH1 0xC0 MSTORE PUSH2 0x127D SWAP1 PUSH2 0x452F JUMP JUMPDEST PUSH1 0xE0 MSTORE PUSH2 0x128B PUSH1 0x4 CALLDATALOAD PUSH2 0x43A1 JUMP JUMPDEST SWAP1 PUSH1 0x20 DUP2 ADD MLOAD PUSH1 0x5 DUP2 LT ISZERO PUSH2 0x1AB5 JUMPI PUSH2 0x12ED SWAP1 PUSH1 0x40 MLOAD PUSH2 0x12AA DUP2 PUSH2 0x37FE JUMP JUMPDEST PUSH2 0x12B2 PUSH2 0x4227 JUMP JUMPDEST DUP2 MSTORE PUSH2 0x12BC PUSH2 0x424A JUMP JUMPDEST PUSH1 0x20 DUP3 ADD MSTORE PUSH2 0x12C9 PUSH2 0x426E JUMP JUMPDEST PUSH1 0x40 DUP3 ADD MSTORE PUSH2 0x12D6 PUSH2 0x428E JUMP JUMPDEST PUSH1 0x60 DUP3 ADD MSTORE PUSH2 0x12E3 PUSH2 0x42B3 JUMP JUMPDEST PUSH1 0x80 DUP3 ADD MSTORE PUSH2 0x435E JUMP JUMPDEST MLOAD SWAP2 PUSH1 0x40 DUP3 ADD MLOAD SWAP2 PUSH1 0x6 DUP4 LT ISZERO PUSH2 0x1AB5 JUMPI PUSH2 0x1A18 SWAP4 PUSH2 0x1365 PUSH2 0x303 SWAP5 PUSH1 0x40 MLOAD PUSH2 0x1315 DUP2 PUSH2 0x37E3 JUMP JUMPDEST PUSH2 0x131D PUSH2 0x46F3 JUMP JUMPDEST DUP2 MSTORE PUSH2 0x1327 PUSH2 0x4715 JUMP JUMPDEST PUSH1 0x20 DUP3 ADD MSTORE PUSH2 0x1334 PUSH2 0x42D7 JUMP JUMPDEST PUSH1 0x40 DUP3 ADD MSTORE PUSH2 0x1341 PUSH2 0x42F7 JUMP JUMPDEST PUSH1 0x60 DUP3 ADD MSTORE PUSH2 0x134E PUSH2 0x4317 JUMP JUMPDEST PUSH1 0x80 DUP3 ADD MSTORE PUSH2 0x135B PUSH2 0x433C JUMP JUMPDEST PUSH1 0xA0 DUP3 ADD MSTORE PUSH2 0x4216 JUMP JUMPDEST MLOAD SWAP1 PUSH2 0x1374 PUSH1 0x80 DUP5 ADD MLOAD PUSH2 0x43A1 JUMP JUMPDEST PUSH2 0x1382 PUSH1 0x60 DUP6 ADD MLOAD MLOAD PUSH2 0x43A1 JUMP JUMPDEST PUSH2 0x1393 PUSH1 0x20 PUSH1 0x60 DUP8 ADD MLOAD ADD MLOAD PUSH2 0x43A1 JUMP JUMPDEST PUSH1 0x80 MSTORE PUSH2 0x13A7 PUSH1 0x40 PUSH1 0x60 DUP8 ADD MLOAD ADD MLOAD PUSH2 0x43A1 JUMP JUMPDEST SWAP3 PUSH2 0x13B8 PUSH1 0x60 DUP1 DUP9 ADD MLOAD ADD MLOAD PUSH2 0x43A1 JUMP JUMPDEST SWAP1 PUSH2 0x13CA PUSH1 0x80 PUSH1 0x60 DUP10 ADD MLOAD ADD MLOAD PUSH2 0x43A1 JUMP JUMPDEST SWAP2 PUSH2 0x13DC PUSH1 0xA0 PUSH1 0x60 DUP11 ADD MLOAD ADD MLOAD PUSH2 0x43A1 JUMP JUMPDEST SWAP1 PUSH2 0x140 DUP10 ADD MLOAD SWAP4 PUSH2 0x13F1 PUSH1 0xC0 DUP12 ADD MLOAD PUSH2 0x43A1 JUMP JUMPDEST SWAP7 PUSH2 0x13FF PUSH1 0xE0 DUP13 ADD MLOAD PUSH2 0x43A1 JUMP JUMPDEST SWAP10 PUSH2 0x100 PUSH2 0x1417 DUP14 PUSH1 0xE0 PUSH1 0xC0 DUP3 ADD MLOAD SWAP2 ADD MLOAD SWAP1 PUSH2 0x4683 JUMP JUMPDEST SWAP13 ADD MLOAD ISZERO PUSH2 0x1A91 JUMPI PUSH1 0x40 MLOAD PUSH2 0x142B DUP2 PUSH2 0x3835 JUMP JUMPDEST PUSH1 0x2 DUP2 MSTORE PUSH2 0x4B4F PUSH1 0xF0 SHL PUSH1 0x20 DUP3 ADD MSTORE SWAP13 JUMPDEST PUSH1 0x40 MLOAD DUP1 PUSH1 0xA0 MSTORE PUSH1 0x20 PUSH9 0x3D913730B6B2911D11 PUSH1 0xB9 SHL SWAP2 ADD MSTORE PUSH1 0xC0 MLOAD PUSH2 0x146E DUP2 MLOAD DUP1 SWAP3 PUSH1 0x20 PUSH1 0x29 PUSH1 0xA0 MLOAD ADD SWAP2 ADD PUSH2 0x36D7 JUMP JUMPDEST PUSH1 0xA0 MLOAD ADD PUSH2 0x88B PUSH1 0xF2 SHL SWAP1 DUP2 PUSH1 0x29 DUP3 ADD MSTORE PUSH32 0x226465736372697074696F6E223A224120756E69717565204D6F6E616E696D61 PUSH1 0x2B DUP3 ADD MSTORE PUSH32 0x6C206669676874657220696E2074686520427261776C4E61647320626174746C PUSH1 0x4B DUP3 ADD MSTORE PUSH32 0x6520726F79616C652E20496E73706972656420627920746865204D6F6E616420 PUSH1 0x6B DUP3 ADD MSTORE PUSH32 0x626C6F636B636861696E2065636F73797374656D20776974682066756C6C7920 PUSH1 0x8B DUP3 ADD MSTORE PUSH18 0x1BDB98DA185A5B8814D591C8185C9D0B888B PUSH1 0x72 SHL PUSH1 0xAB DUP3 ADD MSTORE PUSH32 0x22696D616765223A22646174613A696D6167652F7376672B786D6C3B62617365 PUSH1 0xBD DUP3 ADD MSTORE PUSH3 0xD8D0B PUSH1 0xEA SHL PUSH1 0xDD DUP3 ADD MSTORE PUSH1 0xE0 MLOAD SWAP1 PUSH2 0x157C DUP3 MLOAD DUP1 SWAP4 PUSH1 0x20 PUSH1 0xE0 DUP6 ADD SWAP2 ADD PUSH2 0x36D7 JUMP JUMPDEST ADD DUP2 PUSH1 0xE0 DUP3 ADD MSTORE PUSH32 0x2265787465726E616C5F75726C223A2268747470733A2F2F627261776C6E6164 PUSH1 0xE2 DUP3 ADD MSTORE PUSH22 0x732E6D6F6E61642E78797A2F6D6F6E616E696D616C2F PUSH1 0x50 SHL PUSH2 0x102 DUP3 ADD MSTORE DUP3 MLOAD SWAP1 PUSH2 0x15E0 DUP3 PUSH2 0x118 SWAP6 PUSH1 0x20 DUP8 DUP6 ADD SWAP2 ADD PUSH2 0x36D7 JUMP JUMPDEST ADD SWAP2 DUP3 ADD MSTORE PUSH14 0x2261747472696275746573223A5B PUSH1 0x90 SHL PUSH2 0x11A DUP3 ADD MSTORE PUSH32 0x7B2274726169745F74797065223A22436C617373222C2276616C7565223A2200 PUSH2 0x128 DUP3 ADD MSTORE DUP7 MLOAD SWAP1 PUSH2 0x163B DUP3 PUSH2 0x147 SWAP10 PUSH1 0x20 DUP12 DUP6 ADD SWAP2 ADD PUSH2 0x36D7 JUMP JUMPDEST ADD SWAP6 PUSH3 0x89F4B PUSH1 0xEA SHL SWAP7 DUP8 DUP1 SWAP3 DUP3 ADD MSTORE PUSH32 0x7B2274726169745F74797065223A22526172697479222C2276616C7565223A22 PUSH2 0x14A DUP3 ADD MSTORE DUP3 MLOAD SWAP1 PUSH2 0x1689 DUP3 PUSH2 0x16A SWAP6 PUSH1 0x20 DUP8 DUP6 ADD SWAP2 ADD PUSH2 0x36D7 JUMP JUMPDEST ADD SWAP2 DUP3 ADD MSTORE PUSH32 0x7B2274726169745F74797065223A224C6576656C222C2276616C7565223A0000 PUSH2 0x16D DUP3 ADD MSTORE DUP2 MLOAD SWAP1 PUSH2 0x16CC DUP3 PUSH2 0x18B SWAP5 PUSH1 0x20 DUP7 DUP6 ADD SWAP2 ADD PUSH2 0x36D7 JUMP JUMPDEST ADD SWAP3 PUSH2 0x1F4B PUSH1 0xF2 SHL SWAP10 DUP11 DUP1 SWAP10 DUP7 DUP3 DUP1 SWAP9 SWAP7 DUP2 SWAP8 ADD MSTORE PUSH32 0x7B2274726169745F74797065223A224865616C7468222C2276616C7565223A00 PUSH2 0x18D DUP3 ADD MSTORE PUSH2 0x171D DUP3 MLOAD DUP1 SWAP4 PUSH1 0x20 PUSH2 0x1AC DUP6 ADD SWAP2 ADD PUSH2 0x36D7 JUMP JUMPDEST ADD DUP2 PUSH2 0x1AC DUP3 ADD MSTORE PUSH32 0x7B2274726169745F74797065223A2241747461636B222C2276616C7565223A00 PUSH2 0x1AE DUP3 ADD MSTORE DUP2 PUSH1 0x80 MLOAD SWAP2 DUP3 MLOAD SWAP1 PUSH2 0x1768 DUP3 PUSH2 0x1CD SWAP6 PUSH1 0x20 DUP8 DUP6 ADD SWAP2 ADD PUSH2 0x36D7 JUMP JUMPDEST ADD SWAP2 DUP3 ADD MSTORE PUSH32 0x7B2274726169745F74797065223A22446566656E7365222C2276616C7565223A PUSH2 0x1CF DUP3 ADD MSTORE DUP3 MLOAD SWAP1 PUSH2 0x17AB DUP3 PUSH2 0x1EF SWAP6 PUSH1 0x20 DUP8 DUP6 ADD SWAP2 ADD PUSH2 0x36D7 JUMP JUMPDEST ADD SWAP2 DUP3 ADD MSTORE PUSH32 0x7B2274726169745F74797065223A225370656564222C2276616C7565223A0000 PUSH2 0x1F1 DUP3 ADD MSTORE PUSH2 0x17EC DUP3 MLOAD DUP1 SWAP4 PUSH1 0x20 PUSH2 0x20F DUP6 ADD SWAP2 ADD PUSH2 0x36D7 JUMP JUMPDEST ADD DUP2 PUSH2 0x20F DUP3 ADD MSTORE PUSH32 0x7B2274726169745F74797065223A224D61676963222C2276616C7565223A0000 PUSH2 0x211 DUP3 ADD MSTORE DUP3 MLOAD SWAP1 PUSH2 0x1832 DUP3 PUSH2 0x22F SWAP6 PUSH1 0x20 DUP8 DUP6 ADD SWAP2 ADD PUSH2 0x36D7 JUMP JUMPDEST ADD SWAP2 DUP3 ADD MSTORE PUSH32 0x7B2274726169745F74797065223A224C75636B222C2276616C7565223A000000 PUSH2 0x231 DUP3 ADD MSTORE DUP3 MLOAD SWAP1 PUSH2 0x1875 DUP3 PUSH2 0x24E SWAP6 PUSH1 0x20 DUP8 DUP6 ADD SWAP2 ADD PUSH2 0x36D7 JUMP JUMPDEST ADD SWAP2 DUP3 ADD MSTORE PUSH32 0x7B2274726169745F74797065223A22436F6C6F7220536368656D65222C227661 PUSH2 0x250 DUP3 ADD MSTORE PUSH6 0x363AB2911D11 PUSH1 0xD1 SHL PUSH2 0x270 DUP3 ADD MSTORE DUP3 MLOAD SWAP1 PUSH2 0x18C8 DUP3 PUSH2 0x276 SWAP6 PUSH1 0x20 DUP8 DUP6 ADD SWAP2 ADD PUSH2 0x36D7 JUMP JUMPDEST ADD SWAP2 DUP3 ADD MSTORE PUSH32 0x7B2274726169745F74797065223A2257696E73222C2276616C7565223A000000 PUSH2 0x279 DUP3 ADD MSTORE DUP3 MLOAD SWAP1 PUSH2 0x190B DUP3 PUSH2 0x296 SWAP6 PUSH1 0x20 DUP8 DUP6 ADD SWAP2 ADD PUSH2 0x36D7 JUMP JUMPDEST ADD SWAP2 DUP3 ADD MSTORE PUSH32 0x7B2274726169745F74797065223A224C6F73736573222C2276616C7565223A00 PUSH2 0x298 DUP3 ADD MSTORE DUP3 MLOAD SWAP1 PUSH2 0x194E DUP3 PUSH2 0x2B7 SWAP6 PUSH1 0x20 DUP8 DUP6 ADD SWAP2 ADD PUSH2 0x36D7 JUMP JUMPDEST ADD SWAP2 DUP3 ADD MSTORE PUSH32 0x7B2274726169745F74797065223A2257696E2052617465222C2276616C756522 PUSH2 0x2B9 DUP3 ADD MSTORE PUSH2 0x1D11 PUSH1 0xF1 SHL PUSH2 0x2D9 DUP3 ADD MSTORE DUP2 MLOAD SWAP1 PUSH2 0x199D DUP3 PUSH2 0x2DB SWAP5 PUSH1 0x20 DUP7 DUP6 ADD SWAP2 ADD PUSH2 0x36D7 JUMP JUMPDEST ADD SWAP1 PUSH4 0x9489F4B PUSH1 0xE2 SHL SWAP1 DUP3 ADD MSTORE PUSH32 0x7B2274726169745F74797065223A22537461747573222C2276616C7565223A22 PUSH2 0x2DF DUP3 ADD MSTORE DUP2 MLOAD SWAP1 PUSH2 0x19E9 DUP3 PUSH2 0x2FF SWAP5 PUSH1 0x20 DUP7 DUP6 ADD SWAP2 ADD PUSH2 0x36D7 JUMP JUMPDEST ADD SWAP1 PUSH2 0x227D PUSH1 0xF0 SHL SWAP1 DUP3 ADD MSTORE PUSH2 0x5D7D PUSH1 0xF0 SHL PUSH2 0x301 DUP3 ADD MSTORE PUSH1 0xA0 MLOAD DUP1 SWAP2 SUB SWAP1 PUSH2 0x2E3 DUP3 ADD SWAP1 MSTORE ADD PUSH1 0xA0 MLOAD PUSH2 0x38BD JUMP JUMPDEST PUSH2 0x1A8D PUSH2 0x1A26 PUSH1 0xA0 MLOAD PUSH2 0x452F JUMP JUMPDEST PUSH2 0x1A79 PUSH1 0x3D PUSH1 0x40 MLOAD DUP1 SWAP4 PUSH32 0x646174613A6170706C69636174696F6E2F6A736F6E3B6261736536342C000000 PUSH1 0x20 DUP4 ADD MSTORE PUSH2 0x1A69 DUP2 MLOAD DUP1 SWAP3 PUSH1 0x20 DUP7 DUP7 ADD SWAP2 ADD PUSH2 0x36D7 JUMP JUMPDEST DUP2 ADD SUB PUSH1 0x1D DUP2 ADD DUP5 MSTORE ADD DUP3 PUSH2 0x38BD JUMP JUMPDEST PUSH1 0x40 MLOAD SWAP2 DUP3 SWAP2 PUSH1 0x20 DUP4 MSTORE PUSH1 0x20 DUP4 ADD SWAP1 PUSH2 0x36FA JUMP JUMPDEST SUB SWAP1 RETURN JUMPDEST PUSH1 0x40 MLOAD PUSH2 0x1A9D DUP2 PUSH2 0x3835 JUMP JUMPDEST PUSH1 0x5 DUP2 MSTORE PUSH5 0x5265616479 PUSH1 0xD8 SHL PUSH1 0x20 DUP3 ADD MSTORE SWAP13 PUSH2 0x143C JUMP JUMPDEST PUSH4 0x4E487B71 PUSH1 0xE0 SHL PUSH1 0x0 MSTORE PUSH1 0x21 PUSH1 0x4 MSTORE PUSH1 0x24 PUSH1 0x0 REVERT JUMPDEST PUSH4 0x4E487B71 PUSH1 0xE0 SHL PUSH1 0x0 MSTORE PUSH1 0x41 PUSH1 0x4 MSTORE PUSH1 0x24 PUSH1 0x0 REVERT JUMPDEST PUSH1 0x40 MLOAD PUSH2 0x1AED DUP2 PUSH2 0x3835 JUMP JUMPDEST PUSH1 0x1B DUP2 MSTORE PUSH32 0x2066696C7465723D2275726C2823636C61737346696C74657229220000000000 PUSH1 0x20 DUP3 ADD MSTORE SWAP1 PUSH2 0x613 JUMP JUMPDEST PUSH1 0x40 MLOAD PUSH3 0x461BCD PUSH1 0xE5 SHL DUP2 MSTORE PUSH1 0x20 PUSH1 0x4 DUP3 ADD MSTORE PUSH1 0x14 PUSH1 0x24 DUP3 ADD MSTORE PUSH20 0x151BDAD95B88191BD95CC81B9BDD08195E1A5CDD PUSH1 0x62 SHL PUSH1 0x44 DUP3 ADD MSTORE PUSH1 0x64 SWAP1 REVERT JUMPDEST CALLVALUE PUSH2 0x1AC JUMPI PUSH1 0x80 CALLDATASIZE PUSH1 0x3 NOT ADD SLT PUSH2 0x1AC JUMPI PUSH2 0x1B72 PUSH2 0x371F JUMP JUMPDEST PUSH2 0x1B7A PUSH2 0x3735 JUMP JUMPDEST SWAP1 PUSH1 0x64 CALLDATALOAD SWAP1 PUSH1 0x44 CALLDATALOAD PUSH1 0x1 PUSH1 0x1 PUSH1 0x40 SHL SUB DUP4 GT PUSH2 0x1AC JUMPI CALLDATASIZE PUSH1 0x23 DUP5 ADD SLT ISZERO PUSH2 0x1AC JUMPI DUP3 PUSH1 0x4 ADD CALLDATALOAD SWAP4 PUSH2 0x1BAA DUP6 PUSH2 0x39F8 JUMP JUMPDEST SWAP3 PUSH2 0x1BB8 PUSH1 0x40 MLOAD SWAP5 DUP6 PUSH2 0x38BD JUMP JUMPDEST DUP6 DUP5 MSTORE CALLDATASIZE PUSH1 0x24 DUP8 DUP8 ADD ADD GT PUSH2 0x1AC JUMPI PUSH1 0x0 PUSH1 0x20 DUP8 PUSH2 0x1C06 SWAP9 PUSH1 0x24 PUSH2 0x1C01 SWAP10 ADD DUP4 DUP10 ADD CALLDATACOPY DUP7 ADD ADD MSTORE PUSH2 0x1BF1 PUSH2 0x1BEC DUP5 CALLER PUSH2 0x3C6B JUMP JUMPDEST PUSH2 0x3B92 JUMP JUMPDEST PUSH2 0x1BFC DUP4 DUP4 DUP4 PUSH2 0x3D33 JUMP JUMPDEST PUSH2 0x4061 JUMP JUMPDEST PUSH2 0x3C47 JUMP JUMPDEST STOP JUMPDEST CALLVALUE PUSH2 0x1AC JUMPI PUSH1 0x40 CALLDATASIZE PUSH1 0x3 NOT ADD SLT PUSH2 0x1AC JUMPI PUSH2 0x1C21 PUSH2 0x371F JUMP JUMPDEST PUSH1 0x1 PUSH1 0x1 PUSH1 0xA0 SHL SUB AND PUSH1 0x0 SWAP1 DUP2 MSTORE PUSH1 0xD PUSH1 0x20 MSTORE PUSH1 0x40 SWAP1 KECCAK256 DUP1 SLOAD PUSH1 0x24 CALLDATALOAD SWAP2 SWAP1 DUP3 LT ISZERO PUSH2 0x1AC JUMPI PUSH1 0x20 SWAP2 PUSH2 0x1C52 SWAP2 PUSH2 0x39CA JUMP JUMPDEST SWAP1 SLOAD PUSH1 0x40 MLOAD SWAP2 PUSH1 0x3 SHL SHR DUP2 MSTORE RETURN JUMPDEST CALLVALUE PUSH2 0x1AC JUMPI PUSH1 0x40 CALLDATASIZE PUSH1 0x3 NOT ADD SLT PUSH2 0x1AC JUMPI PUSH2 0x1C79 PUSH2 0x371F JUMP JUMPDEST PUSH2 0x1C81 PUSH2 0x379A JUMP JUMPDEST PUSH1 0x1 PUSH1 0x1 PUSH1 0xA0 SHL SUB SWAP1 SWAP2 AND SWAP1 CALLER DUP3 EQ PUSH2 0x1CF3 JUMPI CALLER PUSH1 0x0 MSTORE PUSH1 0x5 PUSH1 0x20 MSTORE PUSH1 0x40 PUSH1 0x0 KECCAK256 DUP3 PUSH1 0x0 MSTORE PUSH1 0x20 MSTORE PUSH2 0x1CC3 DUP2 PUSH1 0x40 PUSH1 0x0 KECCAK256 SWAP1 PUSH1 0xFF DUP1 NOT DUP4 SLOAD AND SWAP2 ISZERO ISZERO AND OR SWAP1 SSTORE JUMP JUMPDEST PUSH1 0x40 MLOAD SWAP1 ISZERO ISZERO DUP2 MSTORE PUSH32 0x17307EAB39AB6107E8899845AD3D59BD9653F200F220920489CA2B5937696C31 PUSH1 0x20 CALLER SWAP3 LOG3 STOP JUMPDEST PUSH1 0x40 MLOAD PUSH3 0x461BCD PUSH1 0xE5 SHL DUP2 MSTORE PUSH1 0x20 PUSH1 0x4 DUP3 ADD MSTORE PUSH1 0x19 PUSH1 0x24 DUP3 ADD MSTORE PUSH32 0x4552433732313A20617070726F766520746F2063616C6C657200000000000000 PUSH1 0x44 DUP3 ADD MSTORE PUSH1 0x64 SWAP1 REVERT JUMPDEST CALLVALUE PUSH2 0x1AC JUMPI PUSH1 0x0 CALLDATASIZE PUSH1 0x3 NOT ADD SLT PUSH2 0x1AC JUMPI PUSH1 0x20 PUSH1 0xF SLOAD PUSH1 0x40 MLOAD SWAP1 DUP2 MSTORE RETURN JUMPDEST CALLVALUE PUSH2 0x1AC JUMPI PUSH1 0x0 CALLDATASIZE PUSH1 0x3 NOT ADD SLT PUSH2 0x1AC JUMPI PUSH1 0x40 MLOAD PUSH1 0x0 PUSH1 0x1 DUP1 SLOAD SWAP1 PUSH2 0x1D7A DUP3 PUSH2 0x37A9 JUMP JUMPDEST DUP1 DUP6 MSTORE SWAP2 DUP2 DUP2 AND SWAP1 DUP2 ISZERO PUSH2 0x1DFA JUMPI POP PUSH1 0x1 EQ PUSH2 0x1DA1 JUMPI JUMPDEST PUSH2 0x1A8D DUP5 PUSH2 0x1A79 DUP2 DUP7 SUB DUP3 PUSH2 0x38BD JUMP JUMPDEST PUSH1 0x0 DUP2 DUP2 MSTORE SWAP3 POP PUSH32 0xB10E2D527612073B26EECDFD717E6A320CF44B4AFAC2B0732D9FCBE2B7FA0CF6 JUMPDEST DUP3 DUP5 LT PUSH2 0x1DE2 JUMPI POP POP POP DUP2 ADD PUSH1 0x20 ADD PUSH2 0x1A79 DUP3 PUSH2 0x1D91 JUMP JUMPDEST DUP1 SLOAD PUSH1 0x20 DUP6 DUP8 ADD DUP2 ADD SWAP2 SWAP1 SWAP2 MSTORE SWAP1 SWAP4 ADD SWAP3 DUP2 ADD PUSH2 0x1DCA JUMP JUMPDEST PUSH1 0xFF NOT AND PUSH1 0x20 DUP1 DUP8 ADD SWAP2 SWAP1 SWAP2 MSTORE SWAP3 ISZERO ISZERO PUSH1 0x5 SHL DUP6 ADD SWAP1 SWAP3 ADD SWAP3 POP PUSH2 0x1A79 SWAP2 POP DUP4 SWAP1 POP PUSH2 0x1D91 JUMP JUMPDEST CALLVALUE PUSH2 0x1AC JUMPI PUSH1 0x0 CALLDATASIZE PUSH1 0x3 NOT ADD SLT PUSH2 0x1AC JUMPI PUSH1 0xA SLOAD PUSH1 0x40 MLOAD PUSH1 0x1 PUSH1 0x1 PUSH1 0xA0 SHL SUB SWAP1 SWAP2 AND DUP2 MSTORE PUSH1 0x20 SWAP1 RETURN JUMPDEST CALLVALUE PUSH2 0x1AC JUMPI PUSH1 0x20 CALLDATASIZE PUSH1 0x3 NOT ADD SLT PUSH2 0x1AC JUMPI PUSH2 0x1E63 PUSH2 0x3A13 JUMP JUMPDEST PUSH1 0x4 CALLDATALOAD PUSH1 0xF SSTORE STOP JUMPDEST CALLVALUE PUSH2 0x1AC JUMPI PUSH1 0x0 CALLDATASIZE PUSH1 0x3 NOT ADD SLT PUSH2 0x1AC JUMPI PUSH2 0x1E84 PUSH2 0x3A13 JUMP JUMPDEST PUSH1 0xA DUP1 SLOAD PUSH1 0x1 PUSH1 0x1 PUSH1 0xA0 SHL SUB NOT DUP2 AND SWAP1 SWAP2 SSTORE PUSH1 0x0 SWAP1 PUSH1 0x1 PUSH1 0x1 PUSH1 0xA0 SHL SUB AND PUSH32 0x8BE0079C531659141344CD1FD0A4F28419497F9722A3DAAFE3B4186F6B6457E0 DUP3 DUP1 LOG3 STOP JUMPDEST CALLVALUE PUSH2 0x1AC JUMPI PUSH1 0x20 CALLDATASIZE PUSH1 0x3 NOT ADD SLT PUSH2 0x1AC JUMPI PUSH1 0x20 PUSH2 0x1EEB PUSH2 0x1EE6 PUSH2 0x371F JUMP JUMPDEST PUSH2 0x3A6B JUMP JUMPDEST PUSH1 0x40 MLOAD SWAP1 DUP2 MSTORE RETURN JUMPDEST CALLVALUE PUSH2 0x1AC JUMPI PUSH1 0x0 CALLDATASIZE PUSH1 0x3 NOT ADD SLT PUSH2 0x1AC JUMPI PUSH1 0x20 PUSH1 0xE SLOAD PUSH1 0x40 MLOAD SWAP1 DUP2 MSTORE RETURN JUMPDEST CALLVALUE PUSH2 0x1AC JUMPI PUSH1 0x20 CALLDATASIZE PUSH1 0x3 NOT ADD SLT PUSH2 0x1AC JUMPI PUSH1 0x20 PUSH2 0x1F2F PUSH1 0x4 CALLDATALOAD PUSH2 0x3B2E JUMP JUMPDEST PUSH1 0x40 MLOAD PUSH1 0x1 PUSH1 0x1 PUSH1 0xA0 SHL SUB SWAP1 SWAP2 AND DUP2 MSTORE RETURN JUMPDEST CALLVALUE PUSH2 0x1AC JUMPI PUSH1 0x20 CALLDATASIZE PUSH1 0x3 NOT ADD SLT PUSH2 0x1AC JUMPI PUSH1 0x4 CALLDATALOAD PUSH1 0x0 MSTORE PUSH1 0xC PUSH1 0x20 MSTORE PUSH1 0x40 PUSH1 0x0 KECCAK256 PUSH2 0x1F6B DUP2 PUSH2 0x38DE JUMP JUMPDEST PUSH1 0x1 DUP3 ADD SLOAD SWAP2 PUSH2 0x1F7D PUSH1 0x2 DUP3 ADD PUSH2 0x3984 JUMP JUMPDEST SWAP3 PUSH1 0x8 DUP3 ADD SLOAD SWAP1 PUSH1 0x9 DUP4 ADD SLOAD SWAP1 PUSH1 0xA DUP5 ADD SLOAD PUSH1 0xB DUP6 ADD SLOAD PUSH1 0xC DUP7 ADD SLOAD PUSH1 0xFF AND SWAP1 PUSH1 0xD DUP8 ADD SLOAD SWAP3 PUSH1 0xE DUP9 ADD PUSH2 0x1FB0 SWAP1 PUSH2 0x38DE JUMP JUMPDEST SWAP6 PUSH1 0xF DUP10 ADD SLOAD SWAP9 PUSH1 0x10 ADD SLOAD SWAP8 PUSH1 0x40 MLOAD SWAP12 DUP13 SWAP12 DUP13 PUSH2 0x240 DUP1 SWAP2 MSTORE DUP14 ADD PUSH2 0x1FD4 SWAP2 PUSH2 0x36FA JUMP JUMPDEST SWAP8 PUSH2 0x1FE5 PUSH1 0x20 DUP15 ADD PUSH1 0xFF DUP4 AND PUSH2 0x374B JUMP JUMPDEST PUSH1 0x40 DUP14 ADD SWAP1 PUSH1 0x8 SHR PUSH1 0xFF AND SWAP1 PUSH2 0x1FFA SWAP2 PUSH2 0x3758 JUMP JUMPDEST PUSH1 0x60 DUP13 ADD PUSH2 0x2039 SWAP2 PUSH1 0xA0 DUP1 SWAP2 DUP1 MLOAD DUP5 MSTORE PUSH1 0x20 DUP2 ADD MLOAD PUSH1 0x20 DUP6 ADD MSTORE PUSH1 0x40 DUP2 ADD MLOAD PUSH1 0x40 DUP6 ADD MSTORE PUSH1 0x60 DUP2 ADD MLOAD PUSH1 0x60 DUP6 ADD MSTORE PUSH1 0x80 DUP2 ADD MLOAD PUSH1 0x80 DUP6 ADD MSTORE ADD MLOAD SWAP2 ADD MSTORE JUMP JUMPDEST PUSH2 0x120 DUP12 ADD MSTORE PUSH2 0x140 DUP11 ADD MSTORE PUSH2 0x160 DUP10 ADD MSTORE PUSH2 0x180 DUP9 ADD MSTORE ISZERO ISZERO PUSH2 0x1A0 DUP8 ADD MSTORE PUSH2 0x1C0 DUP7 ADD MSTORE DUP5 DUP2 SUB PUSH2 0x1E0 DUP7 ADD MSTORE PUSH2 0x2071 SWAP2 PUSH2 0x36FA JUMP JUMPDEST SWAP2 PUSH2 0x200 DUP5 ADD MSTORE PUSH2 0x220 DUP4 ADD MSTORE SUB SWAP1 RETURN JUMPDEST CALLVALUE PUSH2 0x1AC JUMPI PUSH1 0x40 CALLDATASIZE PUSH1 0x3 NOT ADD SLT PUSH2 0x1AC JUMPI PUSH1 0x4 CALLDATALOAD PUSH2 0x209E PUSH2 0x379A JUMP JUMPDEST PUSH1 0xA SLOAD PUSH1 0x1 PUSH1 0x1 PUSH1 0xA0 SHL SUB AND CALLER SUB PUSH2 0x2128 JUMPI ISZERO PUSH2 0x20EA JUMPI DUP1 PUSH1 0x0 MSTORE PUSH1 0xC PUSH1 0x20 MSTORE PUSH1 0xA PUSH1 0x40 PUSH1 0x0 KECCAK256 ADD PUSH2 0x20D0 DUP2 SLOAD PUSH2 0x4520 JUMP JUMPDEST SWAP1 SSTORE JUMPDEST PUSH1 0x0 MSTORE PUSH1 0xC PUSH1 0x20 MSTORE TIMESTAMP PUSH1 0xD PUSH1 0x40 PUSH1 0x0 KECCAK256 ADD SSTORE PUSH1 0x0 DUP1 RETURN JUMPDEST DUP1 PUSH1 0x0 MSTORE PUSH1 0xC PUSH1 0x20 MSTORE PUSH1 0xB PUSH1 0x40 PUSH1 0x0 KECCAK256 ADD PUSH2 0x2105 DUP2 SLOAD PUSH2 0x4520 JUMP JUMPDEST SWAP1 SSTORE DUP1 PUSH1 0x0 MSTORE PUSH1 0xC PUSH1 0x20 MSTORE PUSH1 0xC PUSH1 0x40 PUSH1 0x0 KECCAK256 ADD PUSH1 0x1 PUSH1 0xFF NOT DUP3 SLOAD AND OR SWAP1 SSTORE PUSH2 0x20D3 JUMP JUMPDEST PUSH1 0x40 MLOAD PUSH3 0x461BCD PUSH1 0xE5 SHL DUP2 MSTORE PUSH1 0x20 PUSH1 0x4 DUP3 ADD MSTORE PUSH1 0x24 DUP1 DUP3 ADD MSTORE PUSH32 0x4F6E6C7920626174746C65206172656E612063616E2075706461746520726573 PUSH1 0x44 DUP3 ADD MSTORE PUSH4 0x756C7473 PUSH1 0xE0 SHL PUSH1 0x64 DUP3 ADD MSTORE PUSH1 0x84 SWAP1 REVERT JUMPDEST CALLVALUE PUSH2 0x1AC JUMPI PUSH1 0x40 CALLDATASIZE PUSH1 0x3 NOT ADD SLT PUSH2 0x1AC JUMPI PUSH1 0xA SLOAD PUSH1 0x4 CALLDATALOAD SWAP1 PUSH1 0x1 PUSH1 0x1 PUSH1 0xA0 SHL SUB AND CALLER SUB PUSH2 0x2348 JUMPI DUP1 PUSH1 0x0 MSTORE PUSH1 0xC SWAP1 PUSH1 0x20 DUP3 DUP2 MSTORE PUSH1 0x9 PUSH1 0x40 PUSH1 0x0 KECCAK256 ADD SWAP3 PUSH1 0x24 SWAP4 PUSH2 0x21C4 DUP6 CALLDATALOAD DUP3 SLOAD PUSH2 0x4209 JUMP JUMPDEST SWAP1 SSTORE DUP3 PUSH1 0x0 MSTORE DUP1 DUP3 MSTORE PUSH1 0x8 PUSH1 0x40 PUSH1 0x0 KECCAK256 ADD SLOAD PUSH1 0x64 DUP2 MUL SWAP1 DUP1 DUP3 DIV PUSH1 0x64 EQ SWAP1 ISZERO OR ISZERO PUSH2 0x2333 JUMPI DUP4 PUSH1 0x0 MSTORE DUP2 DUP4 MSTORE PUSH1 0x40 PUSH1 0x0 KECCAK256 DUP2 PUSH1 0x9 DUP3 ADD SLOAD LT ISZERO PUSH2 0x2203 JUMPI STOP JUMPDEST PUSH1 0x8 ADD PUSH2 0x2210 DUP2 SLOAD PUSH2 0x4520 JUMP JUMPDEST SWAP1 SSTORE DUP4 PUSH1 0x0 MSTORE DUP2 DUP4 MSTORE PUSH1 0x9 PUSH1 0x40 PUSH1 0x0 KECCAK256 ADD DUP1 SLOAD SWAP2 DUP3 SUB SWAP2 DUP3 GT PUSH2 0x231E JUMPI SSTORE DUP3 PUSH1 0x0 MSTORE DUP1 DUP3 MSTORE PUSH1 0x2 PUSH1 0x40 PUSH1 0x0 KECCAK256 ADD DUP1 SLOAD SWAP1 PUSH1 0x5 DUP3 ADD DUP1 SWAP3 GT PUSH2 0x231E JUMPI SSTORE DUP3 PUSH1 0x0 MSTORE DUP1 DUP3 MSTORE PUSH1 0x3 PUSH1 0x40 PUSH1 0x0 KECCAK256 ADD DUP1 SLOAD SWAP1 PUSH1 0x3 DUP3 ADD DUP1 SWAP3 GT PUSH2 0x231E JUMPI SSTORE DUP3 PUSH1 0x0 MSTORE DUP1 DUP3 MSTORE PUSH1 0x4 PUSH1 0x40 PUSH1 0x0 KECCAK256 ADD DUP1 SLOAD SWAP1 PUSH1 0x3 DUP3 ADD DUP1 SWAP3 GT PUSH2 0x231E JUMPI SSTORE DUP3 PUSH1 0x0 MSTORE DUP1 DUP3 MSTORE PUSH1 0x5 PUSH1 0x40 PUSH1 0x0 KECCAK256 ADD DUP1 SLOAD SWAP1 PUSH1 0x2 DUP3 ADD DUP1 SWAP3 GT PUSH2 0x231E JUMPI SSTORE DUP3 PUSH1 0x0 MSTORE DUP1 DUP3 MSTORE PUSH1 0x6 PUSH1 0x40 PUSH1 0x0 KECCAK256 ADD DUP1 SLOAD SWAP1 PUSH1 0x2 DUP3 ADD DUP1 SWAP3 GT PUSH2 0x231E JUMPI SSTORE DUP3 PUSH1 0x0 MSTORE DUP1 DUP3 MSTORE PUSH1 0x7 PUSH1 0x40 PUSH1 0x0 KECCAK256 ADD DUP1 SLOAD SWAP1 PUSH1 0x1 DUP3 ADD DUP1 SWAP3 GT PUSH2 0x231E JUMPI PUSH32 0xF04F007B8DFB9F8CAF57A3B9E166B72A4E2F1EA8EAD97BAFC0F12BD08DA6C969 SWAP5 SWAP6 POP SSTORE DUP4 PUSH1 0x0 MSTORE DUP2 MSTORE PUSH1 0x8 PUSH1 0x40 PUSH1 0x0 KECCAK256 ADD SLOAD PUSH1 0x40 MLOAD SWAP1 DUP2 MSTORE LOG2 STOP JUMPDEST DUP6 PUSH4 0x4E487B71 PUSH1 0xE0 SHL PUSH1 0x0 MSTORE PUSH1 0x11 PUSH1 0x4 MSTORE PUSH1 0x0 REVERT JUMPDEST DUP5 PUSH4 0x4E487B71 PUSH1 0xE0 SHL PUSH1 0x0 MSTORE PUSH1 0x11 PUSH1 0x4 MSTORE PUSH1 0x0 REVERT JUMPDEST PUSH1 0x40 MLOAD PUSH3 0x461BCD PUSH1 0xE5 SHL DUP2 MSTORE PUSH1 0x20 PUSH1 0x4 DUP3 ADD MSTORE PUSH1 0x24 DUP1 DUP3 ADD MSTORE PUSH32 0x4F6E6C7920626174746C65206172656E612063616E2061646420657870657269 PUSH1 0x44 DUP3 ADD MSTORE PUSH4 0x656E6365 PUSH1 0xE0 SHL PUSH1 0x64 DUP3 ADD MSTORE PUSH1 0x84 SWAP1 REVERT JUMPDEST CALLVALUE PUSH2 0x1AC JUMPI PUSH1 0x60 CALLDATASIZE PUSH1 0x3 NOT ADD SLT PUSH2 0x1AC JUMPI PUSH1 0x4 CALLDATALOAD PUSH32 0xEF62795AC449F982DB6B821E8BBB6EFE0E725055FBA3222233DB3FDA1E1DFBF4 PUSH1 0x40 PUSH1 0x24 CALLDATALOAD PUSH1 0x44 CALLDATALOAD PUSH2 0x23F2 PUSH2 0x23E2 DUP7 PUSH2 0x3B2E JUMP JUMPDEST PUSH1 0x1 PUSH1 0x1 PUSH1 0xA0 SHL SUB AND CALLER EQ PUSH2 0x44E4 JUMP JUMPDEST DUP5 PUSH1 0x0 MSTORE PUSH1 0xC PUSH1 0x20 MSTORE DUP1 PUSH1 0x10 DUP5 PUSH1 0x0 KECCAK256 DUP5 PUSH1 0xF DUP3 ADD SSTORE ADD SSTORE DUP3 MLOAD SWAP2 DUP3 MSTORE PUSH1 0x20 DUP3 ADD MSTORE LOG2 STOP JUMPDEST CALLVALUE PUSH2 0x1AC JUMPI PUSH1 0x20 CALLDATASIZE PUSH1 0x3 NOT ADD SLT PUSH2 0x1AC JUMPI PUSH1 0x4 CALLDATALOAD PUSH1 0x8 SLOAD DUP2 LT ISZERO PUSH2 0x2468 JUMPI PUSH1 0x20 SWAP1 PUSH1 0x8 PUSH1 0x0 MSTORE PUSH32 0xF3F7A9FE364FAAB93B216DA50A3214154F22A0A2B415B23A84C8169E8B636EE3 ADD SLOAD PUSH1 0x40 MLOAD SWAP1 DUP2 MSTORE RETURN JUMPDEST PUSH1 0x40 MLOAD PUSH3 0x461BCD PUSH1 0xE5 SHL DUP2 MSTORE PUSH1 0x20 PUSH1 0x4 DUP3 ADD MSTORE PUSH1 0x2C PUSH1 0x24 DUP3 ADD MSTORE PUSH32 0x455243373231456E756D657261626C653A20676C6F62616C20696E646578206F PUSH1 0x44 DUP3 ADD MSTORE PUSH12 0x7574206F6620626F756E6473 PUSH1 0xA0 SHL PUSH1 0x64 DUP3 ADD MSTORE PUSH1 0x84 SWAP1 REVERT JUMPDEST PUSH1 0x20 CALLDATASIZE PUSH1 0x3 NOT ADD SLT PUSH2 0x1AC JUMPI PUSH1 0x4 CALLDATALOAD PUSH2 0x24DD PUSH2 0x23E2 DUP3 PUSH2 0x3B2E JUMP JUMPDEST DUP1 PUSH1 0x0 MSTORE PUSH1 0xC PUSH1 0x20 MSTORE PUSH1 0xFF PUSH1 0xC PUSH1 0x40 PUSH1 0x0 KECCAK256 ADD SLOAD AND ISZERO PUSH2 0x2545 JUMPI PUSH2 0x2505 PUSH1 0xF SLOAD CALLVALUE LT ISZERO PUSH2 0x40E8 JUMP JUMPDEST DUP1 PUSH1 0x0 MSTORE PUSH1 0xC PUSH1 0x20 MSTORE PUSH1 0xC PUSH1 0x40 PUSH1 0x0 KECCAK256 ADD PUSH1 0xFF NOT DUP2 SLOAD AND SWAP1 SSTORE PUSH32 0x47153A98D8B36230C96BA070E7E481CB1C752AEF3F85849B30836B74F6F77C48 PUSH1 0x0 DUP1 LOG2 STOP JUMPDEST PUSH1 0x40 MLOAD PUSH3 0x461BCD PUSH1 0xE5 SHL DUP2 MSTORE PUSH1 0x20 PUSH1 0x4 DUP3 ADD MSTORE PUSH1 0x13 PUSH1 0x24 DUP3 ADD MSTORE PUSH19 0x4D6F6E616E696D616C206973206E6F74204B4F PUSH1 0x68 SHL PUSH1 0x44 DUP3 ADD MSTORE PUSH1 0x64 SWAP1 REVERT JUMPDEST CALLVALUE PUSH2 0x1AC JUMPI PUSH2 0x1C06 PUSH2 0x1C01 PUSH2 0x2594 CALLDATASIZE PUSH2 0x3765 JUMP JUMPDEST SWAP1 PUSH1 0x40 MLOAD SWAP3 PUSH2 0x25A2 DUP5 PUSH2 0x3850 JUMP JUMPDEST PUSH1 0x0 DUP5 MSTORE PUSH2 0x1BF1 PUSH2 0x1BEC DUP5 CALLER PUSH2 0x3C6B JUMP JUMPDEST CALLVALUE PUSH2 0x1AC JUMPI PUSH1 0x0 CALLDATASIZE PUSH1 0x3 NOT ADD SLT PUSH2 0x1AC JUMPI PUSH2 0x25CC PUSH2 0x3A13 JUMP JUMPDEST PUSH1 0x0 DUP1 DUP1 DUP1 PUSH1 0x1 DUP1 PUSH1 0xA0 SHL SUB PUSH1 0xA SLOAD AND SELFBALANCE SWAP1 DUP3 DUP3 ISZERO PUSH2 0x25FA JUMPI JUMPDEST CALL ISZERO PUSH2 0x25EE JUMPI STOP JUMPDEST PUSH1 0x40 MLOAD RETURNDATASIZE PUSH1 0x0 DUP3 RETURNDATACOPY RETURNDATASIZE SWAP1 REVERT JUMPDEST POP PUSH2 0x8FC PUSH2 0x25E6 JUMP JUMPDEST CALLVALUE PUSH2 0x1AC JUMPI PUSH1 0x40 CALLDATASIZE PUSH1 0x3 NOT ADD SLT PUSH2 0x1AC JUMPI PUSH2 0x261C PUSH2 0x371F JUMP JUMPDEST PUSH1 0x24 CALLDATALOAD SWAP1 PUSH2 0x2629 DUP2 PUSH2 0x3A6B JUMP JUMPDEST DUP3 LT ISZERO PUSH2 0x265C JUMPI PUSH1 0x1 DUP1 PUSH1 0xA0 SHL SUB AND PUSH1 0x0 MSTORE PUSH1 0x6 PUSH1 0x20 MSTORE PUSH1 0x40 PUSH1 0x0 KECCAK256 SWAP1 PUSH1 0x0 MSTORE PUSH1 0x20 MSTORE PUSH1 0x20 PUSH1 0x40 PUSH1 0x0 KECCAK256 SLOAD PUSH1 0x40 MLOAD SWAP1 DUP2 MSTORE RETURN JUMPDEST PUSH1 0x40 MLOAD PUSH3 0x461BCD PUSH1 0xE5 SHL DUP2 MSTORE PUSH1 0x20 PUSH1 0x4 DUP3 ADD MSTORE PUSH1 0x2B PUSH1 0x24 DUP3 ADD MSTORE PUSH32 0x455243373231456E756D657261626C653A206F776E657220696E646578206F75 PUSH1 0x44 DUP3 ADD MSTORE PUSH11 0x74206F6620626F756E6473 PUSH1 0xA8 SHL PUSH1 0x64 DUP3 ADD MSTORE PUSH1 0x84 SWAP1 REVERT JUMPDEST CALLVALUE PUSH2 0x1AC JUMPI PUSH2 0x1C06 PUSH2 0x26C6 CALLDATASIZE PUSH2 0x3765 JUMP JUMPDEST SWAP2 PUSH2 0x26D4 PUSH2 0x1BEC DUP5 CALLER PUSH2 0x3C6B JUMP JUMPDEST PUSH2 0x3D33 JUMP JUMPDEST CALLVALUE PUSH2 0x1AC JUMPI PUSH1 0x20 CALLDATASIZE PUSH1 0x3 NOT ADD SLT PUSH2 0x1AC JUMPI PUSH1 0x0 PUSH2 0x180 PUSH1 0x40 MLOAD PUSH2 0x26FB DUP2 PUSH2 0x3819 JUMP JUMPDEST PUSH1 0x60 DUP2 MSTORE DUP3 PUSH1 0x20 DUP3 ADD MSTORE DUP3 PUSH1 0x40 DUP3 ADD MSTORE PUSH2 0x2713 PUSH2 0x41D7 JUMP JUMPDEST PUSH1 0x60 DUP3 ADD MSTORE DUP3 PUSH1 0x80 DUP3 ADD MSTORE DUP3 PUSH1 0xA0 DUP3 ADD MSTORE DUP3 PUSH1 0xC0 DUP3 ADD MSTORE DUP3 PUSH1 0xE0 DUP3 ADD MSTORE DUP3 PUSH2 0x100 DUP3 ADD MSTORE DUP3 PUSH2 0x120 DUP3 ADD MSTORE PUSH1 0x60 PUSH2 0x140 DUP3 ADD MSTORE DUP3 PUSH2 0x160 DUP3 ADD MSTORE ADD MSTORE PUSH1 0x4 CALLDATALOAD PUSH1 0x0 MSTORE PUSH1 0xC PUSH1 0x20 MSTORE PUSH1 0x40 PUSH1 0x0 KECCAK256 PUSH1 0x10 PUSH1 0x40 MLOAD SWAP2 PUSH2 0x276E DUP4 PUSH2 0x3819 JUMP JUMPDEST PUSH2 0x2777 DUP2 PUSH2 0x38DE JUMP JUMPDEST DUP4 MSTORE PUSH2 0x2792 PUSH1 0xFF PUSH1 0x1 DUP4 ADD SLOAD PUSH2 0x3F3 DUP3 DUP3 AND PUSH1 0x20 DUP9 ADD PUSH2 0x412B JUMP JUMPDEST PUSH2 0x279E PUSH1 0x2 DUP3 ADD PUSH2 0x3984 JUMP JUMPDEST PUSH1 0x60 DUP5 ADD MSTORE PUSH1 0x8 DUP2 ADD SLOAD PUSH1 0x80 DUP5 ADD MSTORE PUSH1 0x9 DUP2 ADD SLOAD PUSH1 0xA0 DUP5 ADD MSTORE PUSH1 0xA DUP2 ADD SLOAD PUSH1 0xC0 DUP5 ADD MSTORE PUSH1 0xB DUP2 ADD SLOAD PUSH1 0xE0 DUP5 ADD MSTORE PUSH1 0xFF PUSH1 0xC DUP3 ADD SLOAD AND ISZERO ISZERO PUSH2 0x100 DUP5 ADD MSTORE PUSH1 0xD DUP2 ADD SLOAD PUSH2 0x120 DUP5 ADD MSTORE PUSH2 0x27F2 PUSH1 0xE DUP3 ADD PUSH2 0x38DE JUMP JUMPDEST PUSH2 0x140 DUP5 ADD MSTORE PUSH1 0xF DUP2 ADD SLOAD PUSH2 0x160 DUP5 ADD MSTORE ADD SLOAD PUSH2 0x180 DUP3 ADD MSTORE PUSH1 0x40 MLOAD DUP1 SWAP2 PUSH1 0x20 DUP3 MSTORE PUSH2 0x180 PUSH2 0x28F6 PUSH2 0x2832 DUP4 MLOAD PUSH2 0x240 PUSH1 0x20 DUP8 ADD MSTORE PUSH2 0x260 DUP7 ADD SWAP1 PUSH2 0x36FA JUMP JUMPDEST PUSH2 0x2844 PUSH1 0x20 DUP6 ADD MLOAD PUSH1 0x40 DUP8 ADD SWAP1 PUSH2 0x374B JUMP JUMPDEST PUSH2 0x2856 PUSH1 0x40 DUP6 ADD MLOAD PUSH1 0x60 DUP8 ADD SWAP1 PUSH2 0x3758 JUMP JUMPDEST PUSH2 0x289A PUSH1 0x60 DUP6 ADD MLOAD PUSH1 0x80 DUP8 ADD SWAP1 PUSH1 0xA0 DUP1 SWAP2 DUP1 MLOAD DUP5 MSTORE PUSH1 0x20 DUP2 ADD MLOAD PUSH1 0x20 DUP6 ADD MSTORE PUSH1 0x40 DUP2 ADD MLOAD PUSH1 0x40 DUP6 ADD MSTORE PUSH1 0x60 DUP2 ADD MLOAD PUSH1 0x60 DUP6 ADD MSTORE PUSH1 0x80 DUP2 ADD MLOAD PUSH1 0x80 DUP6 ADD MSTORE ADD MLOAD SWAP2 ADD MSTORE JUMP JUMPDEST PUSH1 0x80 DUP5 ADD MLOAD PUSH2 0x140 DUP7 ADD MSTORE PUSH1 0xA0 DUP5 ADD MLOAD PUSH2 0x160 DUP7 ADD MSTORE PUSH1 0xC0 DUP5 ADD MLOAD DUP4 DUP7 ADD MSTORE PUSH1 0xE0 DUP5 ADD MLOAD PUSH2 0x1A0 DUP7 ADD MSTORE PUSH2 0x100 DUP5 ADD MLOAD ISZERO ISZERO PUSH2 0x1C0 DUP7 ADD MSTORE PUSH2 0x120 DUP5 ADD MLOAD PUSH2 0x1E0 DUP7 ADD MSTORE PUSH2 0x140 DUP5 ADD MLOAD PUSH1 0x1F NOT DUP7 DUP4 SUB ADD PUSH2 0x200 DUP8 ADD MSTORE PUSH2 0x36FA JUMP JUMPDEST SWAP2 PUSH2 0x160 DUP2 ADD MLOAD PUSH2 0x220 DUP6 ADD MSTORE ADD MLOAD PUSH2 0x240 DUP4 ADD MSTORE SUB SWAP1 RETURN JUMPDEST CALLVALUE PUSH2 0x1AC JUMPI PUSH1 0x0 CALLDATASIZE PUSH1 0x3 NOT ADD SLT PUSH2 0x1AC JUMPI PUSH1 0x20 PUSH1 0x8 SLOAD PUSH1 0x40 MLOAD SWAP1 DUP2 MSTORE RETURN JUMPDEST PUSH1 0x0 CALLDATASIZE PUSH1 0x3 NOT ADD SLT PUSH2 0x1AC JUMPI PUSH2 0x2947 PUSH1 0xE SLOAD CALLVALUE LT ISZERO PUSH2 0x40E8 JUMP JUMPDEST PUSH1 0xB SLOAD PUSH1 0x1 DUP2 ADD PUSH1 0xB SSTORE PUSH2 0x2959 PUSH2 0x41D7 JUMP JUMPDEST POP PUSH1 0x40 MLOAD PUSH1 0x20 DUP2 ADD SWAP1 TIMESTAMP DUP3 MSTORE PREVRANDAO PUSH1 0x40 DUP3 ADD MSTORE DUP3 PUSH1 0x60 DUP3 ADD MSTORE CALLER PUSH1 0x60 SHL PUSH1 0x80 DUP3 ADD MSTORE PUSH1 0x74 DUP2 MSTORE PUSH2 0x2987 DUP2 PUSH2 0x37FE JUMP JUMPDEST MLOAD SWAP1 KECCAK256 SWAP1 PUSH1 0x5 DUP1 DUP4 MOD LT ISZERO PUSH2 0x1AB5 JUMPI PUSH2 0x3E8 DUP3 PUSH1 0x8 SHR MOD PUSH2 0x1F4 DUP2 LT PUSH1 0x0 EQ PUSH2 0x33C5 JUMPI POP PUSH1 0x0 SWAP2 JUMPDEST PUSH2 0x29B7 PUSH2 0x41D7 JUMP JUMPDEST POP PUSH1 0x6 DUP4 LT ISZERO PUSH2 0x1AB5 JUMPI PUSH1 0x14 DUP4 MUL DUP4 DUP2 DIV PUSH1 0x14 EQ DUP5 ISZERO OR ISZERO PUSH2 0x32D4 JUMPI PUSH1 0x32 ADD DUP1 PUSH1 0x32 GT PUSH2 0x32D4 JUMPI PUSH2 0x29EE PUSH1 0x14 DUP4 PUSH1 0x10 SHR MOD DUP3 PUSH2 0x4209 JUMP JUMPDEST PUSH2 0x29FE PUSH1 0x14 DUP5 PUSH1 0x18 SHR MOD DUP4 PUSH2 0x4209 JUMP JUMPDEST SWAP2 PUSH2 0x2A0F PUSH1 0x14 DUP6 PUSH1 0x20 SHR MOD DUP3 PUSH2 0x4209 JUMP JUMPDEST SWAP1 PUSH2 0x2A20 PUSH1 0x14 DUP7 PUSH1 0x28 SHR MOD DUP3 PUSH2 0x4209 JUMP JUMPDEST PUSH2 0x2A41 PUSH2 0x2A33 PUSH1 0x14 DUP9 PUSH1 0x30 SHR MOD DUP5 PUSH2 0x4209 JUMP JUMPDEST SWAP3 PUSH1 0x14 DUP9 PUSH1 0x38 SHR MOD SWAP1 PUSH2 0x4209 JUMP JUMPDEST SWAP3 PUSH1 0x0 SWAP6 PUSH1 0x5 DUP9 MOD ISZERO PUSH1 0x0 EQ PUSH2 0x32EA JUMPI PUSH1 0x1E DUP2 ADD DUP1 SWAP2 GT PUSH2 0x32D4 JUMPI SWAP1 PUSH1 0x14 DUP2 ADD DUP2 GT PUSH2 0x32D4 JUMPI PUSH1 0x14 ADD SWAP1 JUMPDEST PUSH1 0x40 MLOAD SWAP6 PUSH2 0x2A79 DUP8 PUSH2 0x37E3 JUMP JUMPDEST DUP7 MSTORE PUSH1 0x20 DUP7 ADD MSTORE PUSH1 0x40 DUP6 ADD MSTORE PUSH1 0x60 DUP5 ADD MSTORE PUSH1 0x80 DUP4 ADD MSTORE PUSH1 0xA0 DUP3 ADD MSTORE PUSH2 0x2BA8 PUSH1 0x40 MLOAD PUSH2 0x2AA3 DUP2 PUSH2 0x37E3 JUMP JUMPDEST PUSH1 0x40 MLOAD PUSH2 0x2AAF DUP2 PUSH2 0x3835 JUMP JUMPDEST PUSH1 0xB DUP2 MSTORE PUSH11 0x707572706C652D626C7565 PUSH1 0xA8 SHL PUSH1 0x20 DUP3 ADD MSTORE DUP2 MSTORE PUSH1 0x40 MLOAD PUSH2 0x2AD5 DUP2 PUSH2 0x3835 JUMP JUMPDEST PUSH1 0xC DUP2 MSTORE PUSH12 0x707572706C652D6265727279 PUSH1 0xA0 SHL PUSH1 0x20 DUP3 ADD MSTORE PUSH1 0x20 DUP3 ADD MSTORE PUSH1 0x40 MLOAD PUSH2 0x2AFF DUP2 PUSH2 0x3835 JUMP JUMPDEST PUSH1 0xB DUP2 MSTORE PUSH11 0x626C75652D707572706C65 PUSH1 0xA8 SHL PUSH1 0x20 DUP3 ADD MSTORE PUSH1 0x40 DUP3 ADD MSTORE PUSH1 0x40 MLOAD PUSH2 0x2B28 DUP2 PUSH2 0x3835 JUMP JUMPDEST PUSH1 0xC DUP2 MSTORE PUSH12 0x62657272792D707572706C65 PUSH1 0xA0 SHL PUSH1 0x20 DUP3 ADD MSTORE PUSH1 0x60 DUP3 ADD MSTORE PUSH1 0x40 MLOAD PUSH2 0x2B52 DUP2 PUSH2 0x3835 JUMP JUMPDEST PUSH1 0xF DUP2 MSTORE PUSH15 0x1C1D5C9C1B194B59DC98591A595B9D PUSH1 0x8A SHL PUSH1 0x20 DUP3 ADD MSTORE PUSH1 0x80 DUP3 ADD MSTORE PUSH1 0x40 MLOAD PUSH2 0x2B7F DUP2 PUSH2 0x3835 JUMP JUMPDEST PUSH1 0xD DUP2 MSTORE PUSH13 0x636F736D69632D707572706C65 PUSH1 0x98 SHL PUSH1 0x20 DUP3 ADD MSTORE PUSH1 0xA0 DUP3 ADD MSTORE PUSH1 0x6 DUP6 MOD SWAP1 PUSH2 0x4216 JUMP JUMPDEST MLOAD SWAP1 PUSH1 0x40 MLOAD PUSH2 0x2BB6 DUP2 PUSH2 0x37FE JUMP JUMPDEST PUSH2 0x2BBE PUSH2 0x4227 JUMP JUMPDEST DUP2 MSTORE PUSH2 0x2BC8 PUSH2 0x424A JUMP JUMPDEST PUSH1 0x20 DUP3 ADD MSTORE PUSH2 0x2BD5 PUSH2 0x426E JUMP JUMPDEST PUSH1 0x40 DUP3 ADD MSTORE PUSH2 0x2BE2 PUSH2 0x428E JUMP JUMPDEST PUSH1 0x60 DUP3 ADD MSTORE PUSH2 0x2BEF PUSH2 0x42B3 JUMP JUMPDEST PUSH1 0x80 DUP3 ADD MSTORE PUSH1 0x40 MLOAD SWAP1 PUSH2 0x2C01 DUP3 PUSH2 0x37E3 JUMP JUMPDEST PUSH1 0x40 MLOAD PUSH2 0x2C0D DUP2 PUSH2 0x3850 JUMP JUMPDEST PUSH1 0x0 DUP2 MSTORE DUP3 MSTORE PUSH1 0x40 MLOAD PUSH2 0x2C1F DUP2 PUSH2 0x3835 JUMP JUMPDEST PUSH1 0x5 DUP2 MSTORE PUSH5 0x5368696E79 PUSH1 0xD8 SHL PUSH1 0x20 DUP3 ADD MSTORE PUSH1 0x20 DUP4 ADD MSTORE PUSH2 0x2C3E PUSH2 0x42D7 JUMP JUMPDEST PUSH1 0x40 DUP4 ADD MSTORE PUSH2 0x2C4B PUSH2 0x42F7 JUMP JUMPDEST PUSH1 0x60 DUP4 ADD MSTORE PUSH2 0x2C58 PUSH2 0x4317 JUMP JUMPDEST PUSH1 0x80 DUP4 ADD MSTORE PUSH2 0x2C65 PUSH2 0x433C JUMP JUMPDEST PUSH1 0xA0 DUP4 ADD MSTORE PUSH2 0x2C7F DUP9 PUSH2 0x2C78 DUP2 DUP6 PUSH2 0x4216 JUMP JUMPDEST MLOAD SWAP4 PUSH2 0x4216 JUMP JUMPDEST MLOAD MLOAD ISZERO PUSH2 0x32BE JUMPI PUSH1 0x40 MLOAD PUSH2 0x2C92 DUP2 PUSH2 0x3835 JUMP JUMPDEST PUSH1 0x1 DUP2 MSTORE PUSH1 0x1 PUSH1 0xFD SHL PUSH1 0x20 DUP3 ADD MSTORE SWAP5 JUMPDEST PUSH2 0x1AB5 JUMPI PUSH2 0x2D35 SWAP2 PUSH2 0x2CBA PUSH1 0x22 SWAP3 PUSH1 0x5 DUP10 MOD SWAP1 PUSH2 0x435E JUMP JUMPDEST MLOAD PUSH2 0x2CC4 DUP10 PUSH2 0x43A1 JUMP JUMPDEST SWAP1 PUSH1 0x40 MLOAD SWAP8 DUP4 PUSH2 0x2CDE DUP11 SWAP6 MLOAD DUP1 SWAP3 PUSH1 0x20 DUP1 DUP10 ADD SWAP2 ADD PUSH2 0x36D7 JUMP JUMPDEST DUP5 ADD PUSH2 0x2CF3 DUP3 MLOAD DUP1 SWAP4 PUSH1 0x20 DUP1 DUP6 ADD SWAP2 ADD PUSH2 0x36D7 JUMP JUMPDEST ADD PUSH2 0x2D07 DUP3 MLOAD DUP1 SWAP4 PUSH1 0x20 DUP1 DUP6 ADD SWAP2 ADD PUSH2 0x36D7 JUMP JUMPDEST ADD PUSH2 0x2023 PUSH1 0xF0 SHL PUSH1 0x20 DUP3 ADD MSTORE PUSH2 0x2D26 DUP3 MLOAD DUP1 SWAP4 PUSH1 0x20 DUP8 DUP6 ADD SWAP2 ADD PUSH2 0x36D7 JUMP JUMPDEST ADD SUB PUSH1 0x2 DUP2 ADD DUP7 MSTORE ADD DUP5 PUSH2 0x38BD JUMP JUMPDEST PUSH1 0x40 MLOAD SWAP3 PUSH2 0x2D42 DUP5 PUSH2 0x3819 JUMP JUMPDEST DUP4 MSTORE PUSH2 0x2D54 PUSH1 0x5 DUP6 MOD PUSH1 0x20 DUP6 ADD PUSH2 0x412B JUMP JUMPDEST PUSH2 0x2D61 DUP7 PUSH1 0x40 DUP6 ADD PUSH2 0x4137 JUMP JUMPDEST PUSH1 0x60 DUP4 ADD MSTORE PUSH1 0x1 PUSH1 0x80 DUP4 ADD MSTORE PUSH1 0x0 PUSH1 0xA0 DUP4 ADD MSTORE PUSH1 0x0 PUSH1 0xC0 DUP4 ADD MSTORE PUSH1 0x0 PUSH1 0xE0 DUP4 ADD MSTORE PUSH1 0x0 PUSH2 0x100 DUP4 ADD MSTORE PUSH1 0x0 PUSH2 0x120 DUP4 ADD MSTORE PUSH2 0x140 DUP3 ADD MSTORE PUSH1 0x0 PUSH2 0x160 DUP3 ADD MSTORE PUSH1 0x0 PUSH2 0x180 DUP3 ADD MSTORE DUP3 PUSH1 0x0 MSTORE PUSH1 0xC PUSH1 0x20 MSTORE PUSH1 0x40 PUSH1 0x0 KECCAK256 SWAP1 DUP1 MLOAD DUP1 MLOAD SWAP1 PUSH1 0x1 PUSH1 0x1 PUSH1 0x40 SHL SUB DUP3 GT PUSH2 0x1ACB JUMPI DUP2 SWAP1 PUSH2 0x2DD6 DUP6 SLOAD PUSH2 0x37A9 JUMP JUMPDEST PUSH1 0x1F DUP2 GT PUSH2 0x326E JUMPI JUMPDEST POP PUSH1 0x20 SWAP1 PUSH1 0x1F DUP4 GT PUSH1 0x1 EQ PUSH2 0x3202 JUMPI PUSH1 0x0 SWAP3 PUSH2 0x31F7 JUMPI JUMPDEST POP POP DUP2 PUSH1 0x1 SHL SWAP2 PUSH1 0x0 NOT SWAP1 PUSH1 0x3 SHL SHR NOT AND OR DUP3 SSTORE JUMPDEST PUSH1 0x20 DUP2 ADD MLOAD PUSH1 0x5 DUP2 LT ISZERO PUSH2 0x1AB5 JUMPI PUSH1 0x1 DUP4 ADD SLOAD PUSH1 0x40 DUP4 ADD MLOAD PUSH1 0x6 DUP2 LT ISZERO PUSH2 0x1AB5 JUMPI PUSH2 0xFF00 PUSH1 0xFF SWAP2 PUSH1 0x8 SHL AND SWAP3 AND SWAP1 PUSH2 0xFFFF NOT AND OR OR PUSH1 0x1 DUP4 ADD SSTORE PUSH1 0xA0 PUSH1 0x60 DUP3 ADD MLOAD DUP1 MLOAD PUSH1 0x2 DUP6 ADD SSTORE PUSH1 0x20 DUP2 ADD MLOAD PUSH1 0x3 DUP6 ADD SSTORE PUSH1 0x40 DUP2 ADD MLOAD PUSH1 0x4 DUP6 ADD SSTORE PUSH1 0x60 DUP2 ADD MLOAD PUSH1 0x5 DUP6 ADD SSTORE PUSH1 0x80 DUP2 ADD MLOAD PUSH1 0x6 DUP6 ADD SSTORE ADD MLOAD PUSH1 0x7 DUP4 ADD SSTORE PUSH1 0x80 DUP2 ADD MLOAD PUSH1 0x8 DUP4 ADD SSTORE PUSH1 0xA0 DUP2 ADD MLOAD PUSH1 0x9 DUP4 ADD SSTORE PUSH1 0xC0 DUP2 ADD MLOAD PUSH1 0xA DUP4 ADD SSTORE PUSH1 0xE0 DUP2 ADD MLOAD PUSH1 0xB DUP4 ADD SSTORE PUSH2 0x2ECA PUSH2 0x100 DUP3 ADD MLOAD ISZERO ISZERO PUSH1 0xC DUP5 ADD SWAP1 PUSH1 0xFF DUP1 NOT DUP4 SLOAD AND SWAP2 ISZERO ISZERO AND OR SWAP1 SSTORE JUMP JUMPDEST PUSH2 0x120 DUP2 ADD MLOAD PUSH1 0xD DUP4 ADD SSTORE PUSH2 0x140 DUP2 ADD MLOAD DUP1 MLOAD SWAP1 PUSH1 0x1 PUSH1 0x1 PUSH1 0x40 SHL SUB DUP3 GT PUSH2 0x1ACB JUMPI PUSH2 0x2EF9 PUSH1 0xE DUP6 ADD SLOAD PUSH2 0x37A9 JUMP JUMPDEST PUSH1 0x1F DUP2 GT PUSH2 0x31B0 JUMPI JUMPDEST POP PUSH1 0x20 SWAP1 PUSH1 0x1F DUP4 GT PUSH1 0x1 EQ PUSH2 0x313C JUMPI SWAP2 DUP1 PUSH1 0x10 SWAP5 SWAP3 PUSH2 0x180 SWAP5 PUSH1 0x0 SWAP3 PUSH2 0x3131 JUMPI JUMPDEST POP POP DUP2 PUSH1 0x1 SHL SWAP2 PUSH1 0x0 NOT SWAP1 PUSH1 0x3 SHL SHR NOT AND OR PUSH1 0xE DUP6 ADD SSTORE JUMPDEST PUSH2 0x160 DUP2 ADD MLOAD PUSH1 0xF DUP6 ADD SSTORE ADD MLOAD SWAP2 ADD SSTORE CALLER PUSH1 0x0 MSTORE PUSH1 0xD PUSH1 0x20 MSTORE PUSH1 0x40 PUSH1 0x0 KECCAK256 DUP1 SLOAD PUSH1 0x1 PUSH1 0x40 SHL DUP2 LT ISZERO PUSH2 0x1ACB JUMPI PUSH2 0x2F76 SWAP2 PUSH1 0x1 DUP3 ADD DUP2 SSTORE PUSH2 0x39CA JUMP JUMPDEST DUP2 SLOAD SWAP1 PUSH1 0x3 SHL SWAP1 DUP5 DUP3 SHL SWAP2 PUSH1 0x0 NOT SWAP1 SHL NOT AND OR SWAP1 SSTORE PUSH1 0x40 MLOAD SWAP3 PUSH2 0x2F98 DUP5 PUSH2 0x3850 JUMP JUMPDEST PUSH1 0x0 DUP5 MSTORE CALLER ISZERO PUSH2 0x30ED JUMPI PUSH2 0x30BB PUSH2 0x30C5 SWAP3 PUSH2 0x30AF PUSH2 0x1C01 PUSH1 0x5 SWAP8 PUSH2 0x2FDA PUSH2 0x2FD4 DUP10 PUSH1 0x0 MSTORE PUSH1 0x2 PUSH1 0x20 MSTORE PUSH1 0x1 DUP1 PUSH1 0xA0 SHL SUB PUSH1 0x40 PUSH1 0x0 KECCAK256 SLOAD AND ISZERO ISZERO SWAP1 JUMP JUMPDEST ISZERO PUSH2 0x418B JUMP JUMPDEST PUSH1 0x8 SLOAD DUP9 PUSH1 0x0 MSTORE PUSH1 0x9 PUSH1 0x20 MSTORE PUSH1 0x40 PUSH1 0x0 KECCAK256 SSTORE PUSH2 0x2FF5 DUP9 PUSH2 0x4143 JUMP JUMPDEST PUSH2 0x2FFE CALLER PUSH2 0x3A6B JUMP JUMPDEST CALLER PUSH1 0x0 MSTORE PUSH1 0x6 PUSH1 0x20 MSTORE PUSH1 0x40 PUSH1 0x0 KECCAK256 DUP2 PUSH1 0x0 MSTORE PUSH1 0x20 MSTORE DUP9 PUSH1 0x40 PUSH1 0x0 KECCAK256 SSTORE DUP9 PUSH1 0x0 MSTORE PUSH1 0x7 PUSH1 0x20 MSTORE PUSH1 0x40 PUSH1 0x0 KECCAK256 SSTORE PUSH2 0x304B PUSH2 0x2FD4 DUP10 PUSH1 0x0 MSTORE PUSH1 0x2 PUSH1 0x20 MSTORE PUSH1 0x1 DUP1 PUSH1 0xA0 SHL SUB PUSH1 0x40 PUSH1 0x0 KECCAK256 SLOAD AND ISZERO ISZERO SWAP1 JUMP JUMPDEST CALLER PUSH1 0x0 MSTORE PUSH1 0x3 PUSH1 0x20 MSTORE PUSH1 0x40 PUSH1 0x0 KECCAK256 PUSH1 0x1 DUP2 SLOAD ADD SWAP1 SSTORE DUP8 PUSH1 0x0 MSTORE PUSH1 0x2 PUSH1 0x20 MSTORE PUSH1 0x40 PUSH1 0x0 KECCAK256 CALLER PUSH1 0x1 PUSH1 0x1 PUSH1 0x60 SHL SUB PUSH1 0xA0 SHL DUP3 SLOAD AND OR SWAP1 SSTORE DUP8 CALLER PUSH1 0x0 PUSH32 0xDDF252AD1BE2C89B69C2B068FC378DAA952BA7F163C4A11628F55A4DF523B3EF DUP2 DUP1 LOG4 DUP8 CALLER PUSH2 0x3F43 JUMP JUMPDEST PUSH1 0x40 MLOAD SWAP6 DUP7 SWAP2 MOD PUSH2 0x374B JUMP JUMPDEST PUSH1 0x20 DUP5 ADD SWAP1 PUSH2 0x3758 JUMP JUMPDEST PUSH32 0x7BF904F9EF1D99303C3745B88F501E03D4FA0FA1EF2532E4709E5B24E76D2F6F PUSH1 0x40 CALLER SWAP4 LOG3 STOP JUMPDEST PUSH1 0x64 PUSH1 0x40 MLOAD PUSH3 0x461BCD PUSH1 0xE5 SHL DUP2 MSTORE PUSH1 0x20 PUSH1 0x4 DUP3 ADD MSTORE PUSH1 0x20 PUSH1 0x24 DUP3 ADD MSTORE PUSH32 0x4552433732313A206D696E7420746F20746865207A65726F2061646472657373 PUSH1 0x44 DUP3 ADD MSTORE REVERT JUMPDEST ADD MLOAD SWAP1 POP DUP10 DUP1 PUSH2 0x2F23 JUMP JUMPDEST SWAP1 PUSH1 0x1F NOT DUP4 AND SWAP2 PUSH1 0xE DUP7 ADD PUSH1 0x0 MSTORE PUSH1 0x20 PUSH1 0x0 KECCAK256 SWAP3 PUSH1 0x0 JUMPDEST DUP2 DUP2 LT PUSH2 0x3198 JUMPI POP SWAP3 PUSH1 0x1 SWAP3 DUP6 SWAP3 PUSH2 0x180 SWAP7 PUSH1 0x10 SWAP9 SWAP7 LT PUSH2 0x317F JUMPI JUMPDEST POP POP POP DUP2 SHL ADD PUSH1 0xE DUP6 ADD SSTORE PUSH2 0x2F3B JUMP JUMPDEST ADD MLOAD PUSH1 0x0 NOT PUSH1 0xF8 DUP5 PUSH1 0x3 SHL AND SHR NOT AND SWAP1 SSTORE DUP10 DUP1 DUP1 PUSH2 0x316F JUMP JUMPDEST SWAP3 SWAP4 PUSH1 0x20 PUSH1 0x1 DUP2 SWAP3 DUP8 DUP7 ADD MLOAD DUP2 SSTORE ADD SWAP6 ADD SWAP4 ADD PUSH2 0x3153 JUMP JUMPDEST PUSH1 0xE DUP6 ADD PUSH1 0x0 MSTORE PUSH1 0x20 PUSH1 0x0 KECCAK256 PUSH1 0x1F DUP5 ADD PUSH1 0x5 SHR DUP2 ADD PUSH1 0x20 DUP6 LT PUSH2 0x31F0 JUMPI JUMPDEST PUSH1 0x1F DUP4 ADD PUSH1 0x5 SHR DUP3 ADD DUP2 LT PUSH2 0x31E4 JUMPI POP POP PUSH2 0x2F02 JUMP JUMPDEST PUSH1 0x0 DUP2 SSTORE PUSH1 0x1 ADD PUSH2 0x31CE JUMP JUMPDEST POP DUP1 PUSH2 0x31CE JUMP JUMPDEST ADD MLOAD SWAP1 POP DUP8 DUP1 PUSH2 0x2DF6 JUMP JUMPDEST SWAP3 POP DUP5 PUSH1 0x0 MSTORE PUSH1 0x20 PUSH1 0x0 KECCAK256 SWAP1 PUSH1 0x0 SWAP4 JUMPDEST PUSH1 0x1F NOT DUP5 AND DUP6 LT PUSH2 0x3253 JUMPI PUSH1 0x1 SWAP5 POP DUP4 PUSH1 0x1F NOT DUP2 AND LT PUSH2 0x323A JUMPI JUMPDEST POP POP POP DUP2 SHL ADD DUP3 SSTORE PUSH2 0x2E0B JUMP JUMPDEST ADD MLOAD PUSH1 0x0 NOT PUSH1 0xF8 DUP5 PUSH1 0x3 SHL AND SHR NOT AND SWAP1 SSTORE DUP8 DUP1 DUP1 PUSH2 0x322D JUMP JUMPDEST DUP2 DUP2 ADD MLOAD DUP4 SSTORE PUSH1 0x20 SWAP5 DUP6 ADD SWAP5 PUSH1 0x1 SWAP1 SWAP4 ADD SWAP3 SWAP1 SWAP2 ADD SWAP1 PUSH2 0x3212 JUMP JUMPDEST SWAP1 SWAP2 POP DUP5 PUSH1 0x0 MSTORE PUSH1 0x20 PUSH1 0x0 KECCAK256 PUSH1 0x1F DUP5 ADD PUSH1 0x5 SHR DUP2 ADD PUSH1 0x20 DUP6 LT PUSH2 0x32B7 JUMPI JUMPDEST SWAP1 DUP5 SWAP4 SWAP3 SWAP2 JUMPDEST PUSH1 0x1F DUP4 ADD PUSH1 0x5 SHR DUP3 ADD DUP2 LT PUSH2 0x32A8 JUMPI POP POP PUSH2 0x2DDF JUMP JUMPDEST PUSH1 0x0 DUP2 SSTORE DUP6 SWAP5 POP PUSH1 0x1 ADD PUSH2 0x3292 JUMP JUMPDEST POP DUP1 PUSH2 0x328C JUMP JUMPDEST PUSH1 0x40 MLOAD PUSH2 0x32CA DUP2 PUSH2 0x3850 JUMP JUMPDEST PUSH1 0x0 DUP2 MSTORE SWAP5 PUSH2 0x2CA2 JUMP JUMPDEST PUSH4 0x4E487B71 PUSH1 0xE0 SHL PUSH1 0x0 MSTORE PUSH1 0x11 PUSH1 0x4 MSTORE PUSH1 0x24 PUSH1 0x0 REVERT JUMPDEST PUSH1 0x0 SWAP7 POP SWAP4 SWAP2 PUSH1 0x5 DUP9 MOD PUSH1 0x1 SUB PUSH2 0x331B JUMPI PUSH1 0x28 DUP2 ADD DUP1 SWAP2 GT PUSH2 0x32D4 JUMPI SWAP2 PUSH1 0x14 DUP2 ADD DUP2 GT PUSH2 0x32D4 JUMPI PUSH1 0x14 ADD SWAP4 JUMPDEST PUSH2 0x2A6C JUMP JUMPDEST SWAP2 SWAP4 SWAP5 SWAP3 SWAP6 POP PUSH1 0x0 SWAP6 PUSH1 0x2 PUSH1 0x5 DUP10 MOD EQ PUSH1 0x0 EQ PUSH2 0x3353 JUMPI PUSH1 0x32 DUP2 ADD DUP1 SWAP2 GT PUSH2 0x32D4 JUMPI SWAP3 DUP1 PUSH1 0x9 NOT DUP2 ADD GT PUSH2 0x32D4 JUMPI PUSH1 0x9 NOT ADD SWAP5 PUSH2 0x2A6C JUMP JUMPDEST PUSH1 0x0 SWAP7 POP SWAP3 SWAP5 PUSH1 0x5 DUP9 MOD PUSH1 0x3 SUB PUSH2 0x3385 JUMPI PUSH1 0x28 DUP2 ADD DUP1 SWAP2 GT PUSH2 0x32D4 JUMPI SWAP1 DUP1 PUSH1 0x13 NOT DUP2 ADD GT PUSH2 0x32D4 JUMPI PUSH1 0x13 NOT ADD SWAP1 PUSH2 0x2A6C JUMP JUMPDEST PUSH1 0x0 SWAP7 POP PUSH1 0x3 NOT PUSH1 0x5 DUP10 MOD ADD PUSH2 0x3316 JUMPI SWAP2 SWAP5 SWAP1 PUSH1 0x28 DUP2 ADD DUP1 SWAP2 GT PUSH2 0x32D4 JUMPI SWAP1 PUSH1 0x1E DUP2 ADD DUP1 SWAP2 GT PUSH2 0x32D4 JUMPI SWAP5 DUP1 PUSH1 0x13 NOT DUP2 ADD GT PUSH2 0x32D4 JUMPI PUSH1 0x13 NOT ADD SWAP2 PUSH2 0x2A6C JUMP JUMPDEST PUSH2 0x2EE DUP2 LT ISZERO PUSH2 0x33D8 JUMPI POP PUSH1 0x1 SWAP2 PUSH2 0x29AF JUMP JUMPDEST PUSH2 0x384 DUP2 LT ISZERO PUSH2 0x33EB JUMPI POP PUSH1 0x2 SWAP2 PUSH2 0x29AF JUMP JUMPDEST PUSH2 0x3CA DUP2 LT ISZERO PUSH2 0x33FE JUMPI POP PUSH1 0x3 SWAP2 PUSH2 0x29AF JUMP JUMPDEST PUSH2 0x3E3 GT ISZERO PUSH2 0x340F JUMPI PUSH1 0x4 SWAP2 PUSH2 0x29AF JUMP JUMPDEST PUSH1 0x5 SWAP2 PUSH2 0x29AF JUMP JUMPDEST CALLVALUE PUSH2 0x1AC JUMPI PUSH1 0x40 CALLDATASIZE PUSH1 0x3 NOT ADD SLT PUSH2 0x1AC JUMPI PUSH2 0x3430 PUSH2 0x371F JUMP JUMPDEST PUSH1 0x24 CALLDATALOAD SWAP1 PUSH1 0x1 PUSH1 0x1 PUSH1 0xA0 SHL SUB DUP1 DUP1 PUSH2 0x3447 DUP6 PUSH2 0x3B2E JUMP JUMPDEST AND SWAP3 AND SWAP2 DUP1 DUP4 EQ PUSH2 0x3542 JUMPI DUP1 CALLER EQ SWAP1 DUP2 ISZERO PUSH2 0x351D JUMPI JUMPDEST POP ISZERO PUSH2 0x34B2 JUMPI PUSH1 0x0 DUP4 DUP2 MSTORE PUSH1 0x4 PUSH1 0x20 MSTORE PUSH1 0x40 SWAP1 KECCAK256 DUP1 SLOAD PUSH1 0x1 PUSH1 0x1 PUSH1 0xA0 SHL SUB NOT AND DUP4 OR SWAP1 SSTORE PUSH2 0x348A DUP4 PUSH2 0x3B2E JUMP JUMPDEST AND PUSH32 0x8C5BE1E5EBEC7D5BD14F71427D1E84F3DD0314C0F7B2291E5B200AC8C7C3B925 PUSH1 0x0 DUP1 LOG4 STOP JUMPDEST PUSH1 0x40 MLOAD PUSH3 0x461BCD PUSH1 0xE5 SHL DUP2 MSTORE PUSH1 0x20 PUSH1 0x4 DUP3 ADD MSTORE PUSH1 0x3D PUSH1 0x24 DUP3 ADD MSTORE PUSH32 0x4552433732313A20617070726F76652063616C6C6572206973206E6F7420746F PUSH1 0x44 DUP3 ADD MSTORE PUSH32 0x6B656E206F776E6572206F7220617070726F76656420666F7220616C6C000000 PUSH1 0x64 DUP3 ADD MSTORE PUSH1 0x84 SWAP1 REVERT JUMPDEST SWAP1 POP PUSH1 0x0 MSTORE PUSH1 0x5 PUSH1 0x20 MSTORE PUSH1 0x40 PUSH1 0x0 KECCAK256 CALLER PUSH1 0x0 MSTORE PUSH1 0x20 MSTORE PUSH1 0xFF PUSH1 0x40 PUSH1 0x0 KECCAK256 SLOAD AND DUP5 PUSH2 0x345D JUMP JUMPDEST PUSH1 0x40 MLOAD PUSH3 0x461BCD PUSH1 0xE5 SHL DUP2 MSTORE PUSH1 0x20 PUSH1 0x4 DUP3 ADD MSTORE PUSH1 0x21 PUSH1 0x24 DUP3 ADD MSTORE PUSH32 0x4552433732313A20617070726F76616C20746F2063757272656E74206F776E65 PUSH1 0x44 DUP3 ADD MSTORE PUSH1 0x39 PUSH1 0xF9 SHL PUSH1 0x64 DUP3 ADD MSTORE PUSH1 0x84 SWAP1 REVERT JUMPDEST CALLVALUE PUSH2 0x1AC JUMPI PUSH1 0x20 CALLDATASIZE PUSH1 0x3 NOT ADD SLT PUSH2 0x1AC JUMPI PUSH1 0x20 PUSH2 0x1F2F PUSH1 0x4 CALLDATALOAD PUSH2 0x3B54 JUMP JUMPDEST CALLVALUE PUSH2 0x1AC JUMPI PUSH1 0x0 CALLDATASIZE PUSH1 0x3 NOT ADD SLT PUSH2 0x1AC JUMPI PUSH1 0x40 MLOAD PUSH1 0x0 DUP1 SLOAD PUSH2 0x35D0 DUP2 PUSH2 0x37A9 JUMP JUMPDEST DUP1 DUP5 MSTORE SWAP1 PUSH1 0x1 SWAP1 DUP2 DUP2 AND SWAP1 DUP2 ISZERO PUSH2 0x1DFA JUMPI POP PUSH1 0x1 EQ PUSH2 0x35F9 JUMPI PUSH2 0x1A8D DUP5 PUSH2 0x1A79 DUP2 DUP7 SUB DUP3 PUSH2 0x38BD JUMP JUMPDEST PUSH1 0x0 DUP1 DUP1 MSTORE SWAP3 POP PUSH32 0x290DECD9548B62A8D60345A988386FC84BA6BC95484008F6362F93160EF3E563 JUMPDEST DUP3 DUP5 LT PUSH2 0x363A JUMPI POP POP POP DUP2 ADD PUSH1 0x20 ADD PUSH2 0x1A79 DUP3 PUSH2 0x1D91 JUMP JUMPDEST DUP1 SLOAD PUSH1 0x20 DUP6 DUP8 ADD DUP2 ADD SWAP2 SWAP1 SWAP2 MSTORE SWAP1 SWAP4 ADD SWAP3 DUP2 ADD PUSH2 0x3622 JUMP JUMPDEST CALLVALUE PUSH2 0x1AC JUMPI PUSH1 0x20 CALLDATASIZE PUSH1 0x3 NOT ADD SLT PUSH2 0x1AC JUMPI PUSH1 0x4 CALLDATALOAD SWAP1 PUSH4 0xFFFFFFFF PUSH1 0xE0 SHL DUP3 AND DUP1 SWAP3 SUB PUSH2 0x1AC JUMPI PUSH1 0x20 SWAP2 PUSH4 0x780E9D63 PUSH1 0xE0 SHL DUP2 EQ SWAP1 DUP2 ISZERO PUSH2 0x3694 JUMPI JUMPDEST POP ISZERO ISZERO DUP2 MSTORE RETURN JUMPDEST PUSH4 0x80AC58CD PUSH1 0xE0 SHL DUP2 EQ SWAP2 POP DUP2 ISZERO PUSH2 0x36C6 JUMPI JUMPDEST DUP2 ISZERO PUSH2 0x36B5 JUMPI JUMPDEST POP DUP4 PUSH2 0x368D JUMP JUMPDEST PUSH4 0x1FFC9A7 PUSH1 0xE0 SHL EQ SWAP1 POP DUP4 PUSH2 0x36AE JUMP JUMPDEST PUSH4 0x5B5E139F PUSH1 0xE0 SHL DUP2 EQ SWAP2 POP PUSH2 0x36A7 JUMP JUMPDEST PUSH1 0x0 JUMPDEST DUP4 DUP2 LT PUSH2 0x36EA JUMPI POP POP PUSH1 0x0 SWAP2 ADD MSTORE JUMP JUMPDEST DUP2 DUP2 ADD MLOAD DUP4 DUP3 ADD MSTORE PUSH1 0x20 ADD PUSH2 0x36DA JUMP JUMPDEST SWAP1 PUSH1 0x20 SWAP2 PUSH2 0x3713 DUP2 MLOAD DUP1 SWAP3 DUP2 DUP6 MSTORE DUP6 DUP1 DUP7 ADD SWAP2 ADD PUSH2 0x36D7 JUMP JUMPDEST PUSH1 0x1F ADD PUSH1 0x1F NOT AND ADD ADD SWAP1 JUMP JUMPDEST PUSH1 0x4 CALLDATALOAD SWAP1 PUSH1 0x1 PUSH1 0x1 PUSH1 0xA0 SHL SUB DUP3 AND DUP3 SUB PUSH2 0x1AC JUMPI JUMP JUMPDEST PUSH1 0x24 CALLDATALOAD SWAP1 PUSH1 0x1 PUSH1 0x1 PUSH1 0xA0 SHL SUB DUP3 AND DUP3 SUB PUSH2 0x1AC JUMPI JUMP JUMPDEST SWAP1 PUSH1 0x5 DUP3 LT ISZERO PUSH2 0x1AB5 JUMPI MSTORE JUMP JUMPDEST SWAP1 PUSH1 0x6 DUP3 LT ISZERO PUSH2 0x1AB5 JUMPI MSTORE JUMP JUMPDEST PUSH1 0x60 SWAP1 PUSH1 0x3 NOT ADD SLT PUSH2 0x1AC JUMPI PUSH1 0x1 PUSH1 0x1 PUSH1 0xA0 SHL SUB SWAP1 PUSH1 0x4 CALLDATALOAD DUP3 DUP2 AND DUP2 SUB PUSH2 0x1AC JUMPI SWAP2 PUSH1 0x24 CALLDATALOAD SWAP1 DUP2 AND DUP2 SUB PUSH2 0x1AC JUMPI SWAP1 PUSH1 0x44 CALLDATALOAD SWAP1 JUMP JUMPDEST PUSH1 0x24 CALLDATALOAD SWAP1 DUP2 ISZERO ISZERO DUP3 SUB PUSH2 0x1AC JUMPI JUMP JUMPDEST SWAP1 PUSH1 0x1 DUP3 DUP2 SHR SWAP3 AND DUP1 ISZERO PUSH2 0x37D9 JUMPI JUMPDEST PUSH1 0x20 DUP4 LT EQ PUSH2 0x37C3 JUMPI JUMP JUMPDEST PUSH4 0x4E487B71 PUSH1 0xE0 SHL PUSH1 0x0 MSTORE PUSH1 0x22 PUSH1 0x4 MSTORE PUSH1 0x24 PUSH1 0x0 REVERT JUMPDEST SWAP2 PUSH1 0x7F AND SWAP2 PUSH2 0x37B8 JUMP JUMPDEST PUSH1 0xC0 DUP2 ADD SWAP1 DUP2 LT PUSH1 0x1 PUSH1 0x1 PUSH1 0x40 SHL SUB DUP3 GT OR PUSH2 0x1ACB JUMPI PUSH1 0x40 MSTORE JUMP JUMPDEST PUSH1 0xA0 DUP2 ADD SWAP1 DUP2 LT PUSH1 0x1 PUSH1 0x1 PUSH1 0x40 SHL SUB DUP3 GT OR PUSH2 0x1ACB JUMPI PUSH1 0x40 MSTORE JUMP JUMPDEST PUSH2 0x1A0 DUP2 ADD SWAP1 DUP2 LT PUSH1 0x1 PUSH1 0x1 PUSH1 0x40 SHL SUB DUP3 GT OR PUSH2 0x1ACB JUMPI PUSH1 0x40 MSTORE JUMP JUMPDEST PUSH1 0x40 DUP2 ADD SWAP1 DUP2 LT PUSH1 0x1 PUSH1 0x1 PUSH1 0x40 SHL SUB DUP3 GT OR PUSH2 0x1ACB JUMPI PUSH1 0x40 MSTORE JUMP JUMPDEST PUSH1 0x20 DUP2 ADD SWAP1 DUP2 LT PUSH1 0x1 PUSH1 0x1 PUSH1 0x40 SHL SUB DUP3 GT OR PUSH2 0x1ACB JUMPI PUSH1 0x40 MSTORE JUMP JUMPDEST PUSH1 0x60 DUP2 ADD SWAP1 DUP2 LT PUSH1 0x1 PUSH1 0x1 PUSH1 0x40 SHL SUB DUP3 GT OR PUSH2 0x1ACB JUMPI PUSH1 0x40 MSTORE JUMP JUMPDEST PUSH1 0xE0 DUP2 ADD SWAP1 DUP2 LT PUSH1 0x1 PUSH1 0x1 PUSH1 0x40 SHL SUB DUP3 GT OR PUSH2 0x1ACB JUMPI PUSH1 0x40 MSTORE JUMP JUMPDEST PUSH2 0x120 DUP2 ADD SWAP1 DUP2 LT PUSH1 0x1 PUSH1 0x1 PUSH1 0x40 SHL SUB DUP3 GT OR PUSH2 0x1ACB JUMPI PUSH1 0x40 MSTORE JUMP JUMPDEST SWAP1 PUSH1 0x1F DUP1 NOT SWAP2 ADD AND DUP2 ADD SWAP1 DUP2 LT PUSH1 0x1 PUSH1 0x1 PUSH1 0x40 SHL SUB DUP3 GT OR PUSH2 0x1ACB JUMPI PUSH1 0x40 MSTORE JUMP JUMPDEST SWAP1 PUSH1 0x40 MLOAD SWAP2 DUP3 PUSH1 0x0 DUP3 SLOAD SWAP3 PUSH2 0x38F2 DUP5 PUSH2 0x37A9 JUMP JUMPDEST SWAP1 DUP2 DUP5 MSTORE PUSH1 0x1 SWAP5 DUP6 DUP2 AND SWAP1 DUP2 PUSH1 0x0 EQ PUSH2 0x3961 JUMPI POP PUSH1 0x1 EQ PUSH2 0x391E JUMPI JUMPDEST POP POP PUSH2 0x391C SWAP3 POP SUB DUP4 PUSH2 0x38BD JUMP JUMPDEST JUMP JUMPDEST SWAP1 SWAP4 SWAP2 POP PUSH1 0x0 MSTORE PUSH1 0x20 SWAP1 DUP2 PUSH1 0x0 KECCAK256 SWAP4 PUSH1 0x0 SWAP2 JUMPDEST DUP2 DUP4 LT PUSH2 0x3949 JUMPI POP POP PUSH2 0x391C SWAP4 POP DUP3 ADD ADD CODESIZE DUP1 PUSH2 0x390E JUMP JUMPDEST DUP6 SLOAD DUP9 DUP5 ADD DUP6 ADD MSTORE SWAP5 DUP6 ADD SWAP5 DUP8 SWAP5 POP SWAP2 DUP4 ADD SWAP2 PUSH2 0x3931 JUMP JUMPDEST SWAP2 POP POP PUSH2 0x391C SWAP5 POP PUSH1 0x20 SWAP3 POP PUSH1 0xFF NOT AND DUP3 DUP5 ADD MSTORE ISZERO ISZERO PUSH1 0x5 SHL DUP3 ADD ADD CODESIZE DUP1 PUSH2 0x390E JUMP JUMPDEST SWAP1 PUSH1 0x40 MLOAD PUSH2 0x3991 DUP2 PUSH2 0x37E3 JUMP JUMPDEST PUSH1 0xA0 PUSH1 0x5 DUP3 SWAP5 DUP1 SLOAD DUP5 MSTORE PUSH1 0x1 DUP2 ADD SLOAD PUSH1 0x20 DUP6 ADD MSTORE PUSH1 0x2 DUP2 ADD SLOAD PUSH1 0x40 DUP6 ADD MSTORE PUSH1 0x3 DUP2 ADD SLOAD PUSH1 0x60 DUP6 ADD MSTORE PUSH1 0x4 DUP2 ADD SLOAD PUSH1 0x80 DUP6 ADD MSTORE ADD SLOAD SWAP2 ADD MSTORE JUMP JUMPDEST DUP1 SLOAD DUP3 LT ISZERO PUSH2 0x39E2 JUMPI PUSH1 0x0 MSTORE PUSH1 0x20 PUSH1 0x0 KECCAK256 ADD SWAP1 PUSH1 0x0 SWAP1 JUMP JUMPDEST PUSH4 0x4E487B71 PUSH1 0xE0 SHL PUSH1 0x0 MSTORE PUSH1 0x32 PUSH1 0x4 MSTORE PUSH1 0x24 PUSH1 0x0 REVERT JUMPDEST PUSH1 0x1 PUSH1 0x1 PUSH1 0x40 SHL SUB DUP2 GT PUSH2 0x1ACB JUMPI PUSH1 0x1F ADD PUSH1 0x1F NOT AND PUSH1 0x20 ADD SWAP1 JUMP JUMPDEST PUSH1 0xA SLOAD PUSH1 0x1 PUSH1 0x1 PUSH1 0xA0 SHL SUB AND CALLER SUB PUSH2 0x3A27 JUMPI JUMP JUMPDEST PUSH1 0x64 PUSH1 0x40 MLOAD PUSH3 0x461BCD PUSH1 0xE5 SHL DUP2 MSTORE PUSH1 0x20 PUSH1 0x4 DUP3 ADD MSTORE PUSH1 0x20 PUSH1 0x24 DUP3 ADD MSTORE PUSH32 0x4F776E61626C653A2063616C6C6572206973206E6F7420746865206F776E6572 PUSH1 0x44 DUP3 ADD MSTORE REVERT JUMPDEST PUSH1 0x1 PUSH1 0x1 PUSH1 0xA0 SHL SUB AND DUP1 ISZERO PUSH2 0x3A8B JUMPI PUSH1 0x0 MSTORE PUSH1 0x3 PUSH1 0x20 MSTORE PUSH1 0x40 PUSH1 0x0 KECCAK256 SLOAD SWAP1 JUMP JUMPDEST PUSH1 0x40 MLOAD PUSH3 0x461BCD PUSH1 0xE5 SHL DUP2 MSTORE PUSH1 0x20 PUSH1 0x4 DUP3 ADD MSTORE PUSH1 0x29 PUSH1 0x24 DUP3 ADD MSTORE PUSH32 0x4552433732313A2061646472657373207A65726F206973206E6F742061207661 PUSH1 0x44 DUP3 ADD MSTORE PUSH9 0x3634B21037BBB732B9 PUSH1 0xB9 SHL PUSH1 0x64 DUP3 ADD MSTORE PUSH1 0x84 SWAP1 REVERT JUMPDEST ISZERO PUSH2 0x3AE9 JUMPI JUMP JUMPDEST PUSH1 0x40 MLOAD PUSH3 0x461BCD PUSH1 0xE5 SHL DUP2 MSTORE PUSH1 0x20 PUSH1 0x4 DUP3 ADD MSTORE PUSH1 0x18 PUSH1 0x24 DUP3 ADD MSTORE PUSH32 0x4552433732313A20696E76616C696420746F6B656E2049440000000000000000 PUSH1 0x44 DUP3 ADD MSTORE PUSH1 0x64 SWAP1 REVERT JUMPDEST PUSH1 0x0 SWAP1 DUP2 MSTORE PUSH1 0x2 PUSH1 0x20 MSTORE PUSH1 0x40 SWAP1 KECCAK256 SLOAD PUSH1 0x1 PUSH1 0x1 PUSH1 0xA0 SHL SUB AND PUSH2 0x3B51 DUP2 ISZERO ISZERO PUSH2 0x3AE2 JUMP JUMPDEST SWAP1 JUMP JUMPDEST PUSH1 0x0 DUP2 DUP2 MSTORE PUSH1 0x2 PUSH1 0x20 MSTORE PUSH1 0x40 SWAP1 KECCAK256 SLOAD PUSH2 0x3B77 SWAP1 PUSH1 0x1 PUSH1 0x1 PUSH1 0xA0 SHL SUB AND ISZERO ISZERO PUSH2 0x3AE2 JUMP JUMPDEST PUSH1 0x0 SWAP1 DUP2 MSTORE PUSH1 0x4 PUSH1 0x20 MSTORE PUSH1 0x40 SWAP1 KECCAK256 SLOAD PUSH1 0x1 PUSH1 0x1 PUSH1 0xA0 SHL SUB AND SWAP1 JUMP JUMPDEST ISZERO PUSH2 0x3B99 JUMPI JUMP JUMPDEST PUSH1 0x40 MLOAD PUSH3 0x461BCD PUSH1 0xE5 SHL DUP2 MSTORE PUSH1 0x20 PUSH1 0x4 DUP3 ADD MSTORE PUSH1 0x2D PUSH1 0x24 DUP3 ADD MSTORE PUSH32 0x4552433732313A2063616C6C6572206973206E6F7420746F6B656E206F776E65 PUSH1 0x44 DUP3 ADD MSTORE PUSH13 0x1C881BDC88185C1C1C9BDD9959 PUSH1 0x9A SHL PUSH1 0x64 DUP3 ADD MSTORE PUSH1 0x84 SWAP1 REVERT JUMPDEST PUSH1 0x80 SWAP1 PUSH1 0x20 DUP2 MSTORE PUSH1 0x32 PUSH1 0x20 DUP3 ADD MSTORE PUSH32 0x4552433732313A207472616E7366657220746F206E6F6E204552433732315265 PUSH1 0x40 DUP3 ADD MSTORE PUSH18 0x31B2B4BB32B91034B6B83632B6B2B73A32B9 PUSH1 0x71 SHL PUSH1 0x60 DUP3 ADD MSTORE ADD SWAP1 JUMP JUMPDEST ISZERO PUSH2 0x3C4E JUMPI JUMP JUMPDEST PUSH1 0x40 MLOAD PUSH3 0x461BCD PUSH1 0xE5 SHL DUP2 MSTORE DUP1 PUSH2 0x3C67 PUSH1 0x4 DUP3 ADD PUSH2 0x3BF4 JUMP JUMPDEST SUB SWAP1 REVERT JUMPDEST SWAP1 PUSH1 0x1 PUSH1 0x1 PUSH1 0xA0 SHL SUB DUP1 DUP1 PUSH2 0x3C7F DUP5 PUSH2 0x3B2E JUMP JUMPDEST AND SWAP4 AND SWAP2 DUP4 DUP4 EQ SWAP4 DUP5 ISZERO PUSH2 0x3CB2 JUMPI JUMPDEST POP DUP4 ISZERO PUSH2 0x3C9C JUMPI JUMPDEST POP POP POP SWAP1 JUMP JUMPDEST PUSH2 0x3CA8 SWAP2 SWAP3 SWAP4 POP PUSH2 0x3B54 JUMP JUMPDEST AND EQ CODESIZE DUP1 DUP1 PUSH2 0x3C96 JUMP JUMPDEST SWAP1 SWAP4 POP PUSH1 0x0 MSTORE PUSH1 0x5 PUSH1 0x20 MSTORE PUSH1 0x40 PUSH1 0x0 KECCAK256 DUP3 PUSH1 0x0 MSTORE PUSH1 0x20 MSTORE PUSH1 0xFF PUSH1 0x40 PUSH1 0x0 KECCAK256 SLOAD AND SWAP3 CODESIZE PUSH2 0x3C8E JUMP JUMPDEST ISZERO PUSH2 0x3CE0 JUMPI JUMP JUMPDEST PUSH1 0x40 MLOAD PUSH3 0x461BCD PUSH1 0xE5 SHL DUP2 MSTORE PUSH1 0x20 PUSH1 0x4 DUP3 ADD MSTORE PUSH1 0x25 PUSH1 0x24 DUP3 ADD MSTORE PUSH32 0x4552433732313A207472616E736665722066726F6D20696E636F727265637420 PUSH1 0x44 DUP3 ADD MSTORE PUSH5 0x37BBB732B9 PUSH1 0xD9 SHL PUSH1 0x64 DUP3 ADD MSTORE PUSH1 0x84 SWAP1 REVERT JUMPDEST PUSH2 0x3D57 SWAP2 PUSH2 0x3D40 DUP5 PUSH2 0x3B2E JUMP JUMPDEST PUSH1 0x1 PUSH1 0x1 PUSH1 0xA0 SHL SUB SWAP4 DUP5 DUP5 AND SWAP4 SWAP2 DUP6 AND DUP5 EQ PUSH2 0x3CD9 JUMP JUMPDEST DUP4 DUP3 AND SWAP4 DUP5 ISZERO PUSH2 0x3EF2 JUMPI DUP4 SWAP2 DUP3 PUSH2 0x3E4F JUMPI POP PUSH2 0x3DA1 SWAP3 PUSH1 0x8 SLOAD DUP8 PUSH1 0x0 MSTORE PUSH1 0x9 PUSH1 0x20 MSTORE PUSH1 0x40 PUSH1 0x0 KECCAK256 SSTORE PUSH2 0x3D88 DUP8 PUSH2 0x4143 JUMP JUMPDEST DUP3 DUP7 SUB PUSH2 0x3E1C JUMPI JUMPDEST POP PUSH2 0x3D9A DUP7 PUSH2 0x3B2E JUMP JUMPDEST AND EQ PUSH2 0x3CD9 JUMP JUMPDEST PUSH32 0xDDF252AD1BE2C89B69C2B068FC378DAA952BA7F163C4A11628F55A4DF523B3EF PUSH1 0x0 DUP5 DUP2 MSTORE PUSH1 0x4 PUSH1 0x20 MSTORE PUSH1 0x40 DUP2 KECCAK256 PUSH1 0x1 PUSH1 0x1 PUSH1 0x60 SHL SUB PUSH1 0xA0 SHL SWAP1 DUP2 DUP2 SLOAD AND SWAP1 SSTORE DUP4 DUP3 MSTORE PUSH1 0x3 PUSH1 0x20 MSTORE PUSH1 0x40 DUP3 KECCAK256 PUSH1 0x0 NOT DUP2 SLOAD ADD SWAP1 SSTORE DUP5 DUP3 MSTORE PUSH1 0x40 DUP3 KECCAK256 PUSH1 0x1 DUP2 SLOAD ADD SWAP1 SSTORE DUP6 DUP3 MSTORE PUSH1 0x2 PUSH1 0x20 MSTORE DUP5 PUSH1 0x40 DUP4 KECCAK256 SWAP2 DUP3 SLOAD AND OR SWAP1 SSTORE DUP1 LOG4 JUMP JUMPDEST PUSH2 0x3E25 SWAP1 PUSH2 0x3A6B JUMP JUMPDEST PUSH1 0x40 PUSH1 0x0 DUP8 DUP2 MSTORE PUSH1 0x6 PUSH1 0x20 MSTORE DUP2 DUP2 KECCAK256 DUP4 DUP3 MSTORE PUSH1 0x20 MSTORE DUP9 DUP3 DUP3 KECCAK256 SSTORE DUP9 DUP2 MSTORE PUSH1 0x7 PUSH1 0x20 MSTORE KECCAK256 SSTORE CODESIZE PUSH2 0x3D90 JUMP JUMPDEST DUP6 DUP4 SUB PUSH2 0x3E61 JUMPI JUMPDEST POP PUSH2 0x3DA1 SWAP3 PUSH2 0x3D88 JUMP JUMPDEST PUSH2 0x3E6C SWAP2 SWAP3 POP PUSH2 0x3A6B JUMP JUMPDEST PUSH1 0x0 NOT DUP2 ADD SWAP2 SWAP1 DUP3 GT PUSH2 0x32D4 JUMPI PUSH2 0x3DA1 SWAP3 DUP5 SWAP3 PUSH1 0x0 SWAP1 DUP9 DUP3 MSTORE PUSH1 0x20 SWAP1 PUSH1 0x7 DUP3 MSTORE PUSH1 0x40 SWAP2 DUP3 DUP5 KECCAK256 SLOAD DUP3 DUP2 SUB PUSH2 0x3EBB JUMPI JUMPDEST POP DUP11 DUP5 MSTORE DUP4 DUP4 DUP2 KECCAK256 SSTORE DUP7 DUP5 MSTORE PUSH1 0x6 DUP2 MSTORE DUP3 DUP5 KECCAK256 SWAP2 DUP5 MSTORE MSTORE DUP2 KECCAK256 SSTORE SWAP3 PUSH2 0x3E57 JUMP JUMPDEST DUP8 DUP6 MSTORE PUSH1 0x6 DUP3 MSTORE DUP4 DUP6 KECCAK256 DUP4 DUP7 MSTORE DUP3 MSTORE DUP4 DUP6 KECCAK256 SLOAD DUP9 DUP7 MSTORE PUSH1 0x6 DUP4 MSTORE DUP5 DUP7 KECCAK256 DUP3 DUP8 MSTORE DUP4 MSTORE DUP1 DUP6 DUP8 KECCAK256 SSTORE DUP6 MSTORE PUSH1 0x7 DUP3 MSTORE DUP4 DUP6 KECCAK256 SSTORE CODESIZE PUSH2 0x3E9B JUMP JUMPDEST PUSH1 0x40 MLOAD PUSH3 0x461BCD PUSH1 0xE5 SHL DUP2 MSTORE PUSH1 0x20 PUSH1 0x4 DUP3 ADD MSTORE PUSH1 0x24 DUP1 DUP3 ADD MSTORE PUSH32 0x4552433732313A207472616E7366657220746F20746865207A65726F20616464 PUSH1 0x44 DUP3 ADD MSTORE PUSH4 0x72657373 PUSH1 0xE0 SHL PUSH1 0x64 DUP3 ADD MSTORE PUSH1 0x84 SWAP1 REVERT JUMPDEST SWAP2 SWAP3 SWAP1 SWAP2 DUP1 EXTCODESIZE ISZERO PUSH2 0x4058 JUMPI PUSH2 0x3F90 SWAP4 PUSH1 0x40 MLOAD SWAP1 DUP2 PUSH4 0xA85BD01 PUSH1 0xE1 SHL SWAP4 DUP5 DUP3 MSTORE CALLER PUSH1 0x4 DUP4 ADD MSTORE PUSH1 0x0 SWAP7 DUP8 PUSH1 0x24 DUP5 ADD MSTORE PUSH1 0x44 DUP4 ADD MSTORE PUSH1 0x80 PUSH1 0x64 DUP4 ADD MSTORE DUP2 DUP8 DUP2 PUSH1 0x20 SWAP11 DUP12 SWAP7 PUSH1 0x84 DUP4 ADD SWAP1 PUSH2 0x36FA JUMP JUMPDEST SUB SWAP3 PUSH1 0x1 PUSH1 0x1 PUSH1 0xA0 SHL SUB AND GAS CALL DUP5 SWAP2 DUP2 PUSH2 0x4014 JUMPI JUMPDEST POP PUSH2 0x4003 JUMPI POP POP POP RETURNDATASIZE PUSH1 0x0 EQ PUSH2 0x3FFB JUMPI RETURNDATASIZE PUSH2 0x3FBF DUP2 PUSH2 0x39F8 JUMP JUMPDEST SWAP1 PUSH2 0x3FCD PUSH1 0x40 MLOAD SWAP3 DUP4 PUSH2 0x38BD JUMP JUMPDEST DUP2 MSTORE DUP1 SWAP2 DUP4 RETURNDATASIZE SWAP3 ADD RETURNDATACOPY JUMPDEST DUP1 MLOAD SWAP2 DUP3 PUSH2 0x3FF8 JUMPI PUSH1 0x40 MLOAD PUSH3 0x461BCD PUSH1 0xE5 SHL DUP2 MSTORE DUP1 PUSH2 0x3C67 PUSH1 0x4 DUP3 ADD PUSH2 0x3BF4 JUMP JUMPDEST ADD REVERT JUMPDEST POP PUSH1 0x60 PUSH2 0x3FD7 JUMP JUMPDEST PUSH1 0x1 PUSH1 0x1 PUSH1 0xE0 SHL SUB NOT AND EQ SWAP3 POP SWAP1 POP JUMP JUMPDEST SWAP1 SWAP2 POP DUP6 DUP2 DUP2 RETURNDATASIZE DUP4 GT PUSH2 0x4051 JUMPI JUMPDEST PUSH2 0x402C DUP2 DUP4 PUSH2 0x38BD JUMP JUMPDEST DUP2 ADD SUB SLT PUSH2 0x404D JUMPI MLOAD PUSH1 0x1 PUSH1 0x1 PUSH1 0xE0 SHL SUB NOT DUP2 AND DUP2 SUB PUSH2 0x404D JUMPI SWAP1 CODESIZE PUSH2 0x3FA5 JUMP JUMPDEST DUP5 DUP1 REVERT JUMPDEST POP RETURNDATASIZE PUSH2 0x4022 JUMP JUMPDEST POP SWAP2 POP POP PUSH1 0x1 SWAP1 JUMP JUMPDEST SWAP3 SWAP4 SWAP2 SWAP1 DUP1 EXTCODESIZE ISZERO PUSH2 0x40DE JUMPI PUSH2 0x40B3 SWAP5 PUSH1 0x40 MLOAD DUP1 SWAP3 PUSH4 0xA85BD01 PUSH1 0xE1 SHL SWAP5 DUP6 DUP4 MSTORE CALLER PUSH1 0x4 DUP5 ADD MSTORE PUSH1 0x1 DUP1 PUSH1 0xA0 SHL SUB DUP1 SWAP9 AND PUSH1 0x24 DUP5 ADD MSTORE PUSH1 0x44 DUP4 ADD MSTORE PUSH1 0x80 PUSH1 0x64 DUP4 ADD MSTORE DUP2 DUP1 PUSH1 0x20 SWAP10 DUP11 SWAP6 PUSH1 0x84 DUP4 ADD SWAP1 PUSH2 0x36FA JUMP JUMPDEST SUB SWAP2 PUSH1 0x0 SWAP9 DUP10 SWAP2 AND GAS CALL DUP5 SWAP2 DUP2 PUSH2 0x4014 JUMPI POP PUSH2 0x4003 JUMPI POP POP POP RETURNDATASIZE PUSH1 0x0 EQ PUSH2 0x3FFB JUMPI RETURNDATASIZE PUSH2 0x3FBF DUP2 PUSH2 0x39F8 JUMP JUMPDEST POP POP SWAP2 POP POP PUSH1 0x1 SWAP1 JUMP JUMPDEST ISZERO PUSH2 0x40EF JUMPI JUMP JUMPDEST PUSH1 0x40 MLOAD PUSH3 0x461BCD PUSH1 0xE5 SHL DUP2 MSTORE PUSH1 0x20 PUSH1 0x4 DUP3 ADD MSTORE PUSH1 0x14 PUSH1 0x24 DUP3 ADD MSTORE PUSH20 0x125B9CDD59999A58DA595B9D081C185E5B595B9D PUSH1 0x62 SHL PUSH1 0x44 DUP3 ADD MSTORE PUSH1 0x64 SWAP1 REVERT JUMPDEST PUSH1 0x5 DUP3 LT ISZERO PUSH2 0x1AB5 JUMPI MSTORE JUMP JUMPDEST PUSH1 0x6 DUP3 LT ISZERO PUSH2 0x1AB5 JUMPI MSTORE JUMP JUMPDEST PUSH1 0x8 SLOAD PUSH1 0x1 PUSH1 0x40 SHL DUP2 LT ISZERO PUSH2 0x1ACB JUMPI PUSH1 0x1 DUP2 ADD DUP1 PUSH1 0x8 SSTORE DUP2 LT ISZERO PUSH2 0x39E2 JUMPI PUSH1 0x8 PUSH1 0x0 MSTORE PUSH32 0xF3F7A9FE364FAAB93B216DA50A3214154F22A0A2B415B23A84C8169E8B636EE3 ADD SSTORE JUMP JUMPDEST ISZERO PUSH2 0x4192 JUMPI JUMP JUMPDEST PUSH1 0x40 MLOAD PUSH3 0x461BCD PUSH1 0xE5 SHL DUP2 MSTORE PUSH1 0x20 PUSH1 0x4 DUP3 ADD MSTORE PUSH1 0x1C PUSH1 0x24 DUP3 ADD MSTORE PUSH32 0x4552433732313A20746F6B656E20616C7265616479206D696E74656400000000 PUSH1 0x44 DUP3 ADD MSTORE PUSH1 0x64 SWAP1 REVERT JUMPDEST PUSH1 0x40 MLOAD SWAP1 PUSH2 0x41E4 DUP3 PUSH2 0x37E3 JUMP JUMPDEST DUP2 PUSH1 0xA0 PUSH1 0x0 SWAP2 DUP3 DUP2 MSTORE DUP3 PUSH1 0x20 DUP3 ADD MSTORE DUP3 PUSH1 0x40 DUP3 ADD MSTORE DUP3 PUSH1 0x60 DUP3 ADD MSTORE DUP3 PUSH1 0x80 DUP3 ADD MSTORE ADD MSTORE JUMP JUMPDEST SWAP2 SWAP1 DUP3 ADD DUP1 SWAP3 GT PUSH2 0x32D4 JUMPI JUMP JUMPDEST SWAP1 PUSH1 0x6 DUP2 LT ISZERO PUSH2 0x39E2 JUMPI PUSH1 0x5 SHL ADD SWAP1 JUMP JUMPDEST PUSH1 0x40 MLOAD SWAP1 PUSH2 0x4234 DUP3 PUSH2 0x3835 JUMP JUMPDEST PUSH1 0x7 DUP3 MSTORE PUSH7 0x2BB0B93934B7B9 PUSH1 0xC9 SHL PUSH1 0x20 DUP4 ADD MSTORE JUMP JUMPDEST PUSH1 0x40 MLOAD SWAP1 PUSH2 0x4257 DUP3 PUSH2 0x3835 JUMP JUMPDEST PUSH1 0x8 DUP3 MSTORE PUSH8 0x20B9B9B0B9B9B4B7 PUSH1 0xC1 SHL PUSH1 0x20 DUP4 ADD MSTORE JUMP JUMPDEST PUSH1 0x40 MLOAD SWAP1 PUSH2 0x427B DUP3 PUSH2 0x3835 JUMP JUMPDEST PUSH1 0x4 DUP3 MSTORE PUSH4 0x4D616765 PUSH1 0xE0 SHL PUSH1 0x20 DUP4 ADD MSTORE JUMP JUMPDEST PUSH1 0x40 MLOAD SWAP1 PUSH2 0x429B DUP3 PUSH2 0x3835 JUMP JUMPDEST PUSH1 0x9 DUP3 MSTORE PUSH9 0x2132B939B2B935B2B9 PUSH1 0xB9 SHL PUSH1 0x20 DUP4 ADD MSTORE JUMP JUMPDEST PUSH1 0x40 MLOAD SWAP1 PUSH2 0x42C0 DUP3 PUSH2 0x3835 JUMP JUMPDEST PUSH1 0x8 DUP3 MSTORE PUSH8 0x23BAB0B93234B0B7 PUSH1 0xC1 SHL PUSH1 0x20 DUP4 ADD MSTORE JUMP JUMPDEST PUSH1 0x40 MLOAD SWAP1 PUSH2 0x42E4 DUP3 PUSH2 0x3835 JUMP JUMPDEST PUSH1 0x4 DUP3 MSTORE PUSH4 0x52617265 PUSH1 0xE0 SHL PUSH1 0x20 DUP4 ADD MSTORE JUMP JUMPDEST PUSH1 0x40 MLOAD SWAP1 PUSH2 0x4304 DUP3 PUSH2 0x3835 JUMP JUMPDEST PUSH1 0x4 DUP3 MSTORE PUSH4 0x45706963 PUSH1 0xE0 SHL PUSH1 0x20 DUP4 ADD MSTORE JUMP JUMPDEST PUSH1 0x40 MLOAD SWAP1 PUSH2 0x4324 DUP3 PUSH2 0x3835 JUMP JUMPDEST PUSH1 0x9 DUP3 MSTORE PUSH9 0x4C6567656E64617279 PUSH1 0xB8 SHL PUSH1 0x20 DUP4 ADD MSTORE JUMP JUMPDEST PUSH1 0x40 MLOAD SWAP1 PUSH2 0x4349 DUP3 PUSH2 0x3835 JUMP JUMPDEST PUSH1 0x6 DUP3 MSTORE PUSH6 0x4D7974686963 PUSH1 0xD0 SHL PUSH1 0x20 DUP4 ADD MSTORE JUMP JUMPDEST SWAP1 PUSH1 0x5 DUP2 LT ISZERO PUSH2 0x39E2 JUMPI PUSH1 0x5 SHL ADD SWAP1 JUMP JUMPDEST SWAP1 PUSH2 0x4379 DUP3 PUSH2 0x39F8 JUMP JUMPDEST PUSH2 0x4386 PUSH1 0x40 MLOAD SWAP2 DUP3 PUSH2 0x38BD JUMP JUMPDEST DUP3 DUP2 MSTORE DUP1 SWAP3 PUSH2 0x4397 PUSH1 0x1F NOT SWAP2 PUSH2 0x39F8 JUMP JUMPDEST ADD SWAP1 PUSH1 0x20 CALLDATASIZE SWAP2 ADD CALLDATACOPY JUMP JUMPDEST DUP1 PUSH1 0x0 SWAP2 PUSH27 0x184F03E93FF9F4DAA797ED6E38ED64BF6A1F010000000000000000 DUP1 DUP3 LT ISZERO PUSH2 0x44D6 JUMPI JUMPDEST POP PUSH14 0x4EE2D6D415B85ACEF8100000000 DUP1 DUP4 LT ISZERO PUSH2 0x44C7 JUMPI JUMPDEST POP PUSH7 0x2386F26FC10000 DUP1 DUP4 LT ISZERO PUSH2 0x44B8 JUMPI JUMPDEST POP PUSH4 0x5F5E100 DUP1 DUP4 LT ISZERO PUSH2 0x44A9 JUMPI JUMPDEST POP PUSH2 0x2710 DUP1 DUP4 LT ISZERO PUSH2 0x449A JUMPI JUMPDEST POP PUSH1 0x64 DUP3 LT ISZERO PUSH2 0x448A JUMPI JUMPDEST PUSH1 0xA DUP1 SWAP3 LT ISZERO PUSH2 0x4480 JUMPI JUMPDEST PUSH1 0x1 SWAP1 DUP2 PUSH1 0x21 PUSH2 0x4438 DUP3 DUP8 ADD PUSH2 0x436F JUMP JUMPDEST SWAP6 DUP7 ADD ADD SWAP1 JUMPDEST PUSH2 0x444A JUMPI JUMPDEST POP POP POP POP SWAP1 JUMP JUMPDEST PUSH1 0x0 NOT ADD SWAP1 DUP4 SWAP1 PUSH16 0x181899199A1A9B1B9C1CB0B131B232B3 PUSH1 0x81 SHL DUP3 DUP3 MOD BYTE DUP4 MSTORE8 DIV SWAP2 DUP3 ISZERO PUSH2 0x447B JUMPI SWAP2 SWAP1 DUP3 PUSH2 0x443E JUMP JUMPDEST PUSH2 0x4443 JUMP JUMPDEST SWAP2 PUSH1 0x1 ADD SWAP2 PUSH2 0x4427 JUMP JUMPDEST SWAP2 SWAP1 PUSH1 0x64 PUSH1 0x2 SWAP2 DIV SWAP2 ADD SWAP2 PUSH2 0x441C JUMP JUMPDEST PUSH1 0x4 SWAP2 SWAP4 SWAP3 DIV SWAP2 ADD SWAP2 CODESIZE PUSH2 0x4411 JUMP JUMPDEST PUSH1 0x8 SWAP2 SWAP4 SWAP3 DIV SWAP2 ADD SWAP2 CODESIZE PUSH2 0x4404 JUMP JUMPDEST PUSH1 0x10 SWAP2 SWAP4 SWAP3 DIV SWAP2 ADD SWAP2 CODESIZE PUSH2 0x43F5 JUMP JUMPDEST PUSH1 0x20 SWAP2 SWAP4 SWAP3 DIV SWAP2 ADD SWAP2 CODESIZE PUSH2 0x43E3 JUMP JUMPDEST PUSH1 0x40 SWAP4 POP DUP2 DIV SWAP2 POP CODESIZE PUSH2 0x43CA JUMP JUMPDEST ISZERO PUSH2 0x44EB JUMPI JUMP JUMPDEST PUSH1 0x40 MLOAD PUSH3 0x461BCD PUSH1 0xE5 SHL DUP2 MSTORE PUSH1 0x20 PUSH1 0x4 DUP3 ADD MSTORE PUSH1 0xD PUSH1 0x24 DUP3 ADD MSTORE PUSH13 0x2737BA103A34329037BBB732B9 PUSH1 0x99 SHL PUSH1 0x44 DUP3 ADD MSTORE PUSH1 0x64 SWAP1 REVERT JUMPDEST PUSH1 0x0 NOT DUP2 EQ PUSH2 0x32D4 JUMPI PUSH1 0x1 ADD SWAP1 JUMP JUMPDEST DUP1 MLOAD ISZERO PUSH2 0x466F JUMPI PUSH1 0x40 MLOAD SWAP1 PUSH2 0x4543 DUP3 PUSH2 0x386B JUMP JUMPDEST PUSH1 0x40 DUP3 MSTORE PUSH32 0x4142434445464748494A4B4C4D4E4F505152535455565758595A616263646566 PUSH1 0x20 DUP4 ADD MSTORE PUSH32 0x6768696A6B6C6D6E6F707172737475767778797A303132333435363738392B2F PUSH1 0x40 DUP4 ADD MSTORE DUP1 MLOAD PUSH1 0x2 SWAP2 DUP3 DUP3 ADD DUP1 SWAP3 GT PUSH2 0x32D4 JUMPI PUSH1 0x3 SWAP2 DUP3 SWAP1 DIV PUSH1 0x1 PUSH1 0x1 PUSH1 0xFE SHL SUB DUP2 AND DUP2 SUB PUSH2 0x32D4 JUMPI PUSH2 0x45C5 SWAP1 DUP5 SWAP6 SWAP5 SHL PUSH2 0x436F JUMP JUMPDEST SWAP4 PUSH1 0x20 DUP6 ADD SWAP4 DUP3 SWAP2 DUP4 MLOAD DUP5 ADD SWAP1 PUSH1 0x20 DUP3 ADD SWAP3 DUP4 MLOAD SWAP5 PUSH1 0x0 DUP6 MSTORE JUMPDEST DUP4 DUP2 LT PUSH2 0x461E JUMPI POP POP POP POP MSTORE MLOAD MOD DUP1 PUSH1 0x1 EQ PUSH2 0x460B JUMPI PUSH1 0x2 EQ PUSH2 0x4600 JUMPI POP SWAP1 JUMP JUMPDEST PUSH1 0x3D SWAP1 PUSH1 0x0 NOT ADD MSTORE8 SWAP1 JUMP JUMPDEST POP PUSH1 0x3D SWAP1 DUP2 PUSH1 0x0 NOT DUP3 ADD MSTORE8 PUSH1 0x1 NOT ADD MSTORE8 SWAP1 JUMP JUMPDEST DUP8 PUSH1 0x4 SWAP2 SWAP10 SWAP3 SWAP4 SWAP5 SWAP10 ADD SWAP2 DUP3 MLOAD PUSH1 0x1 SWAP1 PUSH1 0x3F SWAP1 DUP3 DUP3 DUP3 PUSH1 0x12 SHR AND DUP9 ADD ADD MLOAD DUP5 MSTORE8 DUP3 DUP3 DUP3 PUSH1 0xC SHR AND DUP9 ADD ADD MLOAD DUP4 DUP6 ADD MSTORE8 DUP3 DUP3 DUP3 PUSH1 0x6 SHR AND DUP9 ADD ADD MLOAD DUP9 DUP6 ADD MSTORE8 AND DUP6 ADD ADD MLOAD DUP10 DUP3 ADD MSTORE8 ADD SWAP8 SWAP3 SWAP2 SWAP1 PUSH2 0x45DF JUMP JUMPDEST POP PUSH1 0x40 MLOAD PUSH2 0x467C DUP2 PUSH2 0x3850 JUMP JUMPDEST PUSH1 0x0 DUP2 MSTORE SWAP1 JUMP JUMPDEST PUSH2 0x468D DUP3 DUP3 PUSH2 0x4209 JUMP JUMPDEST ISZERO PUSH2 0x46D4 JUMPI PUSH1 0x64 DUP2 MUL SWAP2 DUP2 DUP4 DIV PUSH1 0x64 EQ DUP3 ISZERO OR ISZERO PUSH2 0x32D4 JUMPI PUSH2 0x46AE SWAP2 PUSH2 0x4209 JUMP JUMPDEST DUP1 ISZERO PUSH2 0x46BE JUMPI PUSH2 0x3B51 SWAP2 DIV PUSH2 0x43A1 JUMP JUMPDEST PUSH4 0x4E487B71 PUSH1 0xE0 SHL PUSH1 0x0 MSTORE PUSH1 0x12 PUSH1 0x4 MSTORE PUSH1 0x24 PUSH1 0x0 REVERT JUMPDEST POP POP PUSH1 0x40 MLOAD PUSH2 0x46E2 DUP2 PUSH2 0x3835 JUMP JUMPDEST PUSH1 0x1 DUP2 MSTORE PUSH1 0x3 PUSH1 0xFC SHL PUSH1 0x20 DUP3 ADD MSTORE SWAP1 JUMP JUMPDEST PUSH1 0x40 MLOAD SWAP1 PUSH2 0x4700 DUP3 PUSH2 0x3835 JUMP JUMPDEST PUSH1 0x6 DUP3 MSTORE PUSH6 0x21B7B6B6B7B7 PUSH1 0xD1 SHL PUSH1 0x20 DUP4 ADD MSTORE JUMP JUMPDEST PUSH1 0x40 MLOAD SWAP1 PUSH2 0x4722 DUP3 PUSH2 0x3835 JUMP JUMPDEST PUSH1 0x8 DUP3 MSTORE PUSH8 0x2AB731B7B6B6B7B7 PUSH1 0xC1 SHL PUSH1 0x20 DUP4 ADD MSTORE JUMP JUMPDEST DUP1 PUSH2 0x47D5 JUMPI POP PUSH1 0x40 MLOAD PUSH1 0x0 DUP1 MLOAD PUSH1 0x20 PUSH2 0x57E8 DUP4 CODECOPY DUP2 MLOAD SWAP2 MSTORE PUSH1 0x20 DUP3 ADD MSTORE PUSH1 0x0 DUP1 MLOAD PUSH1 0x20 PUSH2 0x5808 DUP4 CODECOPY DUP2 MLOAD SWAP2 MSTORE PUSH1 0x39 DUP3 ADD MSTORE PUSH32 0x7565733D22312E3220302030203020302E3120203020302E3820302030203020 PUSH1 0x59 DUP3 ADD MSTORE PUSH32 0x2030203020302E38203020302020302030203020312030222F3E000000000000 PUSH1 0x79 DUP3 ADD MSTORE PUSH9 0x1E17B334B63A32B91F PUSH1 0xB9 SHL PUSH1 0x93 DUP3 ADD MSTORE PUSH1 0x7C DUP2 MSTORE PUSH2 0x3B51 DUP2 PUSH2 0x37FE JUMP JUMPDEST PUSH1 0x1 DUP2 SUB PUSH2 0x4874 JUMPI POP PUSH1 0x40 MLOAD PUSH1 0x0 DUP1 MLOAD PUSH1 0x20 PUSH2 0x57E8 DUP4 CODECOPY DUP2 MLOAD SWAP2 MSTORE PUSH1 0x20 DUP3 ADD MSTORE PUSH1 0x0 DUP1 MLOAD PUSH1 0x20 PUSH2 0x5808 DUP4 CODECOPY DUP2 MLOAD SWAP2 MSTORE PUSH1 0x39 DUP3 ADD MSTORE PUSH32 0x7565733D22302E39203020302E322030203020203020302E3720302E33203020 PUSH1 0x59 DUP3 ADD MSTORE PUSH32 0x302020302E31203020312E31203020302020302030203020312030222F3E0000 PUSH1 0x79 DUP3 ADD MSTORE PUSH9 0x1E17B334B63A32B91F PUSH1 0xB9 SHL PUSH1 0x97 DUP3 ADD MSTORE PUSH1 0x80 DUP2 MSTORE PUSH2 0x3B51 DUP2 PUSH2 0x37FE JUMP JUMPDEST PUSH1 0x2 DUP2 SUB PUSH2 0x4913 JUMPI POP PUSH1 0x40 MLOAD PUSH1 0x0 DUP1 MLOAD PUSH1 0x20 PUSH2 0x57E8 DUP4 CODECOPY DUP2 MLOAD SWAP2 MSTORE PUSH1 0x20 DUP3 ADD MSTORE PUSH1 0x0 DUP1 MLOAD PUSH1 0x20 PUSH2 0x5808 DUP4 CODECOPY DUP2 MLOAD SWAP2 MSTORE PUSH1 0x39 DUP3 ADD MSTORE PUSH32 0x7565733D22302E38203020302030203020203020302E3920302E312030203020 PUSH1 0x59 DUP3 ADD MSTORE PUSH32 0x20302E3220302E3120312E32203020302020302030203020312030222F3E0000 PUSH1 0x79 DUP3 ADD MSTORE PUSH9 0x1E17B334B63A32B91F PUSH1 0xB9 SHL PUSH1 0x97 DUP3 ADD MSTORE PUSH1 0x80 DUP2 MSTORE PUSH2 0x3B51 DUP2 PUSH2 0x37FE JUMP JUMPDEST PUSH1 0x3 SUB PUSH2 0x49B0 JUMPI PUSH1 0x40 MLOAD PUSH1 0x0 DUP1 MLOAD PUSH1 0x20 PUSH2 0x57E8 DUP4 CODECOPY DUP2 MLOAD SWAP2 MSTORE PUSH1 0x20 DUP3 ADD MSTORE PUSH1 0x0 DUP1 MLOAD PUSH1 0x20 PUSH2 0x5808 DUP4 CODECOPY DUP2 MLOAD SWAP2 MSTORE PUSH1 0x39 DUP3 ADD MSTORE PUSH32 0x7565733D22312E3320302E312030203020302E312020302E3120312E30203020 PUSH1 0x59 DUP3 ADD MSTORE PUSH32 0x302030202030203020302E37203020302020302030203020312030222F3E0000 PUSH1 0x79 DUP3 ADD MSTORE PUSH9 0x1E17B334B63A32B91F PUSH1 0xB9 SHL PUSH1 0x97 DUP3 ADD MSTORE PUSH1 0x80 DUP2 MSTORE PUSH2 0x3B51 DUP2 PUSH2 0x37FE JUMP JUMPDEST PUSH1 0x40 MLOAD PUSH1 0x0 DUP1 MLOAD PUSH1 0x20 PUSH2 0x57E8 DUP4 CODECOPY DUP2 MLOAD SWAP2 MSTORE PUSH1 0x20 DUP3 ADD MSTORE PUSH1 0x0 DUP1 MLOAD PUSH1 0x20 PUSH2 0x5808 DUP4 CODECOPY DUP2 MLOAD SWAP2 MSTORE PUSH1 0x39 DUP3 ADD MSTORE PUSH32 0x7565733D22302E3820302030203020302020302E3120312E3220302E31203020 PUSH1 0x59 DUP3 ADD MSTORE PUSH32 0x3020203020302E3120302E39203020302020302030203020312030222F3E0000 PUSH1 0x79 DUP3 ADD MSTORE PUSH9 0x1E17B334B63A32B91F PUSH1 0xB9 SHL PUSH1 0x97 DUP3 ADD MSTORE PUSH1 0x80 DUP2 MSTORE PUSH2 0x3B51 DUP2 PUSH2 0x37FE JUMP JUMPDEST PUSH32 0x3C66654D657267654E6F646520696E3D22536F7572636547726170686963222F DUP2 MSTORE PUSH1 0x1F PUSH1 0xF9 SHL PUSH1 0x20 DUP3 ADD MSTORE PUSH1 0x21 ADD SWAP1 JUMP JUMPDEST PUSH1 0x4 DUP2 LT PUSH2 0x4C06 JUMPI POP PUSH1 0x40 MLOAD PUSH32 0x3C66696C7465722069643D22676C6F772220783D222D3530252220793D222D35 PUSH1 0x20 DUP3 ADD MSTORE PUSH32 0x3025222077696474683D223230302522206865696768743D2232303025223E00 PUSH1 0x40 DUP3 ADD MSTORE PUSH32 0x3C6665476175737369616E426C757220737464446576696174696F6E3D223822 PUSH1 0x5F DUP3 ADD MSTORE PUSH2 0x3B51 PUSH1 0x13 DUP3 PUSH32 0x20726573756C743D22636F6C6F726564426C7572222F3E000000000000000000 DUP1 PUSH1 0x7F DUP4 ADD MSTORE PUSH9 0x1E3332A6B2B933B29F PUSH1 0xB9 SHL SWAP1 DUP2 PUSH1 0x96 DUP5 ADD MSTORE PUSH2 0x4BEF PUSH1 0x87 PUSH32 0x3C66654D657267654E6F646520696E3D22636F6C6F726564426C7572222F3E00 DUP1 PUSH1 0x9F DUP8 ADD MSTORE PUSH2 0x4B70 PUSH1 0xBE DUP8 ADD PUSH2 0x4A46 JUMP JUMPDEST SWAP1 PUSH10 0x1E17B332A6B2B933B29F PUSH1 0xB1 SHL SWAP6 DUP7 DUP4 MSTORE PUSH9 0x1E17B334B63A32B91F PUSH1 0xB9 SHL SWAP6 DUP7 PUSH1 0xA DUP6 ADD MSTORE PUSH21 0x1E3334B63A32B91034B21E9139B830B935B632911F PUSH1 0x59 SHL DUP11 DUP6 ADD MSTORE PUSH32 0x3C6665476175737369616E426C757220737464446576696174696F6E3D223422 PUSH1 0x28 DUP6 ADD MSTORE PUSH1 0x48 DUP5 ADD MSTORE PUSH1 0x5F DUP4 ADD MSTORE PUSH1 0x68 DUP3 ADD MSTORE ADD PUSH2 0x4A46 JUMP JUMPDEST SWAP2 DUP3 MSTORE PUSH1 0xA DUP3 ADD MSTORE SUB PUSH1 0xC NOT DUP2 ADD DUP5 MSTORE ADD DUP3 PUSH2 0x38BD JUMP JUMPDEST PUSH1 0x2 GT ISZERO PUSH2 0x4C1A JUMPI PUSH1 0x40 MLOAD PUSH2 0x467C DUP2 PUSH2 0x3850 JUMP JUMPDEST PUSH1 0x40 MLOAD PUSH2 0x4C26 DUP2 PUSH2 0x3886 JUMP JUMPDEST PUSH1 0xA5 DUP2 MSTORE PUSH32 0x3C66696C7465722069643D22676C6F77223E3C6665476175737369616E426C75 PUSH1 0x20 DUP3 ADD MSTORE PUSH32 0x7220737464446576696174696F6E3D22342220726573756C743D22636F6C6F72 PUSH1 0x40 DUP3 ADD MSTORE PUSH32 0x6564426C7572222F3E3C66654D657267653E3C66654D657267654E6F64652069 PUSH1 0x60 DUP3 ADD MSTORE PUSH32 0x6E3D22636F6C6F726564426C7572222F3E3C66654D657267654E6F646520696E PUSH1 0x80 DUP3 ADD MSTORE PUSH32 0x3D22536F7572636547726170686963222F3E3C2F66654D657267653E3C2F6669 PUSH1 0xA0 DUP3 ADD MSTORE PUSH5 0x363A32B91F PUSH1 0xD9 SHL PUSH1 0xC0 DUP3 ADD MSTORE SWAP1 JUMP JUMPDEST PUSH1 0x5 DUP2 SUB PUSH2 0x4E3A JUMPI POP PUSH1 0x40 MLOAD PUSH32 0x3C616E696D6174655472616E73666F726D2069643D22726F7461746522206174 PUSH1 0x20 DUP3 ADD MSTORE PUSH32 0x747269627574654E616D653D227472616E73666F726D2220747970653D22726F PUSH1 0x40 DUP3 ADD MSTORE PUSH32 0x74617465222076616C7565733D223020353132203531323B3336302035313220 PUSH1 0x60 DUP3 ADD MSTORE PUSH32 0x35313222206475723D223230732220726570656174436F756E743D22696E6465 PUSH1 0x80 DUP3 ADD MSTORE PUSH9 0x3334B734BA3291179F PUSH1 0xB9 SHL PUSH1 0xA0 DUP3 ADD MSTORE PUSH32 0x3C616E696D6174652069643D2270756C736522206174747269627574654E616D PUSH1 0xA9 DUP3 ADD MSTORE PUSH32 0x653D226F706163697479222076616C7565733D22302E383B313B302E38222064 PUSH1 0xC9 DUP3 ADD MSTORE PUSH32 0x75723D2233732220726570656174436F756E743D22696E646566696E69746522 PUSH1 0xE9 DUP3 ADD MSTORE PUSH2 0x179F PUSH1 0xF1 SHL PUSH2 0x109 DUP3 ADD MSTORE PUSH1 0xEB DUP2 MSTORE PUSH2 0x3B51 DUP2 PUSH2 0x38A1 JUMP JUMPDEST PUSH1 0x4 EQ PUSH2 0x4E4D JUMPI PUSH1 0x40 MLOAD PUSH2 0x467C DUP2 PUSH2 0x3850 JUMP JUMPDEST PUSH1 0x40 MLOAD PUSH2 0x4E59 DUP2 PUSH2 0x37FE JUMP JUMPDEST PUSH1 0x62 DUP2 MSTORE PUSH32 0x3C616E696D6174652069643D2270756C736522206174747269627574654E616D PUSH1 0x20 DUP3 ADD MSTORE PUSH32 0x653D226F706163697479222076616C7565733D22302E393B313B302E39222064 PUSH1 0x40 DUP3 ADD MSTORE PUSH32 0x75723D2234732220726570656174436F756E743D22696E646566696E69746522 PUSH1 0x60 DUP3 ADD MSTORE PUSH2 0x179F PUSH1 0xF1 SHL PUSH1 0x80 DUP3 ADD MSTORE SWAP1 JUMP JUMPDEST PUSH1 0x20 SWAP1 DUP2 ADD MLOAD DUP1 PUSH2 0x5028 JUMPI POP PUSH32 0x3C7265637420783D223438302220793D22323030222077696474683D22343022 PUSH1 0x40 MLOAD SWAP2 DUP3 ADD MSTORE PUSH32 0x206865696768743D22323030222066696C6C3D22234330433043302220737472 PUSH1 0x40 DUP3 ADD MSTORE PUSH32 0x6F6B653D222330303022207374726F6B652D77696474683D223422207472616E PUSH1 0x60 DUP3 ADD MSTORE PUSH32 0x73666F726D3D22726F74617465283135203530302033303029222F3E00000000 PUSH1 0x80 DUP3 ADD MSTORE PUSH32 0x3C7265637420783D223437302220793D22313830222077696474683D22363022 PUSH1 0x9C DUP3 ADD MSTORE PUSH32 0x206865696768743D223430222066696C6C3D222338423435313322207374726F PUSH1 0xBC DUP3 ADD MSTORE PUSH32 0x6B653D222330303022207374726F6B652D77696474683D223222207472616E73 PUSH1 0xDC DUP3 ADD MSTORE PUSH32 0x666F726D3D22726F74617465283135203530302032303029222F3E0000000000 PUSH1 0xFC DUP3 ADD MSTORE PUSH1 0xF7 DUP2 MSTORE PUSH2 0x3B51 DUP2 PUSH2 0x38A1 JUMP JUMPDEST PUSH1 0x1 DUP2 SUB PUSH2 0x50D8 JUMPI POP PUSH32 0x3C7061746820643D224D20343030203130302051203531322035302036323420 PUSH1 0x40 MLOAD SWAP2 DUP3 ADD MSTORE PUSH32 0x313030204C203632342033303020512035313220323530203430302033303020 PUSH1 0x40 DUP3 ADD MSTORE PUSH32 0x5A222066696C6C3D222332303030353222207374726F6B653D22233030302220 PUSH1 0x60 DUP3 ADD MSTORE PUSH32 0x7374726F6B652D77696474683D223422206F7061636974793D22302E38222F3E PUSH1 0x80 DUP3 ADD MSTORE PUSH1 0x80 DUP2 MSTORE PUSH2 0x3B51 DUP2 PUSH2 0x37FE JUMP JUMPDEST PUSH1 0x2 DUP2 SUB PUSH2 0x51F9 JUMPI POP PUSH32 0x3C706F6C79676F6E20706F696E74733D223531322C313530203435302C323530 PUSH1 0x40 MLOAD SWAP2 DUP3 ADD MSTORE PUSH32 0x203537342C323530222066696C6C3D222338333645463922207374726F6B653D PUSH1 0x40 DUP3 ADD MSTORE PUSH32 0x222330303022207374726F6B652D77696474683D2234222F3E00000000000000 PUSH1 0x60 DUP3 ADD MSTORE PUSH32 0x3C636972636C652063783D22343830222063793D223233302220723D22382220 PUSH1 0x79 DUP3 ADD MSTORE PUSH16 0x3334B6361E9111A323221B981811179F PUSH1 0x81 SHL DUP1 PUSH1 0x99 DUP4 ADD MSTORE PUSH32 0x3C636972636C652063783D22353434222063793D223233302220723D22382220 PUSH1 0xA9 DUP4 ADD MSTORE DUP1 PUSH1 0xC9 DUP4 ADD MSTORE PUSH32 0x3C636972636C652063783D22353132222063793D223230302220723D22382220 PUSH1 0xD9 DUP4 ADD MSTORE PUSH1 0xF9 DUP3 ADD MSTORE PUSH1 0xE9 DUP2 MSTORE PUSH2 0x3B51 DUP2 PUSH2 0x38A1 JUMP JUMPDEST PUSH1 0x3 SUB PUSH2 0x52D3 JUMPI PUSH32 0x3C7061746820643D224D2034353020323030204C2034373020313530204C2034 PUSH1 0x40 MLOAD SWAP2 DUP3 ADD MSTORE PUSH32 0x39302032303022207374726F6B653D222341303035354422207374726F6B652D PUSH1 0x40 DUP3 ADD MSTORE PUSH32 0x77696474683D2238222066696C6C3D226E6F6E65222F3E000000000000000000 DUP1 PUSH1 0x60 DUP4 ADD MSTORE PUSH32 0x3C7061746820643D224D2035333420323030204C2035353420313530204C2035 PUSH1 0x77 DUP4 ADD MSTORE PUSH32 0x37342032303022207374726F6B653D222341303035354422207374726F6B652D PUSH1 0x97 DUP4 ADD MSTORE PUSH1 0xB7 DUP3 ADD MSTORE PUSH1 0xAE DUP2 MSTORE PUSH2 0x3B51 DUP2 PUSH2 0x3886 JUMP JUMPDEST PUSH32 0x3C7265637420783D223430302220793D22323530222077696474683D22313230 PUSH1 0x40 MLOAD SWAP2 DUP3 ADD MSTORE PUSH32 0x22206865696768743D223830222066696C6C3D22234330433043302220737472 PUSH1 0x40 DUP3 ADD MSTORE PUSH32 0x6F6B653D222330303022207374726F6B652D77696474683D2234222F3E000000 PUSH1 0x60 DUP3 ADD MSTORE PUSH32 0x3C636972636C652063783D22343630222063793D223239302220723D22323022 PUSH1 0x7D DUP3 ADD MSTORE PUSH32 0x2066696C6C3D222338333645463922207374726F6B653D222330303022207374 PUSH1 0x9D DUP3 ADD MSTORE PUSH16 0x3937B5B296BBB4B23A341E911911179F PUSH1 0x81 SHL PUSH1 0xBD DUP3 ADD MSTORE PUSH1 0xAD DUP2 MSTORE PUSH2 0x3B51 DUP2 PUSH2 0x3886 JUMP JUMPDEST PUSH1 0x40 SWAP1 DUP2 ADD MLOAD PUSH1 0x5 DUP2 SUB PUSH2 0x55F6 JUMPI POP DUP1 MLOAD SWAP1 PUSH3 0x1E339F PUSH1 0xE9 SHL PUSH1 0x20 DUP4 ADD MSTORE PUSH32 0x3C636972636C652063783D22333030222063793D223330302220723D22342220 PUSH1 0x23 DUP4 ADD MSTORE PUSH32 0x66696C6C3D222346464437303022206F7061636974793D22302E38223E000000 PUSH1 0x43 DUP4 ADD MSTORE PUSH32 0x3C616E696D617465206174747269627574654E616D653D226F70616369747922 DUP1 PUSH1 0x60 DUP5 ADD MSTORE PUSH32 0x2076616C7565733D22303B313B3022206475723D223173222072657065617443 PUSH1 0x80 DUP5 ADD MSTORE PUSH19 0x37BAB73A1E9134B73232B334B734BA3291179F PUSH1 0x69 SHL SWAP1 DUP2 PUSH1 0xA0 DUP6 ADD MSTORE PUSH9 0x1E17B1B4B931B6329F PUSH1 0xB9 SHL SWAP1 DUP2 PUSH1 0xB3 DUP7 ADD MSTORE PUSH32 0x3C636972636C652063783D22373030222063793D223430302220723D22332220 PUSH1 0xBC DUP7 ADD MSTORE PUSH32 0x66696C6C3D222346464437303022206F7061636974793D22302E36223E000000 PUSH1 0xDC DUP7 ADD MSTORE DUP1 PUSH1 0xF9 DUP7 ADD MSTORE PUSH32 0x2076616C7565733D22303B313B3022206475723D22312E357322207265706561 PUSH2 0x119 DUP7 ADD MSTORE PUSH21 0x3A21B7BAB73A1E9134B73232B334B734BA3291179F PUSH1 0x59 SHL PUSH2 0x139 DUP7 ADD MSTORE DUP2 PUSH2 0x14E DUP7 ADD MSTORE PUSH32 0x3C636972636C652063783D22343030222063793D223630302220723D22352220 PUSH2 0x157 DUP7 ADD MSTORE PUSH32 0x66696C6C3D222346464437303022206F7061636974793D22302E37223E000000 PUSH2 0x177 DUP7 ADD MSTORE PUSH2 0x194 DUP6 ADD MSTORE PUSH32 0x2076616C7565733D22303B313B3022206475723D223273222072657065617443 PUSH2 0x1B4 DUP6 ADD MSTORE PUSH2 0x1D4 SWAP2 DUP3 DUP6 ADD MSTORE PUSH2 0x1E7 DUP5 ADD MSTORE PUSH4 0x1E17B39F PUSH1 0xE1 SHL PUSH2 0x1F0 DUP5 ADD MSTORE DUP3 MSTORE PUSH2 0x200 DUP3 ADD SWAP1 DUP3 DUP3 LT PUSH1 0x1 PUSH1 0x1 PUSH1 0x40 SHL SUB DUP4 GT OR PUSH2 0x1ACB JUMPI MSTORE SWAP1 JUMP JUMPDEST PUSH1 0x4 EQ PUSH2 0x5607 JUMPI MLOAD PUSH2 0x467C DUP2 PUSH2 0x3850 JUMP JUMPDEST PUSH32 0x222066696C6C3D226E6F6E6522207374726F6B653D2223464644373030222073 DUP2 MLOAD SWAP2 PUSH32 0x3C636972636C652063783D22353132222063793D223531322220723D22323030 PUSH1 0x20 DUP5 ADD MSTORE DUP3 ADD MSTORE PUSH32 0x74726F6B652D77696474683D223222206F7061636974793D22302E33223E0000 PUSH1 0x60 DUP3 ADD MSTORE PUSH32 0x3C616E696D617465206174747269627574654E616D653D2272222076616C7565 PUSH1 0x7E DUP3 ADD MSTORE PUSH32 0x733D223139303B3231303B31393022206475723D223473222072657065617443 PUSH1 0x9E DUP3 ADD MSTORE PUSH19 0x37BAB73A1E9134B73232B334B734BA3291179F PUSH1 0x69 SHL PUSH1 0xBE DUP3 ADD MSTORE PUSH9 0x1E17B1B4B931B6329F PUSH1 0xB9 SHL PUSH1 0xD1 DUP3 ADD MSTORE PUSH1 0xBA DUP2 MSTORE PUSH2 0x3B51 DUP2 PUSH2 0x3886 JUMP JUMPDEST PUSH1 0x40 MLOAD SWAP1 PUSH2 0x570E DUP3 PUSH2 0x3835 JUMP JUMPDEST PUSH1 0x7 DUP3 MSTORE PUSH7 0x2AB735B737BBB7 PUSH1 0xC9 SHL PUSH1 0x20 DUP4 ADD MSTORE JUMP JUMPDEST DUP1 ISZERO PUSH2 0x5774 JUMPI PUSH1 0x1 DUP2 EQ PUSH2 0x576B JUMPI PUSH1 0x2 DUP2 EQ PUSH2 0x5762 JUMPI PUSH1 0x3 DUP2 EQ PUSH2 0x5759 JUMPI PUSH1 0x4 EQ PUSH2 0x5751 JUMPI PUSH2 0x3B51 PUSH2 0x5701 JUMP JUMPDEST PUSH2 0x3B51 PUSH2 0x42B3 JUMP JUMPDEST POP PUSH2 0x3B51 PUSH2 0x428E JUMP JUMPDEST POP PUSH2 0x3B51 PUSH2 0x426E JUMP JUMPDEST POP PUSH2 0x3B51 PUSH2 0x424A JUMP JUMPDEST POP PUSH2 0x3B51 PUSH2 0x4227 JUMP JUMPDEST DUP1 ISZERO PUSH2 0x57DE JUMPI PUSH1 0x1 DUP2 EQ PUSH2 0x57D5 JUMPI PUSH1 0x2 DUP2 EQ PUSH2 0x57CC JUMPI PUSH1 0x3 DUP2 EQ PUSH2 0x57C3 JUMPI PUSH1 0x4 DUP2 EQ PUSH2 0x57BA JUMPI PUSH1 0x5 EQ PUSH2 0x57B2 JUMPI PUSH2 0x3B51 PUSH2 0x5701 JUMP JUMPDEST PUSH2 0x3B51 PUSH2 0x433C JUMP JUMPDEST POP PUSH2 0x3B51 PUSH2 0x4317 JUMP JUMPDEST POP PUSH2 0x3B51 PUSH2 0x42F7 JUMP JUMPDEST POP PUSH2 0x3B51 PUSH2 0x42D7 JUMP JUMPDEST POP PUSH2 0x3B51 PUSH2 0x4715 JUMP JUMPDEST POP PUSH2 0x3B51 PUSH2 0x46F3 JUMP INVALID EXTCODECOPY PUSH7 0x696C7465722069 PUSH5 0x3D22636C61 PUSH20 0x7346696C746572223E000000000000003C666543 PUSH16 0x6C6F724D617472697820747970653D22 PUSH14 0x6174726978222076616CA2646970 PUSH7 0x735822122011A4 PUSH8 0x7DB8A949A2677C38 PUSH25 0x4656071788D7FEC4F8A392C95264959649C228E864736F6C63 NUMBER STOP ADDMOD EQ STOP CALLER "},"methodIdentifiers":{"addExperience(uint256,uint256)":"5d240c58","approve(address,uint256)":"095ea7b3","balanceOf(address)":"70a08231","equipItems(uint256,uint256,uint256)":"5a6de6c6","getApproved(uint256)":"081812fc","getMonanimal(uint256)":"1a01da3f","getOwnerMonanimals(address)":"f2afec2f","healMonanimal(uint256)":"4f0fab16","healingPrice()":"9942f467","isApprovedForAll(address,address)":"e985e9c5","mint()":"1249c58b","mintPrice()":"6817c76c","monanimals(uint256)":"61f9f71f","name()":"06fdde03","owner()":"8da5cb5b","ownerMonanimals(address,uint256)":"aa66b47e","ownerOf(uint256)":"6352211e","renounceOwnership()":"715018a6","safeTransferFrom(address,address,uint256)":"42842e0e","safeTransferFrom(address,address,uint256,bytes)":"b88d4fde","setApprovalForAll(address,bool)":"a22cb465","setHealingPrice(uint256)":"894994c3","setMintPrice(uint256)":"f4a0a528","supportsInterface(bytes4)":"01ffc9a7","symbol()":"95d89b41","tokenByIndex(uint256)":"4f6ccce7","tokenOfOwnerByIndex(address,uint256)":"2f745c59","tokenURI(uint256)":"c87b56dd","totalSupply()":"18160ddd","transferFrom(address,address,uint256)":"23b872dd","transferOwnership(address)":"f2fde38b","updateBattleResult(uint256,bool)":"5f89525c","withdraw()":"3ccfd60b"}}}}}