{"contracts/TestSVGGenerator_Improved.sol":{"TestSVGGenerator_Improved":{"abi":[{"inputs":[],"name":"generateBerserkerSVG","outputs":[{"internalType":"string","name":"","type":"string"}],"stateMutability":"pure","type":"function"},{"inputs":[],"name":"generateGuardianSVG","outputs":[{"internalType":"string","name":"","type":"string"}],"stateMutability":"pure","type":"function"},{"inputs":[],"name":"generateMageSVG","outputs":[{"internalType":"string","name":"","type":"string"}],"stateMutability":"pure","type":"function"},{"inputs":[],"name":"generateTestSVG","outputs":[{"internalType":"string","name":"","type":"string"}],"stateMutability":"pure","type":"function"},{"inputs":[],"name":"generateWarriorSVG","outputs":[{"internalType":"string","name":"","type":"string"}],"stateMutability":"pure","type":"function"}],"evm":{"bytecode":{"linkReferences":{},"object":"60808060405234610016576124b2908161001c8239f35b600080fdfe6101206040818152600436101561001557600080fd5b600060e0928135841c9081636f5495ef1461037a5750806381ffd02a146102b057806392be23991461020057806396d9ac6e146101335763b041c99b1461005b57600080fd5b346101305780600319360112610130575061012161012c92605a83519161008183610477565b845161008c816104aa565b600b81526a417263616e65204d61676560a81b6020820152835260026020840152600385840152600c606084015260786080840152605560a0840152604660c084015282015260a0610100820152606e61012082015282516100ed816104aa565b600c81526b707572706c652d626572727960a01b6020820152610140820152600861016082015260026101808201526105d5565b90519182918261044b565b0390f35b80fd5b50346101305780600319360112610130575061012161012c92606e83519161015a83610477565b8451610165816104aa565b600e81526d2930b3b2902132b939b2b935b2b960911b60208201528352600360208401526002858401526008606084015260646080840152608c60a0840152603c60c08401528201526028610100820152605061012082015282516101c9816104aa565b600f81526e1c1d5c9c1b194b59dc98591a595b9d608a1b6020820152610140820152600f61016082015260056101808201526105d5565b5091346102ac57826003193601126102ac5761012c9260556101219284519261022884610477565b8551610233816104aa565b600d81526c57617272696f7220416c70686160981b602082015284526020840152600485840152600f606084015260b46080840152607860a0840152606e60c0840152820152603c610100820152604b610120820152610291610f2a565b610140820152600c61016082015260036101808201526105d5565b8280fd5b50346101305780600319360112610130575061012161012c92603c8351916102d783610477565b84516102e2816104aa565b600f81526e29b434b2b6321023bab0b93234b0b760891b60208201528352600460208401526001858401526005606084015260966080840152604660a0840152608260c0840152820152603261010082015260466101208201528251610347816104aa565b600b81526a626c75652d707572706c6560a81b6020820152610140820152600361016082015260016101808201526105d5565b838584346101305780600319360112610130575082608c610121926103a161012c96610477565b84516103ac816104aa565b600f81526e29b430b237bb9020b9b9b0b9b9b4b760891b602082015283526001602084015260058584015260146060840152816080840152609660a0840152605060c0840152820152605a610100820152605f61012082015261040d6105ac565b610140820152601961016082015260016101808201526105d5565b60005b83811061043b5750506000910152565b818101518382015260200161042b565b6040916020825261046b8151809281602086015260208686019101610428565b601f01601f1916010190565b6101a0810190811067ffffffffffffffff82111761049457604052565b634e487b7160e01b600052604160045260246000fd5b6040810190811067ffffffffffffffff82111761049457604052565b6060810190811067ffffffffffffffff82111761049457604052565b60e0810190811067ffffffffffffffff82111761049457604052565b6020810190811067ffffffffffffffff82111761049457604052565b6080810190811067ffffffffffffffff82111761049457604052565b60c0810190811067ffffffffffffffff82111761049457604052565b60a0810190811067ffffffffffffffff82111761049457604052565b90601f8019910116810190811067ffffffffffffffff82111761049457604052565b67ffffffffffffffff811161049457601f01601f191660200190565b604051906105b9826104aa565b600d82526c636f736d69632d707572706c6560981b6020830152565b6101408101516105e490610fef565b60408201516105f2906112ab565b9060405180926020820192651e3232b3399f60d11b84528051908160268501916020019161061f92610428565b82018151918260268301916020019161063792610428565b0160268101661e17b232b3399f60c91b905203600d81018352602d0161065d908361056e565b6040519261066a846104c6565b603084527f3c726563742077696474683d2234303022206865696768743d2234303022206660208501526f34b6361e913ab9361411b1339491179f60811b60408501526106b68161148d565b60208201516106c4906117a3565b6040518091602082017f3c636972636c652063783d22313735222063793d223138302220723d2231382290527f2066696c6c3d222346464646464622206f7061636974793d22302e39222f3e00806040840152605f83017f3c636972636c652063783d22323235222063793d223138302220723d223138229052607f830152609e82017f3c636972636c652063783d22313735222063793d223138302220723d22313022905270103334b6361e911198181818181811179f60791b8060be84015260cf83017f3c636972636c652063783d22323235222063793d223138302220723d22313022905260ef83015261010082017f3c636972636c652063783d22313738222063793d223137372220723d2233222090526f3334b6361e9111a3232323232311179f60811b8061012084015261013083017f3c636972636c652063783d22323238222063793d223137372220723d223322209052610150830152805190816101608401916020019161083992610428565b8101036101408101825261016001610851908261056e565b61085a83611a09565b9161086484611dde565b93805190606081015161087690612109565b91602082015161088590612294565b90604083015161089490612375565b9060808401516108a390612109565b9060a08501516108b290612109565b9060c08601516108c190612109565b9160e08701516108d090612109565b936101008801516108e090612109565b956101208901516108f090612109565b976101608a015161090090612109565b99610180015161090f90612109565b9a60405180610100526020017f3c7265637420783d2231302220793d22333230222077696474683d22333830229052610100516040017f206865696768743d223730222066696c6c3d2223303030303030222066696c6c9052610100516060017f2d6f7061636974793d22302e38222072783d2235222f3e0000000000000000009052610100516077017f3c7465787420783d2232302220793d22333430222066696c6c3d22234646464690527f46462220666f6e742d66616d696c793d22417269616c2c2073616e732d736572958661010051609701526101005160b7017f69662220666f6e742d73697a653d2231342220666f6e742d7765696768743d229052653137b632111f60d11b6101005160d70152805190816101005160dd019160200191610a3c92610428565b61010051018060e052661e17ba32bc3a1f60c91b908160c05260dd015260e05160e4017f3c7465787420783d2232302220793d22333535222066696c6c3d222338333645905260e051610104017f46392220666f6e742d66616d696c793d22417269616c2c2073616e732d736572905260e051610124017f69662220666f6e742d73697a653d223131223e4c6576656c2000000000000000905261013d90816080528051809260e051019160200191610af492610428565b60e05101620103e160ed1b8060a0526080518201528151918261014083019160200191610b2092610428565b0160a05161014082015281519061014392828483019160200191610b4392610428565b019060c0519082015261014a81017f3c7465787420783d2232302220793d22333730222066696c6c3d22234646464690528361016a8201527534b311103337b73a16b9b4bd329e911898111f24281d60511b61018a8201528151906101a092828483019160200191610bb492610428565b01908101641020aa259d60d91b90528151906101a592828483019160200191610bdc92610428565b0190810164102222a31d60d91b90528251906101aa93828583019160200191610c0492610428565b019160c051908301526101b182017f3c7465787420783d2232302220793d22333833222066696c6c3d22234646464690526101d18201526101f181017f69662220666f6e742d73697a653d223130223e5350443a000000000000000000905281519061020892828483019160200191610c7c92610428565b01908101641026a0a39d60d91b905281519061020d92828483019160200191610ca492610428565b0190810164102621a59d60d91b905281519061021292828483019160200191610ccc92610428565b019060c0519082015261021981017f3c7465787420783d223238302220793d22333730222066696c6c3d222341303090527f3535442220666f6e742d66616d696c793d22417269616c2c2073616e732d7365908161023982015261025981017f7269662220666f6e742d73697a653d223130223e57696e733a20000000000000905282519061027393828583019160200191610d6792610428565b019160c0519083015261027a82017f3c7465787420783d223238302220793d22333833222066696c6c3d2223413030905261029a8201526102ba81017f7269662220666f6e742d73697a653d223130223e4c6f737365733a200000000090528151906102d692828483019160200191610ddf92610428565b019060c0519082015261010051809103906102bd820190526102dd016101005190610e099161056e565b604051968796602088017f3c7376672077696474683d2234303022206865696768743d223430302220786d9052604088017f6c6e733d22687474703a2f2f7777772e77332e6f72672f323030302f73766722905260608801601f60f91b90525160619681888a01610e7992610428565b8701815191828883019160200191610e9092610428565b01815191828783019160200191610ea692610428565b01815191828683019160200191610ebc92610428565b01815191828583019160200191610ed292610428565b01815191828483019160200191610ee892610428565b016101005190815191828483019160200191610f0392610428565b01908101651e17b9bb339f60d11b905203604781018252606701610f27908261056e565b90565b60405190610f37826104aa565b600b82526a707572706c652d626c756560a81b6020830152565b7f3c6c696e6561724772616469656e742069643d226267222078313d223025222081527f79313d223025222078323d2231303025222079323d2231303025223e000000006020820152603c0190565b7f3c6c696e6561724772616469656e742069643d22626f6479222078313d22302581527f222079313d223025222078323d2231303025222079323d2231303025223e00006020820152603e0190565b8051602091828101918220611002610f2a565b8051908501200361119b575050610f27601160405183611189603e6110cd61107e61102f86998701610f51565b7f3c73746f70206f66667365743d22302522207374796c653d2273746f702d636f81527f6c6f723a233833364546393b73746f702d6f7061636974793a3122202f3e00006020820152603e0190565b7f3c73746f70206f66667365743d223130302522207374796c653d2273746f702d81527f636f6c6f723a233230303035323b73746f702d6f7061636974793a3122202f3e602082015260400190565b927f6c6f723a234130303535443b73746f702d6f7061636974793a3122202f3e000061111287701e17b634b732b0b923b930b234b2b73a1f60791b9687815201610fa0565b917f3c73746f70206f66667365743d22302522207374796c653d2273746f702d636f8352820152017f3c73746f70206f66667365743d223130302522207374796c653d2273746f702d81527f636f6c6f723a233833364546393b73746f702d6f7061636974793a3122202f3e602082015260400190565b90815203600e1981018452018261056e565b5190206111a66105ac565b8281519101201461124557610f27601161102f9261121c6111cd6040519586938401610f51565b7f3c73746f70206f66667365743d223130302522207374796c653d2273746f702d81527f636f6c6f723a234642464146393b73746f702d6f7061636974793a3122202f3e602082015260400190565b61118961107e61102f85701e17b634b732b0b923b930b234b2b73a1f60791b9485815201610fa0565b610f276011603e9261128260405194827f6c6f723a233230303035323b73746f702d6f7061636974793a3122202f3e000061111288958601610f51565b6111896111cd61102f85701e17b634b732b0b923b930b234b2b73a1f60791b9485815201610fa0565b6004811061139357506040516112c0816104e2565b60a581527f3c66696c7465722069643d22676c6f77223e3c6665476175737369616e426c7560208201527f7220737464446576696174696f6e3d22342220726573756c743d22636f6c6f7260408201527f6564426c7572222f3e3c66654d657267653e3c66654d657267654e6f6465206960608201527f6e3d22636f6c6f726564426c7572222f3e3c66654d657267654e6f646520696e60808201527f3d22536f7572636547726170686963222f3e3c2f66654d657267653e3c2f666960a082015264363a32b91f60d91b60c082015290565b600211156113ae576040516113a7816104fe565b6000815290565b6040516113ba816104e2565b60a581527f3c66696c7465722069643d22676c6f77223e3c6665476175737369616e426c7560208201527f7220737464446576696174696f6e3d22322220726573756c743d22636f6c6f7260408201527f6564426c7572222f3e3c66654d657267653e3c66654d657267654e6f6465206960608201527f6e3d22636f6c6f726564426c7572222f3e3c66654d657267654e6f646520696e60808201527f3d22536f7572636547726170686963222f3e3c2f66654d657267653e3c2f666960a082015264363a32b91f60d91b60c082015290565b604081810151600090600211611790575080516114a9816104aa565b6014815273103334b63a32b91e913ab9361411b3b637bb949160611b60208201525b6020928301518061156c575081606a916115517f22206865696768743d22313230222066696c6c3d2275726c2823626f6479292295610f2795519687947f3c7265637420783d223135302220793d22313530222077696474683d22313030838701528501526710393c1e91189a9160c11b60608501528251928391606886019101610428565b810161179f60f11b606882015203604a81018452018261056e565b600181036115f9575081605e916115de7f30222072793d223730222066696c6c3d2275726c2823626f647929220000000095610f2795519687947f3c656c6c697073652063783d22323030222063793d22323130222072783d2235838701528501528251928391605c86019101610428565b810161179f60f11b605c82015203603e81018452018261056e565b6002810361167b575081605491611660610f2794519586937f3c636972636c652063783d22323030222063793d223230302220723d223630228286015271103334b6361e913ab9361411b137b23c949160711b908501528251928391605286019101610428565b810161179f60f11b605282015203603481018452018261056e565b919290916003036117165782610f27926116fb6065937f203230302c323630203134302c323030222066696c6c3d2275726c2823626f6496519687947f3c706f6c79676f6e20706f696e74733d223230302c313430203236302c32303083870152850152623c949160e91b60608501528251928391606386019101610428565b810161179f60f11b606382015203604581018452018261056e565b82610f2792611551606a937f22206865696768743d22313230222066696c6c3d2275726c2823626f6479292296519687947f3c7265637420783d223134302220793d22313430222077696474683d22313230838701528501526710393c1e91191a9160c11b60608501528251928391606886019101610428565b81519061179c826104fe565b81526114cb565b8061182357506040516117b58161051a565b605281527f3c7061746820643d224d2031383520323130205120323030203232302032313560208201527f2032313022207374726f6b653d222330303022207374726f6b652d77696474686040820152711e911911103334b6361e913737b73291179f60711b606082015290565b600181036118a657506040516118388161051a565b605281527f3c7061746820643d224d2031393020323130205120323030203231352032313060208201527f2032313022207374726f6b653d222330303022207374726f6b652d77696474686040820152711e911911103334b6361e913737b73291179f60711b606082015290565b6002810361190e57506040516118bb816104c6565b603981527f3c656c6c697073652063783d22323030222063793d22323130222072783d223860208201527f222072793d2234222066696c6c3d2223303030303030222f3e00000000000000604082015290565b60030361198f576040516119218161051a565b605281527f3c7061746820643d224d2031383520323135205120323030203230352032313560208201527f2032313522207374726f6b653d222330303022207374726f6b652d77696474686040820152711e911991103334b6361e913737b73291179f60711b606082015290565b60405161199b8161051a565b605281527f3c7061746820643d224d2031383520323130205120323030203231382032313560208201527f2032313022207374726f6b653d222330303022207374726f6b652d77696474686040820152711e911911103334b6361e913737b73291179f60711b606082015290565b60209081015180611b0857507f3c7265637420783d223238302220793d22313230222077696474683d22382220604051918201527f6865696768743d223630222066696c6c3d222343304330433022207472616e7360408201527f666f726d3d22726f74617465283135203238342031353029222f3e000000000060608201527f3c7265637420783d223237362220793d22313130222077696474683d22313622607b8201527f206865696768743d223135222066696c6c3d222338423435313322207472616e609b8201527f73666f726d3d22726f74617465283135203238342031313729222f3e0000000060bb82015260b78152610f27816104e2565b60018103611ba057507f3c7061746820643d224d2031363020313430205120323030203132302032343060405191611b3f83610552565b606283528201527f20313430204c203234302031383020512032303020313630203136302031383060408201527f205a222066696c6c3d222332303030353222206f7061636974793d22302e3722606082015261179f60f11b608082015290565b60028103611c6f57507f3c706f6c79676f6e20706f696e74733d223230302c313230203137302c313630604051918201527f203233302c313630222066696c6c3d2223383336454639222f3e00000000000060408201527f3c636972636c652063783d22313835222063793d223135352220723d22342220605a8201526f3334b6361e9111a323221b981811179f60811b80607a8301527f3c636972636c652063783d22323135222063793d223135352220723d22342220608a83015260aa820152609a8152610f2781610536565b600303611d1d577f3c706f6c79676f6e20706f696e74733d223137302c313530203137352c313330604051918201527f203138302c313530222066696c6c3d2223413030353544222f3e00000000000060408201527f3c706f6c79676f6e20706f696e74733d223232302c313530203232352c313330605a8201527f203233302c313530222066696c6c3d2223413030353544222f3e000000000000607a82015260748152610f2781610552565b7f3c656c6c697073652063783d22313230222063793d22323030222072783d2232604051918201527f35222072793d223335222066696c6c3d222343304330433022207374726f6b6560408201527f3d222330303022207374726f6b652d77696474683d2232222f3e00000000000060608201527f3c636972636c652063783d22313230222063793d223230302220723d22313022607a82015270103334b6361e91119c199b22a31c91179f60791b609a820152608b8152610f2781610536565b6040908101516005810361200157508051907f3c636972636c652063783d22313230222063793d223132302220723d2232222060208301527f66696c6c3d222346464437303022206f7061636974793d22302e38223e000000818301527f3c616e696d617465206174747269627574654e616d653d226f7061636974792280605d8401527f2076616c7565733d22303b313b3022206475723d223173222072657065617443607d8401527237bab73a1e9134b73232b334b734ba3291179f60691b80609d850152681e17b1b4b931b6329f60b91b918260b08601527f3c636972636c652063783d22323830222063793d223135302220723d2232222060b98601527f66696c6c3d222346464437303022206f7061636974793d22302e36223e00000060d98601528060f68601527f2076616c7565733d22303b313b3022206475723d22312e357322207265706561610116860152743a21b7bab73a1e9134b73232b334b734ba3291179f60591b6101368601528261014b8601527f3c636972636c652063783d22313530222063793d223330302220723d223222206101548601527f66696c6c3d222346464437303022206f7061636974793d22302e37223e0000006101748601526101918501527f2076616c7565733d22303b313b3022206475723d2232732220726570656174436101b18501526101d18401526101e48301526101cd825261020082019082821067ffffffffffffffff831117610494575290565b60041461201257516113a7816104fe565b7f2066696c6c3d226e6f6e6522207374726f6b653d2223464644373030222073748151917f3c636972636c652063783d22323030222063793d223230302220723d2238302260208401528201527f726f6b652d77696474683d223122206f7061636974793d22302e33223e00000060608201527f3c616e696d617465206174747269627574654e616d653d2272222076616c7565607d8201527f733d2237353b38353b373522206475723d2233732220726570656174436f756e609d8201526f3a1e9134b73232b334b734ba3291179f60811b60bd820152681e17b1b4b931b6329f60b91b60cd82015260b68152610f27816104e2565b806000917a184f03e93ff9f4daa797ed6e38ed64bf6a1f01000000000000000080821015612263575b506d04ee2d6d415b85acef810000000080831015612254575b50662386f26fc1000080831015612245575b506305f5e10080831015612236575b5061271080831015612227575b506064821015612217575b600a8092101561220d575b600190816021818601956121a287610590565b966121b0604051988961056e565b8088526121bf601f1991610590565b01366020890137860101905b6121d7575b5050505090565b600019019083906f181899199a1a9b1b9c1cb0b131b232b360811b8282061a835304918215612208579190826121cb565b6121d0565b916001019161218f565b9190606460029104910191612184565b60049193920491019138612179565b6008919392049101913861216c565b6010919392049101913861215d565b6020919392049101913861214b565b604093508104915038612132565b6040519061227e826104aa565b60078252662ab735b737bbb760c91b6020830152565b8015612351576001811461232c576002811461230b57600381146122e5576004146122c157610f27612271565b6040516122cd816104aa565b600881526723bab0b93234b0b760c11b602082015290565b506040516122f2816104aa565b60098152682132b939b2b935b2b960b91b602082015290565b50604051612318816104aa565b60048152634d61676560e01b602082015290565b50604051612339816104aa565b600881526720b9b9b0b9b9b4b760c11b602082015290565b5060405161235e816104aa565b60078152662bb0b93934b7b960c91b602082015290565b80156124595760018114612434576002811461241357600381146123f257600481146123cc576005146123aa57610f27612271565b6040516123b6816104aa565b60068152654d797468696360d01b602082015290565b506040516123d9816104aa565b60098152684c6567656e6461727960b81b602082015290565b506040516123ff816104aa565b60048152634570696360e01b602082015290565b50604051612420816104aa565b60048152635261726560e01b602082015290565b50604051612441816104aa565b60088152672ab731b7b6b6b7b760c11b602082015290565b50604051612466816104aa565b600681526521b7b6b6b7b760d11b60208201529056fea2646970667358221220b90929dec1be1f63844f5cc62ecfada21fb54039c46198ec61405fbeeb12bed864736f6c63430008140033","opcodes":"PUSH1 0x80 DUP1 PUSH1 0x40 MSTORE CALLVALUE PUSH2 0x16 JUMPI PUSH2 0x24B2 SWAP1 DUP2 PUSH2 0x1C DUP3 CODECOPY RETURN JUMPDEST PUSH1 0x0 DUP1 REVERT INVALID PUSH2 0x120 PUSH1 0x40 DUP2 DUP2 MSTORE PUSH1 0x4 CALLDATASIZE LT ISZERO PUSH2 0x15 JUMPI PUSH1 0x0 DUP1 REVERT JUMPDEST PUSH1 0x0 PUSH1 0xE0 SWAP3 DUP2 CALLDATALOAD DUP5 SHR SWAP1 DUP2 PUSH4 0x6F5495EF EQ PUSH2 0x37A JUMPI POP DUP1 PUSH4 0x81FFD02A EQ PUSH2 0x2B0 JUMPI DUP1 PUSH4 0x92BE2399 EQ PUSH2 0x200 JUMPI DUP1 PUSH4 0x96D9AC6E EQ PUSH2 0x133 JUMPI PUSH4 0xB041C99B EQ PUSH2 0x5B JUMPI PUSH1 0x0 DUP1 REVERT JUMPDEST CALLVALUE PUSH2 0x130 JUMPI DUP1 PUSH1 0x3 NOT CALLDATASIZE ADD SLT PUSH2 0x130 JUMPI POP PUSH2 0x121 PUSH2 0x12C SWAP3 PUSH1 0x5A DUP4 MLOAD SWAP2 PUSH2 0x81 DUP4 PUSH2 0x477 JUMP JUMPDEST DUP5 MLOAD PUSH2 0x8C DUP2 PUSH2 0x4AA JUMP JUMPDEST PUSH1 0xB DUP2 MSTORE PUSH11 0x417263616E65204D616765 PUSH1 0xA8 SHL PUSH1 0x20 DUP3 ADD MSTORE DUP4 MSTORE PUSH1 0x2 PUSH1 0x20 DUP5 ADD MSTORE PUSH1 0x3 DUP6 DUP5 ADD MSTORE PUSH1 0xC PUSH1 0x60 DUP5 ADD MSTORE PUSH1 0x78 PUSH1 0x80 DUP5 ADD MSTORE PUSH1 0x55 PUSH1 0xA0 DUP5 ADD MSTORE PUSH1 0x46 PUSH1 0xC0 DUP5 ADD MSTORE DUP3 ADD MSTORE PUSH1 0xA0 PUSH2 0x100 DUP3 ADD MSTORE PUSH1 0x6E PUSH2 0x120 DUP3 ADD MSTORE DUP3 MLOAD PUSH2 0xED DUP2 PUSH2 0x4AA JUMP JUMPDEST PUSH1 0xC DUP2 MSTORE PUSH12 0x707572706C652D6265727279 PUSH1 0xA0 SHL PUSH1 0x20 DUP3 ADD MSTORE PUSH2 0x140 DUP3 ADD MSTORE PUSH1 0x8 PUSH2 0x160 DUP3 ADD MSTORE PUSH1 0x2 PUSH2 0x180 DUP3 ADD MSTORE PUSH2 0x5D5 JUMP JUMPDEST SWAP1 MLOAD SWAP2 DUP3 SWAP2 DUP3 PUSH2 0x44B JUMP JUMPDEST SUB SWAP1 RETURN JUMPDEST DUP1 REVERT JUMPDEST POP CALLVALUE PUSH2 0x130 JUMPI DUP1 PUSH1 0x3 NOT CALLDATASIZE ADD SLT PUSH2 0x130 JUMPI POP PUSH2 0x121 PUSH2 0x12C SWAP3 PUSH1 0x6E DUP4 MLOAD SWAP2 PUSH2 0x15A DUP4 PUSH2 0x477 JUMP JUMPDEST DUP5 MLOAD PUSH2 0x165 DUP2 PUSH2 0x4AA JUMP JUMPDEST PUSH1 0xE DUP2 MSTORE PUSH14 0x2930B3B2902132B939B2B935B2B9 PUSH1 0x91 SHL PUSH1 0x20 DUP3 ADD MSTORE DUP4 MSTORE PUSH1 0x3 PUSH1 0x20 DUP5 ADD MSTORE PUSH1 0x2 DUP6 DUP5 ADD MSTORE PUSH1 0x8 PUSH1 0x60 DUP5 ADD MSTORE PUSH1 0x64 PUSH1 0x80 DUP5 ADD MSTORE PUSH1 0x8C PUSH1 0xA0 DUP5 ADD MSTORE PUSH1 0x3C PUSH1 0xC0 DUP5 ADD MSTORE DUP3 ADD MSTORE PUSH1 0x28 PUSH2 0x100 DUP3 ADD MSTORE PUSH1 0x50 PUSH2 0x120 DUP3 ADD MSTORE DUP3 MLOAD PUSH2 0x1C9 DUP2 PUSH2 0x4AA JUMP JUMPDEST PUSH1 0xF DUP2 MSTORE PUSH15 0x1C1D5C9C1B194B59DC98591A595B9D PUSH1 0x8A SHL PUSH1 0x20 DUP3 ADD MSTORE PUSH2 0x140 DUP3 ADD MSTORE PUSH1 0xF PUSH2 0x160 DUP3 ADD MSTORE PUSH1 0x5 PUSH2 0x180 DUP3 ADD MSTORE PUSH2 0x5D5 JUMP JUMPDEST POP SWAP2 CALLVALUE PUSH2 0x2AC JUMPI DUP3 PUSH1 0x3 NOT CALLDATASIZE ADD SLT PUSH2 0x2AC JUMPI PUSH2 0x12C SWAP3 PUSH1 0x55 PUSH2 0x121 SWAP3 DUP5 MLOAD SWAP3 PUSH2 0x228 DUP5 PUSH2 0x477 JUMP JUMPDEST DUP6 MLOAD PUSH2 0x233 DUP2 PUSH2 0x4AA JUMP JUMPDEST PUSH1 0xD DUP2 MSTORE PUSH13 0x57617272696F7220416C706861 PUSH1 0x98 SHL PUSH1 0x20 DUP3 ADD MSTORE DUP5 MSTORE PUSH1 0x20 DUP5 ADD MSTORE PUSH1 0x4 DUP6 DUP5 ADD MSTORE PUSH1 0xF PUSH1 0x60 DUP5 ADD MSTORE PUSH1 0xB4 PUSH1 0x80 DUP5 ADD MSTORE PUSH1 0x78 PUSH1 0xA0 DUP5 ADD MSTORE PUSH1 0x6E PUSH1 0xC0 DUP5 ADD MSTORE DUP3 ADD MSTORE PUSH1 0x3C PUSH2 0x100 DUP3 ADD MSTORE PUSH1 0x4B PUSH2 0x120 DUP3 ADD MSTORE PUSH2 0x291 PUSH2 0xF2A JUMP JUMPDEST PUSH2 0x140 DUP3 ADD MSTORE PUSH1 0xC PUSH2 0x160 DUP3 ADD MSTORE PUSH1 0x3 PUSH2 0x180 DUP3 ADD MSTORE PUSH2 0x5D5 JUMP JUMPDEST DUP3 DUP1 REVERT JUMPDEST POP CALLVALUE PUSH2 0x130 JUMPI DUP1 PUSH1 0x3 NOT CALLDATASIZE ADD SLT PUSH2 0x130 JUMPI POP PUSH2 0x121 PUSH2 0x12C SWAP3 PUSH1 0x3C DUP4 MLOAD SWAP2 PUSH2 0x2D7 DUP4 PUSH2 0x477 JUMP JUMPDEST DUP5 MLOAD PUSH2 0x2E2 DUP2 PUSH2 0x4AA JUMP JUMPDEST PUSH1 0xF DUP2 MSTORE PUSH15 0x29B434B2B6321023BAB0B93234B0B7 PUSH1 0x89 SHL PUSH1 0x20 DUP3 ADD MSTORE DUP4 MSTORE PUSH1 0x4 PUSH1 0x20 DUP5 ADD MSTORE PUSH1 0x1 DUP6 DUP5 ADD MSTORE PUSH1 0x5 PUSH1 0x60 DUP5 ADD MSTORE PUSH1 0x96 PUSH1 0x80 DUP5 ADD MSTORE PUSH1 0x46 PUSH1 0xA0 DUP5 ADD MSTORE PUSH1 0x82 PUSH1 0xC0 DUP5 ADD MSTORE DUP3 ADD MSTORE PUSH1 0x32 PUSH2 0x100 DUP3 ADD MSTORE PUSH1 0x46 PUSH2 0x120 DUP3 ADD MSTORE DUP3 MLOAD PUSH2 0x347 DUP2 PUSH2 0x4AA JUMP JUMPDEST PUSH1 0xB DUP2 MSTORE PUSH11 0x626C75652D707572706C65 PUSH1 0xA8 SHL PUSH1 0x20 DUP3 ADD MSTORE PUSH2 0x140 DUP3 ADD MSTORE PUSH1 0x3 PUSH2 0x160 DUP3 ADD MSTORE PUSH1 0x1 PUSH2 0x180 DUP3 ADD MSTORE PUSH2 0x5D5 JUMP JUMPDEST DUP4 DUP6 DUP5 CALLVALUE PUSH2 0x130 JUMPI DUP1 PUSH1 0x3 NOT CALLDATASIZE ADD SLT PUSH2 0x130 JUMPI POP DUP3 PUSH1 0x8C PUSH2 0x121 SWAP3 PUSH2 0x3A1 PUSH2 0x12C SWAP7 PUSH2 0x477 JUMP JUMPDEST DUP5 MLOAD PUSH2 0x3AC DUP2 PUSH2 0x4AA JUMP JUMPDEST PUSH1 0xF DUP2 MSTORE PUSH15 0x29B430B237BB9020B9B9B0B9B9B4B7 PUSH1 0x89 SHL PUSH1 0x20 DUP3 ADD MSTORE DUP4 MSTORE PUSH1 0x1 PUSH1 0x20 DUP5 ADD MSTORE PUSH1 0x5 DUP6 DUP5 ADD MSTORE PUSH1 0x14 PUSH1 0x60 DUP5 ADD MSTORE DUP2 PUSH1 0x80 DUP5 ADD MSTORE PUSH1 0x96 PUSH1 0xA0 DUP5 ADD MSTORE PUSH1 0x50 PUSH1 0xC0 DUP5 ADD MSTORE DUP3 ADD MSTORE PUSH1 0x5A PUSH2 0x100 DUP3 ADD MSTORE PUSH1 0x5F PUSH2 0x120 DUP3 ADD MSTORE PUSH2 0x40D PUSH2 0x5AC JUMP JUMPDEST PUSH2 0x140 DUP3 ADD MSTORE PUSH1 0x19 PUSH2 0x160 DUP3 ADD MSTORE PUSH1 0x1 PUSH2 0x180 DUP3 ADD MSTORE PUSH2 0x5D5 JUMP JUMPDEST PUSH1 0x0 JUMPDEST DUP4 DUP2 LT PUSH2 0x43B JUMPI POP POP PUSH1 0x0 SWAP2 ADD MSTORE JUMP JUMPDEST DUP2 DUP2 ADD MLOAD DUP4 DUP3 ADD MSTORE PUSH1 0x20 ADD PUSH2 0x42B JUMP JUMPDEST PUSH1 0x40 SWAP2 PUSH1 0x20 DUP3 MSTORE PUSH2 0x46B DUP2 MLOAD DUP1 SWAP3 DUP2 PUSH1 0x20 DUP7 ADD MSTORE PUSH1 0x20 DUP7 DUP7 ADD SWAP2 ADD PUSH2 0x428 JUMP JUMPDEST PUSH1 0x1F ADD PUSH1 0x1F NOT AND ADD ADD SWAP1 JUMP JUMPDEST PUSH2 0x1A0 DUP2 ADD SWAP1 DUP2 LT PUSH8 0xFFFFFFFFFFFFFFFF DUP3 GT OR PUSH2 0x494 JUMPI PUSH1 0x40 MSTORE JUMP JUMPDEST PUSH4 0x4E487B71 PUSH1 0xE0 SHL PUSH1 0x0 MSTORE PUSH1 0x41 PUSH1 0x4 MSTORE PUSH1 0x24 PUSH1 0x0 REVERT JUMPDEST PUSH1 0x40 DUP2 ADD SWAP1 DUP2 LT PUSH8 0xFFFFFFFFFFFFFFFF DUP3 GT OR PUSH2 0x494 JUMPI PUSH1 0x40 MSTORE JUMP JUMPDEST PUSH1 0x60 DUP2 ADD SWAP1 DUP2 LT PUSH8 0xFFFFFFFFFFFFFFFF DUP3 GT OR PUSH2 0x494 JUMPI PUSH1 0x40 MSTORE JUMP JUMPDEST PUSH1 0xE0 DUP2 ADD SWAP1 DUP2 LT PUSH8 0xFFFFFFFFFFFFFFFF DUP3 GT OR PUSH2 0x494 JUMPI PUSH1 0x40 MSTORE JUMP JUMPDEST PUSH1 0x20 DUP2 ADD SWAP1 DUP2 LT PUSH8 0xFFFFFFFFFFFFFFFF DUP3 GT OR PUSH2 0x494 JUMPI PUSH1 0x40 MSTORE JUMP JUMPDEST PUSH1 0x80 DUP2 ADD SWAP1 DUP2 LT PUSH8 0xFFFFFFFFFFFFFFFF DUP3 GT OR PUSH2 0x494 JUMPI PUSH1 0x40 MSTORE JUMP JUMPDEST PUSH1 0xC0 DUP2 ADD SWAP1 DUP2 LT PUSH8 0xFFFFFFFFFFFFFFFF DUP3 GT OR PUSH2 0x494 JUMPI PUSH1 0x40 MSTORE JUMP JUMPDEST PUSH1 0xA0 DUP2 ADD SWAP1 DUP2 LT PUSH8 0xFFFFFFFFFFFFFFFF DUP3 GT OR PUSH2 0x494 JUMPI PUSH1 0x40 MSTORE JUMP JUMPDEST SWAP1 PUSH1 0x1F DUP1 NOT SWAP2 ADD AND DUP2 ADD SWAP1 DUP2 LT PUSH8 0xFFFFFFFFFFFFFFFF DUP3 GT OR PUSH2 0x494 JUMPI PUSH1 0x40 MSTORE JUMP JUMPDEST PUSH8 0xFFFFFFFFFFFFFFFF DUP2 GT PUSH2 0x494 JUMPI PUSH1 0x1F ADD PUSH1 0x1F NOT AND PUSH1 0x20 ADD SWAP1 JUMP JUMPDEST PUSH1 0x40 MLOAD SWAP1 PUSH2 0x5B9 DUP3 PUSH2 0x4AA JUMP JUMPDEST PUSH1 0xD DUP3 MSTORE PUSH13 0x636F736D69632D707572706C65 PUSH1 0x98 SHL PUSH1 0x20 DUP4 ADD MSTORE JUMP JUMPDEST PUSH2 0x140 DUP2 ADD MLOAD PUSH2 0x5E4 SWAP1 PUSH2 0xFEF JUMP JUMPDEST PUSH1 0x40 DUP3 ADD MLOAD PUSH2 0x5F2 SWAP1 PUSH2 0x12AB JUMP JUMPDEST SWAP1 PUSH1 0x40 MLOAD DUP1 SWAP3 PUSH1 0x20 DUP3 ADD SWAP3 PUSH6 0x1E3232B3399F PUSH1 0xD1 SHL DUP5 MSTORE DUP1 MLOAD SWAP1 DUP2 PUSH1 0x26 DUP6 ADD SWAP2 PUSH1 0x20 ADD SWAP2 PUSH2 0x61F SWAP3 PUSH2 0x428 JUMP JUMPDEST DUP3 ADD DUP2 MLOAD SWAP2 DUP3 PUSH1 0x26 DUP4 ADD SWAP2 PUSH1 0x20 ADD SWAP2 PUSH2 0x637 SWAP3 PUSH2 0x428 JUMP JUMPDEST ADD PUSH1 0x26 DUP2 ADD PUSH7 0x1E17B232B3399F PUSH1 0xC9 SHL SWAP1 MSTORE SUB PUSH1 0xD DUP2 ADD DUP4 MSTORE PUSH1 0x2D ADD PUSH2 0x65D SWAP1 DUP4 PUSH2 0x56E JUMP JUMPDEST PUSH1 0x40 MLOAD SWAP3 PUSH2 0x66A DUP5 PUSH2 0x4C6 JUMP JUMPDEST PUSH1 0x30 DUP5 MSTORE PUSH32 0x3C726563742077696474683D2234303022206865696768743D22343030222066 PUSH1 0x20 DUP6 ADD MSTORE PUSH16 0x34B6361E913AB9361411B1339491179F PUSH1 0x81 SHL PUSH1 0x40 DUP6 ADD MSTORE PUSH2 0x6B6 DUP2 PUSH2 0x148D JUMP JUMPDEST PUSH1 0x20 DUP3 ADD MLOAD PUSH2 0x6C4 SWAP1 PUSH2 0x17A3 JUMP JUMPDEST PUSH1 0x40 MLOAD DUP1 SWAP2 PUSH1 0x20 DUP3 ADD PUSH32 0x3C636972636C652063783D22313735222063793D223138302220723D22313822 SWAP1 MSTORE PUSH32 0x2066696C6C3D222346464646464622206F7061636974793D22302E39222F3E00 DUP1 PUSH1 0x40 DUP5 ADD MSTORE PUSH1 0x5F DUP4 ADD PUSH32 0x3C636972636C652063783D22323235222063793D223138302220723D22313822 SWAP1 MSTORE PUSH1 0x7F DUP4 ADD MSTORE PUSH1 0x9E DUP3 ADD PUSH32 0x3C636972636C652063783D22313735222063793D223138302220723D22313022 SWAP1 MSTORE PUSH17 0x103334B6361E911198181818181811179F PUSH1 0x79 SHL DUP1 PUSH1 0xBE DUP5 ADD MSTORE PUSH1 0xCF DUP4 ADD PUSH32 0x3C636972636C652063783D22323235222063793D223138302220723D22313022 SWAP1 MSTORE PUSH1 0xEF DUP4 ADD MSTORE PUSH2 0x100 DUP3 ADD PUSH32 0x3C636972636C652063783D22313738222063793D223137372220723D22332220 SWAP1 MSTORE PUSH16 0x3334B6361E9111A3232323232311179F PUSH1 0x81 SHL DUP1 PUSH2 0x120 DUP5 ADD MSTORE PUSH2 0x130 DUP4 ADD PUSH32 0x3C636972636C652063783D22323238222063793D223137372220723D22332220 SWAP1 MSTORE PUSH2 0x150 DUP4 ADD MSTORE DUP1 MLOAD SWAP1 DUP2 PUSH2 0x160 DUP5 ADD SWAP2 PUSH1 0x20 ADD SWAP2 PUSH2 0x839 SWAP3 PUSH2 0x428 JUMP JUMPDEST DUP2 ADD SUB PUSH2 0x140 DUP2 ADD DUP3 MSTORE PUSH2 0x160 ADD PUSH2 0x851 SWAP1 DUP3 PUSH2 0x56E JUMP JUMPDEST PUSH2 0x85A DUP4 PUSH2 0x1A09 JUMP JUMPDEST SWAP2 PUSH2 0x864 DUP5 PUSH2 0x1DDE JUMP JUMPDEST SWAP4 DUP1 MLOAD SWAP1 PUSH1 0x60 DUP2 ADD MLOAD PUSH2 0x876 SWAP1 PUSH2 0x2109 JUMP JUMPDEST SWAP2 PUSH1 0x20 DUP3 ADD MLOAD PUSH2 0x885 SWAP1 PUSH2 0x2294 JUMP JUMPDEST SWAP1 PUSH1 0x40 DUP4 ADD MLOAD PUSH2 0x894 SWAP1 PUSH2 0x2375 JUMP JUMPDEST SWAP1 PUSH1 0x80 DUP5 ADD MLOAD PUSH2 0x8A3 SWAP1 PUSH2 0x2109 JUMP JUMPDEST SWAP1 PUSH1 0xA0 DUP6 ADD MLOAD PUSH2 0x8B2 SWAP1 PUSH2 0x2109 JUMP JUMPDEST SWAP1 PUSH1 0xC0 DUP7 ADD MLOAD PUSH2 0x8C1 SWAP1 PUSH2 0x2109 JUMP JUMPDEST SWAP2 PUSH1 0xE0 DUP8 ADD MLOAD PUSH2 0x8D0 SWAP1 PUSH2 0x2109 JUMP JUMPDEST SWAP4 PUSH2 0x100 DUP9 ADD MLOAD PUSH2 0x8E0 SWAP1 PUSH2 0x2109 JUMP JUMPDEST SWAP6 PUSH2 0x120 DUP10 ADD MLOAD PUSH2 0x8F0 SWAP1 PUSH2 0x2109 JUMP JUMPDEST SWAP8 PUSH2 0x160 DUP11 ADD MLOAD PUSH2 0x900 SWAP1 PUSH2 0x2109 JUMP JUMPDEST SWAP10 PUSH2 0x180 ADD MLOAD PUSH2 0x90F SWAP1 PUSH2 0x2109 JUMP JUMPDEST SWAP11 PUSH1 0x40 MLOAD DUP1 PUSH2 0x100 MSTORE PUSH1 0x20 ADD PUSH32 0x3C7265637420783D2231302220793D22333230222077696474683D2233383022 SWAP1 MSTORE PUSH2 0x100 MLOAD PUSH1 0x40 ADD PUSH32 0x206865696768743D223730222066696C6C3D2223303030303030222066696C6C SWAP1 MSTORE PUSH2 0x100 MLOAD PUSH1 0x60 ADD PUSH32 0x2D6F7061636974793D22302E38222072783D2235222F3E000000000000000000 SWAP1 MSTORE PUSH2 0x100 MLOAD PUSH1 0x77 ADD PUSH32 0x3C7465787420783D2232302220793D22333430222066696C6C3D222346464646 SWAP1 MSTORE PUSH32 0x46462220666F6E742D66616D696C793D22417269616C2C2073616E732D736572 SWAP6 DUP7 PUSH2 0x100 MLOAD PUSH1 0x97 ADD MSTORE PUSH2 0x100 MLOAD PUSH1 0xB7 ADD PUSH32 0x69662220666F6E742D73697A653D2231342220666F6E742D7765696768743D22 SWAP1 MSTORE PUSH6 0x3137B632111F PUSH1 0xD1 SHL PUSH2 0x100 MLOAD PUSH1 0xD7 ADD MSTORE DUP1 MLOAD SWAP1 DUP2 PUSH2 0x100 MLOAD PUSH1 0xDD ADD SWAP2 PUSH1 0x20 ADD SWAP2 PUSH2 0xA3C SWAP3 PUSH2 0x428 JUMP JUMPDEST PUSH2 0x100 MLOAD ADD DUP1 PUSH1 0xE0 MSTORE PUSH7 0x1E17BA32BC3A1F PUSH1 0xC9 SHL SWAP1 DUP2 PUSH1 0xC0 MSTORE PUSH1 0xDD ADD MSTORE PUSH1 0xE0 MLOAD PUSH1 0xE4 ADD PUSH32 0x3C7465787420783D2232302220793D22333535222066696C6C3D222338333645 SWAP1 MSTORE PUSH1 0xE0 MLOAD PUSH2 0x104 ADD PUSH32 0x46392220666F6E742D66616D696C793D22417269616C2C2073616E732D736572 SWAP1 MSTORE PUSH1 0xE0 MLOAD PUSH2 0x124 ADD PUSH32 0x69662220666F6E742D73697A653D223131223E4C6576656C2000000000000000 SWAP1 MSTORE PUSH2 0x13D SWAP1 DUP2 PUSH1 0x80 MSTORE DUP1 MLOAD DUP1 SWAP3 PUSH1 0xE0 MLOAD ADD SWAP2 PUSH1 0x20 ADD SWAP2 PUSH2 0xAF4 SWAP3 PUSH2 0x428 JUMP JUMPDEST PUSH1 0xE0 MLOAD ADD PUSH3 0x103E1 PUSH1 0xED SHL DUP1 PUSH1 0xA0 MSTORE PUSH1 0x80 MLOAD DUP3 ADD MSTORE DUP2 MLOAD SWAP2 DUP3 PUSH2 0x140 DUP4 ADD SWAP2 PUSH1 0x20 ADD SWAP2 PUSH2 0xB20 SWAP3 PUSH2 0x428 JUMP JUMPDEST ADD PUSH1 0xA0 MLOAD PUSH2 0x140 DUP3 ADD MSTORE DUP2 MLOAD SWAP1 PUSH2 0x143 SWAP3 DUP3 DUP5 DUP4 ADD SWAP2 PUSH1 0x20 ADD SWAP2 PUSH2 0xB43 SWAP3 PUSH2 0x428 JUMP JUMPDEST ADD SWAP1 PUSH1 0xC0 MLOAD SWAP1 DUP3 ADD MSTORE PUSH2 0x14A DUP2 ADD PUSH32 0x3C7465787420783D2232302220793D22333730222066696C6C3D222346464646 SWAP1 MSTORE DUP4 PUSH2 0x16A DUP3 ADD MSTORE PUSH22 0x34B311103337B73A16B9B4BD329E911898111F24281D PUSH1 0x51 SHL PUSH2 0x18A DUP3 ADD MSTORE DUP2 MLOAD SWAP1 PUSH2 0x1A0 SWAP3 DUP3 DUP5 DUP4 ADD SWAP2 PUSH1 0x20 ADD SWAP2 PUSH2 0xBB4 SWAP3 PUSH2 0x428 JUMP JUMPDEST ADD SWAP1 DUP2 ADD PUSH5 0x1020AA259D PUSH1 0xD9 SHL SWAP1 MSTORE DUP2 MLOAD SWAP1 PUSH2 0x1A5 SWAP3 DUP3 DUP5 DUP4 ADD SWAP2 PUSH1 0x20 ADD SWAP2 PUSH2 0xBDC SWAP3 PUSH2 0x428 JUMP JUMPDEST ADD SWAP1 DUP2 ADD PUSH5 0x102222A31D PUSH1 0xD9 SHL SWAP1 MSTORE DUP3 MLOAD SWAP1 PUSH2 0x1AA SWAP4 DUP3 DUP6 DUP4 ADD SWAP2 PUSH1 0x20 ADD SWAP2 PUSH2 0xC04 SWAP3 PUSH2 0x428 JUMP JUMPDEST ADD SWAP2 PUSH1 0xC0 MLOAD SWAP1 DUP4 ADD MSTORE PUSH2 0x1B1 DUP3 ADD PUSH32 0x3C7465787420783D2232302220793D22333833222066696C6C3D222346464646 SWAP1 MSTORE PUSH2 0x1D1 DUP3 ADD MSTORE PUSH2 0x1F1 DUP2 ADD PUSH32 0x69662220666F6E742D73697A653D223130223E5350443A000000000000000000 SWAP1 MSTORE DUP2 MLOAD SWAP1 PUSH2 0x208 SWAP3 DUP3 DUP5 DUP4 ADD SWAP2 PUSH1 0x20 ADD SWAP2 PUSH2 0xC7C SWAP3 PUSH2 0x428 JUMP JUMPDEST ADD SWAP1 DUP2 ADD PUSH5 0x1026A0A39D PUSH1 0xD9 SHL SWAP1 MSTORE DUP2 MLOAD SWAP1 PUSH2 0x20D SWAP3 DUP3 DUP5 DUP4 ADD SWAP2 PUSH1 0x20 ADD SWAP2 PUSH2 0xCA4 SWAP3 PUSH2 0x428 JUMP JUMPDEST ADD SWAP1 DUP2 ADD PUSH5 0x102621A59D PUSH1 0xD9 SHL SWAP1 MSTORE DUP2 MLOAD SWAP1 PUSH2 0x212 SWAP3 DUP3 DUP5 DUP4 ADD SWAP2 PUSH1 0x20 ADD SWAP2 PUSH2 0xCCC SWAP3 PUSH2 0x428 JUMP JUMPDEST ADD SWAP1 PUSH1 0xC0 MLOAD SWAP1 DUP3 ADD MSTORE PUSH2 0x219 DUP2 ADD PUSH32 0x3C7465787420783D223238302220793D22333730222066696C6C3D2223413030 SWAP1 MSTORE PUSH32 0x3535442220666F6E742D66616D696C793D22417269616C2C2073616E732D7365 SWAP1 DUP2 PUSH2 0x239 DUP3 ADD MSTORE PUSH2 0x259 DUP2 ADD PUSH32 0x7269662220666F6E742D73697A653D223130223E57696E733A20000000000000 SWAP1 MSTORE DUP3 MLOAD SWAP1 PUSH2 0x273 SWAP4 DUP3 DUP6 DUP4 ADD SWAP2 PUSH1 0x20 ADD SWAP2 PUSH2 0xD67 SWAP3 PUSH2 0x428 JUMP JUMPDEST ADD SWAP2 PUSH1 0xC0 MLOAD SWAP1 DUP4 ADD MSTORE PUSH2 0x27A DUP3 ADD PUSH32 0x3C7465787420783D223238302220793D22333833222066696C6C3D2223413030 SWAP1 MSTORE PUSH2 0x29A DUP3 ADD MSTORE PUSH2 0x2BA DUP2 ADD PUSH32 0x7269662220666F6E742D73697A653D223130223E4C6F737365733A2000000000 SWAP1 MSTORE DUP2 MLOAD SWAP1 PUSH2 0x2D6 SWAP3 DUP3 DUP5 DUP4 ADD SWAP2 PUSH1 0x20 ADD SWAP2 PUSH2 0xDDF SWAP3 PUSH2 0x428 JUMP JUMPDEST ADD SWAP1 PUSH1 0xC0 MLOAD SWAP1 DUP3 ADD MSTORE PUSH2 0x100 MLOAD DUP1 SWAP2 SUB SWAP1 PUSH2 0x2BD DUP3 ADD SWAP1 MSTORE PUSH2 0x2DD ADD PUSH2 0x100 MLOAD SWAP1 PUSH2 0xE09 SWAP2 PUSH2 0x56E JUMP JUMPDEST PUSH1 0x40 MLOAD SWAP7 DUP8 SWAP7 PUSH1 0x20 DUP9 ADD PUSH32 0x3C7376672077696474683D2234303022206865696768743D223430302220786D SWAP1 MSTORE PUSH1 0x40 DUP9 ADD PUSH32 0x6C6E733D22687474703A2F2F7777772E77332E6F72672F323030302F73766722 SWAP1 MSTORE PUSH1 0x60 DUP9 ADD PUSH1 0x1F PUSH1 0xF9 SHL SWAP1 MSTORE MLOAD PUSH1 0x61 SWAP7 DUP2 DUP9 DUP11 ADD PUSH2 0xE79 SWAP3 PUSH2 0x428 JUMP JUMPDEST DUP8 ADD DUP2 MLOAD SWAP2 DUP3 DUP9 DUP4 ADD SWAP2 PUSH1 0x20 ADD SWAP2 PUSH2 0xE90 SWAP3 PUSH2 0x428 JUMP JUMPDEST ADD DUP2 MLOAD SWAP2 DUP3 DUP8 DUP4 ADD SWAP2 PUSH1 0x20 ADD SWAP2 PUSH2 0xEA6 SWAP3 PUSH2 0x428 JUMP JUMPDEST ADD DUP2 MLOAD SWAP2 DUP3 DUP7 DUP4 ADD SWAP2 PUSH1 0x20 ADD SWAP2 PUSH2 0xEBC SWAP3 PUSH2 0x428 JUMP JUMPDEST ADD DUP2 MLOAD SWAP2 DUP3 DUP6 DUP4 ADD SWAP2 PUSH1 0x20 ADD SWAP2 PUSH2 0xED2 SWAP3 PUSH2 0x428 JUMP JUMPDEST ADD DUP2 MLOAD SWAP2 DUP3 DUP5 DUP4 ADD SWAP2 PUSH1 0x20 ADD SWAP2 PUSH2 0xEE8 SWAP3 PUSH2 0x428 JUMP JUMPDEST ADD PUSH2 0x100 MLOAD SWAP1 DUP2 MLOAD SWAP2 DUP3 DUP5 DUP4 ADD SWAP2 PUSH1 0x20 ADD SWAP2 PUSH2 0xF03 SWAP3 PUSH2 0x428 JUMP JUMPDEST ADD SWAP1 DUP2 ADD PUSH6 0x1E17B9BB339F PUSH1 0xD1 SHL SWAP1 MSTORE SUB PUSH1 0x47 DUP2 ADD DUP3 MSTORE PUSH1 0x67 ADD PUSH2 0xF27 SWAP1 DUP3 PUSH2 0x56E JUMP JUMPDEST SWAP1 JUMP JUMPDEST PUSH1 0x40 MLOAD SWAP1 PUSH2 0xF37 DUP3 PUSH2 0x4AA JUMP JUMPDEST PUSH1 0xB DUP3 MSTORE PUSH11 0x707572706C652D626C7565 PUSH1 0xA8 SHL PUSH1 0x20 DUP4 ADD MSTORE JUMP JUMPDEST PUSH32 0x3C6C696E6561724772616469656E742069643D226267222078313D2230252220 DUP2 MSTORE PUSH32 0x79313D223025222078323D2231303025222079323D2231303025223E00000000 PUSH1 0x20 DUP3 ADD MSTORE PUSH1 0x3C ADD SWAP1 JUMP JUMPDEST PUSH32 0x3C6C696E6561724772616469656E742069643D22626F6479222078313D223025 DUP2 MSTORE PUSH32 0x222079313D223025222078323D2231303025222079323D2231303025223E0000 PUSH1 0x20 DUP3 ADD MSTORE PUSH1 0x3E ADD SWAP1 JUMP JUMPDEST DUP1 MLOAD PUSH1 0x20 SWAP2 DUP3 DUP2 ADD SWAP2 DUP3 KECCAK256 PUSH2 0x1002 PUSH2 0xF2A JUMP JUMPDEST DUP1 MLOAD SWAP1 DUP6 ADD KECCAK256 SUB PUSH2 0x119B JUMPI POP POP PUSH2 0xF27 PUSH1 0x11 PUSH1 0x40 MLOAD DUP4 PUSH2 0x1189 PUSH1 0x3E PUSH2 0x10CD PUSH2 0x107E PUSH2 0x102F DUP7 SWAP10 DUP8 ADD PUSH2 0xF51 JUMP JUMPDEST PUSH32 0x3C73746F70206F66667365743D22302522207374796C653D2273746F702D636F DUP2 MSTORE PUSH32 0x6C6F723A233833364546393B73746F702D6F7061636974793A3122202F3E0000 PUSH1 0x20 DUP3 ADD MSTORE PUSH1 0x3E ADD SWAP1 JUMP JUMPDEST PUSH32 0x3C73746F70206F66667365743D223130302522207374796C653D2273746F702D DUP2 MSTORE PUSH32 0x636F6C6F723A233230303035323B73746F702D6F7061636974793A3122202F3E PUSH1 0x20 DUP3 ADD MSTORE PUSH1 0x40 ADD SWAP1 JUMP JUMPDEST SWAP3 PUSH32 0x6C6F723A234130303535443B73746F702D6F7061636974793A3122202F3E0000 PUSH2 0x1112 DUP8 PUSH17 0x1E17B634B732B0B923B930B234B2B73A1F PUSH1 0x79 SHL SWAP7 DUP8 DUP2 MSTORE ADD PUSH2 0xFA0 JUMP JUMPDEST SWAP2 PUSH32 0x3C73746F70206F66667365743D22302522207374796C653D2273746F702D636F DUP4 MSTORE DUP3 ADD MSTORE ADD PUSH32 0x3C73746F70206F66667365743D223130302522207374796C653D2273746F702D DUP2 MSTORE PUSH32 0x636F6C6F723A233833364546393B73746F702D6F7061636974793A3122202F3E PUSH1 0x20 DUP3 ADD MSTORE PUSH1 0x40 ADD SWAP1 JUMP JUMPDEST SWAP1 DUP2 MSTORE SUB PUSH1 0xE NOT DUP2 ADD DUP5 MSTORE ADD DUP3 PUSH2 0x56E JUMP JUMPDEST MLOAD SWAP1 KECCAK256 PUSH2 0x11A6 PUSH2 0x5AC JUMP JUMPDEST DUP3 DUP2 MLOAD SWAP2 ADD KECCAK256 EQ PUSH2 0x1245 JUMPI PUSH2 0xF27 PUSH1 0x11 PUSH2 0x102F SWAP3 PUSH2 0x121C PUSH2 0x11CD PUSH1 0x40 MLOAD SWAP6 DUP7 SWAP4 DUP5 ADD PUSH2 0xF51 JUMP JUMPDEST PUSH32 0x3C73746F70206F66667365743D223130302522207374796C653D2273746F702D DUP2 MSTORE PUSH32 0x636F6C6F723A234642464146393B73746F702D6F7061636974793A3122202F3E PUSH1 0x20 DUP3 ADD MSTORE PUSH1 0x40 ADD SWAP1 JUMP JUMPDEST PUSH2 0x1189 PUSH2 0x107E PUSH2 0x102F DUP6 PUSH17 0x1E17B634B732B0B923B930B234B2B73A1F PUSH1 0x79 SHL SWAP5 DUP6 DUP2 MSTORE ADD PUSH2 0xFA0 JUMP JUMPDEST PUSH2 0xF27 PUSH1 0x11 PUSH1 0x3E SWAP3 PUSH2 0x1282 PUSH1 0x40 MLOAD SWAP5 DUP3 PUSH32 0x6C6F723A233230303035323B73746F702D6F7061636974793A3122202F3E0000 PUSH2 0x1112 DUP9 SWAP6 DUP7 ADD PUSH2 0xF51 JUMP JUMPDEST PUSH2 0x1189 PUSH2 0x11CD PUSH2 0x102F DUP6 PUSH17 0x1E17B634B732B0B923B930B234B2B73A1F PUSH1 0x79 SHL SWAP5 DUP6 DUP2 MSTORE ADD PUSH2 0xFA0 JUMP JUMPDEST PUSH1 0x4 DUP2 LT PUSH2 0x1393 JUMPI POP PUSH1 0x40 MLOAD PUSH2 0x12C0 DUP2 PUSH2 0x4E2 JUMP JUMPDEST PUSH1 0xA5 DUP2 MSTORE PUSH32 0x3C66696C7465722069643D22676C6F77223E3C6665476175737369616E426C75 PUSH1 0x20 DUP3 ADD MSTORE PUSH32 0x7220737464446576696174696F6E3D22342220726573756C743D22636F6C6F72 PUSH1 0x40 DUP3 ADD MSTORE PUSH32 0x6564426C7572222F3E3C66654D657267653E3C66654D657267654E6F64652069 PUSH1 0x60 DUP3 ADD MSTORE PUSH32 0x6E3D22636F6C6F726564426C7572222F3E3C66654D657267654E6F646520696E PUSH1 0x80 DUP3 ADD MSTORE PUSH32 0x3D22536F7572636547726170686963222F3E3C2F66654D657267653E3C2F6669 PUSH1 0xA0 DUP3 ADD MSTORE PUSH5 0x363A32B91F PUSH1 0xD9 SHL PUSH1 0xC0 DUP3 ADD MSTORE SWAP1 JUMP JUMPDEST PUSH1 0x2 GT ISZERO PUSH2 0x13AE JUMPI PUSH1 0x40 MLOAD PUSH2 0x13A7 DUP2 PUSH2 0x4FE JUMP JUMPDEST PUSH1 0x0 DUP2 MSTORE SWAP1 JUMP JUMPDEST PUSH1 0x40 MLOAD PUSH2 0x13BA DUP2 PUSH2 0x4E2 JUMP JUMPDEST PUSH1 0xA5 DUP2 MSTORE PUSH32 0x3C66696C7465722069643D22676C6F77223E3C6665476175737369616E426C75 PUSH1 0x20 DUP3 ADD MSTORE PUSH32 0x7220737464446576696174696F6E3D22322220726573756C743D22636F6C6F72 PUSH1 0x40 DUP3 ADD MSTORE PUSH32 0x6564426C7572222F3E3C66654D657267653E3C66654D657267654E6F64652069 PUSH1 0x60 DUP3 ADD MSTORE PUSH32 0x6E3D22636F6C6F726564426C7572222F3E3C66654D657267654E6F646520696E PUSH1 0x80 DUP3 ADD MSTORE PUSH32 0x3D22536F7572636547726170686963222F3E3C2F66654D657267653E3C2F6669 PUSH1 0xA0 DUP3 ADD MSTORE PUSH5 0x363A32B91F PUSH1 0xD9 SHL PUSH1 0xC0 DUP3 ADD MSTORE SWAP1 JUMP JUMPDEST PUSH1 0x40 DUP2 DUP2 ADD MLOAD PUSH1 0x0 SWAP1 PUSH1 0x2 GT PUSH2 0x1790 JUMPI POP DUP1 MLOAD PUSH2 0x14A9 DUP2 PUSH2 0x4AA JUMP JUMPDEST PUSH1 0x14 DUP2 MSTORE PUSH20 0x103334B63A32B91E913AB9361411B3B637BB9491 PUSH1 0x61 SHL PUSH1 0x20 DUP3 ADD MSTORE JUMPDEST PUSH1 0x20 SWAP3 DUP4 ADD MLOAD DUP1 PUSH2 0x156C JUMPI POP DUP2 PUSH1 0x6A SWAP2 PUSH2 0x1551 PUSH32 0x22206865696768743D22313230222066696C6C3D2275726C2823626F64792922 SWAP6 PUSH2 0xF27 SWAP6 MLOAD SWAP7 DUP8 SWAP5 PUSH32 0x3C7265637420783D223135302220793D22313530222077696474683D22313030 DUP4 DUP8 ADD MSTORE DUP6 ADD MSTORE PUSH8 0x10393C1E91189A91 PUSH1 0xC1 SHL PUSH1 0x60 DUP6 ADD MSTORE DUP3 MLOAD SWAP3 DUP4 SWAP2 PUSH1 0x68 DUP7 ADD SWAP2 ADD PUSH2 0x428 JUMP JUMPDEST DUP2 ADD PUSH2 0x179F PUSH1 0xF1 SHL PUSH1 0x68 DUP3 ADD MSTORE SUB PUSH1 0x4A DUP2 ADD DUP5 MSTORE ADD DUP3 PUSH2 0x56E JUMP JUMPDEST PUSH1 0x1 DUP2 SUB PUSH2 0x15F9 JUMPI POP DUP2 PUSH1 0x5E SWAP2 PUSH2 0x15DE PUSH32 0x30222072793D223730222066696C6C3D2275726C2823626F6479292200000000 SWAP6 PUSH2 0xF27 SWAP6 MLOAD SWAP7 DUP8 SWAP5 PUSH32 0x3C656C6C697073652063783D22323030222063793D22323130222072783D2235 DUP4 DUP8 ADD MSTORE DUP6 ADD MSTORE DUP3 MLOAD SWAP3 DUP4 SWAP2 PUSH1 0x5C DUP7 ADD SWAP2 ADD PUSH2 0x428 JUMP JUMPDEST DUP2 ADD PUSH2 0x179F PUSH1 0xF1 SHL PUSH1 0x5C DUP3 ADD MSTORE SUB PUSH1 0x3E DUP2 ADD DUP5 MSTORE ADD DUP3 PUSH2 0x56E JUMP JUMPDEST PUSH1 0x2 DUP2 SUB PUSH2 0x167B JUMPI POP DUP2 PUSH1 0x54 SWAP2 PUSH2 0x1660 PUSH2 0xF27 SWAP5 MLOAD SWAP6 DUP7 SWAP4 PUSH32 0x3C636972636C652063783D22323030222063793D223230302220723D22363022 DUP3 DUP7 ADD MSTORE PUSH18 0x103334B6361E913AB9361411B137B23C9491 PUSH1 0x71 SHL SWAP1 DUP6 ADD MSTORE DUP3 MLOAD SWAP3 DUP4 SWAP2 PUSH1 0x52 DUP7 ADD SWAP2 ADD PUSH2 0x428 JUMP JUMPDEST DUP2 ADD PUSH2 0x179F PUSH1 0xF1 SHL PUSH1 0x52 DUP3 ADD MSTORE SUB PUSH1 0x34 DUP2 ADD DUP5 MSTORE ADD DUP3 PUSH2 0x56E JUMP JUMPDEST SWAP2 SWAP3 SWAP1 SWAP2 PUSH1 0x3 SUB PUSH2 0x1716 JUMPI DUP3 PUSH2 0xF27 SWAP3 PUSH2 0x16FB PUSH1 0x65 SWAP4 PUSH32 0x203230302C323630203134302C323030222066696C6C3D2275726C2823626F64 SWAP7 MLOAD SWAP7 DUP8 SWAP5 PUSH32 0x3C706F6C79676F6E20706F696E74733D223230302C313430203236302C323030 DUP4 DUP8 ADD MSTORE DUP6 ADD MSTORE PUSH3 0x3C9491 PUSH1 0xE9 SHL PUSH1 0x60 DUP6 ADD MSTORE DUP3 MLOAD SWAP3 DUP4 SWAP2 PUSH1 0x63 DUP7 ADD SWAP2 ADD PUSH2 0x428 JUMP JUMPDEST DUP2 ADD PUSH2 0x179F PUSH1 0xF1 SHL PUSH1 0x63 DUP3 ADD MSTORE SUB PUSH1 0x45 DUP2 ADD DUP5 MSTORE ADD DUP3 PUSH2 0x56E JUMP JUMPDEST DUP3 PUSH2 0xF27 SWAP3 PUSH2 0x1551 PUSH1 0x6A SWAP4 PUSH32 0x22206865696768743D22313230222066696C6C3D2275726C2823626F64792922 SWAP7 MLOAD SWAP7 DUP8 SWAP5 PUSH32 0x3C7265637420783D223134302220793D22313430222077696474683D22313230 DUP4 DUP8 ADD MSTORE DUP6 ADD MSTORE PUSH8 0x10393C1E91191A91 PUSH1 0xC1 SHL PUSH1 0x60 DUP6 ADD MSTORE DUP3 MLOAD SWAP3 DUP4 SWAP2 PUSH1 0x68 DUP7 ADD SWAP2 ADD PUSH2 0x428 JUMP JUMPDEST DUP2 MLOAD SWAP1 PUSH2 0x179C DUP3 PUSH2 0x4FE JUMP JUMPDEST DUP2 MSTORE PUSH2 0x14CB JUMP JUMPDEST DUP1 PUSH2 0x1823 JUMPI POP PUSH1 0x40 MLOAD PUSH2 0x17B5 DUP2 PUSH2 0x51A JUMP JUMPDEST PUSH1 0x52 DUP2 MSTORE PUSH32 0x3C7061746820643D224D20313835203231302051203230302032323020323135 PUSH1 0x20 DUP3 ADD MSTORE PUSH32 0x2032313022207374726F6B653D222330303022207374726F6B652D7769647468 PUSH1 0x40 DUP3 ADD MSTORE PUSH18 0x1E911911103334B6361E913737B73291179F PUSH1 0x71 SHL PUSH1 0x60 DUP3 ADD MSTORE SWAP1 JUMP JUMPDEST PUSH1 0x1 DUP2 SUB PUSH2 0x18A6 JUMPI POP PUSH1 0x40 MLOAD PUSH2 0x1838 DUP2 PUSH2 0x51A JUMP JUMPDEST PUSH1 0x52 DUP2 MSTORE PUSH32 0x3C7061746820643D224D20313930203231302051203230302032313520323130 PUSH1 0x20 DUP3 ADD MSTORE PUSH32 0x2032313022207374726F6B653D222330303022207374726F6B652D7769647468 PUSH1 0x40 DUP3 ADD MSTORE PUSH18 0x1E911911103334B6361E913737B73291179F PUSH1 0x71 SHL PUSH1 0x60 DUP3 ADD MSTORE SWAP1 JUMP JUMPDEST PUSH1 0x2 DUP2 SUB PUSH2 0x190E JUMPI POP PUSH1 0x40 MLOAD PUSH2 0x18BB DUP2 PUSH2 0x4C6 JUMP JUMPDEST PUSH1 0x39 DUP2 MSTORE PUSH32 0x3C656C6C697073652063783D22323030222063793D22323130222072783D2238 PUSH1 0x20 DUP3 ADD MSTORE PUSH32 0x222072793D2234222066696C6C3D2223303030303030222F3E00000000000000 PUSH1 0x40 DUP3 ADD MSTORE SWAP1 JUMP JUMPDEST PUSH1 0x3 SUB PUSH2 0x198F JUMPI PUSH1 0x40 MLOAD PUSH2 0x1921 DUP2 PUSH2 0x51A JUMP JUMPDEST PUSH1 0x52 DUP2 MSTORE PUSH32 0x3C7061746820643D224D20313835203231352051203230302032303520323135 PUSH1 0x20 DUP3 ADD MSTORE PUSH32 0x2032313522207374726F6B653D222330303022207374726F6B652D7769647468 PUSH1 0x40 DUP3 ADD MSTORE PUSH18 0x1E911991103334B6361E913737B73291179F PUSH1 0x71 SHL PUSH1 0x60 DUP3 ADD MSTORE SWAP1 JUMP JUMPDEST PUSH1 0x40 MLOAD PUSH2 0x199B DUP2 PUSH2 0x51A JUMP JUMPDEST PUSH1 0x52 DUP2 MSTORE PUSH32 0x3C7061746820643D224D20313835203231302051203230302032313820323135 PUSH1 0x20 DUP3 ADD MSTORE PUSH32 0x2032313022207374726F6B653D222330303022207374726F6B652D7769647468 PUSH1 0x40 DUP3 ADD MSTORE PUSH18 0x1E911911103334B6361E913737B73291179F PUSH1 0x71 SHL PUSH1 0x60 DUP3 ADD MSTORE SWAP1 JUMP JUMPDEST PUSH1 0x20 SWAP1 DUP2 ADD MLOAD DUP1 PUSH2 0x1B08 JUMPI POP PUSH32 0x3C7265637420783D223238302220793D22313230222077696474683D22382220 PUSH1 0x40 MLOAD SWAP2 DUP3 ADD MSTORE PUSH32 0x6865696768743D223630222066696C6C3D222343304330433022207472616E73 PUSH1 0x40 DUP3 ADD MSTORE PUSH32 0x666F726D3D22726F74617465283135203238342031353029222F3E0000000000 PUSH1 0x60 DUP3 ADD MSTORE PUSH32 0x3C7265637420783D223237362220793D22313130222077696474683D22313622 PUSH1 0x7B DUP3 ADD MSTORE PUSH32 0x206865696768743D223135222066696C6C3D222338423435313322207472616E PUSH1 0x9B DUP3 ADD MSTORE PUSH32 0x73666F726D3D22726F74617465283135203238342031313729222F3E00000000 PUSH1 0xBB DUP3 ADD MSTORE PUSH1 0xB7 DUP2 MSTORE PUSH2 0xF27 DUP2 PUSH2 0x4E2 JUMP JUMPDEST PUSH1 0x1 DUP2 SUB PUSH2 0x1BA0 JUMPI POP PUSH32 0x3C7061746820643D224D20313630203134302051203230302031323020323430 PUSH1 0x40 MLOAD SWAP2 PUSH2 0x1B3F DUP4 PUSH2 0x552 JUMP JUMPDEST PUSH1 0x62 DUP4 MSTORE DUP3 ADD MSTORE PUSH32 0x20313430204C2032343020313830205120323030203136302031363020313830 PUSH1 0x40 DUP3 ADD MSTORE PUSH32 0x205A222066696C6C3D222332303030353222206F7061636974793D22302E3722 PUSH1 0x60 DUP3 ADD MSTORE PUSH2 0x179F PUSH1 0xF1 SHL PUSH1 0x80 DUP3 ADD MSTORE SWAP1 JUMP JUMPDEST PUSH1 0x2 DUP2 SUB PUSH2 0x1C6F JUMPI POP PUSH32 0x3C706F6C79676F6E20706F696E74733D223230302C313230203137302C313630 PUSH1 0x40 MLOAD SWAP2 DUP3 ADD MSTORE PUSH32 0x203233302C313630222066696C6C3D2223383336454639222F3E000000000000 PUSH1 0x40 DUP3 ADD MSTORE PUSH32 0x3C636972636C652063783D22313835222063793D223135352220723D22342220 PUSH1 0x5A DUP3 ADD MSTORE PUSH16 0x3334B6361E9111A323221B981811179F PUSH1 0x81 SHL DUP1 PUSH1 0x7A DUP4 ADD MSTORE PUSH32 0x3C636972636C652063783D22323135222063793D223135352220723D22342220 PUSH1 0x8A DUP4 ADD MSTORE PUSH1 0xAA DUP3 ADD MSTORE PUSH1 0x9A DUP2 MSTORE PUSH2 0xF27 DUP2 PUSH2 0x536 JUMP JUMPDEST PUSH1 0x3 SUB PUSH2 0x1D1D JUMPI PUSH32 0x3C706F6C79676F6E20706F696E74733D223137302C313530203137352C313330 PUSH1 0x40 MLOAD SWAP2 DUP3 ADD MSTORE PUSH32 0x203138302C313530222066696C6C3D2223413030353544222F3E000000000000 PUSH1 0x40 DUP3 ADD MSTORE PUSH32 0x3C706F6C79676F6E20706F696E74733D223232302C313530203232352C313330 PUSH1 0x5A DUP3 ADD MSTORE PUSH32 0x203233302C313530222066696C6C3D2223413030353544222F3E000000000000 PUSH1 0x7A DUP3 ADD MSTORE PUSH1 0x74 DUP2 MSTORE PUSH2 0xF27 DUP2 PUSH2 0x552 JUMP JUMPDEST PUSH32 0x3C656C6C697073652063783D22313230222063793D22323030222072783D2232 PUSH1 0x40 MLOAD SWAP2 DUP3 ADD MSTORE PUSH32 0x35222072793D223335222066696C6C3D222343304330433022207374726F6B65 PUSH1 0x40 DUP3 ADD MSTORE PUSH32 0x3D222330303022207374726F6B652D77696474683D2232222F3E000000000000 PUSH1 0x60 DUP3 ADD MSTORE PUSH32 0x3C636972636C652063783D22313230222063793D223230302220723D22313022 PUSH1 0x7A DUP3 ADD MSTORE PUSH17 0x103334B6361E91119C199B22A31C91179F PUSH1 0x79 SHL PUSH1 0x9A DUP3 ADD MSTORE PUSH1 0x8B DUP2 MSTORE PUSH2 0xF27 DUP2 PUSH2 0x536 JUMP JUMPDEST PUSH1 0x40 SWAP1 DUP2 ADD MLOAD PUSH1 0x5 DUP2 SUB PUSH2 0x2001 JUMPI POP DUP1 MLOAD SWAP1 PUSH32 0x3C636972636C652063783D22313230222063793D223132302220723D22322220 PUSH1 0x20 DUP4 ADD MSTORE PUSH32 0x66696C6C3D222346464437303022206F7061636974793D22302E38223E000000 DUP2 DUP4 ADD MSTORE PUSH32 0x3C616E696D617465206174747269627574654E616D653D226F70616369747922 DUP1 PUSH1 0x5D DUP5 ADD MSTORE PUSH32 0x2076616C7565733D22303B313B3022206475723D223173222072657065617443 PUSH1 0x7D DUP5 ADD MSTORE PUSH19 0x37BAB73A1E9134B73232B334B734BA3291179F PUSH1 0x69 SHL DUP1 PUSH1 0x9D DUP6 ADD MSTORE PUSH9 0x1E17B1B4B931B6329F PUSH1 0xB9 SHL SWAP2 DUP3 PUSH1 0xB0 DUP7 ADD MSTORE PUSH32 0x3C636972636C652063783D22323830222063793D223135302220723D22322220 PUSH1 0xB9 DUP7 ADD MSTORE PUSH32 0x66696C6C3D222346464437303022206F7061636974793D22302E36223E000000 PUSH1 0xD9 DUP7 ADD MSTORE DUP1 PUSH1 0xF6 DUP7 ADD MSTORE PUSH32 0x2076616C7565733D22303B313B3022206475723D22312E357322207265706561 PUSH2 0x116 DUP7 ADD MSTORE PUSH21 0x3A21B7BAB73A1E9134B73232B334B734BA3291179F PUSH1 0x59 SHL PUSH2 0x136 DUP7 ADD MSTORE DUP3 PUSH2 0x14B DUP7 ADD MSTORE PUSH32 0x3C636972636C652063783D22313530222063793D223330302220723D22322220 PUSH2 0x154 DUP7 ADD MSTORE PUSH32 0x66696C6C3D222346464437303022206F7061636974793D22302E37223E000000 PUSH2 0x174 DUP7 ADD MSTORE PUSH2 0x191 DUP6 ADD MSTORE PUSH32 0x2076616C7565733D22303B313B3022206475723D223273222072657065617443 PUSH2 0x1B1 DUP6 ADD MSTORE PUSH2 0x1D1 DUP5 ADD MSTORE PUSH2 0x1E4 DUP4 ADD MSTORE PUSH2 0x1CD DUP3 MSTORE PUSH2 0x200 DUP3 ADD SWAP1 DUP3 DUP3 LT PUSH8 0xFFFFFFFFFFFFFFFF DUP4 GT OR PUSH2 0x494 JUMPI MSTORE SWAP1 JUMP JUMPDEST PUSH1 0x4 EQ PUSH2 0x2012 JUMPI MLOAD PUSH2 0x13A7 DUP2 PUSH2 0x4FE JUMP JUMPDEST PUSH32 0x2066696C6C3D226E6F6E6522207374726F6B653D222346464437303022207374 DUP2 MLOAD SWAP2 PUSH32 0x3C636972636C652063783D22323030222063793D223230302220723D22383022 PUSH1 0x20 DUP5 ADD MSTORE DUP3 ADD MSTORE PUSH32 0x726F6B652D77696474683D223122206F7061636974793D22302E33223E000000 PUSH1 0x60 DUP3 ADD MSTORE PUSH32 0x3C616E696D617465206174747269627574654E616D653D2272222076616C7565 PUSH1 0x7D DUP3 ADD MSTORE PUSH32 0x733D2237353B38353B373522206475723D2233732220726570656174436F756E PUSH1 0x9D DUP3 ADD MSTORE PUSH16 0x3A1E9134B73232B334B734BA3291179F PUSH1 0x81 SHL PUSH1 0xBD DUP3 ADD MSTORE PUSH9 0x1E17B1B4B931B6329F PUSH1 0xB9 SHL PUSH1 0xCD DUP3 ADD MSTORE PUSH1 0xB6 DUP2 MSTORE PUSH2 0xF27 DUP2 PUSH2 0x4E2 JUMP JUMPDEST DUP1 PUSH1 0x0 SWAP2 PUSH27 0x184F03E93FF9F4DAA797ED6E38ED64BF6A1F010000000000000000 DUP1 DUP3 LT ISZERO PUSH2 0x2263 JUMPI JUMPDEST POP PUSH14 0x4EE2D6D415B85ACEF8100000000 DUP1 DUP4 LT ISZERO PUSH2 0x2254 JUMPI JUMPDEST POP PUSH7 0x2386F26FC10000 DUP1 DUP4 LT ISZERO PUSH2 0x2245 JUMPI JUMPDEST POP PUSH4 0x5F5E100 DUP1 DUP4 LT ISZERO PUSH2 0x2236 JUMPI JUMPDEST POP PUSH2 0x2710 DUP1 DUP4 LT ISZERO PUSH2 0x2227 JUMPI JUMPDEST POP PUSH1 0x64 DUP3 LT ISZERO PUSH2 0x2217 JUMPI JUMPDEST PUSH1 0xA DUP1 SWAP3 LT ISZERO PUSH2 0x220D JUMPI JUMPDEST PUSH1 0x1 SWAP1 DUP2 PUSH1 0x21 DUP2 DUP7 ADD SWAP6 PUSH2 0x21A2 DUP8 PUSH2 0x590 JUMP JUMPDEST SWAP7 PUSH2 0x21B0 PUSH1 0x40 MLOAD SWAP9 DUP10 PUSH2 0x56E JUMP JUMPDEST DUP1 DUP9 MSTORE PUSH2 0x21BF PUSH1 0x1F NOT SWAP2 PUSH2 0x590 JUMP JUMPDEST ADD CALLDATASIZE PUSH1 0x20 DUP10 ADD CALLDATACOPY DUP7 ADD ADD SWAP1 JUMPDEST PUSH2 0x21D7 JUMPI JUMPDEST POP POP POP POP SWAP1 JUMP JUMPDEST PUSH1 0x0 NOT ADD SWAP1 DUP4 SWAP1 PUSH16 0x181899199A1A9B1B9C1CB0B131B232B3 PUSH1 0x81 SHL DUP3 DUP3 MOD BYTE DUP4 MSTORE8 DIV SWAP2 DUP3 ISZERO PUSH2 0x2208 JUMPI SWAP2 SWAP1 DUP3 PUSH2 0x21CB JUMP JUMPDEST PUSH2 0x21D0 JUMP JUMPDEST SWAP2 PUSH1 0x1 ADD SWAP2 PUSH2 0x218F JUMP JUMPDEST SWAP2 SWAP1 PUSH1 0x64 PUSH1 0x2 SWAP2 DIV SWAP2 ADD SWAP2 PUSH2 0x2184 JUMP JUMPDEST PUSH1 0x4 SWAP2 SWAP4 SWAP3 DIV SWAP2 ADD SWAP2 CODESIZE PUSH2 0x2179 JUMP JUMPDEST PUSH1 0x8 SWAP2 SWAP4 SWAP3 DIV SWAP2 ADD SWAP2 CODESIZE PUSH2 0x216C JUMP JUMPDEST PUSH1 0x10 SWAP2 SWAP4 SWAP3 DIV SWAP2 ADD SWAP2 CODESIZE PUSH2 0x215D JUMP JUMPDEST PUSH1 0x20 SWAP2 SWAP4 SWAP3 DIV SWAP2 ADD SWAP2 CODESIZE PUSH2 0x214B JUMP JUMPDEST PUSH1 0x40 SWAP4 POP DUP2 DIV SWAP2 POP CODESIZE PUSH2 0x2132 JUMP JUMPDEST PUSH1 0x40 MLOAD SWAP1 PUSH2 0x227E DUP3 PUSH2 0x4AA JUMP JUMPDEST PUSH1 0x7 DUP3 MSTORE PUSH7 0x2AB735B737BBB7 PUSH1 0xC9 SHL PUSH1 0x20 DUP4 ADD MSTORE JUMP JUMPDEST DUP1 ISZERO PUSH2 0x2351 JUMPI PUSH1 0x1 DUP2 EQ PUSH2 0x232C JUMPI PUSH1 0x2 DUP2 EQ PUSH2 0x230B JUMPI PUSH1 0x3 DUP2 EQ PUSH2 0x22E5 JUMPI PUSH1 0x4 EQ PUSH2 0x22C1 JUMPI PUSH2 0xF27 PUSH2 0x2271 JUMP JUMPDEST PUSH1 0x40 MLOAD PUSH2 0x22CD DUP2 PUSH2 0x4AA JUMP JUMPDEST PUSH1 0x8 DUP2 MSTORE PUSH8 0x23BAB0B93234B0B7 PUSH1 0xC1 SHL PUSH1 0x20 DUP3 ADD MSTORE SWAP1 JUMP JUMPDEST POP PUSH1 0x40 MLOAD PUSH2 0x22F2 DUP2 PUSH2 0x4AA JUMP JUMPDEST PUSH1 0x9 DUP2 MSTORE PUSH9 0x2132B939B2B935B2B9 PUSH1 0xB9 SHL PUSH1 0x20 DUP3 ADD MSTORE SWAP1 JUMP JUMPDEST POP PUSH1 0x40 MLOAD PUSH2 0x2318 DUP2 PUSH2 0x4AA JUMP JUMPDEST PUSH1 0x4 DUP2 MSTORE PUSH4 0x4D616765 PUSH1 0xE0 SHL PUSH1 0x20 DUP3 ADD MSTORE SWAP1 JUMP JUMPDEST POP PUSH1 0x40 MLOAD PUSH2 0x2339 DUP2 PUSH2 0x4AA JUMP JUMPDEST PUSH1 0x8 DUP2 MSTORE PUSH8 0x20B9B9B0B9B9B4B7 PUSH1 0xC1 SHL PUSH1 0x20 DUP3 ADD MSTORE SWAP1 JUMP JUMPDEST POP PUSH1 0x40 MLOAD PUSH2 0x235E DUP2 PUSH2 0x4AA JUMP JUMPDEST PUSH1 0x7 DUP2 MSTORE PUSH7 0x2BB0B93934B7B9 PUSH1 0xC9 SHL PUSH1 0x20 DUP3 ADD MSTORE SWAP1 JUMP JUMPDEST DUP1 ISZERO PUSH2 0x2459 JUMPI PUSH1 0x1 DUP2 EQ PUSH2 0x2434 JUMPI PUSH1 0x2 DUP2 EQ PUSH2 0x2413 JUMPI PUSH1 0x3 DUP2 EQ PUSH2 0x23F2 JUMPI PUSH1 0x4 DUP2 EQ PUSH2 0x23CC JUMPI PUSH1 0x5 EQ PUSH2 0x23AA JUMPI PUSH2 0xF27 PUSH2 0x2271 JUMP JUMPDEST PUSH1 0x40 MLOAD PUSH2 0x23B6 DUP2 PUSH2 0x4AA JUMP JUMPDEST PUSH1 0x6 DUP2 MSTORE PUSH6 0x4D7974686963 PUSH1 0xD0 SHL PUSH1 0x20 DUP3 ADD MSTORE SWAP1 JUMP JUMPDEST POP PUSH1 0x40 MLOAD PUSH2 0x23D9 DUP2 PUSH2 0x4AA JUMP JUMPDEST PUSH1 0x9 DUP2 MSTORE PUSH9 0x4C6567656E64617279 PUSH1 0xB8 SHL PUSH1 0x20 DUP3 ADD MSTORE SWAP1 JUMP JUMPDEST POP PUSH1 0x40 MLOAD PUSH2 0x23FF DUP2 PUSH2 0x4AA JUMP JUMPDEST PUSH1 0x4 DUP2 MSTORE PUSH4 0x45706963 PUSH1 0xE0 SHL PUSH1 0x20 DUP3 ADD MSTORE SWAP1 JUMP JUMPDEST POP PUSH1 0x40 MLOAD PUSH2 0x2420 DUP2 PUSH2 0x4AA JUMP JUMPDEST PUSH1 0x4 DUP2 MSTORE PUSH4 0x52617265 PUSH1 0xE0 SHL PUSH1 0x20 DUP3 ADD MSTORE SWAP1 JUMP JUMPDEST POP PUSH1 0x40 MLOAD PUSH2 0x2441 DUP2 PUSH2 0x4AA JUMP JUMPDEST PUSH1 0x8 DUP2 MSTORE PUSH8 0x2AB731B7B6B6B7B7 PUSH1 0xC1 SHL PUSH1 0x20 DUP3 ADD MSTORE SWAP1 JUMP JUMPDEST POP PUSH1 0x40 MLOAD PUSH2 0x2466 DUP2 PUSH2 0x4AA JUMP JUMPDEST PUSH1 0x6 DUP2 MSTORE PUSH6 0x21B7B6B6B7B7 PUSH1 0xD1 SHL PUSH1 0x20 DUP3 ADD MSTORE SWAP1 JUMP INVALID LOG2 PUSH5 0x6970667358 0x22 SLT KECCAK256 0xB9 MULMOD 0x29 0xDE 0xC1 0xBE 0x1F PUSH4 0x844F5CC6 0x2E 0xCF 0xAD LOG2 0x1F 0xB5 BLOCKHASH CODECOPY 0xC4 PUSH2 0x98EC PUSH2 0x405F 0xBE 0xEB SLT 0xBE 0xD8 PUSH5 0x736F6C6343 STOP ADDMOD EQ STOP CALLER "},"methodIdentifiers":{"generateBerserkerSVG()":"96d9ac6e","generateGuardianSVG()":"81ffd02a","generateMageSVG()":"b041c99b","generateTestSVG()":"6f5495ef","generateWarriorSVG()":"92be2399"}}}}}