{"contracts/MonanimalNFT_Improved.sol":{"MonanimalNFT":{"abi":[{"inputs":[],"stateMutability":"nonpayable","type":"constructor"},{"anonymous":false,"inputs":[{"indexed":true,"internalType":"address","name":"owner","type":"address"},{"indexed":true,"internalType":"address","name":"approved","type":"address"},{"indexed":true,"internalType":"uint256","name":"tokenId","type":"uint256"}],"name":"Approval","type":"event"},{"anonymous":false,"inputs":[{"indexed":true,"internalType":"address","name":"owner","type":"address"},{"indexed":true,"internalType":"address","name":"operator","type":"address"},{"indexed":false,"internalType":"bool","name":"approved","type":"bool"}],"name":"ApprovalForAll","type":"event"},{"anonymous":false,"inputs":[{"indexed":true,"internalType":"uint256","name":"tokenId","type":"uint256"},{"indexed":false,"internalType":"uint256","name":"weaponId","type":"uint256"},{"indexed":false,"internalType":"uint256","name":"artifactId","type":"uint256"}],"name":"MonanimalEquipped","type":"event"},{"anonymous":false,"inputs":[{"indexed":true,"internalType":"uint256","name":"tokenId","type":"uint256"}],"name":"MonanimalHealed","type":"event"},{"anonymous":false,"inputs":[{"indexed":true,"internalType":"uint256","name":"tokenId","type":"uint256"},{"indexed":false,"internalType":"uint256","name":"newLevel","type":"uint256"}],"name":"MonanimalLevelUp","type":"event"},{"anonymous":false,"inputs":[{"indexed":true,"internalType":"uint256","name":"tokenId","type":"uint256"},{"indexed":true,"internalType":"address","name":"owner","type":"address"},{"indexed":false,"internalType":"enum MonanimalNFT.MonanimalClass","name":"class","type":"uint8"},{"indexed":false,"internalType":"enum MonanimalNFT.Rarity","name":"rarity","type":"uint8"}],"name":"MonanimalMinted","type":"event"},{"anonymous":false,"inputs":[{"indexed":true,"internalType":"address","name":"previousOwner","type":"address"},{"indexed":true,"internalType":"address","name":"newOwner","type":"address"}],"name":"OwnershipTransferred","type":"event"},{"anonymous":false,"inputs":[{"indexed":true,"internalType":"address","name":"from","type":"address"},{"indexed":true,"internalType":"address","name":"to","type":"address"},{"indexed":true,"internalType":"uint256","name":"tokenId","type":"uint256"}],"name":"Transfer","type":"event"},{"inputs":[{"internalType":"uint256","name":"tokenId","type":"uint256"},{"internalType":"uint256","name":"exp","type":"uint256"}],"name":"addExperience","outputs":[],"stateMutability":"nonpayable","type":"function"},{"inputs":[{"internalType":"address","name":"to","type":"address"},{"internalType":"uint256","name":"tokenId","type":"uint256"}],"name":"approve","outputs":[],"stateMutability":"nonpayable","type":"function"},{"inputs":[{"internalType":"address","name":"owner","type":"address"}],"name":"balanceOf","outputs":[{"internalType":"uint256","name":"","type":"uint256"}],"stateMutability":"view","type":"function"},{"inputs":[{"internalType":"uint256","name":"tokenId","type":"uint256"},{"internalType":"uint256","name":"weaponId","type":"uint256"},{"internalType":"uint256","name":"artifactId","type":"uint256"}],"name":"equipItems","outputs":[],"stateMutability":"nonpayable","type":"function"},{"inputs":[{"internalType":"uint256","name":"tokenId","type":"uint256"}],"name":"getApproved","outputs":[{"internalType":"address","name":"","type":"address"}],"stateMutability":"view","type":"function"},{"inputs":[{"internalType":"uint256","name":"tokenId","type":"uint256"}],"name":"getMonanimal","outputs":[{"components":[{"internalType":"string","name":"name","type":"string"},{"internalType":"enum MonanimalNFT.MonanimalClass","name":"class","type":"uint8"},{"internalType":"enum MonanimalNFT.Rarity","name":"rarity","type":"uint8"},{"components":[{"internalType":"uint256","name":"health","type":"uint256"},{"internalType":"uint256","name":"attack","type":"uint256"},{"internalType":"uint256","name":"defense","type":"uint256"},{"internalType":"uint256","name":"speed","type":"uint256"},{"internalType":"uint256","name":"magic","type":"uint256"},{"internalType":"uint256","name":"luck","type":"uint256"}],"internalType":"struct MonanimalNFT.MonanimalStats","name":"stats","type":"tuple"},{"internalType":"uint256","name":"level","type":"uint256"},{"internalType":"uint256","name":"experience","type":"uint256"},{"internalType":"uint256","name":"wins","type":"uint256"},{"internalType":"uint256","name":"losses","type":"uint256"},{"internalType":"bool","name":"isKO","type":"bool"},{"internalType":"uint256","name":"lastBattleTime","type":"uint256"},{"internalType":"string","name":"colorScheme","type":"string"},{"internalType":"uint256","name":"weaponId","type":"uint256"},{"internalType":"uint256","name":"artifactId","type":"uint256"}],"internalType":"struct MonanimalNFT.Monanimal","name":"","type":"tuple"}],"stateMutability":"view","type":"function"},{"inputs":[{"internalType":"address","name":"owner","type":"address"}],"name":"getOwnerMonanimals","outputs":[{"internalType":"uint256[]","name":"","type":"uint256[]"}],"stateMutability":"view","type":"function"},{"inputs":[{"internalType":"uint256","name":"tokenId","type":"uint256"}],"name":"healMonanimal","outputs":[],"stateMutability":"payable","type":"function"},{"inputs":[],"name":"healingPrice","outputs":[{"internalType":"uint256","name":"","type":"uint256"}],"stateMutability":"view","type":"function"},{"inputs":[{"internalType":"address","name":"owner","type":"address"},{"internalType":"address","name":"operator","type":"address"}],"name":"isApprovedForAll","outputs":[{"internalType":"bool","name":"","type":"bool"}],"stateMutability":"view","type":"function"},{"inputs":[],"name":"mint","outputs":[],"stateMutability":"payable","type":"function"},{"inputs":[],"name":"mintPrice","outputs":[{"internalType":"uint256","name":"","type":"uint256"}],"stateMutability":"view","type":"function"},{"inputs":[{"internalType":"uint256","name":"","type":"uint256"}],"name":"monanimals","outputs":[{"internalType":"string","name":"name","type":"string"},{"internalType":"enum MonanimalNFT.MonanimalClass","name":"class","type":"uint8"},{"internalType":"enum MonanimalNFT.Rarity","name":"rarity","type":"uint8"},{"components":[{"internalType":"uint256","name":"health","type":"uint256"},{"internalType":"uint256","name":"attack","type":"uint256"},{"internalType":"uint256","name":"defense","type":"uint256"},{"internalType":"uint256","name":"speed","type":"uint256"},{"internalType":"uint256","name":"magic","type":"uint256"},{"internalType":"uint256","name":"luck","type":"uint256"}],"internalType":"struct MonanimalNFT.MonanimalStats","name":"stats","type":"tuple"},{"internalType":"uint256","name":"level","type":"uint256"},{"internalType":"uint256","name":"experience","type":"uint256"},{"internalType":"uint256","name":"wins","type":"uint256"},{"internalType":"uint256","name":"losses","type":"uint256"},{"internalType":"bool","name":"isKO","type":"bool"},{"internalType":"uint256","name":"lastBattleTime","type":"uint256"},{"internalType":"string","name":"colorScheme","type":"string"},{"internalType":"uint256","name":"weaponId","type":"uint256"},{"internalType":"uint256","name":"artifactId","type":"uint256"}],"stateMutability":"view","type":"function"},{"inputs":[],"name":"name","outputs":[{"internalType":"string","name":"","type":"string"}],"stateMutability":"view","type":"function"},{"inputs":[],"name":"owner","outputs":[{"internalType":"address","name":"","type":"address"}],"stateMutability":"view","type":"function"},{"inputs":[{"internalType":"address","name":"","type":"address"},{"internalType":"uint256","name":"","type":"uint256"}],"name":"ownerMonanimals","outputs":[{"internalType":"uint256","name":"","type":"uint256"}],"stateMutability":"view","type":"function"},{"inputs":[{"internalType":"uint256","name":"tokenId","type":"uint256"}],"name":"ownerOf","outputs":[{"internalType":"address","name":"","type":"address"}],"stateMutability":"view","type":"function"},{"inputs":[],"name":"renounceOwnership","outputs":[],"stateMutability":"nonpayable","type":"function"},{"inputs":[{"internalType":"address","name":"from","type":"address"},{"internalType":"address","name":"to","type":"address"},{"internalType":"uint256","name":"tokenId","type":"uint256"}],"name":"safeTransferFrom","outputs":[],"stateMutability":"nonpayable","type":"function"},{"inputs":[{"internalType":"address","name":"from","type":"address"},{"internalType":"address","name":"to","type":"address"},{"internalType":"uint256","name":"tokenId","type":"uint256"},{"internalType":"bytes","name":"data","type":"bytes"}],"name":"safeTransferFrom","outputs":[],"stateMutability":"nonpayable","type":"function"},{"inputs":[{"internalType":"address","name":"operator","type":"address"},{"internalType":"bool","name":"approved","type":"bool"}],"name":"setApprovalForAll","outputs":[],"stateMutability":"nonpayable","type":"function"},{"inputs":[{"internalType":"uint256","name":"_price","type":"uint256"}],"name":"setHealingPrice","outputs":[],"stateMutability":"nonpayable","type":"function"},{"inputs":[{"internalType":"uint256","name":"_price","type":"uint256"}],"name":"setMintPrice","outputs":[],"stateMutability":"nonpayable","type":"function"},{"inputs":[{"internalType":"bytes4","name":"interfaceId","type":"bytes4"}],"name":"supportsInterface","outputs":[{"internalType":"bool","name":"","type":"bool"}],"stateMutability":"view","type":"function"},{"inputs":[],"name":"symbol","outputs":[{"internalType":"string","name":"","type":"string"}],"stateMutability":"view","type":"function"},{"inputs":[{"internalType":"uint256","name":"index","type":"uint256"}],"name":"tokenByIndex","outputs":[{"internalType":"uint256","name":"","type":"uint256"}],"stateMutability":"view","type":"function"},{"inputs":[{"internalType":"address","name":"owner","type":"address"},{"internalType":"uint256","name":"index","type":"uint256"}],"name":"tokenOfOwnerByIndex","outputs":[{"internalType":"uint256","name":"","type":"uint256"}],"stateMutability":"view","type":"function"},{"inputs":[{"internalType":"uint256","name":"tokenId","type":"uint256"}],"name":"tokenURI","outputs":[{"internalType":"string","name":"","type":"string"}],"stateMutability":"view","type":"function"},{"inputs":[],"name":"totalSupply","outputs":[{"internalType":"uint256","name":"","type":"uint256"}],"stateMutability":"view","type":"function"},{"inputs":[{"internalType":"address","name":"from","type":"address"},{"internalType":"address","name":"to","type":"address"},{"internalType":"uint256","name":"tokenId","type":"uint256"}],"name":"transferFrom","outputs":[],"stateMutability":"nonpayable","type":"function"},{"inputs":[{"internalType":"address","name":"newOwner","type":"address"}],"name":"transferOwnership","outputs":[],"stateMutability":"nonpayable","type":"function"},{"inputs":[{"internalType":"uint256","name":"tokenId","type":"uint256"},{"internalType":"bool","name":"won","type":"bool"}],"name":"updateBattleResult","outputs":[],"stateMutability":"nonpayable","type":"function"},{"inputs":[],"name":"withdraw","outputs":[],"stateMutability":"nonpayable","type":"function"}],"evm":{"bytecode":{"linkReferences":{},"object":"60803462000382576001600160401b03906040818101838111838210176200036c578152601482526020917f427261776c4e616473204d6f6e616e696d616c7300000000000000000000000083820152815193828501858110828211176200036c578352600585526410949055d360da1b8486015281518181116200036c576000948554916001948584811c9416801562000361575b838510146200034d578190601f94858111620002fa575b508390858311600114620002965789926200028a575b5050600019600383901b1c191690851b1786555b8651928311620002765783548481811c911680156200026b575b8282101462000257578281116200020f575b5080918311600114620001a85750849582939495926200019c575b5050600019600383901b1c191690821b1790555b600a8054336001600160a01b03198216811790925591519290916001600160a01b0316907f8be0079c531659141344cd1fd0a4f28419497f9722a3daafe3b4186f6b6457e09080a3662386f26fc10000600e556611c37937e08000600f55615d7a9081620003888239f35b0151905038806200011d565b90601f198316968487528287209287905b898210620001f7575050838596979810620001dd575b505050811b01905562000131565b015160001960f88460031b161c19169055388080620001cf565b808785968294968601518155019501930190620001b9565b8487528187208380860160051c8201928487106200024d575b0160051c019085905b8281106200024157505062000102565b88815501859062000231565b9250819262000228565b634e487b7160e01b87526022600452602487fd5b90607f1690620000f0565b634e487b7160e01b86526041600452602486fd5b015190503880620000c2565b898052848a208894509190601f1984168b5b87828210620002e35750508411620002c9575b505050811b018655620000d6565b015160001960f88460031b161c19169055388080620002bb565b8385015186558b97909501949384019301620002a8565b9091508880528389208580850160051c82019286861062000343575b918991869594930160051c01915b82811062000334575050620000ac565b8b815585945089910162000324565b9250819262000316565b634e487b7160e01b88526022600452602488fd5b93607f169362000095565b634e487b7160e01b600052604160045260246000fd5b600080fdfe61016080604052600436101561001457600080fd5b60003560e01c90816301ffc9a7146136ed5750806306fdde031461364a578063081812fc1461362c578063095ea7b3146134b25780631249c58b146129c857806318160ddd146129aa5780631a01da3f1461277457806323b872dd146127505780632f745c591461269e5780633ccfd60b1461264e57806342842e0e1461261b5780634f0fab161461255d5780634f6ccce7146124b25780635a6de6c6146124345780635d240c58146122145780635f89525c1461211d57806361f9f71f14611fdc5780636352211e14611fac5780636817c76c14611f8e57806370a0823114611f63578063715018a614611f06578063894994c314611ee55780638da5cb5b14611ebc57806395d89b4114611ddd5780639942f46714611dbf578063a22cb46514611ce7578063aa66b47e14611c8f578063b88d4fde14611be0578063c87b56dd1461037f578063e985e9c514610329578063f2afec2f14610275578063f2fde38b146101b15763f4a0a5281461018b57600080fd5b346101ac5760203660031901126101ac576101a4613a92565b600435600e55005b600080fd5b346101ac5760203660031901126101ac576101ca6137ba565b6101d2613a92565b6001600160a01b0390811690811561022157600a54826001600160601b0360a01b821617600a55167f8be0079c531659141344cd1fd0a4f28419497f9722a3daafe3b4186f6b6457e0600080a3005b60405162461bcd60e51b815260206004820152602660248201527f4f776e61626c653a206e6577206f776e657220697320746865207a65726f206160448201526564647265737360d01b6064820152608490fd5b346101ac576020806003193601126101ac576001600160a01b036102976137ba565b16600052600d8152604060002060405190818382549182815201908192600052846000209060005b868282106103155786866102d58288038361393c565b604051928392818401908285525180915260408401929160005b8281106102fe57505050500390f35b8351855286955093810193928101926001016102ef565b8354855290930192600192830192016102bf565b346101ac5760403660031901126101ac576103426137ba565b61034a6137d0565b9060018060a01b03809116600052600560205260406000209116600052602052602060ff604060002054166040519015158152f35b346101ac5760203660031901126101ac576004356000818152600260205260409020546001600160a01b031615611ba457600052600c60205260406000206010604051916103cc836138b4565b6103d58161395d565b83526103fd60ff60018301546103f0828216602088016141aa565b60081c16604085016141b6565b61040960028201613a03565b606084015260088101546080840152600981015460a0840152600a81015460c0840152600b81015460e084015260ff600c820154161515610100840152600d81015461012084015261045d600e820161395d565b610140840152600f8101546101608401520154610180820152805160208201519060058210156116be57604083015160068110156116be576104e092849160808301516060840151908151602083015160408401519160608501519360a06080870151960151966101408a01519860e060c08c01519b01519b6040519d8e6138b4565b8d5260208d015260408c015260608b015260808a015260a089015260c088015260e08701526101008601526101208501526101408401526101608301526101808201526040517f3c72616469616c4772616469656e742069643d226267222063783d22353025226020820152711031bc9e911998129110391e911b9812911f60711b6040820152600080516020615ce583398151915260528201527f6c6f723a233261316134613b73746f702d6f7061636974793a3122202f3e00006072820152600080516020615d0583398151915260908201527f6f6c6f723a233161306432653b73746f702d6f7061636974793a3122202f3e0060b0820152600080516020615d2583398151915260cf8201527f636f6c6f723a233064303531353b73746f702d6f7061636974793a3122202f3e60ef820152701e17b930b234b0b623b930b234b2b73a1f60791b61010f8201526101008152806101208101106001600160401b0361012083011117611b8e5761012081016040526020820151806117c2575060408201516003116116d45760405161075660ce8261068360208201614748565b600080516020615ce583398151915281527f6c6f723a236666366239643b73746f702d6f7061636974793a3122202f3e00006020820152600080516020615d05833981519152603e8201527f6f6c6f723a236334343536393b73746f702d6f7061636974793a3122202f3e00605e820152600080516020615d25833981519152607d8201527f636f6c6f723a233833364546393b73746f702d6f7061636974793a3122202f3e609d820152701e17b930b234b0b623b930b234b2b73a1f60791b60bd8201520360ae81018452018261393c565b905b6040519181839251908160208501916020019161077492613772565b82018151918260208301916020019161078c92613772565b010380825260200161079e908261393c565b60408201516107ac9061478e565b9060405191829160208301651e3232b3399f60d11b9052805190816026850191602001916107d992613772565b8201815191826026830191602001916107f192613772565b0160268101661e17b232b3399f60c91b905203600d81018252602d01610817908261393c565b6040519061082482613906565b603082527f3c726563742077696474683d2234303022206865696768743d2234303022206660208301526f34b6361e913ab9361411b1339491179f60811b604083015261087083614969565b9261087a81614ce0565b61088382614ea3565b61088c836150bf565b91610896846153d4565b936108a0816157d3565b6101405280519060608101516108b590614420565b60208201516108c390615c21565b9260408301516108d290615c7a565b9060808401516108e190614420565b9060a08501516108f090614420565b9060c08601516108ff90614420565b6101205260e086015161091190614420565b9261010087015161092190614420565b9461012088015161093190614420565b9661016089015161094190614420565b98610180015161095090614420565b9960405180610100526020017f3c7265637420783d2231302220793d22333230222077696474683d22333830229052610100516040017f206865696768743d223730222066696c6c3d2223303030303030222066696c6c9052610100516060017f2d6f7061636974793d22302e39222072783d223822207374726f6b653d2223389052610100516080017f333645463922207374726f6b652d77696474683d2231222f3e000000000000009052610100516099017f3c7465787420783d2232302220793d22333430222066696c6c3d22234646464690527f46462220666f6e742d66616d696c793d22417269616c2c2073616e732d73657294856101005160b901526101005160d9017f69662220666f6e742d73697a653d2231342220666f6e742d7765696768743d229052653137b632111f60d11b6101005160f90152805190816101005160ff019160200191610aa792613772565b6101005101661e17ba32bc3a1f60c91b8060c05260ff82015261010681017f3c7465787420783d2232302220793d22333535222066696c6c3d222338333645905261012681017f46392220666f6e742d66616d696c793d22417269616c2c2073616e732d736572905261014681017f69662220666f6e742d73697a653d223131223e4c6576656c2000000000000000905282519061015f93828583019160200191610b5192613772565b0180608052620103e160ed1b9283910152610162908160e05280518092608051019160200191610b8092613772565b608051018060a05260e0510152805161016591818360a051019160200191610ba792613772565b60a051019060c0519082015261016c81017f3c7465787420783d2232302220793d22333730222066696c6c3d22234646464690528261018c8201527534b311103337b73a16b9b4bd329e911898111f24281d60511b6101ac8201528151906101c292828483019160200191610c1b92613772565b01908101641020aa259d60d91b90528251906101c793828583019160200191610c4392613772565b0191820164102222a31d60d91b905261012051918251906101cc93828583019160200191610c7092613772565b019160c051908301526101d382017f3c7465787420783d2232302220793d22333833222066696c6c3d22234646464690526101f382015261021381017f69662220666f6e742d73697a653d223130223e5350443a000000000000000000905281519061022a92828483019160200191610ce892613772565b01908101641026a0a39d60d91b905281519061022f92828483019160200191610d1092613772565b0190810164102621a59d60d91b905281519061023492828483019160200191610d3892613772565b019060c0519082015261023b81017f3c7465787420783d223238302220793d22333730222066696c6c3d222341303090527f3535442220666f6e742d66616d696c793d22417269616c2c2073616e732d7365908161025b82015261027b81017f7269662220666f6e742d73697a653d223130223e57696e733a20000000000000905282519061029593828583019160200191610dd392613772565b019160c0519083015261029c82017f3c7465787420783d223238302220793d22333833222066696c6c3d222341303090526102bc8201526102dc81017f7269662220666f6e742d73697a653d223130223e4c6f737365733a200000000090528151906102f892828483019160200191610e4b92613772565b019060c0519082015261010051809103906102df820190526102ff016101005190610e759161393c565b604051968796602088017f3c7376672077696474683d2234303022206865696768743d223430302220786d9052604088017f6c6e733d22687474703a2f2f7777772e77332e6f72672f323030302f73766722905260608801601f60f91b9052865160619781898b019160200191610eeb92613772565b8801815191828983019160200191610f0292613772565b01815191828883019160200191610f1892613772565b01815191828783019160200191610f2e92613772565b01815191828683019160200191610f4492613772565b01815191828583019160200191610f5a92613772565b01815191828483019160200191610f7092613772565b016101405190815191828483019160200191610f8b92613772565b016101005190815191828483019160200191610fa692613772565b01908101651e17b9bb339f60d11b905203604781018252606701610fca908261393c565b815190610fd6906145ae565b91602081015160058110156116be5761103890604051610ff581613899565b610ffd6142a6565b81526110076142c9565b60208201526110146142ed565b604082015261102161430d565b606082015261102e614332565b60808201526143dd565b5190604081015160068110156116be57604051906110558261387e565b61105d614702565b8252611067614724565b6020830152611074614356565b6040830152611081614376565b606083015261108e614396565b608083015261109b6143bb565b60a08301526110a991614295565b5160808201516110b890614420565b906060830151516110c890614420565b916060840151602001516110db90614420565b906060850151604001516110ee90614420565b9360608601516060015161110190614420565b9160608701516080015161111490614420565b90606088015160a0015161112790614420565b9360c089015161113690614420565b9660e08a015161114590614420565b9961014001519a6040519d8e9d8e683d913730b6b2911d1160b91b60208201528151918260298301916020019161117b92613772565b61088b60f21b9101602981018290527f226465736372697074696f6e223a224120756e69717565204d6f6e616e696d61602b8201527f6c206669676874657220696e2074686520427261776c4e61647320626174746c604b8201527f6520726f79616c652e20496e73706972656420627920746865204d6f6e616420606b8201527f626c6f636b636861696e2065636f73797374656d20776974682066756c6c7920608b820152711bdb98da185a5b8814d591c8185c9d0b888b60721b60ab8201527f22696d616765223a22646174613a696d6167652f7376672b786d6c3b6261736560bd820152620d8d0b60ea1b60dd8201528251919261128690839060e0840190602001613772565b019060e08201526d2261747472696275746573223a5b60901b60e282015260f081017f7b2274726169745f74797065223a22436c617373222c2276616c7565223a220090528151918261010f830191602001916112e292613772565b0162089f4b60ea1b908161010f82015261011281017f7b2274726169745f74797065223a22526172697479222c2276616c7565223a2290528251906101329382858301916020019161133392613772565b019182015261013581017f7b2274726169745f74797065223a224c6576656c222c2276616c7565223a000090528251906101539382858301916020019161137992613772565b0191611f4b60f21b98898098818098818881809a988199015261015581017f7b2274726169745f74797065223a224865616c7468222c2276616c7565223a009052825190610174938285830191602001916113d392613772565b019182015261017681017f7b2274726169745f74797065223a2241747461636b222c2276616c7565223a0090528251906101959382858301916020019161141992613772565b019182015261019781017f7b2274726169745f74797065223a22446566656e7365222c2276616c7565223a90528251906101b79382858301916020019161145f92613772565b01918201526101b981017f7b2274726169745f74797065223a225370656564222c2276616c7565223a000090528251906101d7938285830191602001916114a592613772565b01918201526101d981017f7b2274726169745f74797065223a224d61676963222c2276616c7565223a000090528251906101f7938285830191602001916114eb92613772565b01918201526101f981017f7b2274726169745f74797065223a224c75636b222c2276616c7565223a00000090528251906102169382858301916020019161153192613772565b019182015261021881017f7b2274726169745f74797065223a2257696e73222c2276616c7565223a00000090528251906102359382858301916020019161157792613772565b019182015261023781017f7b2274726169745f74797065223a224c6f73736573222c2276616c7565223a009052825190610256938285830191602001916115bd92613772565b01918201527f7b2274726169745f74797065223a22436f6c6f7220536368656d65222c22766161025882015265363ab2911d1160d11b610278820152815161027e9290919061161490839085840190602001613772565b019061227d60f01b908201526102808101615d7d60f01b9052036102628101825261028201611643908261393c565b61164c906145ae565b6040518091602082017f646174613a6170706c69636174696f6e2f6a736f6e3b6261736536342c000000905280519081603d8401916020019161168e92613772565b810103601d81018252603d016116a4908261393c565b604051809160208252602082016116ba91613795565b0390f35b634e487b7160e01b600052602160045260246000fd5b6040516117bc60ce826116e960208201614748565b600080516020615ce583398151915281527f6c6f723a233833364546393b73746f702d6f7061636974793a3122202f3e00006020820152600080516020615d05833981519152603e8201527f6f6c6f723a233563326136623b73746f702d6f7061636974793a3122202f3e00605e820152600080516020615d25833981519152607d8201527f636f6c6f723a233364316134613b73746f702d6f7061636974793a3122202f3e609d820152701e17b930b234b0b623b930b234b2b73a1f60791b60bd8201520360ae81018452018261393c565b90610758565b600181036118b357506040516117bc60ce826117e060208201614748565b600080516020615ce583398151915281527f6c6f723a233661346339333b73746f702d6f7061636974793a3122202f3e00006020820152600080516020615d05833981519152603e8201527f6f6c6f723a233461326335613b73746f702d6f7061636974793a3122202f3e00605e820152600080516020615d25833981519152607d8201527f636f6c6f723a233264316233643b73746f702d6f7061636974793a3122202f3e609d820152701e17b930b234b0b623b930b234b2b73a1f60791b60bd8201520360ae81018452018261393c565b600281036119a457506040516117bc60ce826118d160208201614748565b600080516020615ce583398151915281527f6c6f723a233461393065323b73746f702d6f7061636974793a3122202f3e00006020820152600080516020615d05833981519152603e8201527f6f6c6f723a233265356338613b73746f702d6f7061636974793a3122202f3e00605e820152600080516020615d25833981519152607d8201527f636f6c6f723a233161336135633b73746f702d6f7061636974793a3122202f3e609d820152701e17b930b234b0b623b930b234b2b73a1f60791b60bd8201520360ae81018452018261393c565b600303611a93576040516117bc60ce826119c060208201614748565b600080516020615ce583398151915281527f6c6f723a236537346333633b73746f702d6f7061636974793a3122202f3e00006020820152600080516020615d05833981519152603e8201527f6f6c6f723a236139333232363b73746f702d6f7061636974793a3122202f3e00605e820152600080516020615d25833981519152607d8201527f636f6c6f723a233662316631373b73746f702d6f7061636974793a3122202f3e609d820152701e17b930b234b0b623b930b234b2b73a1f60791b60bd8201520360ae81018452018261393c565b611b8381611aa46101408201614748565b600080516020615ce583398151915281527f6c6f723a233561363764383b73746f702d6f7061636974793a3122202f3e00006020820152600080516020615d05833981519152603e8201527f6f6c6f723a233463353162663b73746f702d6f7061636974793a3122202f3e00605e820152600080516020615d25833981519152607d8201527f636f6c6f723a233363333636623b73746f702d6f7061636974793a3122202f3e609d820152701e17b930b234b0b623b930b234b2b73a1f60791b60bd82015203607119810161012084015260511901610120830161393c565b610120810190610758565b634e487b7160e01b600052604160045260246000fd5b60405162461bcd60e51b8152602060048201526014602482015273151bdad95b88191bd95cc81b9bdd08195e1a5cdd60621b6044820152606490fd5b346101ac5760803660031901126101ac57611bf96137ba565b611c016137d0565b90606435906044356001600160401b0383116101ac57366023840112156101ac57826004013593611c3185613a77565b92611c3f604051948561393c565b85845236602487870101116101ac576000602087611c8d986024611c8899018389013786010152611c78611c738433613cea565b613c11565b611c83838383613db2565b6140e0565b613cc6565b005b346101ac5760403660031901126101ac57611ca86137ba565b6001600160a01b03166000908152600d60205260409020805460243591908210156101ac57602091611cd991613a49565b90546040519160031b1c8152f35b346101ac5760403660031901126101ac57611d006137ba565b611d08613835565b6001600160a01b0390911690338214611d7a57336000526005602052604060002082600052602052611d4a8160406000209060ff801983541691151516179055565b60405190151581527f17307eab39ab6107e8899845ad3d59bd9653f200f220920489ca2b5937696c3160203392a3005b60405162461bcd60e51b815260206004820152601960248201527f4552433732313a20617070726f766520746f2063616c6c6572000000000000006044820152606490fd5b346101ac5760003660031901126101ac576020600f54604051908152f35b346101ac5760003660031901126101ac5760405160006001805490611e0182613844565b80855291818116908115611e955750600114611e3c575b6116ba84611e288186038261393c565b604051918291602083526020830190613795565b600081815292507fb10e2d527612073b26eecdfd717e6a320cf44b4afac2b0732d9fcbe2b7fa0cf65b828410611e7d575050508101602001611e2882611e18565b80546020858701810191909152909301928101611e65565b60ff191660208087019190915292151560051b85019092019250611e289150839050611e18565b346101ac5760003660031901126101ac57600a546040516001600160a01b039091168152602090f35b346101ac5760203660031901126101ac57611efe613a92565b600435600f55005b346101ac5760003660031901126101ac57611f1f613a92565b600a80546001600160a01b031981169091556000906001600160a01b03167f8be0079c531659141344cd1fd0a4f28419497f9722a3daafe3b4186f6b6457e08280a3005b346101ac5760203660031901126101ac576020611f86611f816137ba565b613aea565b604051908152f35b346101ac5760003660031901126101ac576020600e54604051908152f35b346101ac5760203660031901126101ac576020611fca600435613bad565b6040516001600160a01b039091168152f35b346101ac5760203660031901126101ac57600435600052600c60205260406000206120068161395d565b60018201549161201860028201613a03565b92600882015490600983015490600a840154600b850154600c86015460ff1690600d87015492600e880161204b9061395d565b95600f8901549860100154976040519b8c9b8c6102408091528d0161206f91613795565b9761208060208e0160ff83166137e6565b60408d019060081c60ff1690612095916137f3565b60608c016120d49160a0809180518452602081015160208501526040810151604085015260608101516060850152608081015160808501520151910152565b6101208b01526101408a015261016089015261018088015215156101a08701526101c08601528481036101e086015261210c91613795565b916102008401526102208301520390f35b346101ac5760403660031901126101ac57600435612139613835565b600a546001600160a01b031633036121c357156121855780600052600c602052600a60406000200161216b815461459f565b90555b600052600c60205242600d60406000200155600080f35b80600052600c602052600b6040600020016121a0815461459f565b905580600052600c602052600c604060002001600160ff1982541617905561216e565b60405162461bcd60e51b8152602060048201526024808201527f4f6e6c7920626174746c65206172656e612063616e2075706461746520726573604482015263756c747360e01b6064820152608490fd5b346101ac5760403660031901126101ac57600a54600435906001600160a01b031633036123e35780600052600c90602082815260096040600020019260249361225f85358254614288565b9055826000528082526008604060002001546064810290808204606414901517156123ce57836000528183526040600020816009820154101561229e57005b6008016122ab815461459f565b905583600052818352600960406000200180549182039182116123b95755826000528082526002604060002001805490600582018092116123b95755826000528082526003604060002001805490600382018092116123b95755826000528082526004604060002001805490600382018092116123b95755826000528082526005604060002001805490600282018092116123b95755826000528082526006604060002001805490600282018092116123b95755826000528082526007604060002001805490600182018092116123b9577ff04f007b8dfb9f8caf57a3b9e166b72a4e2f1ea8ead97bafc0f12bd08da6c96994955055836000528152600860406000200154604051908152a2005b85634e487b7160e01b60005260116004526000fd5b84634e487b7160e01b60005260116004526000fd5b60405162461bcd60e51b8152602060048201526024808201527f4f6e6c7920626174746c65206172656e612063616e2061646420657870657269604482015263656e636560e01b6064820152608490fd5b346101ac5760603660031901126101ac576004357fef62795ac449f982db6b821e8bbb6efe0e725055fba3222233db3fda1e1dfbf4604060243560443561248d61247d86613bad565b6001600160a01b03163314614563565b84600052600c6020528060108460002084600f820155015582519182526020820152a2005b346101ac5760203660031901126101ac576004356008548110156125035760209060086000527ff3f7a9fe364faab93b216da50a3214154f22a0a2b415b23a84c8169e8b636ee30154604051908152f35b60405162461bcd60e51b815260206004820152602c60248201527f455243373231456e756d657261626c653a20676c6f62616c20696e646578206f60448201526b7574206f6620626f756e647360a01b6064820152608490fd5b60203660031901126101ac5760043561257861247d82613bad565b80600052600c60205260ff600c6040600020015416156125e0576125a0600f54341015614167565b80600052600c602052600c60406000200160ff1981541690557f47153a98d8b36230c96ba070e7e481cb1c752aef3f85849b30836b74f6f77c48600080a2005b60405162461bcd60e51b81526020600482015260136024820152724d6f6e616e696d616c206973206e6f74204b4f60681b6044820152606490fd5b346101ac57611c8d611c8861262f36613800565b906040519261263d846138eb565b60008452611c78611c738433613cea565b346101ac5760003660031901126101ac57612667613a92565b600080808060018060a01b03600a54164790828215612695575bf11561268957005b6040513d6000823e3d90fd5b506108fc612681565b346101ac5760403660031901126101ac576126b76137ba565b602435906126c481613aea565b8210156126f75760018060a01b031660005260066020526040600020906000526020526020604060002054604051908152f35b60405162461bcd60e51b815260206004820152602b60248201527f455243373231456e756d657261626c653a206f776e657220696e646578206f7560448201526a74206f6620626f756e647360a81b6064820152608490fd5b346101ac57611c8d61276136613800565b9161276f611c738433613cea565b613db2565b346101ac5760203660031901126101ac576000610180604051612796816138b4565b606081528260208201528260408201526127ae614256565b60608201528260808201528260a08201528260c08201528260e082015282610100820152826101208201526060610140820152826101608201520152600435600052600c6020526040600020601060405191612809836138b4565b6128128161395d565b835261282d60ff60018301546103f0828216602088016141aa565b61283960028201613a03565b606084015260088101546080840152600981015460a0840152600a81015460c0840152600b81015460e084015260ff600c820154161515610100840152600d81015461012084015261288d600e820161395d565b610140840152600f81015461016084015201546101808201526040518091602082526101806129916128cd83516102406020870152610260860190613795565b6128df602085015160408701906137e6565b6128f1604085015160608701906137f3565b6129356060850151608087019060a0809180518452602081015160208501526040810151604085015260608101516060850152608081015160808501520151910152565b608084015161014086015260a084015161016086015260c08401518386015260e08401516101a086015261010084015115156101c08601526101208401516101e0860152610140840151601f1986830301610200870152613795565b9161016081015161022085015201516102408301520390f35b346101ac5760003660031901126101ac576020600854604051908152f35b60003660031901126101ac576129e2600e54341015614167565b600b5460018101600b556129f4614256565b5060405160208101904282524460408201528260608201523360601b608082015260748152612a2281613899565b51902090600580830610156116be576103e88260081c066101f4811060001461346057506000915b612a52614256565b5060068310156116be57601483028381046014148415171561336f576032018060321161336f57612a8960148360101c0682614288565b612a9960148460181c0683614288565b91612aaa60148560201c0682614288565b90612abb60148660281c0682614288565b612adc612ace60148860301c0684614288565b9260148860381c0690614288565b92600095600588061560001461338557601e810180911161336f579060148101811161336f57601401905b60405195612b148761387e565b8652602086015260408501526060840152608083015260a0820152612c43604051612b3e8161387e565b604051612b4a816138d0565b600b81526a707572706c652d626c756560a81b60208201528152604051612b70816138d0565b600c81526b707572706c652d626572727960a01b60208201526020820152604051612b9a816138d0565b600b81526a626c75652d707572706c6560a81b60208201526040820152604051612bc3816138d0565b600c81526b62657272792d707572706c6560a01b60208201526060820152604051612bed816138d0565b600f81526e1c1d5c9c1b194b59dc98591a595b9d608a1b60208201526080820152604051612c1a816138d0565b600d81526c636f736d69632d707572706c6560981b602082015260a08201526006850690614295565b5190604051612c5181613899565b612c596142a6565b8152612c636142c9565b6020820152612c706142ed565b6040820152612c7d61430d565b6060820152612c8a614332565b608082015260405190612c9c8261387e565b604051612ca8816138eb565b600081528252604051612cba816138d0565b60058152645368696e7960d81b60208201526020830152612cd9614356565b6040830152612ce6614376565b6060830152612cf3614396565b6080830152612d006143bb565b60a0830152612d1a88612d138185614295565b5193614295565b51511561335957604051612d2d816138d0565b60018152600160fd1b6020820152945b6116be57612dd091612d5560229260058906906143dd565b51612d5f89614420565b906040519783612d798a9551809260208089019101613772565b8401612d8e8251809360208085019101613772565b01612da28251809360208085019101613772565b0161202360f01b6020820152612dc18251809360208785019101613772565b0103600281018652018461393c565b60405192612ddd846138b4565b8352612def60058506602085016141aa565b612dfc86604085016141b6565b606083015260016080830152600060a0830152600060c0830152600060e0830152600061010083015260006101208301526101408201526000610160820152600061018082015282600052600c60205260406000209080518051906001600160401b038211611b8e578190612e718554613844565b601f8111613309575b50602090601f831160011461329d57600092613292575b50508160011b916000199060031b1c19161782555b602081015160058110156116be576001830154604083015160068110156116be5761ff0060ff9160081b1692169061ffff19161717600183015560a060608201518051600285015560208101516003850155604081015160048501556060810151600585015560808101516006850155015160078301556080810151600883015560a0810151600983015560c0810151600a83015560e0810151600b830155612f656101008201511515600c84019060ff801983541691151516179055565b610120810151600d8301556101408101518051906001600160401b038211611b8e57612f94600e850154613844565b601f811161324b575b50602090601f83116001146131d757918060109492610180946000926131cc575b50508160011b916000199060031b1c191617600e8501555b610160810151600f850155015191015533600052600d60205260406000208054600160401b811015611b8e5761301191600182018155613a49565b81549060031b9084821b91600019901b191617905560405192613033846138eb565b600084523315613188576131566131609261314a611c8860059761307561306f89600052600260205260018060a01b0360406000205416151590565b1561420a565b600854886000526009602052604060002055613090886141c2565b61309933613aea565b336000526006602052604060002081600052602052886040600020558860005260076020526040600020556130e661306f89600052600260205260018060a01b0360406000205416151590565b3360005260036020526040600020600181540190558760005260026020526040600020336001600160601b0360a01b825416179055873360007fddf252ad1be2c89b69c2b068fc378daa952ba7f163c4a11628f55a4df523b3ef8180a48733613fc2565b604051958691066137e6565b60208401906137f3565b7f7bf904f9ef1d99303c3745b88f501e03d4fa0fa1ef2532e4709e5b24e76d2f6f60403393a3005b606460405162461bcd60e51b815260206004820152602060248201527f4552433732313a206d696e7420746f20746865207a65726f20616464726573736044820152fd5b015190508980612fbe565b90601f19831691600e860160005260206000209260005b818110613233575092600192859261018096601098961061321a575b505050811b01600e850155612fd6565b015160001960f88460031b161c1916905589808061320a565b929360206001819287860151815501950193016131ee565b600e85016000526020600020601f840160051c81016020851061328b575b601f830160051c8201811061327f575050612f9d565b60008155600101613269565b5080613269565b015190508780612e91565b9250846000526020600020906000935b601f19841685106132ee576001945083601f198116106132d5575b505050811b018255612ea6565b015160001960f88460031b161c191690558780806132c8565b818101518355602094850194600190930192909101906132ad565b909150846000526020600020601f840160051c810160208510613352575b90849392915b601f830160051c82018110613343575050612e7a565b6000815585945060010161332d565b5080613327565b604051613365816138eb565b6000815294612d3d565b634e487b7160e01b600052601160045260246000fd5b600096509391600588066001036133b6576028810180911161336f579160148101811161336f57601401935b612b07565b919394929550600095600260058906146000146133ee576032810180911161336f57928060091981011161336f576009190194612b07565b60009650929460058806600303613420576028810180911161336f57908060131981011161336f576013190190612b07565b6000965060031960058906016133b1579194906028810180911161336f5790601e810180911161336f57948060131981011161336f576013190191612b07565b6102ee8110156134735750600191612a4a565b6103848110156134865750600291612a4a565b6103ca8110156134995750600391612a4a565b6103e311156134aa57600491612a4a565b600591612a4a565b346101ac5760403660031901126101ac576134cb6137ba565b602435906001600160a01b0380806134e285613bad565b169216918083146135dd578033149081156135b8575b501561354d57600083815260046020526040902080546001600160a01b0319168317905561352583613bad565b167f8c5be1e5ebec7d5bd14f71427d1e84f3dd0314c0f7b2291e5b200ac8c7c3b925600080a4005b60405162461bcd60e51b815260206004820152603d60248201527f4552433732313a20617070726f76652063616c6c6572206973206e6f7420746f60448201527f6b656e206f776e6572206f7220617070726f76656420666f7220616c6c0000006064820152608490fd5b9050600052600560205260406000203360005260205260ff60406000205416846134f8565b60405162461bcd60e51b815260206004820152602160248201527f4552433732313a20617070726f76616c20746f2063757272656e74206f776e656044820152603960f91b6064820152608490fd5b346101ac5760203660031901126101ac576020611fca600435613bd3565b346101ac5760003660031901126101ac576040516000805461366b81613844565b80845290600190818116908115611e955750600114613694576116ba84611e288186038261393c565b600080805292507f290decd9548b62a8d60345a988386fc84ba6bc95484008f6362f93160ef3e5635b8284106136d5575050508101602001611e2882611e18565b805460208587018101919091529093019281016136bd565b346101ac5760203660031901126101ac576004359063ffffffff60e01b82168092036101ac5760209163780e9d6360e01b811490811561372f575b5015158152f35b6380ac58cd60e01b811491508115613761575b8115613750575b5083613728565b6301ffc9a760e01b14905083613749565b635b5e139f60e01b81149150613742565b60005b8381106137855750506000910152565b8181015183820152602001613775565b906020916137ae81518092818552858086019101613772565b601f01601f1916010190565b600435906001600160a01b03821682036101ac57565b602435906001600160a01b03821682036101ac57565b9060058210156116be5752565b9060068210156116be5752565b60609060031901126101ac576001600160a01b039060043582811681036101ac579160243590811681036101ac579060443590565b6024359081151582036101ac57565b90600182811c92168015613874575b602083101461385e57565b634e487b7160e01b600052602260045260246000fd5b91607f1691613853565b60c081019081106001600160401b03821117611b8e57604052565b60a081019081106001600160401b03821117611b8e57604052565b6101a081019081106001600160401b03821117611b8e57604052565b604081019081106001600160401b03821117611b8e57604052565b602081019081106001600160401b03821117611b8e57604052565b606081019081106001600160401b03821117611b8e57604052565b60e081019081106001600160401b03821117611b8e57604052565b90601f801991011681019081106001600160401b03821117611b8e57604052565b906040519182600082549261397184613844565b9081845260019485811690816000146139e0575060011461399d575b505061399b9250038361393c565b565b9093915060005260209081600020936000915b8183106139c857505061399b9350820101388061398d565b855488840185015294850194879450918301916139b0565b91505061399b94506020925060ff191682840152151560051b820101388061398d565b90604051613a108161387e565b60a06005829480548452600181015460208501526002810154604085015260038101546060850152600481015460808501520154910152565b8054821015613a615760005260206000200190600090565b634e487b7160e01b600052603260045260246000fd5b6001600160401b038111611b8e57601f01601f191660200190565b600a546001600160a01b03163303613aa657565b606460405162461bcd60e51b815260206004820152602060248201527f4f776e61626c653a2063616c6c6572206973206e6f7420746865206f776e65726044820152fd5b6001600160a01b03168015613b0a57600052600360205260406000205490565b60405162461bcd60e51b815260206004820152602960248201527f4552433732313a2061646472657373207a65726f206973206e6f7420612076616044820152683634b21037bbb732b960b91b6064820152608490fd5b15613b6857565b60405162461bcd60e51b815260206004820152601860248201527f4552433732313a20696e76616c696420746f6b656e20494400000000000000006044820152606490fd5b6000908152600260205260409020546001600160a01b0316613bd0811515613b61565b90565b600081815260026020526040902054613bf6906001600160a01b03161515613b61565b6000908152600460205260409020546001600160a01b031690565b15613c1857565b60405162461bcd60e51b815260206004820152602d60248201527f4552433732313a2063616c6c6572206973206e6f7420746f6b656e206f776e6560448201526c1c881bdc88185c1c1c9bdd9959609a1b6064820152608490fd5b60809060208152603260208201527f4552433732313a207472616e7366657220746f206e6f6e20455243373231526560408201527131b2b4bb32b91034b6b83632b6b2b73a32b960711b60608201520190565b15613ccd57565b60405162461bcd60e51b815280613ce660048201613c73565b0390fd5b906001600160a01b038080613cfe84613bad565b16931691838314938415613d31575b508315613d1b575b50505090565b613d2791929350613bd3565b1614388080613d15565b909350600052600560205260406000208260005260205260ff604060002054169238613d0d565b15613d5f57565b60405162461bcd60e51b815260206004820152602560248201527f4552433732313a207472616e736665722066726f6d20696e636f72726563742060448201526437bbb732b960d91b6064820152608490fd5b613dd691613dbf84613bad565b6001600160a01b0393848416939185168414613d58565b838216938415613f7157839182613ece5750613e2092600854876000526009602052604060002055613e07876141c2565b828603613e9b575b50613e1986613bad565b1614613d58565b7fddf252ad1be2c89b69c2b068fc378daa952ba7f163c4a11628f55a4df523b3ef60008481526004602052604081206001600160601b0360a01b9081815416905583825260036020526040822060001981540190558482526040822060018154019055858252600260205284604083209182541617905580a4565b613ea490613aea565b60406000878152600660205281812083825260205288828220558881526007602052205538613e0f565b858303613ee0575b50613e2092613e07565b613eeb919250613aea565b60001981019190821161336f57613e209284926000908882526020906007825260409182842054828103613f3a575b508a84528383812055868452600681528284209184525281205592613ed6565b8785526006825283852083865282528385205488865260068352848620828752835280858720558552600782528385205538613f1a565b60405162461bcd60e51b8152602060048201526024808201527f4552433732313a207472616e7366657220746f20746865207a65726f206164646044820152637265737360e01b6064820152608490fd5b91929091803b156140d75761400f936040519081630a85bd0160e11b9384825233600483015260009687602484015260448301526080606483015281878160209a8b966084830190613795565b03926001600160a01b03165af1849181614093575b50614082575050503d60001461407a573d61403e81613a77565b9061404c604051928361393c565b81528091833d92013e5b805191826140775760405162461bcd60e51b815280613ce660048201613c73565b01fd5b506060614056565b6001600160e01b0319161492509050565b9091508581813d83116140d0575b6140ab818361393c565b810103126140cc57516001600160e01b0319811681036140cc579038614024565b8480fd5b503d6140a1565b50915050600190565b92939190803b1561415d57614132946040518092630a85bd0160e11b9485835233600484015260018060a01b03809816602484015260448301526080606483015281806020998a956084830190613795565b03916000988991165af18491816140935750614082575050503d60001461407a573d61403e81613a77565b5050915050600190565b1561416e57565b60405162461bcd60e51b8152602060048201526014602482015273125b9cdd59999a58da595b9d081c185e5b595b9d60621b6044820152606490fd5b60058210156116be5752565b60068210156116be5752565b600854600160401b811015611b8e576001810180600855811015613a615760086000527ff3f7a9fe364faab93b216da50a3214154f22a0a2b415b23a84c8169e8b636ee30155565b1561421157565b60405162461bcd60e51b815260206004820152601c60248201527f4552433732313a20746f6b656e20616c7265616479206d696e746564000000006044820152606490fd5b604051906142638261387e565b8160a06000918281528260208201528260408201528260608201528260808201520152565b9190820180921161336f57565b906006811015613a615760051b0190565b604051906142b3826138d0565b60078252662bb0b93934b7b960c91b6020830152565b604051906142d6826138d0565b600882526720b9b9b0b9b9b4b760c11b6020830152565b604051906142fa826138d0565b60048252634d61676560e01b6020830152565b6040519061431a826138d0565b60098252682132b939b2b935b2b960b91b6020830152565b6040519061433f826138d0565b600882526723bab0b93234b0b760c11b6020830152565b60405190614363826138d0565b60048252635261726560e01b6020830152565b60405190614383826138d0565b60048252634570696360e01b6020830152565b604051906143a3826138d0565b60098252684c6567656e6461727960b81b6020830152565b604051906143c8826138d0565b60068252654d797468696360d01b6020830152565b906005811015613a615760051b0190565b906143f882613a77565b614405604051918261393c565b8281528092614416601f1991613a77565b0190602036910137565b806000917a184f03e93ff9f4daa797ed6e38ed64bf6a1f01000000000000000080821015614555575b506d04ee2d6d415b85acef810000000080831015614546575b50662386f26fc1000080831015614537575b506305f5e10080831015614528575b5061271080831015614519575b506064821015614509575b600a809210156144ff575b6001908160216144b78287016143ee565b95860101905b6144c9575b5050505090565b600019019083906f181899199a1a9b1b9c1cb0b131b232b360811b8282061a8353049182156144fa579190826144bd565b6144c2565b91600101916144a6565b919060646002910491019161449b565b60049193920491019138614490565b60089193920491019138614483565b60109193920491019138614474565b60209193920491019138614462565b604093508104915038614449565b1561456a57565b60405162461bcd60e51b815260206004820152600d60248201526c2737ba103a34329037bbb732b960991b6044820152606490fd5b600019811461336f5760010190565b8051156146ee57604051906145c282613906565b604082527f4142434445464748494a4b4c4d4e4f505152535455565758595a61626364656660208301527f6768696a6b6c6d6e6f707172737475767778797a303132333435363738392b2f6040830152805160029182820180921161336f576003918290046001600160fe1b038116810361336f57614644908495941b6143ee565b936020850193829183518401906020820192835194600085525b83811061469d57505050505251068060011461468a5760021461467f575090565b603d90600019015390565b50603d9081600019820153600119015390565b87600491999293949901918251600190603f9082828260121c16880101518453828282600c1c16880101518385015382828260061c168801015188850153168501015189820153019792919061465e565b506040516146fb816138eb565b6000815290565b6040519061470f826138d0565b600682526521b7b6b6b7b760d11b6020830152565b60405190614731826138d0565b60088252672ab731b7b6b6b7b760c11b6020830152565b7f3c72616469616c4772616469656e742069643d22626f6479222063783d22353081527312911031bc9e911a18129110391e911b1812911f60611b602082015260340190565b6004811061487657506040516147a381613921565b60a581527f3c66696c7465722069643d22676c6f77223e3c6665476175737369616e426c7560208201527f7220737464446576696174696f6e3d22362220726573756c743d22636f6c6f7260408201527f6564426c7572222f3e3c66654d657267653e3c66654d657267654e6f6465206960608201527f6e3d22636f6c6f726564426c7572222f3e3c66654d657267654e6f646520696e60808201527f3d22536f7572636547726170686963222f3e3c2f66654d657267653e3c2f666960a082015264363a32b91f60d91b60c082015290565b6002111561488a576040516146fb816138eb565b60405161489681613921565b60a581527f3c66696c7465722069643d22676c6f77223e3c6665476175737369616e426c7560208201527f7220737464446576696174696f6e3d22332220726573756c743d22636f6c6f7260408201527f6564426c7572222f3e3c66654d657267653e3c66654d657267654e6f6465206960608201527f6e3d22636f6c6f726564426c7572222f3e3c66654d657267654e6f646520696e60808201527f3d22536f7572636547726170686963222f3e3c2f66654d657267653e3c2f666960a082015264363a32b91f60d91b60c082015290565b60408091015160028110156149835750516146fb816138eb565b7f22207374726f6b652d77696474683d223222206f7061636974793d22302e342291613bd091610186919060058110614bf8575080516149c2816138d0565b60078152660234646443730360cc1b6020820152905b80519485927f3c636972636c652063783d22323030222063793d223230302220723d2231333060208501526711103334b6361e9160c11b80938501528051926020820193614a2a816048880187613772565b850171111037b830b1b4ba3c9e911817189a91179f60711b60488201527f3c636972636c652063783d22323030222063793d223230302220723d22313230605a82015281607a820152825190614a84826082830188613772565b019070111037b830b1b4ba3c9e9118171891179f60791b60828301527f3c636972636c652063783d22323030222063793d223230302220723d22313130609383015260b3820152815190614adc8260bb830187613772565b019071111037b830b1b4ba3c9e911817181c11179f60711b60bb8301527f3c636972636c652063783d22323030222063793d223230302220723d2231323560cd8301527511103334b6361e913737b732911039ba3937b5b29e9160511b60ed8301525190614b51826101039586840190613772565b0191820152601f60f91b6101238201527f3c616e696d617465206174747269627574654e616d653d226f706163697479226101248201527f2076616c7565733d22302e323b302e363b302e3222206475723d2233732220726101448201527f6570656174436f756e743d22696e646566696e697465222f3e00000000000000610164820152681e17b1b4b931b6329f60b91b61017d8201520361016681018452018261393c565b60048110614c2657508051614c0c816138d0565b600781526608d9998d988e5960ca1b6020820152906149d8565b600311614c52578051614c38816138d0565b60078152662338333645463960c81b6020820152906149d8565b8051614c5d816138d0565b600781526608d04c0c0d4d5160ca1b6020820152906149d8565b60405190614c84826138d0565b6014825273103334b63a32b91e913ab9361411b3b637bb949160611b6020830152565b60405190614cb4826138d0565b601f82527f207374726f6b653d222330303022207374726f6b652d77696474683d223322006020830152565b6040906002828201511015600090600014614e8f5750614cfe614c77565b905b614d08614ca7565b6020809201518015908115614e84575b8115614e79575b8115614e6e575b5015614dc65792613bd092605e92614dac7f35222072793d223235222066696c6c3d2275726c2823626f64792922000000009684519788957f3c656c6c697073652063783d22323030222063793d22323830222072783d223485880152860152614d998151809285605c89019101613772565b8401918351938491605c85019101613772565b0161179f60f11b605c82015203603e81018452018261393c565b92613bd092606792614e547f206865696768743d223430222066696c6c3d2275726c2823626f6479292220729684519788957f3c7265637420783d223136302220793d22323630222077696474683d2238302285880152860152643c1e911c1160d91b6060860152614e418151809285606589019101613772565b8401918351938491606585019101613772565b0161179f60f11b606582015203604781018452018261393c565b600391501438614d26565b600281149150614d1f565b600181149150614d18565b825190614e9b826138eb565b815290614d00565b6040818101516000906002116150445750614ebc614c77565b614ec4614ca7565b926020809101518015908115615039575b811561502e575b8115615023575b5015614f785791605491613bd093614f5e83519687947f3c636972636c652063783d22323030222063793d223138302220723d223635228487015271103334b6361e913ab9361411b137b23c949160711b90860152614f4b8151809285605289019101613772565b8401918351938491605285019101613772565b0161179f60f11b605282015203603481018452018261393c565b91606a91613bd0936150097f22206865696768743d22313230222066696c6c3d2275726c2823626f647929229684519788957f3c7265637420783d223134302220793d22313230222077696474683d22313230858801528601526710393c1e9119181160c11b6060860152614ff68151809285606889019101613772565b8401918351938491606885019101613772565b0161179f60f11b606882015203604a81018452018261393c565b600391501438614ee3565b600281149150614edc565b600181149150614ed5565b815190615050826138eb565b8152614ebc565b7f3c636972636c652063783d22313735222063793d223136352220723d2231382281527f2066696c6c3d222346464646464622207374726f6b653d22233030302220737460208201526f3937b5b296bbb4b23a341e911911179f60811b604082015260500190565b6020015160040361535757604051613bd06039826153046152b56152666152246151e261519f61515c6150f460208901615057565b7f3c636972636c652063783d22323235222063793d223136352220723d2231382281527f2066696c6c3d222346464646464622207374726f6b653d22233030302220737460208201526f3937b5b296bbb4b23a341e911911179f60811b604082015260500190565b7f3c636972636c652063783d22313735222063793d223136352220723d22313022815270103334b6361e911198181818181811179f60791b602082015260310190565b7f3c636972636c652063783d22323235222063793d223136352220723d22313022815270103334b6361e911198181818181811179f60791b602082015260310190565b7f3c636972636c652063783d22313738222063793d223136322220723d2233222081526f3334b6361e9111a3232323232311179f60811b602082015260300190565b7f3c636972636c652063783d22323238222063793d223136322220723d2233222081526f3334b6361e9111a3232323232311179f60811b602082015260300190565b7f3c636972636c652063783d22313830222063793d223136382220723d22312e3581527f222066696c6c3d222346464646464622206f7061636974793d22302e37222f3e602082015260400190565b7f3c636972636c652063783d22323330222063793d223136382220723d22312e3581527f222066696c6c3d222346464646464622206f7061636974793d22302e37222f3e602082015260400190565b7f3c656c6c697073652063783d22323030222063793d22313930222072783d22368152781110393c9e911a11103334b6361e911198181818181811179f60391b602082015203601981018452018261393c565b604051613bd06039826153816152b56152666152246151e261519f61515c6150f460208901615057565b7f3c656c6c697073652063783d22323030222063793d22323030222072783d22368152781110393c9e911a11103334b6361e911198181818181811179f60391b602082015203601981018452018261393c565b602090810151806154ac57507f3c7265637420783d223138352220793d22313130222077696474683d22333022604051918201527f206865696768743d223132222066696c6c3d222338423435313322207374726f60408201527f6b653d222330303022207374726f6b652d77696474683d2231222072783d223360608201526211179f60e91b60808201527f3c636972636c652063783d22323030222063793d223131362220723d2232222060838201526f3334b6361e9111a323221b981811179f60811b60a382015260938152613bd08161387e565b6001810361556957507f3c636972636c652063783d22323030222063793d223131352220723d22332220604051918201527f66696c6c3d222332303030353222207374726f6b653d2223303030222073747260408201526e37b5b296bbb4b23a341e911891179f60891b60608201527f3c636972636c652063783d22323030222063793d223131352220723d22312e35606f8201527111103334b6361e9111a098181a9aa211179f60711b608f82015260818152613bd08161387e565b6002810361563057507f3c706f6c79676f6e20706f696e74733d223230302c313035203138382c313233604051918201527f203231322c313233222066696c6c3d222334613930653222207374726f6b653d6040820152781111981818111039ba3937b5b296bbb4b23a341e911891179f60391b60608201527f3c636972636c652063783d22323030222063793d223132302220723d22312e3560798201527111103334b6361e9111a323221b981811179f60711b6099820152608b8152613bd08161387e565b600303615706577f3c706f6c79676f6e20706f696e74733d223136352c313430203136382c313235604051918201527f203137322c313430222066696c6c3d222365373463336322207374726f6b653d6040820152781111981818111039ba3937b5b296bbb4b23a341e911891179f60391b8060608301527f3c706f6c79676f6e20706f696e74733d223232382c313430203233312c31323560798301527f203233352c313430222066696c6c3d222365373463336322207374726f6b653d609983015260b982015260b28152613bd081613921565b7f3c7265637420783d223139302220793d22313130222077696474683d22323022604051918201527f206865696768743d2238222066696c6c3d222335613637643822207374726f6b60408201527f653d222330303022207374726f6b652d77696474683d2231222072783d223222606082015261179f60f11b60808201527f3c636972636c652063783d22323030222063793d223131342220723d22312e3560828201527111103334b6361e9111a323221b981811179f60711b60a282015260948152613bd08161387e565b604090810151600581036159f657508051907f3c636972636c652063783d22313330222063793d223133302220723d2232222060208301527f66696c6c3d222346464437303022206f7061636974793d22302e38223e000000818301527f3c616e696d617465206174747269627574654e616d653d226f7061636974792280605d8401527f2076616c7565733d22303b313b3022206475723d223273222072657065617443607d8401527237bab73a1e9134b73232b334b734ba3291179f60691b609d840152681e17b1b4b931b6329f60b91b908160b08501527f3c636972636c652063783d22323730222063793d223135302220723d22312e3560b98501527f222066696c6c3d222346464437303022206f7061636974793d22302e36223e0060d98501528060f88501527f2076616c7565733d22303b313b3022206475723d22312e357322207265706561610118850152743a21b7bab73a1e9134b73232b334b734ba3291179f60591b90816101388601528261014d8601527f3c636972636c652063783d22313530222063793d223238302220723d223222206101568601527f66696c6c3d222346464437303022206f7061636974793d22302e37223e0000006101768601526101938501527f2076616c7565733d22303b313b3022206475723d22322e3573222072657065616101b38501526101d38401526101e88301526101d182526102008201908282106001600160401b03831117611b8e575290565b60048103615af657507f2066696c6c3d226e6f6e6522207374726f6b653d2223464644373030222073748151917f3c636972636c652063783d22323030222063793d223230302220723d2239302260208401528201527f726f6b652d77696474683d223222206f7061636974793d22302e34223e00000060608201527f3c616e696d617465206174747269627574654e616d653d2272222076616c7565607d8201527f733d2238353b39353b383522206475723d2233732220726570656174436f756e609d8201526f3a1e9134b73232b334b734ba3291179f60811b60bd820152681e17b1b4b931b6329f60b91b60cd82015260b68152613bd081613921565b600314615b0757516146fb816138eb565b7f2066696c6c3d226e6f6e6522207374726f6b653d2223383336454639222073748151917f3c636972636c652063783d22323030222063793d223230302220723d2238352260208401528201527f726f6b652d77696474683d223122206f7061636974793d22302e33223e00000060608201527f3c616e696d617465206174747269627574654e616d653d2272222076616c7565607d8201527f733d2238303b39303b383022206475723d2234732220726570656174436f756e609d8201526f3a1e9134b73232b334b734ba3291179f60811b60bd820152681e17b1b4b931b6329f60b91b60cd82015260b68152613bd081613921565b60405190615c0b826138d0565b60078252662ab735b737bbb760c91b6020830152565b8015615c715760018114615c685760028114615c5f5760038114615c5657600414615c4e57613bd0615bfe565b613bd0614332565b50613bd061430d565b50613bd06142ed565b50613bd06142c9565b50613bd06142a6565b8015615cdb5760018114615cd25760028114615cc95760038114615cc05760048114615cb757600514615caf57613bd0615bfe565b613bd06143bb565b50613bd0614396565b50613bd0614376565b50613bd0614356565b50613bd0614724565b50613bd061470256fe3c73746f70206f66667365743d22302522207374796c653d2273746f702d636f3c73746f70206f66667365743d2237302522207374796c653d2273746f702d633c73746f70206f66667365743d223130302522207374796c653d2273746f702da264697066735822122045a421df6e78b4480fcb60206dee464a73d775dc59132fba11e07f7882451c4b64736f6c63430008140033","opcodes":"PUSH1 0x80 CALLVALUE PUSH3 0x382 JUMPI PUSH1 0x1 PUSH1 0x1 PUSH1 0x40 SHL SUB SWAP1 PUSH1 0x40 DUP2 DUP2 ADD DUP4 DUP2 GT DUP4 DUP3 LT OR PUSH3 0x36C JUMPI DUP2 MSTORE PUSH1 0x14 DUP3 MSTORE PUSH1 0x20 SWAP2 PUSH32 0x427261776C4E616473204D6F6E616E696D616C73000000000000000000000000 DUP4 DUP3 ADD MSTORE DUP2 MLOAD SWAP4 DUP3 DUP6 ADD DUP6 DUP2 LT DUP3 DUP3 GT OR PUSH3 0x36C JUMPI DUP4 MSTORE PUSH1 0x5 DUP6 MSTORE PUSH5 0x10949055D3 PUSH1 0xDA SHL DUP5 DUP7 ADD MSTORE DUP2 MLOAD DUP2 DUP2 GT PUSH3 0x36C JUMPI PUSH1 0x0 SWAP5 DUP6 SLOAD SWAP2 PUSH1 0x1 SWAP5 DUP6 DUP5 DUP2 SHR SWAP5 AND DUP1 ISZERO PUSH3 0x361 JUMPI JUMPDEST DUP4 DUP6 LT EQ PUSH3 0x34D JUMPI DUP2 SWAP1 PUSH1 0x1F SWAP5 DUP6 DUP2 GT PUSH3 0x2FA JUMPI JUMPDEST POP DUP4 SWAP1 DUP6 DUP4 GT PUSH1 0x1 EQ PUSH3 0x296 JUMPI DUP10 SWAP3 PUSH3 0x28A JUMPI JUMPDEST POP POP PUSH1 0x0 NOT PUSH1 0x3 DUP4 SWAP1 SHL SHR NOT AND SWAP1 DUP6 SHL OR DUP7 SSTORE JUMPDEST DUP7 MLOAD SWAP3 DUP4 GT PUSH3 0x276 JUMPI DUP4 SLOAD DUP5 DUP2 DUP2 SHR SWAP2 AND DUP1 ISZERO PUSH3 0x26B JUMPI JUMPDEST DUP3 DUP3 LT EQ PUSH3 0x257 JUMPI DUP3 DUP2 GT PUSH3 0x20F JUMPI JUMPDEST POP DUP1 SWAP2 DUP4 GT PUSH1 0x1 EQ PUSH3 0x1A8 JUMPI POP DUP5 SWAP6 DUP3 SWAP4 SWAP5 SWAP6 SWAP3 PUSH3 0x19C JUMPI JUMPDEST POP POP PUSH1 0x0 NOT PUSH1 0x3 DUP4 SWAP1 SHL SHR NOT AND SWAP1 DUP3 SHL OR SWAP1 SSTORE JUMPDEST PUSH1 0xA DUP1 SLOAD CALLER PUSH1 0x1 PUSH1 0x1 PUSH1 0xA0 SHL SUB NOT DUP3 AND DUP2 OR SWAP1 SWAP3 SSTORE SWAP2 MLOAD SWAP3 SWAP1 SWAP2 PUSH1 0x1 PUSH1 0x1 PUSH1 0xA0 SHL SUB AND SWAP1 PUSH32 0x8BE0079C531659141344CD1FD0A4F28419497F9722A3DAAFE3B4186F6B6457E0 SWAP1 DUP1 LOG3 PUSH7 0x2386F26FC10000 PUSH1 0xE SSTORE PUSH7 0x11C37937E08000 PUSH1 0xF SSTORE PUSH2 0x5D7A SWAP1 DUP2 PUSH3 0x388 DUP3 CODECOPY RETURN JUMPDEST ADD MLOAD SWAP1 POP CODESIZE DUP1 PUSH3 0x11D JUMP JUMPDEST SWAP1 PUSH1 0x1F NOT DUP4 AND SWAP7 DUP5 DUP8 MSTORE DUP3 DUP8 KECCAK256 SWAP3 DUP8 SWAP1 JUMPDEST DUP10 DUP3 LT PUSH3 0x1F7 JUMPI POP POP DUP4 DUP6 SWAP7 SWAP8 SWAP9 LT PUSH3 0x1DD JUMPI JUMPDEST POP POP POP DUP2 SHL ADD SWAP1 SSTORE PUSH3 0x131 JUMP JUMPDEST ADD MLOAD PUSH1 0x0 NOT PUSH1 0xF8 DUP5 PUSH1 0x3 SHL AND SHR NOT AND SWAP1 SSTORE CODESIZE DUP1 DUP1 PUSH3 0x1CF JUMP JUMPDEST DUP1 DUP8 DUP6 SWAP7 DUP3 SWAP5 SWAP7 DUP7 ADD MLOAD DUP2 SSTORE ADD SWAP6 ADD SWAP4 ADD SWAP1 PUSH3 0x1B9 JUMP JUMPDEST DUP5 DUP8 MSTORE DUP2 DUP8 KECCAK256 DUP4 DUP1 DUP7 ADD PUSH1 0x5 SHR DUP3 ADD SWAP3 DUP5 DUP8 LT PUSH3 0x24D JUMPI JUMPDEST ADD PUSH1 0x5 SHR ADD SWAP1 DUP6 SWAP1 JUMPDEST DUP3 DUP2 LT PUSH3 0x241 JUMPI POP POP PUSH3 0x102 JUMP JUMPDEST DUP9 DUP2 SSTORE ADD DUP6 SWAP1 PUSH3 0x231 JUMP JUMPDEST SWAP3 POP DUP2 SWAP3 PUSH3 0x228 JUMP JUMPDEST PUSH4 0x4E487B71 PUSH1 0xE0 SHL DUP8 MSTORE PUSH1 0x22 PUSH1 0x4 MSTORE PUSH1 0x24 DUP8 REVERT JUMPDEST SWAP1 PUSH1 0x7F AND SWAP1 PUSH3 0xF0 JUMP JUMPDEST PUSH4 0x4E487B71 PUSH1 0xE0 SHL DUP7 MSTORE PUSH1 0x41 PUSH1 0x4 MSTORE PUSH1 0x24 DUP7 REVERT JUMPDEST ADD MLOAD SWAP1 POP CODESIZE DUP1 PUSH3 0xC2 JUMP JUMPDEST DUP10 DUP1 MSTORE DUP5 DUP11 KECCAK256 DUP9 SWAP5 POP SWAP2 SWAP1 PUSH1 0x1F NOT DUP5 AND DUP12 JUMPDEST DUP8 DUP3 DUP3 LT PUSH3 0x2E3 JUMPI POP POP DUP5 GT PUSH3 0x2C9 JUMPI JUMPDEST POP POP POP DUP2 SHL ADD DUP7 SSTORE PUSH3 0xD6 JUMP JUMPDEST ADD MLOAD PUSH1 0x0 NOT PUSH1 0xF8 DUP5 PUSH1 0x3 SHL AND SHR NOT AND SWAP1 SSTORE CODESIZE DUP1 DUP1 PUSH3 0x2BB JUMP JUMPDEST DUP4 DUP6 ADD MLOAD DUP7 SSTORE DUP12 SWAP8 SWAP1 SWAP6 ADD SWAP5 SWAP4 DUP5 ADD SWAP4 ADD PUSH3 0x2A8 JUMP JUMPDEST SWAP1 SWAP2 POP DUP9 DUP1 MSTORE DUP4 DUP10 KECCAK256 DUP6 DUP1 DUP6 ADD PUSH1 0x5 SHR DUP3 ADD SWAP3 DUP7 DUP7 LT PUSH3 0x343 JUMPI JUMPDEST SWAP2 DUP10 SWAP2 DUP7 SWAP6 SWAP5 SWAP4 ADD PUSH1 0x5 SHR ADD SWAP2 JUMPDEST DUP3 DUP2 LT PUSH3 0x334 JUMPI POP POP PUSH3 0xAC JUMP JUMPDEST DUP12 DUP2 SSTORE DUP6 SWAP5 POP DUP10 SWAP2 ADD PUSH3 0x324 JUMP JUMPDEST SWAP3 POP DUP2 SWAP3 PUSH3 0x316 JUMP JUMPDEST PUSH4 0x4E487B71 PUSH1 0xE0 SHL DUP9 MSTORE PUSH1 0x22 PUSH1 0x4 MSTORE PUSH1 0x24 DUP9 REVERT JUMPDEST SWAP4 PUSH1 0x7F AND SWAP4 PUSH3 0x95 JUMP JUMPDEST PUSH4 0x4E487B71 PUSH1 0xE0 SHL PUSH1 0x0 MSTORE PUSH1 0x41 PUSH1 0x4 MSTORE PUSH1 0x24 PUSH1 0x0 REVERT JUMPDEST PUSH1 0x0 DUP1 REVERT INVALID PUSH2 0x160 DUP1 PUSH1 0x40 MSTORE PUSH1 0x4 CALLDATASIZE LT ISZERO PUSH2 0x14 JUMPI PUSH1 0x0 DUP1 REVERT JUMPDEST PUSH1 0x0 CALLDATALOAD PUSH1 0xE0 SHR SWAP1 DUP2 PUSH4 0x1FFC9A7 EQ PUSH2 0x36ED JUMPI POP DUP1 PUSH4 0x6FDDE03 EQ PUSH2 0x364A JUMPI DUP1 PUSH4 0x81812FC EQ PUSH2 0x362C JUMPI DUP1 PUSH4 0x95EA7B3 EQ PUSH2 0x34B2 JUMPI DUP1 PUSH4 0x1249C58B EQ PUSH2 0x29C8 JUMPI DUP1 PUSH4 0x18160DDD EQ PUSH2 0x29AA JUMPI DUP1 PUSH4 0x1A01DA3F EQ PUSH2 0x2774 JUMPI DUP1 PUSH4 0x23B872DD EQ PUSH2 0x2750 JUMPI DUP1 PUSH4 0x2F745C59 EQ PUSH2 0x269E JUMPI DUP1 PUSH4 0x3CCFD60B EQ PUSH2 0x264E JUMPI DUP1 PUSH4 0x42842E0E EQ PUSH2 0x261B JUMPI DUP1 PUSH4 0x4F0FAB16 EQ PUSH2 0x255D JUMPI DUP1 PUSH4 0x4F6CCCE7 EQ PUSH2 0x24B2 JUMPI DUP1 PUSH4 0x5A6DE6C6 EQ PUSH2 0x2434 JUMPI DUP1 PUSH4 0x5D240C58 EQ PUSH2 0x2214 JUMPI DUP1 PUSH4 0x5F89525C EQ PUSH2 0x211D JUMPI DUP1 PUSH4 0x61F9F71F EQ PUSH2 0x1FDC JUMPI DUP1 PUSH4 0x6352211E EQ PUSH2 0x1FAC JUMPI DUP1 PUSH4 0x6817C76C EQ PUSH2 0x1F8E JUMPI DUP1 PUSH4 0x70A08231 EQ PUSH2 0x1F63 JUMPI DUP1 PUSH4 0x715018A6 EQ PUSH2 0x1F06 JUMPI DUP1 PUSH4 0x894994C3 EQ PUSH2 0x1EE5 JUMPI DUP1 PUSH4 0x8DA5CB5B EQ PUSH2 0x1EBC JUMPI DUP1 PUSH4 0x95D89B41 EQ PUSH2 0x1DDD JUMPI DUP1 PUSH4 0x9942F467 EQ PUSH2 0x1DBF JUMPI DUP1 PUSH4 0xA22CB465 EQ PUSH2 0x1CE7 JUMPI DUP1 PUSH4 0xAA66B47E EQ PUSH2 0x1C8F JUMPI DUP1 PUSH4 0xB88D4FDE EQ PUSH2 0x1BE0 JUMPI DUP1 PUSH4 0xC87B56DD EQ PUSH2 0x37F JUMPI DUP1 PUSH4 0xE985E9C5 EQ PUSH2 0x329 JUMPI DUP1 PUSH4 0xF2AFEC2F EQ PUSH2 0x275 JUMPI DUP1 PUSH4 0xF2FDE38B EQ PUSH2 0x1B1 JUMPI PUSH4 0xF4A0A528 EQ PUSH2 0x18B JUMPI PUSH1 0x0 DUP1 REVERT JUMPDEST CALLVALUE PUSH2 0x1AC JUMPI PUSH1 0x20 CALLDATASIZE PUSH1 0x3 NOT ADD SLT PUSH2 0x1AC JUMPI PUSH2 0x1A4 PUSH2 0x3A92 JUMP JUMPDEST PUSH1 0x4 CALLDATALOAD PUSH1 0xE SSTORE STOP JUMPDEST PUSH1 0x0 DUP1 REVERT JUMPDEST CALLVALUE PUSH2 0x1AC JUMPI PUSH1 0x20 CALLDATASIZE PUSH1 0x3 NOT ADD SLT PUSH2 0x1AC JUMPI PUSH2 0x1CA PUSH2 0x37BA JUMP JUMPDEST PUSH2 0x1D2 PUSH2 0x3A92 JUMP JUMPDEST PUSH1 0x1 PUSH1 0x1 PUSH1 0xA0 SHL SUB SWAP1 DUP2 AND SWAP1 DUP2 ISZERO PUSH2 0x221 JUMPI PUSH1 0xA SLOAD DUP3 PUSH1 0x1 PUSH1 0x1 PUSH1 0x60 SHL SUB PUSH1 0xA0 SHL DUP3 AND OR PUSH1 0xA SSTORE AND PUSH32 0x8BE0079C531659141344CD1FD0A4F28419497F9722A3DAAFE3B4186F6B6457E0 PUSH1 0x0 DUP1 LOG3 STOP JUMPDEST PUSH1 0x40 MLOAD PUSH3 0x461BCD PUSH1 0xE5 SHL DUP2 MSTORE PUSH1 0x20 PUSH1 0x4 DUP3 ADD MSTORE PUSH1 0x26 PUSH1 0x24 DUP3 ADD MSTORE PUSH32 0x4F776E61626C653A206E6577206F776E657220697320746865207A65726F2061 PUSH1 0x44 DUP3 ADD MSTORE PUSH6 0x646472657373 PUSH1 0xD0 SHL PUSH1 0x64 DUP3 ADD MSTORE PUSH1 0x84 SWAP1 REVERT JUMPDEST CALLVALUE PUSH2 0x1AC JUMPI PUSH1 0x20 DUP1 PUSH1 0x3 NOT CALLDATASIZE ADD SLT PUSH2 0x1AC JUMPI PUSH1 0x1 PUSH1 0x1 PUSH1 0xA0 SHL SUB PUSH2 0x297 PUSH2 0x37BA JUMP JUMPDEST AND PUSH1 0x0 MSTORE PUSH1 0xD DUP2 MSTORE PUSH1 0x40 PUSH1 0x0 KECCAK256 PUSH1 0x40 MLOAD SWAP1 DUP2 DUP4 DUP3 SLOAD SWAP2 DUP3 DUP2 MSTORE ADD SWAP1 DUP2 SWAP3 PUSH1 0x0 MSTORE DUP5 PUSH1 0x0 KECCAK256 SWAP1 PUSH1 0x0 JUMPDEST DUP7 DUP3 DUP3 LT PUSH2 0x315 JUMPI DUP7 DUP7 PUSH2 0x2D5 DUP3 DUP9 SUB DUP4 PUSH2 0x393C JUMP JUMPDEST PUSH1 0x40 MLOAD SWAP3 DUP4 SWAP3 DUP2 DUP5 ADD SWAP1 DUP3 DUP6 MSTORE MLOAD DUP1 SWAP2 MSTORE PUSH1 0x40 DUP5 ADD SWAP3 SWAP2 PUSH1 0x0 JUMPDEST DUP3 DUP2 LT PUSH2 0x2FE JUMPI POP POP POP POP SUB SWAP1 RETURN JUMPDEST DUP4 MLOAD DUP6 MSTORE DUP7 SWAP6 POP SWAP4 DUP2 ADD SWAP4 SWAP3 DUP2 ADD SWAP3 PUSH1 0x1 ADD PUSH2 0x2EF JUMP JUMPDEST DUP4 SLOAD DUP6 MSTORE SWAP1 SWAP4 ADD SWAP3 PUSH1 0x1 SWAP3 DUP4 ADD SWAP3 ADD PUSH2 0x2BF JUMP JUMPDEST CALLVALUE PUSH2 0x1AC JUMPI PUSH1 0x40 CALLDATASIZE PUSH1 0x3 NOT ADD SLT PUSH2 0x1AC JUMPI PUSH2 0x342 PUSH2 0x37BA JUMP JUMPDEST PUSH2 0x34A PUSH2 0x37D0 JUMP JUMPDEST SWAP1 PUSH1 0x1 DUP1 PUSH1 0xA0 SHL SUB DUP1 SWAP2 AND PUSH1 0x0 MSTORE PUSH1 0x5 PUSH1 0x20 MSTORE PUSH1 0x40 PUSH1 0x0 KECCAK256 SWAP2 AND PUSH1 0x0 MSTORE PUSH1 0x20 MSTORE PUSH1 0x20 PUSH1 0xFF PUSH1 0x40 PUSH1 0x0 KECCAK256 SLOAD AND PUSH1 0x40 MLOAD SWAP1 ISZERO ISZERO DUP2 MSTORE RETURN JUMPDEST CALLVALUE PUSH2 0x1AC JUMPI PUSH1 0x20 CALLDATASIZE PUSH1 0x3 NOT ADD SLT PUSH2 0x1AC JUMPI PUSH1 0x4 CALLDATALOAD PUSH1 0x0 DUP2 DUP2 MSTORE PUSH1 0x2 PUSH1 0x20 MSTORE PUSH1 0x40 SWAP1 KECCAK256 SLOAD PUSH1 0x1 PUSH1 0x1 PUSH1 0xA0 SHL SUB AND ISZERO PUSH2 0x1BA4 JUMPI PUSH1 0x0 MSTORE PUSH1 0xC PUSH1 0x20 MSTORE PUSH1 0x40 PUSH1 0x0 KECCAK256 PUSH1 0x10 PUSH1 0x40 MLOAD SWAP2 PUSH2 0x3CC DUP4 PUSH2 0x38B4 JUMP JUMPDEST PUSH2 0x3D5 DUP2 PUSH2 0x395D JUMP JUMPDEST DUP4 MSTORE PUSH2 0x3FD PUSH1 0xFF PUSH1 0x1 DUP4 ADD SLOAD PUSH2 0x3F0 DUP3 DUP3 AND PUSH1 0x20 DUP9 ADD PUSH2 0x41AA JUMP JUMPDEST PUSH1 0x8 SHR AND PUSH1 0x40 DUP6 ADD PUSH2 0x41B6 JUMP JUMPDEST PUSH2 0x409 PUSH1 0x2 DUP3 ADD PUSH2 0x3A03 JUMP JUMPDEST PUSH1 0x60 DUP5 ADD MSTORE PUSH1 0x8 DUP2 ADD SLOAD PUSH1 0x80 DUP5 ADD MSTORE PUSH1 0x9 DUP2 ADD SLOAD PUSH1 0xA0 DUP5 ADD MSTORE PUSH1 0xA DUP2 ADD SLOAD PUSH1 0xC0 DUP5 ADD MSTORE PUSH1 0xB DUP2 ADD SLOAD PUSH1 0xE0 DUP5 ADD MSTORE PUSH1 0xFF PUSH1 0xC DUP3 ADD SLOAD AND ISZERO ISZERO PUSH2 0x100 DUP5 ADD MSTORE PUSH1 0xD DUP2 ADD SLOAD PUSH2 0x120 DUP5 ADD MSTORE PUSH2 0x45D PUSH1 0xE DUP3 ADD PUSH2 0x395D JUMP JUMPDEST PUSH2 0x140 DUP5 ADD MSTORE PUSH1 0xF DUP2 ADD SLOAD PUSH2 0x160 DUP5 ADD MSTORE ADD SLOAD PUSH2 0x180 DUP3 ADD MSTORE DUP1 MLOAD PUSH1 0x20 DUP3 ADD MLOAD SWAP1 PUSH1 0x5 DUP3 LT ISZERO PUSH2 0x16BE JUMPI PUSH1 0x40 DUP4 ADD MLOAD PUSH1 0x6 DUP2 LT ISZERO PUSH2 0x16BE JUMPI PUSH2 0x4E0 SWAP3 DUP5 SWAP2 PUSH1 0x80 DUP4 ADD MLOAD PUSH1 0x60 DUP5 ADD MLOAD SWAP1 DUP2 MLOAD PUSH1 0x20 DUP4 ADD MLOAD PUSH1 0x40 DUP5 ADD MLOAD SWAP2 PUSH1 0x60 DUP6 ADD MLOAD SWAP4 PUSH1 0xA0 PUSH1 0x80 DUP8 ADD MLOAD SWAP7 ADD MLOAD SWAP7 PUSH2 0x140 DUP11 ADD MLOAD SWAP9 PUSH1 0xE0 PUSH1 0xC0 DUP13 ADD MLOAD SWAP12 ADD MLOAD SWAP12 PUSH1 0x40 MLOAD SWAP14 DUP15 PUSH2 0x38B4 JUMP JUMPDEST DUP14 MSTORE PUSH1 0x20 DUP14 ADD MSTORE PUSH1 0x40 DUP13 ADD MSTORE PUSH1 0x60 DUP12 ADD MSTORE PUSH1 0x80 DUP11 ADD MSTORE PUSH1 0xA0 DUP10 ADD MSTORE PUSH1 0xC0 DUP9 ADD MSTORE PUSH1 0xE0 DUP8 ADD MSTORE PUSH2 0x100 DUP7 ADD MSTORE PUSH2 0x120 DUP6 ADD MSTORE PUSH2 0x140 DUP5 ADD MSTORE PUSH2 0x160 DUP4 ADD MSTORE PUSH2 0x180 DUP3 ADD MSTORE PUSH1 0x40 MLOAD PUSH32 0x3C72616469616C4772616469656E742069643D226267222063783D2235302522 PUSH1 0x20 DUP3 ADD MSTORE PUSH18 0x1031BC9E911998129110391E911B9812911F PUSH1 0x71 SHL PUSH1 0x40 DUP3 ADD MSTORE PUSH1 0x0 DUP1 MLOAD PUSH1 0x20 PUSH2 0x5CE5 DUP4 CODECOPY DUP2 MLOAD SWAP2 MSTORE PUSH1 0x52 DUP3 ADD MSTORE PUSH32 0x6C6F723A233261316134613B73746F702D6F7061636974793A3122202F3E0000 PUSH1 0x72 DUP3 ADD MSTORE PUSH1 0x0 DUP1 MLOAD PUSH1 0x20 PUSH2 0x5D05 DUP4 CODECOPY DUP2 MLOAD SWAP2 MSTORE PUSH1 0x90 DUP3 ADD MSTORE PUSH32 0x6F6C6F723A233161306432653B73746F702D6F7061636974793A3122202F3E00 PUSH1 0xB0 DUP3 ADD MSTORE PUSH1 0x0 DUP1 MLOAD PUSH1 0x20 PUSH2 0x5D25 DUP4 CODECOPY DUP2 MLOAD SWAP2 MSTORE PUSH1 0xCF DUP3 ADD MSTORE PUSH32 0x636F6C6F723A233064303531353B73746F702D6F7061636974793A3122202F3E PUSH1 0xEF DUP3 ADD MSTORE PUSH17 0x1E17B930B234B0B623B930B234B2B73A1F PUSH1 0x79 SHL PUSH2 0x10F DUP3 ADD MSTORE PUSH2 0x100 DUP2 MSTORE DUP1 PUSH2 0x120 DUP2 ADD LT PUSH1 0x1 PUSH1 0x1 PUSH1 0x40 SHL SUB PUSH2 0x120 DUP4 ADD GT OR PUSH2 0x1B8E JUMPI PUSH2 0x120 DUP2 ADD PUSH1 0x40 MSTORE PUSH1 0x20 DUP3 ADD MLOAD DUP1 PUSH2 0x17C2 JUMPI POP PUSH1 0x40 DUP3 ADD MLOAD PUSH1 0x3 GT PUSH2 0x16D4 JUMPI PUSH1 0x40 MLOAD PUSH2 0x756 PUSH1 0xCE DUP3 PUSH2 0x683 PUSH1 0x20 DUP3 ADD PUSH2 0x4748 JUMP JUMPDEST PUSH1 0x0 DUP1 MLOAD PUSH1 0x20 PUSH2 0x5CE5 DUP4 CODECOPY DUP2 MLOAD SWAP2 MSTORE DUP2 MSTORE PUSH32 0x6C6F723A236666366239643B73746F702D6F7061636974793A3122202F3E0000 PUSH1 0x20 DUP3 ADD MSTORE PUSH1 0x0 DUP1 MLOAD PUSH1 0x20 PUSH2 0x5D05 DUP4 CODECOPY DUP2 MLOAD SWAP2 MSTORE PUSH1 0x3E DUP3 ADD MSTORE PUSH32 0x6F6C6F723A236334343536393B73746F702D6F7061636974793A3122202F3E00 PUSH1 0x5E DUP3 ADD MSTORE PUSH1 0x0 DUP1 MLOAD PUSH1 0x20 PUSH2 0x5D25 DUP4 CODECOPY DUP2 MLOAD SWAP2 MSTORE PUSH1 0x7D DUP3 ADD MSTORE PUSH32 0x636F6C6F723A233833364546393B73746F702D6F7061636974793A3122202F3E PUSH1 0x9D DUP3 ADD MSTORE PUSH17 0x1E17B930B234B0B623B930B234B2B73A1F PUSH1 0x79 SHL PUSH1 0xBD DUP3 ADD MSTORE SUB PUSH1 0xAE DUP2 ADD DUP5 MSTORE ADD DUP3 PUSH2 0x393C JUMP JUMPDEST SWAP1 JUMPDEST PUSH1 0x40 MLOAD SWAP2 DUP2 DUP4 SWAP3 MLOAD SWAP1 DUP2 PUSH1 0x20 DUP6 ADD SWAP2 PUSH1 0x20 ADD SWAP2 PUSH2 0x774 SWAP3 PUSH2 0x3772 JUMP JUMPDEST DUP3 ADD DUP2 MLOAD SWAP2 DUP3 PUSH1 0x20 DUP4 ADD SWAP2 PUSH1 0x20 ADD SWAP2 PUSH2 0x78C SWAP3 PUSH2 0x3772 JUMP JUMPDEST ADD SUB DUP1 DUP3 MSTORE PUSH1 0x20 ADD PUSH2 0x79E SWAP1 DUP3 PUSH2 0x393C JUMP JUMPDEST PUSH1 0x40 DUP3 ADD MLOAD PUSH2 0x7AC SWAP1 PUSH2 0x478E JUMP JUMPDEST SWAP1 PUSH1 0x40 MLOAD SWAP2 DUP3 SWAP2 PUSH1 0x20 DUP4 ADD PUSH6 0x1E3232B3399F PUSH1 0xD1 SHL SWAP1 MSTORE DUP1 MLOAD SWAP1 DUP2 PUSH1 0x26 DUP6 ADD SWAP2 PUSH1 0x20 ADD SWAP2 PUSH2 0x7D9 SWAP3 PUSH2 0x3772 JUMP JUMPDEST DUP3 ADD DUP2 MLOAD SWAP2 DUP3 PUSH1 0x26 DUP4 ADD SWAP2 PUSH1 0x20 ADD SWAP2 PUSH2 0x7F1 SWAP3 PUSH2 0x3772 JUMP JUMPDEST ADD PUSH1 0x26 DUP2 ADD PUSH7 0x1E17B232B3399F PUSH1 0xC9 SHL SWAP1 MSTORE SUB PUSH1 0xD DUP2 ADD DUP3 MSTORE PUSH1 0x2D ADD PUSH2 0x817 SWAP1 DUP3 PUSH2 0x393C JUMP JUMPDEST PUSH1 0x40 MLOAD SWAP1 PUSH2 0x824 DUP3 PUSH2 0x3906 JUMP JUMPDEST PUSH1 0x30 DUP3 MSTORE PUSH32 0x3C726563742077696474683D2234303022206865696768743D22343030222066 PUSH1 0x20 DUP4 ADD MSTORE PUSH16 0x34B6361E913AB9361411B1339491179F PUSH1 0x81 SHL PUSH1 0x40 DUP4 ADD MSTORE PUSH2 0x870 DUP4 PUSH2 0x4969 JUMP JUMPDEST SWAP3 PUSH2 0x87A DUP2 PUSH2 0x4CE0 JUMP JUMPDEST PUSH2 0x883 DUP3 PUSH2 0x4EA3 JUMP JUMPDEST PUSH2 0x88C DUP4 PUSH2 0x50BF JUMP JUMPDEST SWAP2 PUSH2 0x896 DUP5 PUSH2 0x53D4 JUMP JUMPDEST SWAP4 PUSH2 0x8A0 DUP2 PUSH2 0x57D3 JUMP JUMPDEST PUSH2 0x140 MSTORE DUP1 MLOAD SWAP1 PUSH1 0x60 DUP2 ADD MLOAD PUSH2 0x8B5 SWAP1 PUSH2 0x4420 JUMP JUMPDEST PUSH1 0x20 DUP3 ADD MLOAD PUSH2 0x8C3 SWAP1 PUSH2 0x5C21 JUMP JUMPDEST SWAP3 PUSH1 0x40 DUP4 ADD MLOAD PUSH2 0x8D2 SWAP1 PUSH2 0x5C7A JUMP JUMPDEST SWAP1 PUSH1 0x80 DUP5 ADD MLOAD PUSH2 0x8E1 SWAP1 PUSH2 0x4420 JUMP JUMPDEST SWAP1 PUSH1 0xA0 DUP6 ADD MLOAD PUSH2 0x8F0 SWAP1 PUSH2 0x4420 JUMP JUMPDEST SWAP1 PUSH1 0xC0 DUP7 ADD MLOAD PUSH2 0x8FF SWAP1 PUSH2 0x4420 JUMP JUMPDEST PUSH2 0x120 MSTORE PUSH1 0xE0 DUP7 ADD MLOAD PUSH2 0x911 SWAP1 PUSH2 0x4420 JUMP JUMPDEST SWAP3 PUSH2 0x100 DUP8 ADD MLOAD PUSH2 0x921 SWAP1 PUSH2 0x4420 JUMP JUMPDEST SWAP5 PUSH2 0x120 DUP9 ADD MLOAD PUSH2 0x931 SWAP1 PUSH2 0x4420 JUMP JUMPDEST SWAP7 PUSH2 0x160 DUP10 ADD MLOAD PUSH2 0x941 SWAP1 PUSH2 0x4420 JUMP JUMPDEST SWAP9 PUSH2 0x180 ADD MLOAD PUSH2 0x950 SWAP1 PUSH2 0x4420 JUMP JUMPDEST SWAP10 PUSH1 0x40 MLOAD DUP1 PUSH2 0x100 MSTORE PUSH1 0x20 ADD PUSH32 0x3C7265637420783D2231302220793D22333230222077696474683D2233383022 SWAP1 MSTORE PUSH2 0x100 MLOAD PUSH1 0x40 ADD PUSH32 0x206865696768743D223730222066696C6C3D2223303030303030222066696C6C SWAP1 MSTORE PUSH2 0x100 MLOAD PUSH1 0x60 ADD PUSH32 0x2D6F7061636974793D22302E39222072783D223822207374726F6B653D222338 SWAP1 MSTORE PUSH2 0x100 MLOAD PUSH1 0x80 ADD PUSH32 0x333645463922207374726F6B652D77696474683D2231222F3E00000000000000 SWAP1 MSTORE PUSH2 0x100 MLOAD PUSH1 0x99 ADD PUSH32 0x3C7465787420783D2232302220793D22333430222066696C6C3D222346464646 SWAP1 MSTORE PUSH32 0x46462220666F6E742D66616D696C793D22417269616C2C2073616E732D736572 SWAP5 DUP6 PUSH2 0x100 MLOAD PUSH1 0xB9 ADD MSTORE PUSH2 0x100 MLOAD PUSH1 0xD9 ADD PUSH32 0x69662220666F6E742D73697A653D2231342220666F6E742D7765696768743D22 SWAP1 MSTORE PUSH6 0x3137B632111F PUSH1 0xD1 SHL PUSH2 0x100 MLOAD PUSH1 0xF9 ADD MSTORE DUP1 MLOAD SWAP1 DUP2 PUSH2 0x100 MLOAD PUSH1 0xFF ADD SWAP2 PUSH1 0x20 ADD SWAP2 PUSH2 0xAA7 SWAP3 PUSH2 0x3772 JUMP JUMPDEST PUSH2 0x100 MLOAD ADD PUSH7 0x1E17BA32BC3A1F PUSH1 0xC9 SHL DUP1 PUSH1 0xC0 MSTORE PUSH1 0xFF DUP3 ADD MSTORE PUSH2 0x106 DUP2 ADD PUSH32 0x3C7465787420783D2232302220793D22333535222066696C6C3D222338333645 SWAP1 MSTORE PUSH2 0x126 DUP2 ADD PUSH32 0x46392220666F6E742D66616D696C793D22417269616C2C2073616E732D736572 SWAP1 MSTORE PUSH2 0x146 DUP2 ADD PUSH32 0x69662220666F6E742D73697A653D223131223E4C6576656C2000000000000000 SWAP1 MSTORE DUP3 MLOAD SWAP1 PUSH2 0x15F SWAP4 DUP3 DUP6 DUP4 ADD SWAP2 PUSH1 0x20 ADD SWAP2 PUSH2 0xB51 SWAP3 PUSH2 0x3772 JUMP JUMPDEST ADD DUP1 PUSH1 0x80 MSTORE PUSH3 0x103E1 PUSH1 0xED SHL SWAP3 DUP4 SWAP2 ADD MSTORE PUSH2 0x162 SWAP1 DUP2 PUSH1 0xE0 MSTORE DUP1 MLOAD DUP1 SWAP3 PUSH1 0x80 MLOAD ADD SWAP2 PUSH1 0x20 ADD SWAP2 PUSH2 0xB80 SWAP3 PUSH2 0x3772 JUMP JUMPDEST PUSH1 0x80 MLOAD ADD DUP1 PUSH1 0xA0 MSTORE PUSH1 0xE0 MLOAD ADD MSTORE DUP1 MLOAD PUSH2 0x165 SWAP2 DUP2 DUP4 PUSH1 0xA0 MLOAD ADD SWAP2 PUSH1 0x20 ADD SWAP2 PUSH2 0xBA7 SWAP3 PUSH2 0x3772 JUMP JUMPDEST PUSH1 0xA0 MLOAD ADD SWAP1 PUSH1 0xC0 MLOAD SWAP1 DUP3 ADD MSTORE PUSH2 0x16C DUP2 ADD PUSH32 0x3C7465787420783D2232302220793D22333730222066696C6C3D222346464646 SWAP1 MSTORE DUP3 PUSH2 0x18C DUP3 ADD MSTORE PUSH22 0x34B311103337B73A16B9B4BD329E911898111F24281D PUSH1 0x51 SHL PUSH2 0x1AC DUP3 ADD MSTORE DUP2 MLOAD SWAP1 PUSH2 0x1C2 SWAP3 DUP3 DUP5 DUP4 ADD SWAP2 PUSH1 0x20 ADD SWAP2 PUSH2 0xC1B SWAP3 PUSH2 0x3772 JUMP JUMPDEST ADD SWAP1 DUP2 ADD PUSH5 0x1020AA259D PUSH1 0xD9 SHL SWAP1 MSTORE DUP3 MLOAD SWAP1 PUSH2 0x1C7 SWAP4 DUP3 DUP6 DUP4 ADD SWAP2 PUSH1 0x20 ADD SWAP2 PUSH2 0xC43 SWAP3 PUSH2 0x3772 JUMP JUMPDEST ADD SWAP2 DUP3 ADD PUSH5 0x102222A31D PUSH1 0xD9 SHL SWAP1 MSTORE PUSH2 0x120 MLOAD SWAP2 DUP3 MLOAD SWAP1 PUSH2 0x1CC SWAP4 DUP3 DUP6 DUP4 ADD SWAP2 PUSH1 0x20 ADD SWAP2 PUSH2 0xC70 SWAP3 PUSH2 0x3772 JUMP JUMPDEST ADD SWAP2 PUSH1 0xC0 MLOAD SWAP1 DUP4 ADD MSTORE PUSH2 0x1D3 DUP3 ADD PUSH32 0x3C7465787420783D2232302220793D22333833222066696C6C3D222346464646 SWAP1 MSTORE PUSH2 0x1F3 DUP3 ADD MSTORE PUSH2 0x213 DUP2 ADD PUSH32 0x69662220666F6E742D73697A653D223130223E5350443A000000000000000000 SWAP1 MSTORE DUP2 MLOAD SWAP1 PUSH2 0x22A SWAP3 DUP3 DUP5 DUP4 ADD SWAP2 PUSH1 0x20 ADD SWAP2 PUSH2 0xCE8 SWAP3 PUSH2 0x3772 JUMP JUMPDEST ADD SWAP1 DUP2 ADD PUSH5 0x1026A0A39D PUSH1 0xD9 SHL SWAP1 MSTORE DUP2 MLOAD SWAP1 PUSH2 0x22F SWAP3 DUP3 DUP5 DUP4 ADD SWAP2 PUSH1 0x20 ADD SWAP2 PUSH2 0xD10 SWAP3 PUSH2 0x3772 JUMP JUMPDEST ADD SWAP1 DUP2 ADD PUSH5 0x102621A59D PUSH1 0xD9 SHL SWAP1 MSTORE DUP2 MLOAD SWAP1 PUSH2 0x234 SWAP3 DUP3 DUP5 DUP4 ADD SWAP2 PUSH1 0x20 ADD SWAP2 PUSH2 0xD38 SWAP3 PUSH2 0x3772 JUMP JUMPDEST ADD SWAP1 PUSH1 0xC0 MLOAD SWAP1 DUP3 ADD MSTORE PUSH2 0x23B DUP2 ADD PUSH32 0x3C7465787420783D223238302220793D22333730222066696C6C3D2223413030 SWAP1 MSTORE PUSH32 0x3535442220666F6E742D66616D696C793D22417269616C2C2073616E732D7365 SWAP1 DUP2 PUSH2 0x25B DUP3 ADD MSTORE PUSH2 0x27B DUP2 ADD PUSH32 0x7269662220666F6E742D73697A653D223130223E57696E733A20000000000000 SWAP1 MSTORE DUP3 MLOAD SWAP1 PUSH2 0x295 SWAP4 DUP3 DUP6 DUP4 ADD SWAP2 PUSH1 0x20 ADD SWAP2 PUSH2 0xDD3 SWAP3 PUSH2 0x3772 JUMP JUMPDEST ADD SWAP2 PUSH1 0xC0 MLOAD SWAP1 DUP4 ADD MSTORE PUSH2 0x29C DUP3 ADD PUSH32 0x3C7465787420783D223238302220793D22333833222066696C6C3D2223413030 SWAP1 MSTORE PUSH2 0x2BC DUP3 ADD MSTORE PUSH2 0x2DC DUP2 ADD PUSH32 0x7269662220666F6E742D73697A653D223130223E4C6F737365733A2000000000 SWAP1 MSTORE DUP2 MLOAD SWAP1 PUSH2 0x2F8 SWAP3 DUP3 DUP5 DUP4 ADD SWAP2 PUSH1 0x20 ADD SWAP2 PUSH2 0xE4B SWAP3 PUSH2 0x3772 JUMP JUMPDEST ADD SWAP1 PUSH1 0xC0 MLOAD SWAP1 DUP3 ADD MSTORE PUSH2 0x100 MLOAD DUP1 SWAP2 SUB SWAP1 PUSH2 0x2DF DUP3 ADD SWAP1 MSTORE PUSH2 0x2FF ADD PUSH2 0x100 MLOAD SWAP1 PUSH2 0xE75 SWAP2 PUSH2 0x393C JUMP JUMPDEST PUSH1 0x40 MLOAD SWAP7 DUP8 SWAP7 PUSH1 0x20 DUP9 ADD PUSH32 0x3C7376672077696474683D2234303022206865696768743D223430302220786D SWAP1 MSTORE PUSH1 0x40 DUP9 ADD PUSH32 0x6C6E733D22687474703A2F2F7777772E77332E6F72672F323030302F73766722 SWAP1 MSTORE PUSH1 0x60 DUP9 ADD PUSH1 0x1F PUSH1 0xF9 SHL SWAP1 MSTORE DUP7 MLOAD PUSH1 0x61 SWAP8 DUP2 DUP10 DUP12 ADD SWAP2 PUSH1 0x20 ADD SWAP2 PUSH2 0xEEB SWAP3 PUSH2 0x3772 JUMP JUMPDEST DUP9 ADD DUP2 MLOAD SWAP2 DUP3 DUP10 DUP4 ADD SWAP2 PUSH1 0x20 ADD SWAP2 PUSH2 0xF02 SWAP3 PUSH2 0x3772 JUMP JUMPDEST ADD DUP2 MLOAD SWAP2 DUP3 DUP9 DUP4 ADD SWAP2 PUSH1 0x20 ADD SWAP2 PUSH2 0xF18 SWAP3 PUSH2 0x3772 JUMP JUMPDEST ADD DUP2 MLOAD SWAP2 DUP3 DUP8 DUP4 ADD SWAP2 PUSH1 0x20 ADD SWAP2 PUSH2 0xF2E SWAP3 PUSH2 0x3772 JUMP JUMPDEST ADD DUP2 MLOAD SWAP2 DUP3 DUP7 DUP4 ADD SWAP2 PUSH1 0x20 ADD SWAP2 PUSH2 0xF44 SWAP3 PUSH2 0x3772 JUMP JUMPDEST ADD DUP2 MLOAD SWAP2 DUP3 DUP6 DUP4 ADD SWAP2 PUSH1 0x20 ADD SWAP2 PUSH2 0xF5A SWAP3 PUSH2 0x3772 JUMP JUMPDEST ADD DUP2 MLOAD SWAP2 DUP3 DUP5 DUP4 ADD SWAP2 PUSH1 0x20 ADD SWAP2 PUSH2 0xF70 SWAP3 PUSH2 0x3772 JUMP JUMPDEST ADD PUSH2 0x140 MLOAD SWAP1 DUP2 MLOAD SWAP2 DUP3 DUP5 DUP4 ADD SWAP2 PUSH1 0x20 ADD SWAP2 PUSH2 0xF8B SWAP3 PUSH2 0x3772 JUMP JUMPDEST ADD PUSH2 0x100 MLOAD SWAP1 DUP2 MLOAD SWAP2 DUP3 DUP5 DUP4 ADD SWAP2 PUSH1 0x20 ADD SWAP2 PUSH2 0xFA6 SWAP3 PUSH2 0x3772 JUMP JUMPDEST ADD SWAP1 DUP2 ADD PUSH6 0x1E17B9BB339F PUSH1 0xD1 SHL SWAP1 MSTORE SUB PUSH1 0x47 DUP2 ADD DUP3 MSTORE PUSH1 0x67 ADD PUSH2 0xFCA SWAP1 DUP3 PUSH2 0x393C JUMP JUMPDEST DUP2 MLOAD SWAP1 PUSH2 0xFD6 SWAP1 PUSH2 0x45AE JUMP JUMPDEST SWAP2 PUSH1 0x20 DUP2 ADD MLOAD PUSH1 0x5 DUP2 LT ISZERO PUSH2 0x16BE JUMPI PUSH2 0x1038 SWAP1 PUSH1 0x40 MLOAD PUSH2 0xFF5 DUP2 PUSH2 0x3899 JUMP JUMPDEST PUSH2 0xFFD PUSH2 0x42A6 JUMP JUMPDEST DUP2 MSTORE PUSH2 0x1007 PUSH2 0x42C9 JUMP JUMPDEST PUSH1 0x20 DUP3 ADD MSTORE PUSH2 0x1014 PUSH2 0x42ED JUMP JUMPDEST PUSH1 0x40 DUP3 ADD MSTORE PUSH2 0x1021 PUSH2 0x430D JUMP JUMPDEST PUSH1 0x60 DUP3 ADD MSTORE PUSH2 0x102E PUSH2 0x4332 JUMP JUMPDEST PUSH1 0x80 DUP3 ADD MSTORE PUSH2 0x43DD JUMP JUMPDEST MLOAD SWAP1 PUSH1 0x40 DUP2 ADD MLOAD PUSH1 0x6 DUP2 LT ISZERO PUSH2 0x16BE JUMPI PUSH1 0x40 MLOAD SWAP1 PUSH2 0x1055 DUP3 PUSH2 0x387E JUMP JUMPDEST PUSH2 0x105D PUSH2 0x4702 JUMP JUMPDEST DUP3 MSTORE PUSH2 0x1067 PUSH2 0x4724 JUMP JUMPDEST PUSH1 0x20 DUP4 ADD MSTORE PUSH2 0x1074 PUSH2 0x4356 JUMP JUMPDEST PUSH1 0x40 DUP4 ADD MSTORE PUSH2 0x1081 PUSH2 0x4376 JUMP JUMPDEST PUSH1 0x60 DUP4 ADD MSTORE PUSH2 0x108E PUSH2 0x4396 JUMP JUMPDEST PUSH1 0x80 DUP4 ADD MSTORE PUSH2 0x109B PUSH2 0x43BB JUMP JUMPDEST PUSH1 0xA0 DUP4 ADD MSTORE PUSH2 0x10A9 SWAP2 PUSH2 0x4295 JUMP JUMPDEST MLOAD PUSH1 0x80 DUP3 ADD MLOAD PUSH2 0x10B8 SWAP1 PUSH2 0x4420 JUMP JUMPDEST SWAP1 PUSH1 0x60 DUP4 ADD MLOAD MLOAD PUSH2 0x10C8 SWAP1 PUSH2 0x4420 JUMP JUMPDEST SWAP2 PUSH1 0x60 DUP5 ADD MLOAD PUSH1 0x20 ADD MLOAD PUSH2 0x10DB SWAP1 PUSH2 0x4420 JUMP JUMPDEST SWAP1 PUSH1 0x60 DUP6 ADD MLOAD PUSH1 0x40 ADD MLOAD PUSH2 0x10EE SWAP1 PUSH2 0x4420 JUMP JUMPDEST SWAP4 PUSH1 0x60 DUP7 ADD MLOAD PUSH1 0x60 ADD MLOAD PUSH2 0x1101 SWAP1 PUSH2 0x4420 JUMP JUMPDEST SWAP2 PUSH1 0x60 DUP8 ADD MLOAD PUSH1 0x80 ADD MLOAD PUSH2 0x1114 SWAP1 PUSH2 0x4420 JUMP JUMPDEST SWAP1 PUSH1 0x60 DUP9 ADD MLOAD PUSH1 0xA0 ADD MLOAD PUSH2 0x1127 SWAP1 PUSH2 0x4420 JUMP JUMPDEST SWAP4 PUSH1 0xC0 DUP10 ADD MLOAD PUSH2 0x1136 SWAP1 PUSH2 0x4420 JUMP JUMPDEST SWAP7 PUSH1 0xE0 DUP11 ADD MLOAD PUSH2 0x1145 SWAP1 PUSH2 0x4420 JUMP JUMPDEST SWAP10 PUSH2 0x140 ADD MLOAD SWAP11 PUSH1 0x40 MLOAD SWAP14 DUP15 SWAP14 DUP15 PUSH9 0x3D913730B6B2911D11 PUSH1 0xB9 SHL PUSH1 0x20 DUP3 ADD MSTORE DUP2 MLOAD SWAP2 DUP3 PUSH1 0x29 DUP4 ADD SWAP2 PUSH1 0x20 ADD SWAP2 PUSH2 0x117B SWAP3 PUSH2 0x3772 JUMP JUMPDEST PUSH2 0x88B PUSH1 0xF2 SHL SWAP2 ADD PUSH1 0x29 DUP2 ADD DUP3 SWAP1 MSTORE PUSH32 0x226465736372697074696F6E223A224120756E69717565204D6F6E616E696D61 PUSH1 0x2B DUP3 ADD MSTORE PUSH32 0x6C206669676874657220696E2074686520427261776C4E61647320626174746C PUSH1 0x4B DUP3 ADD MSTORE PUSH32 0x6520726F79616C652E20496E73706972656420627920746865204D6F6E616420 PUSH1 0x6B DUP3 ADD MSTORE PUSH32 0x626C6F636B636861696E2065636F73797374656D20776974682066756C6C7920 PUSH1 0x8B DUP3 ADD MSTORE PUSH18 0x1BDB98DA185A5B8814D591C8185C9D0B888B PUSH1 0x72 SHL PUSH1 0xAB DUP3 ADD MSTORE PUSH32 0x22696D616765223A22646174613A696D6167652F7376672B786D6C3B62617365 PUSH1 0xBD DUP3 ADD MSTORE PUSH3 0xD8D0B PUSH1 0xEA SHL PUSH1 0xDD DUP3 ADD MSTORE DUP3 MLOAD SWAP2 SWAP3 PUSH2 0x1286 SWAP1 DUP4 SWAP1 PUSH1 0xE0 DUP5 ADD SWAP1 PUSH1 0x20 ADD PUSH2 0x3772 JUMP JUMPDEST ADD SWAP1 PUSH1 0xE0 DUP3 ADD MSTORE PUSH14 0x2261747472696275746573223A5B PUSH1 0x90 SHL PUSH1 0xE2 DUP3 ADD MSTORE PUSH1 0xF0 DUP2 ADD PUSH32 0x7B2274726169745F74797065223A22436C617373222C2276616C7565223A2200 SWAP1 MSTORE DUP2 MLOAD SWAP2 DUP3 PUSH2 0x10F DUP4 ADD SWAP2 PUSH1 0x20 ADD SWAP2 PUSH2 0x12E2 SWAP3 PUSH2 0x3772 JUMP JUMPDEST ADD PUSH3 0x89F4B PUSH1 0xEA SHL SWAP1 DUP2 PUSH2 0x10F DUP3 ADD MSTORE PUSH2 0x112 DUP2 ADD PUSH32 0x7B2274726169745F74797065223A22526172697479222C2276616C7565223A22 SWAP1 MSTORE DUP3 MLOAD SWAP1 PUSH2 0x132 SWAP4 DUP3 DUP6 DUP4 ADD SWAP2 PUSH1 0x20 ADD SWAP2 PUSH2 0x1333 SWAP3 PUSH2 0x3772 JUMP JUMPDEST ADD SWAP2 DUP3 ADD MSTORE PUSH2 0x135 DUP2 ADD PUSH32 0x7B2274726169745F74797065223A224C6576656C222C2276616C7565223A0000 SWAP1 MSTORE DUP3 MLOAD SWAP1 PUSH2 0x153 SWAP4 DUP3 DUP6 DUP4 ADD SWAP2 PUSH1 0x20 ADD SWAP2 PUSH2 0x1379 SWAP3 PUSH2 0x3772 JUMP JUMPDEST ADD SWAP2 PUSH2 0x1F4B PUSH1 0xF2 SHL SWAP9 DUP10 DUP1 SWAP9 DUP2 DUP1 SWAP9 DUP2 DUP9 DUP2 DUP1 SWAP11 SWAP9 DUP2 SWAP10 ADD MSTORE PUSH2 0x155 DUP2 ADD PUSH32 0x7B2274726169745F74797065223A224865616C7468222C2276616C7565223A00 SWAP1 MSTORE DUP3 MLOAD SWAP1 PUSH2 0x174 SWAP4 DUP3 DUP6 DUP4 ADD SWAP2 PUSH1 0x20 ADD SWAP2 PUSH2 0x13D3 SWAP3 PUSH2 0x3772 JUMP JUMPDEST ADD SWAP2 DUP3 ADD MSTORE PUSH2 0x176 DUP2 ADD PUSH32 0x7B2274726169745F74797065223A2241747461636B222C2276616C7565223A00 SWAP1 MSTORE DUP3 MLOAD SWAP1 PUSH2 0x195 SWAP4 DUP3 DUP6 DUP4 ADD SWAP2 PUSH1 0x20 ADD SWAP2 PUSH2 0x1419 SWAP3 PUSH2 0x3772 JUMP JUMPDEST ADD SWAP2 DUP3 ADD MSTORE PUSH2 0x197 DUP2 ADD PUSH32 0x7B2274726169745F74797065223A22446566656E7365222C2276616C7565223A SWAP1 MSTORE DUP3 MLOAD SWAP1 PUSH2 0x1B7 SWAP4 DUP3 DUP6 DUP4 ADD SWAP2 PUSH1 0x20 ADD SWAP2 PUSH2 0x145F SWAP3 PUSH2 0x3772 JUMP JUMPDEST ADD SWAP2 DUP3 ADD MSTORE PUSH2 0x1B9 DUP2 ADD PUSH32 0x7B2274726169745F74797065223A225370656564222C2276616C7565223A0000 SWAP1 MSTORE DUP3 MLOAD SWAP1 PUSH2 0x1D7 SWAP4 DUP3 DUP6 DUP4 ADD SWAP2 PUSH1 0x20 ADD SWAP2 PUSH2 0x14A5 SWAP3 PUSH2 0x3772 JUMP JUMPDEST ADD SWAP2 DUP3 ADD MSTORE PUSH2 0x1D9 DUP2 ADD PUSH32 0x7B2274726169745F74797065223A224D61676963222C2276616C7565223A0000 SWAP1 MSTORE DUP3 MLOAD SWAP1 PUSH2 0x1F7 SWAP4 DUP3 DUP6 DUP4 ADD SWAP2 PUSH1 0x20 ADD SWAP2 PUSH2 0x14EB SWAP3 PUSH2 0x3772 JUMP JUMPDEST ADD SWAP2 DUP3 ADD MSTORE PUSH2 0x1F9 DUP2 ADD PUSH32 0x7B2274726169745F74797065223A224C75636B222C2276616C7565223A000000 SWAP1 MSTORE DUP3 MLOAD SWAP1 PUSH2 0x216 SWAP4 DUP3 DUP6 DUP4 ADD SWAP2 PUSH1 0x20 ADD SWAP2 PUSH2 0x1531 SWAP3 PUSH2 0x3772 JUMP JUMPDEST ADD SWAP2 DUP3 ADD MSTORE PUSH2 0x218 DUP2 ADD PUSH32 0x7B2274726169745F74797065223A2257696E73222C2276616C7565223A000000 SWAP1 MSTORE DUP3 MLOAD SWAP1 PUSH2 0x235 SWAP4 DUP3 DUP6 DUP4 ADD SWAP2 PUSH1 0x20 ADD SWAP2 PUSH2 0x1577 SWAP3 PUSH2 0x3772 JUMP JUMPDEST ADD SWAP2 DUP3 ADD MSTORE PUSH2 0x237 DUP2 ADD PUSH32 0x7B2274726169745F74797065223A224C6F73736573222C2276616C7565223A00 SWAP1 MSTORE DUP3 MLOAD SWAP1 PUSH2 0x256 SWAP4 DUP3 DUP6 DUP4 ADD SWAP2 PUSH1 0x20 ADD SWAP2 PUSH2 0x15BD SWAP3 PUSH2 0x3772 JUMP JUMPDEST ADD SWAP2 DUP3 ADD MSTORE PUSH32 0x7B2274726169745F74797065223A22436F6C6F7220536368656D65222C227661 PUSH2 0x258 DUP3 ADD MSTORE PUSH6 0x363AB2911D11 PUSH1 0xD1 SHL PUSH2 0x278 DUP3 ADD MSTORE DUP2 MLOAD PUSH2 0x27E SWAP3 SWAP1 SWAP2 SWAP1 PUSH2 0x1614 SWAP1 DUP4 SWAP1 DUP6 DUP5 ADD SWAP1 PUSH1 0x20 ADD PUSH2 0x3772 JUMP JUMPDEST ADD SWAP1 PUSH2 0x227D PUSH1 0xF0 SHL SWAP1 DUP3 ADD MSTORE PUSH2 0x280 DUP2 ADD PUSH2 0x5D7D PUSH1 0xF0 SHL SWAP1 MSTORE SUB PUSH2 0x262 DUP2 ADD DUP3 MSTORE PUSH2 0x282 ADD PUSH2 0x1643 SWAP1 DUP3 PUSH2 0x393C JUMP JUMPDEST PUSH2 0x164C SWAP1 PUSH2 0x45AE JUMP JUMPDEST PUSH1 0x40 MLOAD DUP1 SWAP2 PUSH1 0x20 DUP3 ADD PUSH32 0x646174613A6170706C69636174696F6E2F6A736F6E3B6261736536342C000000 SWAP1 MSTORE DUP1 MLOAD SWAP1 DUP2 PUSH1 0x3D DUP5 ADD SWAP2 PUSH1 0x20 ADD SWAP2 PUSH2 0x168E SWAP3 PUSH2 0x3772 JUMP JUMPDEST DUP2 ADD SUB PUSH1 0x1D DUP2 ADD DUP3 MSTORE PUSH1 0x3D ADD PUSH2 0x16A4 SWAP1 DUP3 PUSH2 0x393C JUMP JUMPDEST PUSH1 0x40 MLOAD DUP1 SWAP2 PUSH1 0x20 DUP3 MSTORE PUSH1 0x20 DUP3 ADD PUSH2 0x16BA SWAP2 PUSH2 0x3795 JUMP JUMPDEST SUB SWAP1 RETURN JUMPDEST PUSH4 0x4E487B71 PUSH1 0xE0 SHL PUSH1 0x0 MSTORE PUSH1 0x21 PUSH1 0x4 MSTORE PUSH1 0x24 PUSH1 0x0 REVERT JUMPDEST PUSH1 0x40 MLOAD PUSH2 0x17BC PUSH1 0xCE DUP3 PUSH2 0x16E9 PUSH1 0x20 DUP3 ADD PUSH2 0x4748 JUMP JUMPDEST PUSH1 0x0 DUP1 MLOAD PUSH1 0x20 PUSH2 0x5CE5 DUP4 CODECOPY DUP2 MLOAD SWAP2 MSTORE DUP2 MSTORE PUSH32 0x6C6F723A233833364546393B73746F702D6F7061636974793A3122202F3E0000 PUSH1 0x20 DUP3 ADD MSTORE PUSH1 0x0 DUP1 MLOAD PUSH1 0x20 PUSH2 0x5D05 DUP4 CODECOPY DUP2 MLOAD SWAP2 MSTORE PUSH1 0x3E DUP3 ADD MSTORE PUSH32 0x6F6C6F723A233563326136623B73746F702D6F7061636974793A3122202F3E00 PUSH1 0x5E DUP3 ADD MSTORE PUSH1 0x0 DUP1 MLOAD PUSH1 0x20 PUSH2 0x5D25 DUP4 CODECOPY DUP2 MLOAD SWAP2 MSTORE PUSH1 0x7D DUP3 ADD MSTORE PUSH32 0x636F6C6F723A233364316134613B73746F702D6F7061636974793A3122202F3E PUSH1 0x9D DUP3 ADD MSTORE PUSH17 0x1E17B930B234B0B623B930B234B2B73A1F PUSH1 0x79 SHL PUSH1 0xBD DUP3 ADD MSTORE SUB PUSH1 0xAE DUP2 ADD DUP5 MSTORE ADD DUP3 PUSH2 0x393C JUMP JUMPDEST SWAP1 PUSH2 0x758 JUMP JUMPDEST PUSH1 0x1 DUP2 SUB PUSH2 0x18B3 JUMPI POP PUSH1 0x40 MLOAD PUSH2 0x17BC PUSH1 0xCE DUP3 PUSH2 0x17E0 PUSH1 0x20 DUP3 ADD PUSH2 0x4748 JUMP JUMPDEST PUSH1 0x0 DUP1 MLOAD PUSH1 0x20 PUSH2 0x5CE5 DUP4 CODECOPY DUP2 MLOAD SWAP2 MSTORE DUP2 MSTORE PUSH32 0x6C6F723A233661346339333B73746F702D6F7061636974793A3122202F3E0000 PUSH1 0x20 DUP3 ADD MSTORE PUSH1 0x0 DUP1 MLOAD PUSH1 0x20 PUSH2 0x5D05 DUP4 CODECOPY DUP2 MLOAD SWAP2 MSTORE PUSH1 0x3E DUP3 ADD MSTORE PUSH32 0x6F6C6F723A233461326335613B73746F702D6F7061636974793A3122202F3E00 PUSH1 0x5E DUP3 ADD MSTORE PUSH1 0x0 DUP1 MLOAD PUSH1 0x20 PUSH2 0x5D25 DUP4 CODECOPY DUP2 MLOAD SWAP2 MSTORE PUSH1 0x7D DUP3 ADD MSTORE PUSH32 0x636F6C6F723A233264316233643B73746F702D6F7061636974793A3122202F3E PUSH1 0x9D DUP3 ADD MSTORE PUSH17 0x1E17B930B234B0B623B930B234B2B73A1F PUSH1 0x79 SHL PUSH1 0xBD DUP3 ADD MSTORE SUB PUSH1 0xAE DUP2 ADD DUP5 MSTORE ADD DUP3 PUSH2 0x393C JUMP JUMPDEST PUSH1 0x2 DUP2 SUB PUSH2 0x19A4 JUMPI POP PUSH1 0x40 MLOAD PUSH2 0x17BC PUSH1 0xCE DUP3 PUSH2 0x18D1 PUSH1 0x20 DUP3 ADD PUSH2 0x4748 JUMP JUMPDEST PUSH1 0x0 DUP1 MLOAD PUSH1 0x20 PUSH2 0x5CE5 DUP4 CODECOPY DUP2 MLOAD SWAP2 MSTORE DUP2 MSTORE PUSH32 0x6C6F723A233461393065323B73746F702D6F7061636974793A3122202F3E0000 PUSH1 0x20 DUP3 ADD MSTORE PUSH1 0x0 DUP1 MLOAD PUSH1 0x20 PUSH2 0x5D05 DUP4 CODECOPY DUP2 MLOAD SWAP2 MSTORE PUSH1 0x3E DUP3 ADD MSTORE PUSH32 0x6F6C6F723A233265356338613B73746F702D6F7061636974793A3122202F3E00 PUSH1 0x5E DUP3 ADD MSTORE PUSH1 0x0 DUP1 MLOAD PUSH1 0x20 PUSH2 0x5D25 DUP4 CODECOPY DUP2 MLOAD SWAP2 MSTORE PUSH1 0x7D DUP3 ADD MSTORE PUSH32 0x636F6C6F723A233161336135633B73746F702D6F7061636974793A3122202F3E PUSH1 0x9D DUP3 ADD MSTORE PUSH17 0x1E17B930B234B0B623B930B234B2B73A1F PUSH1 0x79 SHL PUSH1 0xBD DUP3 ADD MSTORE SUB PUSH1 0xAE DUP2 ADD DUP5 MSTORE ADD DUP3 PUSH2 0x393C JUMP JUMPDEST PUSH1 0x3 SUB PUSH2 0x1A93 JUMPI PUSH1 0x40 MLOAD PUSH2 0x17BC PUSH1 0xCE DUP3 PUSH2 0x19C0 PUSH1 0x20 DUP3 ADD PUSH2 0x4748 JUMP JUMPDEST PUSH1 0x0 DUP1 MLOAD PUSH1 0x20 PUSH2 0x5CE5 DUP4 CODECOPY DUP2 MLOAD SWAP2 MSTORE DUP2 MSTORE PUSH32 0x6C6F723A236537346333633B73746F702D6F7061636974793A3122202F3E0000 PUSH1 0x20 DUP3 ADD MSTORE PUSH1 0x0 DUP1 MLOAD PUSH1 0x20 PUSH2 0x5D05 DUP4 CODECOPY DUP2 MLOAD SWAP2 MSTORE PUSH1 0x3E DUP3 ADD MSTORE PUSH32 0x6F6C6F723A236139333232363B73746F702D6F7061636974793A3122202F3E00 PUSH1 0x5E DUP3 ADD MSTORE PUSH1 0x0 DUP1 MLOAD PUSH1 0x20 PUSH2 0x5D25 DUP4 CODECOPY DUP2 MLOAD SWAP2 MSTORE PUSH1 0x7D DUP3 ADD MSTORE PUSH32 0x636F6C6F723A233662316631373B73746F702D6F7061636974793A3122202F3E PUSH1 0x9D DUP3 ADD MSTORE PUSH17 0x1E17B930B234B0B623B930B234B2B73A1F PUSH1 0x79 SHL PUSH1 0xBD DUP3 ADD MSTORE SUB PUSH1 0xAE DUP2 ADD DUP5 MSTORE ADD DUP3 PUSH2 0x393C JUMP JUMPDEST PUSH2 0x1B83 DUP2 PUSH2 0x1AA4 PUSH2 0x140 DUP3 ADD PUSH2 0x4748 JUMP JUMPDEST PUSH1 0x0 DUP1 MLOAD PUSH1 0x20 PUSH2 0x5CE5 DUP4 CODECOPY DUP2 MLOAD SWAP2 MSTORE DUP2 MSTORE PUSH32 0x6C6F723A233561363764383B73746F702D6F7061636974793A3122202F3E0000 PUSH1 0x20 DUP3 ADD MSTORE PUSH1 0x0 DUP1 MLOAD PUSH1 0x20 PUSH2 0x5D05 DUP4 CODECOPY DUP2 MLOAD SWAP2 MSTORE PUSH1 0x3E DUP3 ADD MSTORE PUSH32 0x6F6C6F723A233463353162663B73746F702D6F7061636974793A3122202F3E00 PUSH1 0x5E DUP3 ADD MSTORE PUSH1 0x0 DUP1 MLOAD PUSH1 0x20 PUSH2 0x5D25 DUP4 CODECOPY DUP2 MLOAD SWAP2 MSTORE PUSH1 0x7D DUP3 ADD MSTORE PUSH32 0x636F6C6F723A233363333636623B73746F702D6F7061636974793A3122202F3E PUSH1 0x9D DUP3 ADD MSTORE PUSH17 0x1E17B930B234B0B623B930B234B2B73A1F PUSH1 0x79 SHL PUSH1 0xBD DUP3 ADD MSTORE SUB PUSH1 0x71 NOT DUP2 ADD PUSH2 0x120 DUP5 ADD MSTORE PUSH1 0x51 NOT ADD PUSH2 0x120 DUP4 ADD PUSH2 0x393C JUMP JUMPDEST PUSH2 0x120 DUP2 ADD SWAP1 PUSH2 0x758 JUMP JUMPDEST PUSH4 0x4E487B71 PUSH1 0xE0 SHL PUSH1 0x0 MSTORE PUSH1 0x41 PUSH1 0x4 MSTORE PUSH1 0x24 PUSH1 0x0 REVERT JUMPDEST PUSH1 0x40 MLOAD PUSH3 0x461BCD PUSH1 0xE5 SHL DUP2 MSTORE PUSH1 0x20 PUSH1 0x4 DUP3 ADD MSTORE PUSH1 0x14 PUSH1 0x24 DUP3 ADD MSTORE PUSH20 0x151BDAD95B88191BD95CC81B9BDD08195E1A5CDD PUSH1 0x62 SHL PUSH1 0x44 DUP3 ADD MSTORE PUSH1 0x64 SWAP1 REVERT JUMPDEST CALLVALUE PUSH2 0x1AC JUMPI PUSH1 0x80 CALLDATASIZE PUSH1 0x3 NOT ADD SLT PUSH2 0x1AC JUMPI PUSH2 0x1BF9 PUSH2 0x37BA JUMP JUMPDEST PUSH2 0x1C01 PUSH2 0x37D0 JUMP JUMPDEST SWAP1 PUSH1 0x64 CALLDATALOAD SWAP1 PUSH1 0x44 CALLDATALOAD PUSH1 0x1 PUSH1 0x1 PUSH1 0x40 SHL SUB DUP4 GT PUSH2 0x1AC JUMPI CALLDATASIZE PUSH1 0x23 DUP5 ADD SLT ISZERO PUSH2 0x1AC JUMPI DUP3 PUSH1 0x4 ADD CALLDATALOAD SWAP4 PUSH2 0x1C31 DUP6 PUSH2 0x3A77 JUMP JUMPDEST SWAP3 PUSH2 0x1C3F PUSH1 0x40 MLOAD SWAP5 DUP6 PUSH2 0x393C JUMP JUMPDEST DUP6 DUP5 MSTORE CALLDATASIZE PUSH1 0x24 DUP8 DUP8 ADD ADD GT PUSH2 0x1AC JUMPI PUSH1 0x0 PUSH1 0x20 DUP8 PUSH2 0x1C8D SWAP9 PUSH1 0x24 PUSH2 0x1C88 SWAP10 ADD DUP4 DUP10 ADD CALLDATACOPY DUP7 ADD ADD MSTORE PUSH2 0x1C78 PUSH2 0x1C73 DUP5 CALLER PUSH2 0x3CEA JUMP JUMPDEST PUSH2 0x3C11 JUMP JUMPDEST PUSH2 0x1C83 DUP4 DUP4 DUP4 PUSH2 0x3DB2 JUMP JUMPDEST PUSH2 0x40E0 JUMP JUMPDEST PUSH2 0x3CC6 JUMP JUMPDEST STOP JUMPDEST CALLVALUE PUSH2 0x1AC JUMPI PUSH1 0x40 CALLDATASIZE PUSH1 0x3 NOT ADD SLT PUSH2 0x1AC JUMPI PUSH2 0x1CA8 PUSH2 0x37BA JUMP JUMPDEST PUSH1 0x1 PUSH1 0x1 PUSH1 0xA0 SHL SUB AND PUSH1 0x0 SWAP1 DUP2 MSTORE PUSH1 0xD PUSH1 0x20 MSTORE PUSH1 0x40 SWAP1 KECCAK256 DUP1 SLOAD PUSH1 0x24 CALLDATALOAD SWAP2 SWAP1 DUP3 LT ISZERO PUSH2 0x1AC JUMPI PUSH1 0x20 SWAP2 PUSH2 0x1CD9 SWAP2 PUSH2 0x3A49 JUMP JUMPDEST SWAP1 SLOAD PUSH1 0x40 MLOAD SWAP2 PUSH1 0x3 SHL SHR DUP2 MSTORE RETURN JUMPDEST CALLVALUE PUSH2 0x1AC JUMPI PUSH1 0x40 CALLDATASIZE PUSH1 0x3 NOT ADD SLT PUSH2 0x1AC JUMPI PUSH2 0x1D00 PUSH2 0x37BA JUMP JUMPDEST PUSH2 0x1D08 PUSH2 0x3835 JUMP JUMPDEST PUSH1 0x1 PUSH1 0x1 PUSH1 0xA0 SHL SUB SWAP1 SWAP2 AND SWAP1 CALLER DUP3 EQ PUSH2 0x1D7A JUMPI CALLER PUSH1 0x0 MSTORE PUSH1 0x5 PUSH1 0x20 MSTORE PUSH1 0x40 PUSH1 0x0 KECCAK256 DUP3 PUSH1 0x0 MSTORE PUSH1 0x20 MSTORE PUSH2 0x1D4A DUP2 PUSH1 0x40 PUSH1 0x0 KECCAK256 SWAP1 PUSH1 0xFF DUP1 NOT DUP4 SLOAD AND SWAP2 ISZERO ISZERO AND OR SWAP1 SSTORE JUMP JUMPDEST PUSH1 0x40 MLOAD SWAP1 ISZERO ISZERO DUP2 MSTORE PUSH32 0x17307EAB39AB6107E8899845AD3D59BD9653F200F220920489CA2B5937696C31 PUSH1 0x20 CALLER SWAP3 LOG3 STOP JUMPDEST PUSH1 0x40 MLOAD PUSH3 0x461BCD PUSH1 0xE5 SHL DUP2 MSTORE PUSH1 0x20 PUSH1 0x4 DUP3 ADD MSTORE PUSH1 0x19 PUSH1 0x24 DUP3 ADD MSTORE PUSH32 0x4552433732313A20617070726F766520746F2063616C6C657200000000000000 PUSH1 0x44 DUP3 ADD MSTORE PUSH1 0x64 SWAP1 REVERT JUMPDEST CALLVALUE PUSH2 0x1AC JUMPI PUSH1 0x0 CALLDATASIZE PUSH1 0x3 NOT ADD SLT PUSH2 0x1AC JUMPI PUSH1 0x20 PUSH1 0xF SLOAD PUSH1 0x40 MLOAD SWAP1 DUP2 MSTORE RETURN JUMPDEST CALLVALUE PUSH2 0x1AC JUMPI PUSH1 0x0 CALLDATASIZE PUSH1 0x3 NOT ADD SLT PUSH2 0x1AC JUMPI PUSH1 0x40 MLOAD PUSH1 0x0 PUSH1 0x1 DUP1 SLOAD SWAP1 PUSH2 0x1E01 DUP3 PUSH2 0x3844 JUMP JUMPDEST DUP1 DUP6 MSTORE SWAP2 DUP2 DUP2 AND SWAP1 DUP2 ISZERO PUSH2 0x1E95 JUMPI POP PUSH1 0x1 EQ PUSH2 0x1E3C JUMPI JUMPDEST PUSH2 0x16BA DUP5 PUSH2 0x1E28 DUP2 DUP7 SUB DUP3 PUSH2 0x393C JUMP JUMPDEST PUSH1 0x40 MLOAD SWAP2 DUP3 SWAP2 PUSH1 0x20 DUP4 MSTORE PUSH1 0x20 DUP4 ADD SWAP1 PUSH2 0x3795 JUMP JUMPDEST PUSH1 0x0 DUP2 DUP2 MSTORE SWAP3 POP PUSH32 0xB10E2D527612073B26EECDFD717E6A320CF44B4AFAC2B0732D9FCBE2B7FA0CF6 JUMPDEST DUP3 DUP5 LT PUSH2 0x1E7D JUMPI POP POP POP DUP2 ADD PUSH1 0x20 ADD PUSH2 0x1E28 DUP3 PUSH2 0x1E18 JUMP JUMPDEST DUP1 SLOAD PUSH1 0x20 DUP6 DUP8 ADD DUP2 ADD SWAP2 SWAP1 SWAP2 MSTORE SWAP1 SWAP4 ADD SWAP3 DUP2 ADD PUSH2 0x1E65 JUMP JUMPDEST PUSH1 0xFF NOT AND PUSH1 0x20 DUP1 DUP8 ADD SWAP2 SWAP1 SWAP2 MSTORE SWAP3 ISZERO ISZERO PUSH1 0x5 SHL DUP6 ADD SWAP1 SWAP3 ADD SWAP3 POP PUSH2 0x1E28 SWAP2 POP DUP4 SWAP1 POP PUSH2 0x1E18 JUMP JUMPDEST CALLVALUE PUSH2 0x1AC JUMPI PUSH1 0x0 CALLDATASIZE PUSH1 0x3 NOT ADD SLT PUSH2 0x1AC JUMPI PUSH1 0xA SLOAD PUSH1 0x40 MLOAD PUSH1 0x1 PUSH1 0x1 PUSH1 0xA0 SHL SUB SWAP1 SWAP2 AND DUP2 MSTORE PUSH1 0x20 SWAP1 RETURN JUMPDEST CALLVALUE PUSH2 0x1AC JUMPI PUSH1 0x20 CALLDATASIZE PUSH1 0x3 NOT ADD SLT PUSH2 0x1AC JUMPI PUSH2 0x1EFE PUSH2 0x3A92 JUMP JUMPDEST PUSH1 0x4 CALLDATALOAD PUSH1 0xF SSTORE STOP JUMPDEST CALLVALUE PUSH2 0x1AC JUMPI PUSH1 0x0 CALLDATASIZE PUSH1 0x3 NOT ADD SLT PUSH2 0x1AC JUMPI PUSH2 0x1F1F PUSH2 0x3A92 JUMP JUMPDEST PUSH1 0xA DUP1 SLOAD PUSH1 0x1 PUSH1 0x1 PUSH1 0xA0 SHL SUB NOT DUP2 AND SWAP1 SWAP2 SSTORE PUSH1 0x0 SWAP1 PUSH1 0x1 PUSH1 0x1 PUSH1 0xA0 SHL SUB AND PUSH32 0x8BE0079C531659141344CD1FD0A4F28419497F9722A3DAAFE3B4186F6B6457E0 DUP3 DUP1 LOG3 STOP JUMPDEST CALLVALUE PUSH2 0x1AC JUMPI PUSH1 0x20 CALLDATASIZE PUSH1 0x3 NOT ADD SLT PUSH2 0x1AC JUMPI PUSH1 0x20 PUSH2 0x1F86 PUSH2 0x1F81 PUSH2 0x37BA JUMP JUMPDEST PUSH2 0x3AEA JUMP JUMPDEST PUSH1 0x40 MLOAD SWAP1 DUP2 MSTORE RETURN JUMPDEST CALLVALUE PUSH2 0x1AC JUMPI PUSH1 0x0 CALLDATASIZE PUSH1 0x3 NOT ADD SLT PUSH2 0x1AC JUMPI PUSH1 0x20 PUSH1 0xE SLOAD PUSH1 0x40 MLOAD SWAP1 DUP2 MSTORE RETURN JUMPDEST CALLVALUE PUSH2 0x1AC JUMPI PUSH1 0x20 CALLDATASIZE PUSH1 0x3 NOT ADD SLT PUSH2 0x1AC JUMPI PUSH1 0x20 PUSH2 0x1FCA PUSH1 0x4 CALLDATALOAD PUSH2 0x3BAD JUMP JUMPDEST PUSH1 0x40 MLOAD PUSH1 0x1 PUSH1 0x1 PUSH1 0xA0 SHL SUB SWAP1 SWAP2 AND DUP2 MSTORE RETURN JUMPDEST CALLVALUE PUSH2 0x1AC JUMPI PUSH1 0x20 CALLDATASIZE PUSH1 0x3 NOT ADD SLT PUSH2 0x1AC JUMPI PUSH1 0x4 CALLDATALOAD PUSH1 0x0 MSTORE PUSH1 0xC PUSH1 0x20 MSTORE PUSH1 0x40 PUSH1 0x0 KECCAK256 PUSH2 0x2006 DUP2 PUSH2 0x395D JUMP JUMPDEST PUSH1 0x1 DUP3 ADD SLOAD SWAP2 PUSH2 0x2018 PUSH1 0x2 DUP3 ADD PUSH2 0x3A03 JUMP JUMPDEST SWAP3 PUSH1 0x8 DUP3 ADD SLOAD SWAP1 PUSH1 0x9 DUP4 ADD SLOAD SWAP1 PUSH1 0xA DUP5 ADD SLOAD PUSH1 0xB DUP6 ADD SLOAD PUSH1 0xC DUP7 ADD SLOAD PUSH1 0xFF AND SWAP1 PUSH1 0xD DUP8 ADD SLOAD SWAP3 PUSH1 0xE DUP9 ADD PUSH2 0x204B SWAP1 PUSH2 0x395D JUMP JUMPDEST SWAP6 PUSH1 0xF DUP10 ADD SLOAD SWAP9 PUSH1 0x10 ADD SLOAD SWAP8 PUSH1 0x40 MLOAD SWAP12 DUP13 SWAP12 DUP13 PUSH2 0x240 DUP1 SWAP2 MSTORE DUP14 ADD PUSH2 0x206F SWAP2 PUSH2 0x3795 JUMP JUMPDEST SWAP8 PUSH2 0x2080 PUSH1 0x20 DUP15 ADD PUSH1 0xFF DUP4 AND PUSH2 0x37E6 JUMP JUMPDEST PUSH1 0x40 DUP14 ADD SWAP1 PUSH1 0x8 SHR PUSH1 0xFF AND SWAP1 PUSH2 0x2095 SWAP2 PUSH2 0x37F3 JUMP JUMPDEST PUSH1 0x60 DUP13 ADD PUSH2 0x20D4 SWAP2 PUSH1 0xA0 DUP1 SWAP2 DUP1 MLOAD DUP5 MSTORE PUSH1 0x20 DUP2 ADD MLOAD PUSH1 0x20 DUP6 ADD MSTORE PUSH1 0x40 DUP2 ADD MLOAD PUSH1 0x40 DUP6 ADD MSTORE PUSH1 0x60 DUP2 ADD MLOAD PUSH1 0x60 DUP6 ADD MSTORE PUSH1 0x80 DUP2 ADD MLOAD PUSH1 0x80 DUP6 ADD MSTORE ADD MLOAD SWAP2 ADD MSTORE JUMP JUMPDEST PUSH2 0x120 DUP12 ADD MSTORE PUSH2 0x140 DUP11 ADD MSTORE PUSH2 0x160 DUP10 ADD MSTORE PUSH2 0x180 DUP9 ADD MSTORE ISZERO ISZERO PUSH2 0x1A0 DUP8 ADD MSTORE PUSH2 0x1C0 DUP7 ADD MSTORE DUP5 DUP2 SUB PUSH2 0x1E0 DUP7 ADD MSTORE PUSH2 0x210C SWAP2 PUSH2 0x3795 JUMP JUMPDEST SWAP2 PUSH2 0x200 DUP5 ADD MSTORE PUSH2 0x220 DUP4 ADD MSTORE SUB SWAP1 RETURN JUMPDEST CALLVALUE PUSH2 0x1AC JUMPI PUSH1 0x40 CALLDATASIZE PUSH1 0x3 NOT ADD SLT PUSH2 0x1AC JUMPI PUSH1 0x4 CALLDATALOAD PUSH2 0x2139 PUSH2 0x3835 JUMP JUMPDEST PUSH1 0xA SLOAD PUSH1 0x1 PUSH1 0x1 PUSH1 0xA0 SHL SUB AND CALLER SUB PUSH2 0x21C3 JUMPI ISZERO PUSH2 0x2185 JUMPI DUP1 PUSH1 0x0 MSTORE PUSH1 0xC PUSH1 0x20 MSTORE PUSH1 0xA PUSH1 0x40 PUSH1 0x0 KECCAK256 ADD PUSH2 0x216B DUP2 SLOAD PUSH2 0x459F JUMP JUMPDEST SWAP1 SSTORE JUMPDEST PUSH1 0x0 MSTORE PUSH1 0xC PUSH1 0x20 MSTORE TIMESTAMP PUSH1 0xD PUSH1 0x40 PUSH1 0x0 KECCAK256 ADD SSTORE PUSH1 0x0 DUP1 RETURN JUMPDEST DUP1 PUSH1 0x0 MSTORE PUSH1 0xC PUSH1 0x20 MSTORE PUSH1 0xB PUSH1 0x40 PUSH1 0x0 KECCAK256 ADD PUSH2 0x21A0 DUP2 SLOAD PUSH2 0x459F JUMP JUMPDEST SWAP1 SSTORE DUP1 PUSH1 0x0 MSTORE PUSH1 0xC PUSH1 0x20 MSTORE PUSH1 0xC PUSH1 0x40 PUSH1 0x0 KECCAK256 ADD PUSH1 0x1 PUSH1 0xFF NOT DUP3 SLOAD AND OR SWAP1 SSTORE PUSH2 0x216E JUMP JUMPDEST PUSH1 0x40 MLOAD PUSH3 0x461BCD PUSH1 0xE5 SHL DUP2 MSTORE PUSH1 0x20 PUSH1 0x4 DUP3 ADD MSTORE PUSH1 0x24 DUP1 DUP3 ADD MSTORE PUSH32 0x4F6E6C7920626174746C65206172656E612063616E2075706461746520726573 PUSH1 0x44 DUP3 ADD MSTORE PUSH4 0x756C7473 PUSH1 0xE0 SHL PUSH1 0x64 DUP3 ADD MSTORE PUSH1 0x84 SWAP1 REVERT JUMPDEST CALLVALUE PUSH2 0x1AC JUMPI PUSH1 0x40 CALLDATASIZE PUSH1 0x3 NOT ADD SLT PUSH2 0x1AC JUMPI PUSH1 0xA SLOAD PUSH1 0x4 CALLDATALOAD SWAP1 PUSH1 0x1 PUSH1 0x1 PUSH1 0xA0 SHL SUB AND CALLER SUB PUSH2 0x23E3 JUMPI DUP1 PUSH1 0x0 MSTORE PUSH1 0xC SWAP1 PUSH1 0x20 DUP3 DUP2 MSTORE PUSH1 0x9 PUSH1 0x40 PUSH1 0x0 KECCAK256 ADD SWAP3 PUSH1 0x24 SWAP4 PUSH2 0x225F DUP6 CALLDATALOAD DUP3 SLOAD PUSH2 0x4288 JUMP JUMPDEST SWAP1 SSTORE DUP3 PUSH1 0x0 MSTORE DUP1 DUP3 MSTORE PUSH1 0x8 PUSH1 0x40 PUSH1 0x0 KECCAK256 ADD SLOAD PUSH1 0x64 DUP2 MUL SWAP1 DUP1 DUP3 DIV PUSH1 0x64 EQ SWAP1 ISZERO OR ISZERO PUSH2 0x23CE JUMPI DUP4 PUSH1 0x0 MSTORE DUP2 DUP4 MSTORE PUSH1 0x40 PUSH1 0x0 KECCAK256 DUP2 PUSH1 0x9 DUP3 ADD SLOAD LT ISZERO PUSH2 0x229E JUMPI STOP JUMPDEST PUSH1 0x8 ADD PUSH2 0x22AB DUP2 SLOAD PUSH2 0x459F JUMP JUMPDEST SWAP1 SSTORE DUP4 PUSH1 0x0 MSTORE DUP2 DUP4 MSTORE PUSH1 0x9 PUSH1 0x40 PUSH1 0x0 KECCAK256 ADD DUP1 SLOAD SWAP2 DUP3 SUB SWAP2 DUP3 GT PUSH2 0x23B9 JUMPI SSTORE DUP3 PUSH1 0x0 MSTORE DUP1 DUP3 MSTORE PUSH1 0x2 PUSH1 0x40 PUSH1 0x0 KECCAK256 ADD DUP1 SLOAD SWAP1 PUSH1 0x5 DUP3 ADD DUP1 SWAP3 GT PUSH2 0x23B9 JUMPI SSTORE DUP3 PUSH1 0x0 MSTORE DUP1 DUP3 MSTORE PUSH1 0x3 PUSH1 0x40 PUSH1 0x0 KECCAK256 ADD DUP1 SLOAD SWAP1 PUSH1 0x3 DUP3 ADD DUP1 SWAP3 GT PUSH2 0x23B9 JUMPI SSTORE DUP3 PUSH1 0x0 MSTORE DUP1 DUP3 MSTORE PUSH1 0x4 PUSH1 0x40 PUSH1 0x0 KECCAK256 ADD DUP1 SLOAD SWAP1 PUSH1 0x3 DUP3 ADD DUP1 SWAP3 GT PUSH2 0x23B9 JUMPI SSTORE DUP3 PUSH1 0x0 MSTORE DUP1 DUP3 MSTORE PUSH1 0x5 PUSH1 0x40 PUSH1 0x0 KECCAK256 ADD DUP1 SLOAD SWAP1 PUSH1 0x2 DUP3 ADD DUP1 SWAP3 GT PUSH2 0x23B9 JUMPI SSTORE DUP3 PUSH1 0x0 MSTORE DUP1 DUP3 MSTORE PUSH1 0x6 PUSH1 0x40 PUSH1 0x0 KECCAK256 ADD DUP1 SLOAD SWAP1 PUSH1 0x2 DUP3 ADD DUP1 SWAP3 GT PUSH2 0x23B9 JUMPI SSTORE DUP3 PUSH1 0x0 MSTORE DUP1 DUP3 MSTORE PUSH1 0x7 PUSH1 0x40 PUSH1 0x0 KECCAK256 ADD DUP1 SLOAD SWAP1 PUSH1 0x1 DUP3 ADD DUP1 SWAP3 GT PUSH2 0x23B9 JUMPI PUSH32 0xF04F007B8DFB9F8CAF57A3B9E166B72A4E2F1EA8EAD97BAFC0F12BD08DA6C969 SWAP5 SWAP6 POP SSTORE DUP4 PUSH1 0x0 MSTORE DUP2 MSTORE PUSH1 0x8 PUSH1 0x40 PUSH1 0x0 KECCAK256 ADD SLOAD PUSH1 0x40 MLOAD SWAP1 DUP2 MSTORE LOG2 STOP JUMPDEST DUP6 PUSH4 0x4E487B71 PUSH1 0xE0 SHL PUSH1 0x0 MSTORE PUSH1 0x11 PUSH1 0x4 MSTORE PUSH1 0x0 REVERT JUMPDEST DUP5 PUSH4 0x4E487B71 PUSH1 0xE0 SHL PUSH1 0x0 MSTORE PUSH1 0x11 PUSH1 0x4 MSTORE PUSH1 0x0 REVERT JUMPDEST PUSH1 0x40 MLOAD PUSH3 0x461BCD PUSH1 0xE5 SHL DUP2 MSTORE PUSH1 0x20 PUSH1 0x4 DUP3 ADD MSTORE PUSH1 0x24 DUP1 DUP3 ADD MSTORE PUSH32 0x4F6E6C7920626174746C65206172656E612063616E2061646420657870657269 PUSH1 0x44 DUP3 ADD MSTORE PUSH4 0x656E6365 PUSH1 0xE0 SHL PUSH1 0x64 DUP3 ADD MSTORE PUSH1 0x84 SWAP1 REVERT JUMPDEST CALLVALUE PUSH2 0x1AC JUMPI PUSH1 0x60 CALLDATASIZE PUSH1 0x3 NOT ADD SLT PUSH2 0x1AC JUMPI PUSH1 0x4 CALLDATALOAD PUSH32 0xEF62795AC449F982DB6B821E8BBB6EFE0E725055FBA3222233DB3FDA1E1DFBF4 PUSH1 0x40 PUSH1 0x24 CALLDATALOAD PUSH1 0x44 CALLDATALOAD PUSH2 0x248D PUSH2 0x247D DUP7 PUSH2 0x3BAD JUMP JUMPDEST PUSH1 0x1 PUSH1 0x1 PUSH1 0xA0 SHL SUB AND CALLER EQ PUSH2 0x4563 JUMP JUMPDEST DUP5 PUSH1 0x0 MSTORE PUSH1 0xC PUSH1 0x20 MSTORE DUP1 PUSH1 0x10 DUP5 PUSH1 0x0 KECCAK256 DUP5 PUSH1 0xF DUP3 ADD SSTORE ADD SSTORE DUP3 MLOAD SWAP2 DUP3 MSTORE PUSH1 0x20 DUP3 ADD MSTORE LOG2 STOP JUMPDEST CALLVALUE PUSH2 0x1AC JUMPI PUSH1 0x20 CALLDATASIZE PUSH1 0x3 NOT ADD SLT PUSH2 0x1AC JUMPI PUSH1 0x4 CALLDATALOAD PUSH1 0x8 SLOAD DUP2 LT ISZERO PUSH2 0x2503 JUMPI PUSH1 0x20 SWAP1 PUSH1 0x8 PUSH1 0x0 MSTORE PUSH32 0xF3F7A9FE364FAAB93B216DA50A3214154F22A0A2B415B23A84C8169E8B636EE3 ADD SLOAD PUSH1 0x40 MLOAD SWAP1 DUP2 MSTORE RETURN JUMPDEST PUSH1 0x40 MLOAD PUSH3 0x461BCD PUSH1 0xE5 SHL DUP2 MSTORE PUSH1 0x20 PUSH1 0x4 DUP3 ADD MSTORE PUSH1 0x2C PUSH1 0x24 DUP3 ADD MSTORE PUSH32 0x455243373231456E756D657261626C653A20676C6F62616C20696E646578206F PUSH1 0x44 DUP3 ADD MSTORE PUSH12 0x7574206F6620626F756E6473 PUSH1 0xA0 SHL PUSH1 0x64 DUP3 ADD MSTORE PUSH1 0x84 SWAP1 REVERT JUMPDEST PUSH1 0x20 CALLDATASIZE PUSH1 0x3 NOT ADD SLT PUSH2 0x1AC JUMPI PUSH1 0x4 CALLDATALOAD PUSH2 0x2578 PUSH2 0x247D DUP3 PUSH2 0x3BAD JUMP JUMPDEST DUP1 PUSH1 0x0 MSTORE PUSH1 0xC PUSH1 0x20 MSTORE PUSH1 0xFF PUSH1 0xC PUSH1 0x40 PUSH1 0x0 KECCAK256 ADD SLOAD AND ISZERO PUSH2 0x25E0 JUMPI PUSH2 0x25A0 PUSH1 0xF SLOAD CALLVALUE LT ISZERO PUSH2 0x4167 JUMP JUMPDEST DUP1 PUSH1 0x0 MSTORE PUSH1 0xC PUSH1 0x20 MSTORE PUSH1 0xC PUSH1 0x40 PUSH1 0x0 KECCAK256 ADD PUSH1 0xFF NOT DUP2 SLOAD AND SWAP1 SSTORE PUSH32 0x47153A98D8B36230C96BA070E7E481CB1C752AEF3F85849B30836B74F6F77C48 PUSH1 0x0 DUP1 LOG2 STOP JUMPDEST PUSH1 0x40 MLOAD PUSH3 0x461BCD PUSH1 0xE5 SHL DUP2 MSTORE PUSH1 0x20 PUSH1 0x4 DUP3 ADD MSTORE PUSH1 0x13 PUSH1 0x24 DUP3 ADD MSTORE PUSH19 0x4D6F6E616E696D616C206973206E6F74204B4F PUSH1 0x68 SHL PUSH1 0x44 DUP3 ADD MSTORE PUSH1 0x64 SWAP1 REVERT JUMPDEST CALLVALUE PUSH2 0x1AC JUMPI PUSH2 0x1C8D PUSH2 0x1C88 PUSH2 0x262F CALLDATASIZE PUSH2 0x3800 JUMP JUMPDEST SWAP1 PUSH1 0x40 MLOAD SWAP3 PUSH2 0x263D DUP5 PUSH2 0x38EB JUMP JUMPDEST PUSH1 0x0 DUP5 MSTORE PUSH2 0x1C78 PUSH2 0x1C73 DUP5 CALLER PUSH2 0x3CEA JUMP JUMPDEST CALLVALUE PUSH2 0x1AC JUMPI PUSH1 0x0 CALLDATASIZE PUSH1 0x3 NOT ADD SLT PUSH2 0x1AC JUMPI PUSH2 0x2667 PUSH2 0x3A92 JUMP JUMPDEST PUSH1 0x0 DUP1 DUP1 DUP1 PUSH1 0x1 DUP1 PUSH1 0xA0 SHL SUB PUSH1 0xA SLOAD AND SELFBALANCE SWAP1 DUP3 DUP3 ISZERO PUSH2 0x2695 JUMPI JUMPDEST CALL ISZERO PUSH2 0x2689 JUMPI STOP JUMPDEST PUSH1 0x40 MLOAD RETURNDATASIZE PUSH1 0x0 DUP3 RETURNDATACOPY RETURNDATASIZE SWAP1 REVERT JUMPDEST POP PUSH2 0x8FC PUSH2 0x2681 JUMP JUMPDEST CALLVALUE PUSH2 0x1AC JUMPI PUSH1 0x40 CALLDATASIZE PUSH1 0x3 NOT ADD SLT PUSH2 0x1AC JUMPI PUSH2 0x26B7 PUSH2 0x37BA JUMP JUMPDEST PUSH1 0x24 CALLDATALOAD SWAP1 PUSH2 0x26C4 DUP2 PUSH2 0x3AEA JUMP JUMPDEST DUP3 LT ISZERO PUSH2 0x26F7 JUMPI PUSH1 0x1 DUP1 PUSH1 0xA0 SHL SUB AND PUSH1 0x0 MSTORE PUSH1 0x6 PUSH1 0x20 MSTORE PUSH1 0x40 PUSH1 0x0 KECCAK256 SWAP1 PUSH1 0x0 MSTORE PUSH1 0x20 MSTORE PUSH1 0x20 PUSH1 0x40 PUSH1 0x0 KECCAK256 SLOAD PUSH1 0x40 MLOAD SWAP1 DUP2 MSTORE RETURN JUMPDEST PUSH1 0x40 MLOAD PUSH3 0x461BCD PUSH1 0xE5 SHL DUP2 MSTORE PUSH1 0x20 PUSH1 0x4 DUP3 ADD MSTORE PUSH1 0x2B PUSH1 0x24 DUP3 ADD MSTORE PUSH32 0x455243373231456E756D657261626C653A206F776E657220696E646578206F75 PUSH1 0x44 DUP3 ADD MSTORE PUSH11 0x74206F6620626F756E6473 PUSH1 0xA8 SHL PUSH1 0x64 DUP3 ADD MSTORE PUSH1 0x84 SWAP1 REVERT JUMPDEST CALLVALUE PUSH2 0x1AC JUMPI PUSH2 0x1C8D PUSH2 0x2761 CALLDATASIZE PUSH2 0x3800 JUMP JUMPDEST SWAP2 PUSH2 0x276F PUSH2 0x1C73 DUP5 CALLER PUSH2 0x3CEA JUMP JUMPDEST PUSH2 0x3DB2 JUMP JUMPDEST CALLVALUE PUSH2 0x1AC JUMPI PUSH1 0x20 CALLDATASIZE PUSH1 0x3 NOT ADD SLT PUSH2 0x1AC JUMPI PUSH1 0x0 PUSH2 0x180 PUSH1 0x40 MLOAD PUSH2 0x2796 DUP2 PUSH2 0x38B4 JUMP JUMPDEST PUSH1 0x60 DUP2 MSTORE DUP3 PUSH1 0x20 DUP3 ADD MSTORE DUP3 PUSH1 0x40 DUP3 ADD MSTORE PUSH2 0x27AE PUSH2 0x4256 JUMP JUMPDEST PUSH1 0x60 DUP3 ADD MSTORE DUP3 PUSH1 0x80 DUP3 ADD MSTORE DUP3 PUSH1 0xA0 DUP3 ADD MSTORE DUP3 PUSH1 0xC0 DUP3 ADD MSTORE DUP3 PUSH1 0xE0 DUP3 ADD MSTORE DUP3 PUSH2 0x100 DUP3 ADD MSTORE DUP3 PUSH2 0x120 DUP3 ADD MSTORE PUSH1 0x60 PUSH2 0x140 DUP3 ADD MSTORE DUP3 PUSH2 0x160 DUP3 ADD MSTORE ADD MSTORE PUSH1 0x4 CALLDATALOAD PUSH1 0x0 MSTORE PUSH1 0xC PUSH1 0x20 MSTORE PUSH1 0x40 PUSH1 0x0 KECCAK256 PUSH1 0x10 PUSH1 0x40 MLOAD SWAP2 PUSH2 0x2809 DUP4 PUSH2 0x38B4 JUMP JUMPDEST PUSH2 0x2812 DUP2 PUSH2 0x395D JUMP JUMPDEST DUP4 MSTORE PUSH2 0x282D PUSH1 0xFF PUSH1 0x1 DUP4 ADD SLOAD PUSH2 0x3F0 DUP3 DUP3 AND PUSH1 0x20 DUP9 ADD PUSH2 0x41AA JUMP JUMPDEST PUSH2 0x2839 PUSH1 0x2 DUP3 ADD PUSH2 0x3A03 JUMP JUMPDEST PUSH1 0x60 DUP5 ADD MSTORE PUSH1 0x8 DUP2 ADD SLOAD PUSH1 0x80 DUP5 ADD MSTORE PUSH1 0x9 DUP2 ADD SLOAD PUSH1 0xA0 DUP5 ADD MSTORE PUSH1 0xA DUP2 ADD SLOAD PUSH1 0xC0 DUP5 ADD MSTORE PUSH1 0xB DUP2 ADD SLOAD PUSH1 0xE0 DUP5 ADD MSTORE PUSH1 0xFF PUSH1 0xC DUP3 ADD SLOAD AND ISZERO ISZERO PUSH2 0x100 DUP5 ADD MSTORE PUSH1 0xD DUP2 ADD SLOAD PUSH2 0x120 DUP5 ADD MSTORE PUSH2 0x288D PUSH1 0xE DUP3 ADD PUSH2 0x395D JUMP JUMPDEST PUSH2 0x140 DUP5 ADD MSTORE PUSH1 0xF DUP2 ADD SLOAD PUSH2 0x160 DUP5 ADD MSTORE ADD SLOAD PUSH2 0x180 DUP3 ADD MSTORE PUSH1 0x40 MLOAD DUP1 SWAP2 PUSH1 0x20 DUP3 MSTORE PUSH2 0x180 PUSH2 0x2991 PUSH2 0x28CD DUP4 MLOAD PUSH2 0x240 PUSH1 0x20 DUP8 ADD MSTORE PUSH2 0x260 DUP7 ADD SWAP1 PUSH2 0x3795 JUMP JUMPDEST PUSH2 0x28DF PUSH1 0x20 DUP6 ADD MLOAD PUSH1 0x40 DUP8 ADD SWAP1 PUSH2 0x37E6 JUMP JUMPDEST PUSH2 0x28F1 PUSH1 0x40 DUP6 ADD MLOAD PUSH1 0x60 DUP8 ADD SWAP1 PUSH2 0x37F3 JUMP JUMPDEST PUSH2 0x2935 PUSH1 0x60 DUP6 ADD MLOAD PUSH1 0x80 DUP8 ADD SWAP1 PUSH1 0xA0 DUP1 SWAP2 DUP1 MLOAD DUP5 MSTORE PUSH1 0x20 DUP2 ADD MLOAD PUSH1 0x20 DUP6 ADD MSTORE PUSH1 0x40 DUP2 ADD MLOAD PUSH1 0x40 DUP6 ADD MSTORE PUSH1 0x60 DUP2 ADD MLOAD PUSH1 0x60 DUP6 ADD MSTORE PUSH1 0x80 DUP2 ADD MLOAD PUSH1 0x80 DUP6 ADD MSTORE ADD MLOAD SWAP2 ADD MSTORE JUMP JUMPDEST PUSH1 0x80 DUP5 ADD MLOAD PUSH2 0x140 DUP7 ADD MSTORE PUSH1 0xA0 DUP5 ADD MLOAD PUSH2 0x160 DUP7 ADD MSTORE PUSH1 0xC0 DUP5 ADD MLOAD DUP4 DUP7 ADD MSTORE PUSH1 0xE0 DUP5 ADD MLOAD PUSH2 0x1A0 DUP7 ADD MSTORE PUSH2 0x100 DUP5 ADD MLOAD ISZERO ISZERO PUSH2 0x1C0 DUP7 ADD MSTORE PUSH2 0x120 DUP5 ADD MLOAD PUSH2 0x1E0 DUP7 ADD MSTORE PUSH2 0x140 DUP5 ADD MLOAD PUSH1 0x1F NOT DUP7 DUP4 SUB ADD PUSH2 0x200 DUP8 ADD MSTORE PUSH2 0x3795 JUMP JUMPDEST SWAP2 PUSH2 0x160 DUP2 ADD MLOAD PUSH2 0x220 DUP6 ADD MSTORE ADD MLOAD PUSH2 0x240 DUP4 ADD MSTORE SUB SWAP1 RETURN JUMPDEST CALLVALUE PUSH2 0x1AC JUMPI PUSH1 0x0 CALLDATASIZE PUSH1 0x3 NOT ADD SLT PUSH2 0x1AC JUMPI PUSH1 0x20 PUSH1 0x8 SLOAD PUSH1 0x40 MLOAD SWAP1 DUP2 MSTORE RETURN JUMPDEST PUSH1 0x0 CALLDATASIZE PUSH1 0x3 NOT ADD SLT PUSH2 0x1AC JUMPI PUSH2 0x29E2 PUSH1 0xE SLOAD CALLVALUE LT ISZERO PUSH2 0x4167 JUMP JUMPDEST PUSH1 0xB SLOAD PUSH1 0x1 DUP2 ADD PUSH1 0xB SSTORE PUSH2 0x29F4 PUSH2 0x4256 JUMP JUMPDEST POP PUSH1 0x40 MLOAD PUSH1 0x20 DUP2 ADD SWAP1 TIMESTAMP DUP3 MSTORE PREVRANDAO PUSH1 0x40 DUP3 ADD MSTORE DUP3 PUSH1 0x60 DUP3 ADD MSTORE CALLER PUSH1 0x60 SHL PUSH1 0x80 DUP3 ADD MSTORE PUSH1 0x74 DUP2 MSTORE PUSH2 0x2A22 DUP2 PUSH2 0x3899 JUMP JUMPDEST MLOAD SWAP1 KECCAK256 SWAP1 PUSH1 0x5 DUP1 DUP4 MOD LT ISZERO PUSH2 0x16BE JUMPI PUSH2 0x3E8 DUP3 PUSH1 0x8 SHR MOD PUSH2 0x1F4 DUP2 LT PUSH1 0x0 EQ PUSH2 0x3460 JUMPI POP PUSH1 0x0 SWAP2 JUMPDEST PUSH2 0x2A52 PUSH2 0x4256 JUMP JUMPDEST POP PUSH1 0x6 DUP4 LT ISZERO PUSH2 0x16BE JUMPI PUSH1 0x14 DUP4 MUL DUP4 DUP2 DIV PUSH1 0x14 EQ DUP5 ISZERO OR ISZERO PUSH2 0x336F JUMPI PUSH1 0x32 ADD DUP1 PUSH1 0x32 GT PUSH2 0x336F JUMPI PUSH2 0x2A89 PUSH1 0x14 DUP4 PUSH1 0x10 SHR MOD DUP3 PUSH2 0x4288 JUMP JUMPDEST PUSH2 0x2A99 PUSH1 0x14 DUP5 PUSH1 0x18 SHR MOD DUP4 PUSH2 0x4288 JUMP JUMPDEST SWAP2 PUSH2 0x2AAA PUSH1 0x14 DUP6 PUSH1 0x20 SHR MOD DUP3 PUSH2 0x4288 JUMP JUMPDEST SWAP1 PUSH2 0x2ABB PUSH1 0x14 DUP7 PUSH1 0x28 SHR MOD DUP3 PUSH2 0x4288 JUMP JUMPDEST PUSH2 0x2ADC PUSH2 0x2ACE PUSH1 0x14 DUP9 PUSH1 0x30 SHR MOD DUP5 PUSH2 0x4288 JUMP JUMPDEST SWAP3 PUSH1 0x14 DUP9 PUSH1 0x38 SHR MOD SWAP1 PUSH2 0x4288 JUMP JUMPDEST SWAP3 PUSH1 0x0 SWAP6 PUSH1 0x5 DUP9 MOD ISZERO PUSH1 0x0 EQ PUSH2 0x3385 JUMPI PUSH1 0x1E DUP2 ADD DUP1 SWAP2 GT PUSH2 0x336F JUMPI SWAP1 PUSH1 0x14 DUP2 ADD DUP2 GT PUSH2 0x336F JUMPI PUSH1 0x14 ADD SWAP1 JUMPDEST PUSH1 0x40 MLOAD SWAP6 PUSH2 0x2B14 DUP8 PUSH2 0x387E JUMP JUMPDEST DUP7 MSTORE PUSH1 0x20 DUP7 ADD MSTORE PUSH1 0x40 DUP6 ADD MSTORE PUSH1 0x60 DUP5 ADD MSTORE PUSH1 0x80 DUP4 ADD MSTORE PUSH1 0xA0 DUP3 ADD MSTORE PUSH2 0x2C43 PUSH1 0x40 MLOAD PUSH2 0x2B3E DUP2 PUSH2 0x387E JUMP JUMPDEST PUSH1 0x40 MLOAD PUSH2 0x2B4A DUP2 PUSH2 0x38D0 JUMP JUMPDEST PUSH1 0xB DUP2 MSTORE PUSH11 0x707572706C652D626C7565 PUSH1 0xA8 SHL PUSH1 0x20 DUP3 ADD MSTORE DUP2 MSTORE PUSH1 0x40 MLOAD PUSH2 0x2B70 DUP2 PUSH2 0x38D0 JUMP JUMPDEST PUSH1 0xC DUP2 MSTORE PUSH12 0x707572706C652D6265727279 PUSH1 0xA0 SHL PUSH1 0x20 DUP3 ADD MSTORE PUSH1 0x20 DUP3 ADD MSTORE PUSH1 0x40 MLOAD PUSH2 0x2B9A DUP2 PUSH2 0x38D0 JUMP JUMPDEST PUSH1 0xB DUP2 MSTORE PUSH11 0x626C75652D707572706C65 PUSH1 0xA8 SHL PUSH1 0x20 DUP3 ADD MSTORE PUSH1 0x40 DUP3 ADD MSTORE PUSH1 0x40 MLOAD PUSH2 0x2BC3 DUP2 PUSH2 0x38D0 JUMP JUMPDEST PUSH1 0xC DUP2 MSTORE PUSH12 0x62657272792D707572706C65 PUSH1 0xA0 SHL PUSH1 0x20 DUP3 ADD MSTORE PUSH1 0x60 DUP3 ADD MSTORE PUSH1 0x40 MLOAD PUSH2 0x2BED DUP2 PUSH2 0x38D0 JUMP JUMPDEST PUSH1 0xF DUP2 MSTORE PUSH15 0x1C1D5C9C1B194B59DC98591A595B9D PUSH1 0x8A SHL PUSH1 0x20 DUP3 ADD MSTORE PUSH1 0x80 DUP3 ADD MSTORE PUSH1 0x40 MLOAD PUSH2 0x2C1A DUP2 PUSH2 0x38D0 JUMP JUMPDEST PUSH1 0xD DUP2 MSTORE PUSH13 0x636F736D69632D707572706C65 PUSH1 0x98 SHL PUSH1 0x20 DUP3 ADD MSTORE PUSH1 0xA0 DUP3 ADD MSTORE PUSH1 0x6 DUP6 MOD SWAP1 PUSH2 0x4295 JUMP JUMPDEST MLOAD SWAP1 PUSH1 0x40 MLOAD PUSH2 0x2C51 DUP2 PUSH2 0x3899 JUMP JUMPDEST PUSH2 0x2C59 PUSH2 0x42A6 JUMP JUMPDEST DUP2 MSTORE PUSH2 0x2C63 PUSH2 0x42C9 JUMP JUMPDEST PUSH1 0x20 DUP3 ADD MSTORE PUSH2 0x2C70 PUSH2 0x42ED JUMP JUMPDEST PUSH1 0x40 DUP3 ADD MSTORE PUSH2 0x2C7D PUSH2 0x430D JUMP JUMPDEST PUSH1 0x60 DUP3 ADD MSTORE PUSH2 0x2C8A PUSH2 0x4332 JUMP JUMPDEST PUSH1 0x80 DUP3 ADD MSTORE PUSH1 0x40 MLOAD SWAP1 PUSH2 0x2C9C DUP3 PUSH2 0x387E JUMP JUMPDEST PUSH1 0x40 MLOAD PUSH2 0x2CA8 DUP2 PUSH2 0x38EB JUMP JUMPDEST PUSH1 0x0 DUP2 MSTORE DUP3 MSTORE PUSH1 0x40 MLOAD PUSH2 0x2CBA DUP2 PUSH2 0x38D0 JUMP JUMPDEST PUSH1 0x5 DUP2 MSTORE PUSH5 0x5368696E79 PUSH1 0xD8 SHL PUSH1 0x20 DUP3 ADD MSTORE PUSH1 0x20 DUP4 ADD MSTORE PUSH2 0x2CD9 PUSH2 0x4356 JUMP JUMPDEST PUSH1 0x40 DUP4 ADD MSTORE PUSH2 0x2CE6 PUSH2 0x4376 JUMP JUMPDEST PUSH1 0x60 DUP4 ADD MSTORE PUSH2 0x2CF3 PUSH2 0x4396 JUMP JUMPDEST PUSH1 0x80 DUP4 ADD MSTORE PUSH2 0x2D00 PUSH2 0x43BB JUMP JUMPDEST PUSH1 0xA0 DUP4 ADD MSTORE PUSH2 0x2D1A DUP9 PUSH2 0x2D13 DUP2 DUP6 PUSH2 0x4295 JUMP JUMPDEST MLOAD SWAP4 PUSH2 0x4295 JUMP JUMPDEST MLOAD MLOAD ISZERO PUSH2 0x3359 JUMPI PUSH1 0x40 MLOAD PUSH2 0x2D2D DUP2 PUSH2 0x38D0 JUMP JUMPDEST PUSH1 0x1 DUP2 MSTORE PUSH1 0x1 PUSH1 0xFD SHL PUSH1 0x20 DUP3 ADD MSTORE SWAP5 JUMPDEST PUSH2 0x16BE JUMPI PUSH2 0x2DD0 SWAP2 PUSH2 0x2D55 PUSH1 0x22 SWAP3 PUSH1 0x5 DUP10 MOD SWAP1 PUSH2 0x43DD JUMP JUMPDEST MLOAD PUSH2 0x2D5F DUP10 PUSH2 0x4420 JUMP JUMPDEST SWAP1 PUSH1 0x40 MLOAD SWAP8 DUP4 PUSH2 0x2D79 DUP11 SWAP6 MLOAD DUP1 SWAP3 PUSH1 0x20 DUP1 DUP10 ADD SWAP2 ADD PUSH2 0x3772 JUMP JUMPDEST DUP5 ADD PUSH2 0x2D8E DUP3 MLOAD DUP1 SWAP4 PUSH1 0x20 DUP1 DUP6 ADD SWAP2 ADD PUSH2 0x3772 JUMP JUMPDEST ADD PUSH2 0x2DA2 DUP3 MLOAD DUP1 SWAP4 PUSH1 0x20 DUP1 DUP6 ADD SWAP2 ADD PUSH2 0x3772 JUMP JUMPDEST ADD PUSH2 0x2023 PUSH1 0xF0 SHL PUSH1 0x20 DUP3 ADD MSTORE PUSH2 0x2DC1 DUP3 MLOAD DUP1 SWAP4 PUSH1 0x20 DUP8 DUP6 ADD SWAP2 ADD PUSH2 0x3772 JUMP JUMPDEST ADD SUB PUSH1 0x2 DUP2 ADD DUP7 MSTORE ADD DUP5 PUSH2 0x393C JUMP JUMPDEST PUSH1 0x40 MLOAD SWAP3 PUSH2 0x2DDD DUP5 PUSH2 0x38B4 JUMP JUMPDEST DUP4 MSTORE PUSH2 0x2DEF PUSH1 0x5 DUP6 MOD PUSH1 0x20 DUP6 ADD PUSH2 0x41AA JUMP JUMPDEST PUSH2 0x2DFC DUP7 PUSH1 0x40 DUP6 ADD PUSH2 0x41B6 JUMP JUMPDEST PUSH1 0x60 DUP4 ADD MSTORE PUSH1 0x1 PUSH1 0x80 DUP4 ADD MSTORE PUSH1 0x0 PUSH1 0xA0 DUP4 ADD MSTORE PUSH1 0x0 PUSH1 0xC0 DUP4 ADD MSTORE PUSH1 0x0 PUSH1 0xE0 DUP4 ADD MSTORE PUSH1 0x0 PUSH2 0x100 DUP4 ADD MSTORE PUSH1 0x0 PUSH2 0x120 DUP4 ADD MSTORE PUSH2 0x140 DUP3 ADD MSTORE PUSH1 0x0 PUSH2 0x160 DUP3 ADD MSTORE PUSH1 0x0 PUSH2 0x180 DUP3 ADD MSTORE DUP3 PUSH1 0x0 MSTORE PUSH1 0xC PUSH1 0x20 MSTORE PUSH1 0x40 PUSH1 0x0 KECCAK256 SWAP1 DUP1 MLOAD DUP1 MLOAD SWAP1 PUSH1 0x1 PUSH1 0x1 PUSH1 0x40 SHL SUB DUP3 GT PUSH2 0x1B8E JUMPI DUP2 SWAP1 PUSH2 0x2E71 DUP6 SLOAD PUSH2 0x3844 JUMP JUMPDEST PUSH1 0x1F DUP2 GT PUSH2 0x3309 JUMPI JUMPDEST POP PUSH1 0x20 SWAP1 PUSH1 0x1F DUP4 GT PUSH1 0x1 EQ PUSH2 0x329D JUMPI PUSH1 0x0 SWAP3 PUSH2 0x3292 JUMPI JUMPDEST POP POP DUP2 PUSH1 0x1 SHL SWAP2 PUSH1 0x0 NOT SWAP1 PUSH1 0x3 SHL SHR NOT AND OR DUP3 SSTORE JUMPDEST PUSH1 0x20 DUP2 ADD MLOAD PUSH1 0x5 DUP2 LT ISZERO PUSH2 0x16BE JUMPI PUSH1 0x1 DUP4 ADD SLOAD PUSH1 0x40 DUP4 ADD MLOAD PUSH1 0x6 DUP2 LT ISZERO PUSH2 0x16BE JUMPI PUSH2 0xFF00 PUSH1 0xFF SWAP2 PUSH1 0x8 SHL AND SWAP3 AND SWAP1 PUSH2 0xFFFF NOT AND OR OR PUSH1 0x1 DUP4 ADD SSTORE PUSH1 0xA0 PUSH1 0x60 DUP3 ADD MLOAD DUP1 MLOAD PUSH1 0x2 DUP6 ADD SSTORE PUSH1 0x20 DUP2 ADD MLOAD PUSH1 0x3 DUP6 ADD SSTORE PUSH1 0x40 DUP2 ADD MLOAD PUSH1 0x4 DUP6 ADD SSTORE PUSH1 0x60 DUP2 ADD MLOAD PUSH1 0x5 DUP6 ADD SSTORE PUSH1 0x80 DUP2 ADD MLOAD PUSH1 0x6 DUP6 ADD SSTORE ADD MLOAD PUSH1 0x7 DUP4 ADD SSTORE PUSH1 0x80 DUP2 ADD MLOAD PUSH1 0x8 DUP4 ADD SSTORE PUSH1 0xA0 DUP2 ADD MLOAD PUSH1 0x9 DUP4 ADD SSTORE PUSH1 0xC0 DUP2 ADD MLOAD PUSH1 0xA DUP4 ADD SSTORE PUSH1 0xE0 DUP2 ADD MLOAD PUSH1 0xB DUP4 ADD SSTORE PUSH2 0x2F65 PUSH2 0x100 DUP3 ADD MLOAD ISZERO ISZERO PUSH1 0xC DUP5 ADD SWAP1 PUSH1 0xFF DUP1 NOT DUP4 SLOAD AND SWAP2 ISZERO ISZERO AND OR SWAP1 SSTORE JUMP JUMPDEST PUSH2 0x120 DUP2 ADD MLOAD PUSH1 0xD DUP4 ADD SSTORE PUSH2 0x140 DUP2 ADD MLOAD DUP1 MLOAD SWAP1 PUSH1 0x1 PUSH1 0x1 PUSH1 0x40 SHL SUB DUP3 GT PUSH2 0x1B8E JUMPI PUSH2 0x2F94 PUSH1 0xE DUP6 ADD SLOAD PUSH2 0x3844 JUMP JUMPDEST PUSH1 0x1F DUP2 GT PUSH2 0x324B JUMPI JUMPDEST POP PUSH1 0x20 SWAP1 PUSH1 0x1F DUP4 GT PUSH1 0x1 EQ PUSH2 0x31D7 JUMPI SWAP2 DUP1 PUSH1 0x10 SWAP5 SWAP3 PUSH2 0x180 SWAP5 PUSH1 0x0 SWAP3 PUSH2 0x31CC JUMPI JUMPDEST POP POP DUP2 PUSH1 0x1 SHL SWAP2 PUSH1 0x0 NOT SWAP1 PUSH1 0x3 SHL SHR NOT AND OR PUSH1 0xE DUP6 ADD SSTORE JUMPDEST PUSH2 0x160 DUP2 ADD MLOAD PUSH1 0xF DUP6 ADD SSTORE ADD MLOAD SWAP2 ADD SSTORE CALLER PUSH1 0x0 MSTORE PUSH1 0xD PUSH1 0x20 MSTORE PUSH1 0x40 PUSH1 0x0 KECCAK256 DUP1 SLOAD PUSH1 0x1 PUSH1 0x40 SHL DUP2 LT ISZERO PUSH2 0x1B8E JUMPI PUSH2 0x3011 SWAP2 PUSH1 0x1 DUP3 ADD DUP2 SSTORE PUSH2 0x3A49 JUMP JUMPDEST DUP2 SLOAD SWAP1 PUSH1 0x3 SHL SWAP1 DUP5 DUP3 SHL SWAP2 PUSH1 0x0 NOT SWAP1 SHL NOT AND OR SWAP1 SSTORE PUSH1 0x40 MLOAD SWAP3 PUSH2 0x3033 DUP5 PUSH2 0x38EB JUMP JUMPDEST PUSH1 0x0 DUP5 MSTORE CALLER ISZERO PUSH2 0x3188 JUMPI PUSH2 0x3156 PUSH2 0x3160 SWAP3 PUSH2 0x314A PUSH2 0x1C88 PUSH1 0x5 SWAP8 PUSH2 0x3075 PUSH2 0x306F DUP10 PUSH1 0x0 MSTORE PUSH1 0x2 PUSH1 0x20 MSTORE PUSH1 0x1 DUP1 PUSH1 0xA0 SHL SUB PUSH1 0x40 PUSH1 0x0 KECCAK256 SLOAD AND ISZERO ISZERO SWAP1 JUMP JUMPDEST ISZERO PUSH2 0x420A JUMP JUMPDEST PUSH1 0x8 SLOAD DUP9 PUSH1 0x0 MSTORE PUSH1 0x9 PUSH1 0x20 MSTORE PUSH1 0x40 PUSH1 0x0 KECCAK256 SSTORE PUSH2 0x3090 DUP9 PUSH2 0x41C2 JUMP JUMPDEST PUSH2 0x3099 CALLER PUSH2 0x3AEA JUMP JUMPDEST CALLER PUSH1 0x0 MSTORE PUSH1 0x6 PUSH1 0x20 MSTORE PUSH1 0x40 PUSH1 0x0 KECCAK256 DUP2 PUSH1 0x0 MSTORE PUSH1 0x20 MSTORE DUP9 PUSH1 0x40 PUSH1 0x0 KECCAK256 SSTORE DUP9 PUSH1 0x0 MSTORE PUSH1 0x7 PUSH1 0x20 MSTORE PUSH1 0x40 PUSH1 0x0 KECCAK256 SSTORE PUSH2 0x30E6 PUSH2 0x306F DUP10 PUSH1 0x0 MSTORE PUSH1 0x2 PUSH1 0x20 MSTORE PUSH1 0x1 DUP1 PUSH1 0xA0 SHL SUB PUSH1 0x40 PUSH1 0x0 KECCAK256 SLOAD AND ISZERO ISZERO SWAP1 JUMP JUMPDEST CALLER PUSH1 0x0 MSTORE PUSH1 0x3 PUSH1 0x20 MSTORE PUSH1 0x40 PUSH1 0x0 KECCAK256 PUSH1 0x1 DUP2 SLOAD ADD SWAP1 SSTORE DUP8 PUSH1 0x0 MSTORE PUSH1 0x2 PUSH1 0x20 MSTORE PUSH1 0x40 PUSH1 0x0 KECCAK256 CALLER PUSH1 0x1 PUSH1 0x1 PUSH1 0x60 SHL SUB PUSH1 0xA0 SHL DUP3 SLOAD AND OR SWAP1 SSTORE DUP8 CALLER PUSH1 0x0 PUSH32 0xDDF252AD1BE2C89B69C2B068FC378DAA952BA7F163C4A11628F55A4DF523B3EF DUP2 DUP1 LOG4 DUP8 CALLER PUSH2 0x3FC2 JUMP JUMPDEST PUSH1 0x40 MLOAD SWAP6 DUP7 SWAP2 MOD PUSH2 0x37E6 JUMP JUMPDEST PUSH1 0x20 DUP5 ADD SWAP1 PUSH2 0x37F3 JUMP JUMPDEST PUSH32 0x7BF904F9EF1D99303C3745B88F501E03D4FA0FA1EF2532E4709E5B24E76D2F6F PUSH1 0x40 CALLER SWAP4 LOG3 STOP JUMPDEST PUSH1 0x64 PUSH1 0x40 MLOAD PUSH3 0x461BCD PUSH1 0xE5 SHL DUP2 MSTORE PUSH1 0x20 PUSH1 0x4 DUP3 ADD MSTORE PUSH1 0x20 PUSH1 0x24 DUP3 ADD MSTORE PUSH32 0x4552433732313A206D696E7420746F20746865207A65726F2061646472657373 PUSH1 0x44 DUP3 ADD MSTORE REVERT JUMPDEST ADD MLOAD SWAP1 POP DUP10 DUP1 PUSH2 0x2FBE JUMP JUMPDEST SWAP1 PUSH1 0x1F NOT DUP4 AND SWAP2 PUSH1 0xE DUP7 ADD PUSH1 0x0 MSTORE PUSH1 0x20 PUSH1 0x0 KECCAK256 SWAP3 PUSH1 0x0 JUMPDEST DUP2 DUP2 LT PUSH2 0x3233 JUMPI POP SWAP3 PUSH1 0x1 SWAP3 DUP6 SWAP3 PUSH2 0x180 SWAP7 PUSH1 0x10 SWAP9 SWAP7 LT PUSH2 0x321A JUMPI JUMPDEST POP POP POP DUP2 SHL ADD PUSH1 0xE DUP6 ADD SSTORE PUSH2 0x2FD6 JUMP JUMPDEST ADD MLOAD PUSH1 0x0 NOT PUSH1 0xF8 DUP5 PUSH1 0x3 SHL AND SHR NOT AND SWAP1 SSTORE DUP10 DUP1 DUP1 PUSH2 0x320A JUMP JUMPDEST SWAP3 SWAP4 PUSH1 0x20 PUSH1 0x1 DUP2 SWAP3 DUP8 DUP7 ADD MLOAD DUP2 SSTORE ADD SWAP6 ADD SWAP4 ADD PUSH2 0x31EE JUMP JUMPDEST PUSH1 0xE DUP6 ADD PUSH1 0x0 MSTORE PUSH1 0x20 PUSH1 0x0 KECCAK256 PUSH1 0x1F DUP5 ADD PUSH1 0x5 SHR DUP2 ADD PUSH1 0x20 DUP6 LT PUSH2 0x328B JUMPI JUMPDEST PUSH1 0x1F DUP4 ADD PUSH1 0x5 SHR DUP3 ADD DUP2 LT PUSH2 0x327F JUMPI POP POP PUSH2 0x2F9D JUMP JUMPDEST PUSH1 0x0 DUP2 SSTORE PUSH1 0x1 ADD PUSH2 0x3269 JUMP JUMPDEST POP DUP1 PUSH2 0x3269 JUMP JUMPDEST ADD MLOAD SWAP1 POP DUP8 DUP1 PUSH2 0x2E91 JUMP JUMPDEST SWAP3 POP DUP5 PUSH1 0x0 MSTORE PUSH1 0x20 PUSH1 0x0 KECCAK256 SWAP1 PUSH1 0x0 SWAP4 JUMPDEST PUSH1 0x1F NOT DUP5 AND DUP6 LT PUSH2 0x32EE JUMPI PUSH1 0x1 SWAP5 POP DUP4 PUSH1 0x1F NOT DUP2 AND LT PUSH2 0x32D5 JUMPI JUMPDEST POP POP POP DUP2 SHL ADD DUP3 SSTORE PUSH2 0x2EA6 JUMP JUMPDEST ADD MLOAD PUSH1 0x0 NOT PUSH1 0xF8 DUP5 PUSH1 0x3 SHL AND SHR NOT AND SWAP1 SSTORE DUP8 DUP1 DUP1 PUSH2 0x32C8 JUMP JUMPDEST DUP2 DUP2 ADD MLOAD DUP4 SSTORE PUSH1 0x20 SWAP5 DUP6 ADD SWAP5 PUSH1 0x1 SWAP1 SWAP4 ADD SWAP3 SWAP1 SWAP2 ADD SWAP1 PUSH2 0x32AD JUMP JUMPDEST SWAP1 SWAP2 POP DUP5 PUSH1 0x0 MSTORE PUSH1 0x20 PUSH1 0x0 KECCAK256 PUSH1 0x1F DUP5 ADD PUSH1 0x5 SHR DUP2 ADD PUSH1 0x20 DUP6 LT PUSH2 0x3352 JUMPI JUMPDEST SWAP1 DUP5 SWAP4 SWAP3 SWAP2 JUMPDEST PUSH1 0x1F DUP4 ADD PUSH1 0x5 SHR DUP3 ADD DUP2 LT PUSH2 0x3343 JUMPI POP POP PUSH2 0x2E7A JUMP JUMPDEST PUSH1 0x0 DUP2 SSTORE DUP6 SWAP5 POP PUSH1 0x1 ADD PUSH2 0x332D JUMP JUMPDEST POP DUP1 PUSH2 0x3327 JUMP JUMPDEST PUSH1 0x40 MLOAD PUSH2 0x3365 DUP2 PUSH2 0x38EB JUMP JUMPDEST PUSH1 0x0 DUP2 MSTORE SWAP5 PUSH2 0x2D3D JUMP JUMPDEST PUSH4 0x4E487B71 PUSH1 0xE0 SHL PUSH1 0x0 MSTORE PUSH1 0x11 PUSH1 0x4 MSTORE PUSH1 0x24 PUSH1 0x0 REVERT JUMPDEST PUSH1 0x0 SWAP7 POP SWAP4 SWAP2 PUSH1 0x5 DUP9 MOD PUSH1 0x1 SUB PUSH2 0x33B6 JUMPI PUSH1 0x28 DUP2 ADD DUP1 SWAP2 GT PUSH2 0x336F JUMPI SWAP2 PUSH1 0x14 DUP2 ADD DUP2 GT PUSH2 0x336F JUMPI PUSH1 0x14 ADD SWAP4 JUMPDEST PUSH2 0x2B07 JUMP JUMPDEST SWAP2 SWAP4 SWAP5 SWAP3 SWAP6 POP PUSH1 0x0 SWAP6 PUSH1 0x2 PUSH1 0x5 DUP10 MOD EQ PUSH1 0x0 EQ PUSH2 0x33EE JUMPI PUSH1 0x32 DUP2 ADD DUP1 SWAP2 GT PUSH2 0x336F JUMPI SWAP3 DUP1 PUSH1 0x9 NOT DUP2 ADD GT PUSH2 0x336F JUMPI PUSH1 0x9 NOT ADD SWAP5 PUSH2 0x2B07 JUMP JUMPDEST PUSH1 0x0 SWAP7 POP SWAP3 SWAP5 PUSH1 0x5 DUP9 MOD PUSH1 0x3 SUB PUSH2 0x3420 JUMPI PUSH1 0x28 DUP2 ADD DUP1 SWAP2 GT PUSH2 0x336F JUMPI SWAP1 DUP1 PUSH1 0x13 NOT DUP2 ADD GT PUSH2 0x336F JUMPI PUSH1 0x13 NOT ADD SWAP1 PUSH2 0x2B07 JUMP JUMPDEST PUSH1 0x0 SWAP7 POP PUSH1 0x3 NOT PUSH1 0x5 DUP10 MOD ADD PUSH2 0x33B1 JUMPI SWAP2 SWAP5 SWAP1 PUSH1 0x28 DUP2 ADD DUP1 SWAP2 GT PUSH2 0x336F JUMPI SWAP1 PUSH1 0x1E DUP2 ADD DUP1 SWAP2 GT PUSH2 0x336F JUMPI SWAP5 DUP1 PUSH1 0x13 NOT DUP2 ADD GT PUSH2 0x336F JUMPI PUSH1 0x13 NOT ADD SWAP2 PUSH2 0x2B07 JUMP JUMPDEST PUSH2 0x2EE DUP2 LT ISZERO PUSH2 0x3473 JUMPI POP PUSH1 0x1 SWAP2 PUSH2 0x2A4A JUMP JUMPDEST PUSH2 0x384 DUP2 LT ISZERO PUSH2 0x3486 JUMPI POP PUSH1 0x2 SWAP2 PUSH2 0x2A4A JUMP JUMPDEST PUSH2 0x3CA DUP2 LT ISZERO PUSH2 0x3499 JUMPI POP PUSH1 0x3 SWAP2 PUSH2 0x2A4A JUMP JUMPDEST PUSH2 0x3E3 GT ISZERO PUSH2 0x34AA JUMPI PUSH1 0x4 SWAP2 PUSH2 0x2A4A JUMP JUMPDEST PUSH1 0x5 SWAP2 PUSH2 0x2A4A JUMP JUMPDEST CALLVALUE PUSH2 0x1AC JUMPI PUSH1 0x40 CALLDATASIZE PUSH1 0x3 NOT ADD SLT PUSH2 0x1AC JUMPI PUSH2 0x34CB PUSH2 0x37BA JUMP JUMPDEST PUSH1 0x24 CALLDATALOAD SWAP1 PUSH1 0x1 PUSH1 0x1 PUSH1 0xA0 SHL SUB DUP1 DUP1 PUSH2 0x34E2 DUP6 PUSH2 0x3BAD JUMP JUMPDEST AND SWAP3 AND SWAP2 DUP1 DUP4 EQ PUSH2 0x35DD JUMPI DUP1 CALLER EQ SWAP1 DUP2 ISZERO PUSH2 0x35B8 JUMPI JUMPDEST POP ISZERO PUSH2 0x354D JUMPI PUSH1 0x0 DUP4 DUP2 MSTORE PUSH1 0x4 PUSH1 0x20 MSTORE PUSH1 0x40 SWAP1 KECCAK256 DUP1 SLOAD PUSH1 0x1 PUSH1 0x1 PUSH1 0xA0 SHL SUB NOT AND DUP4 OR SWAP1 SSTORE PUSH2 0x3525 DUP4 PUSH2 0x3BAD JUMP JUMPDEST AND PUSH32 0x8C5BE1E5EBEC7D5BD14F71427D1E84F3DD0314C0F7B2291E5B200AC8C7C3B925 PUSH1 0x0 DUP1 LOG4 STOP JUMPDEST PUSH1 0x40 MLOAD PUSH3 0x461BCD PUSH1 0xE5 SHL DUP2 MSTORE PUSH1 0x20 PUSH1 0x4 DUP3 ADD MSTORE PUSH1 0x3D PUSH1 0x24 DUP3 ADD MSTORE PUSH32 0x4552433732313A20617070726F76652063616C6C6572206973206E6F7420746F PUSH1 0x44 DUP3 ADD MSTORE PUSH32 0x6B656E206F776E6572206F7220617070726F76656420666F7220616C6C000000 PUSH1 0x64 DUP3 ADD MSTORE PUSH1 0x84 SWAP1 REVERT JUMPDEST SWAP1 POP PUSH1 0x0 MSTORE PUSH1 0x5 PUSH1 0x20 MSTORE PUSH1 0x40 PUSH1 0x0 KECCAK256 CALLER PUSH1 0x0 MSTORE PUSH1 0x20 MSTORE PUSH1 0xFF PUSH1 0x40 PUSH1 0x0 KECCAK256 SLOAD AND DUP5 PUSH2 0x34F8 JUMP JUMPDEST PUSH1 0x40 MLOAD PUSH3 0x461BCD PUSH1 0xE5 SHL DUP2 MSTORE PUSH1 0x20 PUSH1 0x4 DUP3 ADD MSTORE PUSH1 0x21 PUSH1 0x24 DUP3 ADD MSTORE PUSH32 0x4552433732313A20617070726F76616C20746F2063757272656E74206F776E65 PUSH1 0x44 DUP3 ADD MSTORE PUSH1 0x39 PUSH1 0xF9 SHL PUSH1 0x64 DUP3 ADD MSTORE PUSH1 0x84 SWAP1 REVERT JUMPDEST CALLVALUE PUSH2 0x1AC JUMPI PUSH1 0x20 CALLDATASIZE PUSH1 0x3 NOT ADD SLT PUSH2 0x1AC JUMPI PUSH1 0x20 PUSH2 0x1FCA PUSH1 0x4 CALLDATALOAD PUSH2 0x3BD3 JUMP JUMPDEST CALLVALUE PUSH2 0x1AC JUMPI PUSH1 0x0 CALLDATASIZE PUSH1 0x3 NOT ADD SLT PUSH2 0x1AC JUMPI PUSH1 0x40 MLOAD PUSH1 0x0 DUP1 SLOAD PUSH2 0x366B DUP2 PUSH2 0x3844 JUMP JUMPDEST DUP1 DUP5 MSTORE SWAP1 PUSH1 0x1 SWAP1 DUP2 DUP2 AND SWAP1 DUP2 ISZERO PUSH2 0x1E95 JUMPI POP PUSH1 0x1 EQ PUSH2 0x3694 JUMPI PUSH2 0x16BA DUP5 PUSH2 0x1E28 DUP2 DUP7 SUB DUP3 PUSH2 0x393C JUMP JUMPDEST PUSH1 0x0 DUP1 DUP1 MSTORE SWAP3 POP PUSH32 0x290DECD9548B62A8D60345A988386FC84BA6BC95484008F6362F93160EF3E563 JUMPDEST DUP3 DUP5 LT PUSH2 0x36D5 JUMPI POP POP POP DUP2 ADD PUSH1 0x20 ADD PUSH2 0x1E28 DUP3 PUSH2 0x1E18 JUMP JUMPDEST DUP1 SLOAD PUSH1 0x20 DUP6 DUP8 ADD DUP2 ADD SWAP2 SWAP1 SWAP2 MSTORE SWAP1 SWAP4 ADD SWAP3 DUP2 ADD PUSH2 0x36BD JUMP JUMPDEST CALLVALUE PUSH2 0x1AC JUMPI PUSH1 0x20 CALLDATASIZE PUSH1 0x3 NOT ADD SLT PUSH2 0x1AC JUMPI PUSH1 0x4 CALLDATALOAD SWAP1 PUSH4 0xFFFFFFFF PUSH1 0xE0 SHL DUP3 AND DUP1 SWAP3 SUB PUSH2 0x1AC JUMPI PUSH1 0x20 SWAP2 PUSH4 0x780E9D63 PUSH1 0xE0 SHL DUP2 EQ SWAP1 DUP2 ISZERO PUSH2 0x372F JUMPI JUMPDEST POP ISZERO ISZERO DUP2 MSTORE RETURN JUMPDEST PUSH4 0x80AC58CD PUSH1 0xE0 SHL DUP2 EQ SWAP2 POP DUP2 ISZERO PUSH2 0x3761 JUMPI JUMPDEST DUP2 ISZERO PUSH2 0x3750 JUMPI JUMPDEST POP DUP4 PUSH2 0x3728 JUMP JUMPDEST PUSH4 0x1FFC9A7 PUSH1 0xE0 SHL EQ SWAP1 POP DUP4 PUSH2 0x3749 JUMP JUMPDEST PUSH4 0x5B5E139F PUSH1 0xE0 SHL DUP2 EQ SWAP2 POP PUSH2 0x3742 JUMP JUMPDEST PUSH1 0x0 JUMPDEST DUP4 DUP2 LT PUSH2 0x3785 JUMPI POP POP PUSH1 0x0 SWAP2 ADD MSTORE JUMP JUMPDEST DUP2 DUP2 ADD MLOAD DUP4 DUP3 ADD MSTORE PUSH1 0x20 ADD PUSH2 0x3775 JUMP JUMPDEST SWAP1 PUSH1 0x20 SWAP2 PUSH2 0x37AE DUP2 MLOAD DUP1 SWAP3 DUP2 DUP6 MSTORE DUP6 DUP1 DUP7 ADD SWAP2 ADD PUSH2 0x3772 JUMP JUMPDEST PUSH1 0x1F ADD PUSH1 0x1F NOT AND ADD ADD SWAP1 JUMP JUMPDEST PUSH1 0x4 CALLDATALOAD SWAP1 PUSH1 0x1 PUSH1 0x1 PUSH1 0xA0 SHL SUB DUP3 AND DUP3 SUB PUSH2 0x1AC JUMPI JUMP JUMPDEST PUSH1 0x24 CALLDATALOAD SWAP1 PUSH1 0x1 PUSH1 0x1 PUSH1 0xA0 SHL SUB DUP3 AND DUP3 SUB PUSH2 0x1AC JUMPI JUMP JUMPDEST SWAP1 PUSH1 0x5 DUP3 LT ISZERO PUSH2 0x16BE JUMPI MSTORE JUMP JUMPDEST SWAP1 PUSH1 0x6 DUP3 LT ISZERO PUSH2 0x16BE JUMPI MSTORE JUMP JUMPDEST PUSH1 0x60 SWAP1 PUSH1 0x3 NOT ADD SLT PUSH2 0x1AC JUMPI PUSH1 0x1 PUSH1 0x1 PUSH1 0xA0 SHL SUB SWAP1 PUSH1 0x4 CALLDATALOAD DUP3 DUP2 AND DUP2 SUB PUSH2 0x1AC JUMPI SWAP2 PUSH1 0x24 CALLDATALOAD SWAP1 DUP2 AND DUP2 SUB PUSH2 0x1AC JUMPI SWAP1 PUSH1 0x44 CALLDATALOAD SWAP1 JUMP JUMPDEST PUSH1 0x24 CALLDATALOAD SWAP1 DUP2 ISZERO ISZERO DUP3 SUB PUSH2 0x1AC JUMPI JUMP JUMPDEST SWAP1 PUSH1 0x1 DUP3 DUP2 SHR SWAP3 AND DUP1 ISZERO PUSH2 0x3874 JUMPI JUMPDEST PUSH1 0x20 DUP4 LT EQ PUSH2 0x385E JUMPI JUMP JUMPDEST PUSH4 0x4E487B71 PUSH1 0xE0 SHL PUSH1 0x0 MSTORE PUSH1 0x22 PUSH1 0x4 MSTORE PUSH1 0x24 PUSH1 0x0 REVERT JUMPDEST SWAP2 PUSH1 0x7F AND SWAP2 PUSH2 0x3853 JUMP JUMPDEST PUSH1 0xC0 DUP2 ADD SWAP1 DUP2 LT PUSH1 0x1 PUSH1 0x1 PUSH1 0x40 SHL SUB DUP3 GT OR PUSH2 0x1B8E JUMPI PUSH1 0x40 MSTORE JUMP JUMPDEST PUSH1 0xA0 DUP2 ADD SWAP1 DUP2 LT PUSH1 0x1 PUSH1 0x1 PUSH1 0x40 SHL SUB DUP3 GT OR PUSH2 0x1B8E JUMPI PUSH1 0x40 MSTORE JUMP JUMPDEST PUSH2 0x1A0 DUP2 ADD SWAP1 DUP2 LT PUSH1 0x1 PUSH1 0x1 PUSH1 0x40 SHL SUB DUP3 GT OR PUSH2 0x1B8E JUMPI PUSH1 0x40 MSTORE JUMP JUMPDEST PUSH1 0x40 DUP2 ADD SWAP1 DUP2 LT PUSH1 0x1 PUSH1 0x1 PUSH1 0x40 SHL SUB DUP3 GT OR PUSH2 0x1B8E JUMPI PUSH1 0x40 MSTORE JUMP JUMPDEST PUSH1 0x20 DUP2 ADD SWAP1 DUP2 LT PUSH1 0x1 PUSH1 0x1 PUSH1 0x40 SHL SUB DUP3 GT OR PUSH2 0x1B8E JUMPI PUSH1 0x40 MSTORE JUMP JUMPDEST PUSH1 0x60 DUP2 ADD SWAP1 DUP2 LT PUSH1 0x1 PUSH1 0x1 PUSH1 0x40 SHL SUB DUP3 GT OR PUSH2 0x1B8E JUMPI PUSH1 0x40 MSTORE JUMP JUMPDEST PUSH1 0xE0 DUP2 ADD SWAP1 DUP2 LT PUSH1 0x1 PUSH1 0x1 PUSH1 0x40 SHL SUB DUP3 GT OR PUSH2 0x1B8E JUMPI PUSH1 0x40 MSTORE JUMP JUMPDEST SWAP1 PUSH1 0x1F DUP1 NOT SWAP2 ADD AND DUP2 ADD SWAP1 DUP2 LT PUSH1 0x1 PUSH1 0x1 PUSH1 0x40 SHL SUB DUP3 GT OR PUSH2 0x1B8E JUMPI PUSH1 0x40 MSTORE JUMP JUMPDEST SWAP1 PUSH1 0x40 MLOAD SWAP2 DUP3 PUSH1 0x0 DUP3 SLOAD SWAP3 PUSH2 0x3971 DUP5 PUSH2 0x3844 JUMP JUMPDEST SWAP1 DUP2 DUP5 MSTORE PUSH1 0x1 SWAP5 DUP6 DUP2 AND SWAP1 DUP2 PUSH1 0x0 EQ PUSH2 0x39E0 JUMPI POP PUSH1 0x1 EQ PUSH2 0x399D JUMPI JUMPDEST POP POP PUSH2 0x399B SWAP3 POP SUB DUP4 PUSH2 0x393C JUMP JUMPDEST JUMP JUMPDEST SWAP1 SWAP4 SWAP2 POP PUSH1 0x0 MSTORE PUSH1 0x20 SWAP1 DUP2 PUSH1 0x0 KECCAK256 SWAP4 PUSH1 0x0 SWAP2 JUMPDEST DUP2 DUP4 LT PUSH2 0x39C8 JUMPI POP POP PUSH2 0x399B SWAP4 POP DUP3 ADD ADD CODESIZE DUP1 PUSH2 0x398D JUMP JUMPDEST DUP6 SLOAD DUP9 DUP5 ADD DUP6 ADD MSTORE SWAP5 DUP6 ADD SWAP5 DUP8 SWAP5 POP SWAP2 DUP4 ADD SWAP2 PUSH2 0x39B0 JUMP JUMPDEST SWAP2 POP POP PUSH2 0x399B SWAP5 POP PUSH1 0x20 SWAP3 POP PUSH1 0xFF NOT AND DUP3 DUP5 ADD MSTORE ISZERO ISZERO PUSH1 0x5 SHL DUP3 ADD ADD CODESIZE DUP1 PUSH2 0x398D JUMP JUMPDEST SWAP1 PUSH1 0x40 MLOAD PUSH2 0x3A10 DUP2 PUSH2 0x387E JUMP JUMPDEST PUSH1 0xA0 PUSH1 0x5 DUP3 SWAP5 DUP1 SLOAD DUP5 MSTORE PUSH1 0x1 DUP2 ADD SLOAD PUSH1 0x20 DUP6 ADD MSTORE PUSH1 0x2 DUP2 ADD SLOAD PUSH1 0x40 DUP6 ADD MSTORE PUSH1 0x3 DUP2 ADD SLOAD PUSH1 0x60 DUP6 ADD MSTORE PUSH1 0x4 DUP2 ADD SLOAD PUSH1 0x80 DUP6 ADD MSTORE ADD SLOAD SWAP2 ADD MSTORE JUMP JUMPDEST DUP1 SLOAD DUP3 LT ISZERO PUSH2 0x3A61 JUMPI PUSH1 0x0 MSTORE PUSH1 0x20 PUSH1 0x0 KECCAK256 ADD SWAP1 PUSH1 0x0 SWAP1 JUMP JUMPDEST PUSH4 0x4E487B71 PUSH1 0xE0 SHL PUSH1 0x0 MSTORE PUSH1 0x32 PUSH1 0x4 MSTORE PUSH1 0x24 PUSH1 0x0 REVERT JUMPDEST PUSH1 0x1 PUSH1 0x1 PUSH1 0x40 SHL SUB DUP2 GT PUSH2 0x1B8E JUMPI PUSH1 0x1F ADD PUSH1 0x1F NOT AND PUSH1 0x20 ADD SWAP1 JUMP JUMPDEST PUSH1 0xA SLOAD PUSH1 0x1 PUSH1 0x1 PUSH1 0xA0 SHL SUB AND CALLER SUB PUSH2 0x3AA6 JUMPI JUMP JUMPDEST PUSH1 0x64 PUSH1 0x40 MLOAD PUSH3 0x461BCD PUSH1 0xE5 SHL DUP2 MSTORE PUSH1 0x20 PUSH1 0x4 DUP3 ADD MSTORE PUSH1 0x20 PUSH1 0x24 DUP3 ADD MSTORE PUSH32 0x4F776E61626C653A2063616C6C6572206973206E6F7420746865206F776E6572 PUSH1 0x44 DUP3 ADD MSTORE REVERT JUMPDEST PUSH1 0x1 PUSH1 0x1 PUSH1 0xA0 SHL SUB AND DUP1 ISZERO PUSH2 0x3B0A JUMPI PUSH1 0x0 MSTORE PUSH1 0x3 PUSH1 0x20 MSTORE PUSH1 0x40 PUSH1 0x0 KECCAK256 SLOAD SWAP1 JUMP JUMPDEST PUSH1 0x40 MLOAD PUSH3 0x461BCD PUSH1 0xE5 SHL DUP2 MSTORE PUSH1 0x20 PUSH1 0x4 DUP3 ADD MSTORE PUSH1 0x29 PUSH1 0x24 DUP3 ADD MSTORE PUSH32 0x4552433732313A2061646472657373207A65726F206973206E6F742061207661 PUSH1 0x44 DUP3 ADD MSTORE PUSH9 0x3634B21037BBB732B9 PUSH1 0xB9 SHL PUSH1 0x64 DUP3 ADD MSTORE PUSH1 0x84 SWAP1 REVERT JUMPDEST ISZERO PUSH2 0x3B68 JUMPI JUMP JUMPDEST PUSH1 0x40 MLOAD PUSH3 0x461BCD PUSH1 0xE5 SHL DUP2 MSTORE PUSH1 0x20 PUSH1 0x4 DUP3 ADD MSTORE PUSH1 0x18 PUSH1 0x24 DUP3 ADD MSTORE PUSH32 0x4552433732313A20696E76616C696420746F6B656E2049440000000000000000 PUSH1 0x44 DUP3 ADD MSTORE PUSH1 0x64 SWAP1 REVERT JUMPDEST PUSH1 0x0 SWAP1 DUP2 MSTORE PUSH1 0x2 PUSH1 0x20 MSTORE PUSH1 0x40 SWAP1 KECCAK256 SLOAD PUSH1 0x1 PUSH1 0x1 PUSH1 0xA0 SHL SUB AND PUSH2 0x3BD0 DUP2 ISZERO ISZERO PUSH2 0x3B61 JUMP JUMPDEST SWAP1 JUMP JUMPDEST PUSH1 0x0 DUP2 DUP2 MSTORE PUSH1 0x2 PUSH1 0x20 MSTORE PUSH1 0x40 SWAP1 KECCAK256 SLOAD PUSH2 0x3BF6 SWAP1 PUSH1 0x1 PUSH1 0x1 PUSH1 0xA0 SHL SUB AND ISZERO ISZERO PUSH2 0x3B61 JUMP JUMPDEST PUSH1 0x0 SWAP1 DUP2 MSTORE PUSH1 0x4 PUSH1 0x20 MSTORE PUSH1 0x40 SWAP1 KECCAK256 SLOAD PUSH1 0x1 PUSH1 0x1 PUSH1 0xA0 SHL SUB AND SWAP1 JUMP JUMPDEST ISZERO PUSH2 0x3C18 JUMPI JUMP JUMPDEST PUSH1 0x40 MLOAD PUSH3 0x461BCD PUSH1 0xE5 SHL DUP2 MSTORE PUSH1 0x20 PUSH1 0x4 DUP3 ADD MSTORE PUSH1 0x2D PUSH1 0x24 DUP3 ADD MSTORE PUSH32 0x4552433732313A2063616C6C6572206973206E6F7420746F6B656E206F776E65 PUSH1 0x44 DUP3 ADD MSTORE PUSH13 0x1C881BDC88185C1C1C9BDD9959 PUSH1 0x9A SHL PUSH1 0x64 DUP3 ADD MSTORE PUSH1 0x84 SWAP1 REVERT JUMPDEST PUSH1 0x80 SWAP1 PUSH1 0x20 DUP2 MSTORE PUSH1 0x32 PUSH1 0x20 DUP3 ADD MSTORE PUSH32 0x4552433732313A207472616E7366657220746F206E6F6E204552433732315265 PUSH1 0x40 DUP3 ADD MSTORE PUSH18 0x31B2B4BB32B91034B6B83632B6B2B73A32B9 PUSH1 0x71 SHL PUSH1 0x60 DUP3 ADD MSTORE ADD SWAP1 JUMP JUMPDEST ISZERO PUSH2 0x3CCD JUMPI JUMP JUMPDEST PUSH1 0x40 MLOAD PUSH3 0x461BCD PUSH1 0xE5 SHL DUP2 MSTORE DUP1 PUSH2 0x3CE6 PUSH1 0x4 DUP3 ADD PUSH2 0x3C73 JUMP JUMPDEST SUB SWAP1 REVERT JUMPDEST SWAP1 PUSH1 0x1 PUSH1 0x1 PUSH1 0xA0 SHL SUB DUP1 DUP1 PUSH2 0x3CFE DUP5 PUSH2 0x3BAD JUMP JUMPDEST AND SWAP4 AND SWAP2 DUP4 DUP4 EQ SWAP4 DUP5 ISZERO PUSH2 0x3D31 JUMPI JUMPDEST POP DUP4 ISZERO PUSH2 0x3D1B JUMPI JUMPDEST POP POP POP SWAP1 JUMP JUMPDEST PUSH2 0x3D27 SWAP2 SWAP3 SWAP4 POP PUSH2 0x3BD3 JUMP JUMPDEST AND EQ CODESIZE DUP1 DUP1 PUSH2 0x3D15 JUMP JUMPDEST SWAP1 SWAP4 POP PUSH1 0x0 MSTORE PUSH1 0x5 PUSH1 0x20 MSTORE PUSH1 0x40 PUSH1 0x0 KECCAK256 DUP3 PUSH1 0x0 MSTORE PUSH1 0x20 MSTORE PUSH1 0xFF PUSH1 0x40 PUSH1 0x0 KECCAK256 SLOAD AND SWAP3 CODESIZE PUSH2 0x3D0D JUMP JUMPDEST ISZERO PUSH2 0x3D5F JUMPI JUMP JUMPDEST PUSH1 0x40 MLOAD PUSH3 0x461BCD PUSH1 0xE5 SHL DUP2 MSTORE PUSH1 0x20 PUSH1 0x4 DUP3 ADD MSTORE PUSH1 0x25 PUSH1 0x24 DUP3 ADD MSTORE PUSH32 0x4552433732313A207472616E736665722066726F6D20696E636F727265637420 PUSH1 0x44 DUP3 ADD MSTORE PUSH5 0x37BBB732B9 PUSH1 0xD9 SHL PUSH1 0x64 DUP3 ADD MSTORE PUSH1 0x84 SWAP1 REVERT JUMPDEST PUSH2 0x3DD6 SWAP2 PUSH2 0x3DBF DUP5 PUSH2 0x3BAD JUMP JUMPDEST PUSH1 0x1 PUSH1 0x1 PUSH1 0xA0 SHL SUB SWAP4 DUP5 DUP5 AND SWAP4 SWAP2 DUP6 AND DUP5 EQ PUSH2 0x3D58 JUMP JUMPDEST DUP4 DUP3 AND SWAP4 DUP5 ISZERO PUSH2 0x3F71 JUMPI DUP4 SWAP2 DUP3 PUSH2 0x3ECE JUMPI POP PUSH2 0x3E20 SWAP3 PUSH1 0x8 SLOAD DUP8 PUSH1 0x0 MSTORE PUSH1 0x9 PUSH1 0x20 MSTORE PUSH1 0x40 PUSH1 0x0 KECCAK256 SSTORE PUSH2 0x3E07 DUP8 PUSH2 0x41C2 JUMP JUMPDEST DUP3 DUP7 SUB PUSH2 0x3E9B JUMPI JUMPDEST POP PUSH2 0x3E19 DUP7 PUSH2 0x3BAD JUMP JUMPDEST AND EQ PUSH2 0x3D58 JUMP JUMPDEST PUSH32 0xDDF252AD1BE2C89B69C2B068FC378DAA952BA7F163C4A11628F55A4DF523B3EF PUSH1 0x0 DUP5 DUP2 MSTORE PUSH1 0x4 PUSH1 0x20 MSTORE PUSH1 0x40 DUP2 KECCAK256 PUSH1 0x1 PUSH1 0x1 PUSH1 0x60 SHL SUB PUSH1 0xA0 SHL SWAP1 DUP2 DUP2 SLOAD AND SWAP1 SSTORE DUP4 DUP3 MSTORE PUSH1 0x3 PUSH1 0x20 MSTORE PUSH1 0x40 DUP3 KECCAK256 PUSH1 0x0 NOT DUP2 SLOAD ADD SWAP1 SSTORE DUP5 DUP3 MSTORE PUSH1 0x40 DUP3 KECCAK256 PUSH1 0x1 DUP2 SLOAD ADD SWAP1 SSTORE DUP6 DUP3 MSTORE PUSH1 0x2 PUSH1 0x20 MSTORE DUP5 PUSH1 0x40 DUP4 KECCAK256 SWAP2 DUP3 SLOAD AND OR SWAP1 SSTORE DUP1 LOG4 JUMP JUMPDEST PUSH2 0x3EA4 SWAP1 PUSH2 0x3AEA JUMP JUMPDEST PUSH1 0x40 PUSH1 0x0 DUP8 DUP2 MSTORE PUSH1 0x6 PUSH1 0x20 MSTORE DUP2 DUP2 KECCAK256 DUP4 DUP3 MSTORE PUSH1 0x20 MSTORE DUP9 DUP3 DUP3 KECCAK256 SSTORE DUP9 DUP2 MSTORE PUSH1 0x7 PUSH1 0x20 MSTORE KECCAK256 SSTORE CODESIZE PUSH2 0x3E0F JUMP JUMPDEST DUP6 DUP4 SUB PUSH2 0x3EE0 JUMPI JUMPDEST POP PUSH2 0x3E20 SWAP3 PUSH2 0x3E07 JUMP JUMPDEST PUSH2 0x3EEB SWAP2 SWAP3 POP PUSH2 0x3AEA JUMP JUMPDEST PUSH1 0x0 NOT DUP2 ADD SWAP2 SWAP1 DUP3 GT PUSH2 0x336F JUMPI PUSH2 0x3E20 SWAP3 DUP5 SWAP3 PUSH1 0x0 SWAP1 DUP9 DUP3 MSTORE PUSH1 0x20 SWAP1 PUSH1 0x7 DUP3 MSTORE PUSH1 0x40 SWAP2 DUP3 DUP5 KECCAK256 SLOAD DUP3 DUP2 SUB PUSH2 0x3F3A JUMPI JUMPDEST POP DUP11 DUP5 MSTORE DUP4 DUP4 DUP2 KECCAK256 SSTORE DUP7 DUP5 MSTORE PUSH1 0x6 DUP2 MSTORE DUP3 DUP5 KECCAK256 SWAP2 DUP5 MSTORE MSTORE DUP2 KECCAK256 SSTORE SWAP3 PUSH2 0x3ED6 JUMP JUMPDEST DUP8 DUP6 MSTORE PUSH1 0x6 DUP3 MSTORE DUP4 DUP6 KECCAK256 DUP4 DUP7 MSTORE DUP3 MSTORE DUP4 DUP6 KECCAK256 SLOAD DUP9 DUP7 MSTORE PUSH1 0x6 DUP4 MSTORE DUP5 DUP7 KECCAK256 DUP3 DUP8 MSTORE DUP4 MSTORE DUP1 DUP6 DUP8 KECCAK256 SSTORE DUP6 MSTORE PUSH1 0x7 DUP3 MSTORE DUP4 DUP6 KECCAK256 SSTORE CODESIZE PUSH2 0x3F1A JUMP JUMPDEST PUSH1 0x40 MLOAD PUSH3 0x461BCD PUSH1 0xE5 SHL DUP2 MSTORE PUSH1 0x20 PUSH1 0x4 DUP3 ADD MSTORE PUSH1 0x24 DUP1 DUP3 ADD MSTORE PUSH32 0x4552433732313A207472616E7366657220746F20746865207A65726F20616464 PUSH1 0x44 DUP3 ADD MSTORE PUSH4 0x72657373 PUSH1 0xE0 SHL PUSH1 0x64 DUP3 ADD MSTORE PUSH1 0x84 SWAP1 REVERT JUMPDEST SWAP2 SWAP3 SWAP1 SWAP2 DUP1 EXTCODESIZE ISZERO PUSH2 0x40D7 JUMPI PUSH2 0x400F SWAP4 PUSH1 0x40 MLOAD SWAP1 DUP2 PUSH4 0xA85BD01 PUSH1 0xE1 SHL SWAP4 DUP5 DUP3 MSTORE CALLER PUSH1 0x4 DUP4 ADD MSTORE PUSH1 0x0 SWAP7 DUP8 PUSH1 0x24 DUP5 ADD MSTORE PUSH1 0x44 DUP4 ADD MSTORE PUSH1 0x80 PUSH1 0x64 DUP4 ADD MSTORE DUP2 DUP8 DUP2 PUSH1 0x20 SWAP11 DUP12 SWAP7 PUSH1 0x84 DUP4 ADD SWAP1 PUSH2 0x3795 JUMP JUMPDEST SUB SWAP3 PUSH1 0x1 PUSH1 0x1 PUSH1 0xA0 SHL SUB AND GAS CALL DUP5 SWAP2 DUP2 PUSH2 0x4093 JUMPI JUMPDEST POP PUSH2 0x4082 JUMPI POP POP POP RETURNDATASIZE PUSH1 0x0 EQ PUSH2 0x407A JUMPI RETURNDATASIZE PUSH2 0x403E DUP2 PUSH2 0x3A77 JUMP JUMPDEST SWAP1 PUSH2 0x404C PUSH1 0x40 MLOAD SWAP3 DUP4 PUSH2 0x393C JUMP JUMPDEST DUP2 MSTORE DUP1 SWAP2 DUP4 RETURNDATASIZE SWAP3 ADD RETURNDATACOPY JUMPDEST DUP1 MLOAD SWAP2 DUP3 PUSH2 0x4077 JUMPI PUSH1 0x40 MLOAD PUSH3 0x461BCD PUSH1 0xE5 SHL DUP2 MSTORE DUP1 PUSH2 0x3CE6 PUSH1 0x4 DUP3 ADD PUSH2 0x3C73 JUMP JUMPDEST ADD REVERT JUMPDEST POP PUSH1 0x60 PUSH2 0x4056 JUMP JUMPDEST PUSH1 0x1 PUSH1 0x1 PUSH1 0xE0 SHL SUB NOT AND EQ SWAP3 POP SWAP1 POP JUMP JUMPDEST SWAP1 SWAP2 POP DUP6 DUP2 DUP2 RETURNDATASIZE DUP4 GT PUSH2 0x40D0 JUMPI JUMPDEST PUSH2 0x40AB DUP2 DUP4 PUSH2 0x393C JUMP JUMPDEST DUP2 ADD SUB SLT PUSH2 0x40CC JUMPI MLOAD PUSH1 0x1 PUSH1 0x1 PUSH1 0xE0 SHL SUB NOT DUP2 AND DUP2 SUB PUSH2 0x40CC JUMPI SWAP1 CODESIZE PUSH2 0x4024 JUMP JUMPDEST DUP5 DUP1 REVERT JUMPDEST POP RETURNDATASIZE PUSH2 0x40A1 JUMP JUMPDEST POP SWAP2 POP POP PUSH1 0x1 SWAP1 JUMP JUMPDEST SWAP3 SWAP4 SWAP2 SWAP1 DUP1 EXTCODESIZE ISZERO PUSH2 0x415D JUMPI PUSH2 0x4132 SWAP5 PUSH1 0x40 MLOAD DUP1 SWAP3 PUSH4 0xA85BD01 PUSH1 0xE1 SHL SWAP5 DUP6 DUP4 MSTORE CALLER PUSH1 0x4 DUP5 ADD MSTORE PUSH1 0x1 DUP1 PUSH1 0xA0 SHL SUB DUP1 SWAP9 AND PUSH1 0x24 DUP5 ADD MSTORE PUSH1 0x44 DUP4 ADD MSTORE PUSH1 0x80 PUSH1 0x64 DUP4 ADD MSTORE DUP2 DUP1 PUSH1 0x20 SWAP10 DUP11 SWAP6 PUSH1 0x84 DUP4 ADD SWAP1 PUSH2 0x3795 JUMP JUMPDEST SUB SWAP2 PUSH1 0x0 SWAP9 DUP10 SWAP2 AND GAS CALL DUP5 SWAP2 DUP2 PUSH2 0x4093 JUMPI POP PUSH2 0x4082 JUMPI POP POP POP RETURNDATASIZE PUSH1 0x0 EQ PUSH2 0x407A JUMPI RETURNDATASIZE PUSH2 0x403E DUP2 PUSH2 0x3A77 JUMP JUMPDEST POP POP SWAP2 POP POP PUSH1 0x1 SWAP1 JUMP JUMPDEST ISZERO PUSH2 0x416E JUMPI JUMP JUMPDEST PUSH1 0x40 MLOAD PUSH3 0x461BCD PUSH1 0xE5 SHL DUP2 MSTORE PUSH1 0x20 PUSH1 0x4 DUP3 ADD MSTORE PUSH1 0x14 PUSH1 0x24 DUP3 ADD MSTORE PUSH20 0x125B9CDD59999A58DA595B9D081C185E5B595B9D PUSH1 0x62 SHL PUSH1 0x44 DUP3 ADD MSTORE PUSH1 0x64 SWAP1 REVERT JUMPDEST PUSH1 0x5 DUP3 LT ISZERO PUSH2 0x16BE JUMPI MSTORE JUMP JUMPDEST PUSH1 0x6 DUP3 LT ISZERO PUSH2 0x16BE JUMPI MSTORE JUMP JUMPDEST PUSH1 0x8 SLOAD PUSH1 0x1 PUSH1 0x40 SHL DUP2 LT ISZERO PUSH2 0x1B8E JUMPI PUSH1 0x1 DUP2 ADD DUP1 PUSH1 0x8 SSTORE DUP2 LT ISZERO PUSH2 0x3A61 JUMPI PUSH1 0x8 PUSH1 0x0 MSTORE PUSH32 0xF3F7A9FE364FAAB93B216DA50A3214154F22A0A2B415B23A84C8169E8B636EE3 ADD SSTORE JUMP JUMPDEST ISZERO PUSH2 0x4211 JUMPI JUMP JUMPDEST PUSH1 0x40 MLOAD PUSH3 0x461BCD PUSH1 0xE5 SHL DUP2 MSTORE PUSH1 0x20 PUSH1 0x4 DUP3 ADD MSTORE PUSH1 0x1C PUSH1 0x24 DUP3 ADD MSTORE PUSH32 0x4552433732313A20746F6B656E20616C7265616479206D696E74656400000000 PUSH1 0x44 DUP3 ADD MSTORE PUSH1 0x64 SWAP1 REVERT JUMPDEST PUSH1 0x40 MLOAD SWAP1 PUSH2 0x4263 DUP3 PUSH2 0x387E JUMP JUMPDEST DUP2 PUSH1 0xA0 PUSH1 0x0 SWAP2 DUP3 DUP2 MSTORE DUP3 PUSH1 0x20 DUP3 ADD MSTORE DUP3 PUSH1 0x40 DUP3 ADD MSTORE DUP3 PUSH1 0x60 DUP3 ADD MSTORE DUP3 PUSH1 0x80 DUP3 ADD MSTORE ADD MSTORE JUMP JUMPDEST SWAP2 SWAP1 DUP3 ADD DUP1 SWAP3 GT PUSH2 0x336F JUMPI JUMP JUMPDEST SWAP1 PUSH1 0x6 DUP2 LT ISZERO PUSH2 0x3A61 JUMPI PUSH1 0x5 SHL ADD SWAP1 JUMP JUMPDEST PUSH1 0x40 MLOAD SWAP1 PUSH2 0x42B3 DUP3 PUSH2 0x38D0 JUMP JUMPDEST PUSH1 0x7 DUP3 MSTORE PUSH7 0x2BB0B93934B7B9 PUSH1 0xC9 SHL PUSH1 0x20 DUP4 ADD MSTORE JUMP JUMPDEST PUSH1 0x40 MLOAD SWAP1 PUSH2 0x42D6 DUP3 PUSH2 0x38D0 JUMP JUMPDEST PUSH1 0x8 DUP3 MSTORE PUSH8 0x20B9B9B0B9B9B4B7 PUSH1 0xC1 SHL PUSH1 0x20 DUP4 ADD MSTORE JUMP JUMPDEST PUSH1 0x40 MLOAD SWAP1 PUSH2 0x42FA DUP3 PUSH2 0x38D0 JUMP JUMPDEST PUSH1 0x4 DUP3 MSTORE PUSH4 0x4D616765 PUSH1 0xE0 SHL PUSH1 0x20 DUP4 ADD MSTORE JUMP JUMPDEST PUSH1 0x40 MLOAD SWAP1 PUSH2 0x431A DUP3 PUSH2 0x38D0 JUMP JUMPDEST PUSH1 0x9 DUP3 MSTORE PUSH9 0x2132B939B2B935B2B9 PUSH1 0xB9 SHL PUSH1 0x20 DUP4 ADD MSTORE JUMP JUMPDEST PUSH1 0x40 MLOAD SWAP1 PUSH2 0x433F DUP3 PUSH2 0x38D0 JUMP JUMPDEST PUSH1 0x8 DUP3 MSTORE PUSH8 0x23BAB0B93234B0B7 PUSH1 0xC1 SHL PUSH1 0x20 DUP4 ADD MSTORE JUMP JUMPDEST PUSH1 0x40 MLOAD SWAP1 PUSH2 0x4363 DUP3 PUSH2 0x38D0 JUMP JUMPDEST PUSH1 0x4 DUP3 MSTORE PUSH4 0x52617265 PUSH1 0xE0 SHL PUSH1 0x20 DUP4 ADD MSTORE JUMP JUMPDEST PUSH1 0x40 MLOAD SWAP1 PUSH2 0x4383 DUP3 PUSH2 0x38D0 JUMP JUMPDEST PUSH1 0x4 DUP3 MSTORE PUSH4 0x45706963 PUSH1 0xE0 SHL PUSH1 0x20 DUP4 ADD MSTORE JUMP JUMPDEST PUSH1 0x40 MLOAD SWAP1 PUSH2 0x43A3 DUP3 PUSH2 0x38D0 JUMP JUMPDEST PUSH1 0x9 DUP3 MSTORE PUSH9 0x4C6567656E64617279 PUSH1 0xB8 SHL PUSH1 0x20 DUP4 ADD MSTORE JUMP JUMPDEST PUSH1 0x40 MLOAD SWAP1 PUSH2 0x43C8 DUP3 PUSH2 0x38D0 JUMP JUMPDEST PUSH1 0x6 DUP3 MSTORE PUSH6 0x4D7974686963 PUSH1 0xD0 SHL PUSH1 0x20 DUP4 ADD MSTORE JUMP JUMPDEST SWAP1 PUSH1 0x5 DUP2 LT ISZERO PUSH2 0x3A61 JUMPI PUSH1 0x5 SHL ADD SWAP1 JUMP JUMPDEST SWAP1 PUSH2 0x43F8 DUP3 PUSH2 0x3A77 JUMP JUMPDEST PUSH2 0x4405 PUSH1 0x40 MLOAD SWAP2 DUP3 PUSH2 0x393C JUMP JUMPDEST DUP3 DUP2 MSTORE DUP1 SWAP3 PUSH2 0x4416 PUSH1 0x1F NOT SWAP2 PUSH2 0x3A77 JUMP JUMPDEST ADD SWAP1 PUSH1 0x20 CALLDATASIZE SWAP2 ADD CALLDATACOPY JUMP JUMPDEST DUP1 PUSH1 0x0 SWAP2 PUSH27 0x184F03E93FF9F4DAA797ED6E38ED64BF6A1F010000000000000000 DUP1 DUP3 LT ISZERO PUSH2 0x4555 JUMPI JUMPDEST POP PUSH14 0x4EE2D6D415B85ACEF8100000000 DUP1 DUP4 LT ISZERO PUSH2 0x4546 JUMPI JUMPDEST POP PUSH7 0x2386F26FC10000 DUP1 DUP4 LT ISZERO PUSH2 0x4537 JUMPI JUMPDEST POP PUSH4 0x5F5E100 DUP1 DUP4 LT ISZERO PUSH2 0x4528 JUMPI JUMPDEST POP PUSH2 0x2710 DUP1 DUP4 LT ISZERO PUSH2 0x4519 JUMPI JUMPDEST POP PUSH1 0x64 DUP3 LT ISZERO PUSH2 0x4509 JUMPI JUMPDEST PUSH1 0xA DUP1 SWAP3 LT ISZERO PUSH2 0x44FF JUMPI JUMPDEST PUSH1 0x1 SWAP1 DUP2 PUSH1 0x21 PUSH2 0x44B7 DUP3 DUP8 ADD PUSH2 0x43EE JUMP JUMPDEST SWAP6 DUP7 ADD ADD SWAP1 JUMPDEST PUSH2 0x44C9 JUMPI JUMPDEST POP POP POP POP SWAP1 JUMP JUMPDEST PUSH1 0x0 NOT ADD SWAP1 DUP4 SWAP1 PUSH16 0x181899199A1A9B1B9C1CB0B131B232B3 PUSH1 0x81 SHL DUP3 DUP3 MOD BYTE DUP4 MSTORE8 DIV SWAP2 DUP3 ISZERO PUSH2 0x44FA JUMPI SWAP2 SWAP1 DUP3 PUSH2 0x44BD JUMP JUMPDEST PUSH2 0x44C2 JUMP JUMPDEST SWAP2 PUSH1 0x1 ADD SWAP2 PUSH2 0x44A6 JUMP JUMPDEST SWAP2 SWAP1 PUSH1 0x64 PUSH1 0x2 SWAP2 DIV SWAP2 ADD SWAP2 PUSH2 0x449B JUMP JUMPDEST PUSH1 0x4 SWAP2 SWAP4 SWAP3 DIV SWAP2 ADD SWAP2 CODESIZE PUSH2 0x4490 JUMP JUMPDEST PUSH1 0x8 SWAP2 SWAP4 SWAP3 DIV SWAP2 ADD SWAP2 CODESIZE PUSH2 0x4483 JUMP JUMPDEST PUSH1 0x10 SWAP2 SWAP4 SWAP3 DIV SWAP2 ADD SWAP2 CODESIZE PUSH2 0x4474 JUMP JUMPDEST PUSH1 0x20 SWAP2 SWAP4 SWAP3 DIV SWAP2 ADD SWAP2 CODESIZE PUSH2 0x4462 JUMP JUMPDEST PUSH1 0x40 SWAP4 POP DUP2 DIV SWAP2 POP CODESIZE PUSH2 0x4449 JUMP JUMPDEST ISZERO PUSH2 0x456A JUMPI JUMP JUMPDEST PUSH1 0x40 MLOAD PUSH3 0x461BCD PUSH1 0xE5 SHL DUP2 MSTORE PUSH1 0x20 PUSH1 0x4 DUP3 ADD MSTORE PUSH1 0xD PUSH1 0x24 DUP3 ADD MSTORE PUSH13 0x2737BA103A34329037BBB732B9 PUSH1 0x99 SHL PUSH1 0x44 DUP3 ADD MSTORE PUSH1 0x64 SWAP1 REVERT JUMPDEST PUSH1 0x0 NOT DUP2 EQ PUSH2 0x336F JUMPI PUSH1 0x1 ADD SWAP1 JUMP JUMPDEST DUP1 MLOAD ISZERO PUSH2 0x46EE JUMPI PUSH1 0x40 MLOAD SWAP1 PUSH2 0x45C2 DUP3 PUSH2 0x3906 JUMP JUMPDEST PUSH1 0x40 DUP3 MSTORE PUSH32 0x4142434445464748494A4B4C4D4E4F505152535455565758595A616263646566 PUSH1 0x20 DUP4 ADD MSTORE PUSH32 0x6768696A6B6C6D6E6F707172737475767778797A303132333435363738392B2F PUSH1 0x40 DUP4 ADD MSTORE DUP1 MLOAD PUSH1 0x2 SWAP2 DUP3 DUP3 ADD DUP1 SWAP3 GT PUSH2 0x336F JUMPI PUSH1 0x3 SWAP2 DUP3 SWAP1 DIV PUSH1 0x1 PUSH1 0x1 PUSH1 0xFE SHL SUB DUP2 AND DUP2 SUB PUSH2 0x336F JUMPI PUSH2 0x4644 SWAP1 DUP5 SWAP6 SWAP5 SHL PUSH2 0x43EE JUMP JUMPDEST SWAP4 PUSH1 0x20 DUP6 ADD SWAP4 DUP3 SWAP2 DUP4 MLOAD DUP5 ADD SWAP1 PUSH1 0x20 DUP3 ADD SWAP3 DUP4 MLOAD SWAP5 PUSH1 0x0 DUP6 MSTORE JUMPDEST DUP4 DUP2 LT PUSH2 0x469D JUMPI POP POP POP POP MSTORE MLOAD MOD DUP1 PUSH1 0x1 EQ PUSH2 0x468A JUMPI PUSH1 0x2 EQ PUSH2 0x467F JUMPI POP SWAP1 JUMP JUMPDEST PUSH1 0x3D SWAP1 PUSH1 0x0 NOT ADD MSTORE8 SWAP1 JUMP JUMPDEST POP PUSH1 0x3D SWAP1 DUP2 PUSH1 0x0 NOT DUP3 ADD MSTORE8 PUSH1 0x1 NOT ADD MSTORE8 SWAP1 JUMP JUMPDEST DUP8 PUSH1 0x4 SWAP2 SWAP10 SWAP3 SWAP4 SWAP5 SWAP10 ADD SWAP2 DUP3 MLOAD PUSH1 0x1 SWAP1 PUSH1 0x3F SWAP1 DUP3 DUP3 DUP3 PUSH1 0x12 SHR AND DUP9 ADD ADD MLOAD DUP5 MSTORE8 DUP3 DUP3 DUP3 PUSH1 0xC SHR AND DUP9 ADD ADD MLOAD DUP4 DUP6 ADD MSTORE8 DUP3 DUP3 DUP3 PUSH1 0x6 SHR AND DUP9 ADD ADD MLOAD DUP9 DUP6 ADD MSTORE8 AND DUP6 ADD ADD MLOAD DUP10 DUP3 ADD MSTORE8 ADD SWAP8 SWAP3 SWAP2 SWAP1 PUSH2 0x465E JUMP JUMPDEST POP PUSH1 0x40 MLOAD PUSH2 0x46FB DUP2 PUSH2 0x38EB JUMP JUMPDEST PUSH1 0x0 DUP2 MSTORE SWAP1 JUMP JUMPDEST PUSH1 0x40 MLOAD SWAP1 PUSH2 0x470F DUP3 PUSH2 0x38D0 JUMP JUMPDEST PUSH1 0x6 DUP3 MSTORE PUSH6 0x21B7B6B6B7B7 PUSH1 0xD1 SHL PUSH1 0x20 DUP4 ADD MSTORE JUMP JUMPDEST PUSH1 0x40 MLOAD SWAP1 PUSH2 0x4731 DUP3 PUSH2 0x38D0 JUMP JUMPDEST PUSH1 0x8 DUP3 MSTORE PUSH8 0x2AB731B7B6B6B7B7 PUSH1 0xC1 SHL PUSH1 0x20 DUP4 ADD MSTORE JUMP JUMPDEST PUSH32 0x3C72616469616C4772616469656E742069643D22626F6479222063783D223530 DUP2 MSTORE PUSH20 0x12911031BC9E911A18129110391E911B1812911F PUSH1 0x61 SHL PUSH1 0x20 DUP3 ADD MSTORE PUSH1 0x34 ADD SWAP1 JUMP JUMPDEST PUSH1 0x4 DUP2 LT PUSH2 0x4876 JUMPI POP PUSH1 0x40 MLOAD PUSH2 0x47A3 DUP2 PUSH2 0x3921 JUMP JUMPDEST PUSH1 0xA5 DUP2 MSTORE PUSH32 0x3C66696C7465722069643D22676C6F77223E3C6665476175737369616E426C75 PUSH1 0x20 DUP3 ADD MSTORE PUSH32 0x7220737464446576696174696F6E3D22362220726573756C743D22636F6C6F72 PUSH1 0x40 DUP3 ADD MSTORE PUSH32 0x6564426C7572222F3E3C66654D657267653E3C66654D657267654E6F64652069 PUSH1 0x60 DUP3 ADD MSTORE PUSH32 0x6E3D22636F6C6F726564426C7572222F3E3C66654D657267654E6F646520696E PUSH1 0x80 DUP3 ADD MSTORE PUSH32 0x3D22536F7572636547726170686963222F3E3C2F66654D657267653E3C2F6669 PUSH1 0xA0 DUP3 ADD MSTORE PUSH5 0x363A32B91F PUSH1 0xD9 SHL PUSH1 0xC0 DUP3 ADD MSTORE SWAP1 JUMP JUMPDEST PUSH1 0x2 GT ISZERO PUSH2 0x488A JUMPI PUSH1 0x40 MLOAD PUSH2 0x46FB DUP2 PUSH2 0x38EB JUMP JUMPDEST PUSH1 0x40 MLOAD PUSH2 0x4896 DUP2 PUSH2 0x3921 JUMP JUMPDEST PUSH1 0xA5 DUP2 MSTORE PUSH32 0x3C66696C7465722069643D22676C6F77223E3C6665476175737369616E426C75 PUSH1 0x20 DUP3 ADD MSTORE PUSH32 0x7220737464446576696174696F6E3D22332220726573756C743D22636F6C6F72 PUSH1 0x40 DUP3 ADD MSTORE PUSH32 0x6564426C7572222F3E3C66654D657267653E3C66654D657267654E6F64652069 PUSH1 0x60 DUP3 ADD MSTORE PUSH32 0x6E3D22636F6C6F726564426C7572222F3E3C66654D657267654E6F646520696E PUSH1 0x80 DUP3 ADD MSTORE PUSH32 0x3D22536F7572636547726170686963222F3E3C2F66654D657267653E3C2F6669 PUSH1 0xA0 DUP3 ADD MSTORE PUSH5 0x363A32B91F PUSH1 0xD9 SHL PUSH1 0xC0 DUP3 ADD MSTORE SWAP1 JUMP JUMPDEST PUSH1 0x40 DUP1 SWAP2 ADD MLOAD PUSH1 0x2 DUP2 LT ISZERO PUSH2 0x4983 JUMPI POP MLOAD PUSH2 0x46FB DUP2 PUSH2 0x38EB JUMP JUMPDEST PUSH32 0x22207374726F6B652D77696474683D223222206F7061636974793D22302E3422 SWAP2 PUSH2 0x3BD0 SWAP2 PUSH2 0x186 SWAP2 SWAP1 PUSH1 0x5 DUP2 LT PUSH2 0x4BF8 JUMPI POP DUP1 MLOAD PUSH2 0x49C2 DUP2 PUSH2 0x38D0 JUMP JUMPDEST PUSH1 0x7 DUP2 MSTORE PUSH7 0x2346464437303 PUSH1 0xCC SHL PUSH1 0x20 DUP3 ADD MSTORE SWAP1 JUMPDEST DUP1 MLOAD SWAP5 DUP6 SWAP3 PUSH32 0x3C636972636C652063783D22323030222063793D223230302220723D22313330 PUSH1 0x20 DUP6 ADD MSTORE PUSH8 0x11103334B6361E91 PUSH1 0xC1 SHL DUP1 SWAP4 DUP6 ADD MSTORE DUP1 MLOAD SWAP3 PUSH1 0x20 DUP3 ADD SWAP4 PUSH2 0x4A2A DUP2 PUSH1 0x48 DUP9 ADD DUP8 PUSH2 0x3772 JUMP JUMPDEST DUP6 ADD PUSH18 0x111037B830B1B4BA3C9E911817189A91179F PUSH1 0x71 SHL PUSH1 0x48 DUP3 ADD MSTORE PUSH32 0x3C636972636C652063783D22323030222063793D223230302220723D22313230 PUSH1 0x5A DUP3 ADD MSTORE DUP2 PUSH1 0x7A DUP3 ADD MSTORE DUP3 MLOAD SWAP1 PUSH2 0x4A84 DUP3 PUSH1 0x82 DUP4 ADD DUP9 PUSH2 0x3772 JUMP JUMPDEST ADD SWAP1 PUSH17 0x111037B830B1B4BA3C9E9118171891179F PUSH1 0x79 SHL PUSH1 0x82 DUP4 ADD MSTORE PUSH32 0x3C636972636C652063783D22323030222063793D223230302220723D22313130 PUSH1 0x93 DUP4 ADD MSTORE PUSH1 0xB3 DUP3 ADD MSTORE DUP2 MLOAD SWAP1 PUSH2 0x4ADC DUP3 PUSH1 0xBB DUP4 ADD DUP8 PUSH2 0x3772 JUMP JUMPDEST ADD SWAP1 PUSH18 0x111037B830B1B4BA3C9E911817181C11179F PUSH1 0x71 SHL PUSH1 0xBB DUP4 ADD MSTORE PUSH32 0x3C636972636C652063783D22323030222063793D223230302220723D22313235 PUSH1 0xCD DUP4 ADD MSTORE PUSH22 0x11103334B6361E913737B732911039BA3937B5B29E91 PUSH1 0x51 SHL PUSH1 0xED DUP4 ADD MSTORE MLOAD SWAP1 PUSH2 0x4B51 DUP3 PUSH2 0x103 SWAP6 DUP7 DUP5 ADD SWAP1 PUSH2 0x3772 JUMP JUMPDEST ADD SWAP2 DUP3 ADD MSTORE PUSH1 0x1F PUSH1 0xF9 SHL PUSH2 0x123 DUP3 ADD MSTORE PUSH32 0x3C616E696D617465206174747269627574654E616D653D226F70616369747922 PUSH2 0x124 DUP3 ADD MSTORE PUSH32 0x2076616C7565733D22302E323B302E363B302E3222206475723D223373222072 PUSH2 0x144 DUP3 ADD MSTORE PUSH32 0x6570656174436F756E743D22696E646566696E697465222F3E00000000000000 PUSH2 0x164 DUP3 ADD MSTORE PUSH9 0x1E17B1B4B931B6329F PUSH1 0xB9 SHL PUSH2 0x17D DUP3 ADD MSTORE SUB PUSH2 0x166 DUP2 ADD DUP5 MSTORE ADD DUP3 PUSH2 0x393C JUMP JUMPDEST PUSH1 0x4 DUP2 LT PUSH2 0x4C26 JUMPI POP DUP1 MLOAD PUSH2 0x4C0C DUP2 PUSH2 0x38D0 JUMP JUMPDEST PUSH1 0x7 DUP2 MSTORE PUSH7 0x8D9998D988E59 PUSH1 0xCA SHL PUSH1 0x20 DUP3 ADD MSTORE SWAP1 PUSH2 0x49D8 JUMP JUMPDEST PUSH1 0x3 GT PUSH2 0x4C52 JUMPI DUP1 MLOAD PUSH2 0x4C38 DUP2 PUSH2 0x38D0 JUMP JUMPDEST PUSH1 0x7 DUP2 MSTORE PUSH7 0x23383336454639 PUSH1 0xC8 SHL PUSH1 0x20 DUP3 ADD MSTORE SWAP1 PUSH2 0x49D8 JUMP JUMPDEST DUP1 MLOAD PUSH2 0x4C5D DUP2 PUSH2 0x38D0 JUMP JUMPDEST PUSH1 0x7 DUP2 MSTORE PUSH7 0x8D04C0C0D4D51 PUSH1 0xCA SHL PUSH1 0x20 DUP3 ADD MSTORE SWAP1 PUSH2 0x49D8 JUMP JUMPDEST PUSH1 0x40 MLOAD SWAP1 PUSH2 0x4C84 DUP3 PUSH2 0x38D0 JUMP JUMPDEST PUSH1 0x14 DUP3 MSTORE PUSH20 0x103334B63A32B91E913AB9361411B3B637BB9491 PUSH1 0x61 SHL PUSH1 0x20 DUP4 ADD MSTORE JUMP JUMPDEST PUSH1 0x40 MLOAD SWAP1 PUSH2 0x4CB4 DUP3 PUSH2 0x38D0 JUMP JUMPDEST PUSH1 0x1F DUP3 MSTORE PUSH32 0x207374726F6B653D222330303022207374726F6B652D77696474683D22332200 PUSH1 0x20 DUP4 ADD MSTORE JUMP JUMPDEST PUSH1 0x40 SWAP1 PUSH1 0x2 DUP3 DUP3 ADD MLOAD LT ISZERO PUSH1 0x0 SWAP1 PUSH1 0x0 EQ PUSH2 0x4E8F JUMPI POP PUSH2 0x4CFE PUSH2 0x4C77 JUMP JUMPDEST SWAP1 JUMPDEST PUSH2 0x4D08 PUSH2 0x4CA7 JUMP JUMPDEST PUSH1 0x20 DUP1 SWAP3 ADD MLOAD DUP1 ISZERO SWAP1 DUP2 ISZERO PUSH2 0x4E84 JUMPI JUMPDEST DUP2 ISZERO PUSH2 0x4E79 JUMPI JUMPDEST DUP2 ISZERO PUSH2 0x4E6E JUMPI JUMPDEST POP ISZERO PUSH2 0x4DC6 JUMPI SWAP3 PUSH2 0x3BD0 SWAP3 PUSH1 0x5E SWAP3 PUSH2 0x4DAC PUSH32 0x35222072793D223235222066696C6C3D2275726C2823626F6479292200000000 SWAP7 DUP5 MLOAD SWAP8 DUP9 SWAP6 PUSH32 0x3C656C6C697073652063783D22323030222063793D22323830222072783D2234 DUP6 DUP9 ADD MSTORE DUP7 ADD MSTORE PUSH2 0x4D99 DUP2 MLOAD DUP1 SWAP3 DUP6 PUSH1 0x5C DUP10 ADD SWAP2 ADD PUSH2 0x3772 JUMP JUMPDEST DUP5 ADD SWAP2 DUP4 MLOAD SWAP4 DUP5 SWAP2 PUSH1 0x5C DUP6 ADD SWAP2 ADD PUSH2 0x3772 JUMP JUMPDEST ADD PUSH2 0x179F PUSH1 0xF1 SHL PUSH1 0x5C DUP3 ADD MSTORE SUB PUSH1 0x3E DUP2 ADD DUP5 MSTORE ADD DUP3 PUSH2 0x393C JUMP JUMPDEST SWAP3 PUSH2 0x3BD0 SWAP3 PUSH1 0x67 SWAP3 PUSH2 0x4E54 PUSH32 0x206865696768743D223430222066696C6C3D2275726C2823626F647929222072 SWAP7 DUP5 MLOAD SWAP8 DUP9 SWAP6 PUSH32 0x3C7265637420783D223136302220793D22323630222077696474683D22383022 DUP6 DUP9 ADD MSTORE DUP7 ADD MSTORE PUSH5 0x3C1E911C11 PUSH1 0xD9 SHL PUSH1 0x60 DUP7 ADD MSTORE PUSH2 0x4E41 DUP2 MLOAD DUP1 SWAP3 DUP6 PUSH1 0x65 DUP10 ADD SWAP2 ADD PUSH2 0x3772 JUMP JUMPDEST DUP5 ADD SWAP2 DUP4 MLOAD SWAP4 DUP5 SWAP2 PUSH1 0x65 DUP6 ADD SWAP2 ADD PUSH2 0x3772 JUMP JUMPDEST ADD PUSH2 0x179F PUSH1 0xF1 SHL PUSH1 0x65 DUP3 ADD MSTORE SUB PUSH1 0x47 DUP2 ADD DUP5 MSTORE ADD DUP3 PUSH2 0x393C JUMP JUMPDEST PUSH1 0x3 SWAP2 POP EQ CODESIZE PUSH2 0x4D26 JUMP JUMPDEST PUSH1 0x2 DUP2 EQ SWAP2 POP PUSH2 0x4D1F JUMP JUMPDEST PUSH1 0x1 DUP2 EQ SWAP2 POP PUSH2 0x4D18 JUMP JUMPDEST DUP3 MLOAD SWAP1 PUSH2 0x4E9B DUP3 PUSH2 0x38EB JUMP JUMPDEST DUP2 MSTORE SWAP1 PUSH2 0x4D00 JUMP JUMPDEST PUSH1 0x40 DUP2 DUP2 ADD MLOAD PUSH1 0x0 SWAP1 PUSH1 0x2 GT PUSH2 0x5044 JUMPI POP PUSH2 0x4EBC PUSH2 0x4C77 JUMP JUMPDEST PUSH2 0x4EC4 PUSH2 0x4CA7 JUMP JUMPDEST SWAP3 PUSH1 0x20 DUP1 SWAP2 ADD MLOAD DUP1 ISZERO SWAP1 DUP2 ISZERO PUSH2 0x5039 JUMPI JUMPDEST DUP2 ISZERO PUSH2 0x502E JUMPI JUMPDEST DUP2 ISZERO PUSH2 0x5023 JUMPI JUMPDEST POP ISZERO PUSH2 0x4F78 JUMPI SWAP2 PUSH1 0x54 SWAP2 PUSH2 0x3BD0 SWAP4 PUSH2 0x4F5E DUP4 MLOAD SWAP7 DUP8 SWAP5 PUSH32 0x3C636972636C652063783D22323030222063793D223138302220723D22363522 DUP5 DUP8 ADD MSTORE PUSH18 0x103334B6361E913AB9361411B137B23C9491 PUSH1 0x71 SHL SWAP1 DUP7 ADD MSTORE PUSH2 0x4F4B DUP2 MLOAD DUP1 SWAP3 DUP6 PUSH1 0x52 DUP10 ADD SWAP2 ADD PUSH2 0x3772 JUMP JUMPDEST DUP5 ADD SWAP2 DUP4 MLOAD SWAP4 DUP5 SWAP2 PUSH1 0x52 DUP6 ADD SWAP2 ADD PUSH2 0x3772 JUMP JUMPDEST ADD PUSH2 0x179F PUSH1 0xF1 SHL PUSH1 0x52 DUP3 ADD MSTORE SUB PUSH1 0x34 DUP2 ADD DUP5 MSTORE ADD DUP3 PUSH2 0x393C JUMP JUMPDEST SWAP2 PUSH1 0x6A SWAP2 PUSH2 0x3BD0 SWAP4 PUSH2 0x5009 PUSH32 0x22206865696768743D22313230222066696C6C3D2275726C2823626F64792922 SWAP7 DUP5 MLOAD SWAP8 DUP9 SWAP6 PUSH32 0x3C7265637420783D223134302220793D22313230222077696474683D22313230 DUP6 DUP9 ADD MSTORE DUP7 ADD MSTORE PUSH8 0x10393C1E91191811 PUSH1 0xC1 SHL PUSH1 0x60 DUP7 ADD MSTORE PUSH2 0x4FF6 DUP2 MLOAD DUP1 SWAP3 DUP6 PUSH1 0x68 DUP10 ADD SWAP2 ADD PUSH2 0x3772 JUMP JUMPDEST DUP5 ADD SWAP2 DUP4 MLOAD SWAP4 DUP5 SWAP2 PUSH1 0x68 DUP6 ADD SWAP2 ADD PUSH2 0x3772 JUMP JUMPDEST ADD PUSH2 0x179F PUSH1 0xF1 SHL PUSH1 0x68 DUP3 ADD MSTORE SUB PUSH1 0x4A DUP2 ADD DUP5 MSTORE ADD DUP3 PUSH2 0x393C JUMP JUMPDEST PUSH1 0x3 SWAP2 POP EQ CODESIZE PUSH2 0x4EE3 JUMP JUMPDEST PUSH1 0x2 DUP2 EQ SWAP2 POP PUSH2 0x4EDC JUMP JUMPDEST PUSH1 0x1 DUP2 EQ SWAP2 POP PUSH2 0x4ED5 JUMP JUMPDEST DUP2 MLOAD SWAP1 PUSH2 0x5050 DUP3 PUSH2 0x38EB JUMP JUMPDEST DUP2 MSTORE PUSH2 0x4EBC JUMP JUMPDEST PUSH32 0x3C636972636C652063783D22313735222063793D223136352220723D22313822 DUP2 MSTORE PUSH32 0x2066696C6C3D222346464646464622207374726F6B653D222330303022207374 PUSH1 0x20 DUP3 ADD MSTORE PUSH16 0x3937B5B296BBB4B23A341E911911179F PUSH1 0x81 SHL PUSH1 0x40 DUP3 ADD MSTORE PUSH1 0x50 ADD SWAP1 JUMP JUMPDEST PUSH1 0x20 ADD MLOAD PUSH1 0x4 SUB PUSH2 0x5357 JUMPI PUSH1 0x40 MLOAD PUSH2 0x3BD0 PUSH1 0x39 DUP3 PUSH2 0x5304 PUSH2 0x52B5 PUSH2 0x5266 PUSH2 0x5224 PUSH2 0x51E2 PUSH2 0x519F PUSH2 0x515C PUSH2 0x50F4 PUSH1 0x20 DUP10 ADD PUSH2 0x5057 JUMP JUMPDEST PUSH32 0x3C636972636C652063783D22323235222063793D223136352220723D22313822 DUP2 MSTORE PUSH32 0x2066696C6C3D222346464646464622207374726F6B653D222330303022207374 PUSH1 0x20 DUP3 ADD MSTORE PUSH16 0x3937B5B296BBB4B23A341E911911179F PUSH1 0x81 SHL PUSH1 0x40 DUP3 ADD MSTORE PUSH1 0x50 ADD SWAP1 JUMP JUMPDEST PUSH32 0x3C636972636C652063783D22313735222063793D223136352220723D22313022 DUP2 MSTORE PUSH17 0x103334B6361E911198181818181811179F PUSH1 0x79 SHL PUSH1 0x20 DUP3 ADD MSTORE PUSH1 0x31 ADD SWAP1 JUMP JUMPDEST PUSH32 0x3C636972636C652063783D22323235222063793D223136352220723D22313022 DUP2 MSTORE PUSH17 0x103334B6361E911198181818181811179F PUSH1 0x79 SHL PUSH1 0x20 DUP3 ADD MSTORE PUSH1 0x31 ADD SWAP1 JUMP JUMPDEST PUSH32 0x3C636972636C652063783D22313738222063793D223136322220723D22332220 DUP2 MSTORE PUSH16 0x3334B6361E9111A3232323232311179F PUSH1 0x81 SHL PUSH1 0x20 DUP3 ADD MSTORE PUSH1 0x30 ADD SWAP1 JUMP JUMPDEST PUSH32 0x3C636972636C652063783D22323238222063793D223136322220723D22332220 DUP2 MSTORE PUSH16 0x3334B6361E9111A3232323232311179F PUSH1 0x81 SHL PUSH1 0x20 DUP3 ADD MSTORE PUSH1 0x30 ADD SWAP1 JUMP JUMPDEST PUSH32 0x3C636972636C652063783D22313830222063793D223136382220723D22312E35 DUP2 MSTORE PUSH32 0x222066696C6C3D222346464646464622206F7061636974793D22302E37222F3E PUSH1 0x20 DUP3 ADD MSTORE PUSH1 0x40 ADD SWAP1 JUMP JUMPDEST PUSH32 0x3C636972636C652063783D22323330222063793D223136382220723D22312E35 DUP2 MSTORE PUSH32 0x222066696C6C3D222346464646464622206F7061636974793D22302E37222F3E PUSH1 0x20 DUP3 ADD MSTORE PUSH1 0x40 ADD SWAP1 JUMP JUMPDEST PUSH32 0x3C656C6C697073652063783D22323030222063793D22313930222072783D2236 DUP2 MSTORE PUSH25 0x1110393C9E911A11103334B6361E911198181818181811179F PUSH1 0x39 SHL PUSH1 0x20 DUP3 ADD MSTORE SUB PUSH1 0x19 DUP2 ADD DUP5 MSTORE ADD DUP3 PUSH2 0x393C JUMP JUMPDEST PUSH1 0x40 MLOAD PUSH2 0x3BD0 PUSH1 0x39 DUP3 PUSH2 0x5381 PUSH2 0x52B5 PUSH2 0x5266 PUSH2 0x5224 PUSH2 0x51E2 PUSH2 0x519F PUSH2 0x515C PUSH2 0x50F4 PUSH1 0x20 DUP10 ADD PUSH2 0x5057 JUMP JUMPDEST PUSH32 0x3C656C6C697073652063783D22323030222063793D22323030222072783D2236 DUP2 MSTORE PUSH25 0x1110393C9E911A11103334B6361E911198181818181811179F PUSH1 0x39 SHL PUSH1 0x20 DUP3 ADD MSTORE SUB PUSH1 0x19 DUP2 ADD DUP5 MSTORE ADD DUP3 PUSH2 0x393C JUMP JUMPDEST PUSH1 0x20 SWAP1 DUP2 ADD MLOAD DUP1 PUSH2 0x54AC JUMPI POP PUSH32 0x3C7265637420783D223138352220793D22313130222077696474683D22333022 PUSH1 0x40 MLOAD SWAP2 DUP3 ADD MSTORE PUSH32 0x206865696768743D223132222066696C6C3D222338423435313322207374726F PUSH1 0x40 DUP3 ADD MSTORE PUSH32 0x6B653D222330303022207374726F6B652D77696474683D2231222072783D2233 PUSH1 0x60 DUP3 ADD MSTORE PUSH3 0x11179F PUSH1 0xE9 SHL PUSH1 0x80 DUP3 ADD MSTORE PUSH32 0x3C636972636C652063783D22323030222063793D223131362220723D22322220 PUSH1 0x83 DUP3 ADD MSTORE PUSH16 0x3334B6361E9111A323221B981811179F PUSH1 0x81 SHL PUSH1 0xA3 DUP3 ADD MSTORE PUSH1 0x93 DUP2 MSTORE PUSH2 0x3BD0 DUP2 PUSH2 0x387E JUMP JUMPDEST PUSH1 0x1 DUP2 SUB PUSH2 0x5569 JUMPI POP PUSH32 0x3C636972636C652063783D22323030222063793D223131352220723D22332220 PUSH1 0x40 MLOAD SWAP2 DUP3 ADD MSTORE PUSH32 0x66696C6C3D222332303030353222207374726F6B653D22233030302220737472 PUSH1 0x40 DUP3 ADD MSTORE PUSH15 0x37B5B296BBB4B23A341E911891179F PUSH1 0x89 SHL PUSH1 0x60 DUP3 ADD MSTORE PUSH32 0x3C636972636C652063783D22323030222063793D223131352220723D22312E35 PUSH1 0x6F DUP3 ADD MSTORE PUSH18 0x11103334B6361E9111A098181A9AA211179F PUSH1 0x71 SHL PUSH1 0x8F DUP3 ADD MSTORE PUSH1 0x81 DUP2 MSTORE PUSH2 0x3BD0 DUP2 PUSH2 0x387E JUMP JUMPDEST PUSH1 0x2 DUP2 SUB PUSH2 0x5630 JUMPI POP PUSH32 0x3C706F6C79676F6E20706F696E74733D223230302C313035203138382C313233 PUSH1 0x40 MLOAD SWAP2 DUP3 ADD MSTORE PUSH32 0x203231322C313233222066696C6C3D222334613930653222207374726F6B653D PUSH1 0x40 DUP3 ADD MSTORE PUSH25 0x1111981818111039BA3937B5B296BBB4B23A341E911891179F PUSH1 0x39 SHL PUSH1 0x60 DUP3 ADD MSTORE PUSH32 0x3C636972636C652063783D22323030222063793D223132302220723D22312E35 PUSH1 0x79 DUP3 ADD MSTORE PUSH18 0x11103334B6361E9111A323221B981811179F PUSH1 0x71 SHL PUSH1 0x99 DUP3 ADD MSTORE PUSH1 0x8B DUP2 MSTORE PUSH2 0x3BD0 DUP2 PUSH2 0x387E JUMP JUMPDEST PUSH1 0x3 SUB PUSH2 0x5706 JUMPI PUSH32 0x3C706F6C79676F6E20706F696E74733D223136352C313430203136382C313235 PUSH1 0x40 MLOAD SWAP2 DUP3 ADD MSTORE PUSH32 0x203137322C313430222066696C6C3D222365373463336322207374726F6B653D PUSH1 0x40 DUP3 ADD MSTORE PUSH25 0x1111981818111039BA3937B5B296BBB4B23A341E911891179F PUSH1 0x39 SHL DUP1 PUSH1 0x60 DUP4 ADD MSTORE PUSH32 0x3C706F6C79676F6E20706F696E74733D223232382C313430203233312C313235 PUSH1 0x79 DUP4 ADD MSTORE PUSH32 0x203233352C313430222066696C6C3D222365373463336322207374726F6B653D PUSH1 0x99 DUP4 ADD MSTORE PUSH1 0xB9 DUP3 ADD MSTORE PUSH1 0xB2 DUP2 MSTORE PUSH2 0x3BD0 DUP2 PUSH2 0x3921 JUMP JUMPDEST PUSH32 0x3C7265637420783D223139302220793D22313130222077696474683D22323022 PUSH1 0x40 MLOAD SWAP2 DUP3 ADD MSTORE PUSH32 0x206865696768743D2238222066696C6C3D222335613637643822207374726F6B PUSH1 0x40 DUP3 ADD MSTORE PUSH32 0x653D222330303022207374726F6B652D77696474683D2231222072783D223222 PUSH1 0x60 DUP3 ADD MSTORE PUSH2 0x179F PUSH1 0xF1 SHL PUSH1 0x80 DUP3 ADD MSTORE PUSH32 0x3C636972636C652063783D22323030222063793D223131342220723D22312E35 PUSH1 0x82 DUP3 ADD MSTORE PUSH18 0x11103334B6361E9111A323221B981811179F PUSH1 0x71 SHL PUSH1 0xA2 DUP3 ADD MSTORE PUSH1 0x94 DUP2 MSTORE PUSH2 0x3BD0 DUP2 PUSH2 0x387E JUMP JUMPDEST PUSH1 0x40 SWAP1 DUP2 ADD MLOAD PUSH1 0x5 DUP2 SUB PUSH2 0x59F6 JUMPI POP DUP1 MLOAD SWAP1 PUSH32 0x3C636972636C652063783D22313330222063793D223133302220723D22322220 PUSH1 0x20 DUP4 ADD MSTORE PUSH32 0x66696C6C3D222346464437303022206F7061636974793D22302E38223E000000 DUP2 DUP4 ADD MSTORE PUSH32 0x3C616E696D617465206174747269627574654E616D653D226F70616369747922 DUP1 PUSH1 0x5D DUP5 ADD MSTORE PUSH32 0x2076616C7565733D22303B313B3022206475723D223273222072657065617443 PUSH1 0x7D DUP5 ADD MSTORE PUSH19 0x37BAB73A1E9134B73232B334B734BA3291179F PUSH1 0x69 SHL PUSH1 0x9D DUP5 ADD MSTORE PUSH9 0x1E17B1B4B931B6329F PUSH1 0xB9 SHL SWAP1 DUP2 PUSH1 0xB0 DUP6 ADD MSTORE PUSH32 0x3C636972636C652063783D22323730222063793D223135302220723D22312E35 PUSH1 0xB9 DUP6 ADD MSTORE PUSH32 0x222066696C6C3D222346464437303022206F7061636974793D22302E36223E00 PUSH1 0xD9 DUP6 ADD MSTORE DUP1 PUSH1 0xF8 DUP6 ADD MSTORE PUSH32 0x2076616C7565733D22303B313B3022206475723D22312E357322207265706561 PUSH2 0x118 DUP6 ADD MSTORE PUSH21 0x3A21B7BAB73A1E9134B73232B334B734BA3291179F PUSH1 0x59 SHL SWAP1 DUP2 PUSH2 0x138 DUP7 ADD MSTORE DUP3 PUSH2 0x14D DUP7 ADD MSTORE PUSH32 0x3C636972636C652063783D22313530222063793D223238302220723D22322220 PUSH2 0x156 DUP7 ADD MSTORE PUSH32 0x66696C6C3D222346464437303022206F7061636974793D22302E37223E000000 PUSH2 0x176 DUP7 ADD MSTORE PUSH2 0x193 DUP6 ADD MSTORE PUSH32 0x2076616C7565733D22303B313B3022206475723D22322E357322207265706561 PUSH2 0x1B3 DUP6 ADD MSTORE PUSH2 0x1D3 DUP5 ADD MSTORE PUSH2 0x1E8 DUP4 ADD MSTORE PUSH2 0x1D1 DUP3 MSTORE PUSH2 0x200 DUP3 ADD SWAP1 DUP3 DUP3 LT PUSH1 0x1 PUSH1 0x1 PUSH1 0x40 SHL SUB DUP4 GT OR PUSH2 0x1B8E JUMPI MSTORE SWAP1 JUMP JUMPDEST PUSH1 0x4 DUP2 SUB PUSH2 0x5AF6 JUMPI POP PUSH32 0x2066696C6C3D226E6F6E6522207374726F6B653D222346464437303022207374 DUP2 MLOAD SWAP2 PUSH32 0x3C636972636C652063783D22323030222063793D223230302220723D22393022 PUSH1 0x20 DUP5 ADD MSTORE DUP3 ADD MSTORE PUSH32 0x726F6B652D77696474683D223222206F7061636974793D22302E34223E000000 PUSH1 0x60 DUP3 ADD MSTORE PUSH32 0x3C616E696D617465206174747269627574654E616D653D2272222076616C7565 PUSH1 0x7D DUP3 ADD MSTORE PUSH32 0x733D2238353B39353B383522206475723D2233732220726570656174436F756E PUSH1 0x9D DUP3 ADD MSTORE PUSH16 0x3A1E9134B73232B334B734BA3291179F PUSH1 0x81 SHL PUSH1 0xBD DUP3 ADD MSTORE PUSH9 0x1E17B1B4B931B6329F PUSH1 0xB9 SHL PUSH1 0xCD DUP3 ADD MSTORE PUSH1 0xB6 DUP2 MSTORE PUSH2 0x3BD0 DUP2 PUSH2 0x3921 JUMP JUMPDEST PUSH1 0x3 EQ PUSH2 0x5B07 JUMPI MLOAD PUSH2 0x46FB DUP2 PUSH2 0x38EB JUMP JUMPDEST PUSH32 0x2066696C6C3D226E6F6E6522207374726F6B653D222338333645463922207374 DUP2 MLOAD SWAP2 PUSH32 0x3C636972636C652063783D22323030222063793D223230302220723D22383522 PUSH1 0x20 DUP5 ADD MSTORE DUP3 ADD MSTORE PUSH32 0x726F6B652D77696474683D223122206F7061636974793D22302E33223E000000 PUSH1 0x60 DUP3 ADD MSTORE PUSH32 0x3C616E696D617465206174747269627574654E616D653D2272222076616C7565 PUSH1 0x7D DUP3 ADD MSTORE PUSH32 0x733D2238303B39303B383022206475723D2234732220726570656174436F756E PUSH1 0x9D DUP3 ADD MSTORE PUSH16 0x3A1E9134B73232B334B734BA3291179F PUSH1 0x81 SHL PUSH1 0xBD DUP3 ADD MSTORE PUSH9 0x1E17B1B4B931B6329F PUSH1 0xB9 SHL PUSH1 0xCD DUP3 ADD MSTORE PUSH1 0xB6 DUP2 MSTORE PUSH2 0x3BD0 DUP2 PUSH2 0x3921 JUMP JUMPDEST PUSH1 0x40 MLOAD SWAP1 PUSH2 0x5C0B DUP3 PUSH2 0x38D0 JUMP JUMPDEST PUSH1 0x7 DUP3 MSTORE PUSH7 0x2AB735B737BBB7 PUSH1 0xC9 SHL PUSH1 0x20 DUP4 ADD MSTORE JUMP JUMPDEST DUP1 ISZERO PUSH2 0x5C71 JUMPI PUSH1 0x1 DUP2 EQ PUSH2 0x5C68 JUMPI PUSH1 0x2 DUP2 EQ PUSH2 0x5C5F JUMPI PUSH1 0x3 DUP2 EQ PUSH2 0x5C56 JUMPI PUSH1 0x4 EQ PUSH2 0x5C4E JUMPI PUSH2 0x3BD0 PUSH2 0x5BFE JUMP JUMPDEST PUSH2 0x3BD0 PUSH2 0x4332 JUMP JUMPDEST POP PUSH2 0x3BD0 PUSH2 0x430D JUMP JUMPDEST POP PUSH2 0x3BD0 PUSH2 0x42ED JUMP JUMPDEST POP PUSH2 0x3BD0 PUSH2 0x42C9 JUMP JUMPDEST POP PUSH2 0x3BD0 PUSH2 0x42A6 JUMP JUMPDEST DUP1 ISZERO PUSH2 0x5CDB JUMPI PUSH1 0x1 DUP2 EQ PUSH2 0x5CD2 JUMPI PUSH1 0x2 DUP2 EQ PUSH2 0x5CC9 JUMPI PUSH1 0x3 DUP2 EQ PUSH2 0x5CC0 JUMPI PUSH1 0x4 DUP2 EQ PUSH2 0x5CB7 JUMPI PUSH1 0x5 EQ PUSH2 0x5CAF JUMPI PUSH2 0x3BD0 PUSH2 0x5BFE JUMP JUMPDEST PUSH2 0x3BD0 PUSH2 0x43BB JUMP JUMPDEST POP PUSH2 0x3BD0 PUSH2 0x4396 JUMP JUMPDEST POP PUSH2 0x3BD0 PUSH2 0x4376 JUMP JUMPDEST POP PUSH2 0x3BD0 PUSH2 0x4356 JUMP JUMPDEST POP PUSH2 0x3BD0 PUSH2 0x4724 JUMP JUMPDEST POP PUSH2 0x3BD0 PUSH2 0x4702 JUMP INVALID EXTCODECOPY PUSH20 0x746F70206F66667365743D22302522207374796C PUSH6 0x3D2273746F70 0x2D PUSH4 0x6F3C7374 PUSH16 0x70206F66667365743D22373025222073 PUSH21 0x796C653D2273746F702D633C73746F70206F666673 PUSH6 0x743D22313030 0x25 0x22 KECCAK256 PUSH20 0x74796C653D2273746F702DA26469706673582212 KECCAK256 GASLIMIT LOG4 0x21 0xDF PUSH15 0x78B4480FCB60206DEE464A73D775DC MSIZE SGT 0x2F 0xBA GT 0xE0 PUSH32 0x7882451C4B64736F6C6343000814003300000000000000000000000000000000 "},"methodIdentifiers":{"addExperience(uint256,uint256)":"5d240c58","approve(address,uint256)":"095ea7b3","balanceOf(address)":"70a08231","equipItems(uint256,uint256,uint256)":"5a6de6c6","getApproved(uint256)":"081812fc","getMonanimal(uint256)":"1a01da3f","getOwnerMonanimals(address)":"f2afec2f","healMonanimal(uint256)":"4f0fab16","healingPrice()":"9942f467","isApprovedForAll(address,address)":"e985e9c5","mint()":"1249c58b","mintPrice()":"6817c76c","monanimals(uint256)":"61f9f71f","name()":"06fdde03","owner()":"8da5cb5b","ownerMonanimals(address,uint256)":"aa66b47e","ownerOf(uint256)":"6352211e","renounceOwnership()":"715018a6","safeTransferFrom(address,address,uint256)":"42842e0e","safeTransferFrom(address,address,uint256,bytes)":"b88d4fde","setApprovalForAll(address,bool)":"a22cb465","setHealingPrice(uint256)":"894994c3","setMintPrice(uint256)":"f4a0a528","supportsInterface(bytes4)":"01ffc9a7","symbol()":"95d89b41","tokenByIndex(uint256)":"4f6ccce7","tokenOfOwnerByIndex(address,uint256)":"2f745c59","tokenURI(uint256)":"c87b56dd","totalSupply()":"18160ddd","transferFrom(address,address,uint256)":"23b872dd","transferOwnership(address)":"f2fde38b","updateBattleResult(uint256,bool)":"5f89525c","withdraw()":"3ccfd60b"}}}}}