{"contracts/TestSVGGenerator_Improved.sol":{"TestSVGGenerator_Improved":{"abi":[{"inputs":[{"internalType":"string","name":"name","type":"string"},{"internalType":"uint256","name":"classType","type":"uint256"},{"internalType":"uint256","name":"rarity","type":"uint256"},{"internalType":"uint256","name":"level","type":"uint256"},{"internalType":"uint256","name":"health","type":"uint256"},{"internalType":"uint256","name":"attack","type":"uint256"},{"internalType":"uint256","name":"defense","type":"uint256"},{"internalType":"uint256","name":"speed","type":"uint256"},{"internalType":"uint256","name":"magic","type":"uint256"},{"internalType":"uint256","name":"luck","type":"uint256"},{"internalType":"string","name":"colorScheme","type":"string"},{"internalType":"uint256","name":"wins","type":"uint256"},{"internalType":"uint256","name":"losses","type":"uint256"}],"name":"generateSVG","outputs":[{"internalType":"string","name":"","type":"string"}],"stateMutability":"pure","type":"function"}],"evm":{"bytecode":{"linkReferences":{},"object":"6080806040523461001657612aaf908161001c8239f35b600080fdfe610160604052600436101561001357600080fd5b60003560e01c63b669257a1461002857600080fd5b346110c8576101a0806003193601126110c85760043567ffffffffffffffff81116110c85761005b90369060040161117b565b6101443567ffffffffffffffff81116110c85761007c90369060040161117b565b9060405192830183811067ffffffffffffffff821117610be7576040528252602435602083015260443560408301526064356060830152608435608083015260a43560a083015260c43560c083015260e43560e083015261010435610100830152610124356101208301526101408201526101643561016082015261018435610180820152604051907f3c72616469616c4772616469656e742069643d226267222063783d22353025226020830152711031bc9e911998129110391e911b9812911f60711b6040830152600080516020612a1a83398151915260528301527f6c6f723a233261316134613b73746f702d6f7061636974793a3122202f3e00006072830152600080516020612a3a83398151915260908301527f6f6c6f723a233161306432653b73746f702d6f7061636974793a3122202f3e0060b0830152600080516020612a5a83398151915260cf8301527f636f6c6f723a233064303531353b73746f702d6f7061636974793a3122202f3e60ef830152701e17b930b234b0b623b930b234b2b73a1f60791b61010f83015261010082528161012081011067ffffffffffffffff61012084011117610be7576101208201604052602081015180610cee57506040810151600311610bfd57610373602060405161033960ce826102678582016111e5565b600080516020612a1a83398151915281527f6c6f723a236666366239643b73746f702d6f7061636974793a3122202f3e000086820152600080516020612a3a833981519152603e8201527f6f6c6f723a236334343536393b73746f702d6f7061636974793a3122202f3e00605e820152600080516020612a5a833981519152607d8201527f636f6c6f723a233833364546393b73746f702d6f7061636974793a3122202f3e609d820152701e17b930b234b0b623b930b234b2b73a1f60791b60bd8201520360ae81018452018261113d565b935b604051948161035387935180928680870191016111c2565b8201610367825180938680850191016111c2565b0103808552018361113d565b6103e4602d610385604084015161122b565b93604051948591651e3232b3399f60d11b60208401526103af8151809260206026870191016111c2565b82016103c58251809360206026850191016111c2565b01661e17b232b3399f60c91b602682015203600d81018552018361113d565b6040519182606081011067ffffffffffffffff606085011117610be757606083016040908152603084527f3c726563742077696474683d2234303022206865696768743d2234303022206660208501526f34b6361e913ab9361411b1339491179f60811b908401526104558261140d565b9061045f83611787565b926104698161194a565b61047282611b66565b9061047c83611e7b565b926104868161227a565b60c052805190606081015161049a906126a6565b60208201516104a890612831565b9260408301516104b790612912565b9060808401516104c6906126a6565b9060a08501516104d5906126a6565b9060c08601516104e4906126a6565b60805260e08601516104f5906126a6565b92610100870151610505906126a6565b94610120880151610515906126a6565b96610160890151610525906126a6565b986101800151610534906126a6565b9960405180610140526020017f3c7265637420783d2231302220793d22333230222077696474683d22333830229052610140516040017f206865696768743d223730222066696c6c3d2223303030303030222066696c6c9052610140516060017f2d6f7061636974793d22302e39222072783d223822207374726f6b653d2223389052610140516080017f333645463922207374726f6b652d77696474683d2231222f3e000000000000009052610140516099017f3c7465787420783d2232302220793d22333430222066696c6c3d22234646464690527f46462220666f6e742d66616d696c793d22417269616c2c2073616e732d73657294856101405160b901526101405160d9017f69662220666f6e742d73697a653d2231342220666f6e742d7765696768743d229052653137b632111f60d11b6101405160f90152805190816101405160ff01916020019161068b926111c2565b6101405101661e17ba32bc3a1f60c91b806101005260ff82015261010681017f3c7465787420783d2232302220793d22333535222066696c6c3d222338333645905261012681017f46392220666f6e742d66616d696c793d22417269616c2c2073616e732d736572905261014681017f69662220666f6e742d73697a653d223131223e4c6576656c2000000000000000905282519061015f93828583019160200191610736926111c2565b018061012052620103e160ed1b9283910152610162908160e0528051809261012051019160200191610767926111c2565b61012051018060a05260e0510152805161016591818360a05101916020019161078f926111c2565b60a0510190610100519082015261016c81017f3c7465787420783d2232302220793d22333730222066696c6c3d22234646464690528261018c8201527534b311103337b73a16b9b4bd329e911898111f24281d60511b6101ac8201528151906101c292828483019160200191610804926111c2565b01908101641020aa259d60d91b90528251906101c79382858301916020019161082c926111c2565b0191820164102222a31d60d91b9052608051918251906101cc93828583019160200191610858926111c2565b019161010051908301526101d382017f3c7465787420783d2232302220793d22333833222066696c6c3d22234646464690526101f382015261021381017f69662220666f6e742d73697a653d223130223e5350443a000000000000000000905281519061022a928284830191602001916108d1926111c2565b01908101641026a0a39d60d91b905281519061022f928284830191602001916108f9926111c2565b0190810164102621a59d60d91b905281519061023492828483019160200191610921926111c2565b0190610100519082015261023b81017f3c7465787420783d223238302220793d22333730222066696c6c3d222341303090527f3535442220666f6e742d66616d696c793d22417269616c2c2073616e732d7365908161025b82015261027b81017f7269662220666f6e742d73697a653d223130223e57696e733a200000000000009052825190610295938285830191602001916109bd926111c2565b0191610100519083015261029c82017f3c7465787420783d223238302220793d22333833222066696c6c3d222341303090526102bc8201526102dc81017f7269662220666f6e742d73697a653d223130223e4c6f737365733a200000000090528151906102f892828483019160200191610a36926111c2565b0190610100519082015261014051809103906102df820190526102ff016101405190610a619161113d565b60405195869560208701987f3c7376672077696474683d2234303022206865696768743d223430302220786d8a52604088017f6c6e733d22687474703a2f2f7777772e77332e6f72672f323030302f73766722905260608801601f60f91b9052865160619781898b019160200191610ad8926111c2565b8801815191828983019160200191610aef926111c2565b01815191828883019160200191610b05926111c2565b01815191828783019160200191610b1b926111c2565b01815191828683019160200191610b31926111c2565b01815191828583019160200191610b47926111c2565b01815191828483019160200191610b5d926111c2565b0160c05190815191828483019160200191610b77926111c2565b016101405190815191828483019160200191610b92926111c2565b01908101651e17b9bb339f60d11b905203604781018252606701610bb6908261113d565b6040519182916020835251908160208401528160408401610bd6926111c2565b601f1990601f011681010360400190f35b634e487b7160e01b600052604160045260246000fd5b6103736020604051610ce860ce82610c168582016111e5565b600080516020612a1a83398151915281527f6c6f723a233833364546393b73746f702d6f7061636974793a3122202f3e000086820152600080516020612a3a833981519152603e8201527f6f6c6f723a233563326136623b73746f702d6f7061636974793a3122202f3e00605e820152600080516020612a5a833981519152607d8201527f636f6c6f723a233364316134613b73746f702d6f7061636974793a3122202f3e609d820152701e17b930b234b0b623b930b234b2b73a1f60791b60bd8201520360ae81018452018261113d565b9361033b565b60018103610de257506103736020604051610ce860ce82610d108582016111e5565b600080516020612a1a83398151915281527f6c6f723a233661346339333b73746f702d6f7061636974793a3122202f3e000086820152600080516020612a3a833981519152603e8201527f6f6c6f723a233461326335613b73746f702d6f7061636974793a3122202f3e00605e820152600080516020612a5a833981519152607d8201527f636f6c6f723a233264316233643b73746f702d6f7061636974793a3122202f3e609d820152701e17b930b234b0b623b930b234b2b73a1f60791b60bd8201520360ae81018452018261113d565b60028103610ed657506103736020604051610ce860ce82610e048582016111e5565b600080516020612a1a83398151915281527f6c6f723a233461393065323b73746f702d6f7061636974793a3122202f3e000086820152600080516020612a3a833981519152603e8201527f6f6c6f723a233265356338613b73746f702d6f7061636974793a3122202f3e00605e820152600080516020612a5a833981519152607d8201527f636f6c6f723a233161336135633b73746f702d6f7061636974793a3122202f3e609d820152701e17b930b234b0b623b930b234b2b73a1f60791b60bd8201520360ae81018452018261113d565b600303610fc8576103736020604051610ce860ce82610ef68582016111e5565b600080516020612a1a83398151915281527f6c6f723a236537346333633b73746f702d6f7061636974793a3122202f3e000086820152600080516020612a3a833981519152603e8201527f6f6c6f723a236139333232363b73746f702d6f7061636974793a3122202f3e00605e820152600080516020612a5a833981519152607d8201527f636f6c6f723a233662316631373b73746f702d6f7061636974793a3122202f3e609d820152701e17b930b234b0b623b930b234b2b73a1f60791b60bd8201520360ae81018452018261113d565b6110b882610fd961014082016111e5565b600080516020612a1a83398151915281527f6c6f723a233561363764383b73746f702d6f7061636974793a3122202f3e00006020820152600080516020612a3a833981519152603e8201527f6f6c6f723a233463353162663b73746f702d6f7061636974793a3122202f3e00605e820152600080516020612a5a833981519152607d8201527f636f6c6f723a233363333636623b73746f702d6f7061636974793a3122202f3e609d820152701e17b930b234b0b623b930b234b2b73a1f60791b60bd82015203607119810161012085015260511901610120840161113d565b610373602061012084019361033b565b600080fd5b60e0810190811067ffffffffffffffff821117610be757604052565b6020810190811067ffffffffffffffff821117610be757604052565b6040810190811067ffffffffffffffff821117610be757604052565b60c0810190811067ffffffffffffffff821117610be757604052565b90601f8019910116810190811067ffffffffffffffff821117610be757604052565b67ffffffffffffffff8111610be757601f01601f191660200190565b81601f820112156110c8578035906111928261115f565b926111a0604051948561113d565b828452602083830101116110c857816000926020809301838601378301015290565b60005b8381106111d55750506000910152565b81810151838201526020016111c5565b7f3c72616469616c4772616469656e742069643d22626f6479222063783d22353081527312911031bc9e911a18129110391e911b1812911f60611b602082015260340190565b600481106113135750604051611240816110cd565b60a581527f3c66696c7465722069643d22676c6f77223e3c6665476175737369616e426c7560208201527f7220737464446576696174696f6e3d22362220726573756c743d22636f6c6f7260408201527f6564426c7572222f3e3c66654d657267653e3c66654d657267654e6f6465206960608201527f6e3d22636f6c6f726564426c7572222f3e3c66654d657267654e6f646520696e60808201527f3d22536f7572636547726170686963222f3e3c2f66654d657267653e3c2f666960a082015264363a32b91f60d91b60c082015290565b6002111561132e57604051611327816110e9565b6000815290565b60405161133a816110cd565b60a581527f3c66696c7465722069643d22676c6f77223e3c6665476175737369616e426c7560208201527f7220737464446576696174696f6e3d22332220726573756c743d22636f6c6f7260408201527f6564426c7572222f3e3c66654d657267653e3c66654d657267654e6f6465206960608201527f6e3d22636f6c6f726564426c7572222f3e3c66654d657267654e6f646520696e60808201527f3d22536f7572636547726170686963222f3e3c2f66654d657267653e3c2f666960a082015264363a32b91f60d91b60c082015290565b6040809101516002811015611427575051611327816110e9565b7f22207374726f6b652d77696474683d223222206f7061636974793d22302e34229161169c9161018691906005811061169f5750805161146681611105565b60078152660234646443730360cc1b6020820152905b80519485927f3c636972636c652063783d22323030222063793d223230302220723d2231333060208501526711103334b6361e9160c11b809385015280519260208201936114ce8160488801876111c2565b850171111037b830b1b4ba3c9e911817189a91179f60711b60488201527f3c636972636c652063783d22323030222063793d223230302220723d22313230605a82015281607a8201528251906115288260828301886111c2565b019070111037b830b1b4ba3c9e9118171891179f60791b60828301527f3c636972636c652063783d22323030222063793d223230302220723d22313130609383015260b38201528151906115808260bb8301876111c2565b019071111037b830b1b4ba3c9e911817181c11179f60711b60bb8301527f3c636972636c652063783d22323030222063793d223230302220723d2231323560cd8301527511103334b6361e913737b732911039ba3937b5b29e9160511b60ed83015251906115f58261010395868401906111c2565b0191820152601f60f91b6101238201527f3c616e696d617465206174747269627574654e616d653d226f706163697479226101248201527f2076616c7565733d22302e323b302e363b302e3222206475723d2233732220726101448201527f6570656174436f756e743d22696e646566696e697465222f3e00000000000000610164820152681e17b1b4b931b6329f60b91b61017d8201520361016681018452018261113d565b90565b600481106116cd575080516116b381611105565b600781526608d9998d988e5960ca1b60208201529061147c565b6003116116f95780516116df81611105565b60078152662338333645463960c81b60208201529061147c565b805161170481611105565b600781526608d04c0c0d4d5160ca1b60208201529061147c565b6040519061172b82611105565b6014825273103334b63a32b91e913ab9361411b3b637bb949160611b6020830152565b6040519061175b82611105565b601f82527f207374726f6b653d222330303022207374726f6b652d77696474683d223322006020830152565b604090600282820151101560009060001461193657506117a561171e565b905b6117af61174e565b602080920151801590811561192b575b8115611920575b8115611915575b501561186d579261169c92605e926118537f35222072793d223235222066696c6c3d2275726c2823626f64792922000000009684519788957f3c656c6c697073652063783d22323030222063793d22323830222072783d2234858801528601526118408151809285605c890191016111c2565b8401918351938491605c850191016111c2565b0161179f60f11b605c82015203603e81018452018261113d565b9261169c926067926118fb7f206865696768743d223430222066696c6c3d2275726c2823626f6479292220729684519788957f3c7265637420783d223136302220793d22323630222077696474683d2238302285880152860152643c1e911c1160d91b60608601526118e881518092856065890191016111c2565b84019183519384916065850191016111c2565b0161179f60f11b606582015203604781018452018261113d565b6003915014386117cd565b6002811491506117c6565b6001811491506117bf565b825190611942826110e9565b8152906117a7565b604081810151600090600211611aeb575061196361171e565b61196b61174e565b926020809101518015908115611ae0575b8115611ad5575b8115611aca575b5015611a1f579160549161169c93611a0583519687947f3c636972636c652063783d22323030222063793d223138302220723d223635228487015271103334b6361e913ab9361411b137b23c949160711b908601526119f281518092856052890191016111c2565b84019183519384916052850191016111c2565b0161179f60f11b605282015203603481018452018261113d565b91606a9161169c93611ab07f22206865696768743d22313230222066696c6c3d2275726c2823626f647929229684519788957f3c7265637420783d223134302220793d22313230222077696474683d22313230858801528601526710393c1e9119181160c11b6060860152611a9d81518092856068890191016111c2565b84019183519384916068850191016111c2565b0161179f60f11b606882015203604a81018452018261113d565b60039150143861198a565b600281149150611983565b60018114915061197c565b815190611af7826110e9565b8152611963565b7f3c636972636c652063783d22313735222063793d223136352220723d2231382281527f2066696c6c3d222346464646464622207374726f6b653d22233030302220737460208201526f3937b5b296bbb4b23a341e911911179f60811b604082015260500190565b60200151600403611dfe5760405161169c603982611dab611d5c611d0d611ccb611c89611c46611c03611b9b60208901611afe565b7f3c636972636c652063783d22323235222063793d223136352220723d2231382281527f2066696c6c3d222346464646464622207374726f6b653d22233030302220737460208201526f3937b5b296bbb4b23a341e911911179f60811b604082015260500190565b7f3c636972636c652063783d22313735222063793d223136352220723d22313022815270103334b6361e911198181818181811179f60791b602082015260310190565b7f3c636972636c652063783d22323235222063793d223136352220723d22313022815270103334b6361e911198181818181811179f60791b602082015260310190565b7f3c636972636c652063783d22313738222063793d223136322220723d2233222081526f3334b6361e9111a3232323232311179f60811b602082015260300190565b7f3c636972636c652063783d22323238222063793d223136322220723d2233222081526f3334b6361e9111a3232323232311179f60811b602082015260300190565b7f3c636972636c652063783d22313830222063793d223136382220723d22312e3581527f222066696c6c3d222346464646464622206f7061636974793d22302e37222f3e602082015260400190565b7f3c636972636c652063783d22323330222063793d223136382220723d22312e3581527f222066696c6c3d222346464646464622206f7061636974793d22302e37222f3e602082015260400190565b7f3c656c6c697073652063783d22323030222063793d22313930222072783d22368152781110393c9e911a11103334b6361e911198181818181811179f60391b602082015203601981018452018261113d565b60405161169c603982611e28611d5c611d0d611ccb611c89611c46611c03611b9b60208901611afe565b7f3c656c6c697073652063783d22323030222063793d22323030222072783d22368152781110393c9e911a11103334b6361e911198181818181811179f60391b602082015203601981018452018261113d565b60209081015180611f5357507f3c7265637420783d223138352220793d22313130222077696474683d22333022604051918201527f206865696768743d223132222066696c6c3d222338423435313322207374726f60408201527f6b653d222330303022207374726f6b652d77696474683d2231222072783d223360608201526211179f60e91b60808201527f3c636972636c652063783d22323030222063793d223131362220723d2232222060838201526f3334b6361e9111a323221b981811179f60811b60a38201526093815261169c81611121565b6001810361201057507f3c636972636c652063783d22323030222063793d223131352220723d22332220604051918201527f66696c6c3d222332303030353222207374726f6b653d2223303030222073747260408201526e37b5b296bbb4b23a341e911891179f60891b60608201527f3c636972636c652063783d22323030222063793d223131352220723d22312e35606f8201527111103334b6361e9111a098181a9aa211179f60711b608f8201526081815261169c81611121565b600281036120d757507f3c706f6c79676f6e20706f696e74733d223230302c313035203138382c313233604051918201527f203231322c313233222066696c6c3d222334613930653222207374726f6b653d6040820152781111981818111039ba3937b5b296bbb4b23a341e911891179f60391b60608201527f3c636972636c652063783d22323030222063793d223132302220723d22312e3560798201527111103334b6361e9111a323221b981811179f60711b6099820152608b815261169c81611121565b6003036121ad577f3c706f6c79676f6e20706f696e74733d223136352c313430203136382c313235604051918201527f203137322c313430222066696c6c3d222365373463336322207374726f6b653d6040820152781111981818111039ba3937b5b296bbb4b23a341e911891179f60391b8060608301527f3c706f6c79676f6e20706f696e74733d223232382c313430203233312c31323560798301527f203233352c313430222066696c6c3d222365373463336322207374726f6b653d609983015260b982015260b2815261169c816110cd565b7f3c7265637420783d223139302220793d22313130222077696474683d22323022604051918201527f206865696768743d2238222066696c6c3d222335613637643822207374726f6b60408201527f653d222330303022207374726f6b652d77696474683d2231222072783d223222606082015261179f60f11b60808201527f3c636972636c652063783d22323030222063793d223131342220723d22312e3560828201527111103334b6361e9111a323221b981811179f60711b60a28201526094815261169c81611121565b6040908101516005810361249e57508051907f3c636972636c652063783d22313330222063793d223133302220723d2232222060208301527f66696c6c3d222346464437303022206f7061636974793d22302e38223e000000818301527f3c616e696d617465206174747269627574654e616d653d226f7061636974792280605d8401527f2076616c7565733d22303b313b3022206475723d223273222072657065617443607d8401527237bab73a1e9134b73232b334b734ba3291179f60691b609d840152681e17b1b4b931b6329f60b91b908160b08501527f3c636972636c652063783d22323730222063793d223135302220723d22312e3560b98501527f222066696c6c3d222346464437303022206f7061636974793d22302e36223e0060d98501528060f88501527f2076616c7565733d22303b313b3022206475723d22312e357322207265706561610118850152743a21b7bab73a1e9134b73232b334b734ba3291179f60591b90816101388601528261014d8601527f3c636972636c652063783d22313530222063793d223238302220723d223222206101568601527f66696c6c3d222346464437303022206f7061636974793d22302e37223e0000006101768601526101938501527f2076616c7565733d22303b313b3022206475723d22322e3573222072657065616101b38501526101d38401526101e88301526101d1825261020082019082821067ffffffffffffffff831117610be7575290565b6004810361259e57507f2066696c6c3d226e6f6e6522207374726f6b653d2223464644373030222073748151917f3c636972636c652063783d22323030222063793d223230302220723d2239302260208401528201527f726f6b652d77696474683d223222206f7061636974793d22302e34223e00000060608201527f3c616e696d617465206174747269627574654e616d653d2272222076616c7565607d8201527f733d2238353b39353b383522206475723d2233732220726570656174436f756e609d8201526f3a1e9134b73232b334b734ba3291179f60811b60bd820152681e17b1b4b931b6329f60b91b60cd82015260b6815261169c816110cd565b6003146125af5751611327816110e9565b7f2066696c6c3d226e6f6e6522207374726f6b653d2223383336454639222073748151917f3c636972636c652063783d22323030222063793d223230302220723d2238352260208401528201527f726f6b652d77696474683d223122206f7061636974793d22302e33223e00000060608201527f3c616e696d617465206174747269627574654e616d653d2272222076616c7565607d8201527f733d2238303b39303b383022206475723d2234732220726570656174436f756e609d8201526f3a1e9134b73232b334b734ba3291179f60811b60bd820152681e17b1b4b931b6329f60b91b60cd82015260b6815261169c816110cd565b806000917a184f03e93ff9f4daa797ed6e38ed64bf6a1f01000000000000000080821015612800575b506d04ee2d6d415b85acef8100000000808310156127f1575b50662386f26fc10000808310156127e2575b506305f5e100808310156127d3575b50612710808310156127c4575b5060648210156127b4575b600a809210156127aa575b6001908160218186019561273f8761115f565b9661274d604051988961113d565b80885261275c601f199161115f565b01366020890137860101905b612774575b5050505090565b600019019083906f181899199a1a9b1b9c1cb0b131b232b360811b8282061a8353049182156127a557919082612768565b61276d565b916001019161272c565b9190606460029104910191612721565b60049193920491019138612716565b60089193920491019138612709565b601091939204910191386126fa565b602091939204910191386126e8565b6040935081049150386126cf565b6040519061281b82611105565b60078252662ab735b737bbb760c91b6020830152565b80156128ee57600181146128c957600281146128a857600381146128825760041461285e5761169c61280e565b60405161286a81611105565b600881526723bab0b93234b0b760c11b602082015290565b5060405161288f81611105565b60098152682132b939b2b935b2b960b91b602082015290565b506040516128b581611105565b60048152634d61676560e01b602082015290565b506040516128d681611105565b600881526720b9b9b0b9b9b4b760c11b602082015290565b506040516128fb81611105565b60078152662bb0b93934b7b960c91b602082015290565b80156129f657600181146129d157600281146129b0576003811461298f5760048114612969576005146129475761169c61280e565b60405161295381611105565b60068152654d797468696360d01b602082015290565b5060405161297681611105565b60098152684c6567656e6461727960b81b602082015290565b5060405161299c81611105565b60048152634570696360e01b602082015290565b506040516129bd81611105565b60048152635261726560e01b602082015290565b506040516129de81611105565b60088152672ab731b7b6b6b7b760c11b602082015290565b50604051612a0381611105565b600681526521b7b6b6b7b760d11b60208201529056fe3c73746f70206f66667365743d22302522207374796c653d2273746f702d636f3c73746f70206f66667365743d2237302522207374796c653d2273746f702d633c73746f70206f66667365743d223130302522207374796c653d2273746f702da2646970667358221220a79cc62c57ac175e1ba07af907b9ecebde8b92c1ad58935b2fe048aba9679e7864736f6c63430008140033","opcodes":"PUSH1 0x80 DUP1 PUSH1 0x40 MSTORE CALLVALUE PUSH2 0x16 JUMPI PUSH2 0x2AAF SWAP1 DUP2 PUSH2 0x1C DUP3 CODECOPY RETURN JUMPDEST PUSH1 0x0 DUP1 REVERT INVALID PUSH2 0x160 PUSH1 0x40 MSTORE PUSH1 0x4 CALLDATASIZE LT ISZERO PUSH2 0x13 JUMPI PUSH1 0x0 DUP1 REVERT JUMPDEST PUSH1 0x0 CALLDATALOAD PUSH1 0xE0 SHR PUSH4 0xB669257A EQ PUSH2 0x28 JUMPI PUSH1 0x0 DUP1 REVERT JUMPDEST CALLVALUE PUSH2 0x10C8 JUMPI PUSH2 0x1A0 DUP1 PUSH1 0x3 NOT CALLDATASIZE ADD SLT PUSH2 0x10C8 JUMPI PUSH1 0x4 CALLDATALOAD PUSH8 0xFFFFFFFFFFFFFFFF DUP2 GT PUSH2 0x10C8 JUMPI PUSH2 0x5B SWAP1 CALLDATASIZE SWAP1 PUSH1 0x4 ADD PUSH2 0x117B JUMP JUMPDEST PUSH2 0x144 CALLDATALOAD PUSH8 0xFFFFFFFFFFFFFFFF DUP2 GT PUSH2 0x10C8 JUMPI PUSH2 0x7C SWAP1 CALLDATASIZE SWAP1 PUSH1 0x4 ADD PUSH2 0x117B JUMP JUMPDEST SWAP1 PUSH1 0x40 MLOAD SWAP3 DUP4 ADD DUP4 DUP2 LT PUSH8 0xFFFFFFFFFFFFFFFF DUP3 GT OR PUSH2 0xBE7 JUMPI PUSH1 0x40 MSTORE DUP3 MSTORE PUSH1 0x24 CALLDATALOAD PUSH1 0x20 DUP4 ADD MSTORE PUSH1 0x44 CALLDATALOAD PUSH1 0x40 DUP4 ADD MSTORE PUSH1 0x64 CALLDATALOAD PUSH1 0x60 DUP4 ADD MSTORE PUSH1 0x84 CALLDATALOAD PUSH1 0x80 DUP4 ADD MSTORE PUSH1 0xA4 CALLDATALOAD PUSH1 0xA0 DUP4 ADD MSTORE PUSH1 0xC4 CALLDATALOAD PUSH1 0xC0 DUP4 ADD MSTORE PUSH1 0xE4 CALLDATALOAD PUSH1 0xE0 DUP4 ADD MSTORE PUSH2 0x104 CALLDATALOAD PUSH2 0x100 DUP4 ADD MSTORE PUSH2 0x124 CALLDATALOAD PUSH2 0x120 DUP4 ADD MSTORE PUSH2 0x140 DUP3 ADD MSTORE PUSH2 0x164 CALLDATALOAD PUSH2 0x160 DUP3 ADD MSTORE PUSH2 0x184 CALLDATALOAD PUSH2 0x180 DUP3 ADD MSTORE PUSH1 0x40 MLOAD SWAP1 PUSH32 0x3C72616469616C4772616469656E742069643D226267222063783D2235302522 PUSH1 0x20 DUP4 ADD MSTORE PUSH18 0x1031BC9E911998129110391E911B9812911F PUSH1 0x71 SHL PUSH1 0x40 DUP4 ADD MSTORE PUSH1 0x0 DUP1 MLOAD PUSH1 0x20 PUSH2 0x2A1A DUP4 CODECOPY DUP2 MLOAD SWAP2 MSTORE PUSH1 0x52 DUP4 ADD MSTORE PUSH32 0x6C6F723A233261316134613B73746F702D6F7061636974793A3122202F3E0000 PUSH1 0x72 DUP4 ADD MSTORE PUSH1 0x0 DUP1 MLOAD PUSH1 0x20 PUSH2 0x2A3A DUP4 CODECOPY DUP2 MLOAD SWAP2 MSTORE PUSH1 0x90 DUP4 ADD MSTORE PUSH32 0x6F6C6F723A233161306432653B73746F702D6F7061636974793A3122202F3E00 PUSH1 0xB0 DUP4 ADD MSTORE PUSH1 0x0 DUP1 MLOAD PUSH1 0x20 PUSH2 0x2A5A DUP4 CODECOPY DUP2 MLOAD SWAP2 MSTORE PUSH1 0xCF DUP4 ADD MSTORE PUSH32 0x636F6C6F723A233064303531353B73746F702D6F7061636974793A3122202F3E PUSH1 0xEF DUP4 ADD MSTORE PUSH17 0x1E17B930B234B0B623B930B234B2B73A1F PUSH1 0x79 SHL PUSH2 0x10F DUP4 ADD MSTORE PUSH2 0x100 DUP3 MSTORE DUP2 PUSH2 0x120 DUP2 ADD LT PUSH8 0xFFFFFFFFFFFFFFFF PUSH2 0x120 DUP5 ADD GT OR PUSH2 0xBE7 JUMPI PUSH2 0x120 DUP3 ADD PUSH1 0x40 MSTORE PUSH1 0x20 DUP2 ADD MLOAD DUP1 PUSH2 0xCEE JUMPI POP PUSH1 0x40 DUP2 ADD MLOAD PUSH1 0x3 GT PUSH2 0xBFD JUMPI PUSH2 0x373 PUSH1 0x20 PUSH1 0x40 MLOAD PUSH2 0x339 PUSH1 0xCE DUP3 PUSH2 0x267 DUP6 DUP3 ADD PUSH2 0x11E5 JUMP JUMPDEST PUSH1 0x0 DUP1 MLOAD PUSH1 0x20 PUSH2 0x2A1A DUP4 CODECOPY DUP2 MLOAD SWAP2 MSTORE DUP2 MSTORE PUSH32 0x6C6F723A236666366239643B73746F702D6F7061636974793A3122202F3E0000 DUP7 DUP3 ADD MSTORE PUSH1 0x0 DUP1 MLOAD PUSH1 0x20 PUSH2 0x2A3A DUP4 CODECOPY DUP2 MLOAD SWAP2 MSTORE PUSH1 0x3E DUP3 ADD MSTORE PUSH32 0x6F6C6F723A236334343536393B73746F702D6F7061636974793A3122202F3E00 PUSH1 0x5E DUP3 ADD MSTORE PUSH1 0x0 DUP1 MLOAD PUSH1 0x20 PUSH2 0x2A5A DUP4 CODECOPY DUP2 MLOAD SWAP2 MSTORE PUSH1 0x7D DUP3 ADD MSTORE PUSH32 0x636F6C6F723A233833364546393B73746F702D6F7061636974793A3122202F3E PUSH1 0x9D DUP3 ADD MSTORE PUSH17 0x1E17B930B234B0B623B930B234B2B73A1F PUSH1 0x79 SHL PUSH1 0xBD DUP3 ADD MSTORE SUB PUSH1 0xAE DUP2 ADD DUP5 MSTORE ADD DUP3 PUSH2 0x113D JUMP JUMPDEST SWAP4 JUMPDEST PUSH1 0x40 MLOAD SWAP5 DUP2 PUSH2 0x353 DUP8 SWAP4 MLOAD DUP1 SWAP3 DUP7 DUP1 DUP8 ADD SWAP2 ADD PUSH2 0x11C2 JUMP JUMPDEST DUP3 ADD PUSH2 0x367 DUP3 MLOAD DUP1 SWAP4 DUP7 DUP1 DUP6 ADD SWAP2 ADD PUSH2 0x11C2 JUMP JUMPDEST ADD SUB DUP1 DUP6 MSTORE ADD DUP4 PUSH2 0x113D JUMP JUMPDEST PUSH2 0x3E4 PUSH1 0x2D PUSH2 0x385 PUSH1 0x40 DUP5 ADD MLOAD PUSH2 0x122B JUMP JUMPDEST SWAP4 PUSH1 0x40 MLOAD SWAP5 DUP6 SWAP2 PUSH6 0x1E3232B3399F PUSH1 0xD1 SHL PUSH1 0x20 DUP5 ADD MSTORE PUSH2 0x3AF DUP2 MLOAD DUP1 SWAP3 PUSH1 0x20 PUSH1 0x26 DUP8 ADD SWAP2 ADD PUSH2 0x11C2 JUMP JUMPDEST DUP3 ADD PUSH2 0x3C5 DUP3 MLOAD DUP1 SWAP4 PUSH1 0x20 PUSH1 0x26 DUP6 ADD SWAP2 ADD PUSH2 0x11C2 JUMP JUMPDEST ADD PUSH7 0x1E17B232B3399F PUSH1 0xC9 SHL PUSH1 0x26 DUP3 ADD MSTORE SUB PUSH1 0xD DUP2 ADD DUP6 MSTORE ADD DUP4 PUSH2 0x113D JUMP JUMPDEST PUSH1 0x40 MLOAD SWAP2 DUP3 PUSH1 0x60 DUP2 ADD LT PUSH8 0xFFFFFFFFFFFFFFFF PUSH1 0x60 DUP6 ADD GT OR PUSH2 0xBE7 JUMPI PUSH1 0x60 DUP4 ADD PUSH1 0x40 SWAP1 DUP2 MSTORE PUSH1 0x30 DUP5 MSTORE PUSH32 0x3C726563742077696474683D2234303022206865696768743D22343030222066 PUSH1 0x20 DUP6 ADD MSTORE PUSH16 0x34B6361E913AB9361411B1339491179F PUSH1 0x81 SHL SWAP1 DUP5 ADD MSTORE PUSH2 0x455 DUP3 PUSH2 0x140D JUMP JUMPDEST SWAP1 PUSH2 0x45F DUP4 PUSH2 0x1787 JUMP JUMPDEST SWAP3 PUSH2 0x469 DUP2 PUSH2 0x194A JUMP JUMPDEST PUSH2 0x472 DUP3 PUSH2 0x1B66 JUMP JUMPDEST SWAP1 PUSH2 0x47C DUP4 PUSH2 0x1E7B JUMP JUMPDEST SWAP3 PUSH2 0x486 DUP2 PUSH2 0x227A JUMP JUMPDEST PUSH1 0xC0 MSTORE DUP1 MLOAD SWAP1 PUSH1 0x60 DUP2 ADD MLOAD PUSH2 0x49A SWAP1 PUSH2 0x26A6 JUMP JUMPDEST PUSH1 0x20 DUP3 ADD MLOAD PUSH2 0x4A8 SWAP1 PUSH2 0x2831 JUMP JUMPDEST SWAP3 PUSH1 0x40 DUP4 ADD MLOAD PUSH2 0x4B7 SWAP1 PUSH2 0x2912 JUMP JUMPDEST SWAP1 PUSH1 0x80 DUP5 ADD MLOAD PUSH2 0x4C6 SWAP1 PUSH2 0x26A6 JUMP JUMPDEST SWAP1 PUSH1 0xA0 DUP6 ADD MLOAD PUSH2 0x4D5 SWAP1 PUSH2 0x26A6 JUMP JUMPDEST SWAP1 PUSH1 0xC0 DUP7 ADD MLOAD PUSH2 0x4E4 SWAP1 PUSH2 0x26A6 JUMP JUMPDEST PUSH1 0x80 MSTORE PUSH1 0xE0 DUP7 ADD MLOAD PUSH2 0x4F5 SWAP1 PUSH2 0x26A6 JUMP JUMPDEST SWAP3 PUSH2 0x100 DUP8 ADD MLOAD PUSH2 0x505 SWAP1 PUSH2 0x26A6 JUMP JUMPDEST SWAP5 PUSH2 0x120 DUP9 ADD MLOAD PUSH2 0x515 SWAP1 PUSH2 0x26A6 JUMP JUMPDEST SWAP7 PUSH2 0x160 DUP10 ADD MLOAD PUSH2 0x525 SWAP1 PUSH2 0x26A6 JUMP JUMPDEST SWAP9 PUSH2 0x180 ADD MLOAD PUSH2 0x534 SWAP1 PUSH2 0x26A6 JUMP JUMPDEST SWAP10 PUSH1 0x40 MLOAD DUP1 PUSH2 0x140 MSTORE PUSH1 0x20 ADD PUSH32 0x3C7265637420783D2231302220793D22333230222077696474683D2233383022 SWAP1 MSTORE PUSH2 0x140 MLOAD PUSH1 0x40 ADD PUSH32 0x206865696768743D223730222066696C6C3D2223303030303030222066696C6C SWAP1 MSTORE PUSH2 0x140 MLOAD PUSH1 0x60 ADD PUSH32 0x2D6F7061636974793D22302E39222072783D223822207374726F6B653D222338 SWAP1 MSTORE PUSH2 0x140 MLOAD PUSH1 0x80 ADD PUSH32 0x333645463922207374726F6B652D77696474683D2231222F3E00000000000000 SWAP1 MSTORE PUSH2 0x140 MLOAD PUSH1 0x99 ADD PUSH32 0x3C7465787420783D2232302220793D22333430222066696C6C3D222346464646 SWAP1 MSTORE PUSH32 0x46462220666F6E742D66616D696C793D22417269616C2C2073616E732D736572 SWAP5 DUP6 PUSH2 0x140 MLOAD PUSH1 0xB9 ADD MSTORE PUSH2 0x140 MLOAD PUSH1 0xD9 ADD PUSH32 0x69662220666F6E742D73697A653D2231342220666F6E742D7765696768743D22 SWAP1 MSTORE PUSH6 0x3137B632111F PUSH1 0xD1 SHL PUSH2 0x140 MLOAD PUSH1 0xF9 ADD MSTORE DUP1 MLOAD SWAP1 DUP2 PUSH2 0x140 MLOAD PUSH1 0xFF ADD SWAP2 PUSH1 0x20 ADD SWAP2 PUSH2 0x68B SWAP3 PUSH2 0x11C2 JUMP JUMPDEST PUSH2 0x140 MLOAD ADD PUSH7 0x1E17BA32BC3A1F PUSH1 0xC9 SHL DUP1 PUSH2 0x100 MSTORE PUSH1 0xFF DUP3 ADD MSTORE PUSH2 0x106 DUP2 ADD PUSH32 0x3C7465787420783D2232302220793D22333535222066696C6C3D222338333645 SWAP1 MSTORE PUSH2 0x126 DUP2 ADD PUSH32 0x46392220666F6E742D66616D696C793D22417269616C2C2073616E732D736572 SWAP1 MSTORE PUSH2 0x146 DUP2 ADD PUSH32 0x69662220666F6E742D73697A653D223131223E4C6576656C2000000000000000 SWAP1 MSTORE DUP3 MLOAD SWAP1 PUSH2 0x15F SWAP4 DUP3 DUP6 DUP4 ADD SWAP2 PUSH1 0x20 ADD SWAP2 PUSH2 0x736 SWAP3 PUSH2 0x11C2 JUMP JUMPDEST ADD DUP1 PUSH2 0x120 MSTORE PUSH3 0x103E1 PUSH1 0xED SHL SWAP3 DUP4 SWAP2 ADD MSTORE PUSH2 0x162 SWAP1 DUP2 PUSH1 0xE0 MSTORE DUP1 MLOAD DUP1 SWAP3 PUSH2 0x120 MLOAD ADD SWAP2 PUSH1 0x20 ADD SWAP2 PUSH2 0x767 SWAP3 PUSH2 0x11C2 JUMP JUMPDEST PUSH2 0x120 MLOAD ADD DUP1 PUSH1 0xA0 MSTORE PUSH1 0xE0 MLOAD ADD MSTORE DUP1 MLOAD PUSH2 0x165 SWAP2 DUP2 DUP4 PUSH1 0xA0 MLOAD ADD SWAP2 PUSH1 0x20 ADD SWAP2 PUSH2 0x78F SWAP3 PUSH2 0x11C2 JUMP JUMPDEST PUSH1 0xA0 MLOAD ADD SWAP1 PUSH2 0x100 MLOAD SWAP1 DUP3 ADD MSTORE PUSH2 0x16C DUP2 ADD PUSH32 0x3C7465787420783D2232302220793D22333730222066696C6C3D222346464646 SWAP1 MSTORE DUP3 PUSH2 0x18C DUP3 ADD MSTORE PUSH22 0x34B311103337B73A16B9B4BD329E911898111F24281D PUSH1 0x51 SHL PUSH2 0x1AC DUP3 ADD MSTORE DUP2 MLOAD SWAP1 PUSH2 0x1C2 SWAP3 DUP3 DUP5 DUP4 ADD SWAP2 PUSH1 0x20 ADD SWAP2 PUSH2 0x804 SWAP3 PUSH2 0x11C2 JUMP JUMPDEST ADD SWAP1 DUP2 ADD PUSH5 0x1020AA259D PUSH1 0xD9 SHL SWAP1 MSTORE DUP3 MLOAD SWAP1 PUSH2 0x1C7 SWAP4 DUP3 DUP6 DUP4 ADD SWAP2 PUSH1 0x20 ADD SWAP2 PUSH2 0x82C SWAP3 PUSH2 0x11C2 JUMP JUMPDEST ADD SWAP2 DUP3 ADD PUSH5 0x102222A31D PUSH1 0xD9 SHL SWAP1 MSTORE PUSH1 0x80 MLOAD SWAP2 DUP3 MLOAD SWAP1 PUSH2 0x1CC SWAP4 DUP3 DUP6 DUP4 ADD SWAP2 PUSH1 0x20 ADD SWAP2 PUSH2 0x858 SWAP3 PUSH2 0x11C2 JUMP JUMPDEST ADD SWAP2 PUSH2 0x100 MLOAD SWAP1 DUP4 ADD MSTORE PUSH2 0x1D3 DUP3 ADD PUSH32 0x3C7465787420783D2232302220793D22333833222066696C6C3D222346464646 SWAP1 MSTORE PUSH2 0x1F3 DUP3 ADD MSTORE PUSH2 0x213 DUP2 ADD PUSH32 0x69662220666F6E742D73697A653D223130223E5350443A000000000000000000 SWAP1 MSTORE DUP2 MLOAD SWAP1 PUSH2 0x22A SWAP3 DUP3 DUP5 DUP4 ADD SWAP2 PUSH1 0x20 ADD SWAP2 PUSH2 0x8D1 SWAP3 PUSH2 0x11C2 JUMP JUMPDEST ADD SWAP1 DUP2 ADD PUSH5 0x1026A0A39D PUSH1 0xD9 SHL SWAP1 MSTORE DUP2 MLOAD SWAP1 PUSH2 0x22F SWAP3 DUP3 DUP5 DUP4 ADD SWAP2 PUSH1 0x20 ADD SWAP2 PUSH2 0x8F9 SWAP3 PUSH2 0x11C2 JUMP JUMPDEST ADD SWAP1 DUP2 ADD PUSH5 0x102621A59D PUSH1 0xD9 SHL SWAP1 MSTORE DUP2 MLOAD SWAP1 PUSH2 0x234 SWAP3 DUP3 DUP5 DUP4 ADD SWAP2 PUSH1 0x20 ADD SWAP2 PUSH2 0x921 SWAP3 PUSH2 0x11C2 JUMP JUMPDEST ADD SWAP1 PUSH2 0x100 MLOAD SWAP1 DUP3 ADD MSTORE PUSH2 0x23B DUP2 ADD PUSH32 0x3C7465787420783D223238302220793D22333730222066696C6C3D2223413030 SWAP1 MSTORE PUSH32 0x3535442220666F6E742D66616D696C793D22417269616C2C2073616E732D7365 SWAP1 DUP2 PUSH2 0x25B DUP3 ADD MSTORE PUSH2 0x27B DUP2 ADD PUSH32 0x7269662220666F6E742D73697A653D223130223E57696E733A20000000000000 SWAP1 MSTORE DUP3 MLOAD SWAP1 PUSH2 0x295 SWAP4 DUP3 DUP6 DUP4 ADD SWAP2 PUSH1 0x20 ADD SWAP2 PUSH2 0x9BD SWAP3 PUSH2 0x11C2 JUMP JUMPDEST ADD SWAP2 PUSH2 0x100 MLOAD SWAP1 DUP4 ADD MSTORE PUSH2 0x29C DUP3 ADD PUSH32 0x3C7465787420783D223238302220793D22333833222066696C6C3D2223413030 SWAP1 MSTORE PUSH2 0x2BC DUP3 ADD MSTORE PUSH2 0x2DC DUP2 ADD PUSH32 0x7269662220666F6E742D73697A653D223130223E4C6F737365733A2000000000 SWAP1 MSTORE DUP2 MLOAD SWAP1 PUSH2 0x2F8 SWAP3 DUP3 DUP5 DUP4 ADD SWAP2 PUSH1 0x20 ADD SWAP2 PUSH2 0xA36 SWAP3 PUSH2 0x11C2 JUMP JUMPDEST ADD SWAP1 PUSH2 0x100 MLOAD SWAP1 DUP3 ADD MSTORE PUSH2 0x140 MLOAD DUP1 SWAP2 SUB SWAP1 PUSH2 0x2DF DUP3 ADD SWAP1 MSTORE PUSH2 0x2FF ADD PUSH2 0x140 MLOAD SWAP1 PUSH2 0xA61 SWAP2 PUSH2 0x113D JUMP JUMPDEST PUSH1 0x40 MLOAD SWAP6 DUP7 SWAP6 PUSH1 0x20 DUP8 ADD SWAP9 PUSH32 0x3C7376672077696474683D2234303022206865696768743D223430302220786D DUP11 MSTORE PUSH1 0x40 DUP9 ADD PUSH32 0x6C6E733D22687474703A2F2F7777772E77332E6F72672F323030302F73766722 SWAP1 MSTORE PUSH1 0x60 DUP9 ADD PUSH1 0x1F PUSH1 0xF9 SHL SWAP1 MSTORE DUP7 MLOAD PUSH1 0x61 SWAP8 DUP2 DUP10 DUP12 ADD SWAP2 PUSH1 0x20 ADD SWAP2 PUSH2 0xAD8 SWAP3 PUSH2 0x11C2 JUMP JUMPDEST DUP9 ADD DUP2 MLOAD SWAP2 DUP3 DUP10 DUP4 ADD SWAP2 PUSH1 0x20 ADD SWAP2 PUSH2 0xAEF SWAP3 PUSH2 0x11C2 JUMP JUMPDEST ADD DUP2 MLOAD SWAP2 DUP3 DUP9 DUP4 ADD SWAP2 PUSH1 0x20 ADD SWAP2 PUSH2 0xB05 SWAP3 PUSH2 0x11C2 JUMP JUMPDEST ADD DUP2 MLOAD SWAP2 DUP3 DUP8 DUP4 ADD SWAP2 PUSH1 0x20 ADD SWAP2 PUSH2 0xB1B SWAP3 PUSH2 0x11C2 JUMP JUMPDEST ADD DUP2 MLOAD SWAP2 DUP3 DUP7 DUP4 ADD SWAP2 PUSH1 0x20 ADD SWAP2 PUSH2 0xB31 SWAP3 PUSH2 0x11C2 JUMP JUMPDEST ADD DUP2 MLOAD SWAP2 DUP3 DUP6 DUP4 ADD SWAP2 PUSH1 0x20 ADD SWAP2 PUSH2 0xB47 SWAP3 PUSH2 0x11C2 JUMP JUMPDEST ADD DUP2 MLOAD SWAP2 DUP3 DUP5 DUP4 ADD SWAP2 PUSH1 0x20 ADD SWAP2 PUSH2 0xB5D SWAP3 PUSH2 0x11C2 JUMP JUMPDEST ADD PUSH1 0xC0 MLOAD SWAP1 DUP2 MLOAD SWAP2 DUP3 DUP5 DUP4 ADD SWAP2 PUSH1 0x20 ADD SWAP2 PUSH2 0xB77 SWAP3 PUSH2 0x11C2 JUMP JUMPDEST ADD PUSH2 0x140 MLOAD SWAP1 DUP2 MLOAD SWAP2 DUP3 DUP5 DUP4 ADD SWAP2 PUSH1 0x20 ADD SWAP2 PUSH2 0xB92 SWAP3 PUSH2 0x11C2 JUMP JUMPDEST ADD SWAP1 DUP2 ADD PUSH6 0x1E17B9BB339F PUSH1 0xD1 SHL SWAP1 MSTORE SUB PUSH1 0x47 DUP2 ADD DUP3 MSTORE PUSH1 0x67 ADD PUSH2 0xBB6 SWAP1 DUP3 PUSH2 0x113D JUMP JUMPDEST PUSH1 0x40 MLOAD SWAP2 DUP3 SWAP2 PUSH1 0x20 DUP4 MSTORE MLOAD SWAP1 DUP2 PUSH1 0x20 DUP5 ADD MSTORE DUP2 PUSH1 0x40 DUP5 ADD PUSH2 0xBD6 SWAP3 PUSH2 0x11C2 JUMP JUMPDEST PUSH1 0x1F NOT SWAP1 PUSH1 0x1F ADD AND DUP2 ADD SUB PUSH1 0x40 ADD SWAP1 RETURN JUMPDEST PUSH4 0x4E487B71 PUSH1 0xE0 SHL PUSH1 0x0 MSTORE PUSH1 0x41 PUSH1 0x4 MSTORE PUSH1 0x24 PUSH1 0x0 REVERT JUMPDEST PUSH2 0x373 PUSH1 0x20 PUSH1 0x40 MLOAD PUSH2 0xCE8 PUSH1 0xCE DUP3 PUSH2 0xC16 DUP6 DUP3 ADD PUSH2 0x11E5 JUMP JUMPDEST PUSH1 0x0 DUP1 MLOAD PUSH1 0x20 PUSH2 0x2A1A DUP4 CODECOPY DUP2 MLOAD SWAP2 MSTORE DUP2 MSTORE PUSH32 0x6C6F723A233833364546393B73746F702D6F7061636974793A3122202F3E0000 DUP7 DUP3 ADD MSTORE PUSH1 0x0 DUP1 MLOAD PUSH1 0x20 PUSH2 0x2A3A DUP4 CODECOPY DUP2 MLOAD SWAP2 MSTORE PUSH1 0x3E DUP3 ADD MSTORE PUSH32 0x6F6C6F723A233563326136623B73746F702D6F7061636974793A3122202F3E00 PUSH1 0x5E DUP3 ADD MSTORE PUSH1 0x0 DUP1 MLOAD PUSH1 0x20 PUSH2 0x2A5A DUP4 CODECOPY DUP2 MLOAD SWAP2 MSTORE PUSH1 0x7D DUP3 ADD MSTORE PUSH32 0x636F6C6F723A233364316134613B73746F702D6F7061636974793A3122202F3E PUSH1 0x9D DUP3 ADD MSTORE PUSH17 0x1E17B930B234B0B623B930B234B2B73A1F PUSH1 0x79 SHL PUSH1 0xBD DUP3 ADD MSTORE SUB PUSH1 0xAE DUP2 ADD DUP5 MSTORE ADD DUP3 PUSH2 0x113D JUMP JUMPDEST SWAP4 PUSH2 0x33B JUMP JUMPDEST PUSH1 0x1 DUP2 SUB PUSH2 0xDE2 JUMPI POP PUSH2 0x373 PUSH1 0x20 PUSH1 0x40 MLOAD PUSH2 0xCE8 PUSH1 0xCE DUP3 PUSH2 0xD10 DUP6 DUP3 ADD PUSH2 0x11E5 JUMP JUMPDEST PUSH1 0x0 DUP1 MLOAD PUSH1 0x20 PUSH2 0x2A1A DUP4 CODECOPY DUP2 MLOAD SWAP2 MSTORE DUP2 MSTORE PUSH32 0x6C6F723A233661346339333B73746F702D6F7061636974793A3122202F3E0000 DUP7 DUP3 ADD MSTORE PUSH1 0x0 DUP1 MLOAD PUSH1 0x20 PUSH2 0x2A3A DUP4 CODECOPY DUP2 MLOAD SWAP2 MSTORE PUSH1 0x3E DUP3 ADD MSTORE PUSH32 0x6F6C6F723A233461326335613B73746F702D6F7061636974793A3122202F3E00 PUSH1 0x5E DUP3 ADD MSTORE PUSH1 0x0 DUP1 MLOAD PUSH1 0x20 PUSH2 0x2A5A DUP4 CODECOPY DUP2 MLOAD SWAP2 MSTORE PUSH1 0x7D DUP3 ADD MSTORE PUSH32 0x636F6C6F723A233264316233643B73746F702D6F7061636974793A3122202F3E PUSH1 0x9D DUP3 ADD MSTORE PUSH17 0x1E17B930B234B0B623B930B234B2B73A1F PUSH1 0x79 SHL PUSH1 0xBD DUP3 ADD MSTORE SUB PUSH1 0xAE DUP2 ADD DUP5 MSTORE ADD DUP3 PUSH2 0x113D JUMP JUMPDEST PUSH1 0x2 DUP2 SUB PUSH2 0xED6 JUMPI POP PUSH2 0x373 PUSH1 0x20 PUSH1 0x40 MLOAD PUSH2 0xCE8 PUSH1 0xCE DUP3 PUSH2 0xE04 DUP6 DUP3 ADD PUSH2 0x11E5 JUMP JUMPDEST PUSH1 0x0 DUP1 MLOAD PUSH1 0x20 PUSH2 0x2A1A DUP4 CODECOPY DUP2 MLOAD SWAP2 MSTORE DUP2 MSTORE PUSH32 0x6C6F723A233461393065323B73746F702D6F7061636974793A3122202F3E0000 DUP7 DUP3 ADD MSTORE PUSH1 0x0 DUP1 MLOAD PUSH1 0x20 PUSH2 0x2A3A DUP4 CODECOPY DUP2 MLOAD SWAP2 MSTORE PUSH1 0x3E DUP3 ADD MSTORE PUSH32 0x6F6C6F723A233265356338613B73746F702D6F7061636974793A3122202F3E00 PUSH1 0x5E DUP3 ADD MSTORE PUSH1 0x0 DUP1 MLOAD PUSH1 0x20 PUSH2 0x2A5A DUP4 CODECOPY DUP2 MLOAD SWAP2 MSTORE PUSH1 0x7D DUP3 ADD MSTORE PUSH32 0x636F6C6F723A233161336135633B73746F702D6F7061636974793A3122202F3E PUSH1 0x9D DUP3 ADD MSTORE PUSH17 0x1E17B930B234B0B623B930B234B2B73A1F PUSH1 0x79 SHL PUSH1 0xBD DUP3 ADD MSTORE SUB PUSH1 0xAE DUP2 ADD DUP5 MSTORE ADD DUP3 PUSH2 0x113D JUMP JUMPDEST PUSH1 0x3 SUB PUSH2 0xFC8 JUMPI PUSH2 0x373 PUSH1 0x20 PUSH1 0x40 MLOAD PUSH2 0xCE8 PUSH1 0xCE DUP3 PUSH2 0xEF6 DUP6 DUP3 ADD PUSH2 0x11E5 JUMP JUMPDEST PUSH1 0x0 DUP1 MLOAD PUSH1 0x20 PUSH2 0x2A1A DUP4 CODECOPY DUP2 MLOAD SWAP2 MSTORE DUP2 MSTORE PUSH32 0x6C6F723A236537346333633B73746F702D6F7061636974793A3122202F3E0000 DUP7 DUP3 ADD MSTORE PUSH1 0x0 DUP1 MLOAD PUSH1 0x20 PUSH2 0x2A3A DUP4 CODECOPY DUP2 MLOAD SWAP2 MSTORE PUSH1 0x3E DUP3 ADD MSTORE PUSH32 0x6F6C6F723A236139333232363B73746F702D6F7061636974793A3122202F3E00 PUSH1 0x5E DUP3 ADD MSTORE PUSH1 0x0 DUP1 MLOAD PUSH1 0x20 PUSH2 0x2A5A DUP4 CODECOPY DUP2 MLOAD SWAP2 MSTORE PUSH1 0x7D DUP3 ADD MSTORE PUSH32 0x636F6C6F723A233662316631373B73746F702D6F7061636974793A3122202F3E PUSH1 0x9D DUP3 ADD MSTORE PUSH17 0x1E17B930B234B0B623B930B234B2B73A1F PUSH1 0x79 SHL PUSH1 0xBD DUP3 ADD MSTORE SUB PUSH1 0xAE DUP2 ADD DUP5 MSTORE ADD DUP3 PUSH2 0x113D JUMP JUMPDEST PUSH2 0x10B8 DUP3 PUSH2 0xFD9 PUSH2 0x140 DUP3 ADD PUSH2 0x11E5 JUMP JUMPDEST PUSH1 0x0 DUP1 MLOAD PUSH1 0x20 PUSH2 0x2A1A DUP4 CODECOPY DUP2 MLOAD SWAP2 MSTORE DUP2 MSTORE PUSH32 0x6C6F723A233561363764383B73746F702D6F7061636974793A3122202F3E0000 PUSH1 0x20 DUP3 ADD MSTORE PUSH1 0x0 DUP1 MLOAD PUSH1 0x20 PUSH2 0x2A3A DUP4 CODECOPY DUP2 MLOAD SWAP2 MSTORE PUSH1 0x3E DUP3 ADD MSTORE PUSH32 0x6F6C6F723A233463353162663B73746F702D6F7061636974793A3122202F3E00 PUSH1 0x5E DUP3 ADD MSTORE PUSH1 0x0 DUP1 MLOAD PUSH1 0x20 PUSH2 0x2A5A DUP4 CODECOPY DUP2 MLOAD SWAP2 MSTORE PUSH1 0x7D DUP3 ADD MSTORE PUSH32 0x636F6C6F723A233363333636623B73746F702D6F7061636974793A3122202F3E PUSH1 0x9D DUP3 ADD MSTORE PUSH17 0x1E17B930B234B0B623B930B234B2B73A1F PUSH1 0x79 SHL PUSH1 0xBD DUP3 ADD MSTORE SUB PUSH1 0x71 NOT DUP2 ADD PUSH2 0x120 DUP6 ADD MSTORE PUSH1 0x51 NOT ADD PUSH2 0x120 DUP5 ADD PUSH2 0x113D JUMP JUMPDEST PUSH2 0x373 PUSH1 0x20 PUSH2 0x120 DUP5 ADD SWAP4 PUSH2 0x33B JUMP JUMPDEST PUSH1 0x0 DUP1 REVERT JUMPDEST PUSH1 0xE0 DUP2 ADD SWAP1 DUP2 LT PUSH8 0xFFFFFFFFFFFFFFFF DUP3 GT OR PUSH2 0xBE7 JUMPI PUSH1 0x40 MSTORE JUMP JUMPDEST PUSH1 0x20 DUP2 ADD SWAP1 DUP2 LT PUSH8 0xFFFFFFFFFFFFFFFF DUP3 GT OR PUSH2 0xBE7 JUMPI PUSH1 0x40 MSTORE JUMP JUMPDEST PUSH1 0x40 DUP2 ADD SWAP1 DUP2 LT PUSH8 0xFFFFFFFFFFFFFFFF DUP3 GT OR PUSH2 0xBE7 JUMPI PUSH1 0x40 MSTORE JUMP JUMPDEST PUSH1 0xC0 DUP2 ADD SWAP1 DUP2 LT PUSH8 0xFFFFFFFFFFFFFFFF DUP3 GT OR PUSH2 0xBE7 JUMPI PUSH1 0x40 MSTORE JUMP JUMPDEST SWAP1 PUSH1 0x1F DUP1 NOT SWAP2 ADD AND DUP2 ADD SWAP1 DUP2 LT PUSH8 0xFFFFFFFFFFFFFFFF DUP3 GT OR PUSH2 0xBE7 JUMPI PUSH1 0x40 MSTORE JUMP JUMPDEST PUSH8 0xFFFFFFFFFFFFFFFF DUP2 GT PUSH2 0xBE7 JUMPI PUSH1 0x1F ADD PUSH1 0x1F NOT AND PUSH1 0x20 ADD SWAP1 JUMP JUMPDEST DUP2 PUSH1 0x1F DUP3 ADD SLT ISZERO PUSH2 0x10C8 JUMPI DUP1 CALLDATALOAD SWAP1 PUSH2 0x1192 DUP3 PUSH2 0x115F JUMP JUMPDEST SWAP3 PUSH2 0x11A0 PUSH1 0x40 MLOAD SWAP5 DUP6 PUSH2 0x113D JUMP JUMPDEST DUP3 DUP5 MSTORE PUSH1 0x20 DUP4 DUP4 ADD ADD GT PUSH2 0x10C8 JUMPI DUP2 PUSH1 0x0 SWAP3 PUSH1 0x20 DUP1 SWAP4 ADD DUP4 DUP7 ADD CALLDATACOPY DUP4 ADD ADD MSTORE SWAP1 JUMP JUMPDEST PUSH1 0x0 JUMPDEST DUP4 DUP2 LT PUSH2 0x11D5 JUMPI POP POP PUSH1 0x0 SWAP2 ADD MSTORE JUMP JUMPDEST DUP2 DUP2 ADD MLOAD DUP4 DUP3 ADD MSTORE PUSH1 0x20 ADD PUSH2 0x11C5 JUMP JUMPDEST PUSH32 0x3C72616469616C4772616469656E742069643D22626F6479222063783D223530 DUP2 MSTORE PUSH20 0x12911031BC9E911A18129110391E911B1812911F PUSH1 0x61 SHL PUSH1 0x20 DUP3 ADD MSTORE PUSH1 0x34 ADD SWAP1 JUMP JUMPDEST PUSH1 0x4 DUP2 LT PUSH2 0x1313 JUMPI POP PUSH1 0x40 MLOAD PUSH2 0x1240 DUP2 PUSH2 0x10CD JUMP JUMPDEST PUSH1 0xA5 DUP2 MSTORE PUSH32 0x3C66696C7465722069643D22676C6F77223E3C6665476175737369616E426C75 PUSH1 0x20 DUP3 ADD MSTORE PUSH32 0x7220737464446576696174696F6E3D22362220726573756C743D22636F6C6F72 PUSH1 0x40 DUP3 ADD MSTORE PUSH32 0x6564426C7572222F3E3C66654D657267653E3C66654D657267654E6F64652069 PUSH1 0x60 DUP3 ADD MSTORE PUSH32 0x6E3D22636F6C6F726564426C7572222F3E3C66654D657267654E6F646520696E PUSH1 0x80 DUP3 ADD MSTORE PUSH32 0x3D22536F7572636547726170686963222F3E3C2F66654D657267653E3C2F6669 PUSH1 0xA0 DUP3 ADD MSTORE PUSH5 0x363A32B91F PUSH1 0xD9 SHL PUSH1 0xC0 DUP3 ADD MSTORE SWAP1 JUMP JUMPDEST PUSH1 0x2 GT ISZERO PUSH2 0x132E JUMPI PUSH1 0x40 MLOAD PUSH2 0x1327 DUP2 PUSH2 0x10E9 JUMP JUMPDEST PUSH1 0x0 DUP2 MSTORE SWAP1 JUMP JUMPDEST PUSH1 0x40 MLOAD PUSH2 0x133A DUP2 PUSH2 0x10CD JUMP JUMPDEST PUSH1 0xA5 DUP2 MSTORE PUSH32 0x3C66696C7465722069643D22676C6F77223E3C6665476175737369616E426C75 PUSH1 0x20 DUP3 ADD MSTORE PUSH32 0x7220737464446576696174696F6E3D22332220726573756C743D22636F6C6F72 PUSH1 0x40 DUP3 ADD MSTORE PUSH32 0x6564426C7572222F3E3C66654D657267653E3C66654D657267654E6F64652069 PUSH1 0x60 DUP3 ADD MSTORE PUSH32 0x6E3D22636F6C6F726564426C7572222F3E3C66654D657267654E6F646520696E PUSH1 0x80 DUP3 ADD MSTORE PUSH32 0x3D22536F7572636547726170686963222F3E3C2F66654D657267653E3C2F6669 PUSH1 0xA0 DUP3 ADD MSTORE PUSH5 0x363A32B91F PUSH1 0xD9 SHL PUSH1 0xC0 DUP3 ADD MSTORE SWAP1 JUMP JUMPDEST PUSH1 0x40 DUP1 SWAP2 ADD MLOAD PUSH1 0x2 DUP2 LT ISZERO PUSH2 0x1427 JUMPI POP MLOAD PUSH2 0x1327 DUP2 PUSH2 0x10E9 JUMP JUMPDEST PUSH32 0x22207374726F6B652D77696474683D223222206F7061636974793D22302E3422 SWAP2 PUSH2 0x169C SWAP2 PUSH2 0x186 SWAP2 SWAP1 PUSH1 0x5 DUP2 LT PUSH2 0x169F JUMPI POP DUP1 MLOAD PUSH2 0x1466 DUP2 PUSH2 0x1105 JUMP JUMPDEST PUSH1 0x7 DUP2 MSTORE PUSH7 0x2346464437303 PUSH1 0xCC SHL PUSH1 0x20 DUP3 ADD MSTORE SWAP1 JUMPDEST DUP1 MLOAD SWAP5 DUP6 SWAP3 PUSH32 0x3C636972636C652063783D22323030222063793D223230302220723D22313330 PUSH1 0x20 DUP6 ADD MSTORE PUSH8 0x11103334B6361E91 PUSH1 0xC1 SHL DUP1 SWAP4 DUP6 ADD MSTORE DUP1 MLOAD SWAP3 PUSH1 0x20 DUP3 ADD SWAP4 PUSH2 0x14CE DUP2 PUSH1 0x48 DUP9 ADD DUP8 PUSH2 0x11C2 JUMP JUMPDEST DUP6 ADD PUSH18 0x111037B830B1B4BA3C9E911817189A91179F PUSH1 0x71 SHL PUSH1 0x48 DUP3 ADD MSTORE PUSH32 0x3C636972636C652063783D22323030222063793D223230302220723D22313230 PUSH1 0x5A DUP3 ADD MSTORE DUP2 PUSH1 0x7A DUP3 ADD MSTORE DUP3 MLOAD SWAP1 PUSH2 0x1528 DUP3 PUSH1 0x82 DUP4 ADD DUP9 PUSH2 0x11C2 JUMP JUMPDEST ADD SWAP1 PUSH17 0x111037B830B1B4BA3C9E9118171891179F PUSH1 0x79 SHL PUSH1 0x82 DUP4 ADD MSTORE PUSH32 0x3C636972636C652063783D22323030222063793D223230302220723D22313130 PUSH1 0x93 DUP4 ADD MSTORE PUSH1 0xB3 DUP3 ADD MSTORE DUP2 MLOAD SWAP1 PUSH2 0x1580 DUP3 PUSH1 0xBB DUP4 ADD DUP8 PUSH2 0x11C2 JUMP JUMPDEST ADD SWAP1 PUSH18 0x111037B830B1B4BA3C9E911817181C11179F PUSH1 0x71 SHL PUSH1 0xBB DUP4 ADD MSTORE PUSH32 0x3C636972636C652063783D22323030222063793D223230302220723D22313235 PUSH1 0xCD DUP4 ADD MSTORE PUSH22 0x11103334B6361E913737B732911039BA3937B5B29E91 PUSH1 0x51 SHL PUSH1 0xED DUP4 ADD MSTORE MLOAD SWAP1 PUSH2 0x15F5 DUP3 PUSH2 0x103 SWAP6 DUP7 DUP5 ADD SWAP1 PUSH2 0x11C2 JUMP JUMPDEST ADD SWAP2 DUP3 ADD MSTORE PUSH1 0x1F PUSH1 0xF9 SHL PUSH2 0x123 DUP3 ADD MSTORE PUSH32 0x3C616E696D617465206174747269627574654E616D653D226F70616369747922 PUSH2 0x124 DUP3 ADD MSTORE PUSH32 0x2076616C7565733D22302E323B302E363B302E3222206475723D223373222072 PUSH2 0x144 DUP3 ADD MSTORE PUSH32 0x6570656174436F756E743D22696E646566696E697465222F3E00000000000000 PUSH2 0x164 DUP3 ADD MSTORE PUSH9 0x1E17B1B4B931B6329F PUSH1 0xB9 SHL PUSH2 0x17D DUP3 ADD MSTORE SUB PUSH2 0x166 DUP2 ADD DUP5 MSTORE ADD DUP3 PUSH2 0x113D JUMP JUMPDEST SWAP1 JUMP JUMPDEST PUSH1 0x4 DUP2 LT PUSH2 0x16CD JUMPI POP DUP1 MLOAD PUSH2 0x16B3 DUP2 PUSH2 0x1105 JUMP JUMPDEST PUSH1 0x7 DUP2 MSTORE PUSH7 0x8D9998D988E59 PUSH1 0xCA SHL PUSH1 0x20 DUP3 ADD MSTORE SWAP1 PUSH2 0x147C JUMP JUMPDEST PUSH1 0x3 GT PUSH2 0x16F9 JUMPI DUP1 MLOAD PUSH2 0x16DF DUP2 PUSH2 0x1105 JUMP JUMPDEST PUSH1 0x7 DUP2 MSTORE PUSH7 0x23383336454639 PUSH1 0xC8 SHL PUSH1 0x20 DUP3 ADD MSTORE SWAP1 PUSH2 0x147C JUMP JUMPDEST DUP1 MLOAD PUSH2 0x1704 DUP2 PUSH2 0x1105 JUMP JUMPDEST PUSH1 0x7 DUP2 MSTORE PUSH7 0x8D04C0C0D4D51 PUSH1 0xCA SHL PUSH1 0x20 DUP3 ADD MSTORE SWAP1 PUSH2 0x147C JUMP JUMPDEST PUSH1 0x40 MLOAD SWAP1 PUSH2 0x172B DUP3 PUSH2 0x1105 JUMP JUMPDEST PUSH1 0x14 DUP3 MSTORE PUSH20 0x103334B63A32B91E913AB9361411B3B637BB9491 PUSH1 0x61 SHL PUSH1 0x20 DUP4 ADD MSTORE JUMP JUMPDEST PUSH1 0x40 MLOAD SWAP1 PUSH2 0x175B DUP3 PUSH2 0x1105 JUMP JUMPDEST PUSH1 0x1F DUP3 MSTORE PUSH32 0x207374726F6B653D222330303022207374726F6B652D77696474683D22332200 PUSH1 0x20 DUP4 ADD MSTORE JUMP JUMPDEST PUSH1 0x40 SWAP1 PUSH1 0x2 DUP3 DUP3 ADD MLOAD LT ISZERO PUSH1 0x0 SWAP1 PUSH1 0x0 EQ PUSH2 0x1936 JUMPI POP PUSH2 0x17A5 PUSH2 0x171E JUMP JUMPDEST SWAP1 JUMPDEST PUSH2 0x17AF PUSH2 0x174E JUMP JUMPDEST PUSH1 0x20 DUP1 SWAP3 ADD MLOAD DUP1 ISZERO SWAP1 DUP2 ISZERO PUSH2 0x192B JUMPI JUMPDEST DUP2 ISZERO PUSH2 0x1920 JUMPI JUMPDEST DUP2 ISZERO PUSH2 0x1915 JUMPI JUMPDEST POP ISZERO PUSH2 0x186D JUMPI SWAP3 PUSH2 0x169C SWAP3 PUSH1 0x5E SWAP3 PUSH2 0x1853 PUSH32 0x35222072793D223235222066696C6C3D2275726C2823626F6479292200000000 SWAP7 DUP5 MLOAD SWAP8 DUP9 SWAP6 PUSH32 0x3C656C6C697073652063783D22323030222063793D22323830222072783D2234 DUP6 DUP9 ADD MSTORE DUP7 ADD MSTORE PUSH2 0x1840 DUP2 MLOAD DUP1 SWAP3 DUP6 PUSH1 0x5C DUP10 ADD SWAP2 ADD PUSH2 0x11C2 JUMP JUMPDEST DUP5 ADD SWAP2 DUP4 MLOAD SWAP4 DUP5 SWAP2 PUSH1 0x5C DUP6 ADD SWAP2 ADD PUSH2 0x11C2 JUMP JUMPDEST ADD PUSH2 0x179F PUSH1 0xF1 SHL PUSH1 0x5C DUP3 ADD MSTORE SUB PUSH1 0x3E DUP2 ADD DUP5 MSTORE ADD DUP3 PUSH2 0x113D JUMP JUMPDEST SWAP3 PUSH2 0x169C SWAP3 PUSH1 0x67 SWAP3 PUSH2 0x18FB PUSH32 0x206865696768743D223430222066696C6C3D2275726C2823626F647929222072 SWAP7 DUP5 MLOAD SWAP8 DUP9 SWAP6 PUSH32 0x3C7265637420783D223136302220793D22323630222077696474683D22383022 DUP6 DUP9 ADD MSTORE DUP7 ADD MSTORE PUSH5 0x3C1E911C11 PUSH1 0xD9 SHL PUSH1 0x60 DUP7 ADD MSTORE PUSH2 0x18E8 DUP2 MLOAD DUP1 SWAP3 DUP6 PUSH1 0x65 DUP10 ADD SWAP2 ADD PUSH2 0x11C2 JUMP JUMPDEST DUP5 ADD SWAP2 DUP4 MLOAD SWAP4 DUP5 SWAP2 PUSH1 0x65 DUP6 ADD SWAP2 ADD PUSH2 0x11C2 JUMP JUMPDEST ADD PUSH2 0x179F PUSH1 0xF1 SHL PUSH1 0x65 DUP3 ADD MSTORE SUB PUSH1 0x47 DUP2 ADD DUP5 MSTORE ADD DUP3 PUSH2 0x113D JUMP JUMPDEST PUSH1 0x3 SWAP2 POP EQ CODESIZE PUSH2 0x17CD JUMP JUMPDEST PUSH1 0x2 DUP2 EQ SWAP2 POP PUSH2 0x17C6 JUMP JUMPDEST PUSH1 0x1 DUP2 EQ SWAP2 POP PUSH2 0x17BF JUMP JUMPDEST DUP3 MLOAD SWAP1 PUSH2 0x1942 DUP3 PUSH2 0x10E9 JUMP JUMPDEST DUP2 MSTORE SWAP1 PUSH2 0x17A7 JUMP JUMPDEST PUSH1 0x40 DUP2 DUP2 ADD MLOAD PUSH1 0x0 SWAP1 PUSH1 0x2 GT PUSH2 0x1AEB JUMPI POP PUSH2 0x1963 PUSH2 0x171E JUMP JUMPDEST PUSH2 0x196B PUSH2 0x174E JUMP JUMPDEST SWAP3 PUSH1 0x20 DUP1 SWAP2 ADD MLOAD DUP1 ISZERO SWAP1 DUP2 ISZERO PUSH2 0x1AE0 JUMPI JUMPDEST DUP2 ISZERO PUSH2 0x1AD5 JUMPI JUMPDEST DUP2 ISZERO PUSH2 0x1ACA JUMPI JUMPDEST POP ISZERO PUSH2 0x1A1F JUMPI SWAP2 PUSH1 0x54 SWAP2 PUSH2 0x169C SWAP4 PUSH2 0x1A05 DUP4 MLOAD SWAP7 DUP8 SWAP5 PUSH32 0x3C636972636C652063783D22323030222063793D223138302220723D22363522 DUP5 DUP8 ADD MSTORE PUSH18 0x103334B6361E913AB9361411B137B23C9491 PUSH1 0x71 SHL SWAP1 DUP7 ADD MSTORE PUSH2 0x19F2 DUP2 MLOAD DUP1 SWAP3 DUP6 PUSH1 0x52 DUP10 ADD SWAP2 ADD PUSH2 0x11C2 JUMP JUMPDEST DUP5 ADD SWAP2 DUP4 MLOAD SWAP4 DUP5 SWAP2 PUSH1 0x52 DUP6 ADD SWAP2 ADD PUSH2 0x11C2 JUMP JUMPDEST ADD PUSH2 0x179F PUSH1 0xF1 SHL PUSH1 0x52 DUP3 ADD MSTORE SUB PUSH1 0x34 DUP2 ADD DUP5 MSTORE ADD DUP3 PUSH2 0x113D JUMP JUMPDEST SWAP2 PUSH1 0x6A SWAP2 PUSH2 0x169C SWAP4 PUSH2 0x1AB0 PUSH32 0x22206865696768743D22313230222066696C6C3D2275726C2823626F64792922 SWAP7 DUP5 MLOAD SWAP8 DUP9 SWAP6 PUSH32 0x3C7265637420783D223134302220793D22313230222077696474683D22313230 DUP6 DUP9 ADD MSTORE DUP7 ADD MSTORE PUSH8 0x10393C1E91191811 PUSH1 0xC1 SHL PUSH1 0x60 DUP7 ADD MSTORE PUSH2 0x1A9D DUP2 MLOAD DUP1 SWAP3 DUP6 PUSH1 0x68 DUP10 ADD SWAP2 ADD PUSH2 0x11C2 JUMP JUMPDEST DUP5 ADD SWAP2 DUP4 MLOAD SWAP4 DUP5 SWAP2 PUSH1 0x68 DUP6 ADD SWAP2 ADD PUSH2 0x11C2 JUMP JUMPDEST ADD PUSH2 0x179F PUSH1 0xF1 SHL PUSH1 0x68 DUP3 ADD MSTORE SUB PUSH1 0x4A DUP2 ADD DUP5 MSTORE ADD DUP3 PUSH2 0x113D JUMP JUMPDEST PUSH1 0x3 SWAP2 POP EQ CODESIZE PUSH2 0x198A JUMP JUMPDEST PUSH1 0x2 DUP2 EQ SWAP2 POP PUSH2 0x1983 JUMP JUMPDEST PUSH1 0x1 DUP2 EQ SWAP2 POP PUSH2 0x197C JUMP JUMPDEST DUP2 MLOAD SWAP1 PUSH2 0x1AF7 DUP3 PUSH2 0x10E9 JUMP JUMPDEST DUP2 MSTORE PUSH2 0x1963 JUMP JUMPDEST PUSH32 0x3C636972636C652063783D22313735222063793D223136352220723D22313822 DUP2 MSTORE PUSH32 0x2066696C6C3D222346464646464622207374726F6B653D222330303022207374 PUSH1 0x20 DUP3 ADD MSTORE PUSH16 0x3937B5B296BBB4B23A341E911911179F PUSH1 0x81 SHL PUSH1 0x40 DUP3 ADD MSTORE PUSH1 0x50 ADD SWAP1 JUMP JUMPDEST PUSH1 0x20 ADD MLOAD PUSH1 0x4 SUB PUSH2 0x1DFE JUMPI PUSH1 0x40 MLOAD PUSH2 0x169C PUSH1 0x39 DUP3 PUSH2 0x1DAB PUSH2 0x1D5C PUSH2 0x1D0D PUSH2 0x1CCB PUSH2 0x1C89 PUSH2 0x1C46 PUSH2 0x1C03 PUSH2 0x1B9B PUSH1 0x20 DUP10 ADD PUSH2 0x1AFE JUMP JUMPDEST PUSH32 0x3C636972636C652063783D22323235222063793D223136352220723D22313822 DUP2 MSTORE PUSH32 0x2066696C6C3D222346464646464622207374726F6B653D222330303022207374 PUSH1 0x20 DUP3 ADD MSTORE PUSH16 0x3937B5B296BBB4B23A341E911911179F PUSH1 0x81 SHL PUSH1 0x40 DUP3 ADD MSTORE PUSH1 0x50 ADD SWAP1 JUMP JUMPDEST PUSH32 0x3C636972636C652063783D22313735222063793D223136352220723D22313022 DUP2 MSTORE PUSH17 0x103334B6361E911198181818181811179F PUSH1 0x79 SHL PUSH1 0x20 DUP3 ADD MSTORE PUSH1 0x31 ADD SWAP1 JUMP JUMPDEST PUSH32 0x3C636972636C652063783D22323235222063793D223136352220723D22313022 DUP2 MSTORE PUSH17 0x103334B6361E911198181818181811179F PUSH1 0x79 SHL PUSH1 0x20 DUP3 ADD MSTORE PUSH1 0x31 ADD SWAP1 JUMP JUMPDEST PUSH32 0x3C636972636C652063783D22313738222063793D223136322220723D22332220 DUP2 MSTORE PUSH16 0x3334B6361E9111A3232323232311179F PUSH1 0x81 SHL PUSH1 0x20 DUP3 ADD MSTORE PUSH1 0x30 ADD SWAP1 JUMP JUMPDEST PUSH32 0x3C636972636C652063783D22323238222063793D223136322220723D22332220 DUP2 MSTORE PUSH16 0x3334B6361E9111A3232323232311179F PUSH1 0x81 SHL PUSH1 0x20 DUP3 ADD MSTORE PUSH1 0x30 ADD SWAP1 JUMP JUMPDEST PUSH32 0x3C636972636C652063783D22313830222063793D223136382220723D22312E35 DUP2 MSTORE PUSH32 0x222066696C6C3D222346464646464622206F7061636974793D22302E37222F3E PUSH1 0x20 DUP3 ADD MSTORE PUSH1 0x40 ADD SWAP1 JUMP JUMPDEST PUSH32 0x3C636972636C652063783D22323330222063793D223136382220723D22312E35 DUP2 MSTORE PUSH32 0x222066696C6C3D222346464646464622206F7061636974793D22302E37222F3E PUSH1 0x20 DUP3 ADD MSTORE PUSH1 0x40 ADD SWAP1 JUMP JUMPDEST PUSH32 0x3C656C6C697073652063783D22323030222063793D22313930222072783D2236 DUP2 MSTORE PUSH25 0x1110393C9E911A11103334B6361E911198181818181811179F PUSH1 0x39 SHL PUSH1 0x20 DUP3 ADD MSTORE SUB PUSH1 0x19 DUP2 ADD DUP5 MSTORE ADD DUP3 PUSH2 0x113D JUMP JUMPDEST PUSH1 0x40 MLOAD PUSH2 0x169C PUSH1 0x39 DUP3 PUSH2 0x1E28 PUSH2 0x1D5C PUSH2 0x1D0D PUSH2 0x1CCB PUSH2 0x1C89 PUSH2 0x1C46 PUSH2 0x1C03 PUSH2 0x1B9B PUSH1 0x20 DUP10 ADD PUSH2 0x1AFE JUMP JUMPDEST PUSH32 0x3C656C6C697073652063783D22323030222063793D22323030222072783D2236 DUP2 MSTORE PUSH25 0x1110393C9E911A11103334B6361E911198181818181811179F PUSH1 0x39 SHL PUSH1 0x20 DUP3 ADD MSTORE SUB PUSH1 0x19 DUP2 ADD DUP5 MSTORE ADD DUP3 PUSH2 0x113D JUMP JUMPDEST PUSH1 0x20 SWAP1 DUP2 ADD MLOAD DUP1 PUSH2 0x1F53 JUMPI POP PUSH32 0x3C7265637420783D223138352220793D22313130222077696474683D22333022 PUSH1 0x40 MLOAD SWAP2 DUP3 ADD MSTORE PUSH32 0x206865696768743D223132222066696C6C3D222338423435313322207374726F PUSH1 0x40 DUP3 ADD MSTORE PUSH32 0x6B653D222330303022207374726F6B652D77696474683D2231222072783D2233 PUSH1 0x60 DUP3 ADD MSTORE PUSH3 0x11179F PUSH1 0xE9 SHL PUSH1 0x80 DUP3 ADD MSTORE PUSH32 0x3C636972636C652063783D22323030222063793D223131362220723D22322220 PUSH1 0x83 DUP3 ADD MSTORE PUSH16 0x3334B6361E9111A323221B981811179F PUSH1 0x81 SHL PUSH1 0xA3 DUP3 ADD MSTORE PUSH1 0x93 DUP2 MSTORE PUSH2 0x169C DUP2 PUSH2 0x1121 JUMP JUMPDEST PUSH1 0x1 DUP2 SUB PUSH2 0x2010 JUMPI POP PUSH32 0x3C636972636C652063783D22323030222063793D223131352220723D22332220 PUSH1 0x40 MLOAD SWAP2 DUP3 ADD MSTORE PUSH32 0x66696C6C3D222332303030353222207374726F6B653D22233030302220737472 PUSH1 0x40 DUP3 ADD MSTORE PUSH15 0x37B5B296BBB4B23A341E911891179F PUSH1 0x89 SHL PUSH1 0x60 DUP3 ADD MSTORE PUSH32 0x3C636972636C652063783D22323030222063793D223131352220723D22312E35 PUSH1 0x6F DUP3 ADD MSTORE PUSH18 0x11103334B6361E9111A098181A9AA211179F PUSH1 0x71 SHL PUSH1 0x8F DUP3 ADD MSTORE PUSH1 0x81 DUP2 MSTORE PUSH2 0x169C DUP2 PUSH2 0x1121 JUMP JUMPDEST PUSH1 0x2 DUP2 SUB PUSH2 0x20D7 JUMPI POP PUSH32 0x3C706F6C79676F6E20706F696E74733D223230302C313035203138382C313233 PUSH1 0x40 MLOAD SWAP2 DUP3 ADD MSTORE PUSH32 0x203231322C313233222066696C6C3D222334613930653222207374726F6B653D PUSH1 0x40 DUP3 ADD MSTORE PUSH25 0x1111981818111039BA3937B5B296BBB4B23A341E911891179F PUSH1 0x39 SHL PUSH1 0x60 DUP3 ADD MSTORE PUSH32 0x3C636972636C652063783D22323030222063793D223132302220723D22312E35 PUSH1 0x79 DUP3 ADD MSTORE PUSH18 0x11103334B6361E9111A323221B981811179F PUSH1 0x71 SHL PUSH1 0x99 DUP3 ADD MSTORE PUSH1 0x8B DUP2 MSTORE PUSH2 0x169C DUP2 PUSH2 0x1121 JUMP JUMPDEST PUSH1 0x3 SUB PUSH2 0x21AD JUMPI PUSH32 0x3C706F6C79676F6E20706F696E74733D223136352C313430203136382C313235 PUSH1 0x40 MLOAD SWAP2 DUP3 ADD MSTORE PUSH32 0x203137322C313430222066696C6C3D222365373463336322207374726F6B653D PUSH1 0x40 DUP3 ADD MSTORE PUSH25 0x1111981818111039BA3937B5B296BBB4B23A341E911891179F PUSH1 0x39 SHL DUP1 PUSH1 0x60 DUP4 ADD MSTORE PUSH32 0x3C706F6C79676F6E20706F696E74733D223232382C313430203233312C313235 PUSH1 0x79 DUP4 ADD MSTORE PUSH32 0x203233352C313430222066696C6C3D222365373463336322207374726F6B653D PUSH1 0x99 DUP4 ADD MSTORE PUSH1 0xB9 DUP3 ADD MSTORE PUSH1 0xB2 DUP2 MSTORE PUSH2 0x169C DUP2 PUSH2 0x10CD JUMP JUMPDEST PUSH32 0x3C7265637420783D223139302220793D22313130222077696474683D22323022 PUSH1 0x40 MLOAD SWAP2 DUP3 ADD MSTORE PUSH32 0x206865696768743D2238222066696C6C3D222335613637643822207374726F6B PUSH1 0x40 DUP3 ADD MSTORE PUSH32 0x653D222330303022207374726F6B652D77696474683D2231222072783D223222 PUSH1 0x60 DUP3 ADD MSTORE PUSH2 0x179F PUSH1 0xF1 SHL PUSH1 0x80 DUP3 ADD MSTORE PUSH32 0x3C636972636C652063783D22323030222063793D223131342220723D22312E35 PUSH1 0x82 DUP3 ADD MSTORE PUSH18 0x11103334B6361E9111A323221B981811179F PUSH1 0x71 SHL PUSH1 0xA2 DUP3 ADD MSTORE PUSH1 0x94 DUP2 MSTORE PUSH2 0x169C DUP2 PUSH2 0x1121 JUMP JUMPDEST PUSH1 0x40 SWAP1 DUP2 ADD MLOAD PUSH1 0x5 DUP2 SUB PUSH2 0x249E JUMPI POP DUP1 MLOAD SWAP1 PUSH32 0x3C636972636C652063783D22313330222063793D223133302220723D22322220 PUSH1 0x20 DUP4 ADD MSTORE PUSH32 0x66696C6C3D222346464437303022206F7061636974793D22302E38223E000000 DUP2 DUP4 ADD MSTORE PUSH32 0x3C616E696D617465206174747269627574654E616D653D226F70616369747922 DUP1 PUSH1 0x5D DUP5 ADD MSTORE PUSH32 0x2076616C7565733D22303B313B3022206475723D223273222072657065617443 PUSH1 0x7D DUP5 ADD MSTORE PUSH19 0x37BAB73A1E9134B73232B334B734BA3291179F PUSH1 0x69 SHL PUSH1 0x9D DUP5 ADD MSTORE PUSH9 0x1E17B1B4B931B6329F PUSH1 0xB9 SHL SWAP1 DUP2 PUSH1 0xB0 DUP6 ADD MSTORE PUSH32 0x3C636972636C652063783D22323730222063793D223135302220723D22312E35 PUSH1 0xB9 DUP6 ADD MSTORE PUSH32 0x222066696C6C3D222346464437303022206F7061636974793D22302E36223E00 PUSH1 0xD9 DUP6 ADD MSTORE DUP1 PUSH1 0xF8 DUP6 ADD MSTORE PUSH32 0x2076616C7565733D22303B313B3022206475723D22312E357322207265706561 PUSH2 0x118 DUP6 ADD MSTORE PUSH21 0x3A21B7BAB73A1E9134B73232B334B734BA3291179F PUSH1 0x59 SHL SWAP1 DUP2 PUSH2 0x138 DUP7 ADD MSTORE DUP3 PUSH2 0x14D DUP7 ADD MSTORE PUSH32 0x3C636972636C652063783D22313530222063793D223238302220723D22322220 PUSH2 0x156 DUP7 ADD MSTORE PUSH32 0x66696C6C3D222346464437303022206F7061636974793D22302E37223E000000 PUSH2 0x176 DUP7 ADD MSTORE PUSH2 0x193 DUP6 ADD MSTORE PUSH32 0x2076616C7565733D22303B313B3022206475723D22322E357322207265706561 PUSH2 0x1B3 DUP6 ADD MSTORE PUSH2 0x1D3 DUP5 ADD MSTORE PUSH2 0x1E8 DUP4 ADD MSTORE PUSH2 0x1D1 DUP3 MSTORE PUSH2 0x200 DUP3 ADD SWAP1 DUP3 DUP3 LT PUSH8 0xFFFFFFFFFFFFFFFF DUP4 GT OR PUSH2 0xBE7 JUMPI MSTORE SWAP1 JUMP JUMPDEST PUSH1 0x4 DUP2 SUB PUSH2 0x259E JUMPI POP PUSH32 0x2066696C6C3D226E6F6E6522207374726F6B653D222346464437303022207374 DUP2 MLOAD SWAP2 PUSH32 0x3C636972636C652063783D22323030222063793D223230302220723D22393022 PUSH1 0x20 DUP5 ADD MSTORE DUP3 ADD MSTORE PUSH32 0x726F6B652D77696474683D223222206F7061636974793D22302E34223E000000 PUSH1 0x60 DUP3 ADD MSTORE PUSH32 0x3C616E696D617465206174747269627574654E616D653D2272222076616C7565 PUSH1 0x7D DUP3 ADD MSTORE PUSH32 0x733D2238353B39353B383522206475723D2233732220726570656174436F756E PUSH1 0x9D DUP3 ADD MSTORE PUSH16 0x3A1E9134B73232B334B734BA3291179F PUSH1 0x81 SHL PUSH1 0xBD DUP3 ADD MSTORE PUSH9 0x1E17B1B4B931B6329F PUSH1 0xB9 SHL PUSH1 0xCD DUP3 ADD MSTORE PUSH1 0xB6 DUP2 MSTORE PUSH2 0x169C DUP2 PUSH2 0x10CD JUMP JUMPDEST PUSH1 0x3 EQ PUSH2 0x25AF JUMPI MLOAD PUSH2 0x1327 DUP2 PUSH2 0x10E9 JUMP JUMPDEST PUSH32 0x2066696C6C3D226E6F6E6522207374726F6B653D222338333645463922207374 DUP2 MLOAD SWAP2 PUSH32 0x3C636972636C652063783D22323030222063793D223230302220723D22383522 PUSH1 0x20 DUP5 ADD MSTORE DUP3 ADD MSTORE PUSH32 0x726F6B652D77696474683D223122206F7061636974793D22302E33223E000000 PUSH1 0x60 DUP3 ADD MSTORE PUSH32 0x3C616E696D617465206174747269627574654E616D653D2272222076616C7565 PUSH1 0x7D DUP3 ADD MSTORE PUSH32 0x733D2238303B39303B383022206475723D2234732220726570656174436F756E PUSH1 0x9D DUP3 ADD MSTORE PUSH16 0x3A1E9134B73232B334B734BA3291179F PUSH1 0x81 SHL PUSH1 0xBD DUP3 ADD MSTORE PUSH9 0x1E17B1B4B931B6329F PUSH1 0xB9 SHL PUSH1 0xCD DUP3 ADD MSTORE PUSH1 0xB6 DUP2 MSTORE PUSH2 0x169C DUP2 PUSH2 0x10CD JUMP JUMPDEST DUP1 PUSH1 0x0 SWAP2 PUSH27 0x184F03E93FF9F4DAA797ED6E38ED64BF6A1F010000000000000000 DUP1 DUP3 LT ISZERO PUSH2 0x2800 JUMPI JUMPDEST POP PUSH14 0x4EE2D6D415B85ACEF8100000000 DUP1 DUP4 LT ISZERO PUSH2 0x27F1 JUMPI JUMPDEST POP PUSH7 0x2386F26FC10000 DUP1 DUP4 LT ISZERO PUSH2 0x27E2 JUMPI JUMPDEST POP PUSH4 0x5F5E100 DUP1 DUP4 LT ISZERO PUSH2 0x27D3 JUMPI JUMPDEST POP PUSH2 0x2710 DUP1 DUP4 LT ISZERO PUSH2 0x27C4 JUMPI JUMPDEST POP PUSH1 0x64 DUP3 LT ISZERO PUSH2 0x27B4 JUMPI JUMPDEST PUSH1 0xA DUP1 SWAP3 LT ISZERO PUSH2 0x27AA JUMPI JUMPDEST PUSH1 0x1 SWAP1 DUP2 PUSH1 0x21 DUP2 DUP7 ADD SWAP6 PUSH2 0x273F DUP8 PUSH2 0x115F JUMP JUMPDEST SWAP7 PUSH2 0x274D PUSH1 0x40 MLOAD SWAP9 DUP10 PUSH2 0x113D JUMP JUMPDEST DUP1 DUP9 MSTORE PUSH2 0x275C PUSH1 0x1F NOT SWAP2 PUSH2 0x115F JUMP JUMPDEST ADD CALLDATASIZE PUSH1 0x20 DUP10 ADD CALLDATACOPY DUP7 ADD ADD SWAP1 JUMPDEST PUSH2 0x2774 JUMPI JUMPDEST POP POP POP POP SWAP1 JUMP JUMPDEST PUSH1 0x0 NOT ADD SWAP1 DUP4 SWAP1 PUSH16 0x181899199A1A9B1B9C1CB0B131B232B3 PUSH1 0x81 SHL DUP3 DUP3 MOD BYTE DUP4 MSTORE8 DIV SWAP2 DUP3 ISZERO PUSH2 0x27A5 JUMPI SWAP2 SWAP1 DUP3 PUSH2 0x2768 JUMP JUMPDEST PUSH2 0x276D JUMP JUMPDEST SWAP2 PUSH1 0x1 ADD SWAP2 PUSH2 0x272C JUMP JUMPDEST SWAP2 SWAP1 PUSH1 0x64 PUSH1 0x2 SWAP2 DIV SWAP2 ADD SWAP2 PUSH2 0x2721 JUMP JUMPDEST PUSH1 0x4 SWAP2 SWAP4 SWAP3 DIV SWAP2 ADD SWAP2 CODESIZE PUSH2 0x2716 JUMP JUMPDEST PUSH1 0x8 SWAP2 SWAP4 SWAP3 DIV SWAP2 ADD SWAP2 CODESIZE PUSH2 0x2709 JUMP JUMPDEST PUSH1 0x10 SWAP2 SWAP4 SWAP3 DIV SWAP2 ADD SWAP2 CODESIZE PUSH2 0x26FA JUMP JUMPDEST PUSH1 0x20 SWAP2 SWAP4 SWAP3 DIV SWAP2 ADD SWAP2 CODESIZE PUSH2 0x26E8 JUMP JUMPDEST PUSH1 0x40 SWAP4 POP DUP2 DIV SWAP2 POP CODESIZE PUSH2 0x26CF JUMP JUMPDEST PUSH1 0x40 MLOAD SWAP1 PUSH2 0x281B DUP3 PUSH2 0x1105 JUMP JUMPDEST PUSH1 0x7 DUP3 MSTORE PUSH7 0x2AB735B737BBB7 PUSH1 0xC9 SHL PUSH1 0x20 DUP4 ADD MSTORE JUMP JUMPDEST DUP1 ISZERO PUSH2 0x28EE JUMPI PUSH1 0x1 DUP2 EQ PUSH2 0x28C9 JUMPI PUSH1 0x2 DUP2 EQ PUSH2 0x28A8 JUMPI PUSH1 0x3 DUP2 EQ PUSH2 0x2882 JUMPI PUSH1 0x4 EQ PUSH2 0x285E JUMPI PUSH2 0x169C PUSH2 0x280E JUMP JUMPDEST PUSH1 0x40 MLOAD PUSH2 0x286A DUP2 PUSH2 0x1105 JUMP JUMPDEST PUSH1 0x8 DUP2 MSTORE PUSH8 0x23BAB0B93234B0B7 PUSH1 0xC1 SHL PUSH1 0x20 DUP3 ADD MSTORE SWAP1 JUMP JUMPDEST POP PUSH1 0x40 MLOAD PUSH2 0x288F DUP2 PUSH2 0x1105 JUMP JUMPDEST PUSH1 0x9 DUP2 MSTORE PUSH9 0x2132B939B2B935B2B9 PUSH1 0xB9 SHL PUSH1 0x20 DUP3 ADD MSTORE SWAP1 JUMP JUMPDEST POP PUSH1 0x40 MLOAD PUSH2 0x28B5 DUP2 PUSH2 0x1105 JUMP JUMPDEST PUSH1 0x4 DUP2 MSTORE PUSH4 0x4D616765 PUSH1 0xE0 SHL PUSH1 0x20 DUP3 ADD MSTORE SWAP1 JUMP JUMPDEST POP PUSH1 0x40 MLOAD PUSH2 0x28D6 DUP2 PUSH2 0x1105 JUMP JUMPDEST PUSH1 0x8 DUP2 MSTORE PUSH8 0x20B9B9B0B9B9B4B7 PUSH1 0xC1 SHL PUSH1 0x20 DUP3 ADD MSTORE SWAP1 JUMP JUMPDEST POP PUSH1 0x40 MLOAD PUSH2 0x28FB DUP2 PUSH2 0x1105 JUMP JUMPDEST PUSH1 0x7 DUP2 MSTORE PUSH7 0x2BB0B93934B7B9 PUSH1 0xC9 SHL PUSH1 0x20 DUP3 ADD MSTORE SWAP1 JUMP JUMPDEST DUP1 ISZERO PUSH2 0x29F6 JUMPI PUSH1 0x1 DUP2 EQ PUSH2 0x29D1 JUMPI PUSH1 0x2 DUP2 EQ PUSH2 0x29B0 JUMPI PUSH1 0x3 DUP2 EQ PUSH2 0x298F JUMPI PUSH1 0x4 DUP2 EQ PUSH2 0x2969 JUMPI PUSH1 0x5 EQ PUSH2 0x2947 JUMPI PUSH2 0x169C PUSH2 0x280E JUMP JUMPDEST PUSH1 0x40 MLOAD PUSH2 0x2953 DUP2 PUSH2 0x1105 JUMP JUMPDEST PUSH1 0x6 DUP2 MSTORE PUSH6 0x4D7974686963 PUSH1 0xD0 SHL PUSH1 0x20 DUP3 ADD MSTORE SWAP1 JUMP JUMPDEST POP PUSH1 0x40 MLOAD PUSH2 0x2976 DUP2 PUSH2 0x1105 JUMP JUMPDEST PUSH1 0x9 DUP2 MSTORE PUSH9 0x4C6567656E64617279 PUSH1 0xB8 SHL PUSH1 0x20 DUP3 ADD MSTORE SWAP1 JUMP JUMPDEST POP PUSH1 0x40 MLOAD PUSH2 0x299C DUP2 PUSH2 0x1105 JUMP JUMPDEST PUSH1 0x4 DUP2 MSTORE PUSH4 0x45706963 PUSH1 0xE0 SHL PUSH1 0x20 DUP3 ADD MSTORE SWAP1 JUMP JUMPDEST POP PUSH1 0x40 MLOAD PUSH2 0x29BD DUP2 PUSH2 0x1105 JUMP JUMPDEST PUSH1 0x4 DUP2 MSTORE PUSH4 0x52617265 PUSH1 0xE0 SHL PUSH1 0x20 DUP3 ADD MSTORE SWAP1 JUMP JUMPDEST POP PUSH1 0x40 MLOAD PUSH2 0x29DE DUP2 PUSH2 0x1105 JUMP JUMPDEST PUSH1 0x8 DUP2 MSTORE PUSH8 0x2AB731B7B6B6B7B7 PUSH1 0xC1 SHL PUSH1 0x20 DUP3 ADD MSTORE SWAP1 JUMP JUMPDEST POP PUSH1 0x40 MLOAD PUSH2 0x2A03 DUP2 PUSH2 0x1105 JUMP JUMPDEST PUSH1 0x6 DUP2 MSTORE PUSH6 0x21B7B6B6B7B7 PUSH1 0xD1 SHL PUSH1 0x20 DUP3 ADD MSTORE SWAP1 JUMP INVALID EXTCODECOPY PUSH20 0x746F70206F66667365743D22302522207374796C PUSH6 0x3D2273746F70 0x2D PUSH4 0x6F3C7374 PUSH16 0x70206F66667365743D22373025222073 PUSH21 0x796C653D2273746F702D633C73746F70206F666673 PUSH6 0x743D22313030 0x25 0x22 KECCAK256 PUSH20 0x74796C653D2273746F702DA26469706673582212 KECCAK256 0xA7 SWAP13 0xC6 0x2C JUMPI 0xAC OR 0x5E SHL LOG0 PUSH27 0xF907B9ECEBDE8B92C1AD58935B2FE048ABA9679E7864736F6C6343 STOP ADDMOD EQ STOP CALLER "},"methodIdentifiers":{"generateSVG(string,uint256,uint256,uint256,uint256,uint256,uint256,uint256,uint256,uint256,string,uint256,uint256)":"b669257a"}}}}}