{
  "_format": "hh-sol-artifact-1",
  "contractName": "BattleArena",
  "sourceName": "contracts/BattleArena.sol",
  "abi": [
    {
      "inputs": [
        {
          "internalType": "address",
          "name": "_monanimalContract",
          "type": "address"
        },
        {
          "internalType": "address",
          "name": "_weaponContract",
          "type": "address"
        },
        {
          "internalType": "address",
          "name": "_artifactContract",
          "type": "address"
        }
      ],
      "stateMutability": "nonpayable",
      "type": "constructor"
    },
    {
      "anonymous": false,
      "inputs": [
        {
          "indexed": true,
          "internalType": "uint256",
          "name": "battleId",
          "type": "uint256"
        },
        {
          "indexed": true,
          "internalType": "uint256",
          "name": "actionIndex",
          "type": "uint256"
        },
        {
          "components": [
            {
              "internalType": "uint256",
              "name": "attacker",
              "type": "uint256"
            },
            {
              "internalType": "uint256",
              "name": "defender",
              "type": "uint256"
            },
            {
              "internalType": "string",
              "name": "actionType",
              "type": "string"
            },
            {
              "internalType": "uint256",
              "name": "damage",
              "type": "uint256"
            },
            {
              "internalType": "bool",
              "name": "isCritical",
              "type": "bool"
            },
            {
              "internalType": "bool",
              "name": "isBlocked",
              "type": "bool"
            },
            {
              "internalType": "string",
              "name": "description",
              "type": "string"
            }
          ],
          "indexed": false,
          "internalType": "struct BattleArena.BattleAction",
          "name": "action",
          "type": "tuple"
        }
      ],
      "name": "BattleActionExecuted",
      "type": "event"
    },
    {
      "anonymous": false,
      "inputs": [
        {
          "indexed": true,
          "internalType": "uint256",
          "name": "battleId",
          "type": "uint256"
        },
        {
          "indexed": false,
          "internalType": "uint256",
          "name": "winner",
          "type": "uint256"
        },
        {
          "indexed": false,
          "internalType": "uint256",
          "name": "prizePool",
          "type": "uint256"
        }
      ],
      "name": "BattleCompleted",
      "type": "event"
    },
    {
      "anonymous": false,
      "inputs": [
        {
          "indexed": true,
          "internalType": "uint256",
          "name": "battleId",
          "type": "uint256"
        },
        {
          "indexed": false,
          "internalType": "enum BattleArena.BattleType",
          "name": "battleType",
          "type": "uint8"
        },
        {
          "indexed": false,
          "internalType": "uint256[]",
          "name": "participants",
          "type": "uint256[]"
        }
      ],
      "name": "BattleCreated",
      "type": "event"
    },
    {
      "anonymous": false,
      "inputs": [
        {
          "indexed": true,
          "internalType": "uint256",
          "name": "battleId",
          "type": "uint256"
        }
      ],
      "name": "BattleStarted",
      "type": "event"
    },
    {
      "anonymous": false,
      "inputs": [
        {
          "indexed": true,
          "internalType": "address",
          "name": "previousOwner",
          "type": "address"
        },
        {
          "indexed": true,
          "internalType": "address",
          "name": "newOwner",
          "type": "address"
        }
      ],
      "name": "OwnershipTransferred",
      "type": "event"
    },
    {
      "anonymous": false,
      "inputs": [
        {
          "indexed": true,
          "internalType": "uint256",
          "name": "battleId",
          "type": "uint256"
        },
        {
          "indexed": true,
          "internalType": "address",
          "name": "player",
          "type": "address"
        },
        {
          "indexed": false,
          "internalType": "uint256",
          "name": "amount",
          "type": "uint256"
        }
      ],
      "name": "PrizeDistributed",
      "type": "event"
    },
    {
      "inputs": [],
      "name": "artifactContract",
      "outputs": [
        {
          "internalType": "contract ArtifactNFT",
          "name": "",
          "type": "address"
        }
      ],
      "stateMutability": "view",
      "type": "function"
    },
    {
      "inputs": [
        {
          "internalType": "uint256",
          "name": "",
          "type": "uint256"
        },
        {
          "internalType": "uint256",
          "name": "",
          "type": "uint256"
        }
      ],
      "name": "battleStats",
      "outputs": [
        {
          "internalType": "uint256",
          "name": "currentHealth",
          "type": "uint256"
        },
        {
          "internalType": "uint256",
          "name": "maxHealth",
          "type": "uint256"
        },
        {
          "internalType": "uint256",
          "name": "attack",
          "type": "uint256"
        },
        {
          "internalType": "uint256",
          "name": "defense",
          "type": "uint256"
        },
        {
          "internalType": "uint256",
          "name": "speed",
          "type": "uint256"
        },
        {
          "internalType": "uint256",
          "name": "magic",
          "type": "uint256"
        },
        {
          "internalType": "uint256",
          "name": "luck",
          "type": "uint256"
        },
        {
          "internalType": "bool",
          "name": "isAlive",
          "type": "bool"
        },
        {
          "internalType": "uint256",
          "name": "weaponId",
          "type": "uint256"
        },
        {
          "internalType": "uint256",
          "name": "artifactId",
          "type": "uint256"
        }
      ],
      "stateMutability": "view",
      "type": "function"
    },
    {
      "inputs": [
        {
          "internalType": "uint256",
          "name": "",
          "type": "uint256"
        }
      ],
      "name": "battles",
      "outputs": [
        {
          "internalType": "uint256",
          "name": "battleId",
          "type": "uint256"
        },
        {
          "internalType": "enum BattleArena.BattleType",
          "name": "battleType",
          "type": "uint8"
        },
        {
          "internalType": "enum BattleArena.BattleState",
          "name": "state",
          "type": "uint8"
        },
        {
          "internalType": "uint256",
          "name": "winner",
          "type": "uint256"
        },
        {
          "internalType": "uint256",
          "name": "startTime",
          "type": "uint256"
        },
        {
          "internalType": "uint256",
          "name": "endTime",
          "type": "uint256"
        },
        {
          "internalType": "uint256",
          "name": "entryFee",
          "type": "uint256"
        },
        {
          "internalType": "uint256",
          "name": "prizePool",
          "type": "uint256"
        },
        {
          "internalType": "bool",
          "name": "replayGenerated",
          "type": "bool"
        }
      ],
      "stateMutability": "view",
      "type": "function"
    },
    {
      "inputs": [
        {
          "internalType": "uint256",
          "name": "myMonanimalId",
          "type": "uint256"
        },
        {
          "internalType": "uint256",
          "name": "opponentMonanimalId",
          "type": "uint256"
        }
      ],
      "name": "createDuel",
      "outputs": [],
      "stateMutability": "payable",
      "type": "function"
    },
    {
      "inputs": [
        {
          "internalType": "uint256[]",
          "name": "monanimalIds",
          "type": "uint256[]"
        }
      ],
      "name": "createTournament",
      "outputs": [],
      "stateMutability": "payable",
      "type": "function"
    },
    {
      "inputs": [],
      "name": "duelFee",
      "outputs": [
        {
          "internalType": "uint256",
          "name": "",
          "type": "uint256"
        }
      ],
      "stateMutability": "view",
      "type": "function"
    },
    {
      "inputs": [
        {
          "internalType": "uint256",
          "name": "battleId",
          "type": "uint256"
        }
      ],
      "name": "emergencyCancelBattle",
      "outputs": [],
      "stateMutability": "nonpayable",
      "type": "function"
    },
    {
      "inputs": [
        {
          "internalType": "uint256",
          "name": "battleId",
          "type": "uint256"
        }
      ],
      "name": "getBattle",
      "outputs": [
        {
          "components": [
            {
              "internalType": "uint256",
              "name": "battleId",
              "type": "uint256"
            },
            {
              "internalType": "enum BattleArena.BattleType",
              "name": "battleType",
              "type": "uint8"
            },
            {
              "internalType": "uint256[]",
              "name": "participants",
              "type": "uint256[]"
            },
            {
              "internalType": "address[]",
              "name": "players",
              "type": "address[]"
            },
            {
              "internalType": "enum BattleArena.BattleState",
              "name": "state",
              "type": "uint8"
            },
            {
              "internalType": "uint256",
              "name": "winner",
              "type": "uint256"
            },
            {
              "internalType": "uint256",
              "name": "startTime",
              "type": "uint256"
            },
            {
              "internalType": "uint256",
              "name": "endTime",
              "type": "uint256"
            },
            {
              "components": [
                {
                  "internalType": "uint256",
                  "name": "attacker",
                  "type": "uint256"
                },
                {
                  "internalType": "uint256",
                  "name": "defender",
                  "type": "uint256"
                },
                {
                  "internalType": "string",
                  "name": "actionType",
                  "type": "string"
                },
                {
                  "internalType": "uint256",
                  "name": "damage",
                  "type": "uint256"
                },
                {
                  "internalType": "bool",
                  "name": "isCritical",
                  "type": "bool"
                },
                {
                  "internalType": "bool",
                  "name": "isBlocked",
                  "type": "bool"
                },
                {
                  "internalType": "string",
                  "name": "description",
                  "type": "string"
                }
              ],
              "internalType": "struct BattleArena.BattleAction[]",
              "name": "actions",
              "type": "tuple[]"
            },
            {
              "internalType": "uint256",
              "name": "entryFee",
              "type": "uint256"
            },
            {
              "internalType": "uint256",
              "name": "prizePool",
              "type": "uint256"
            },
            {
              "internalType": "bool",
              "name": "replayGenerated",
              "type": "bool"
            }
          ],
          "internalType": "struct BattleArena.Battle",
          "name": "",
          "type": "tuple"
        }
      ],
      "stateMutability": "view",
      "type": "function"
    },
    {
      "inputs": [
        {
          "internalType": "uint256",
          "name": "battleId",
          "type": "uint256"
        }
      ],
      "name": "getBattleActions",
      "outputs": [
        {
          "components": [
            {
              "internalType": "uint256",
              "name": "attacker",
              "type": "uint256"
            },
            {
              "internalType": "uint256",
              "name": "defender",
              "type": "uint256"
            },
            {
              "internalType": "string",
              "name": "actionType",
              "type": "string"
            },
            {
              "internalType": "uint256",
              "name": "damage",
              "type": "uint256"
            },
            {
              "internalType": "bool",
              "name": "isCritical",
              "type": "bool"
            },
            {
              "internalType": "bool",
              "name": "isBlocked",
              "type": "bool"
            },
            {
              "internalType": "string",
              "name": "description",
              "type": "string"
            }
          ],
          "internalType": "struct BattleArena.BattleAction[]",
          "name": "",
          "type": "tuple[]"
        }
      ],
      "stateMutability": "view",
      "type": "function"
    },
    {
      "inputs": [
        {
          "internalType": "address",
          "name": "player",
          "type": "address"
        }
      ],
      "name": "getPlayerBattles",
      "outputs": [
        {
          "internalType": "uint256[]",
          "name": "",
          "type": "uint256[]"
        }
      ],
      "stateMutability": "view",
      "type": "function"
    },
    {
      "inputs": [],
      "name": "monanimalContract",
      "outputs": [
        {
          "internalType": "contract MonanimalNFT",
          "name": "",
          "type": "address"
        }
      ],
      "stateMutability": "view",
      "type": "function"
    },
    {
      "inputs": [
        {
          "internalType": "uint256",
          "name": "",
          "type": "uint256"
        }
      ],
      "name": "monanimalInBattle",
      "outputs": [
        {
          "internalType": "bool",
          "name": "",
          "type": "bool"
        }
      ],
      "stateMutability": "view",
      "type": "function"
    },
    {
      "inputs": [],
      "name": "owner",
      "outputs": [
        {
          "internalType": "address",
          "name": "",
          "type": "address"
        }
      ],
      "stateMutability": "view",
      "type": "function"
    },
    {
      "inputs": [
        {
          "internalType": "address",
          "name": "",
          "type": "address"
        },
        {
          "internalType": "uint256",
          "name": "",
          "type": "uint256"
        }
      ],
      "name": "playerBattles",
      "outputs": [
        {
          "internalType": "uint256",
          "name": "",
          "type": "uint256"
        }
      ],
      "stateMutability": "view",
      "type": "function"
    },
    {
      "inputs": [],
      "name": "renounceOwnership",
      "outputs": [],
      "stateMutability": "nonpayable",
      "type": "function"
    },
    {
      "inputs": [],
      "name": "royaleFee",
      "outputs": [
        {
          "internalType": "uint256",
          "name": "",
          "type": "uint256"
        }
      ],
      "stateMutability": "view",
      "type": "function"
    },
    {
      "inputs": [
        {
          "internalType": "address",
          "name": "_monanimalContract",
          "type": "address"
        },
        {
          "internalType": "address",
          "name": "_weaponContract",
          "type": "address"
        },
        {
          "internalType": "address",
          "name": "_artifactContract",
          "type": "address"
        }
      ],
      "name": "setContracts",
      "outputs": [],
      "stateMutability": "nonpayable",
      "type": "function"
    },
    {
      "inputs": [
        {
          "internalType": "uint256",
          "name": "_duelFee",
          "type": "uint256"
        },
        {
          "internalType": "uint256",
          "name": "_tournamentFee",
          "type": "uint256"
        },
        {
          "internalType": "uint256",
          "name": "_royaleFee",
          "type": "uint256"
        }
      ],
      "name": "setFees",
      "outputs": [],
      "stateMutability": "nonpayable",
      "type": "function"
    },
    {
      "inputs": [],
      "name": "tournamentFee",
      "outputs": [
        {
          "internalType": "uint256",
          "name": "",
          "type": "uint256"
        }
      ],
      "stateMutability": "view",
      "type": "function"
    },
    {
      "inputs": [
        {
          "internalType": "address",
          "name": "newOwner",
          "type": "address"
        }
      ],
      "name": "transferOwnership",
      "outputs": [],
      "stateMutability": "nonpayable",
      "type": "function"
    },
    {
      "inputs": [],
      "name": "weaponContract",
      "outputs": [
        {
          "internalType": "contract WeaponNFT",
          "name": "",
          "type": "address"
        }
      ],
      "stateMutability": "view",
      "type": "function"
    },
    {
      "inputs": [],
      "name": "withdraw",
      "outputs": [],
      "stateMutability": "nonpayable",
      "type": "function"
    }
  ],
  "bytecode": "0x6080346200010c57601f6200391838819003918201601f19168301916001600160401b0383118484101762000111578084926060946040528339810103126200010c576200004d8162000127565b620000696040620000616020850162000127565b930162000127565b600080546001600160a01b03198082163390811784556040519691956001600160a01b0395948694859391908416907f8be0079c531659141344cd1fd0a4f28419497f9722a3daafe3b4186f6b6457e09080a360018055662386f26fc10000600a5566470de4df820000600b5566b1a2bc2ec50000600c551685600354161760035516836004541617600455169060055416176005556137db90816200013d8239f35b600080fd5b634e487b7160e01b600052604160045260246000fd5b51906001600160a01b03821682036200010c5756fe608080604052600436101561001357600080fd5b60003560e01c908163027754101461181d5750806311131599146117f45780631892fceb146117d657806326cf99d61461173a5780633ccfd60b146116f35780634596577c1461100657806347ac7215146109255780634e758869146108e257806360042dee146108b9578063606d2e961461081a578063641ef4cd146107c25780636dd0ce7a1461054c578063715018a6146104f357806373321894146103765780638da5cb5b1461034d578063b3066d49146102d6578063bd045169146102ad578063cd3ef3ff1461025b578063cec10c111461022e578063e4863c9b14610210578063f2fde38b146101475763fd789ba11461011157600080fd5b34610142576020366003190112610142576004356000526009602052602060ff604060002054166040519015158152f35b600080fd5b3461014257602036600319011261014257610160611a5e565b610168611ad6565b6001600160a01b039081169081156101bc57600054826bffffffffffffffffffffffff60a01b821617600055167f8be0079c531659141344cd1fd0a4f28419497f9722a3daafe3b4186f6b6457e0600080a3005b60405162461bcd60e51b815260206004820152602660248201527f4f776e61626c653a206e6577206f776e657220697320746865207a65726f206160448201526564647265737360d01b6064820152608490fd5b34610142576000366003190112610142576020600a54604051908152f35b3461014257606036600319011261014257610247611ad6565b600435600a55602435600b55604435600c55005b34610142576020366003190112610142576001600160a01b0361027c611a5e565b1660005260086020526102a96102956040600020612b5d565b604051918291602083526020830190611aa2565b0390f35b34610142576000366003190112610142576005546040516001600160a01b039091168152602090f35b34610142576060366003190112610142576102ef611a5e565b6001600160a01b03906024358281169081900361014257604435928084168094036101425761031c611ad6565b6bffffffffffffffffffffffff60a01b92168260035416176003558160045416176004556005541617600555600080f35b34610142576000366003190112610142576000546040516001600160a01b039091168152602090f35b346101425760208060031936011261014257610390611ad6565b600435600052600681526040600020600481019182549060ff82169160048310156104dd57600180930361049f57600360ff19918216811790955591939190600284016000865b610450575b505050508290600060098285019401925b6103f357005b835481101561044e57600080808061040b8589611a74565b9054885491881b1c6001600160a01b0316828215610445575bf115610439576104339061218f565b846103ed565b6040513d6000823e3d90fd5b506108fc610424565b005b908694969392918154811015610496578061046e61048b9284611a74565b9054908a1b1c60005260098452604060002085815416905561218f565b9091929396946103d7565b509593956103dc565b60405162461bcd60e51b8152600481018390526016602482015275426174746c65206e6f7420696e2070726f677265737360501b6044820152606490fd5b634e487b7160e01b600052602160045260246000fd5b346101425760003660031901126101425761050c611ad6565b600080546001600160a01b0319811682556001600160a01b03167f8be0079c531659141344cd1fd0a4f28419497f9722a3daafe3b4186f6b6457e08280a3005b3461014257602036600319011261014257600061016060405161056e8161184e565b828152826020820152606060408201526060808201528260808201528260a08201528260c08201528260e082015260606101008201528261012082015282610140820152015260043560005260066020526040600020604051906105d18261184e565b8054825260ff60018201541660038110156104dd5760208301526105f760028201612b5d565b6040830152600381016040518082602082945493848152019060005260206000209260005b8181106107a057505061063192500382611905565b606083015260ff60048201541660048110156104dd5760ff91600b916080850152600581015460a0850152600681015460c0850152600781015460e085015261067c60088201613612565b6101008501526009810154610120850152600a810154610140850152015416151561016082015260405160208152815160208201526106c360208301516040830190611a44565b6106de604083015161018060608401526101a0830190611aa2565b91606081015192601f198382030160808401526020808551928381520194019060005b8181106107815750505061016061075c8394610725608085015160a0870190611a51565b60a084015160c086015260c084015160e086015260e0840151610100860152610100840151601f19868303016101208701526119e8565b9161012081015161014085015261014081015182850152015115156101808301520390f35b82516001600160a01b0316865260209586019590920191600101610701565b84546001600160a01b031683526001948501948694506020909301920161061c565b34610142576040366003190112610142576107db611a5e565b6001600160a01b03166000908152600860205260409020805460243591908210156101425760209161080c91611a74565b90546040519160031b1c8152f35b34610142576020366003190112610142576004356000526006602052610120604060002080549060ff6001820154169060ff6004820154166005820154600683015460078401549161089660098601549461088c60ff600b600a8a015499015416986040519a8b5260208b0190611a44565b6040890190611a51565b6060870152608086015260a085015260c084015260e08301521515610100820152f35b34610142576000366003190112610142576004546040516001600160a01b039091168152602090f35b346101425760203660031901126101425760043560005260066020526102a96109116008604060002001613612565b6040519182916020835260208301906119e8565b6020366003190112610142576004356001600160401b03811161014257366023820112156101425780600401359061095c82611926565b9161096a6040519384611905565b8083526024602084019160051b8301019136831161014257602401905b828210610ff65783610997612139565b6109b06109a8600b54835190611dc2565b341015611b2e565b805160048110159081610fea575b5015610f96576001815116610f435760005b8151811015610bcf576003546001600160a01b0390811691906109f38285611d8b565b5190604051916331a9108f60e11b83526004830152602082602481875afa91821561043957600092610b9e575b5033911603610b5957610a338184611d8b565b516000526009918260205260ff60406000205416610b14576000610a578386611d8b565b51602460405180948193631a01da3f60e01b835260048301525afa80156104395761010091600091610af1575b500151610aba57610ab591610a998285611d8b565b516000526020526040600020600160ff1982541617905561218f565b6109d0565b60405162461bcd60e51b815260206004820152600f60248201526e4d6f6e616e696d616c206973204b4f60881b6044820152606490fd5b610b0e91503d806000833e610b068183611905565b810190611c5c565b85610a84565b60405162461bcd60e51b815260206004820152601b60248201527f4d6f6e616e696d616c20616c726561647920696e20626174746c6500000000006044820152606490fd5b60405162461bcd60e51b815260206004820152601b60248201527f4e6f74206f776e6572206f6620616c6c204d6f6e616e696d616c7300000000006044820152606490fd5b610bc191925060203d602011610bc8575b610bb98183611905565b810190611b73565b9085610a20565b503d610baf565b506002546001810160025560405191610be7836118cf565b600183526020368185013733610bfc84611d6e565b52610c05611d9f565b600b549060405194610c168661184e565b84865260016020870152836040870152606086015260006080860152600060a0860152600060c0860152600060e0860152610100850152610120840152346101408401526000610160840152816000526006602052604060002083518155602084015160038110156104dd57600182019060ff8019835416911617905560408401518051906001600160401b038211610efc57600160401b8211610efc5760206002840191610cca84845481865585611dec565b0190600052602060002060005b838110610f2f575050505060608401518051906001600160401b038211610efc57600160401b8211610efc5760206003840191610d1984845481865585611dec565b0190600052602060002060005b838110610f125750505050608084015160048110156104dd57610d4c9060048301611e11565b60a0840151600582015560c0840151600682015560e0840151600782015561010084015193845194600160401b8611610efc576008830154866008850155808710610e6e575b5060200194600883016000526020600020956000905b828210610e5057610e4a87807f1e41ec3365f71745661f5f10242e3970ebe06963243d07bf39a4c8001531622c610e428a610e108b600b6101608d6101208101516009850155610140810151600a8501550151151591019060ff801983541691151516179055565b336000526008602052610e27846040600020612104565b60405191829160018352604060208401526040830190611aa2565b0390a261219e565b60018055005b6006602082610e62600194518c611eac565b01980191019096610da8565b6006818102048103610ee6576006878102048703610ee6576008840160005260206000208760060281015b8260060282018110610eac575050610d92565b8060006006925560006001820155610ec660028201611e63565b6000600382015560006004820155610ee060058201611e63565b01610e99565b634e487b7160e01b600052601160045260246000fd5b634e487b7160e01b600052604160045260246000fd5b82516001600160a01b031681830155602090920191600101610d26565b600190602084519401938184015501610cd7565b60405162461bcd60e51b815260206004820152602560248201527f4d7573742068617665206576656e206e756d626572206f66207061727469636960448201526470616e747360d81b6064820152608490fd5b60405162461bcd60e51b815260206004820152602660248201527f546f75726e616d656e74206d757374206861766520342d3136207061727469636044820152656970616e747360d01b6064820152608490fd5b601091501115826109be565b8135815260209182019101610987565b61100f36611838565b90611018612139565b600a549161102883341015611b2e565b6003546040516331a9108f60e11b8152600481018490526001600160a01b039091169190602081602481865afa908115610439576000916116d4575b50336001600160a01b039091160361168f5782600052600960205260ff6040600020541661163e5780600052600960205260ff604060002054166115e957604051631a01da3f60e01b8082526004820185905290600081602481875afa908115610439576000916115ce575b50604051918252826004830152600082602481875afa918215610439576000926115ad575b50610100015161157157610100015161152c57600254926001840160025560405192611120846118b4565b6002845260403660208601378161113685611d6e565b528261114185611d7b565b526024602060405192611153846118b4565b60028452604036838601373361116885611d6e565b52604051928380926331a9108f60e11b82528860048301525afa9081156104395760009161150d575b5061119b82611d7b565b6001600160a01b0390911690526111b0611d9f565b95604051966111be8861184e565b8688526000602089015285604089015282606089015260006080890152600060a0890152600060c0890152600060e0890152610100880152610120870152346101408701526000610160870152846000526006602052604060002086518155602087015160038110156104dd5760ff8019600184015416911617600182015560408701518051906001600160401b038211610efc57600160401b8211610efc576020600284019161127484845481865585611dec565b0190600052602060002060005b8381106114f9575050505060608701518051906001600160401b038211610efc57600160401b8211610efc57602060038401916112c384845481865585611dec565b0190600052602060002060005b8381106114dc5750505050608087015160048110156104dd576112f69060048301611e11565b60a0870151600582015560c0870151600682015560e0870151600782015561010087015196875197600160401b8911610efc576008830154896008850155808a10611464575b5060200197600883016000526020600020986000905b8282106114455750610e4a89807f1e41ec3365f71745661f5f10242e3970ebe06963243d07bf39a4c8001531622c610e428c8c8c8c6113be8d600b6101608f6101208101516009850155610140810151600a8501550151151591019060ff801983541691151516179055565b3360005260086020526113d5876040600020612104565b6001600160a01b03906113e790611d7b565b511660005260086020526113ff866040600020612104565b60005260096020526040600020600160ff198254161790556000526040600020600160ff1982541617905560405191829160008352604060208401526040830190611aa2565b60066020826114588e6001955190611eac565b019b0191019099611352565b6006818102048103610ee65760068a8102048a03610ee6576008840160005260206000208a60060281015b82600602820181106114a257505061133c565b80600060069255600060018201556114bc60028201611e63565b60006003820155600060048201556114d660058201611e63565b0161148f565b82516001600160a01b0316818301556020909201916001016112d0565b600190602084519401938184015501611281565b611526915060203d602011610bc857610bb98183611905565b87611191565b60405162461bcd60e51b815260206004820152601860248201527f4f70706f6e656e74204d6f6e616e696d616c206973204b4f00000000000000006044820152606490fd5b60405162461bcd60e51b8152602060048201526014602482015273596f7572204d6f6e616e696d616c206973204b4f60601b6044820152606490fd5b6101009192506115c7903d806000833e610b068183611905565b91906110f5565b6115e391503d806000833e610b068183611905565b866110d0565b60405162461bcd60e51b815260206004820152602760248201527f4f70706f6e656e74204d6f6e616e696d616c20697320616c726561647920696e60448201526620626174746c6560c81b6064820152608490fd5b60405162461bcd60e51b815260206004820152602360248201527f596f7572204d6f6e616e696d616c20697320616c726561647920696e20626174604482015262746c6560e81b6064820152608490fd5b60405162461bcd60e51b815260206004820152601b60248201527f4e6f74206f776e6572206f6620796f7572204d6f6e616e696d616c00000000006044820152606490fd5b6116ed915060203d602011610bc857610bb98183611905565b85611064565b346101425760003660031901126101425761170c611ad6565b6000805481908190819047906001600160a01b0316828215611731575bf11561043957005b506108fc611729565b346101425761174836611838565b906000526007602052604060002090600052602052610140604060002080549060018101549060028101546003820154600483015460058401549060068501549260ff600787015416946009600888015497015497604051998a5260208a015260408901526060880152608087015260a086015260c0850152151560e0840152610100830152610120820152f35b34610142576000366003190112610142576020600c54604051908152f35b34610142576000366003190112610142576003546040516001600160a01b039091168152602090f35b3461014257600036600319011261014257602090600b548152f35b6040906003190112610142576004359060243590565b61018081019081106001600160401b03821117610efc57604052565b60e081019081106001600160401b03821117610efc57604052565b61014081019081106001600160401b03821117610efc57604052565b6001600160401b038111610efc57604052565b606081019081106001600160401b03821117610efc57604052565b604081019081106001600160401b03821117610efc57604052565b608081019081106001600160401b03821117610efc57604052565b90601f801991011681019081106001600160401b03821117610efc57604052565b6001600160401b038111610efc5760051b60200190565b60005b8381106119505750506000910152565b8181015183820152602001611940565b906020916119798151809281855285808601910161193d565b601f01601f1916010190565b6119e591815181526020820151602082015260c06119b2604084015160e0604085015260e0840190611960565b926060810151606084015260808101511515608084015260a0810151151560a084015201519060c0818403910152611960565b90565b908082519081815260208091019281808460051b8301019501936000915b848310611a165750505050505090565b9091929394958480611a34600193601f198682030187528a51611985565b9801930193019194939290611a06565b9060038210156104dd5752565b9060048210156104dd5752565b600435906001600160a01b038216820361014257565b8054821015611a8c5760005260206000200190600090565b634e487b7160e01b600052603260045260246000fd5b90815180825260208080930193019160005b828110611ac2575050505090565b835185529381019392810192600101611ab4565b6000546001600160a01b03163303611aea57565b606460405162461bcd60e51b815260206004820152602060248201527f4f776e61626c653a2063616c6c6572206973206e6f7420746865206f776e65726044820152fd5b15611b3557565b60405162461bcd60e51b8152602060048201526016602482015275496e73756666696369656e7420656e7472792066656560501b6044820152606490fd5b9081602091031261014257516001600160a01b03811681036101425790565b6001600160401b038111610efc57601f01601f191660200190565b81601f82011215610142578051611bc381611b92565b92611bd16040519485611905565b81845260208284010111610142576119e5916020808501910161193d565b91908260c09103126101425760405160c081018181106001600160401b03821117610efc5760405260a080829480518452602081015160208501526040810151604085015260608101516060850152608081015160808501520151910152565b5190811515820361014257565b6020818303126101425780516001600160401b03918282116101425701916102408382031261014257604051926101a09283850185811082821117610efc5760405281518181116101425783611cb3918401611bad565b85526020820151600581101561014257602086015260408201516006811015610142576040860152611ce88360608401611bef565b606086015261012090818301516080870152610140908184015160a0880152610160928385015160c0890152611d2b610180978887015160e08b01528601611c4f565b6101008901526101c0850151908801526101e08401519081116101425761022094611d57918501611bad565b908601526102008201519085015201519082015290565b805115611a8c5760200190565b805160011015611a8c5760400190565b8051821015611a8c5760209160051b010190565b604051602081018181106001600160401b03821117610efc576040526000815290565b81810292918115918404141715610ee657565b818110611de0575050565b60008155600101611dd5565b91818110611df957505050565b611e0f9260005260206000209182019101611dd5565b565b9060048110156104dd5760ff80198354169116179055565b90600182811c92168015611e59575b6020831014611e4357565b634e487b7160e01b600052602260045260246000fd5b91607f1691611e38565b611e6d8154611e29565b9081611e77575050565b81601f60009311600114611e89575055565b908083918252611ea8601f60208420940160051c840160018501611dd5565b5555565b81518155602080830151916001928382015560028101916040850151918251936001600160401b0394858111610efc57611ee68254611e29565b94601f958681116120d6575b5084908683116001146120685791806005949260c0969460009261205d575b5050600019600383901b1c191690891b1790555b6060880151600382015560048101611f4f60808a01511515829060ff801983541691151516179055565b60a0890151151561ff0082549160081b169061ff00191617905501950151908151938411610efc57611f818654611e29565b838111612025575b5080928411600114611fc25750928293918392600094611fb7575b50501b916000199060031b1c1916179055565b015192503880611fa4565b919083601f1981168760005284600020946000905b8883831061200b5750505010611ff2575b505050811b019055565b015160001960f88460031b161c19169055388080611fe8565b858701518855909601959485019487935090810190611fd7565b61204e9087600052826000208580880160051c820192858910612054575b0160051c0190611dd5565b38611f89565b92508192612043565b015190503880611f11565b889291601f1983169185600052876000209260005b898282106120c05750509160c097959391856005989694106120a7575b505050811b019055611f25565b015160001960f88460031b161c1916905538808061209a565b8385015186558d9790950194938401930161207d565b6120fe9084600052866000208880860160051c820192898710612054570160051c0190611dd5565b38611ef2565b8054600160401b811015610efc5761212191600182018155611a74565b819291549060031b91821b91600019901b1916179055565b60026001541461214a576002600155565b60405162461bcd60e51b815260206004820152601f60248201527f5265656e7472616e637947756172643a207265656e7472616e742063616c6c006044820152606490fd5b6000198114610ee65760010190565b9081600052600660205260406000209160048301805460ff811660048110156104dd57612a355760ff1916600117905542600684015560005b60028401548110156126b3576121f08160028601611a74565b9190546024600060018060a01b036003541660405192838092631a01da3f60e01b8252868960031b1c60048301525afa90811561043957600091612698575b5060608101519384519160208601519060408701519660608101519060a0608082015191015191610160840151806125c0575b5061018084015180612365575b5091839160099795936123609b6101806101606101209a980151950151956040519861229a8a611885565b808a5260208a015260408901526060880152608087015260a086015260c0850152600160e085015261010084015283830152876000526007948560205260406000209160031b1c60005260205261234b604060002094825186556020830151600187015560408301516002870155606083015160038701556080830151600487015560a0830151600587015560c0830151600687015560e083015115159086019060ff801983541691151516179055565b6101008101516008850155015191015561218f565b6121d7565b9290939496600060018060a01b0360055416946024604051809781936321196b5160e21b835260048301525afa9384156104395760009461242a575b5092600997959261241b61012098969360a060606123609f986124016123f36123e46123d561241094868c01515190612b50565b9e6020868c0151015190612b50565b9b6040858b0151015190612b50565b9883808a0151015190612b50565b95608083890151015190612b50565b950151015190612b50565b94969850919a5091939561226f565b9694919795929a93503d9a8b6000893e6124448c89611905565b6020888d810103126101425787516001600160401b038111610142576102008982018a8f01031261014257604051998a6101608101106001600160401b036101608d011117610efc576101608b01604052818a01516001600160401b038111610142576124b8908f8c0190848d0101611bad565b8b526020828b01015160088110156101425760208c01526040828b01015160068110156101425760408c01526124f58a8f01838c01606001611bef565b60608c0152610120828b010151600c8110156101425760808c015289820161014081015160a08d01526101600151996001600160401b038b116101425760606123609f6124016123f360099f6101209f6123e4916101e061241b9a8961256a6123d5956124109a60a09d019084840101611bad565b60c085015261257e61018083830101611c4f565b60e08501526101a082820101516101008501526101c082820101516101208501520101516101408201529d985050505050505050939698509b509295976123a1565b9099949192600060018060a01b036004541692602460405180958193639e41b73f60e01b835260048301525afa9182156104395760009261265b575b506080606061264961263b61262c61261d8798856126549901515190612b50565b9a6020858a0151015190612b50565b9e604084890151015190612b50565b968280880151015190612b50565b940151015190612b50565b9138612262565b6126549250606061264961263b61262c61261d61268c6080963d806000833e6126848183611905565b810190612a6f565b975050505050506125fc565b6126ad91503d806000833e610b068183611905565b3861222f565b50909150807f9a02cac07671e80638a2bd9ec5e274cc02bd2d1d52552751695dc8ad62344190600080a280600052600660205260ff6001604060002001541660038110156104dd578061294e57508060005260066020526002604060002001908154918215611a8c57806000526020600020549260011015611a8c5760005260016020600020015460005b8260005260078060205260406000208560005260205260ff81604060002001541680612929575b8061291f575b1561287e57600084815260208281526040808320888452808352818420600490810154888652919093529220015461280593929110612876578584915b866000528060205260406000208260005260205260ff81604060002001541680612851575b612841575b866000528060205260406000208260005260205260ff816040600020015416908161281b575b5061280a575b505061218f565b61273e565b6128149186612c26565b38806127fe565b60ff915087600052806020526040600020846000526020526040600020015416386127f8565b61284c838389612c26565b6127d2565b50866000528060205260406000208360005260205260ff8160406000200154166127cd565b8386916127a8565b505091611e0f928260005260078060205260406000208360005260205260ff8160406000200154166000146128b557505090613290565b836000528060205260406000208260005260205260ff8160406000200154166000146128e45750905090613290565b6000848152602091825260408082208583529092528181206004908101548483529290912001541161291857505b90613290565b9050612912565b506032821061276b565b50836000528060205260406000208360005260205260ff816040600020015416612765565b6001146129585750565b908160005260066020526129726002604060002001612b5d565b80516001811115612a1f5760011c9161298a83611926565b926129986040519485611905565b8084526129a7601f1991611926565b0136602085013760005b8251811015612a16576129c48184611d8b565b516001820190818311610ee6576129de6129e69286611d8b565b519087612bac565b6129f38260011c86611d8b565b5260028101809111156129b157634e487b7160e01b600052601160045260246000fd5b50919050612972565b5091612a2e611e0f9293611d6e565b5190613290565b60405162461bcd60e51b8152602060048201526012602482015271426174746c65206e6f742070656e64696e6760701b6044820152606490fd5b906020828203126101425781516001600160401b039283821161014257016101c081830312610142576040519261012080850185811083821117610efc5760405282518281116101425784612ac5918501611bad565b85526020830151600881101561014257602086015260408301516006811015610142576040860152612afa8460608501611bef565b6060860152820151608085015261014082015160a0850152610160820151908111610142576101a092612b2e918301611bad565b60c0840152612b406101808201611c4f565b60e0840152015161010082015290565b91908201809211610ee657565b9060405191828154918282526020928383019160005283600020936000905b828210612b9257505050611e0f92500383611905565b855484526001958601958895509381019390910190612b7c565b919091612bba8284836130fd565b612bc58484846130fd565b80821115612bd4575050505090565b1115612be05750905090565b6000908152600760209081526040808320858452808352818420600490810154868652919093529220015411612c14575090565b905090565b91908203918211610ee657565b91612c328183856130fd565b8360005260076020526040600020836000526020526040600020600a604051612c5a81611885565b8254815260018301546020820152600283015460408201526003830154606082015260048301546080820152600583015460a08201526006830154908160c082015260ff600785015416151560e08201526101206009600886015495866101008501520154910152049080613091575b50606460405160208101904282528660408201526318dc9a5d60e21b606082015260448152612cf8816118ea565b519020061090846000526007602052604060002083600052602052816040600020604051612d2581611885565b815481526001820154602082015260028201546040820152610120600960038401549384606085015260048101546080850152600581015460a0850152600681015460c085015260ff600782015416151560e0850152600881015461010085015201549101526064604051916014602084019142835288604086015264626c6f636b60d81b606086015260458552612dbc856118ea565b0492519020061092613069575b82919261305f575b85600052600760205260406000208460005260205260406000208381541160001461304b57612e01848254612c19565b90555b612e0d856136c7565b92612ec9604b612e1c876136c7565b95612e26846136c7565b6040519788926a4d6f6e616e696d616c202360a81b6020850152612e54815180926020602b8801910161193d565b8301732061747461636b73204d6f6e616e696d616c202360601b602b820152612e87825180936020603f8501910161193d565b01640103337b9160dd1b603f820152612eaa82518093602060448501910161193d565b01662064616d61676560c81b604482015203602b810187520185611905565b60405194612ed68661186a565b8686526020860152604051612eea816118cf565b600681526561747461636b60d01b602082015260408601526060850152608084015260a083015260c08201528260005260066020526008604060002001805490600160401b821015610efc5760018201808255821015611a8c57612f5c91839160005260066020600020910201611eac565b826000526006602052600860406000200154906000198201918211610ee6577f5d60a033078d6cf395d338c80523f4636de077988fbf452dca3c8c7d073523cc612fb58592604051918291602083526020830190611985565b0390a3816000526007602052604060002081600052602052600860406000200154612fde575050565b60018060a01b0360045416916000526007602052604060002090600052602052600860406000200154813b156101425760009160448392604051948593849263bc0d396b60e01b84526004840152600160248401525af18015610439576130425750565b611e0f906118a1565b60008155600701805460ff19169055612e04565b9160011c91612dd1565b8160011b91808304600214901517612dc957634e487b7160e01b600052601160045260246000fd5b90600060018060a01b036004541692602460405180958193639e41b73f60e01b835260048301525afa801561043957606060a0916130dc946000916130e2575b500151015190612b50565b38612cca565b6130f791503d806000833e6126848183611905565b386130d1565b906014600093838552602060078152604091828720858852825282872095835161312681611885565b875481526001880154848201526002880154918582019283526003890154606083015260048901546080830152600589015460a0830152600689015460c083015260ff60078a015416151560e0830152600960088a0154996101009a8b850152015461012080930152895260078452848920838a5284528489209060098651926131af84611885565b8054845260018101548785015260028101548885015260038101549a8b606086015260048201546080860152600582015460a0860152600682015460c086015260ff600783015416151560e08601526008820154908501520154910152519483519283019342855283015260608201526060815261322c816118ea565b51902006605a019081605a1161327c5760649161324891611dc2565b04908082111561327257906132609160011c90612c19565b905b50801561326c5790565b50600190565b5060021c90613262565b634e487b7160e01b84526011600452602484fd5b9060009282845260206006815260409182862060048082019560ff1996600288825416179055806005840155426007840155889360028401945b855481101561330157806132e16132fc9288611a74565b90549060031b1c8c5260098852888c208a815416905561218f565b6132ca565b50929791965093885b845481101561342f578961331e8287611a74565b919054600392831b1c88811460018060a01b038085541694853b1561342b5784928e858f51916317e2549760e21b83528201528481602499848b8301528160449889925af1801561342057613411575b50156133d4575416803b156133d057838d9160648e519788968795630ba4818b60e31b87528601528401525af180156133c657906133b292916133b7575b5061218f565b61330a565b6133c0906118a1565b386133ac565b88513d8d823e3d90fd5b8380fd5b5416803b156133d057838d9160198e519788968795630ba4818b60e31b87528601528401525af180156133c657906133b292916133b7575061218f565b61341a906118a1565b3861336e565b508e513d88823e3d90fd5b8480fd5b5094809350819694600a7f10e7759bcc51f7373b455cd1e6ea4e22b2b9872685e2193e36935daeefe1f71293949a990154825191825287820152a28385526006835280852060018060a01b039081600354169085600582015460248651809581936331a9108f60e11b83528a8301525afa918215613564578892613542575b50600a015493605a850290858204605a148615171561352f575060646134d691048095612c19565b501694808387828215613526575b839283928392f11561351b5750519081527fdc1d0b6a7cbfa6f3b2d4325bab5a169b265ad0b2b4022fb550364f0dfeeb6a749190a3565b9051903d90823e3d90fd5b506108fc6134e4565b634e487b7160e01b895260119052602488fd5b600a91925061355d90873d8911610bc857610bb98183611905565b91906134ae565b84513d8a823e3d90fd5b906040519182600082549261358284611e29565b9081845260019485811690816000146135ef57506001146135ac575b5050611e0f92500383611905565b9093915060005260209081600020936000915b8183106135d7575050611e0f9350820101388061359e565b855488840185015294850194879450918301916135bf565b915050611e0f94506020925060ff191682840152151560051b820101388061359e565b90815461361e81611926565b9260409361362e85519182611905565b828152809460208092019260005281600020906000935b85851061365457505050505050565b60068460019284516136658161186a565b86548152848701548382015261367d6002880161356e565b8682015260038701546060820152600487015460ff908181161515608084015260081c16151560a08201526136b46005880161356e565b60c0820152815201930194019391613645565b80156137875780816000925b6137735750806136e283611b92565b926136f06040519485611905565b808452601f196136ff82611b92565b01366020860137915b61371157505090565b600019820191808311610ee65782600a9081840493828502928584041485151715610ee65761374360ff938492612c19565b16603001918211610ee65785511115611a8c5760f81b6001600160f81b03191660001a908401601f015380613708565b9161377f600a9161218f565b9204806136d3565b50604051613794816118cf565b60018152600360fc1b60208201529056fea264697066735822122082e639679033a17f0788dda908038ccbf905586bfa0720c8753ff7fa5769f69164736f6c63430008130033",
  "linkReferences": {},
  "deployedLinkReferences": {}
}