{
  "_format": "hh-sol-artifact-1",
  "contractName": "BattleArenaOptimized",
  "sourceName": "contracts/BattleArenaOptimized.sol",
  "abi": [
    {
      "inputs": [
        {
          "internalType": "address",
          "name": "_monanimalContract",
          "type": "address"
        },
        {
          "internalType": "address",
          "name": "_weaponContract",
          "type": "address"
        },
        {
          "internalType": "address",
          "name": "_artifactContract",
          "type": "address"
        }
      ],
      "stateMutability": "nonpayable",
      "type": "constructor"
    },
    {
      "anonymous": false,
      "inputs": [
        {
          "indexed": true,
          "internalType": "uint256",
          "name": "battleId",
          "type": "uint256"
        },
        {
          "indexed": false,
          "internalType": "uint256",
          "name": "winner",
          "type": "uint256"
        },
        {
          "indexed": false,
          "internalType": "uint256",
          "name": "prizePool",
          "type": "uint256"
        }
      ],
      "name": "BattleCompleted",
      "type": "event"
    },
    {
      "anonymous": false,
      "inputs": [
        {
          "indexed": true,
          "internalType": "uint256",
          "name": "battleId",
          "type": "uint256"
        },
        {
          "indexed": false,
          "internalType": "uint256",
          "name": "participant1",
          "type": "uint256"
        },
        {
          "indexed": false,
          "internalType": "uint256",
          "name": "participant2",
          "type": "uint256"
        }
      ],
      "name": "BattleCreated",
      "type": "event"
    },
    {
      "anonymous": false,
      "inputs": [
        {
          "indexed": true,
          "internalType": "address",
          "name": "previousOwner",
          "type": "address"
        },
        {
          "indexed": true,
          "internalType": "address",
          "name": "newOwner",
          "type": "address"
        }
      ],
      "name": "OwnershipTransferred",
      "type": "event"
    },
    {
      "inputs": [],
      "name": "artifactContract",
      "outputs": [
        {
          "internalType": "contract ArtifactNFT",
          "name": "",
          "type": "address"
        }
      ],
      "stateMutability": "view",
      "type": "function"
    },
    {
      "inputs": [
        {
          "internalType": "uint256",
          "name": "",
          "type": "uint256"
        }
      ],
      "name": "battles",
      "outputs": [
        {
          "internalType": "uint256",
          "name": "battleId",
          "type": "uint256"
        },
        {
          "internalType": "enum BattleArenaOptimized.BattleType",
          "name": "battleType",
          "type": "uint8"
        },
        {
          "internalType": "enum BattleArenaOptimized.BattleState",
          "name": "state",
          "type": "uint8"
        },
        {
          "internalType": "uint256",
          "name": "winner",
          "type": "uint256"
        },
        {
          "internalType": "uint256",
          "name": "prizePool",
          "type": "uint256"
        },
        {
          "internalType": "uint32",
          "name": "timestamp",
          "type": "uint32"
        }
      ],
      "stateMutability": "view",
      "type": "function"
    },
    {
      "inputs": [
        {
          "internalType": "uint256",
          "name": "myMonanimalId",
          "type": "uint256"
        },
        {
          "internalType": "uint256",
          "name": "opponentMonanimalId",
          "type": "uint256"
        }
      ],
      "name": "createDuel",
      "outputs": [],
      "stateMutability": "payable",
      "type": "function"
    },
    {
      "inputs": [],
      "name": "duelFee",
      "outputs": [
        {
          "internalType": "uint256",
          "name": "",
          "type": "uint256"
        }
      ],
      "stateMutability": "view",
      "type": "function"
    },
    {
      "inputs": [
        {
          "internalType": "uint256",
          "name": "monanimalId",
          "type": "uint256"
        }
      ],
      "name": "emergencyFreeMolanimal",
      "outputs": [],
      "stateMutability": "nonpayable",
      "type": "function"
    },
    {
      "inputs": [
        {
          "internalType": "uint256",
          "name": "battleId",
          "type": "uint256"
        }
      ],
      "name": "getBattle",
      "outputs": [
        {
          "components": [
            {
              "internalType": "uint256",
              "name": "battleId",
              "type": "uint256"
            },
            {
              "internalType": "enum BattleArenaOptimized.BattleType",
              "name": "battleType",
              "type": "uint8"
            },
            {
              "internalType": "uint256[2]",
              "name": "participants",
              "type": "uint256[2]"
            },
            {
              "internalType": "address[2]",
              "name": "players",
              "type": "address[2]"
            },
            {
              "internalType": "enum BattleArenaOptimized.BattleState",
              "name": "state",
              "type": "uint8"
            },
            {
              "internalType": "uint256",
              "name": "winner",
              "type": "uint256"
            },
            {
              "internalType": "uint256",
              "name": "prizePool",
              "type": "uint256"
            },
            {
              "internalType": "uint32",
              "name": "timestamp",
              "type": "uint32"
            }
          ],
          "internalType": "struct BattleArenaOptimized.Battle",
          "name": "",
          "type": "tuple"
        }
      ],
      "stateMutability": "view",
      "type": "function"
    },
    {
      "inputs": [
        {
          "internalType": "uint256",
          "name": "battleId",
          "type": "uint256"
        }
      ],
      "name": "getBattleInfo",
      "outputs": [
        {
          "internalType": "uint256[2]",
          "name": "participants",
          "type": "uint256[2]"
        },
        {
          "internalType": "address[2]",
          "name": "players",
          "type": "address[2]"
        },
        {
          "internalType": "uint256",
          "name": "winner",
          "type": "uint256"
        },
        {
          "internalType": "uint256",
          "name": "prizePool",
          "type": "uint256"
        },
        {
          "internalType": "enum BattleArenaOptimized.BattleState",
          "name": "state",
          "type": "uint8"
        }
      ],
      "stateMutability": "view",
      "type": "function"
    },
    {
      "inputs": [
        {
          "internalType": "address",
          "name": "player",
          "type": "address"
        }
      ],
      "name": "getPlayerBattles",
      "outputs": [
        {
          "internalType": "uint256[]",
          "name": "",
          "type": "uint256[]"
        }
      ],
      "stateMutability": "view",
      "type": "function"
    },
    {
      "inputs": [],
      "name": "monanimalContract",
      "outputs": [
        {
          "internalType": "contract MonanimalNFT",
          "name": "",
          "type": "address"
        }
      ],
      "stateMutability": "view",
      "type": "function"
    },
    {
      "inputs": [
        {
          "internalType": "uint256",
          "name": "",
          "type": "uint256"
        }
      ],
      "name": "monanimalInBattle",
      "outputs": [
        {
          "internalType": "bool",
          "name": "",
          "type": "bool"
        }
      ],
      "stateMutability": "view",
      "type": "function"
    },
    {
      "inputs": [],
      "name": "owner",
      "outputs": [
        {
          "internalType": "address",
          "name": "",
          "type": "address"
        }
      ],
      "stateMutability": "view",
      "type": "function"
    },
    {
      "inputs": [
        {
          "internalType": "address",
          "name": "",
          "type": "address"
        },
        {
          "internalType": "uint256",
          "name": "",
          "type": "uint256"
        }
      ],
      "name": "playerBattles",
      "outputs": [
        {
          "internalType": "uint256",
          "name": "",
          "type": "uint256"
        }
      ],
      "stateMutability": "view",
      "type": "function"
    },
    {
      "inputs": [],
      "name": "renounceOwnership",
      "outputs": [],
      "stateMutability": "nonpayable",
      "type": "function"
    },
    {
      "inputs": [
        {
          "internalType": "address",
          "name": "_monanimalContract",
          "type": "address"
        },
        {
          "internalType": "address",
          "name": "_weaponContract",
          "type": "address"
        },
        {
          "internalType": "address",
          "name": "_artifactContract",
          "type": "address"
        }
      ],
      "name": "setContracts",
      "outputs": [],
      "stateMutability": "nonpayable",
      "type": "function"
    },
    {
      "inputs": [
        {
          "internalType": "uint256",
          "name": "_duelFee",
          "type": "uint256"
        },
        {
          "internalType": "uint256",
          "name": "_tournamentFee",
          "type": "uint256"
        }
      ],
      "name": "setFees",
      "outputs": [],
      "stateMutability": "nonpayable",
      "type": "function"
    },
    {
      "inputs": [],
      "name": "tournamentFee",
      "outputs": [
        {
          "internalType": "uint256",
          "name": "",
          "type": "uint256"
        }
      ],
      "stateMutability": "view",
      "type": "function"
    },
    {
      "inputs": [
        {
          "internalType": "address",
          "name": "newOwner",
          "type": "address"
        }
      ],
      "name": "transferOwnership",
      "outputs": [],
      "stateMutability": "nonpayable",
      "type": "function"
    },
    {
      "inputs": [],
      "name": "weaponContract",
      "outputs": [
        {
          "internalType": "contract WeaponNFT",
          "name": "",
          "type": "address"
        }
      ],
      "stateMutability": "view",
      "type": "function"
    },
    {
      "inputs": [],
      "name": "withdraw",
      "outputs": [],
      "stateMutability": "nonpayable",
      "type": "function"
    }
  ],
  "bytecode": "0x6080346200010157601f62001d8b38819003918201601f19168301916001600160401b03831184841017620001065780849260609460405283398101031262000101576200004d816200011c565b62000069604062000061602085016200011c565b93016200011c565b600080546001600160a01b03198082163390811784556040519691956001600160a01b0395948694859391908416907f8be0079c531659141344cd1fd0a4f28419497f9722a3daafe3b4186f6b6457e09080a360018055662386f26fc1000060095566470de4df820000600a55168560035416176003551683600454161760045516906005541617600555611c599081620001328239f35b600080fd5b634e487b7160e01b600052604160045260246000fd5b51906001600160a01b0382168203620001015756fe608080604052600436101561001357600080fd5b600090813560e01c90816302775410146112f0575080630b78f9c0146112cf57806311131599146112a65780633ccfd60b146112315780634596577c1461088357806359666c051461085057806360042dee14610827578063606d2e96146107a9578063641ef4cd146107535780636dd0ce7a14610578578063715018a61461051e5780638da5cb5b146104f7578063b3066d491461047c578063bd04516914610453578063c0a6e9d7146102be578063cd3ef3ff1461020c578063e4863c9b146101ee578063f2fde38b146101235763fd789ba1146100f257600080fd5b346101205760203660031901126101205760ff60406020926004358152600884522054166040519015158152f35b80fd5b50346101205760203660031901126101205761013d611352565b6101456113c7565b6001600160a01b0390811690811561019a57600054826bffffffffffffffffffffffff60a01b821617600055167f8be0079c531659141344cd1fd0a4f28419497f9722a3daafe3b4186f6b6457e0600080a380f35b60405162461bcd60e51b815260206004820152602660248201527f4f776e61626c653a206e6577206f776e657220697320746865207a65726f206160448201526564647265737360d01b6064820152608490fd5b50346101205780600319360112610120576020600954604051908152f35b5034610120576020806003193601126102ba576001600160a01b0361022f611352565b168252600781526040822060405192838383549182815201908193835284832090835b8181106102a6575050508461026891038561149e565b60405193838594850191818652518092526040850193925b82811061028f57505050500390f35b835185528695509381019392810192600101610280565b825484529286019260019283019201610252565b5080fd5b5034610120576020806003193601126102ba57604080516102de8161141f565b369037604080516102ee8161141f565b3690376004358252600681526040822060405161030a81611451565b81548152600161032260ff82850154168584016116de565b6040519060028481018783855b8985841061043f5750505050506103458361141f565b60408481019384525195600486018884895b8486841061042157505050505061036d8761141f565b6060850196875260ff6006870154169361038b6080870195866116ea565b6007870154958660a082015260e063ffffffff600960088b01549a8b60c0860152015416910152519651935197600389101561040d5760405197885b8483106103fa5760e08a6103f88d8c8c6103e4604086018e611396565b608085015260a084015260c0830190611345565bf35b81518152918501919083019083016103c7565b634e487b7160e01b81526021600452602490fd5b84546001600160a01b03168252938201939290910191869101610357565b82918554815201930191019091849061032f565b50346101205780600319360112610120576005546040516001600160a01b039091168152602090f35b503461012057606036600319011261012057610496611352565b6001600160a01b0390602435828116908190036104f257604435928084168094036104f2576104c36113c7565b6bffffffffffffffffffffffff60a01b9216826003541617600355816004541617600455600554161760055580f35b600080fd5b5034610120578060031936011261012057546040516001600160a01b039091168152602090f35b50346101205780600319360112610120576105376113c7565b600080546001600160a01b0319811682556001600160a01b03167f8be0079c531659141344cd1fd0a4f28419497f9722a3daafe3b4186f6b6457e08280a380f35b50346101205760209081600319360112610120578060e060405161059b81611451565b82815282858201526040516105af8161141f565b604036823760408201526040516105c58161141f565b604036823760608201528260808201528260a08201528260c0820152015260043581526006825260408120604051906105fd82611451565b8054825260019060ff82820154169161061986850193846116de565b604051906002908382018782855b8b86841061073f57505050505061063d8361141f565b604086810193845251916004850188845b8382106107235750505060099697986106668461141f565b6060890193845260ff6006870154169961068460808b019b8c6116ea565b60078701549560a08b019687526106c560088901549860c08d01998a5263ffffffff9b8c910154169960e08d019a8b526040519c518d5251848d0190611322565b5160408b015b84831061071057505050505050610140966106ee6106f992516080890190611396565b5160c0870190611345565b5160e0850152516101008401525116610120820152f35b81518152918501919083019083016106cb565b82546001600160a01b0316815291840191908401908b0161064e565b829185548152019301910190918390610627565b50346101205760403660031901126101205761076d611352565b6001600160a01b031681526007602052604081208054602435929083101561012057602061079b8484611368565b90546040519160031b1c8152f35b503461012057602036600319011261012057604060c091600435815260066020522080549060ff6001820154169060ff60068201541661081660078301549161080c63ffffffff6009600887015496015416956040519788526020880190611322565b6040860190611345565b6060840152608083015260a0820152f35b50346101205780600319360112610120576004546040516001600160a01b039091168152602090f35b50346101205760203660031901126101205761086a6113c7565b6004358152600860205260408120805460ff1916905580f35b5061088d3661130c565b6002600154146111ec57600260015560095434106111ae576003546040516331a9108f60e11b8152600481018490526001600160a01b039091169290602081602481875afa90811561109957859161118f575b50336001600160a01b039091160361114a57808452600860205260ff6040852054166110f957818452600860205260ff6040852054166110a457604051631a01da3f60e01b815260048101829052908482602481875afa91821561109957859261107d575b50604051631a01da3f60e01b815260048101849052928584602481885afa93841561107257869461104e575b506101008084015161101257840151610fcd5760025494600186016002556040519061099c8261141f565b83825282602083015260246020604051926109b68461141f565b338452604051928380926331a9108f60e11b82528860048301525afa908115610fc2578991610fa3575b506001600160a01b03166020820152604051916109fc83611451565b878352886020840152604083015260608201528660808201528660a08201523460c082015263ffffffff421660e08201528587526006602052604087208151815560208201516002811015610f585760ff801960018401541691161760018201556040820151885b60028110610f8c5750506060820151885b60028110610f6c57505060808201516003811015610f5857610b7194610b779694899463ffffffff60e060098760409760067fd62c968428ee35efcd585201e478fee8104bb7facd8559d3dd58fd7fb83e65869a019060ff8019835416911617905560a0850151600782015560c08501516008820155019201511663ffffffff19825416179055338b526007602052610b1085848d206116f6565b848b52600660205260018060a01b036005848d200154168b526007602052610b3a85848d206116f6565b818b526008602052828b20600160ff19825416179055808b52828b20600160ff1982541617905582519182526020820152a2611753565b91611753565b6040518360208201524260408201524460608201526060815280608081011067ffffffffffffffff608083011117610f445790610bc6826080610bd09401604052602081519101208094611b68565b9260801c90611b68565b11610f2f57808252600660205260026040832001545b8183526006602052604083209060068201600160ff19825416179055806007830155600282015491828214600014610f29576003810154925b855260086020526040808620805460ff19908116909155600383810154885291872080549091169055546001600160a01b0316803b15610f25576040518681604481836317e2549760e21b96878352896004840152600160248401525af18015610f1a57610f07575b5060035486916001600160a01b0390911690813b15610ecc57829160448392604051948593849283528a60048401528160248401525af18015610efc57610ee4575b506003546001600160a01b0316803b156102ba57604051828160448183630ba4818b60e31b968783528a6004840152606460248401525af1908115610e97578391610ed0575b50506003546001600160a01b031694853b15610ecc576044839283604051988994859384526004840152601960248401525af1938415610ebf578594610ea2575b50507f10e7759bcc51f7373b455cd1e6ea4e22b2b9872685e2193e36935daeefe1f712916008604092015482519182526020820152a2815260066020526040812060018060a01b036003541690602060078201546024604051809581936331a9108f60e11b835260048301525afa918215610e97578392610e63575b5060080154605a810290808204605a1490151715610e4f57829182918291829160649004906001600160a01b03165af1610e05611bf3565b5015610e12576001805580f35b60405162461bcd60e51b8152602060048201526015602482015274141c9a5e99481d1c985b9cd9995c8819985a5b1959605a1b6044820152606490fd5b634e487b7160e01b83526011600452602483fd5b6008919250610e899060203d602011610e90575b610e81818361149e565b8101906114c0565b9190610dcd565b503d610e77565b6040513d85823e3d90fd5b610eae9192945061146e565b610ebb5782918438610d51565b8380fd5b50604051903d90823e3d90fd5b8280fd5b610ed99061146e565b6102ba578138610d10565b610eed9061146e565b610ef8578438610cca565b8480fd5b6040513d84823e3d90fd5b610f139096919661146e565b9438610c88565b6040513d89823e3d90fd5b8580fd5b82610c1f565b80825260066020526003604083200154610be6565b634e487b7160e01b85526041600452602485fd5b634e487b7160e01b89526021600452602489fd5b81516001600160a01b031660048285010155602090910190600101610a75565b600190602083519301926002828601015501610a64565b610fbc915060203d602011610e9057610e81818361149e565b386109e0565b6040513d8b823e3d90fd5b60405162461bcd60e51b815260206004820152601860248201527f4f70706f6e656e74204d6f6e616e696d616c206973204b4f00000000000000006044820152606490fd5b60405162461bcd60e51b8152602060048201526014602482015273596f7572204d6f6e616e696d616c206973204b4f60601b6044820152606490fd5b61106b9194503d8088833e611063818361149e565b8101906115cb565b9238610971565b6040513d88823e3d90fd5b6110929192503d8087833e611063818361149e565b9038610945565b6040513d87823e3d90fd5b60405162461bcd60e51b815260206004820152602760248201527f4f70706f6e656e74204d6f6e616e696d616c20697320616c726561647920696e60448201526620626174746c6560c81b6064820152608490fd5b60405162461bcd60e51b815260206004820152602360248201527f596f7572204d6f6e616e696d616c20697320616c726561647920696e20626174604482015262746c6560e81b6064820152608490fd5b60405162461bcd60e51b815260206004820152601b60248201527f4e6f74206f776e6572206f6620796f7572204d6f6e616e696d616c00000000006044820152606490fd5b6111a8915060203d602011610e9057610e81818361149e565b386108e0565b60405162461bcd60e51b8152602060048201526016602482015275496e73756666696369656e7420656e7472792066656560501b6044820152606490fd5b60405162461bcd60e51b815260206004820152601f60248201527f5265656e7472616e637947756172643a207265656e7472616e742063616c6c006044820152606490fd5b503461012057806003193601126101205761124a6113c7565b8080808060018060a01b0381541647905af1611264611bf3565b501561126d5780f35b60405162461bcd60e51b815260206004820152601160248201527015da5d1a191c985dd85b0819985a5b1959607a1b6044820152606490fd5b50346101205780600319360112610120576003546040516001600160a01b039091168152602090f35b5034610120576112de3661130c565b906112e76113c7565b600955600a5580f35b9050346102ba57816003193601126102ba57602090600a548152f35b60409060031901126104f2576004359060243590565b90600282101561132f5752565b634e487b7160e01b600052602160045260246000fd5b90600382101561132f5752565b600435906001600160a01b03821682036104f257565b80548210156113805760005260206000200190600090565b634e487b7160e01b600052603260045260246000fd5b6000915b600283106113a757505050565b81516001600160a01b03168152600192909201916020918201910161139a565b6000546001600160a01b031633036113db57565b606460405162461bcd60e51b815260206004820152602060248201527f4f776e61626c653a2063616c6c6572206973206e6f7420746865206f776e65726044820152fd5b6040810190811067ffffffffffffffff82111761143b57604052565b634e487b7160e01b600052604160045260246000fd5b610100810190811067ffffffffffffffff82111761143b57604052565b67ffffffffffffffff811161143b57604052565b60a0810190811067ffffffffffffffff82111761143b57604052565b90601f8019910116810190811067ffffffffffffffff82111761143b57604052565b908160209103126104f257516001600160a01b03811681036104f25790565b67ffffffffffffffff811161143b57601f01601f191660200190565b919080601f840112156104f257825190611514826114df565b91611522604051938461149e565b8083526020918282870101116104f25760005b81811061154a57508260009394955001015290565b8581018301518482018401528201611535565b91908260c09103126104f25760405160c0810181811067ffffffffffffffff82111761143b5760405260a080829480518452602081015160208501526040810151604085015260608101516060850152608081015160808501520151910152565b519081151582036104f257565b6020818303126104f257805167ffffffffffffffff918282116104f2570191610240838203126104f257604051926101a0928385018581108282111761143b5760405281518181116104f257836116239184016114fb565b8552602082015160058110156104f2576020860152604082015160068110156104f2576040860152611658836060840161155d565b606086015261012090818301516080870152610140908184015160a0880152610160928385015160c089015261169b610180978887015160e08b015286016115be565b6101008901526101c0850151908801526101e08401519081116104f257610220946116c79185016114fb565b908601526102008201519085015201519082015290565b600282101561132f5752565b600382101561132f5752565b80546801000000000000000081101561143b5761171891600182018155611368565b819291549060031b91821b91600019901b1916179055565b9190820180921161173d57565b634e487b7160e01b600052601160045260246000fd5b60409081519161176283611482565b600092838152602093808583015280838301528060806060938285820152015281840151928351958085015190828601519360a0868801519701519761016080820151806119b7575b506101808092015191826117dd575b505050508251976117ca89611482565b8852870152850152830152608082015290565b60055487516321196b5160e21b81526004810194909452959b949a949997958490849060249082906001600160a01b03165afa9384156119ac5790818a959493929461187f575b5050505061186b61185f611853611847611875969560a095019b8c515190611730565b9c8c8c51015190611730565b95878b51015190611730565b96888a51015190611730565b9751015190611730565b95388080806117ba565b9193509193503d8082863e611894818661149e565b8401918b858403126102ba57845167ffffffffffffffff95868211610ebb57019261020084820312610ecc5788519585870187811082821117610f44578a528451818111610ef857826118e89187016114fb565b87528d8501516008811015610ef8578e880152898501516006811015610ef8578a880152611918828d870161155d565b8c8801526101209384860151600c8110156102ba576080890152610140968787015160a08a01528601519182116101205750611875979660a0966101e0878f9497611981611853986119756118479961185f9c61186b9e016114fb565b60c088015283016115be565b60e08601526101a08201516101008601526101c0820151908501520151908201529550959650611824565b8751903d90823e3d90fd5b83600180999e9d9c939b9960a01b0360045416916024895180948193639e41b73f60e01b835260048301525afa908115611b5e578491611a33575b50906080611a16611a20611a169c9d9e9f888d611a2c97019e8f9b8c515190611730565b9a51015190611730565b99898d51015190611730565b98386117ab565b90503d8085833e611a44818361149e565b81018582820312610ef857815167ffffffffffffffff92838211611b425701906101c082820312610f255788519261012080850185811083821117611b4a578b528351828111611b465783611a9a9186016114fb565b8552888401516008811015611b4657898601528a8401516006811015611b4657858c0152611aca83858f0161155d565b8d860152830151608085015261014083015160a08501528c830151908111611b4257611a169c9d9e9f888d611a2c97966101a087611b12611a1698611a209860809b016114fb565b60c0840152611b2461018082016115be565b60e0840152015161010082015296975050509f9e9d9c5050506119f2565b8680fd5b8880fd5b634e487b7160e01b89526041600452602489fd5b87513d86823e3d90fd5b602081015160038102908082046003149015171561173d578151918260011b928084046002149015171561173d576080611bc3611bb8611bad60c896611bcc96611730565b604085015190611730565b606084015190611730565b91015190611730565b910690610384820180921161173d5781810291818304149015171561173d576103e8900490565b3d15611c1e573d90611c04826114df565b91611c12604051938461149e565b82523d6000602084013e565b60609056fea2646970667358221220b6ecd546c7b1ec4699a5a7300fb6a2512c0747edf7a29c0a22f8b3c7bb6bd76364736f6c63430008140033",
  "linkReferences": {},
  "deployedLinkReferences": {}
}