{
  "_format": "hh-sol-artifact-1",
  "contractName": "ArtifactNFT",
  "sourceName": "contracts/ArtifactNFT.sol",
  "abi": [
    {
      "inputs": [],
      "stateMutability": "nonpayable",
      "type": "constructor"
    },
    {
      "anonymous": false,
      "inputs": [
        {
          "indexed": true,
          "internalType": "address",
          "name": "owner",
          "type": "address"
        },
        {
          "indexed": true,
          "internalType": "address",
          "name": "approved",
          "type": "address"
        },
        {
          "indexed": true,
          "internalType": "uint256",
          "name": "tokenId",
          "type": "uint256"
        }
      ],
      "name": "Approval",
      "type": "event"
    },
    {
      "anonymous": false,
      "inputs": [
        {
          "indexed": true,
          "internalType": "address",
          "name": "owner",
          "type": "address"
        },
        {
          "indexed": true,
          "internalType": "address",
          "name": "operator",
          "type": "address"
        },
        {
          "indexed": false,
          "internalType": "bool",
          "name": "approved",
          "type": "bool"
        }
      ],
      "name": "ApprovalForAll",
      "type": "event"
    },
    {
      "anonymous": false,
      "inputs": [
        {
          "indexed": true,
          "internalType": "uint256",
          "name": "tokenId",
          "type": "uint256"
        },
        {
          "indexed": true,
          "internalType": "address",
          "name": "owner",
          "type": "address"
        },
        {
          "indexed": false,
          "internalType": "enum ArtifactNFT.ArtifactType",
          "name": "artifactType",
          "type": "uint8"
        },
        {
          "indexed": false,
          "internalType": "enum ArtifactNFT.Rarity",
          "name": "rarity",
          "type": "uint8"
        }
      ],
      "name": "ArtifactCrafted",
      "type": "event"
    },
    {
      "anonymous": false,
      "inputs": [
        {
          "indexed": true,
          "internalType": "uint256",
          "name": "tokenId",
          "type": "uint256"
        },
        {
          "indexed": true,
          "internalType": "uint256",
          "name": "monanimalId",
          "type": "uint256"
        }
      ],
      "name": "ArtifactEquipped",
      "type": "event"
    },
    {
      "anonymous": false,
      "inputs": [
        {
          "indexed": true,
          "internalType": "uint256",
          "name": "tokenId",
          "type": "uint256"
        },
        {
          "indexed": false,
          "internalType": "uint256",
          "name": "newCharges",
          "type": "uint256"
        }
      ],
      "name": "ArtifactRecharged",
      "type": "event"
    },
    {
      "anonymous": false,
      "inputs": [
        {
          "indexed": true,
          "internalType": "uint256",
          "name": "tokenId",
          "type": "uint256"
        }
      ],
      "name": "ArtifactUnequipped",
      "type": "event"
    },
    {
      "anonymous": false,
      "inputs": [
        {
          "indexed": true,
          "internalType": "address",
          "name": "previousOwner",
          "type": "address"
        },
        {
          "indexed": true,
          "internalType": "address",
          "name": "newOwner",
          "type": "address"
        }
      ],
      "name": "OwnershipTransferred",
      "type": "event"
    },
    {
      "anonymous": false,
      "inputs": [
        {
          "indexed": true,
          "internalType": "uint256",
          "name": "tokenId",
          "type": "uint256"
        },
        {
          "indexed": false,
          "internalType": "enum ArtifactNFT.SpecialEffect",
          "name": "effect",
          "type": "uint8"
        },
        {
          "indexed": false,
          "internalType": "uint256",
          "name": "power",
          "type": "uint256"
        }
      ],
      "name": "SpecialEffectTriggered",
      "type": "event"
    },
    {
      "anonymous": false,
      "inputs": [
        {
          "indexed": true,
          "internalType": "address",
          "name": "from",
          "type": "address"
        },
        {
          "indexed": true,
          "internalType": "address",
          "name": "to",
          "type": "address"
        },
        {
          "indexed": true,
          "internalType": "uint256",
          "name": "tokenId",
          "type": "uint256"
        }
      ],
      "name": "Transfer",
      "type": "event"
    },
    {
      "inputs": [
        {
          "internalType": "address",
          "name": "to",
          "type": "address"
        },
        {
          "internalType": "uint256",
          "name": "tokenId",
          "type": "uint256"
        }
      ],
      "name": "approve",
      "outputs": [],
      "stateMutability": "nonpayable",
      "type": "function"
    },
    {
      "inputs": [
        {
          "internalType": "uint256",
          "name": "",
          "type": "uint256"
        }
      ],
      "name": "artifacts",
      "outputs": [
        {
          "internalType": "string",
          "name": "name",
          "type": "string"
        },
        {
          "internalType": "enum ArtifactNFT.ArtifactType",
          "name": "artifactType",
          "type": "uint8"
        },
        {
          "internalType": "enum ArtifactNFT.Rarity",
          "name": "rarity",
          "type": "uint8"
        },
        {
          "components": [
            {
              "internalType": "uint256",
              "name": "healthBonus",
              "type": "uint256"
            },
            {
              "internalType": "uint256",
              "name": "attackBonus",
              "type": "uint256"
            },
            {
              "internalType": "uint256",
              "name": "defenseBonus",
              "type": "uint256"
            },
            {
              "internalType": "uint256",
              "name": "speedBonus",
              "type": "uint256"
            },
            {
              "internalType": "uint256",
              "name": "magicBonus",
              "type": "uint256"
            },
            {
              "internalType": "uint256",
              "name": "luckBonus",
              "type": "uint256"
            }
          ],
          "internalType": "struct ArtifactNFT.ArtifactStats",
          "name": "stats",
          "type": "tuple"
        },
        {
          "internalType": "enum ArtifactNFT.SpecialEffect",
          "name": "specialEffect",
          "type": "uint8"
        },
        {
          "internalType": "uint256",
          "name": "effectPower",
          "type": "uint256"
        },
        {
          "internalType": "string",
          "name": "essence",
          "type": "string"
        },
        {
          "internalType": "bool",
          "name": "isEquipped",
          "type": "bool"
        },
        {
          "internalType": "uint256",
          "name": "equippedTo",
          "type": "uint256"
        },
        {
          "internalType": "uint256",
          "name": "charges",
          "type": "uint256"
        },
        {
          "internalType": "uint256",
          "name": "maxCharges",
          "type": "uint256"
        }
      ],
      "stateMutability": "view",
      "type": "function"
    },
    {
      "inputs": [
        {
          "internalType": "address",
          "name": "owner",
          "type": "address"
        }
      ],
      "name": "balanceOf",
      "outputs": [
        {
          "internalType": "uint256",
          "name": "",
          "type": "uint256"
        }
      ],
      "stateMutability": "view",
      "type": "function"
    },
    {
      "inputs": [],
      "name": "craft",
      "outputs": [],
      "stateMutability": "payable",
      "type": "function"
    },
    {
      "inputs": [],
      "name": "craftPrice",
      "outputs": [
        {
          "internalType": "uint256",
          "name": "",
          "type": "uint256"
        }
      ],
      "stateMutability": "view",
      "type": "function"
    },
    {
      "inputs": [
        {
          "internalType": "uint256",
          "name": "tokenId",
          "type": "uint256"
        },
        {
          "internalType": "uint256",
          "name": "monanimalId",
          "type": "uint256"
        }
      ],
      "name": "equipArtifact",
      "outputs": [],
      "stateMutability": "nonpayable",
      "type": "function"
    },
    {
      "inputs": [
        {
          "internalType": "uint256",
          "name": "tokenId",
          "type": "uint256"
        }
      ],
      "name": "getApproved",
      "outputs": [
        {
          "internalType": "address",
          "name": "",
          "type": "address"
        }
      ],
      "stateMutability": "view",
      "type": "function"
    },
    {
      "inputs": [
        {
          "internalType": "uint256",
          "name": "tokenId",
          "type": "uint256"
        }
      ],
      "name": "getArtifact",
      "outputs": [
        {
          "components": [
            {
              "internalType": "string",
              "name": "name",
              "type": "string"
            },
            {
              "internalType": "enum ArtifactNFT.ArtifactType",
              "name": "artifactType",
              "type": "uint8"
            },
            {
              "internalType": "enum ArtifactNFT.Rarity",
              "name": "rarity",
              "type": "uint8"
            },
            {
              "components": [
                {
                  "internalType": "uint256",
                  "name": "healthBonus",
                  "type": "uint256"
                },
                {
                  "internalType": "uint256",
                  "name": "attackBonus",
                  "type": "uint256"
                },
                {
                  "internalType": "uint256",
                  "name": "defenseBonus",
                  "type": "uint256"
                },
                {
                  "internalType": "uint256",
                  "name": "speedBonus",
                  "type": "uint256"
                },
                {
                  "internalType": "uint256",
                  "name": "magicBonus",
                  "type": "uint256"
                },
                {
                  "internalType": "uint256",
                  "name": "luckBonus",
                  "type": "uint256"
                }
              ],
              "internalType": "struct ArtifactNFT.ArtifactStats",
              "name": "stats",
              "type": "tuple"
            },
            {
              "internalType": "enum ArtifactNFT.SpecialEffect",
              "name": "specialEffect",
              "type": "uint8"
            },
            {
              "internalType": "uint256",
              "name": "effectPower",
              "type": "uint256"
            },
            {
              "internalType": "string",
              "name": "essence",
              "type": "string"
            },
            {
              "internalType": "bool",
              "name": "isEquipped",
              "type": "bool"
            },
            {
              "internalType": "uint256",
              "name": "equippedTo",
              "type": "uint256"
            },
            {
              "internalType": "uint256",
              "name": "charges",
              "type": "uint256"
            },
            {
              "internalType": "uint256",
              "name": "maxCharges",
              "type": "uint256"
            }
          ],
          "internalType": "struct ArtifactNFT.Artifact",
          "name": "",
          "type": "tuple"
        }
      ],
      "stateMutability": "view",
      "type": "function"
    },
    {
      "inputs": [
        {
          "internalType": "address",
          "name": "owner",
          "type": "address"
        }
      ],
      "name": "getOwnerArtifacts",
      "outputs": [
        {
          "internalType": "uint256[]",
          "name": "",
          "type": "uint256[]"
        }
      ],
      "stateMutability": "view",
      "type": "function"
    },
    {
      "inputs": [
        {
          "internalType": "address",
          "name": "owner",
          "type": "address"
        },
        {
          "internalType": "address",
          "name": "operator",
          "type": "address"
        }
      ],
      "name": "isApprovedForAll",
      "outputs": [
        {
          "internalType": "bool",
          "name": "",
          "type": "bool"
        }
      ],
      "stateMutability": "view",
      "type": "function"
    },
    {
      "inputs": [],
      "name": "name",
      "outputs": [
        {
          "internalType": "string",
          "name": "",
          "type": "string"
        }
      ],
      "stateMutability": "view",
      "type": "function"
    },
    {
      "inputs": [],
      "name": "owner",
      "outputs": [
        {
          "internalType": "address",
          "name": "",
          "type": "address"
        }
      ],
      "stateMutability": "view",
      "type": "function"
    },
    {
      "inputs": [
        {
          "internalType": "address",
          "name": "",
          "type": "address"
        },
        {
          "internalType": "uint256",
          "name": "",
          "type": "uint256"
        }
      ],
      "name": "ownerArtifacts",
      "outputs": [
        {
          "internalType": "uint256",
          "name": "",
          "type": "uint256"
        }
      ],
      "stateMutability": "view",
      "type": "function"
    },
    {
      "inputs": [
        {
          "internalType": "uint256",
          "name": "tokenId",
          "type": "uint256"
        }
      ],
      "name": "ownerOf",
      "outputs": [
        {
          "internalType": "address",
          "name": "",
          "type": "address"
        }
      ],
      "stateMutability": "view",
      "type": "function"
    },
    {
      "inputs": [
        {
          "internalType": "uint256",
          "name": "tokenId",
          "type": "uint256"
        }
      ],
      "name": "rechargeArtifact",
      "outputs": [],
      "stateMutability": "payable",
      "type": "function"
    },
    {
      "inputs": [],
      "name": "rechargePrice",
      "outputs": [
        {
          "internalType": "uint256",
          "name": "",
          "type": "uint256"
        }
      ],
      "stateMutability": "view",
      "type": "function"
    },
    {
      "inputs": [],
      "name": "renounceOwnership",
      "outputs": [],
      "stateMutability": "nonpayable",
      "type": "function"
    },
    {
      "inputs": [
        {
          "internalType": "address",
          "name": "from",
          "type": "address"
        },
        {
          "internalType": "address",
          "name": "to",
          "type": "address"
        },
        {
          "internalType": "uint256",
          "name": "tokenId",
          "type": "uint256"
        }
      ],
      "name": "safeTransferFrom",
      "outputs": [],
      "stateMutability": "nonpayable",
      "type": "function"
    },
    {
      "inputs": [
        {
          "internalType": "address",
          "name": "from",
          "type": "address"
        },
        {
          "internalType": "address",
          "name": "to",
          "type": "address"
        },
        {
          "internalType": "uint256",
          "name": "tokenId",
          "type": "uint256"
        },
        {
          "internalType": "bytes",
          "name": "data",
          "type": "bytes"
        }
      ],
      "name": "safeTransferFrom",
      "outputs": [],
      "stateMutability": "nonpayable",
      "type": "function"
    },
    {
      "inputs": [
        {
          "internalType": "address",
          "name": "operator",
          "type": "address"
        },
        {
          "internalType": "bool",
          "name": "approved",
          "type": "bool"
        }
      ],
      "name": "setApprovalForAll",
      "outputs": [],
      "stateMutability": "nonpayable",
      "type": "function"
    },
    {
      "inputs": [
        {
          "internalType": "uint256",
          "name": "_price",
          "type": "uint256"
        }
      ],
      "name": "setCraftPrice",
      "outputs": [],
      "stateMutability": "nonpayable",
      "type": "function"
    },
    {
      "inputs": [
        {
          "internalType": "uint256",
          "name": "_price",
          "type": "uint256"
        }
      ],
      "name": "setRechargePrice",
      "outputs": [],
      "stateMutability": "nonpayable",
      "type": "function"
    },
    {
      "inputs": [
        {
          "internalType": "bytes4",
          "name": "interfaceId",
          "type": "bytes4"
        }
      ],
      "name": "supportsInterface",
      "outputs": [
        {
          "internalType": "bool",
          "name": "",
          "type": "bool"
        }
      ],
      "stateMutability": "view",
      "type": "function"
    },
    {
      "inputs": [],
      "name": "symbol",
      "outputs": [
        {
          "internalType": "string",
          "name": "",
          "type": "string"
        }
      ],
      "stateMutability": "view",
      "type": "function"
    },
    {
      "inputs": [
        {
          "internalType": "uint256",
          "name": "index",
          "type": "uint256"
        }
      ],
      "name": "tokenByIndex",
      "outputs": [
        {
          "internalType": "uint256",
          "name": "",
          "type": "uint256"
        }
      ],
      "stateMutability": "view",
      "type": "function"
    },
    {
      "inputs": [
        {
          "internalType": "address",
          "name": "owner",
          "type": "address"
        },
        {
          "internalType": "uint256",
          "name": "index",
          "type": "uint256"
        }
      ],
      "name": "tokenOfOwnerByIndex",
      "outputs": [
        {
          "internalType": "uint256",
          "name": "",
          "type": "uint256"
        }
      ],
      "stateMutability": "view",
      "type": "function"
    },
    {
      "inputs": [
        {
          "internalType": "uint256",
          "name": "tokenId",
          "type": "uint256"
        }
      ],
      "name": "tokenURI",
      "outputs": [
        {
          "internalType": "string",
          "name": "",
          "type": "string"
        }
      ],
      "stateMutability": "view",
      "type": "function"
    },
    {
      "inputs": [],
      "name": "totalSupply",
      "outputs": [
        {
          "internalType": "uint256",
          "name": "",
          "type": "uint256"
        }
      ],
      "stateMutability": "view",
      "type": "function"
    },
    {
      "inputs": [
        {
          "internalType": "address",
          "name": "from",
          "type": "address"
        },
        {
          "internalType": "address",
          "name": "to",
          "type": "address"
        },
        {
          "internalType": "uint256",
          "name": "tokenId",
          "type": "uint256"
        }
      ],
      "name": "transferFrom",
      "outputs": [],
      "stateMutability": "nonpayable",
      "type": "function"
    },
    {
      "inputs": [
        {
          "internalType": "address",
          "name": "newOwner",
          "type": "address"
        }
      ],
      "name": "transferOwnership",
      "outputs": [],
      "stateMutability": "nonpayable",
      "type": "function"
    },
    {
      "inputs": [
        {
          "internalType": "uint256",
          "name": "tokenId",
          "type": "uint256"
        }
      ],
      "name": "unequipArtifact",
      "outputs": [],
      "stateMutability": "nonpayable",
      "type": "function"
    },
    {
      "inputs": [
        {
          "internalType": "uint256",
          "name": "tokenId",
          "type": "uint256"
        }
      ],
      "name": "useSpecialEffect",
      "outputs": [
        {
          "internalType": "bool",
          "name": "",
          "type": "bool"
        }
      ],
      "stateMutability": "nonpayable",
      "type": "function"
    },
    {
      "inputs": [],
      "name": "withdraw",
      "outputs": [],
      "stateMutability": "nonpayable",
      "type": "function"
    }
  ],
  "bytecode": "0x60803462000385576001600160401b03906040818101838111838210176200036f578152601382526020917f427261776c4e616473204172746966616374730000000000000000000000000083820152815193828501858110828211176200036f578352600885526710549512519050d560c21b8486015281518181116200036f576000948554916001948584811c9416801562000364575b8385101462000350578190601f94858111620002fd575b508390858311600114620002995789926200028d575b5050600019600383901b1c191690851b1786555b8651928311620002795783548481811c911680156200026e575b828210146200025a5782811162000212575b5080918311600114620001ab5750849582939495926200019f575b5050600019600383901b1c191690821b1790555b600a8054336001600160a01b03198216811790925591519290916001600160a01b0316907f8be0079c531659141344cd1fd0a4f28419497f9722a3daafe3b4186f6b6457e09080a3661c6bf526340000600e55660aa87bee538000600f55614bc890816200038b8239f35b01519050388062000120565b90601f198316968487528287209287905b898210620001fa575050838596979810620001e0575b505050811b01905562000134565b015160001960f88460031b161c19169055388080620001d2565b808785968294968601518155019501930190620001bc565b8487528187208380860160051c82019284871062000250575b0160051c019085905b8281106200024457505062000105565b88815501859062000234565b925081926200022b565b634e487b7160e01b87526022600452602487fd5b90607f1690620000f3565b634e487b7160e01b86526041600452602486fd5b015190503880620000c5565b898052848a208894509190601f1984168b5b87828210620002e65750508411620002cc575b505050811b018655620000d9565b015160001960f88460031b161c19169055388080620002be565b8385015186558b97909501949384019301620002ab565b9091508880528389208580850160051c82019286861062000346575b918991869594930160051c01915b82811062000337575050620000af565b8b815585945089910162000327565b9250819262000319565b634e487b7160e01b88526022600452602488fd5b93607f169362000098565b634e487b7160e01b600052604160045260246000fd5b600080fdfe60a0604052600436101561001257600080fd5b60003560e01c8063019cfe8714612a4c57806301ffc9a7146129c457806302b090c1146129a657806306fdde0314612903578063081812fc146128e5578063095ea7b31461276b57806318160ddd1461274d57806323b872dd146127295780632f745c59146126775780633aac181a146125c35780633ccfd60b1461257357806342842e0e146125405780634f6ccce71461249557806357f219b714612363578063584430e6146123455780636352211e1461231557806370a08231146122ea578063715018a61461228d578063814e4ad9146117775780638465ad441461155c5780638da5cb5b1461153357806390d8b63814611469578063937f1a891461144857806395d89b411461137d578063a22cb465146112a2578063b2bf59fd146111c6578063b826f7371461119e578063b88d4fde146110ef578063c560ee581461101a578063c87b56dd146102fe578063e8e6832e146102a6578063e985e9c5146102505763f2fde38b1461018757600080fd5b3461024b57602036600319011261024b576101a0612ab5565b6101a8612da8565b6001600160a01b039081169081156101f757600a54826001600160601b0360a01b821617600a55167f8be0079c531659141344cd1fd0a4f28419497f9722a3daafe3b4186f6b6457e0600080a3005b60405162461bcd60e51b815260206004820152602660248201527f4f776e61626c653a206e6577206f776e657220697320746865207a65726f206160448201526564647265737360d01b6064820152608490fd5b600080fd5b3461024b57604036600319011261024b57610269612ab5565b610271612acb565b9060018060a01b03809116600052600560205260406000209116600052602052602060ff604060002054166040519015158152f35b3461024b57604036600319011261024b576102bf612ab5565b6001600160a01b03166000908152600d602052604090208054602435919082101561024b576020916102f091612d7a565b90546040519160031b1c8152f35b3461024b57602036600319011261024b576004356000818152600260205260409020546001600160a01b031615610fde57600052600c60205260406000206040519061034982612b87565b61035281612c4c565b825261037a60ff600183015461036d828216602087016134c0565b60081c16604084016134cc565b61038660028201612cf2565b606083015261039f60ff600883015416608084016134d8565b600981015460a0830152600e6103b7600a8301612c4c565b918260c085015260ff600b82015416151560e0850152600c810154610100850152600d8101546101208501520154610140830152600660408301511015610fc85761040190614066565b60208201516008811015610fc857610418906144a1565b60408301516006811015610fc857600c60808501511015610fc85761043c9061478f565b91835190608085015191600c831015610fc8576107ab9361067261011a61046460ac9661492c565b9389661e17ba32bc3a1f60c91b61047e60a0830151613c26565b61049a610140610492610120860151613c26565b940151613c26565b926040519889957f3c7465787420783d2232302220793d22333530222066696c6c3d22776869746560208801527011103337b73a16b9b4bd329e911899111f60791b60408801526104f581518092602060518b019101612a6d565b86018460518201527f3c7465787420783d2232302220793d22333635222066696c6c3d22776869746560588201527f2220666f6e742d73697a653d223130223e4566666563743a2000000000000000607882015261055d825180936020609185019101612a6d565b01918360918401527f3c7465787420783d2232302220793d22333830222066696c6c3d22776869746560988401527f2220666f6e742d73697a653d223130223e506f7765723a20000000000000000060b88401526105c581518092602060d087019101612a6d565b82810160d081018590527f3c7465787420783d223232302220793d22333635222066696c6c3d227768697460d78201527f652220666f6e742d73697a653d223130223e436861726765733a20000000000060f782015282519261063391849161011290910190602001612a6d565b602f60f81b6101128383860101015284519261065d84610113976020898787870101019101612a6d565b010101918201520360fa810185520183612c2b565b6040519586937f3c7376672077696474683d2234303022206865696768743d223430302220786d60208601527f6c6e733d22687474703a2f2f7777772e77332e6f72672f323030302f737667226040860152601f60f91b6060860152651e3232b3399f60d11b60618601526106f1815180926020606789019101612a6d565b8401610707825180936020606785019101612a6d565b01661e17b232b3399f60c91b60678201527f3c726563742077696474683d2234303022206865696768743d22343030222066606e8201527f696c6c3d2275726c28236172746966616374426729222f3e0000000000000000608e82015261077882518093602060a685019101612a6d565b0161078d82518093602060a685019101612a6d565b01651e17b9bb339f60d11b60a682015203608c810184520182612c2b565b6107b6825191613f12565b9060208301516008811015610fc85761083f906040516107d581612b6b565b6107dd613a44565b81526107e7613a64565b60208201526107f4613a86565b6040820152610801613aa7565b606082015261080e613ac6565b608082015261081b613ae6565b60a0820152610828613b0a565b60c0820152610835613b29565b60e0820152613be3565b519160408401516006811015610fc8576108df9060405161085f81612b50565b60405161086b81612bf4565b600681526521b7b6b6b7b760d11b6020820152815260405161088c81612bf4565b60088152672ab731b7b6b6b7b760c11b602082015260208201526108ae613b4b565b60408201526108bb613b6b565b60608201526108c8613b8b565b60808201526108d5613bb0565b60a0820152613bd2565b519360c0810151946080820151600c811015610fc8576108fe9061492c565b61090b60a0840151613c26565b9461091a606085015151613c26565b9161092c602060608701510151613c26565b9861093e604060608801510151613c26565b9361094f6060808901510151613c26565b92610961608060608a01510151613c26565b9061097360a060608b01510151613c26565b946109826101208b0151613c26565b9760e06109936101408d0151613c26565b9b015115610f8f576040516109a781612bf4565b6004815260208101637472756560e01b90529c610f169f6102969f607d60f81b9e602f60f81b9b5b604051806080526020683d913730b6b2911d1160b91b9101526109fe8151809260206029608051019101612a6d565b608051019061088b60f21b918260298201527f226465736372697074696f6e223a2241206d7973746963616c20617274696661602b8201527f63742077697468207370656369616c20706f7765727320666f7220427261776c604b8201526d1398591cc818985d1d1b195cc88b60921b606b8201527f22696d616765223a22646174613a696d6167652f7376672b786d6c3b626173656079820152620d8d0b60ea1b6099820152610ab9825180936020609c85019101612a6d565b0190609c8201526d2261747472696275746573223a5b60901b609e8201527f7b2274726169745f74797065223a2254797065222c2276616c7565223a22000060ac820152610b1182518093602060ca85019101612a6d565b0162089f4b60ea1b9c818e60ca819401527f7b2274726169745f74797065223a22526172697479222c2276616c7565223a2260cd820152610b5c82518093602060ed85019101612a6d565b01988160ed8b01527f7b2274726169745f74797065223a22457373656e6365222c2276616c7565223a60f08b015281601160f91b9a8b610110820152825190610baf826101119560208785019101612a6d565b01918201527f7b2274726169745f74797065223a225370656369616c20456666656374222c22610114820152673b30b63ab2911d1160c11b610134820152865190610c048261013c9960208b85019101612a6d565b01958601527f7b2274726169745f74797065223a2245666665637420506f776572222c22766161013f86015264363ab2911d60d91b948561015f820152825190610c58826101649560208785019101612a6d565b0191611f4b60f21b978896878581809795819601527f7b2274726169745f74797065223a224865616c746820426f6e7573222c22766161016682015282610186820152835190610cb28261018b9660208885019101612a6d565b01928301527f7b2274726169745f74797065223a2241747461636b20426f6e7573222c22766161018d8301526101ad820152825190610cfb826101b29560208785019101612a6d565b01918201527f7b2274726169745f74797065223a22446566656e736520426f6e7573222c22766101b48201526530b63ab2911d60d11b6101d4820152825190610d4e826101da9560208785019101612a6d565b01918201527f7b2274726169745f74797065223a22537065656420426f6e7573222c2276616c6101dc82015282633ab2911d60e11b91826101fc820152835190610da2826102009660208885019101612a6d565b01928301527f7b2274726169745f74797065223a224d6167696320426f6e7573222c2276616c610202830152610222820152825190610deb826102269560208785019101612a6d565b01918201527f7b2274726169745f74797065223a224c75636b20426f6e7573222c2276616c756102288201526232911d60e91b610248820152835190610e3b8261024b9660208885019101612a6d565b01928301527f7b2274726169745f74797065223a2243686172676573222c2276616c7565223a61024d83015261026d820152825190610e848261026e9560208785019101612a6d565b0191820152825190610ea08261026f9560208785019101612a6d565b01918201527f7b2274726169745f74797065223a224571756970706564222c2276616c756522610272820152601d60f91b610292820152825190610eee826102939560208785019101612a6d565b0191820152615d7d60f01b610294820152608051809103906102768201905201608051612c2b565b610f8b610f24608051613f12565b610f77603d60405180937f646174613a6170706c69636174696f6e2f6a736f6e3b6261736536342c0000006020830152610f678151809260208686019101612a6d565b810103601d810184520182612c2b565b604051918291602083526020830190612a90565b0390f35b604051610f9b81612bf4565b60058152602081016466616c736560d81b90529c610f169f6102969f607d60f81b9e602f60f81b9b6109cf565b634e487b7160e01b600052602160045260246000fd5b60405162461bcd60e51b8152602060048201526014602482015273151bdad95b88191bd95cc81b9bdd08195e1a5cdd60621b6044820152606490fd5b3461024b57602036600319011261024b5760043561104a61103a82612ec3565b6001600160a01b03163314613d69565b80600052600c60205260ff600b6040600020015416156110aa5780600052600c6020526000600c60408220600b810160ff19815416905501557fe16d1154910a7aca0d27fd5818c2a5aeefe08516e6a0a13a60991ec2fb17a8ba600080a2005b60405162461bcd60e51b815260206004820152601860248201527f4172746966616374206973206e6f7420657175697070656400000000000000006044820152606490fd5b3461024b57608036600319011261024b57611108612ab5565b611110612acb565b90606435906044356001600160401b03831161024b573660238401121561024b5782600401359361114085612d5f565b9261114e6040519485612c2b565b858452366024878701011161024b57600060208761119c986024611197990183890137860101526111876111828433613000565b612f27565b6111928383836130c8565b6133f6565b612fdc565b005b3461024b57602036600319011261024b5760206111bc600435613da5565b6040519015158152f35b602036600319011261024b576004356111e161103a82612ec3565b80600052600c6020526040600020600e600d82015491015411156112535761120d600f5434101561347d565b80600052600c6020527f33b4d8d6260e0619d4e068afe891a07251b83e31d3d925a8fe78673e6445598d6020600d6040600020600e8101549182910155604051908152a2005b60405162461bcd60e51b815260206004820152602160248201527f417274696661637420697320616c72656164792066756c6c79206368617267656044820152601960fa1b6064820152608490fd5b3461024b57604036600319011261024b576112bb612ab5565b602435908115159081830361024b576001600160a01b0316913383146113385761130a9033600052600560205260406000208460005260205260406000209060ff801983541691151516179055565b6040519081527f17307eab39ab6107e8899845ad3d59bd9653f200f220920489ca2b5937696c3160203392a3005b60405162461bcd60e51b815260206004820152601960248201527f4552433732313a20617070726f766520746f2063616c6c6572000000000000006044820152606490fd5b3461024b57600036600319011261024b57604051600060018054906113a182612b16565b8085529181811690811561142157506001146113c8575b610f8b84610f7781860382612c2b565b600081815292507fb10e2d527612073b26eecdfd717e6a320cf44b4afac2b0732d9fcbe2b7fa0cf65b828410611409575050508101602001610f77826113b8565b805460208587018101919091529093019281016113f1565b60ff191660208087019190915292151560051b85019092019250610f7791508390506113b8565b3461024b57602036600319011261024b57611461612da8565b600435600f55005b3461024b57604036600319011261024b5760243560043561148c61103a82612ec3565b80600052600c60205260ff600b60406000200154166114ee5780600052600c60205281600c6040600020600b8101600160ff1982541617905501557f5798ccecad4961ad93e08c3c9785a6d542533e782c35c49d98bfd5a925f2dd58600080a3005b60405162461bcd60e51b815260206004820152601c60248201527f417274696661637420697320616c7265616479206571756970706564000000006044820152606490fd5b3461024b57600036600319011261024b57600a546040516001600160a01b039091168152602090f35b3461024b5760208060031936011261024b576040519061157b82612b87565b6060825260008183018190526040830152611594613585565b6060830152608082016000905260a082016000905260c082016060905260e08201600090526101009182810160009052610120918282016000905261014080920160009052600435600052600c8152604060002091604051936115f685612b87565b6115ff84612c4c565b855260018401549583860161161760ff8916826134c0565b604087019760081c60ff1661162c90896134cc565b61163860028701612cf2565b9360608801948552600887015460ff1690608089019161165890836134d8565b600988015460a08a0190815290611671600a8a01612c4c565b9260c08b01938452600b8a015460ff169960e08c019a15158b52600c810154968c01968752600d810154978c01978852600e015497828c019889526040519c8d809d8c825251610200809d83015261022082016116cd91612a90565b9751906040016116dc91612d38565b5160608d016116ea91612d45565b5160808c0161172a9160a0809180518452602081015160208501526040810151604085015260608101516060850152608081015160808501520151910152565b51908a0161173791612d52565b5161016089015251878203601f19016101808901526117569190612a90565b945115156101a0870152516101c0860152516101e085015251908301520390f35b600036600319011261024b57611791600e5434101561347d565b600b5460018101600b556117a3613585565b5060405160208101904282524460408201528260608201523360601b60808201526074815260a081018181106001600160401b03821117611f0d57604052519020906008600783161015610fc8576103e88260081c0661012c811060001461223b57506000915b611812613585565b506006831015610fc857600a8302838104600a14841517156120c857806005016005116120c85761184c60038360101c06826005016135b7565b61185f60038460181c06836005016135b7565b61187260038560201c06846005016135b7565b9261188660038660281c06826005016135b7565b916118ae61189d60038860301c06846005016135b7565b9260038860381c06906005016135b7565b60009590600788166120de57600f81018091116120c85793600a810181116120c857600a01915b604051956118e287612b50565b8652602086015260408501526060840152608083015260a082015261190783866135e6565b600f8602868104600f14871517156120c857806014016014116120c8576119389060148660381c06906014016135b7565b61194285886137bc565b916040519061195082612b6b565b611958613a44565b8252611962613a64565b602083015261196f613a86565b604083015261197c613aa7565b6060830152611989613ac6565b6080830152611996613ae6565b60a08301526119a3613b0a565b60c08301526119b0613b29565b60e08301526040516119c181612b50565b6040516119cd81612bd9565b6000815281526040516119df81612bf4565b6009815268115b98da185b9d195960ba1b60208201526020820152611a02613b4b565b6040820152611a0f613b6b565b6060820152611a1c613b8b565b6080820152611a29613bb0565b60a0820152611a438a611a3c8184613bd2565b5192613bd2565b5151156120b257604051611a5681612bf4565b60018152600160fd1b6020820152965b610fc8576023611b1c91611a81611b619560078c1690613be3565b51611a8b8c613c26565b906040519a83611aa58d9551809260208089019101612a6d565b8401611aba8251809360208085019101612a6d565b01895190611acf828c60208085019101612a6d565b01600160fd1b6020820152611aee825180936020602185019101612a6d565b0161202360f01b6021820152611b0d8251809360208785019101612a6d565b01036003810189520187612c2b565b611b2689826139d3565b9460405196611b3488612b87565b8752611b4660078916602089016134c0565b611b538a604089016134cc565b6060870152608086016134d8565b60a084015260c0830152600060e083015260006101008301528061012083015261014082015282600052600c60205260406000209080518051906001600160401b038211611f0d578190611bb58554612b16565b601f8111612062575b50602090601f8311600114611ff657600092611feb575b50508160011b916000199060031b1c19161782555b60208101516008811015610fc857600183015460408301516006811015610fc85761ff0060ff9160081b1692169061ffff19161717600183015560a06060820151805160028501556020810151600385015560408101516004850155606081015160058501556080810151600685015501516007830155600882016080820151600c811015610fc85760ff8019835416911617905560a0810151600983015560c08101518051906001600160401b038211611f0d57611cac600a850154612b16565b601f8111611fa4575b50602090601f8311600114611f2e579180600e949261014094600092611f23575b50508160011b916000199060031b1c191617600a8501555b611d0d60e08201511515600b86019060ff801983541691151516179055565b610100810151600c850155610120810151600d850155015191015533600052600d60205260406000208054600160401b811015611f0d57611d5391600182018155612d7a565b81549060031b9084821b91600019901b191617905560405192611d7584612bd9565b600084523315611ec957611e97611ea192611e8b611197600797611db7611db189600052600260205260018060a01b0360406000205416151590565b15613539565b600854886000526009602052604060002055611dd2886134f1565b611ddb33612e00565b336000526006602052604060002081600052602052886040600020558860005289602052604060002055611e27611db189600052600260205260018060a01b0360406000205416151590565b3360005260036020526040600020600181540190558760005260026020526040600020336001600160601b0360a01b825416179055873360007fddf252ad1be2c89b69c2b068fc378daa952ba7f163c4a11628f55a4df523b3ef8180a487336132d8565b60405195869116612d38565b6020840190612d45565b7f0f94b2c94ec0bcf75a877e6c7a3c97b08ab071f7e2a3eda4eaa379832c9a671560403393a3005b606460405162461bcd60e51b815260206004820152602060248201527f4552433732313a206d696e7420746f20746865207a65726f20616464726573736044820152fd5b634e487b7160e01b600052604160045260246000fd5b015190508980611cd6565b90600a850160005260206000209160005b601f1985168110611f8c575092600e94926001926101409583601f19811610611f73575b505050811b01600a850155611cee565b015160001960f88460031b161c19169055898080611f63565b91926020600181928685015181550194019201611f3f565b600a85016000526020600020601f840160051c810160208510611fe4575b601f830160051c82018110611fd8575050611cb5565b60008155600101611fc2565b5080611fc2565b015190508780611bd5565b9250846000526020600020906000935b601f1984168510612047576001945083601f1981161061202e575b505050811b018255611bea565b015160001960f88460031b161c19169055878080612021565b81810151835560209485019460019093019290910190612006565b909150846000526020600020601f840160051c8101602085106120ab575b90849392915b601f830160051c8201811061209c575050611bbe565b60008155859450600101612086565b5080612080565b6040516120be81612bd9565b6000815296611a66565b634e487b7160e01b600052601160045260246000fd5b9391949095506000956001600789161460001461211457601481018091116120c85790600f810181116120c857600f01946118d5565b600096509094926007881660020361214457601981018091116120c85792600a810181116120c857600a016118d5565b600096509294926007881660030361217557601e81018091116120c85792600a810181116120c857600a01946118d5565b600096509294600788166004036121a557601481018091116120c85792600f810181116120c857600f01926118d5565b600096509390600788166005036121d657600f81018091116120c857906014810181116120c857601401935b6118d5565b6000965090926007881660060361220657601481018091116120c85792600f810181116120c857600f01936118d5565b60009650929360061960078916016121d1579092602381018091116120c85792806004198101116120c85760041901906118d5565b61022681101561224e575060019161180a565b6102ee811015612261575060029161180a565b610384811015612274575060039161180a565b6103ca11156122855760049161180a565b60059161180a565b3461024b57600036600319011261024b576122a6612da8565b600a80546001600160a01b031981169091556000906001600160a01b03167f8be0079c531659141344cd1fd0a4f28419497f9722a3daafe3b4186f6b6457e08280a3005b3461024b57602036600319011261024b57602061230d612308612ab5565b612e00565b604051908152f35b3461024b57602036600319011261024b576020612333600435612ec3565b6040516001600160a01b039091168152f35b3461024b57600036600319011261024b576020600e54604051908152f35b3461024b57602036600319011261024b57600435600052600c602052604060002061238d81612c4c565b600182015461239e60028401612cf2565b92600881015460ff16906009810154600a82016123ba90612c4c565b600b83015460ff1694600c84015492600d85015494600e015495604051998a99610200808c528b016123eb91612a90565b936123fc60208c0160ff8316612d38565b60408b019060081c60ff169061241191612d45565b60608a016124509160a0809180518452602081015160208501526040810151604085015260608101516060850152608081015160808501520151910152565b610120890161245e91612d52565b61014088015286810361016088015261247691612a90565b9315156101808601526101a08501526101c08401526101e08301520390f35b3461024b57602036600319011261024b576004356008548110156124e65760209060086000527ff3f7a9fe364faab93b216da50a3214154f22a0a2b415b23a84c8169e8b636ee30154604051908152f35b60405162461bcd60e51b815260206004820152602c60248201527f455243373231456e756d657261626c653a20676c6f62616c20696e646578206f60448201526b7574206f6620626f756e647360a01b6064820152608490fd5b3461024b5761119c61119761255436612ae1565b906040519261256284612bd9565b600084526111876111828433613000565b3461024b57600036600319011261024b5761258c612da8565b600080808060018060a01b03600a541647908282156125ba575bf1156125ae57005b6040513d6000823e3d90fd5b506108fc6125a6565b3461024b5760208060031936011261024b576001600160a01b036125e5612ab5565b16600052600d8152604060002060405190818382549182815201908192600052846000209060005b8682821061266357868661262382880383612c2b565b604051928392818401908285525180915260408401929160005b82811061264c57505050500390f35b83518552869550938101939281019260010161263d565b83548552909301926001928301920161260d565b3461024b57604036600319011261024b57612690612ab5565b6024359061269d81612e00565b8210156126d05760018060a01b031660005260066020526040600020906000526020526020604060002054604051908152f35b60405162461bcd60e51b815260206004820152602b60248201527f455243373231456e756d657261626c653a206f776e657220696e646578206f7560448201526a74206f6620626f756e647360a81b6064820152608490fd5b3461024b5761119c61273a36612ae1565b916127486111828433613000565b6130c8565b3461024b57600036600319011261024b576020600854604051908152f35b3461024b57604036600319011261024b57612784612ab5565b602435906001600160a01b03808061279b85612ec3565b1692169180831461289657803314908115612871575b501561280657600083815260046020526040902080546001600160a01b031916831790556127de83612ec3565b167f8c5be1e5ebec7d5bd14f71427d1e84f3dd0314c0f7b2291e5b200ac8c7c3b925600080a4005b60405162461bcd60e51b815260206004820152603d60248201527f4552433732313a20617070726f76652063616c6c6572206973206e6f7420746f60448201527f6b656e206f776e6572206f7220617070726f76656420666f7220616c6c0000006064820152608490fd5b9050600052600560205260406000203360005260205260ff60406000205416846127b1565b60405162461bcd60e51b815260206004820152602160248201527f4552433732313a20617070726f76616c20746f2063757272656e74206f776e656044820152603960f91b6064820152608490fd5b3461024b57602036600319011261024b576020612333600435612ee9565b3461024b57600036600319011261024b576040516000805461292481612b16565b80845290600190818116908115611421575060011461294d57610f8b84610f7781860382612c2b565b600080805292507f290decd9548b62a8d60345a988386fc84ba6bc95484008f6362f93160ef3e5635b82841061298e575050508101602001610f77826113b8565b80546020858701810191909152909301928101612976565b3461024b57600036600319011261024b576020600f54604051908152f35b3461024b57602036600319011261024b5760043563ffffffff60e01b811680910361024b5760209063780e9d6360e01b8114908115612a09575b506040519015158152f35b6380ac58cd60e01b811491508115612a3b575b8115612a2a575b50826129fe565b6301ffc9a760e01b14905082612a23565b635b5e139f60e01b81149150612a1c565b3461024b57602036600319011261024b57612a65612da8565b600435600e55005b60005b838110612a805750506000910152565b8181015183820152602001612a70565b90602091612aa981518092818552858086019101612a6d565b601f01601f1916010190565b600435906001600160a01b038216820361024b57565b602435906001600160a01b038216820361024b57565b606090600319011261024b576001600160a01b0390600435828116810361024b5791602435908116810361024b579060443590565b90600182811c92168015612b46575b6020831014612b3057565b634e487b7160e01b600052602260045260246000fd5b91607f1691612b25565b60c081019081106001600160401b03821117611f0d57604052565b61010081019081106001600160401b03821117611f0d57604052565b61016081019081106001600160401b03821117611f0d57604052565b606081019081106001600160401b03821117611f0d57604052565b608081019081106001600160401b03821117611f0d57604052565b602081019081106001600160401b03821117611f0d57604052565b604081019081106001600160401b03821117611f0d57604052565b61014081019081106001600160401b03821117611f0d57604052565b90601f801991011681019081106001600160401b03821117611f0d57604052565b9060405191826000825492612c6084612b16565b908184526001948581169081600014612ccf5750600114612c8c575b5050612c8a92500383612c2b565b565b9093915060005260209081600020936000915b818310612cb7575050612c8a93508201013880612c7c565b85548884018501529485019487945091830191612c9f565b915050612c8a94506020925060ff191682840152151560051b8201013880612c7c565b90604051612cff81612b50565b60a06005829480548452600181015460208501526002810154604085015260038101546060850152600481015460808501520154910152565b906008821015610fc85752565b906006821015610fc85752565b90600c821015610fc85752565b6001600160401b038111611f0d57601f01601f191660200190565b8054821015612d925760005260206000200190600090565b634e487b7160e01b600052603260045260246000fd5b600a546001600160a01b03163303612dbc57565b606460405162461bcd60e51b815260206004820152602060248201527f4f776e61626c653a2063616c6c6572206973206e6f7420746865206f776e65726044820152fd5b6001600160a01b03168015612e2057600052600360205260406000205490565b60405162461bcd60e51b815260206004820152602960248201527f4552433732313a2061646472657373207a65726f206973206e6f7420612076616044820152683634b21037bbb732b960b91b6064820152608490fd5b15612e7e57565b60405162461bcd60e51b815260206004820152601860248201527f4552433732313a20696e76616c696420746f6b656e20494400000000000000006044820152606490fd5b6000908152600260205260409020546001600160a01b0316612ee6811515612e77565b90565b600081815260026020526040902054612f0c906001600160a01b03161515612e77565b6000908152600460205260409020546001600160a01b031690565b15612f2e57565b60405162461bcd60e51b815260206004820152602d60248201527f4552433732313a2063616c6c6572206973206e6f7420746f6b656e206f776e6560448201526c1c881bdc88185c1c1c9bdd9959609a1b6064820152608490fd5b60809060208152603260208201527f4552433732313a207472616e7366657220746f206e6f6e20455243373231526560408201527131b2b4bb32b91034b6b83632b6b2b73a32b960711b60608201520190565b15612fe357565b60405162461bcd60e51b815280612ffc60048201612f89565b0390fd5b906001600160a01b03808061301484612ec3565b16931691838314938415613047575b508315613031575b50505090565b61303d91929350612ee9565b161438808061302b565b909350600052600560205260406000208260005260205260ff604060002054169238613023565b1561307557565b60405162461bcd60e51b815260206004820152602560248201527f4552433732313a207472616e736665722066726f6d20696e636f72726563742060448201526437bbb732b960d91b6064820152608490fd5b6130ec916130d584612ec3565b6001600160a01b039384841693918516841461306e565b838216938415613287578391826131e457506131369260085487600052600960205260406000205561311d876134f1565b8286036131b1575b5061312f86612ec3565b161461306e565b7fddf252ad1be2c89b69c2b068fc378daa952ba7f163c4a11628f55a4df523b3ef60008481526004602052604081206001600160601b0360a01b9081815416905583825260036020526040822060001981540190558482526040822060018154019055858252600260205284604083209182541617905580a4565b6131ba90612e00565b60406000878152600660205281812083825260205288828220558881526007602052205538613125565b8583036131f6575b506131369261311d565b613201919250612e00565b6000198101919082116120c8576131369284926000908882526020906007825260409182842054828103613250575b508a845283838120558684526006815282842091845252812055926131ec565b8785526006825283852083865282528385205488865260068352848620828752835280858720558552600782528385205538613230565b60405162461bcd60e51b8152602060048201526024808201527f4552433732313a207472616e7366657220746f20746865207a65726f206164646044820152637265737360e01b6064820152608490fd5b91929091803b156133ed57613325936040519081630a85bd0160e11b9384825233600483015260009687602484015260448301526080606483015281878160209a8b966084830190612a90565b03926001600160a01b03165af18491816133a9575b50613398575050503d600014613390573d61335481612d5f565b906133626040519283612c2b565b81528091833d92013e5b8051918261338d5760405162461bcd60e51b815280612ffc60048201612f89565b01fd5b50606061336c565b6001600160e01b0319161492509050565b9091508581813d83116133e6575b6133c18183612c2b565b810103126133e257516001600160e01b0319811681036133e257903861333a565b8480fd5b503d6133b7565b50915050600190565b92939190803b1561347357613448946040518092630a85bd0160e11b9485835233600484015260018060a01b03809816602484015260448301526080606483015281806020998a956084830190612a90565b03916000988991165af18491816133a95750613398575050503d600014613390573d61335481612d5f565b5050915050600190565b1561348457565b60405162461bcd60e51b8152602060048201526014602482015273125b9cdd59999a58da595b9d081c185e5b595b9d60621b6044820152606490fd5b6008821015610fc85752565b6006821015610fc85752565b600c821015610fc85752565b51600c811015610fc85790565b600854600160401b811015611f0d576001810180600855811015612d925760086000527ff3f7a9fe364faab93b216da50a3214154f22a0a2b415b23a84c8169e8b636ee30155565b1561354057565b60405162461bcd60e51b815260206004820152601c60248201527f4552433732313a20746f6b656e20616c7265616479206d696e746564000000006044820152606490fd5b6040519061359282612b50565b8160a06000918281528260208201528260408201528260608201528260808201520152565b919082018092116120c857565b906003811015612d925760051b0190565b906004811015612d925760051b0190565b6006811015610fc857806136295750613624612ee69160036040519161360b83612ba3565b60008352600160208401526005604084015206906135c4565b6134e4565b600181036136685750613624612ee69160036040519161364883612bbe565b6001835260026020840152600560408401526004606084015216906135d5565b600281036136ca57506040519060a08201908282106001600160401b03831117611f0d57600591604052600283526003602084015260046040840152600660608401526007608084015206906005821015612d9257612ee69160051b016134e4565b600381036137085750613624612ee6916003604051916136e983612bbe565b81835260066020840152600760408401526008606084015216906135d5565b60040361374557613624612ee69160036040519161372583612bbe565b6008835260096020840152600a6040840152600b606084015216906135d5565b613624612ee69160036040519161375b83612ba3565b60098352600a6020840152600b604084015206906135c4565b6040519061378182612bf4565b600c82526b4d6f6e616420456e6572677960a01b6020830152565b604051906137a982612bf4565b60048252634669726560e01b6020830152565b600681101580610fc857811580156139c6575b15613864575050613860906003604051916137e983612bbe565b6040516137f581612bf4565b600581526408ac2e4e8d60db1b6020820152835260405161381581612bf4565b60058152642bb0ba32b960d91b6020820152602084015261383461379c565b604084015260405161384581612bf4565b8281526220b4b960e91b6020820152606084015216906135d5565b5190565b610fc857600281149081156139bb575b501561391b5761386090600360409182519261388f84612bbe565b805161389a81612bf4565b60098152684c696768746e696e6760b81b6020820152845280516138bd81612bf4565b8381526249636560e81b6020820152602085015280516138dc81612bf4565b6006815265536861646f7760d01b602082015281850152516138fd81612bf4565b6005815264131a59da1d60da1b6020820152606084015216906135d5565b6138609060036040519161392e83612bbe565b613936613774565b835260405161394481612bf4565b600c81526b436f736d696320466f72636560a01b6020820152602084015260405161396e81612bf4565b600c81526b566f696420457373656e636560a01b6020820152604084015260405161399881612bf4565b600a81526950757265204d6167696360b01b6020820152606084015216906135d5565b600391501438613874565b50506000600182146137cf565b600c8110159081610fc8578015918215613a36575b8215613a25575b5050613a1f576006811015610fc8578060011b90808204600214901517156120c857600301806003116120c85790565b50600090565b909150610fc85760021438806139ef565b5060018114915060006139e8565b60405190613a5182612bf4565b600482526352696e6760e01b6020830152565b60405190613a7182612bf4565b6006825265105b5d5b195d60d21b6020830152565b60405190613a9382612bf4565b600582526421b937bbb760d91b6020830152565b60405190613ab482612bf4565b600382526227b93160e91b6020830152565b60405190613ad382612bf4565b600482526352756e6560e01b6020830152565b60405190613af382612bf4565b60088252672a30b634b9b6b0b760c11b6020830152565b60405190613b1782612bf4565b600382526247656d60e81b6020830152565b60405190613b3682612bf4565b600682526514d8dc9bdb1b60d21b6020830152565b60405190613b5882612bf4565b60048252635261726560e01b6020830152565b60405190613b7882612bf4565b60048252634570696360e01b6020830152565b60405190613b9882612bf4565b60098252684c6567656e6461727960b81b6020830152565b60405190613bbd82612bf4565b60068252654d797468696360d01b6020830152565b906006811015612d925760051b0190565b906008811015612d925760051b0190565b90613bfe82612d5f565b613c0b6040519182612c2b565b8281528092613c1c601f1991612d5f565b0190602036910137565b806000917a184f03e93ff9f4daa797ed6e38ed64bf6a1f01000000000000000080821015613d5b575b506d04ee2d6d415b85acef810000000080831015613d4c575b50662386f26fc1000080831015613d3d575b506305f5e10080831015613d2e575b5061271080831015613d1f575b506064821015613d0f575b600a80921015613d05575b600190816021613cbd828701613bf4565b95860101905b613ccf575b5050505090565b600019019083906f181899199a1a9b1b9c1cb0b131b232b360811b8282061a835304918215613d0057919082613cc3565b613cc8565b9160010191613cac565b9190606460029104910191613ca1565b60049193920491019138613c96565b60089193920491019138613c89565b60109193920491019138613c7a565b60209193920491019138613c68565b604093508104915038613c4f565b15613d7057565b60405162461bcd60e51b815260206004820152600d60248201526c2737ba103a34329037bbb732b960991b6044820152606490fd5b600a546001600160a01b03163303613ebb57600090808252600c6020526040822060ff60088201541690600c82101580613ea7578215908115613e9b575b8115613e77575b50613e6e57600d8101805480158015613e065750505050505090565b95909192939495613e5a57506040927f9086f88105a4a90816c18eeeee67c8547785b5717b8c116ede52ef06eb0e36fb94926009926000190190550154613e4f83518093612d52565b6020820152a2600190565b634e487b7160e01b81526011600452602490fd5b50505050600190565b9050613e87576002821438613dea565b634e487b7160e01b84526021600452602484fd5b50506001821484613de3565b634e487b7160e01b85526021600452602485fd5b60405162461bcd60e51b815260206004820152602960248201527f4f6e6c7920626174746c65206172656e612063616e20757365207370656369616044820152686c206566666563747360b81b6064820152608490fd5b8051156140525760405190613f2682612ba3565b604082527f4142434445464748494a4b4c4d4e4f505152535455565758595a61626364656660208301527f6768696a6b6c6d6e6f707172737475767778797a303132333435363738392b2f604083015280516002918282018092116120c8576003918290046001600160fe1b03811681036120c857613fa8908495941b613bf4565b936020850193829183518401906020820192835194600085525b838110614001575050505052510680600114613fee57600214613fe3575090565b603d90600019015390565b50603d9081600019820153600119015390565b87600491999293949901918251600190603f9082828260121c16880101518453828282600c1c16880101518385015382828260061c1688010151888501531685010151898201530197929190613fc2565b5060405161405f81612bd9565b6000815290565b8051602091828101918220614079613774565b805190850120036141dd5750507f3c72616469616c4772616469656e742069643d2261727469666163744267223e604051916140b483612c0f565b61010983528201527f3c73746f70206f66667365743d223025222073746f702d636f6c6f723d22233860408201527f3336454639222f3e3c73746f70206f66667365743d2231303025222073746f7060608201527f2d636f6c6f723d2223323030303532222f3e3c2f72616469616c47726164696560808201527f6e743e3c72616469616c4772616469656e742069643d2261727469666163744360a08201527f6f6c6f72223e3c73746f70206f66667365743d223025222073746f702d636f6c60c08201527f6f723d2223464646464646222f3e3c73746f70206f66667365743d223130302560e08201527f222073746f702d636f6c6f723d2223383336454639222f3e3c2f72616469616c6101008201526823b930b234b2b73a1f60b91b61012082015290565b5190206141e861379c565b8281519101201461434a577f3c72616469616c4772616469656e742069643d2261727469666163744267223e6040519161422183612c0f565b61010983528201527f3c73746f70206f66667365743d223025222073746f702d636f6c6f723d22233860408201527f3336454639222f3e3c73746f70206f66667365743d2231303025222073746f7060608201527f2d636f6c6f723d2223304531303046222f3e3c2f72616469616c47726164696560808201527f6e743e3c72616469616c4772616469656e742069643d2261727469666163744360a08201527f6f6c6f72223e3c73746f70206f66667365743d223025222073746f702d636f6c60c08201527f6f723d2223413030353544222f3e3c73746f70206f66667365743d223130302560e08201527f222073746f702d636f6c6f723d2223383336454639222f3e3c2f72616469616c6101008201526823b930b234b2b73a1f60b91b61012082015290565b7f3c72616469616c4772616469656e742069643d2261727469666163744267223e6040519161437883612c0f565b61010983528201527f3c73746f70206f66667365743d223025222073746f702d636f6c6f723d22234660408201527f4636423335222f3e3c73746f70206f66667365743d2231303025222073746f7060608201527f2d636f6c6f723d2223384230303030222f3e3c2f72616469616c47726164696560808201527f6e743e3c72616469616c4772616469656e742069643d2261727469666163744360a08201527f6f6c6f72223e3c73746f70206f66667365743d223025222073746f702d636f6c60c08201527f6f723d2223464644373030222f3e3c73746f70206f66667365743d223130302560e08201527f222073746f702d636f6c6f723d2223464634353030222f3e3c2f72616469616c6101008201526823b930b234b2b73a1f60b91b61012082015290565b6008811015610fc8578061458157506040516144bc81612b50565b609a81527f3c636972636c652063783d22323030222063793d223230302220723d2238302260208201527f207374726f6b653d2275726c28236172746966616374436f6c6f72292220737460408201527f726f6b652d77696474683d223230222066696c6c3d226e6f6e65222f3e3c636960608201527f72636c652063783d22323030222063793d223230302220723d2232302220666960808201527f6c6c3d2275726c28236172746966616374436f6c6f7229222f3e00000000000060a082015290565b60028103614651575060405161459681612b50565b609381527f3c706f6c79676f6e20706f696e74733d223132302c323530203230302c31353060208201527f203238302c323530203236302c323830203134302c323830222066696c6c3d2260408201527f75726c28236172746966616374436f6c6f7229222f3e3c636972636c6520637860608201527f3d22323030222063793d223137302220723d223135222066696c6c3d2275726c6080820152721411b0b93a34b330b1ba21b7b637b91491179f60691b60a082015290565b6003146146d35760405161466481612bbe565b605381527f3c7265637420783d223135302220793d22313530222077696474683d2231303060208201527f22206865696768743d22313030222066696c6c3d2275726c282361727469666160408201527231ba21b7b637b9149110393c1e91191811179f60691b606082015290565b6040516146df81612b50565b608881527f3c636972636c652063783d22323030222063793d223230302220723d2236302260208201527f2066696c6c3d2275726c28236172746966616374436f6c6f722922206f70616360408201527f6974793d22302e38222f3e3c636972636c652063783d22323030222063793d2260608201527f3230302220723d223430222066696c6c3d2275726c282361727469666163744360808201526737b637b91491179f60c11b60a082015290565b6006811015610fc857600311156147ac5760405161405f81612bd9565b6040516147b881612b87565b61012a81527f3c66696c7465722069643d226172746966616374476c6f77223e3c666547617560208201527f737369616e426c757220737464446576696174696f6e3d22352220726573756c60408201527f743d22636f6c6f726564426c7572222f3e3c66654d657267653e3c66654d657260608201527f67654e6f646520696e3d22636f6c6f726564426c7572222f3e3c66654d65726760808201527f654e6f646520696e3d22536f7572636547726170686963222f3e3c2f66654d6560a08201527f7267653e3c2f66696c7465723e3c616e696d6174655472616e73666f726d206160c08201527f74747269627574654e616d653d227472616e73666f726d2220747970653d227260e08201527f6f74617465222076616c7565733d223020323030203230303b333630203230306101008201527f2032303022206475723d223130732220726570656174436f756e743d22696e646101208201526932b334b734ba3291179f60b11b61014082015290565b600c811015610fc8578061495b575060405161494781612bf4565b60048152634e6f6e6560e01b602082015290565b6001810361498c575060405161497081612bf4565b600c81526b2432b0b63a34102932b3b2b760a11b602082015290565b600281036149bc57506040516149a181612bf4565b600b81526a13585b984814da1a595b1960aa1b602082015290565b600381036149ee57506040516149d181612bf4565b600d81526c446f75626c652044616d61676560981b602082015290565b60048103614a225750604051614a0381612bf4565b600f81526e437269746963616c20537472696b6560881b602082015290565b60058103614a525750604051614a3781612bf4565b600b81526a14dc19595908109bdbdcdd60aa1b602082015290565b60068103614a815750604051614a6781612bf4565b600a8152692932b33632b1ba34b7b760b11b602082015290565b60078103614aaf5750604051614a9681612bf4565b600981526856616d70697269736d60b81b602082015290565b60088103614adc5750604051614ac481612bf4565b6008815267496d6d756e69747960c01b602082015290565b60098103614b0a5750604051614af181612bf4565b6009815268054696d6520576172760bc1b602082015290565b600a8103614b3e5750604051614b1f81612bf4565b600f81526e115b195b595b9d185b08109d5c9cdd608a1b602082015290565b600b14614b6857604051614b5181612bf4565b60078152662ab735b737bbb760c91b602082015290565b604051614b7481612bf4565b600e81526d50686f656e69782052657669766560901b60208201529056fea264697066735822122003b1565ce064d3b0045bb59c322e287caf3f44842fc5e84de6d7e9bef604538564736f6c63430008140033",
  "linkReferences": {},
  "deployedLinkReferences": {}
}