{
  "_format": "hh-sol-artifact-1",
  "contractName": "WeaponNFT",
  "sourceName": "contracts/WeaponNFT.sol",
  "abi": [
    {
      "inputs": [],
      "stateMutability": "nonpayable",
      "type": "constructor"
    },
    {
      "anonymous": false,
      "inputs": [
        {
          "indexed": true,
          "internalType": "address",
          "name": "owner",
          "type": "address"
        },
        {
          "indexed": true,
          "internalType": "address",
          "name": "approved",
          "type": "address"
        },
        {
          "indexed": true,
          "internalType": "uint256",
          "name": "tokenId",
          "type": "uint256"
        }
      ],
      "name": "Approval",
      "type": "event"
    },
    {
      "anonymous": false,
      "inputs": [
        {
          "indexed": true,
          "internalType": "address",
          "name": "owner",
          "type": "address"
        },
        {
          "indexed": true,
          "internalType": "address",
          "name": "operator",
          "type": "address"
        },
        {
          "indexed": false,
          "internalType": "bool",
          "name": "approved",
          "type": "bool"
        }
      ],
      "name": "ApprovalForAll",
      "type": "event"
    },
    {
      "anonymous": false,
      "inputs": [
        {
          "indexed": true,
          "internalType": "address",
          "name": "previousOwner",
          "type": "address"
        },
        {
          "indexed": true,
          "internalType": "address",
          "name": "newOwner",
          "type": "address"
        }
      ],
      "name": "OwnershipTransferred",
      "type": "event"
    },
    {
      "anonymous": false,
      "inputs": [
        {
          "indexed": true,
          "internalType": "address",
          "name": "from",
          "type": "address"
        },
        {
          "indexed": true,
          "internalType": "address",
          "name": "to",
          "type": "address"
        },
        {
          "indexed": true,
          "internalType": "uint256",
          "name": "tokenId",
          "type": "uint256"
        }
      ],
      "name": "Transfer",
      "type": "event"
    },
    {
      "anonymous": false,
      "inputs": [
        {
          "indexed": true,
          "internalType": "uint256",
          "name": "tokenId",
          "type": "uint256"
        },
        {
          "indexed": true,
          "internalType": "uint256",
          "name": "monanimalId",
          "type": "uint256"
        }
      ],
      "name": "WeaponEquipped",
      "type": "event"
    },
    {
      "anonymous": false,
      "inputs": [
        {
          "indexed": true,
          "internalType": "uint256",
          "name": "tokenId",
          "type": "uint256"
        },
        {
          "indexed": true,
          "internalType": "address",
          "name": "owner",
          "type": "address"
        },
        {
          "indexed": false,
          "internalType": "enum WeaponNFT.WeaponType",
          "name": "weaponType",
          "type": "uint8"
        },
        {
          "indexed": false,
          "internalType": "enum WeaponNFT.Rarity",
          "name": "rarity",
          "type": "uint8"
        }
      ],
      "name": "WeaponForged",
      "type": "event"
    },
    {
      "anonymous": false,
      "inputs": [
        {
          "indexed": true,
          "internalType": "uint256",
          "name": "tokenId",
          "type": "uint256"
        },
        {
          "indexed": false,
          "internalType": "uint256",
          "name": "newDurability",
          "type": "uint256"
        }
      ],
      "name": "WeaponRepaired",
      "type": "event"
    },
    {
      "anonymous": false,
      "inputs": [
        {
          "indexed": true,
          "internalType": "uint256",
          "name": "tokenId",
          "type": "uint256"
        }
      ],
      "name": "WeaponUnequipped",
      "type": "event"
    },
    {
      "inputs": [
        {
          "internalType": "address",
          "name": "to",
          "type": "address"
        },
        {
          "internalType": "uint256",
          "name": "tokenId",
          "type": "uint256"
        }
      ],
      "name": "approve",
      "outputs": [],
      "stateMutability": "nonpayable",
      "type": "function"
    },
    {
      "inputs": [
        {
          "internalType": "address",
          "name": "owner",
          "type": "address"
        }
      ],
      "name": "balanceOf",
      "outputs": [
        {
          "internalType": "uint256",
          "name": "",
          "type": "uint256"
        }
      ],
      "stateMutability": "view",
      "type": "function"
    },
    {
      "inputs": [
        {
          "internalType": "uint256",
          "name": "tokenId",
          "type": "uint256"
        },
        {
          "internalType": "uint256",
          "name": "monanimalId",
          "type": "uint256"
        }
      ],
      "name": "equipWeapon",
      "outputs": [],
      "stateMutability": "nonpayable",
      "type": "function"
    },
    {
      "inputs": [],
      "name": "forge",
      "outputs": [],
      "stateMutability": "payable",
      "type": "function"
    },
    {
      "inputs": [],
      "name": "forgePrice",
      "outputs": [
        {
          "internalType": "uint256",
          "name": "",
          "type": "uint256"
        }
      ],
      "stateMutability": "view",
      "type": "function"
    },
    {
      "inputs": [
        {
          "internalType": "uint256",
          "name": "tokenId",
          "type": "uint256"
        }
      ],
      "name": "getApproved",
      "outputs": [
        {
          "internalType": "address",
          "name": "",
          "type": "address"
        }
      ],
      "stateMutability": "view",
      "type": "function"
    },
    {
      "inputs": [
        {
          "internalType": "address",
          "name": "owner",
          "type": "address"
        }
      ],
      "name": "getOwnerWeapons",
      "outputs": [
        {
          "internalType": "uint256[]",
          "name": "",
          "type": "uint256[]"
        }
      ],
      "stateMutability": "view",
      "type": "function"
    },
    {
      "inputs": [
        {
          "internalType": "uint256",
          "name": "tokenId",
          "type": "uint256"
        }
      ],
      "name": "getWeapon",
      "outputs": [
        {
          "components": [
            {
              "internalType": "string",
              "name": "name",
              "type": "string"
            },
            {
              "internalType": "enum WeaponNFT.WeaponType",
              "name": "weaponType",
              "type": "uint8"
            },
            {
              "internalType": "enum WeaponNFT.Rarity",
              "name": "rarity",
              "type": "uint8"
            },
            {
              "components": [
                {
                  "internalType": "uint256",
                  "name": "attackBonus",
                  "type": "uint256"
                },
                {
                  "internalType": "uint256",
                  "name": "defenseBonus",
                  "type": "uint256"
                },
                {
                  "internalType": "uint256",
                  "name": "speedBonus",
                  "type": "uint256"
                },
                {
                  "internalType": "uint256",
                  "name": "magicBonus",
                  "type": "uint256"
                },
                {
                  "internalType": "uint256",
                  "name": "luckBonus",
                  "type": "uint256"
                },
                {
                  "internalType": "uint256",
                  "name": "criticalChance",
                  "type": "uint256"
                }
              ],
              "internalType": "struct WeaponNFT.WeaponStats",
              "name": "stats",
              "type": "tuple"
            },
            {
              "internalType": "uint256",
              "name": "durability",
              "type": "uint256"
            },
            {
              "internalType": "uint256",
              "name": "maxDurability",
              "type": "uint256"
            },
            {
              "internalType": "string",
              "name": "material",
              "type": "string"
            },
            {
              "internalType": "bool",
              "name": "isEquipped",
              "type": "bool"
            },
            {
              "internalType": "uint256",
              "name": "equippedTo",
              "type": "uint256"
            }
          ],
          "internalType": "struct WeaponNFT.Weapon",
          "name": "",
          "type": "tuple"
        }
      ],
      "stateMutability": "view",
      "type": "function"
    },
    {
      "inputs": [
        {
          "internalType": "address",
          "name": "owner",
          "type": "address"
        },
        {
          "internalType": "address",
          "name": "operator",
          "type": "address"
        }
      ],
      "name": "isApprovedForAll",
      "outputs": [
        {
          "internalType": "bool",
          "name": "",
          "type": "bool"
        }
      ],
      "stateMutability": "view",
      "type": "function"
    },
    {
      "inputs": [],
      "name": "name",
      "outputs": [
        {
          "internalType": "string",
          "name": "",
          "type": "string"
        }
      ],
      "stateMutability": "view",
      "type": "function"
    },
    {
      "inputs": [],
      "name": "owner",
      "outputs": [
        {
          "internalType": "address",
          "name": "",
          "type": "address"
        }
      ],
      "stateMutability": "view",
      "type": "function"
    },
    {
      "inputs": [
        {
          "internalType": "uint256",
          "name": "tokenId",
          "type": "uint256"
        }
      ],
      "name": "ownerOf",
      "outputs": [
        {
          "internalType": "address",
          "name": "",
          "type": "address"
        }
      ],
      "stateMutability": "view",
      "type": "function"
    },
    {
      "inputs": [
        {
          "internalType": "address",
          "name": "",
          "type": "address"
        },
        {
          "internalType": "uint256",
          "name": "",
          "type": "uint256"
        }
      ],
      "name": "ownerWeapons",
      "outputs": [
        {
          "internalType": "uint256",
          "name": "",
          "type": "uint256"
        }
      ],
      "stateMutability": "view",
      "type": "function"
    },
    {
      "inputs": [
        {
          "internalType": "uint256",
          "name": "tokenId",
          "type": "uint256"
        },
        {
          "internalType": "uint256",
          "name": "amount",
          "type": "uint256"
        }
      ],
      "name": "reduceDurability",
      "outputs": [],
      "stateMutability": "nonpayable",
      "type": "function"
    },
    {
      "inputs": [],
      "name": "renounceOwnership",
      "outputs": [],
      "stateMutability": "nonpayable",
      "type": "function"
    },
    {
      "inputs": [],
      "name": "repairPrice",
      "outputs": [
        {
          "internalType": "uint256",
          "name": "",
          "type": "uint256"
        }
      ],
      "stateMutability": "view",
      "type": "function"
    },
    {
      "inputs": [
        {
          "internalType": "uint256",
          "name": "tokenId",
          "type": "uint256"
        }
      ],
      "name": "repairWeapon",
      "outputs": [],
      "stateMutability": "payable",
      "type": "function"
    },
    {
      "inputs": [
        {
          "internalType": "address",
          "name": "from",
          "type": "address"
        },
        {
          "internalType": "address",
          "name": "to",
          "type": "address"
        },
        {
          "internalType": "uint256",
          "name": "tokenId",
          "type": "uint256"
        }
      ],
      "name": "safeTransferFrom",
      "outputs": [],
      "stateMutability": "nonpayable",
      "type": "function"
    },
    {
      "inputs": [
        {
          "internalType": "address",
          "name": "from",
          "type": "address"
        },
        {
          "internalType": "address",
          "name": "to",
          "type": "address"
        },
        {
          "internalType": "uint256",
          "name": "tokenId",
          "type": "uint256"
        },
        {
          "internalType": "bytes",
          "name": "data",
          "type": "bytes"
        }
      ],
      "name": "safeTransferFrom",
      "outputs": [],
      "stateMutability": "nonpayable",
      "type": "function"
    },
    {
      "inputs": [
        {
          "internalType": "address",
          "name": "operator",
          "type": "address"
        },
        {
          "internalType": "bool",
          "name": "approved",
          "type": "bool"
        }
      ],
      "name": "setApprovalForAll",
      "outputs": [],
      "stateMutability": "nonpayable",
      "type": "function"
    },
    {
      "inputs": [
        {
          "internalType": "uint256",
          "name": "_price",
          "type": "uint256"
        }
      ],
      "name": "setForgePrice",
      "outputs": [],
      "stateMutability": "nonpayable",
      "type": "function"
    },
    {
      "inputs": [
        {
          "internalType": "uint256",
          "name": "_price",
          "type": "uint256"
        }
      ],
      "name": "setRepairPrice",
      "outputs": [],
      "stateMutability": "nonpayable",
      "type": "function"
    },
    {
      "inputs": [
        {
          "internalType": "bytes4",
          "name": "interfaceId",
          "type": "bytes4"
        }
      ],
      "name": "supportsInterface",
      "outputs": [
        {
          "internalType": "bool",
          "name": "",
          "type": "bool"
        }
      ],
      "stateMutability": "view",
      "type": "function"
    },
    {
      "inputs": [],
      "name": "symbol",
      "outputs": [
        {
          "internalType": "string",
          "name": "",
          "type": "string"
        }
      ],
      "stateMutability": "view",
      "type": "function"
    },
    {
      "inputs": [
        {
          "internalType": "uint256",
          "name": "index",
          "type": "uint256"
        }
      ],
      "name": "tokenByIndex",
      "outputs": [
        {
          "internalType": "uint256",
          "name": "",
          "type": "uint256"
        }
      ],
      "stateMutability": "view",
      "type": "function"
    },
    {
      "inputs": [
        {
          "internalType": "address",
          "name": "owner",
          "type": "address"
        },
        {
          "internalType": "uint256",
          "name": "index",
          "type": "uint256"
        }
      ],
      "name": "tokenOfOwnerByIndex",
      "outputs": [
        {
          "internalType": "uint256",
          "name": "",
          "type": "uint256"
        }
      ],
      "stateMutability": "view",
      "type": "function"
    },
    {
      "inputs": [
        {
          "internalType": "uint256",
          "name": "tokenId",
          "type": "uint256"
        }
      ],
      "name": "tokenURI",
      "outputs": [
        {
          "internalType": "string",
          "name": "",
          "type": "string"
        }
      ],
      "stateMutability": "view",
      "type": "function"
    },
    {
      "inputs": [],
      "name": "totalSupply",
      "outputs": [
        {
          "internalType": "uint256",
          "name": "",
          "type": "uint256"
        }
      ],
      "stateMutability": "view",
      "type": "function"
    },
    {
      "inputs": [
        {
          "internalType": "address",
          "name": "from",
          "type": "address"
        },
        {
          "internalType": "address",
          "name": "to",
          "type": "address"
        },
        {
          "internalType": "uint256",
          "name": "tokenId",
          "type": "uint256"
        }
      ],
      "name": "transferFrom",
      "outputs": [],
      "stateMutability": "nonpayable",
      "type": "function"
    },
    {
      "inputs": [
        {
          "internalType": "address",
          "name": "newOwner",
          "type": "address"
        }
      ],
      "name": "transferOwnership",
      "outputs": [],
      "stateMutability": "nonpayable",
      "type": "function"
    },
    {
      "inputs": [
        {
          "internalType": "uint256",
          "name": "tokenId",
          "type": "uint256"
        }
      ],
      "name": "unequipWeapon",
      "outputs": [],
      "stateMutability": "nonpayable",
      "type": "function"
    },
    {
      "inputs": [
        {
          "internalType": "uint256",
          "name": "",
          "type": "uint256"
        }
      ],
      "name": "weapons",
      "outputs": [
        {
          "internalType": "string",
          "name": "name",
          "type": "string"
        },
        {
          "internalType": "enum WeaponNFT.WeaponType",
          "name": "weaponType",
          "type": "uint8"
        },
        {
          "internalType": "enum WeaponNFT.Rarity",
          "name": "rarity",
          "type": "uint8"
        },
        {
          "components": [
            {
              "internalType": "uint256",
              "name": "attackBonus",
              "type": "uint256"
            },
            {
              "internalType": "uint256",
              "name": "defenseBonus",
              "type": "uint256"
            },
            {
              "internalType": "uint256",
              "name": "speedBonus",
              "type": "uint256"
            },
            {
              "internalType": "uint256",
              "name": "magicBonus",
              "type": "uint256"
            },
            {
              "internalType": "uint256",
              "name": "luckBonus",
              "type": "uint256"
            },
            {
              "internalType": "uint256",
              "name": "criticalChance",
              "type": "uint256"
            }
          ],
          "internalType": "struct WeaponNFT.WeaponStats",
          "name": "stats",
          "type": "tuple"
        },
        {
          "internalType": "uint256",
          "name": "durability",
          "type": "uint256"
        },
        {
          "internalType": "uint256",
          "name": "maxDurability",
          "type": "uint256"
        },
        {
          "internalType": "string",
          "name": "material",
          "type": "string"
        },
        {
          "internalType": "bool",
          "name": "isEquipped",
          "type": "bool"
        },
        {
          "internalType": "uint256",
          "name": "equippedTo",
          "type": "uint256"
        }
      ],
      "stateMutability": "view",
      "type": "function"
    },
    {
      "inputs": [],
      "name": "withdraw",
      "outputs": [],
      "stateMutability": "nonpayable",
      "type": "function"
    }
  ],
  "bytecode": "0x60803462000377576001600160401b0390604081810183811183821017620003615781526011825260209170427261776c4e61647320576561706f6e7360781b83820152815193828501858110828211176200036157835260068552652ba2a0a827a760d11b84860152815181811162000361576000948554916001948584811c9416801562000356575b8385101462000342578190601f94858111620002ef575b5083908583116001146200028b5789926200027f575b5050600019600383901b1c191690851b1786555b86519283116200026b5783548481811c9116801562000260575b828210146200024c5782811162000204575b50809183116001146200019d57508495829394959262000191575b5050600019600383901b1c191690821b1790555b600a8054336001600160a01b03198216811790925591519290916001600160a01b0316907f8be0079c531659141344cd1fd0a4f28419497f9722a3daafe3b4186f6b6457e09080a36611c37937e08000600e5566071afd498d0000600f5561440e90816200037d8239f35b01519050388062000112565b90601f198316968487528287209287905b898210620001ec575050838596979810620001d2575b505050811b01905562000126565b015160001960f88460031b161c19169055388080620001c4565b808785968294968601518155019501930190620001ae565b8487528187208380860160051c82019284871062000242575b0160051c019085905b82811062000236575050620000f7565b88815501859062000226565b925081926200021d565b634e487b7160e01b87526022600452602487fd5b90607f1690620000e5565b634e487b7160e01b86526041600452602486fd5b015190503880620000b7565b898052848a208894509190601f1984168b5b87828210620002d85750508411620002be575b505050811b018655620000cb565b015160001960f88460031b161c19169055388080620002b0565b8385015186558b979095019493840193016200029d565b9091508880528389208580850160051c82019286861062000338575b918991869594930160051c01915b82811062000329575050620000a1565b8b815585945089910162000319565b925081926200030b565b634e487b7160e01b88526022600452602488fd5b93607f16936200008a565b634e487b7160e01b600052604160045260246000fd5b600080fdfe608080604052600436101561001357600080fd5b60003560e01c90816301ffc9a7146129245750806306fdde0314612881578063081812fc14612863578063095ea7b3146126e957806318160ddd146126cb57806318e8030c146126735780631f13f7571461265257806323b872dd1461262e5780632444c7f71461260d5780632f745c591461255b5780633ccfd60b1461250b57806342842e0e146124d857806348d54bba146124ba5780634f6ccce71461240f578063555e73c8146123025780636352211e146122d25780636c6f42391461182e57806370a0823114611803578063715018a6146117a6578063785e8671146116e45780637b6ab0de146116c65780638da5cb5b1461169d57806395d89b41146115be5780639e41b73f146113f3578063a22cb46514611318578063b88d4fde14611269578063bc0d396b146111ab578063c0fa4f29146110cd578063c87b56dd1461042b578063e985e9c5146103d5578063eb71bf0814610307578063f2fde38b146102435763f36d679f1461018a57600080fd5b3461023e5760208060031936011261023e576001600160a01b036101ac6129f1565b16600052600d8152604060002060405190818382549182815201908192600052846000209060005b8682821061022a5786866101ea82880383612b95565b604051928392818401908285525180915260408401929160005b82811061021357505050500390f35b835185528695509381019392810192600101610204565b8354855290930192600192830192016101d4565b600080fd5b3461023e57602036600319011261023e5761025c6129f1565b610264612ced565b6001600160a01b039081169081156102b357600a54826001600160601b0360a01b821617600a55167f8be0079c531659141344cd1fd0a4f28419497f9722a3daafe3b4186f6b6457e0600080a3005b60405162461bcd60e51b815260206004820152602660248201527f4f776e61626c653a206e6577206f776e657220697320746865207a65726f206160448201526564647265737360d01b6064820152608490fd5b3461023e57602036600319011261023e5760043561033761032782612e08565b6001600160a01b03163314613b9d565b80600052600c60205260ff600b6040600020015416156103975780600052600c6020526000600c60408220600b810160ff19815416905501557f63a25c9b0e39bb14ee9e3c4efa359a7a6931d0d01b82155e9d1ecf4e96ada6bf600080a2005b60405162461bcd60e51b815260206004820152601660248201527515d9585c1bdb881a5cc81b9bdd08195c5d5a5c1c195960521b6044820152606490fd5b3461023e57604036600319011261023e576103ee6129f1565b6103f6612a07565b9060018060a01b03809116600052600560205260406000209116600052602052602060ff604060002054166040519015158152f35b3461023e57602036600319011261023e576004356000818152600260205260409020546001600160a01b03161561109157600052600c602052604060002060405161047581612af1565b61047e82612bb6565b81526001820154916104a960ff602084019461049c82821687613418565b60081c1660408401613424565b6104b560028201612c5c565b606083015260088101546080830152600981015460a0830152600c6104dc600a8301612bb6565b918260c085015260ff600b82015416151560e0850152015461010083015260066040830151101561107b5761051090613d2d565b908251600881101561107b5761052590613ff0565b916040820151600681101561107b576109959161061d61054660aa936142b2565b95610863610192875161055d60608a015151613a5a565b661e17ba32bc3a1f60c91b610579602060608d01510151613a5a565b8b67129e17ba32bc3a1f60c11b610597604060608401510151613a5a565b846105a960a060608601510151613a5a565b946105c460a06105bc6080880151613a5a565b960151613a5a565b9760516040519e8f809c7f3c7465787420783d2232302220793d22333530222066696c6c3d22776869746560208301527011103337b73a16b9b4bd329e911899111f60791b6040830152602081519485930191016129a9565b8a018360518201527f3c7465787420783d2232302220793d22333635222066696c6c3d22776869746560588201527f2220666f6e742d73697a653d223130223e41544b3a202b0000000000000000006078820152610685825180936020608f850191016129a9565b0182608f8201527f3c7465787420783d2232302220793d22333830222066696c6c3d22776869746560968201527f2220666f6e742d73697a653d223130223e4445463a202b00000000000000000060b68201526106ec82518093602060cd850191016129a9565b018160cd8201527f3c7465787420783d223132302220793d22333635222066696c6c3d227768697460d48201527f652220666f6e742d73697a653d223130223e5350443a202b000000000000000060f48201528251906107568261010c95602087850191016129a9565b01918201527f3c7465787420783d223132302220793d22333830222066696c6c3d22776869746101138201527f652220666f6e742d73697a653d223130223e435249543a2000000000000000006101338201528351906107c08261014b96602088850191016129a9565b01928301527f3c7465787420783d223232302220793d22333635222066696c6c3d22776869746101538301527f652220666f6e742d73697a653d223130223e4455523a2000000000000000000061017383015261082881518092602061018a860191016129a9565b602f60f81b61018a828401015283519161084e8361018b966020888686010191016129a9565b01019182015203610172810185520183612b95565b6040519687937f3c7376672077696474683d2234303022206865696768743d223430302220786d60208601527f6c6e733d22687474703a2f2f7777772e77332e6f72672f323030302f737667226040860152601f60f91b6060860152651e3232b3399f60d11b60618601526108e28151809260206067890191016129a9565b84016108f88251809360206067850191016129a9565b01661e17b232b3399f60c91b60678201527f3c726563742077696474683d2234303022206865696768743d22343030222066606e8201527534b6361e913ab9361411bbb2b0b837b721339491179f60511b608e82015261096282518093602060a4850191016129a9565b0161097782518093602060a4850191016129a9565b01651e17b9bb339f60d11b60a482015203608a810185520183612b95565b6109a0815192613bd9565b9251600881101561107b57610a25906040516109bb81612ad5565b6109c361387a565b81526109cd61389b565b60208201526109da6138ba565b60408201526109e76138d9565b60608201526109f46138fa565b6080820152610a0161391c565b60a0820152610a0e61393e565b60c0820152610a1b61395f565b60e0820152613a17565b51906040810151600681101561107b57610ac590604051610a4581612aba565b604051610a5181612b5e565b600681526521b7b6b6b7b760d11b60208201528152604051610a7281612b5e565b60088152672ab731b7b6b6b7b760c11b60208201526020820152610a9461397f565b6040820152610aa161399f565b6060820152610aae6139bf565b6080820152610abb6139e4565b60a0820152613a06565b5160c0820151610ad9606084015151613a5a565b610aea602060608601510151613a5a565b90610afc604060608701510151613a5a565b90610b0d6060808801510151613a5a565b90610b1f60a060608901510151613a5a565b93610b2d6080890151613a5a565b9560e0610b3d60a08b0151613a5a565b9901511561105757604051610b5181612b5e565b60048152637472756560e01b6020820152995b6040519c8d809d683d913730b6b2911d1160b91b6020830152805160298193019160200191610b92926129a9565b61088b60f21b908e01602981018290527f226465736372697074696f6e223a224120706f77657266756c20776561706f6e602b8201527f20666f7220427261776c4e61647320626174746c6573222c0000000000000000604b8201527f22696d616765223a22646174613a696d6167652f7376672b786d6c3b626173656063820152620d8d0b60ea1b608382015282519192610c3790839060868401906020016129a9565b019060868201526d2261747472696275746573223a5b60901b6088820152609681017f7b2274726169745f74797065223a2254797065222c2276616c7565223a22000090528151918260b483019160200191610c92926129a9565b019762089f4b60ea1b988960b482015260b781017f7b2274726169745f74797065223a22526172697479222c2276616c7565223a2290528151918260d783019160200191610cdf926129a9565b018860d782015260da81017f7b2274726169745f74797065223a224d6174657269616c222c2276616c7565229052611d1160f11b60fa8201528151918260fc83019160200191610d2e926129a9565b018760fc82015260ff81017f7b2274726169745f74797065223a2241747461636b20426f6e7573222c227661905264363ab2911d60d91b61011f82015282519061012493828583019160200191610d84926129a9565b0193611f4b60f21b85818097958196015261012681017f7b2274726169745f74797065223a22446566656e736520426f6e7573222c227690526530b63ab2911d60d11b61014682015283519061014c94828683019160200191610de6926129a9565b019283015261014e82017f7b2274726169745f74797065223a22537065656420426f6e7573222c2276616c9052633ab2911d60e11b918261016e8201528151918261017283019160200191610e3a926129a9565b01908261017283015261017482017f7b2274726169745f74797065223a224d6167696320426f6e7573222c2276616c905261019482015282519061019893828583019160200191610e8a926129a9565b01918201527f7b2274726169745f74797065223a22437269746963616c204368616e6365222c61019a82015267113b30b63ab2911d60c11b6101ba82015282516101c293909190610ee3908390868401906020016129a9565b01918201527f7b2274726169745f74797065223a224475726162696c697479222c2276616c756101c48201526332911d1160e11b6101e482015281516101e892909190610f38908390858401906020016129a9565b01908101602f60f81b90528251906101e993828583019160200191610f5c926129a9565b01918201526101ec81017f7b2274726169745f74797065223a224571756970706564222c2276616c756522905261020c8101601d60f91b905281519061020d92828483019160200191610fae926129a9565b01908101607d60f81b905261020e8101615d7d60f01b9052036101f08101825261021001610fdc9082612b95565b610fe590613bd9565b6040518091602082017f646174613a6170706c69636174696f6e2f6a736f6e3b6261736536342c000000905280519081603d84019160200191611027926129a9565b810103601d81018252603d0161103d9082612b95565b60405180916020825260208201611053916129cc565b0390f35b60405161106381612b5e565b600581526466616c736560d81b602082015299610b64565b634e487b7160e01b600052602160045260246000fd5b60405162461bcd60e51b8152602060048201526014602482015273151bdad95b88191bd95cc81b9bdd08195e1a5cdd60621b6044820152606490fd5b602036600319011261023e576004356110e861032782612e08565b80600052600c602052604060002060096008820154910154111561115a57611114600f543410156133c8565b80600052600c6020527f77fb26260b14c2a263b7a6f83f748d4c15e012aecacea38a64b214c208e794f060206008604060002060098101549182910155604051908152a2005b60405162461bcd60e51b8152602060048201526024808201527f576561706f6e20697320616c72656164792061742066756c6c206475726162696044820152636c69747960e01b6064820152608490fd5b3461023e576111b936612cbc565b600a549091906001600160a01b0316330361121457600052600c60205260086040600020018181541160001461120e5780549182039182116111f85755005b634e487b7160e01b600052601160045260246000fd5b60009055005b60405162461bcd60e51b815260206004820152602760248201527f4f6e6c7920626174746c65206172656e612063616e20726564756365206475726044820152666162696c69747960c81b6064820152608490fd5b3461023e57608036600319011261023e576112826129f1565b61128a612a07565b90606435906044356001600160401b03831161023e573660238401121561023e578260040135936112ba85612cd2565b926112c86040519485612b95565b858452366024878701011161023e576000602087611316986024611311990183890137860101526113016112fc8433612f45565b612e6c565b61130c83838361300d565b61333d565b612f21565b005b3461023e57604036600319011261023e576113316129f1565b602435908115159081830361023e576001600160a01b0316913383146113ae576113809033600052600560205260406000208460005260205260406000209060ff801983541691151516179055565b6040519081527f17307eab39ab6107e8899845ad3d59bd9653f200f220920489ca2b5937696c3160203392a3005b60405162461bcd60e51b815260206004820152601960248201527f4552433732313a20617070726f766520746f2063616c6c6572000000000000006044820152606490fd5b3461023e5760208060031936011261023e576040519061141282612af1565b606082526000818301819052604083015261142b6134c4565b6060830152608082016000905260a082016000905260c082016060905260e082016000905261010080920160009052600435600052600c815260406000206040519161147683612af1565b61147f82612bb6565b835260018201549381840161149760ff871682613418565b604085019560081c60ff166114ac9087613424565b6114b860028501612c5c565b60608601908152600885015460808701908152600986015460a08801908152906114e4600a8801612bb6565b9260c08901938452600b88015460ff169760e08a019815158952600c0154958901958652604051998a99888b52516101c080998c01526101e08b01611528916129cc565b955160408b0161153791612ca2565b5160608a0161154591612caf565b51608089016115859160a0809180518452602081015160208501526040810151604085015260608101516060850152608081015160808501520151910152565b516101408801525161016087015251858203601f19016101808701526115ab91906129cc565b925115156101a085015251908301520390f35b3461023e57600036600319011261023e57604051600060018054906115e282612a80565b80855291818116908115611676575060011461161d575b6110538461160981860382612b95565b6040519182916020835260208301906129cc565b600081815292507fb10e2d527612073b26eecdfd717e6a320cf44b4afac2b0732d9fcbe2b7fa0cf65b82841061165e575050508101602001611609826115f9565b80546020858701810191909152909301928101611646565b60ff191660208087019190915292151560051b8501909201925061160991508390506115f9565b3461023e57600036600319011261023e57600a546040516001600160a01b039091168152602090f35b3461023e57600036600319011261023e576020600e54604051908152f35b3461023e576116f236612cbc565b906116ff61032782612e08565b80600052600c60205260ff600b60406000200154166117615780600052600c60205281600c6040600020600b8101600160ff1982541617905501557f73fc4a89502514f0ff36090bf8b75b8dd4ec0d71e695f484bebfb4ffe5a638e2600080a3005b60405162461bcd60e51b815260206004820152601a60248201527f576561706f6e20697320616c72656164792065717569707065640000000000006044820152606490fd5b3461023e57600036600319011261023e576117bf612ced565b600a80546001600160a01b031981169091556000906001600160a01b03167f8be0079c531659141344cd1fd0a4f28419497f9722a3daafe3b4186f6b6457e08280a3005b3461023e57602036600319011261023e5760206118266118216129f1565b612d45565b604051908152f35b600036600319011261023e57611848600e543410156133c8565b600b5460018101600b5561185a6134c4565b5060405160208101904282524460408201528260608201523360601b60808201526074815261188881612b43565b51902090600860078316101561107b576103e88260081c06610190811060001461228057506000915b6118b96134c4565b50600683101561107b57600f8302838104600f14841517156111f857600a0180600a116111f8576118f060058360101c068261340b565b908060011c61190560058560181c068261340b565b9161193e61192d61191f60058860201c066003850461340b565b9360058860281c069061340b565b9160058760301c069060021c61340b565b90876003810204600314881517156111f857600388026005016005116111f8576003880260050192600095600788161560001461211c57601481018091116111f85794600a810181116111f857600a015b6040519561199c87612aba565b8652602086015260408501526060840152608083015260a08201526119c18386613530565b906040516119ce81612ad5565b6119d661387a565b81526119e061389b565b60208201526119ed6138ba565b60408201526119fa6138d9565b6060820152611a076138fa565b6080820152611a1461391c565b60a0820152611a2161393e565b60c0820152611a2e61395f565b60e082015260405190611a4082612aba565b604051611a4c81612b28565b600081528252604051611a5e81612b5e565b600481526346696e6560e01b60208201526020830152611a7c61397f565b6040830152611a8961399f565b6060830152611a966139bf565b6080830152611aa36139e4565b60a0830152611abd88611ab68185613a06565b5193613a06565b51511561210657604051611ad081612b5e565b60018152600160fd1b6020820152945b61107b57611b9391611af86023926007891690613a17565b51611b0289613a5a565b906040519783611b1c8a95518092602080890191016129a9565b8401611b3182518093602080850191016129a9565b01875190611b46826020830160208c016129a9565b01600160fd1b6020820152611b658251809360206021850191016129a9565b0161202360f01b6021820152611b8482518093602087850191016129a9565b01036003810186520184612b95565b6032860290868204603214871517156111f857816064016064116111f85760405193611bbe85612af1565b8452611bd06007861660208601613418565b611bdd8760408601613424565b606084015280606401608084015260640160a083015260c0820152600060e0820152600061010082015282600052600c60205260406000209080518051906001600160401b038211611f63578190611c358554612a80565b601f81116120b6575b50602090601f831160011461204a5760009261203f575b50508160011b916000199060031b1c19161782555b6020810151600881101561107b5760018301546040830151600681101561107b5761ff0060ff9160081b1692169061ffff19161717600183015560a060608201518051600285015560208101516003850155604081015160048501556060810151600585015560808101516006850155015160078301556080810151600883015560a0810151600983015560c08101518051906001600160401b038211611f6357611d18600a850154612a80565b601f8111611ff8575b50602090601f8311600114611f84579180600c949261010094600092611f79575b50508160011b916000199060031b1c191617600a8501555b611d7960e08201511515600b86019060ff801983541691151516179055565b015191015533600052600d60205260406000208054600160401b811015611f6357611da991600182018155612a1d565b81549060031b9084821b91600019901b191617905560405192611dcb84612b28565b600084523315611f1f57611eed611ef792611ee1611311600797611e0d611e0789600052600260205260018060a01b0360406000205416151590565b15613478565b600854886000526009602052604060002055611e2888613430565b611e3133612d45565b336000526006602052604060002081600052602052886040600020558860005289602052604060002055611e7d611e0789600052600260205260018060a01b0360406000205416151590565b3360005260036020526040600020600181540190558760005260026020526040600020336001600160601b0360a01b825416179055873360007fddf252ad1be2c89b69c2b068fc378daa952ba7f163c4a11628f55a4df523b3ef8180a4873361321d565b60405195869116612ca2565b6020840190612caf565b7f9a7194ff90c6d1df041fefa15934bb44f0225b3a62e486f194d10125b2e6118e60403393a3005b606460405162461bcd60e51b815260206004820152602060248201527f4552433732313a206d696e7420746f20746865207a65726f20616464726573736044820152fd5b634e487b7160e01b600052604160045260246000fd5b015190508980611d42565b90601f19831691600a860160005260206000209260005b818110611fe0575092600192859261010096600c989610611fc7575b505050811b01600a850155611d5a565b015160001960f88460031b161c19169055898080611fb7565b92936020600181928786015181550195019301611f9b565b600a85016000526020600020601f840160051c810160208510612038575b601f830160051c8201811061202c575050611d21565b60008155600101612016565b5080612016565b015190508780611c55565b9250846000526020600020906000935b601f198416851061209b576001945083601f19811610612082575b505050811b018255611c6a565b015160001960f88460031b161c19169055878080612075565b8181015183556020948501946001909301929091019061205a565b909150846000526020600020601f840160051c8101602085106120ff575b90849392915b601f830160051c820181106120f0575050611c3e565b600081558594506001016120da565b50806120d4565b60405161211281612b28565b6000815294611ae0565b600096509394936007881660010361214e57601e81018091116111f857946005810181116111f857600501935b61198f565b6000965094906007881660020361217e57601981018091116111f85790600a810181116111f857600a019361198f565b909394919550600095600360078916148015612270575b8790156121be5750602881018091116111f85791806009198101116111f857600919019461198f565b9490929461107b57600788166004036122075750601e81018091116111f857601460038a02018060038b02600501116111f85793806004198101116111f857600419019461198f565b939550936000956005600789161460001461223d57602381018091116111f8579480600e198101116111f857600e19019061198f565b6000965094906005196007891601612149579094600f81018091116111f85794600f810181116111f857600f019061198f565b5060009650600788811614612195565b61028a81101561229357506001916118b1565b6103208110156122a657506002916118b1565b6103988110156122b957506003916118b1565b6103d411156122ca576004916118b1565b6005916118b1565b3461023e57602036600319011261023e5760206122f0600435612e08565b6040516001600160a01b039091168152f35b3461023e57602036600319011261023e57600435600052600c602052612385604060002061232f81612bb6565b9060018101546123fc61234460028401612c5c565b916008840154600985015461235b600a8701612bb6565b916123e2600c60ff600b8a015416980154966123a66040519b8c9b8c6101c08091528d01906129cc565b9661239660208d0160ff8316612ca2565b60ff60408d019160081c16612caf565b60608a019060a0809180518452602081015160208501526040810151604085015260608101516060850152608081015160808501520151910152565b6101208801526101408701528582036101608701526129cc565b9115156101808401526101a08301520390f35b3461023e57602036600319011261023e576004356008548110156124605760209060086000527ff3f7a9fe364faab93b216da50a3214154f22a0a2b415b23a84c8169e8b636ee30154604051908152f35b60405162461bcd60e51b815260206004820152602c60248201527f455243373231456e756d657261626c653a20676c6f62616c20696e646578206f60448201526b7574206f6620626f756e647360a01b6064820152608490fd5b3461023e57600036600319011261023e576020600f54604051908152f35b3461023e576113166113116124ec36612a4b565b90604051926124fa84612b28565b600084526113016112fc8433612f45565b3461023e57600036600319011261023e57612524612ced565b600080808060018060a01b03600a54164790828215612552575bf11561254657005b6040513d6000823e3d90fd5b506108fc61253e565b3461023e57604036600319011261023e576125746129f1565b6024359061258181612d45565b8210156125b45760018060a01b031660005260066020526040600020906000526020526020604060002054604051908152f35b60405162461bcd60e51b815260206004820152602b60248201527f455243373231456e756d657261626c653a206f776e657220696e646578206f7560448201526a74206f6620626f756e647360a81b6064820152608490fd5b3461023e57602036600319011261023e57612626612ced565b600435600f55005b3461023e5761131661263f36612a4b565b9161264d6112fc8433612f45565b61300d565b3461023e57602036600319011261023e5761266b612ced565b600435600e55005b3461023e57604036600319011261023e5761268c6129f1565b6001600160a01b03166000908152600d602052604090208054602435919082101561023e576020916126bd91612a1d565b90546040519160031b1c8152f35b3461023e57600036600319011261023e576020600854604051908152f35b3461023e57604036600319011261023e576127026129f1565b602435906001600160a01b03808061271985612e08565b16921691808314612814578033149081156127ef575b501561278457600083815260046020526040902080546001600160a01b0319168317905561275c83612e08565b167f8c5be1e5ebec7d5bd14f71427d1e84f3dd0314c0f7b2291e5b200ac8c7c3b925600080a4005b60405162461bcd60e51b815260206004820152603d60248201527f4552433732313a20617070726f76652063616c6c6572206973206e6f7420746f60448201527f6b656e206f776e6572206f7220617070726f76656420666f7220616c6c0000006064820152608490fd5b9050600052600560205260406000203360005260205260ff604060002054168461272f565b60405162461bcd60e51b815260206004820152602160248201527f4552433732313a20617070726f76616c20746f2063757272656e74206f776e656044820152603960f91b6064820152608490fd5b3461023e57602036600319011261023e5760206122f0600435612e2e565b3461023e57600036600319011261023e57604051600080546128a281612a80565b8084529060019081811690811561167657506001146128cb576110538461160981860382612b95565b600080805292507f290decd9548b62a8d60345a988386fc84ba6bc95484008f6362f93160ef3e5635b82841061290c575050508101602001611609826115f9565b805460208587018101919091529093019281016128f4565b3461023e57602036600319011261023e576004359063ffffffff60e01b821680920361023e5760209163780e9d6360e01b8114908115612966575b5015158152f35b6380ac58cd60e01b811491508115612998575b8115612987575b508361295f565b6301ffc9a760e01b14905083612980565b635b5e139f60e01b81149150612979565b60005b8381106129bc5750506000910152565b81810151838201526020016129ac565b906020916129e5815180928185528580860191016129a9565b601f01601f1916010190565b600435906001600160a01b038216820361023e57565b602435906001600160a01b038216820361023e57565b8054821015612a355760005260206000200190600090565b634e487b7160e01b600052603260045260246000fd5b606090600319011261023e576001600160a01b0390600435828116810361023e5791602435908116810361023e579060443590565b90600182811c92168015612ab0575b6020831014612a9a57565b634e487b7160e01b600052602260045260246000fd5b91607f1691612a8f565b60c081019081106001600160401b03821117611f6357604052565b61010081019081106001600160401b03821117611f6357604052565b61012081019081106001600160401b03821117611f6357604052565b606081019081106001600160401b03821117611f6357604052565b602081019081106001600160401b03821117611f6357604052565b60a081019081106001600160401b03821117611f6357604052565b604081019081106001600160401b03821117611f6357604052565b61014081019081106001600160401b03821117611f6357604052565b90601f801991011681019081106001600160401b03821117611f6357604052565b9060405191826000825492612bca84612a80565b908184526001948581169081600014612c395750600114612bf6575b5050612bf492500383612b95565b565b9093915060005260209081600020936000915b818310612c21575050612bf493508201013880612be6565b85548884018501529485019487945091830191612c09565b915050612bf494506020925060ff191682840152151560051b8201013880612be6565b90604051612c6981612aba565b60a06005829480548452600181015460208501526002810154604085015260038101546060850152600481015460808501520154910152565b90600882101561107b5752565b90600682101561107b5752565b604090600319011261023e576004359060243590565b6001600160401b038111611f6357601f01601f191660200190565b600a546001600160a01b03163303612d0157565b606460405162461bcd60e51b815260206004820152602060248201527f4f776e61626c653a2063616c6c6572206973206e6f7420746865206f776e65726044820152fd5b6001600160a01b03168015612d6557600052600360205260406000205490565b60405162461bcd60e51b815260206004820152602960248201527f4552433732313a2061646472657373207a65726f206973206e6f7420612076616044820152683634b21037bbb732b960b91b6064820152608490fd5b15612dc357565b60405162461bcd60e51b815260206004820152601860248201527f4552433732313a20696e76616c696420746f6b656e20494400000000000000006044820152606490fd5b6000908152600260205260409020546001600160a01b0316612e2b811515612dbc565b90565b600081815260026020526040902054612e51906001600160a01b03161515612dbc565b6000908152600460205260409020546001600160a01b031690565b15612e7357565b60405162461bcd60e51b815260206004820152602d60248201527f4552433732313a2063616c6c6572206973206e6f7420746f6b656e206f776e6560448201526c1c881bdc88185c1c1c9bdd9959609a1b6064820152608490fd5b60809060208152603260208201527f4552433732313a207472616e7366657220746f206e6f6e20455243373231526560408201527131b2b4bb32b91034b6b83632b6b2b73a32b960711b60608201520190565b15612f2857565b60405162461bcd60e51b815280612f4160048201612ece565b0390fd5b906001600160a01b038080612f5984612e08565b16931691838314938415612f8c575b508315612f76575b50505090565b612f8291929350612e2e565b1614388080612f70565b909350600052600560205260406000208260005260205260ff604060002054169238612f68565b15612fba57565b60405162461bcd60e51b815260206004820152602560248201527f4552433732313a207472616e736665722066726f6d20696e636f72726563742060448201526437bbb732b960d91b6064820152608490fd5b6130319161301a84612e08565b6001600160a01b0393848416939185168414612fb3565b8382169384156131cc57839182613129575061307b9260085487600052600960205260406000205561306287613430565b8286036130f6575b5061307486612e08565b1614612fb3565b7fddf252ad1be2c89b69c2b068fc378daa952ba7f163c4a11628f55a4df523b3ef60008481526004602052604081206001600160601b0360a01b9081815416905583825260036020526040822060001981540190558482526040822060018154019055858252600260205284604083209182541617905580a4565b6130ff90612d45565b6040600087815260066020528181208382526020528882822055888152600760205220553861306a565b85830361313b575b5061307b92613062565b613146919250612d45565b6000198101919082116111f85761307b9284926000908882526020906007825260409182842054828103613195575b508a84528383812055868452600681528284209184525281205592613131565b8785526006825283852083865282528385205488865260068352848620828752835280858720558552600782528385205538613175565b60405162461bcd60e51b8152602060048201526024808201527f4552433732313a207472616e7366657220746f20746865207a65726f206164646044820152637265737360e01b6064820152608490fd5b9192600092909190803b156133335761326b946040518092630a85bd0160e11b9485835233600484015287602484015260448301526080606483015281878160209a8b9660848301906129cc565b03926001600160a01b03165af18491816132ef575b506132de575050503d6000146132d6573d61329a81612cd2565b906132a86040519283612b95565b81528091833d92013e5b805191826132d35760405162461bcd60e51b815280612f4160048201612ece565b01fd5b5060606132b2565b6001600160e01b0319161492509050565b9091508581813d831161332c575b6133078183612b95565b8101031261332857516001600160e01b031981168103613328579038613280565b8480fd5b503d6132fd565b5050915050600190565b9293600093909291803b156133bd579484916133979660405180948193630a85bd0160e11b9788845233600485015260018060a01b0380921660248501526044840152608060648401528260209b8c9760848301906129cc565b0393165af18491816132ef57506132de575050503d6000146132d6573d61329a81612cd2565b505050915050600190565b156133cf57565b60405162461bcd60e51b8152602060048201526014602482015273125b9cdd59999a58da595b9d081c185e5b595b9d60621b6044820152606490fd5b919082018092116111f857565b600882101561107b5752565b600682101561107b5752565b600854600160401b811015611f63576001810180600855811015612a355760086000527ff3f7a9fe364faab93b216da50a3214154f22a0a2b415b23a84c8169e8b636ee30155565b1561347f57565b60405162461bcd60e51b815260206004820152601c60248201527f4552433732313a20746f6b656e20616c7265616479206d696e746564000000006044820152606490fd5b604051906134d182612aba565b8160a06000918281528260208201528260408201528260608201528260808201520152565b906003811015612a355760051b0190565b6040519061351482612b5e565b600d82526c135bdb98590810dc9e5cdd185b609a1b6020830152565b600681101561107b57806135c257506135be9060036040519161355283612b0d565b60405161355e81612b5e565b600481526324b937b760e11b6020820152835260405161357d81612b5e565b600681526542726f6e7a6560d01b602082015260208401526040516135a181612b5e565b600481526315dbdbd960e21b6020820152604084015206906134f6565b5190565b6001810361364d57506135be906003604051916135de83612b0d565b6040516135ea81612b5e565b600581526414dd19595b60da1b6020820152835260405161360a81612b5e565b600681526529b4b63b32b960d11b6020820152602084015260405161362e81612b5e565b600681526521b7b83832b960d11b6020820152604084015206906134f6565b600281036136da57506135be9060036040519161366983612b0d565b60405161367581612b5e565b600481526311dbdb1960e21b6020820152835260405161369481612b5e565b6008815267506c6174696e756d60c01b602082015260208401526040516136ba81612b5e565b600781526610dc9e5cdd185b60ca1b6020820152604084015206906134f6565b6003810361376a57506135be906003604051916136f683612b0d565b60405161370281612b5e565b6007815266135a5d1a1c9a5b60ca1b6020820152835260405161372481612b5e565b60078152661059185b585b9d60ca1b6020820152602084015260405161374981612b5e565b600881526727b139b4b234b0b760c11b6020820152604084015206906134f6565b6004036137e4576135be9060036040519161378483612b0d565b61378c613507565b835260405161379a81612b5e565b600a815269159bda590814dd19595b60b21b602082015260208401526040516137c281612b5e565b600981526814dd185c9b1a59da1d60ba1b6020820152604084015206906134f6565b6135be906003604051916137f783612b0d565b60405161380381612b5e565b600a815269141d5c9948135bdb985960b21b6020820152835260405161382881612b5e565b600e81526d436f736d696320457373656e636560901b6020820152602084015260405161385481612b5e565b600d81526c1499585b1a5d1e4814da185c99609a1b6020820152604084015206906134f6565b6040519061388782612b5e565b600582526414dddbdc9960da1b6020830152565b604051906138a882612b5e565b600382526241786560e81b6020830152565b604051906138c782612b5e565b6003825262426f7760e81b6020830152565b604051906138e682612b5e565b600582526429ba30b33360d91b6020830152565b6040519061390782612b5e565b60068252652230b3b3b2b960d11b6020830152565b6040519061392982612b5e565b60068252652430b6b6b2b960d11b6020830152565b6040519061394b82612b5e565b600582526429b832b0b960d91b6020830152565b6040519061396c82612b5e565b600482526315d85b9960e21b6020830152565b6040519061398c82612b5e565b60048252635261726560e01b6020830152565b604051906139ac82612b5e565b60048252634570696360e01b6020830152565b604051906139cc82612b5e565b60098252684c6567656e6461727960b81b6020830152565b604051906139f182612b5e565b60068252654d797468696360d01b6020830152565b906006811015612a355760051b0190565b906008811015612a355760051b0190565b90613a3282612cd2565b613a3f6040519182612b95565b8281528092613a50601f1991612cd2565b0190602036910137565b806000917a184f03e93ff9f4daa797ed6e38ed64bf6a1f01000000000000000080821015613b8f575b506d04ee2d6d415b85acef810000000080831015613b80575b50662386f26fc1000080831015613b71575b506305f5e10080831015613b62575b5061271080831015613b53575b506064821015613b43575b600a80921015613b39575b600190816021613af1828701613a28565b95860101905b613b03575b5050505090565b600019019083906f181899199a1a9b1b9c1cb0b131b232b360811b8282061a835304918215613b3457919082613af7565b613afc565b9160010191613ae0565b9190606460029104910191613ad5565b60049193920491019138613aca565b60089193920491019138613abd565b60109193920491019138613aae565b60209193920491019138613a9c565b604093508104915038613a83565b15613ba457565b60405162461bcd60e51b815260206004820152600d60248201526c2737ba103a34329037bbb732b960991b6044820152606490fd5b805115613d195760405190613bed82612b0d565b604082527f4142434445464748494a4b4c4d4e4f505152535455565758595a61626364656660208301527f6768696a6b6c6d6e6f707172737475767778797a303132333435363738392b2f604083015280516002918282018092116111f8576003918290046001600160fe1b03811681036111f857613c6f908495941b613a28565b936020850193829183518401906020820192835194600085525b838110613cc8575050505052510680600114613cb557600214613caa575090565b603d90600019015390565b50603d9081600019820153600119015390565b87600491999293949901918251600190603f9082828260121c16880101518453828282600c1c16880101518385015382828260061c1688010151888501531685010151898201530197929190613c89565b50604051613d2681612b28565b6000815290565b60208151910120613d3c613507565b6020815191012014613e9c57604051613d5481612b79565b61010581527f3c6c696e6561724772616469656e742069643d22776561706f6e4267223e3c7360208201527f746f70206f66667365743d223025222073746f702d636f6c6f723d222330453160408201527f303046222f3e3c73746f70206f66667365743d2231303025222073746f702d6360608201527f6f6c6f723d2223464246414639222f3e3c2f6c696e6561724772616469656e7460808201527f3e3c6c696e6561724772616469656e742069643d22776561706f6e436f6c6f7260a08201527f223e3c73746f70206f66667365743d223025222073746f702d636f6c6f723d2260c08201527f23383336454639222f3e3c73746f70206f66667365743d22313030252220737460e08201527f6f702d636f6c6f723d2223413030353544222f3e3c2f6c696e656172477261646101008201526434b2b73a1f60d91b61012082015290565b604051613ea881612b79565b61010581527f3c6c696e6561724772616469656e742069643d22776561706f6e4267223e3c7360208201527f746f70206f66667365743d223025222073746f702d636f6c6f723d222338333660408201527f454639222f3e3c73746f70206f66667365743d2231303025222073746f702d6360608201527f6f6c6f723d2223323030303532222f3e3c2f6c696e6561724772616469656e7460808201527f3e3c6c696e6561724772616469656e742069643d22776561706f6e436f6c6f7260a08201527f223e3c73746f70206f66667365743d223025222073746f702d636f6c6f723d2260c08201527f23464646464646222f3e3c73746f70206f66667365743d22313030252220737460e08201527f6f702d636f6c6f723d2223383336454639222f3e3c2f6c696e656172477261646101008201526434b2b73a1f60d91b61012082015290565b600881101561107b57806140c2575060405161400b81612aba565b608f81527f3c7265637420783d223139302220793d22313030222077696474683d2232302260208201527f206865696768743d22323030222066696c6c3d2275726c2823776561706f6e4360408201527f6f6c6f7229222f3e3c7265637420783d223138302220793d223330302220776960608201527f6474683d22343022206865696768743d223230222066696c6c3d2275726c282360808201526e3bb2b0b837b721b7b637b91491179f60891b60a082015290565b6002810361417657506040516140d781612b43565b607f81527f3c7061746820643d224d3135302031303020513230302031353020313530203360208201527f303020513230302032353020323530203330302051323030203135302032353060408201527f2031303022207374726f6b653d2275726c2823776561706f6e436f6c6f72292260608201527f207374726f6b652d77696474683d2238222066696c6c3d226e6f6e65222f3e00608082015290565b6003146141fd57604051608081018181106001600160401b03821117611f6357604052604881527f3c7265637420783d223138302220793d22313530222077696474683d2234302260208201527f206865696768743d22313030222066696c6c3d2275726c2823776561706f6e4360408201526737b637b91491179f60c11b606082015290565b60405161420981612aba565b608181527f3c7265637420783d223139352220793d223530222077696474683d223130222060208201527f6865696768743d22333030222066696c6c3d2275726c2823776561706f6e436f60408201527f6c6f7229222f3e3c636972636c652063783d22323030222063793d223730222060608201527f723d223230222066696c6c3d2275726c2823776561706f6e436f6c6f7229222f6080820152601f60f91b60a082015290565b600681101561107b57600481149081156143cd575b506142d857604051613d2681612b28565b60405160e081018181106001600160401b03821117611f635760405260ab81527f3c66696c7465722069643d22776561706f6e476c6f77223e3c6665476175737360208201527f69616e426c757220737464446576696174696f6e3d22342220726573756c743d60408201527f22636f6c6f726564426c7572222f3e3c66654d657267653e3c66654d6572676560608201527f4e6f646520696e3d22636f6c6f726564426c7572222f3e3c66654d657267654e60808201527f6f646520696e3d22536f7572636547726170686963222f3e3c2f66654d65726760a08201526a329f1e17b334b63a32b91f60a91b60c082015290565b6005915014386142c756fea264697066735822122023e89379e29736eb61941cebe79866e5954fc5a5d849341b0d2c895e04be662b64736f6c63430008130033",
  "linkReferences": {},
  "deployedLinkReferences": {}
}